{"abi":[{"type":"function","name":"_emitDonateEvent","inputs":[{"name":"content","type":"bytes","internalType":"bytes"}],"outputs":[],"stateMutability":"nonpayable"},{"type":"function","name":"_emitInitializeEvent","inputs":[{"name":"content","type":"bytes","internalType":"bytes"}],"outputs":[],"stateMutability":"nonpayable"},{"type":"function","name":"_emitModifyKernelEvent","inputs":[{"name":"content","type":"bytes","internalType":"bytes"}],"outputs":[],"stateMutability":"nonpayable"},{"type":"function","name":"_emitModifyPoolGrowthPortionEvent","inputs":[{"name":"content","type":"bytes","internalType":"bytes"}],"outputs":[],"stateMutability":"nonpayable"},{"type":"function","name":"_emitModifyPositionEvent","inputs":[{"name":"content","type":"bytes","internalType":"bytes"}],"outputs":[],"stateMutability":"nonpayable"},{"type":"function","name":"_emitSwapEvent","inputs":[{"name":"content","type":"bytes","internalType":"bytes"}],"outputs":[],"stateMutability":"nonpayable"},{"type":"function","name":"_emitUpdateGrowthPortionsEvent","inputs":[{"name":"content","type":"bytes","internalType":"bytes"}],"outputs":[],"stateMutability":"nonpayable"},{"type":"function","name":"allowance","inputs":[{"name":"owner","type":"address","internalType":"address"},{"name":"spender","type":"address","internalType":"address"},{"name":"tag","type":"uint256","internalType":"Tag"}],"outputs":[{"name":"amount","type":"uint256","internalType":"uint256"}],"stateMutability":"view"},{"type":"function","name":"approve","inputs":[{"name":"spender","type":"address","internalType":"address"},{"name":"tag","type":"uint256","internalType":"Tag"},{"name":"amount","type":"uint256","internalType":"uint256"}],"outputs":[{"name":"success","type":"bool","internalType":"bool"}],"stateMutability":"nonpayable"},{"type":"function","name":"balanceOf","inputs":[{"name":"owner","type":"address","internalType":"address"},{"name":"tag","type":"uint256","internalType":"Tag"}],"outputs":[{"name":"amount","type":"uint256","internalType":"uint256"}],"stateMutability":"view"},{"type":"function","name":"clear","inputs":[{"name":"tag","type":"uint256","internalType":"Tag"},{"name":"amount","type":"uint256","internalType":"uint256"}],"outputs":[],"stateMutability":"nonpayable"},{"type":"function","name":"dispatch","inputs":[{"name":"input","type":"bytes","internalType":"bytes"}],"outputs":[{"name":"output0","type":"int256","internalType":"int256"},{"name":"output1","type":"int256","internalType":"int256"}],"stateMutability":"nonpayable"},{"type":"function","name":"isOperator","inputs":[{"name":"owner","type":"address","internalType":"address"},{"name":"spender","type":"address","internalType":"address"}],"outputs":[{"name":"status","type":"bool","internalType":"bool"}],"stateMutability":"view"},{"type":"function","name":"modifyBalance","inputs":[{"name":"owner","type":"address","internalType":"address"},{"name":"tag0","type":"uint256","internalType":"Tag"},{"name":"tag1","type":"uint256","internalType":"Tag"},{"name":"amount0","type":"int256","internalType":"int256"},{"name":"amount1","type":"int256","internalType":"int256"}],"outputs":[],"stateMutability":"nonpayable"},{"type":"function","name":"modifyBalance","inputs":[{"name":"owner","type":"address","internalType":"address"},{"name":"tag","type":"uint256","internalType":"Tag"},{"name":"amount","type":"int256","internalType":"int256"}],"outputs":[],"stateMutability":"nonpayable"},{"type":"function","name":"setOperator","inputs":[{"name":"spender","type":"address","internalType":"address"},{"name":"approved","type":"bool","internalType":"bool"}],"outputs":[{"name":"success","type":"bool","internalType":"bool"}],"stateMutability":"nonpayable"},{"type":"function","name":"settle","inputs":[],"outputs":[{"name":"paid","type":"uint256","internalType":"uint256"}],"stateMutability":"payable"},{"type":"function","name":"storageAccess","inputs":[{"name":"slot","type":"bytes32","internalType":"bytes32"}],"outputs":[{"name":"","type":"bytes32","internalType":"bytes32"}],"stateMutability":"view"},{"type":"function","name":"storageAccess","inputs":[{"name":"startSlot","type":"bytes32","internalType":"bytes32"},{"name":"nSlots","type":"uint256","internalType":"uint256"}],"outputs":[{"name":"","type":"bytes32[]","internalType":"bytes32[]"}],"stateMutability":"view"},{"type":"function","name":"storageAccess","inputs":[{"name":"slots","type":"bytes32[]","internalType":"bytes32[]"}],"outputs":[{"name":"","type":"bytes32[]","internalType":"bytes32[]"}],"stateMutability":"view"},{"type":"function","name":"supportsInterface","inputs":[{"name":"interfaceId","type":"bytes4","internalType":"bytes4"}],"outputs":[{"name":"","type":"bool","internalType":"bool"}],"stateMutability":"pure"},{"type":"function","name":"swap","inputs":[{"name":"poolId","type":"uint256","internalType":"uint256"},{"name":"amountSpecified","type":"int256","internalType":"int256"},{"name":"logPriceLimit","type":"int256","internalType":"X59"},{"name":"zeroForOne","type":"uint256","internalType":"uint256"},{"name":"hookData","type":"bytes","internalType":"bytes"}],"outputs":[{"name":"amount0","type":"int256","internalType":"int256"},{"name":"amount1","type":"int256","internalType":"int256"}],"stateMutability":"nonpayable"},{"type":"function","name":"sync","inputs":[{"name":"token","type":"address","internalType":"address"}],"outputs":[],"stateMutability":"nonpayable"},{"type":"function","name":"sync","inputs":[{"name":"token","type":"address","internalType":"address"},{"name":"tokenId","type":"uint256","internalType":"uint256"}],"outputs":[],"stateMutability":"nonpayable"},{"type":"function","name":"take","inputs":[{"name":"token","type":"address","internalType":"address"},{"name":"tokenId","type":"uint256","internalType":"uint256"},{"name":"to","type":"address","internalType":"address"},{"name":"amount","type":"uint256","internalType":"uint256"}],"outputs":[],"stateMutability":"nonpayable"},{"type":"function","name":"take","inputs":[{"name":"token","type":"address","internalType":"address"},{"name":"to","type":"address","internalType":"address"},{"name":"amount","type":"uint256","internalType":"uint256"}],"outputs":[],"stateMutability":"nonpayable"},{"type":"function","name":"take","inputs":[{"name":"token","type":"address","internalType":"address"},{"name":"tokenId","type":"uint256","internalType":"uint256"},{"name":"to","type":"address","internalType":"address"},{"name":"amount","type":"uint256","internalType":"uint256"},{"name":"transferData","type":"bytes","internalType":"bytes"}],"outputs":[],"stateMutability":"nonpayable"},{"type":"function","name":"transfer","inputs":[{"name":"receiver","type":"address","internalType":"address"},{"name":"tag","type":"uint256","internalType":"Tag"},{"name":"amount","type":"uint256","internalType":"uint256"}],"outputs":[{"name":"success","type":"bool","internalType":"bool"}],"stateMutability":"nonpayable"},{"type":"function","name":"transferFrom","inputs":[{"name":"sender","type":"address","internalType":"address"},{"name":"receiver","type":"address","internalType":"address"},{"name":"tag","type":"uint256","internalType":"Tag"},{"name":"amount","type":"uint256","internalType":"uint256"}],"outputs":[{"name":"success","type":"bool","internalType":"bool"}],"stateMutability":"nonpayable"},{"type":"function","name":"transferTransientBalanceFrom","inputs":[{"name":"sender","type":"address","internalType":"address"},{"name":"receiver","type":"address","internalType":"address"},{"name":"tag","type":"uint256","internalType":"Tag"},{"name":"amount","type":"uint256","internalType":"uint256"}],"outputs":[],"stateMutability":"nonpayable"},{"type":"function","name":"transientAccess","inputs":[{"name":"slot","type":"bytes32","internalType":"bytes32"}],"outputs":[{"name":"","type":"bytes32","internalType":"bytes32"}],"stateMutability":"view"},{"type":"function","name":"transientAccess","inputs":[{"name":"slots","type":"bytes32[]","internalType":"bytes32[]"}],"outputs":[{"name":"","type":"bytes32[]","internalType":"bytes32[]"}],"stateMutability":"view"},{"type":"function","name":"transientAccess","inputs":[{"name":"startSlot","type":"bytes32","internalType":"bytes32"},{"name":"nSlots","type":"uint256","internalType":"uint256"}],"outputs":[{"name":"","type":"bytes32[]","internalType":"bytes32[]"}],"stateMutability":"view"},{"type":"function","name":"unlock","inputs":[{"name":"unlockTarget","type":"address","internalType":"address"},{"name":"data","type":"bytes","internalType":"bytes"}],"outputs":[{"name":"result","type":"bytes","internalType":"bytes"}],"stateMutability":"payable"},{"type":"event","name":"Approval","inputs":[{"name":"owner","type":"address","indexed":true,"internalType":"address"},{"name":"spender","type":"address","indexed":true,"internalType":"address"},{"name":"tag","type":"uint256","indexed":true,"internalType":"Tag"},{"name":"amount","type":"uint256","indexed":false,"internalType":"uint256"}],"anonymous":false},{"type":"event","name":"Donate","inputs":[{"name":"poolId","type":"uint256","indexed":true,"internalType":"uint256"},{"name":"caller","type":"address","indexed":true,"internalType":"address"},{"name":"data","type":"bytes32","indexed":false,"internalType":"bytes32"}],"anonymous":false},{"type":"event","name":"Initialize","inputs":[{"name":"poolId","type":"uint256","indexed":true,"internalType":"uint256"},{"name":"tag0","type":"uint256","indexed":true,"internalType":"Tag"},{"name":"tag1","type":"uint256","indexed":true,"internalType":"Tag"},{"name":"data","type":"bytes","indexed":false,"internalType":"bytes"}],"anonymous":false},{"type":"event","name":"ModifyDoubleBalanceEvent","inputs":[{"name":"caller","type":"address","indexed":true,"internalType":"address"},{"name":"owner","type":"address","indexed":true,"internalType":"address"},{"name":"tag","type":"uint256","indexed":true,"internalType":"Tag"},{"name":"increment","type":"int256","indexed":false,"internalType":"int256"},{"name":"balance","type":"uint256","indexed":false,"internalType":"uint256"}],"anonymous":false},{"type":"event","name":"ModifyKernel","inputs":[{"name":"poolId","type":"uint256","indexed":true,"internalType":"uint256"},{"name":"caller","type":"address","indexed":true,"internalType":"address"},{"name":"data","type":"bytes","indexed":false,"internalType":"bytes"}],"anonymous":false},{"type":"event","name":"ModifyPoolGrowthPortion","inputs":[{"name":"poolId","type":"uint256","indexed":true,"internalType":"uint256"},{"name":"caller","type":"address","indexed":true,"internalType":"address"},{"name":"data","type":"bytes32","indexed":false,"internalType":"bytes32"}],"anonymous":false},{"type":"event","name":"ModifyPoolOwner","inputs":[{"name":"poolId","type":"uint256","indexed":true,"internalType":"uint256"},{"name":"oldOwner","type":"address","indexed":true,"internalType":"address"},{"name":"newOwner","type":"address","indexed":true,"internalType":"address"}],"anonymous":false},{"type":"event","name":"ModifyPosition","inputs":[{"name":"poolId","type":"uint256","indexed":true,"internalType":"uint256"},{"name":"caller","type":"address","indexed":true,"internalType":"address"},{"name":"data","type":"bytes32[6]","indexed":false,"internalType":"bytes32[6]"}],"anonymous":false},{"type":"event","name":"ModifyProtocol","inputs":[{"name":"newOwner","type":"address","indexed":true,"internalType":"address"},{"name":"newProtocol","type":"uint256","indexed":false,"internalType":"uint256"}],"anonymous":false},{"type":"event","name":"ModifySentinel","inputs":[{"name":"oldSentinel","type":"address","indexed":false,"internalType":"contract ISentinel"},{"name":"newSentinel","type":"address","indexed":false,"internalType":"contract ISentinel"}],"anonymous":false},{"type":"event","name":"OperatorSet","inputs":[{"name":"owner","type":"address","indexed":true,"internalType":"address"},{"name":"operator","type":"address","indexed":true,"internalType":"address"},{"name":"approved","type":"bool","indexed":false,"internalType":"bool"}],"anonymous":false},{"type":"event","name":"PoolCollection","inputs":[{"name":"poolId","type":"uint256","indexed":true,"internalType":"uint256"},{"name":"owner","type":"address","indexed":true,"internalType":"address"},{"name":"amount0","type":"uint256","indexed":false,"internalType":"uint256"},{"name":"amount1","type":"uint256","indexed":false,"internalType":"uint256"}],"anonymous":false},{"type":"event","name":"ProtocolCollection","inputs":[{"name":"poolId","type":"uint256","indexed":true,"internalType":"uint256"},{"name":"amount0","type":"uint256","indexed":false,"internalType":"uint256"},{"name":"amount1","type":"uint256","indexed":false,"internalType":"uint256"}],"anonymous":false},{"type":"event","name":"Swap","inputs":[{"name":"poolId","type":"uint256","indexed":true,"internalType":"uint256"},{"name":"caller","type":"address","indexed":true,"internalType":"address"},{"name":"data","type":"bytes32","indexed":false,"internalType":"bytes32"}],"anonymous":false},{"type":"event","name":"Transfer","inputs":[{"name":"caller","type":"address","indexed":false,"internalType":"address"},{"name":"from","type":"address","indexed":true,"internalType":"address"},{"name":"to","type":"address","indexed":true,"internalType":"address"},{"name":"tag","type":"uint256","indexed":true,"internalType":"Tag"},{"name":"amount","type":"uint256","indexed":false,"internalType":"uint256"}],"anonymous":false},{"type":"event","name":"UpdateGrowthPortions","inputs":[{"name":"poolId","type":"uint256","indexed":true,"internalType":"uint256"},{"name":"caller","type":"address","indexed":true,"internalType":"address"},{"name":"data","type":"bytes32","indexed":false,"internalType":"bytes32"}],"anonymous":false}],"bytecode":{"object":"0x608060405234601c57600e6020565b61166e61002b823961166e90f35b6026565b60405190565b5f80fdfe60806040526004361015610013575b61116a565b61001d5f3561023b565b8062fdd58e1461023657806301ffc9a7146102315780630720b5841461022c578063095bcdb6146102275780630b0d9c091461022257806311da60b41461021d5780631352ea351461021857806315e8d479146102135780632986e9201461020e5780632b7f670f14610209578063322696981461020457806341ee903e146101ff578063426a8493146101fa57806349dff3ab146101f557806350f4d221146101f0578063558a7297146101eb578063598af9e7146101e6578063738c440a146101e1578063745fa652146101dc578063834178fe146101d757806388b2303a146101d257806389c59eb9146101cd578063a5841194146101c8578063ab7fff18146101c3578063b6363cf2146101be578063b84a0dd2146101b9578063bea556c9146101b4578063d02bdb62146101af578063d442faf1146101aa578063da954559146101a5578063de5a24ca146101a0578063ef4fcafa1461019b578063fd66097c146101965763fe99049a0361000e57611131565b6110fd565b6110d0565b61106f565b611040565b610fc6565b610f90565b610f62565b610ef2565b610ebc565b610e58565b610e2c565b610dd8565b610d2f565b610cfa565b610cc4565b610bcc565b610ae5565b610a75565b6109f1565b6109c1565b610935565b610908565b61089e565b610784565b6106e0565b6106ac565b6105f6565b610565565b610528565b6104b8565b61044f565b6103ac565b610302565b60e01c90565b60405190565b5f80fd5b5f80fd5b5f80fd5b60018060a01b031690565b61026790610253565b90565b6102738161025e565b0361027a57565b5f80fd5b9050359061028b8261026a565b565b90565b6102998161028d565b036102a057565b5f80fd5b905035906102b182610290565b565b91906040838203126102db57806102cf6102d8925f860161027e565b936020016102a4565b90565b61024b565b6102e99061028d565b9052565b9190610300905f602085019401906102e0565b565b346103335761032f61031e6103183660046102b3565b90611172565b610326610241565b918291826102ed565b0390f35b610247565b63ffffffff60e01b1690565b61034d81610338565b0361035457565b5f80fd5b9050359061036582610344565b565b906020828203126103805761037d915f01610358565b90565b61024b565b151590565b61039390610385565b9052565b91906103aa905f6020850194019061038a565b565b346103dc576103d86103c76103c2366004610367565b611183565b6103cf610241565b91829182610397565b0390f35b610247565b6103ea8161028d565b036103f157565b5f80fd5b90503590610402826103e1565b565b6080818303126104455761041a825f830161027e565b9261044261042b84602085016103f5565b93610439816040860161027e565b936060016103f5565b90565b61024b565b5f0190565b346104795761045f366004610404565b5050505061046b610241565b806104758161044a565b0390f35b610247565b90916060828403126104b3576104b0610499845f850161027e565b936104a781602086016102a4565b936040016103f5565b90565b61024b565b346104e9576104e56104d46104ce36600461047e565b9161118f565b6104dc610241565b91829182610397565b0390f35b610247565b909160608284031261052357610520610509845f850161027e565b93610517816020860161027e565b936040016103f5565b90565b61024b565b34610551576105383660046104ee565b505050610543610241565b8061054d8161044a565b0390f35b610247565b5f91031261056057565b61024b565b610570366004610556565b61058c61057b61119d565b610583610241565b918291826102ed565b0390f35b90565b61059c81610590565b036105a357565b5f80fd5b905035906105b482610593565b565b906020828203126105cf576105cc915f016105a7565b90565b61024b565b6105dd90610590565b9052565b91906105f4905f602085019401906105d4565b565b346106265761062261061161060c3660046105b6565b6111ac565b610619610241565b918291826105e1565b0390f35b610247565b5f80fd5b5f80fd5b5f80fd5b909182601f830112156106715781359167ffffffffffffffff831161066c57602001926001830284011161066757565b610633565b61062f565b61062b565b906020828203126106a7575f82013567ffffffffffffffff81116106a25761069e9201610637565b9091565b61024f565b61024b565b346106db576106c56106bf366004610676565b906111b8565b6106cd610241565b806106d78161044a565b0390f35b610247565b3461070f576106f96106f3366004610676565b906111cc565b610701610241565b8061070b8161044a565b0390f35b610247565b91909160a08184031261077f5761072d835f830161027e565b9261073b81602084016103f5565b92610749826040850161027e565b9261075783606083016103f5565b92608082013567ffffffffffffffff811161077a576107769201610637565b9091565b61024f565b61024b565b346107b057610794366004610714565b5050505050506107a2610241565b806107ac8161044a565b0390f35b610247565b90565b6107c1816107b5565b036107c857565b5f80fd5b905035906107d9826107b8565b565b6107e4816107b5565b036107eb57565b5f80fd5b905035906107fc826107db565b565b91909160a08184031261086957610817835f83016103f5565b9261082581602084016107cc565b9261083382604085016107ef565b9261084183606083016103f5565b92608082013567ffffffffffffffff8111610864576108609201610637565b9091565b61024f565b61024b565b610877906107b5565b9052565b91602061089c92949361089560408201965f83019061086e565b019061086e565b565b346108d6576108bd6108b13660046107fe565b949390939291926111e4565b906108d26108c9610241565b9283928361087b565b0390f35b610247565b919060408382031261090357806108f7610900925f86016102a4565b936020016103f5565b90565b61024b565b34610930576109183660046108db565b5050610922610241565b8061092c8161044a565b0390f35b610247565b346109665761096261095161094b36600461047e565b916111fe565b610959610241565b91829182610397565b0390f35b610247565b919060a0838203126109bc57610983815f850161027e565b9261099182602083016102a4565b926109b96109a284604085016102a4565b936109b081606086016107cc565b936080016107cc565b90565b61024b565b346109ec576109d136600461096b565b50505050506109de610241565b806109e88161044a565b0390f35b610247565b34610a2057610a0a610a04366004610676565b9061120c565b610a12610241565b80610a1c8161044a565b0390f35b610247565b610a2e81610385565b03610a3557565b5f80fd5b90503590610a4682610a25565b565b9190604083820312610a705780610a64610a6d925f860161027e565b93602001610a39565b90565b61024b565b34610aa657610aa2610a91610a8b366004610a48565b90611220565b610a99610241565b91829182610397565b0390f35b610247565b9091606082840312610ae057610add610ac6845f850161027e565b93610ad4816020860161027e565b936040016102a4565b90565b61024b565b34610b1657610b12610b01610afb366004610aab565b9161122d565b610b09610241565b918291826102ed565b0390f35b610247565b919091604081840312610b5c57610b34835f830161027e565b92602082013567ffffffffffffffff8111610b5757610b539201610637565b9091565b61024f565b61024b565b5190565b60209181520190565b90825f9392825e0152565b601f801991011690565b610ba2610bab602093610bb093610b9981610b61565b93848093610b65565b95869101610b6e565b610b79565b0190565b610bc99160208201915f818403910152610b83565b90565b610bf4610be3610bdd366004610b1b565b91611240565b610beb610241565b91829182610bb4565b0390f35b9190604083820312610c205780610c14610c1d925f86016105a7565b936020016103f5565b90565b61024b565b5190565b60209181520190565b60200190565b610c4190610590565b9052565b90610c5281602093610c38565b0190565b60200190565b90610c79610c73610c6c84610c25565b8093610c29565b92610c32565b905f5b818110610c895750505090565b909192610ca2610c9c6001928651610c45565b94610c56565b9101919091610c7c565b610cc19160208201915f818403910152610c5c565b90565b34610cf557610cf1610ce0610cda366004610bf8565b90611253565b610ce8610241565b91829182610cac565b0390f35b610247565b34610d2a57610d26610d15610d103660046105b6565b611260565b610d1d610241565b918291826105e1565b0390f35b610247565b34610d5e57610d48610d42366004610676565b9061126c565b610d50610241565b80610d5a8161044a565b0390f35b610247565b909182601f83011215610d9d5781359167ffffffffffffffff8311610d98576020019260208302840111610d9357565b610633565b61062f565b61062b565b90602082820312610dd3575f82013567ffffffffffffffff8111610dce57610dca9201610d63565b9091565b61024f565b61024b565b34610e0957610e05610df4610dee366004610da2565b90611280565b610dfc610241565b91829182610cac565b0390f35b610247565b90602082820312610e2757610e24915f0161027e565b90565b61024b565b34610e5357610e3c366004610e0e565b50610e45610241565b80610e4f8161044a565b0390f35b610247565b34610e8a57610e71610e6b366004610676565b9061128d565b90610e86610e7d610241565b9283928361087b565b0390f35b610247565b9190604083820312610eb75780610eab610eb4925f860161027e565b9360200161027e565b90565b61024b565b34610eed57610ee9610ed8610ed2366004610e8f565b906112a3565b610ee0610241565b91829182610397565b0390f35b610247565b34610f2357610f1f610f0e610f08366004610da2565b906112b0565b610f16610241565b91829182610cac565b0390f35b610247565b9091606082840312610f5d57610f5a610f43845f850161027e565b93610f5181602086016102a4565b936040016107cc565b90565b61024b565b34610f8b57610f72366004610f28565b505050610f7d610241565b80610f878161044a565b0390f35b610247565b34610fc157610fbd610fac610fa6366004610bf8565b906112bd565b610fb4610241565b91829182610cac565b0390f35b610247565b34610ff557610fdf610fd9366004610676565b906112ca565b610fe7610241565b80610ff18161044a565b0390f35b610247565b60808183031261103b57611010825f830161027e565b92611038611021846020850161027e565b9361102f81604086016102a4565b936060016103f5565b90565b61024b565b3461106a57611050366004610ffa565b5050505061105c610241565b806110668161044a565b0390f35b610247565b3461109e57611088611082366004610676565b906112de565b611090610241565b8061109a8161044a565b0390f35b610247565b91906040838203126110cb57806110bf6110c8925f860161027e565b936020016103f5565b90565b61024b565b346110f8576110e03660046110a3565b50506110ea610241565b806110f48161044a565b0390f35b610247565b3461112c57611116611110366004610676565b906112f2565b61111e610241565b806111288161044a565b0390f35b610247565b3461116557611161611150611147366004610ffa565b92919091611306565b611158610241565b91829182610397565b0390f35b610247565b5f80fd5b5f90565b505061117c61116e565b90565b5f90565b5061118c61117f565b90565b50505061119a61117f565b90565b6111a561116e565b90565b5f90565b506111b56111a8565b90565b505060243560446080376111ca611315565b565b505060243560446080376111de61135f565b565b5f90565b5050505050506111f26111e0565b906111fb6111e0565b90565b50505061120961117f565b90565b5050602435604460803761121e6113a9565b565b505061122a61117f565b90565b50505061123861116e565b90565b606090565b50505061124b61123b565b90565b606090565b505061125d61124e565b90565b506112696111a8565b90565b5050602435604460803761127e6113f3565b565b505061128a61124e565b90565b50506112976111e0565b906112a06111e0565b90565b50506112ad61117f565b90565b50506112ba61124e565b90565b50506112c761124e565b90565b505060243560446080376112dc611449565b565b505060243560446080376112f0611490565b565b50506024356044608037611304611526565b565b5050505061131261117f565b90565b61131d6115ca565b7f05581d7b0a863ab3ccd5fbadc5fb5f55cd3cd2901be73dd910af4000c4520864601061068f0151915f601061068f01523391602061068fa3601061068f0152565b6113676115ca565b7f2acc6bc8384d87ac5f72c8f45789cd5cd8e90615e261099383b4bf5c5ee8aa4160066107f40151915f60066107f40152339160206107f4a360066107f40152565b6113b16115ca565b7f7e45b502773d0df12a025b25a368af435357d3235d9dcd3bae60ca3ae6bce8b5600c6107fa0151915f600c6107fa0152339160206107faa3600c6107fa0152565b6113fb6115ca565b6114036115dd565b61140b6115f1565b907f7b1b2e572a782739fc5ac300a50ada6a682434d210dee70c511533a0c8782ed69160031b0190815192601061068f845e3391602060108503a352565b6114516115ca565b7feef50c47b85ec69dca971f098462811b06c03a692c07d40cb113b6a022f1484f6101a851915f6101a8523391601060f86101a8030160f8a36101a852565b6114986115ca565b7f94eaae04beca0748e87fc5d696c5ddf77d74f92fb580e9592b31494c3a25597a906114c2611604565b906106e0820360406106e0035190602060406106e0035260206106e00351928160206106e003528451955f8652602083065f8111611519575b50604033930160406106e003a360406106e0035260206106e0035252565b602091930301915f6114fb565b61152e6115ca565b611536611618565b9061153f611628565b611547611604565b917fb4add0d5707804b0e090dcf8df1efa022cb9d69286cbcd113c027c82fefc315c916106e084039460406106e0035192602060406106e0035260206106e00351948760206106e0035260408751985f8952602081065f81116115bf575b500160406106e003a460406106e0035260206106e0035252565b60209103015f6115a5565b6115d261116e565b5060d85190565b5f90565b6115e56115d9565b5061060f5190565b5f90565b6115f96115ed565b506106515160f01c90565b61160c61116e565b5061062f5190565b5f90565b611620611614565b506106e05190565b611630611614565b50610700519056fea264697066735822122015f1e148418c465dd390f82c51001d255c25ad350a01610053e7de69f18ecfa164736f6c63430008220033","linkReferences":{}},"methodIdentifiers":{"_emitDonateEvent(bytes)":"15e8d479","_emitInitializeEvent(bytes)":"fd66097c","_emitModifyKernelEvent(bytes)":"de5a24ca","_emitModifyPoolGrowthPortionEvent(bytes)":"2986e920","_emitModifyPositionEvent(bytes)":"d442faf1","_emitSwapEvent(bytes)":"88b2303a","_emitUpdateGrowthPortionsEvent(bytes)":"50f4d221","allowance(address,address,uint256)":"598af9e7","approve(address,uint256,uint256)":"426a8493","balanceOf(address,uint256)":"00fdd58e","clear(uint256,uint256)":"41ee903e","dispatch(bytes)":"ab7fff18","isOperator(address,address)":"b6363cf2","modifyBalance(address,uint256,int256)":"bea556c9","modifyBalance(address,uint256,uint256,int256,int256)":"49dff3ab","setOperator(address,bool)":"558a7297","settle()":"11da60b4","storageAccess(bytes32)":"1352ea35","storageAccess(bytes32,uint256)":"745fa652","storageAccess(bytes32[])":"89c59eb9","supportsInterface(bytes4)":"01ffc9a7","swap(uint256,int256,int256,uint256,bytes)":"32269698","sync(address)":"a5841194","sync(address,uint256)":"ef4fcafa","take(address,address,uint256)":"0b0d9c09","take(address,uint256,address,uint256)":"0720b584","take(address,uint256,address,uint256,bytes)":"2b7f670f","transfer(address,uint256,uint256)":"095bcdb6","transferFrom(address,address,uint256,uint256)":"fe99049a","transferTransientBalanceFrom(address,address,uint256,uint256)":"da954559","transientAccess(bytes32)":"834178fe","transientAccess(bytes32,uint256)":"d02bdb62","transientAccess(bytes32[])":"b84a0dd2","unlock(address,bytes)":"738c440a"},"id":13}