{"abi":[{"type":"constructor","inputs":[{"name":"admin","type":"address","internalType":"address"}],"stateMutability":"nonpayable"},{"type":"function","name":"addressOf","inputs":[{"name":"_salt","type":"bytes32","internalType":"bytes32"}],"outputs":[{"name":"","type":"address","internalType":"address"}],"stateMutability":"view"},{"type":"function","name":"admin","inputs":[],"outputs":[{"name":"","type":"address","internalType":"address"}],"stateMutability":"view"},{"type":"function","name":"create3","inputs":[{"name":"_salt","type":"bytes32","internalType":"bytes32"},{"name":"_creationCode","type":"bytes","internalType":"bytes"}],"outputs":[{"name":"addr","type":"address","internalType":"address"}],"stateMutability":"nonpayable"},{"type":"function","name":"create3","inputs":[{"name":"_salt","type":"bytes32","internalType":"bytes32"},{"name":"_creationCode","type":"bytes","internalType":"bytes"},{"name":"_value","type":"uint256","internalType":"uint256"}],"outputs":[{"name":"addr","type":"address","internalType":"address"}],"stateMutability":"nonpayable"}],"bytecode":{"object":"0x60a0604052346100465761001961001461010b565b61012c565b61002161004b565b61060261013d823960805181818161034c015281816103cf0152610420015261060290f35b610051565b60405190565b5f80fd5b601f801991011690565b634e487b7160e01b5f52604160045260245ffd5b9061007d90610055565b810190811060018060401b0382111761009557604052565b61005f565b906100ad6100a661004b565b9283610073565b565b5f80fd5b60018060a01b031690565b6100c7906100b3565b90565b6100d3816100be565b036100da57565b5f80fd5b905051906100eb826100ca565b565b9060208282031261010657610103915f016100de565b90565b6100af565b61012961073f8038038061011e8161009a565b9283398101906100ed565b90565b61013590610137565b565b60805256fe60806040526004361015610013575b6103a3565b61001d5f3561005c565b80632af25238146100575780634ffbf66414610052578063bb34534c1461004d5763f851a4400361000e5761036e565b610306565b6102b2565b610203565b60e01c90565b60405190565b5f80fd5b5f80fd5b5f80fd5b90565b61008081610074565b0361008757565b5f80fd5b9050359061009882610077565b565b5f80fd5b5f80fd5b601f801991011690565b634e487b7160e01b5f52604160045260245ffd5b906100ca906100a2565b810190811067ffffffffffffffff8211176100e457604052565b6100ac565b906100fc6100f5610062565b92836100c0565b565b67ffffffffffffffff811161011c576101186020916100a2565b0190565b6100ac565b90825f939282370152565b9092919261014161013c826100fe565b6100e9565b9381855260208501908284011161015d5761015b92610121565b565b61009e565b9080601f830112156101805781602061017d9335910161012c565b90565b61009a565b9190916040818403126101c55761019e835f830161008b565b92602082013567ffffffffffffffff81116101c0576101bd9201610162565b90565b610070565b61006c565b60018060a01b031690565b6101de906101ca565b90565b6101ea906101d5565b9052565b9190610201905f602085019401906101e1565b565b346102345761023061021f610219366004610185565b906103b6565b610227610062565b918291826101ee565b0390f35b610068565b90565b61024581610239565b0361024c57565b5f80fd5b9050359061025d8261023c565b565b90916060828403126102ad57610277835f840161008b565b9260208301359067ffffffffffffffff82116102a85761029c816102a5938601610162565b93604001610250565b90565b610070565b61006c565b346102e3576102df6102ce6102c836600461025f565b91610407565b6102d6610062565b918291826101ee565b0390f35b610068565b90602082820312610301576102fe915f0161008b565b90565b61006c565b346103365761033261032161031c3660046102e8565b61045b565b610329610062565b918291826101ee565b0390f35b610068565b5f91031261034557565b61006c565b7f000000000000000000000000000000000000000000000000000000000000000090565b3461039e5761037e36600461033b565b61039a61038961034a565b610391610062565b918291826101ee565b0390f35b610068565b5f80fd5b5f90565b156103b257565b5f80fd5b610404916103c26103a7565b506103ff336103f96103f37f00000000000000000000000000000000000000000000000000000000000000006101d5565b916101d5565b146103ab565b610492565b90565b610458926104136103a7565b506104503361044a6104447f00000000000000000000000000000000000000000000000000000000000000006101d5565b916101d5565b146103ab565b9190916104b3565b90565b61046d906104676103a7565b50610555565b90565b90565b90565b61048a61048561048f92610470565b610473565b610239565b90565b6104b09161049e6103a7565b506104ab5f929192610476565b6104b3565b90565b92916104bd6103a7565b506f67363d3d37363d34f03d5260086018f35f526010805ff58015610514575f9181839260145261d694835260016034536017601e2095602083519301915af1823b021561050757565b63301164255f526004601cfd5b63301164255f526004601cfd5b61053561053061053a926101ca565b610473565b6101ca565b90565b61054690610521565b90565b6105529061053d565b90565b610571906105616103a7565b5061056b30610549565b90610574565b90565b61057c6103a7565b50604051915f5260ff600b536020527f21c35dbe1b344a2488cf3321d6ce542f8e9f305544ff09e4993a62319a497c1f6040526055600b2060145260405261d6945f5260016034536017601e209056fea26469706673582212209e71a1ac94f00e514e4c21e0e5fc7c538f49def634be61ed1e4840d713c0d2b864736f6c63430008220033","linkReferences":{}},"methodIdentifiers":{"addressOf(bytes32)":"bb34534c","admin()":"f851a440","create3(bytes32,bytes)":"2af25238","create3(bytes32,bytes,uint256)":"4ffbf664"},"id":9}