{"abi":[{"type":"function","name":"add","inputs":[{"name":"value0","type":"int256","internalType":"X127"},{"name":"value1","type":"int256","internalType":"X127"}],"outputs":[{"name":"result","type":"int256","internalType":"X127"}],"stateMutability":"nonpayable"},{"type":"function","name":"equals","inputs":[{"name":"value0","type":"int256","internalType":"X127"},{"name":"value1","type":"int256","internalType":"X127"}],"outputs":[{"name":"result","type":"bool","internalType":"bool"}],"stateMutability":"nonpayable"},{"type":"function","name":"greaterThan","inputs":[{"name":"value0","type":"int256","internalType":"X127"},{"name":"value1","type":"int256","internalType":"X127"}],"outputs":[{"name":"result","type":"bool","internalType":"bool"}],"stateMutability":"nonpayable"},{"type":"function","name":"greaterThanOrEqualTo","inputs":[{"name":"value0","type":"int256","internalType":"X127"},{"name":"value1","type":"int256","internalType":"X127"}],"outputs":[{"name":"result","type":"bool","internalType":"bool"}],"stateMutability":"nonpayable"},{"type":"function","name":"lessThan","inputs":[{"name":"value0","type":"int256","internalType":"X127"},{"name":"value1","type":"int256","internalType":"X127"}],"outputs":[{"name":"result","type":"bool","internalType":"bool"}],"stateMutability":"nonpayable"},{"type":"function","name":"lessThanOrEqualTo","inputs":[{"name":"value0","type":"int256","internalType":"X127"},{"name":"value1","type":"int256","internalType":"X127"}],"outputs":[{"name":"result","type":"bool","internalType":"bool"}],"stateMutability":"nonpayable"},{"type":"function","name":"maxX127","inputs":[{"name":"value0","type":"int256","internalType":"X127"},{"name":"value1","type":"int256","internalType":"X127"}],"outputs":[{"name":"result","type":"int256","internalType":"X127"}],"stateMutability":"nonpayable"},{"type":"function","name":"minX127","inputs":[{"name":"value0","type":"int256","internalType":"X127"},{"name":"value1","type":"int256","internalType":"X127"}],"outputs":[{"name":"result","type":"int256","internalType":"X127"}],"stateMutability":"nonpayable"},{"type":"function","name":"mulDiv","inputs":[{"name":"value","type":"int256","internalType":"X127"},{"name":"numerator","type":"int256","internalType":"X216"},{"name":"denominator","type":"int256","internalType":"X216"}],"outputs":[{"name":"result","type":"int256","internalType":"X127"}],"stateMutability":"nonpayable"},{"type":"function","name":"notEqual","inputs":[{"name":"value0","type":"int256","internalType":"X127"},{"name":"value1","type":"int256","internalType":"X127"}],"outputs":[{"name":"result","type":"bool","internalType":"bool"}],"stateMutability":"nonpayable"},{"type":"function","name":"safeAdd","inputs":[{"name":"value0","type":"int256","internalType":"X127"},{"name":"value1","type":"int256","internalType":"X127"}],"outputs":[{"name":"result","type":"int256","internalType":"X127"}],"stateMutability":"nonpayable"},{"type":"function","name":"sub","inputs":[{"name":"value0","type":"int256","internalType":"X127"},{"name":"value1","type":"int256","internalType":"X127"}],"outputs":[{"name":"result","type":"int256","internalType":"X127"}],"stateMutability":"nonpayable"},{"type":"function","name":"times","inputs":[{"name":"value","type":"int256","internalType":"X127"},{"name":"multiplier","type":"uint256","internalType":"X23"}],"outputs":[{"name":"product","type":"int256","internalType":"X127"}],"stateMutability":"nonpayable"},{"type":"function","name":"toInteger","inputs":[{"name":"value","type":"int256","internalType":"X127"}],"outputs":[{"name":"result","type":"int256","internalType":"int256"}],"stateMutability":"nonpayable"},{"type":"function","name":"toIntegerRoundUp","inputs":[{"name":"value","type":"int256","internalType":"X127"}],"outputs":[{"name":"result","type":"int256","internalType":"int256"}],"stateMutability":"nonpayable"},{"type":"error","name":"SafeAddFailed","inputs":[{"name":"a","type":"int256","internalType":"X127"},{"name":"b","type":"int256","internalType":"X127"}]}],"bytecode":{"object":"0x608060405234601c57600e6020565b610c4561002b8239610c4590f35b6026565b60405190565b5f80fdfe60806040526004361015610013575b6105f3565b61001d5f3561010c565b8063230ebba11461010757806370be203d146101025780638a0a6457146100fd578063a5f3c23b146100f8578063adefc37b146100f3578063b4a480ad146100ee578063babdd838146100e9578063bfb0f6bf146100e4578063c5bb4555146100df578063c7401831146100da578063cf828136146100d5578063f747540c146100d0578063f997e136146100cb578063fd70d9c3146100c65763ffe4b6560361000e576105bd565b610534565b6104fe565b6104c8565b610492565b6103ff565b6103ca565b610394565b61035e565b610328565b6102f2565b6102bc565b610246565b6101d0565b61019a565b60e01c90565b60405190565b5f80fd5b5f80fd5b90565b61012c81610120565b0361013357565b5f80fd5b9050359061014482610123565b565b919060408382031261016e578061016261016b925f8601610137565b93602001610137565b90565b61011c565b151590565b61018190610173565b9052565b9190610198905f60208501940190610178565b565b346101cb576101c76101b66101b0366004610146565b906105fb565b6101be610112565b91829182610185565b0390f35b610118565b34610201576101fd6101ec6101e6366004610146565b90610611565b6101f4610112565b91829182610185565b0390f35b610118565b9060208282031261021f5761021c915f01610137565b90565b61011c565b61022d90610120565b9052565b9190610244905f60208501940190610224565b565b346102765761027261026161025c366004610206565b61062b565b610269610112565b91829182610231565b0390f35b610118565b90565b61029261028d61029792610120565b61027b565b610120565b90565b6102a39061027e565b9052565b91906102ba905f6020850194019061029a565b565b346102ed576102e96102d86102d2366004610146565b90610644565b6102e0610112565b918291826102a7565b0390f35b610118565b346103235761031f61030e610308366004610146565b9061065a565b610316610112565b918291826102a7565b0390f35b610118565b346103595761035561034461033e366004610146565b90610670565b61034c610112565b91829182610185565b0390f35b610118565b3461038f5761038b61037a610374366004610146565b90610686565b610382610112565b91829182610185565b0390f35b610118565b346103c5576103c16103b06103aa366004610146565b9061069c565b6103b8610112565b91829182610185565b0390f35b610118565b346103fa576103f66103e56103e0366004610206565b6106b2565b6103ed610112565b91829182610231565b0390f35b610118565b346104305761042c61041b610415366004610146565b906106c7565b610423610112565b918291826102a7565b0390f35b610118565b61043e81610120565b0361044557565b5f80fd5b9050359061045682610435565b565b909160608284031261048d5761048a610473845f8501610137565b936104818160208601610449565b93604001610449565b90565b61011c565b346104c3576104bf6104ae6104a8366004610458565b916106dd565b6104b6610112565b918291826102a7565b0390f35b610118565b346104f9576104f56104e46104de366004610146565b906106f6565b6104ec610112565b918291826102a7565b0390f35b610118565b3461052f5761052b61051a610514366004610146565b9061070c565b610522610112565b918291826102a7565b0390f35b610118565b346105655761056161055061054a366004610146565b90610722565b610558610112565b91829182610185565b0390f35b610118565b90565b6105768161056a565b0361057d57565b5f80fd5b9050359061058e8261056d565b565b91906040838203126105b857806105ac6105b5925f8601610137565b93602001610581565b90565b61011c565b346105ee576105ea6105d96105d3366004610590565b90610738565b6105e1610112565b918291826102a7565b0390f35b610118565b5f80fd5b5f90565b9061060e916106086105f7565b5061074e565b90565b906106249161061e6105f7565b5061076d565b90565b5f90565b61063d90610637610627565b5061078c565b90565b5f90565b9061065791610651610640565b5061079f565b90565b9061066d91610667610640565b506107ac565b90565b906106839161067d6105f7565b506107b9565b90565b90610699916106936105f7565b506107c6565b90565b906106af916106a96105f7565b506107e5565b90565b6106c4906106be610627565b506107f2565b90565b906106da916106d4610640565b50610801565b90565b916106f3926106ea610640565b5091909161085f565b90565b9061070991610703610640565b506108b9565b90565b9061071f91610719610640565b50610955565b90565b906107359161072f6105f7565b506109aa565b90565b9061074b91610745610640565b506109b7565b90565b61076a916107649161075e6105f7565b506107e5565b15610173565b90565b610789916107839161077d6105f7565b506109aa565b15610173565b90565b610794610627565b505f03607f1d5f0390565b6107a7610640565b500190565b6107b4610640565b500390565b6107c16105f7565b501390565b6107e2916107dc916107d66105f7565b506107b9565b15610173565b90565b6107ed6105f7565b501490565b6107fa610627565b50607f1d90565b610809610640565b506108158183906109aa565b5f1461082057505b90565b905061081d565b61083b61083661084092610120565b61027b565b61056a565b90565b61085761085261085c9261056a565b61027b565b610120565b90565b6108b1916108b6936108a66108a161089b61089661089061088b6108ac98610885610640565b5061027e565b610827565b9561027e565b610827565b9261027e565b610827565b91610a03565b610843565b61027e565b90565b906108c2610640565b506108ce8282906109aa565b5f146108d957505b90565b90506108d6565b90565b6108f76108f26108fc926108e0565b61027b565b610120565b90565b6109085f6108e3565b90565b91602061092c92949361092560408201965f83019061029a565b019061029a565b565b15610937575050565b6109515f928392639389559160e01b84526004840161090b565b0390fd5b6109a890929192610964610640565b5061097081859061079f565b936109838161097d6108ff565b9061076d565b61099f61099961099488869061076d565b610173565b91610173565b1491909161092e565b565b6109b26105f7565b501290565b6109bf610640565b500260171c90565b5f90565b6109df6109da6109e4926108e0565b61027b565b61056a565b90565b906109f2910361056a565b90565b90610a00910261056a565b90565b610a0b6109c7565b50610a17818390610a94565b9290929182610a2e610a285f6109cb565b9161056a565b14610a8d57610a849285610a8a9693610a7d93610a496109c7565b50099085821190039403936001610a695f610a6486916109cb565b6109e7565b841680809504960493805f030401906109f5565b1791610af8565b906109f5565b90565b5050500490565b9190610a9e6109c7565b50610aa76109c7565b505f198184099202918280821091030390565b90565b610ad1610acc610ad692610aba565b61027b565b61056a565b90565b90565b610af0610aeb610af592610ad9565b61027b565b61056a565b90565b610c0c90610b046109c7565b50610c06610bea610bc6610ba2610b7e610b5a610b2b6003610b268991610abd565b6109f5565b610b356002610adc565b18610b546002610b4f610b498b85906109f5565b91610adc565b6109e7565b906109f5565b610b786002610b73610b6d8a85906109f5565b91610adc565b6109e7565b906109f5565b610b9c6002610b97610b918985906109f5565b91610adc565b6109e7565b906109f5565b610bc06002610bbb610bb58885906109f5565b91610adc565b6109e7565b906109f5565b610be46002610bdf610bd98785906109f5565b91610adc565b6109e7565b906109f5565b91610c01610bfb60029285906109f5565b91610adc565b6109e7565b906109f5565b9056fea26469706673582212203e6cd0ec5e25223e4c6017664cbb9eb41f080f04097cedbba0bb5d4d02e4ae2f64736f6c63430008220033","linkReferences":{}},"methodIdentifiers":{"add(int256,int256)":"a5f3c23b","equals(int256,int256)":"bfb0f6bf","greaterThan(int256,int256)":"b4a480ad","greaterThanOrEqualTo(int256,int256)":"70be203d","lessThan(int256,int256)":"fd70d9c3","lessThanOrEqualTo(int256,int256)":"babdd838","maxX127(int256,int256)":"c7401831","minX127(int256,int256)":"f747540c","mulDiv(int256,int256,int256)":"cf828136","notEqual(int256,int256)":"230ebba1","safeAdd(int256,int256)":"f997e136","sub(int256,int256)":"adefc37b","times(int256,uint256)":"ffe4b656","toInteger(int256)":"c5bb4555","toIntegerRoundUp(int256)":"8a0a6457"},"id":34}