{"abi":[{"type":"function","name":"equals","inputs":[{"name":"value0","type":"uint256","internalType":"X47"},{"name":"value1","type":"uint256","internalType":"X47"}],"outputs":[{"name":"result","type":"bool","internalType":"bool"}],"stateMutability":"nonpayable"},{"type":"function","name":"greaterThan","inputs":[{"name":"value0","type":"uint256","internalType":"X47"},{"name":"value1","type":"uint256","internalType":"X47"}],"outputs":[{"name":"result","type":"bool","internalType":"bool"}],"stateMutability":"nonpayable"},{"type":"function","name":"greaterThanOrEqualTo","inputs":[{"name":"value0","type":"uint256","internalType":"X47"},{"name":"value1","type":"uint256","internalType":"X47"}],"outputs":[{"name":"result","type":"bool","internalType":"bool"}],"stateMutability":"nonpayable"},{"type":"function","name":"lessThan","inputs":[{"name":"value0","type":"uint256","internalType":"X47"},{"name":"value1","type":"uint256","internalType":"X47"}],"outputs":[{"name":"result","type":"bool","internalType":"bool"}],"stateMutability":"nonpayable"},{"type":"function","name":"lessThanOrEqualTo","inputs":[{"name":"value0","type":"uint256","internalType":"X47"},{"name":"value1","type":"uint256","internalType":"X47"}],"outputs":[{"name":"result","type":"bool","internalType":"bool"}],"stateMutability":"nonpayable"},{"type":"function","name":"maxX47","inputs":[{"name":"value0","type":"uint256","internalType":"X47"},{"name":"value1","type":"uint256","internalType":"X47"}],"outputs":[{"name":"result","type":"uint256","internalType":"X47"}],"stateMutability":"nonpayable"},{"type":"function","name":"minX47","inputs":[{"name":"value0","type":"uint256","internalType":"X47"},{"name":"value1","type":"uint256","internalType":"X47"}],"outputs":[{"name":"result","type":"uint256","internalType":"X47"}],"stateMutability":"nonpayable"},{"type":"function","name":"notEqual","inputs":[{"name":"value0","type":"uint256","internalType":"X47"},{"name":"value1","type":"uint256","internalType":"X47"}],"outputs":[{"name":"result","type":"bool","internalType":"bool"}],"stateMutability":"nonpayable"}],"bytecode":{"object":"0x608060405234601c57600e6020565b6104de61002b82396104de90f35b6026565b60405190565b5f80fdfe60806040526004361015610013575b61031b565b61001d5f3561009c565b80632215ea7c1461009757806347b5cd811461009257806348f24ceb1461008d5780637da23c70146100885780637fafdf5b14610083578063ca4e89bf1461007e578063d73492a1146100795763fb1dd0e50361000e576102e5565b6102af565b610279565b610243565b61020d565b610196565b610160565b61012a565b60e01c90565b60405190565b5f80fd5b5f80fd5b90565b6100bc816100b0565b036100c357565b5f80fd5b905035906100d4826100b3565b565b91906040838203126100fe57806100f26100fb925f86016100c7565b936020016100c7565b90565b6100ac565b151590565b61011190610103565b9052565b9190610128905f60208501940190610108565b565b3461015b576101576101466101403660046100d6565b90610323565b61014e6100a2565b91829182610115565b0390f35b6100a8565b346101915761018d61017c6101763660046100d6565b90610339565b6101846100a2565b91829182610115565b0390f35b6100a8565b346101c7576101c36101b26101ac3660046100d6565b9061034f565b6101ba6100a2565b91829182610115565b0390f35b6100a8565b90565b6101e36101de6101e8926100b0565b6101cc565b6100b0565b90565b6101f4906101cf565b9052565b919061020b905f602085019401906101eb565b565b3461023e5761023a6102296102233660046100d6565b90610369565b6102316100a2565b918291826101f8565b0390f35b6100a8565b346102745761027061025f6102593660046100d6565b9061037f565b6102676100a2565b918291826101f8565b0390f35b6100a8565b346102aa576102a661029561028f3660046100d6565b90610395565b61029d6100a2565b91829182610115565b0390f35b6100a8565b346102e0576102dc6102cb6102c53660046100d6565b906103ab565b6102d36100a2565b91829182610115565b0390f35b6100a8565b34610316576103126103016102fb3660046100d6565b906103c1565b6103096100a2565b91829182610115565b0390f35b6100a8565b5f80fd5b5f90565b906103369161033061031f565b506103d7565b90565b9061034c9161034661031f565b506103e4565b90565b906103629161035c61031f565b506103f1565b90565b5f90565b9061037c91610376610365565b506103fe565b90565b906103929161038c610365565b50610424565b90565b906103a8916103a261031f565b5061044b565b90565b906103be916103b861031f565b5061046a565b90565b906103d4916103ce61031f565b50610489565b90565b6103df61031f565b501090565b6103ec61031f565b501490565b6103f961031f565b501190565b610406610365565b506104128183906103d7565b5f1461041d57505b90565b905061041a565b9061042d610365565b506104398282906103d7565b5f1461044457505b90565b9050610441565b610467916104619161045b61031f565b506103e4565b15610103565b90565b610486916104809161047a61031f565b506103d7565b15610103565b90565b6104a59161049f9161049961031f565b506103f1565b15610103565b9056fea2646970667358221220da6439271a731ff7d1c9986a19cf7d45ba3c9da08cd90f44f1bf09c85c74310764736f6c63430008220033","linkReferences":{}},"methodIdentifiers":{"equals(uint256,uint256)":"47b5cd81","greaterThan(uint256,uint256)":"48f24ceb","greaterThanOrEqualTo(uint256,uint256)":"d73492a1","lessThan(uint256,uint256)":"2215ea7c","lessThanOrEqualTo(uint256,uint256)":"fb1dd0e5","maxX47(uint256,uint256)":"7da23c70","minX47(uint256,uint256)":"7fafdf5b","notEqual(uint256,uint256)":"ca4e89bf"},"id":39}