{"abi":[{"type":"function","name":"decrementIntegral","inputs":[{"name":"integralValue","type":"int256","internalType":"X216"},{"name":"decrement","type":"int256","internalType":"X216"}],"outputs":[{"name":"result","type":"int256","internalType":"X216"}],"stateMutability":"nonpayable"},{"type":"function","name":"evaluate","inputs":[{"name":"b0","type":"int256","internalType":"X59"},{"name":"b1","type":"int256","internalType":"X59"},{"name":"c0","type":"uint256","internalType":"X15"},{"name":"c1","type":"uint256","internalType":"X15"},{"name":"target","type":"int256","internalType":"X59"}],"outputs":[{"name":"result","type":"int256","internalType":"X216"}],"stateMutability":"nonpayable"},{"type":"function","name":"incoming","inputs":[{"name":"b0","type":"int256","internalType":"X59"},{"name":"b1","type":"int256","internalType":"X59"},{"name":"c0","type":"uint256","internalType":"X15"},{"name":"c1","type":"uint256","internalType":"X15"},{"name":"from","type":"int256","internalType":"X59"},{"name":"to","type":"int256","internalType":"X59"}],"outputs":[{"name":"result","type":"int256","internalType":"X216"}],"stateMutability":"nonpayable"},{"type":"function","name":"incrementIntegral","inputs":[{"name":"integralValue","type":"int256","internalType":"X216"},{"name":"increment","type":"int256","internalType":"X216"}],"outputs":[{"name":"result","type":"int256","internalType":"X216"}],"stateMutability":"nonpayable"},{"type":"function","name":"integral","inputs":[{"name":"integralValue","type":"int256","internalType":"X216"}],"outputs":[{"name":"result","type":"int256","internalType":"X216"}],"stateMutability":"nonpayable"},{"type":"function","name":"outgoing","inputs":[{"name":"b0","type":"int256","internalType":"X59"},{"name":"b1","type":"int256","internalType":"X59"},{"name":"c0","type":"uint256","internalType":"X15"},{"name":"c1","type":"uint256","internalType":"X15"},{"name":"from","type":"int256","internalType":"X59"},{"name":"to","type":"int256","internalType":"X59"}],"outputs":[{"name":"result","type":"int256","internalType":"X216"}],"stateMutability":"nonpayable"},{"type":"function","name":"setIntegral","inputs":[{"name":"integralValue","type":"int256","internalType":"X216"}],"outputs":[{"name":"result","type":"int256","internalType":"X216"}],"stateMutability":"nonpayable"},{"type":"function","name":"shift","inputs":[{"name":"integralValue","type":"int256","internalType":"X216"},{"name":"logPrice0","type":"int256","internalType":"X59"},{"name":"logPrice1","type":"int256","internalType":"X59"},{"name":"left","type":"bool","internalType":"bool"}],"outputs":[{"name":"result","type":"int256","internalType":"X216"}],"stateMutability":"nonpayable"}],"bytecode":{"object":"0x608060405234601c57600e6020565b61168b61002b823961168b90f35b6026565b60405190565b5f80fdfe60806040526004361015610013575b610493565b61001d5f3561009c565b806302f0053c146100975780633128228414610092578063485e1adc1461008d5780634c70f138146100885780635fdbd38d14610083578063754de7051461007e578063800222e314610079576383ce0aa90361000e5761045d565b610424565b610392565b61035c565b6102f6565b610253565b61021e565b6101a1565b60e01c90565b60405190565b5f80fd5b5f80fd5b90565b6100bc816100b0565b036100c357565b5f80fd5b905035906100d4826100b3565b565b90565b6100e2816100d6565b036100e957565b5f80fd5b905035906100fa826100d9565b565b909160c08284031261015b57610114835f84016100c7565b9261012281602085016100c7565b9261013082604083016100ed565b9261015861014184606085016100ed565b9361014f81608086016100c7565b9360a0016100c7565b90565b6100ac565b90565b61017761017261017c926100b0565b610160565b6100b0565b90565b61018890610163565b9052565b919061019f905f6020850194019061017f565b565b346101d8576101d46101c36101b73660046100fc565b9493909392919261049f565b6101cb6100a2565b9182918261018c565b0390f35b6100a8565b6101e6816100b0565b036101ed57565b5f80fd5b905035906101fe826101dd565b565b9060208282031261021957610216915f016101f1565b90565b6100ac565b3461024e5761024a610239610234366004610200565b61054f565b6102416100a2565b9182918261018c565b0390f35b6100a8565b346102835761027f61026e610269366004610200565b61057d565b6102766100a2565b9182918261018c565b0390f35b6100a8565b151590565b61029681610288565b0361029d57565b5f80fd5b905035906102ae8261028d565b565b6080818303126102f1576102c6825f83016101f1565b926102ee6102d784602085016100c7565b936102e581604086016100c7565b936060016102a1565b90565b6100ac565b3461032a5761032661031561030c3660046102b0565b929190916105b5565b61031d6100a2565b9182918261018c565b0390f35b6100a8565b9190604083820312610357578061034b610354925f86016101f1565b936020016101f1565b90565b6100ac565b3461038d5761038961037861037236600461032f565b90610604565b6103806100a2565b9182918261018c565b0390f35b6100a8565b346103c9576103c56103b46103a83660046100fc565b9493909392919261063b565b6103bc6100a2565b9182918261018c565b0390f35b6100a8565b919060a08382031261041f576103e6815f85016100c7565b926103f482602083016100c7565b9261041c61040584604085016100ed565b9361041381606086016100ed565b936080016100c7565b90565b6100ac565b346104585761045461044361043a3660046103ce565b939290926106eb565b61044b6100a2565b9182918261018c565b0390f35b6100a8565b3461048e5761048a61047961047336600461032f565b90610765565b6104816100a2565b9182918261018c565b0390f35b6100a8565b5f80fd5b5f90565b5f90565b909261054c95936002936104b1610497565b506104ba61049b565b50604051936080850160405260b01b9060f01b01835260b01b9060f01b016040820152016104e661049b565b506104f083610846565b9360405194604086016040528260d81b019160181c9060c01b018452601e84015261051961049b565b5061052382610846565b9260405193604085016040528260d81b019160181c9060c01b018352601e830152919091610999565b90565b61057a9061055b610497565b5061056461049b565b50604051906020820160405260281b8152610beb565b90565b6105b290610589610497565b5061059261049b565b506105ad60405191602083016040528060281b835282610bfb565b610beb565b90565b9061060193916105c3610497565b506105cc61049b565b506105d561049b565b506105f860405194607c86016040526105f2603e87019487610c0b565b83610c0b565b92909192610c25565b90565b61063361063892610613610497565b5061061c61049b565b50604051926020840160405260281b835282610cba565b610beb565b90565b90926106e8959360029361064d610497565b5061065661049b565b50604051936080850160405260b01b9060f01b01835260b01b9060f01b0160408201520161068261049b565b5061068c83610846565b9360405194604086016040528260d81b019160181c9060c01b018452601e8401526106b561049b565b506106bf82610846565b9260405193604085016040528260d81b019160181c9060c01b018352601e830152919091610cc5565b90565b909261076294936002936106fd610497565b5061070661049b565b50604051936080850160405260b01b9060f01b01835260b01b9060f01b0160408201520161073382610846565b9261073c61049b565b5060405193604085016040528260d81b019160181c9060c01b018352601e830152610f1e565b90565b61079461079992610774610497565b5061077d61049b565b50604051926020840160405260281b8352826110ac565b610beb565b90565b90565b6107b36107ae6107b89261079c565b610160565b6100d6565b90565b90565b6107d26107cd6107d7926107bb565b610160565b6100d6565b90565b6107ee6107e96107f3926100d6565b610160565b6100b0565b90565b90565b60ff1690565b61081361080e610818926107f6565b610160565b6107f9565b90565b1c90565b61083e90610838610832610843946107f9565b916100d6565b9061081b565b6100d6565b90565b61086190610852610497565b5061085b610497565b506112a5565b6108d76108d26108cd6108bc6108b76108b27ff1aaddd7742e56d32fb9f997447d9e6314db84884fabab26bf059af9bc20b609600160c11b6108ac6108a68a9361079f565b916107be565b90611522565b6107da565b610163565b936108c760286107ff565b9061081f565b6107da565b610163565b91565b5f90565b5f90565b5f90565b90565b6108fd6108f8610902926108e6565b610160565b6100b0565b90565b61090e5f6108e9565b90565b90565b61092861092361092d92610911565b610160565b6100d6565b90565b9061093b91016100d6565b90565b61095261094d610957926108e6565b610160565b6100d6565b90565b6109635f61093e565b90565b90565b61097d61097861098292610966565b610160565b6100b0565b90565b610996671000000000000000610969565b90565b6109a1610497565b506109aa6108da565b506109b3610497565b506109bc610497565b506109c56108de565b506109ce6108e2565b506109d76108e2565b506109e18261153f565b916109eb8461153f565b6109f6848290611553565b610bdb57610a0261049b565b50610a1783610a116040610914565b90610930565b610a2084611560565b94610a2a82611560565b610a3c81610a3661095a565b90611574565b610bc857610a4b908790611581565b90610a6d610a65610a5d86849061158e565b96879061159b565b98869061159b565b95610a8083610a7a61095a565b90611574565b610bb857610a8d9061153f565b91855f14610b6957610ad8610aca610ac3610abc610aae610add96886115b4565b610ab6610985565b906115c1565b84906115ce565b96856115b4565b610ad2610985565b906115c1565b6115ce565b5b92935f14610b535790610af4610afa929161153f565b906115b4565b5b8091600160c01b87850993600160c01b868309600160c01b81600160c01b03870895818110938860018060c01b03910901918960018060c01b0391090103039281840660c01b0104910460c01b0192030201600f1c90565b610b5f610b649261153f565b6115b4565b610afb565b610bae610ba0610b98610b91610b83610bb39688906115b4565b610b8b610985565b906115c1565b84906115ce565b9685906115b4565b610ba8610985565b906115c1565b6115ce565b610ade565b50505050505090910302600f1c90565b5050505050505050610bd8610905565b90565b5050505050610be8610905565b90565b610bf3610497565b505160281c90565b9060208203906005825193035252565b90610c2391610c1982610846565b91929091926115db565b565b90610c7090610c6a610c627f7082326d62b7ef4d06861f13c21dd192c8044b19a121205b7dc63c2642b5a8059596610c5b610497565b5015610288565b91829061159b565b9461159b565b90634bc3287b029264cef6ae8685029063cb21e499027f5bc2a24e50a66d39c35a9132c33f2fc50a1b99389d5455e78a7cf7ef8894e4cd81830991020302818102915f1991090390565b9060281b8151039052565b9091610ccf610497565b91610cd86108da565b50610ce1610497565b50610cea610497565b50610cf36108de565b50610cfc6108e2565b50610d056108e2565b50610d0f8461153f565b93610d198361153f565b91610d25868490611553565b610f0d57610d3161049b565b50610d4681610d406040610914565b90610930565b610d4f81611560565b95610d6287610d5c61095a565b90611574565b610f025750610d709061153f565b90610da4610d93610d82868a9061158e565b94610d8d8615610288565b9061159b565b95610d9e8515610288565b9061159b565b96610dae82611560565b610db9888290611574565b610ef257610dc79088611581565b845f14610ea557610e13610e05610dfd610df6610de8610e189689906115b4565b610df0610985565b906115c1565b84906115ce565b9786906115b4565b610e0d610985565b906115c1565b6115ce565b5b93925f14610e8d5790610e2e610e339261153f565b6115b4565b5b8091600160c01b85820993600160c01b88820994600160c01b81600160c01b03870895818110938860018060c01b03910901918960018060c01b0391090103039281840660c01b0104910460c01b0192030203600f1c90565b610e9a610ea0929161153f565b906115b4565b610e34565b610ee8610eda610ed3610ecc610ebe610eed96896115b4565b610ec6610985565b906115c1565b84906115ce565b97866115b4565b610ee2610985565b906115c1565b6115ce565b610e19565b50505050505090910302600f1c90565b965050505050505090565b505050505050610f1b610905565b90565b90610f30610f2a610497565b926115f5565b939291909394610f4886610f4261095a565b90611574565b6110a35750610f58858590611574565b61107957610f6f81610f698561153f565b90611553565b611050579384610f9f7c15fc21041027acbbfcd46780fee71ead23fbcb7f4a81e58767ef801a329596849061158e565b5f1461101957610fca8394610fc4610fbd610fd294610fd8976115b4565b969161153f565b906115b4565b918690611581565b906115ce565b905b80600160c01b8385099260018060c01b03908460018060c01b03039060018060c01b03908709089281840660c01b0104910460c01b0191020160281c90565b61103c61104a936110376110316110449483906115b4565b9661153f565b6115b4565b918690611581565b906115ce565b90610fda565b505050507c15fc21041027acbbfcd46780fee71ead23fbcb7f4a81e58767ef801a320260281c90565b5050507c15fc21041027acbbfcd46780fee71ead23fbcb7f4a81e58767ef801a3291500260281c90565b94505050505090565b9060281b8151019052565b6110cb6110c66110d0926100b0565b610160565b6100d6565b90565b906110de91026100d6565b90565b90565b6110f86110f36110fd926110e1565b610160565b6100d6565b90565b90565b61111761111261111c92611100565b610160565b6100d6565b90565b634e487b7160e01b5f52601260045260245ffd5b61113f611145916100d6565b916100d6565b908115611150570490565b61111f565b90565b61116c61116761117192611155565b610160565b6100d6565b90565b90565b61118b61118661119092611174565b610160565b6100d6565b90565b90565b6111aa6111a56111af92611193565b610160565b6100d6565b90565b90565b6111c96111c46111ce926111b2565b610160565b6100d6565b90565b90565b6111e86111e36111ed926111d1565b610160565b6107f9565b90565b1b90565b6112139061120d611207611218946107f9565b916100d6565b906111f0565b6100d6565b90565b90565b61123261122d6112379261121b565b610160565b6100d6565b90565b90565b61125161124c6112569261123a565b610160565b6100d6565b90565b90565b61127061126b61127592611259565b610160565b6100d6565b90565b9061128391036100d6565b90565b90565b61129d6112986112a292611286565b610160565b6107f9565b90565b6114836112c56112c0611493936112ba61049b565b50610163565b6110b7565b6112d08182906110d3565b9061144161142e6112e28485906110d3565b6112ea61049b565b5061142861140d5f19600160801b600160801b858a095f19868b0903099261131061049b565b506114076113f06113e06113cf6113bc8c6113b66113a061137d61135d61134d8b80025f198d80090395611347600760681b6110e4565b906110d3565b611357600f611103565b90611133565b6113778b6113716609c00000000000611158565b90611133565b90610930565b61139a8d61139469c9180000000000000000611177565b90611133565b90610930565b916113b0621eee11605a1b611196565b90611133565b90610930565b6113c9600160fe1b6111b5565b90610930565b9a6113da606a6111d4565b906111f4565b6113ea600f611103565b90611133565b91611401662490000000000061121e565b90611133565b90610930565b916114226a06df92000000000000000061123d565b90611133565b90610930565b61143b600160ff1b61125c565b90610930565b905f1991600160b41b916001604c1b828209915f199109030961147d61147761146b848490611278565b92600160fe1b94610930565b926111b5565b90611522565b61148d6002611289565b906111f4565b808002905f1990800903808002905f1990800903808002905f1990800903808002905f1990800903808002905f1990800903808002905f1990800903808002905f1990800903808002905f1990800903808002905f1990800903808002905f1990800903808002905f1990800903808002905f1990800903808002905f1990800903808002905f199080090390565b909161152c61049b565b5060018103928391818409820392090890565b6115476108de565b505160c01c90565b5f90565b61155b61154f565b501490565b60029061156b6108da565b50035160f01c90565b61157c61154f565b501490565b6115896108da565b500390565b61159661154f565b501290565b906115a4610497565b5015601b02602303015160281c90565b6115bc6108de565b500390565b6115c96108de565b500190565b6115d66108e2565b500290565b6018906020810393845195601e8301526003820152035252565b906115fe6108de565b506116076108de565b506116106108da565b506116196108da565b5061162382611560565b61164061162f8461153f565b9361163a6040610914565b90610930565b61165261164c82611560565b9161153f565b9256fea26469706673582212207f61ee43d5eeb2a1c35d52f5b4fed93ee2c2bb59c13d806dc54f86d30f35609e64736f6c63430008220033","linkReferences":{}},"methodIdentifiers":{"decrementIntegral(int256,int256)":"5fdbd38d","evaluate(int256,int256,uint256,uint256,int256)":"800222e3","incoming(int256,int256,uint256,uint256,int256,int256)":"754de705","incrementIntegral(int256,int256)":"83ce0aa9","integral(int256)":"31282284","outgoing(int256,int256,uint256,uint256,int256,int256)":"02f0053c","setIntegral(int256)":"485e1adc","shift(int256,int256,int256,bool)":"4c70f138"},"id":19}