{"abi":[{"type":"function","name":"_midBurn","inputs":[],"outputs":[{"name":"","type":"uint256","internalType":"uint256"}],"stateMutability":"view"},{"type":"function","name":"_midDonate","inputs":[],"outputs":[{"name":"","type":"uint256","internalType":"uint256"}],"stateMutability":"view"},{"type":"function","name":"_midMint","inputs":[],"outputs":[{"name":"","type":"uint256","internalType":"uint256"}],"stateMutability":"view"},{"type":"function","name":"_midModifyKernel","inputs":[],"outputs":[{"name":"","type":"uint256","internalType":"uint256"}],"stateMutability":"view"},{"type":"function","name":"_midSwap","inputs":[],"outputs":[{"name":"","type":"uint256","internalType":"uint256"}],"stateMutability":"view"},{"type":"function","name":"_postBurn","inputs":[],"outputs":[{"name":"","type":"uint256","internalType":"uint256"}],"stateMutability":"view"},{"type":"function","name":"_postDonate","inputs":[],"outputs":[{"name":"","type":"uint256","internalType":"uint256"}],"stateMutability":"view"},{"type":"function","name":"_postInitialize","inputs":[],"outputs":[{"name":"","type":"uint256","internalType":"uint256"}],"stateMutability":"view"},{"type":"function","name":"_postMint","inputs":[],"outputs":[{"name":"","type":"uint256","internalType":"uint256"}],"stateMutability":"view"},{"type":"function","name":"_postModifyKernel","inputs":[],"outputs":[{"name":"","type":"uint256","internalType":"uint256"}],"stateMutability":"view"},{"type":"function","name":"_postSwap","inputs":[],"outputs":[{"name":"","type":"uint256","internalType":"uint256"}],"stateMutability":"view"},{"type":"function","name":"_preBurn","inputs":[],"outputs":[{"name":"","type":"uint256","internalType":"uint256"}],"stateMutability":"view"},{"type":"function","name":"_preDonate","inputs":[],"outputs":[{"name":"","type":"uint256","internalType":"uint256"}],"stateMutability":"view"},{"type":"function","name":"_preInitialize","inputs":[],"outputs":[{"name":"","type":"uint256","internalType":"uint256"}],"stateMutability":"view"},{"type":"function","name":"_preMint","inputs":[],"outputs":[{"name":"","type":"uint256","internalType":"uint256"}],"stateMutability":"view"},{"type":"function","name":"_preModifyKernel","inputs":[],"outputs":[{"name":"","type":"uint256","internalType":"uint256"}],"stateMutability":"view"},{"type":"function","name":"_preSwap","inputs":[],"outputs":[{"name":"","type":"uint256","internalType":"uint256"}],"stateMutability":"view"},{"type":"function","name":"midBurn","inputs":[{"name":"hookInput","type":"bytes","internalType":"bytes"}],"outputs":[{"name":"","type":"bytes4","internalType":"bytes4"}],"stateMutability":"nonpayable"},{"type":"function","name":"midBurnData","inputs":[],"outputs":[{"name":"","type":"bytes","internalType":"bytes"}],"stateMutability":"view"},{"type":"function","name":"midDonate","inputs":[{"name":"hookInput","type":"bytes","internalType":"bytes"}],"outputs":[{"name":"","type":"bytes4","internalType":"bytes4"}],"stateMutability":"nonpayable"},{"type":"function","name":"midDonateData","inputs":[],"outputs":[{"name":"","type":"bytes","internalType":"bytes"}],"stateMutability":"view"},{"type":"function","name":"midMint","inputs":[{"name":"hookInput","type":"bytes","internalType":"bytes"}],"outputs":[{"name":"","type":"bytes4","internalType":"bytes4"}],"stateMutability":"nonpayable"},{"type":"function","name":"midMintData","inputs":[],"outputs":[{"name":"","type":"bytes","internalType":"bytes"}],"stateMutability":"view"},{"type":"function","name":"midModifyKernel","inputs":[{"name":"hookInput","type":"bytes","internalType":"bytes"}],"outputs":[{"name":"","type":"bytes4","internalType":"bytes4"}],"stateMutability":"nonpayable"},{"type":"function","name":"midModifyKernelData","inputs":[],"outputs":[{"name":"","type":"bytes","internalType":"bytes"}],"stateMutability":"view"},{"type":"function","name":"midSwap","inputs":[{"name":"hookInput","type":"bytes","internalType":"bytes"}],"outputs":[{"name":"","type":"bytes4","internalType":"bytes4"}],"stateMutability":"nonpayable"},{"type":"function","name":"midSwapData","inputs":[],"outputs":[{"name":"","type":"bytes","internalType":"bytes"}],"stateMutability":"view"},{"type":"function","name":"postBurn","inputs":[{"name":"hookInput","type":"bytes","internalType":"bytes"}],"outputs":[{"name":"","type":"bytes4","internalType":"bytes4"}],"stateMutability":"nonpayable"},{"type":"function","name":"postBurnData","inputs":[],"outputs":[{"name":"","type":"bytes","internalType":"bytes"}],"stateMutability":"view"},{"type":"function","name":"postDonate","inputs":[{"name":"hookInput","type":"bytes","internalType":"bytes"}],"outputs":[{"name":"","type":"bytes4","internalType":"bytes4"}],"stateMutability":"nonpayable"},{"type":"function","name":"postDonateData","inputs":[],"outputs":[{"name":"","type":"bytes","internalType":"bytes"}],"stateMutability":"view"},{"type":"function","name":"postInitialize","inputs":[{"name":"hookInput","type":"bytes","internalType":"bytes"}],"outputs":[{"name":"","type":"bytes4","internalType":"bytes4"}],"stateMutability":"nonpayable"},{"type":"function","name":"postInitializeData","inputs":[],"outputs":[{"name":"","type":"bytes","internalType":"bytes"}],"stateMutability":"view"},{"type":"function","name":"postMint","inputs":[{"name":"hookInput","type":"bytes","internalType":"bytes"}],"outputs":[{"name":"","type":"bytes4","internalType":"bytes4"}],"stateMutability":"nonpayable"},{"type":"function","name":"postMintData","inputs":[],"outputs":[{"name":"","type":"bytes","internalType":"bytes"}],"stateMutability":"view"},{"type":"function","name":"postModifyKernel","inputs":[{"name":"hookInput","type":"bytes","internalType":"bytes"}],"outputs":[{"name":"","type":"bytes4","internalType":"bytes4"}],"stateMutability":"nonpayable"},{"type":"function","name":"postModifyKernelData","inputs":[],"outputs":[{"name":"","type":"bytes","internalType":"bytes"}],"stateMutability":"view"},{"type":"function","name":"postSwap","inputs":[{"name":"hookInput","type":"bytes","internalType":"bytes"}],"outputs":[{"name":"","type":"bytes4","internalType":"bytes4"}],"stateMutability":"nonpayable"},{"type":"function","name":"postSwapData","inputs":[],"outputs":[{"name":"","type":"bytes","internalType":"bytes"}],"stateMutability":"view"},{"type":"function","name":"preBurn","inputs":[{"name":"hookInput","type":"bytes","internalType":"bytes"}],"outputs":[{"name":"","type":"bytes4","internalType":"bytes4"}],"stateMutability":"nonpayable"},{"type":"function","name":"preBurnData","inputs":[],"outputs":[{"name":"","type":"bytes","internalType":"bytes"}],"stateMutability":"view"},{"type":"function","name":"preDonate","inputs":[{"name":"hookInput","type":"bytes","internalType":"bytes"}],"outputs":[{"name":"","type":"bytes4","internalType":"bytes4"}],"stateMutability":"nonpayable"},{"type":"function","name":"preDonateData","inputs":[],"outputs":[{"name":"","type":"bytes","internalType":"bytes"}],"stateMutability":"view"},{"type":"function","name":"preInitialize","inputs":[{"name":"hookInput","type":"bytes","internalType":"bytes"}],"outputs":[{"name":"","type":"bytes4","internalType":"bytes4"}],"stateMutability":"nonpayable"},{"type":"function","name":"preInitializeData","inputs":[],"outputs":[{"name":"","type":"bytes","internalType":"bytes"}],"stateMutability":"view"},{"type":"function","name":"preMint","inputs":[{"name":"hookInput","type":"bytes","internalType":"bytes"}],"outputs":[{"name":"","type":"bytes4","internalType":"bytes4"}],"stateMutability":"nonpayable"},{"type":"function","name":"preMintData","inputs":[],"outputs":[{"name":"","type":"bytes","internalType":"bytes"}],"stateMutability":"view"},{"type":"function","name":"preModifyKernel","inputs":[{"name":"hookInput","type":"bytes","internalType":"bytes"}],"outputs":[{"name":"","type":"bytes4","internalType":"bytes4"}],"stateMutability":"nonpayable"},{"type":"function","name":"preModifyKernelData","inputs":[],"outputs":[{"name":"","type":"bytes","internalType":"bytes"}],"stateMutability":"view"},{"type":"function","name":"preSwap","inputs":[{"name":"hookInput","type":"bytes","internalType":"bytes"}],"outputs":[{"name":"","type":"bytes4","internalType":"bytes4"}],"stateMutability":"nonpayable"},{"type":"function","name":"preSwapData","inputs":[],"outputs":[{"name":"","type":"bytes","internalType":"bytes"}],"stateMutability":"view"},{"type":"error","name":"InvalidHook","inputs":[]}],"bytecode":{"object":"0x608060405234601c57600e6020565b6119d061002b82396119d090f35b6026565b60405190565b5f80fdfe60806040526004361015610013575b6112ef565b61001d5f3561034c565b806301b6f3801461034757806313a6d3411461034257806314ea355b1461033d5780631da0c40d1461033857806322d2b363146103335780633385ea721461032e5780633a70355414610329578063411bc2d4146103245780635279ad9d1461031f5780635413dc711461031a57806359350e8a146103155780635c94787e146103105780635e2b908e1461030b5780635eac6a2d146103065780635ef4fd3214610301578063639f8934146102fc5780636bbda613146102f75780636f7e3114146102f2578063716a5da4146102ed5780637ec4a7fc146102e857806380114eae146102e3578063801b2eba146102de578063843343a6146102d957806384c305f0146102d45780638652cc39146102cf578063886d1a5b146102ca57806391a288cd146102c5578063921fc60d146102c05780639663232b146102bb5780639c8d2975146102b65780639fc41e54146102b1578063a033cb12146102ac578063a048233f146102a7578063a38f588e146102a2578063bbe086031461029d578063bf0e78db14610298578063c0208dc514610293578063c25be0851461028e578063c408311014610289578063c5e24e9914610284578063cae726461461027f578063cb5e73181461027a578063cb832cc714610275578063d243037e14610270578063d2aeca821461026b578063d54742bf14610266578063d8eea91014610261578063df97e5a71461025c578063f16c194014610257578063f3a79207146102525763f6ea3b620361000e576112ba565b611275565b61123f565b61120a565b6111c6565b611182565b61113e565b6110f9565b6110c4565b61107f565b61104a565b611006565b610fc2565b610f7e565b610f3a565b610ef5565b610ec0565b610e7c565b610e37565b610e02565b610dbd565b610d88565b610d44565b610d00565b610cbc565b610c78565b610c34565b610bf0565b610bac565b610b67565b610b32565b610aed565b610ab7565b610a82565b610a3f565b6109fb565b6109b7565b610972565b61093c565b610907565b6108c2565b61088d565b610848565b610813565b61077d565b610739565b6106f5565b6106b0565b61067a565b610644565b61055c565b60e01c90565b60405190565b5f80fd5b5f80fd5b5f91031261036a57565b61035c565b634e487b7160e01b5f525f60045260245ffd5b634e487b7160e01b5f52602260045260245ffd5b90600160028304921680156103b6575b60208310146103b157565b610382565b91607f16916103a6565b60209181520190565b5f5260205f2090565b905f92918054906103ec6103e583610396565b80946103c0565b916001811690815f146104435750600114610407575b505050565b61041491929394506103c9565b915f925b81841061042b57505001905f8080610402565b60018160209295939554848601520191019290610418565b92949550505060ff19168252151560200201905f8080610402565b90610468916103d2565b90565b601f801991011690565b634e487b7160e01b5f52604160045260245ffd5b906104939061046b565b810190811067ffffffffffffffff8211176104ad57604052565b610475565b906104d26104cb926104c2610352565b9384809261045e565b0383610489565b565b905f106104e7576104e4906104b2565b90565b61036f565b6104f8601b5f906104d4565b90565b5190565b60209181520190565b90825f9392825e0152565b61053261053b60209361054093610529816104fb565b938480936104ff565b95869101610508565b61046b565b0190565b6105599160208201915f818403910152610513565b90565b3461058c5761056c366004610360565b6105886105776104ec565b61057f610352565b91829182610544565b0390f35b610358565b5f80fd5b5f80fd5b5f80fd5b5f80fd5b909182601f830112156105db5781359167ffffffffffffffff83116105d65760200192600183028401116105d157565b61059d565b610599565b610595565b90602082820312610611575f82013567ffffffffffffffff811161060c5761060892016105a1565b9091565b610591565b61035c565b63ffffffff60e01b1690565b61062b90610616565b9052565b9190610642905f60208501940190610622565b565b346106755761067161066061065a3660046105e0565b906115a0565b610668610352565b9182918261062f565b0390f35b610358565b346106ab576106a76106966106903660046105e0565b906115dc565b61069e610352565b9182918261062f565b0390f35b610358565b346106e1576106dd6106cc6106c63660046105e0565b90611618565b6106d4610352565b9182918261062f565b0390f35b610358565b6106f2601a5f906104d4565b90565b3461072557610705366004610360565b6107216107106106e6565b610718610352565b91829182610544565b0390f35b610358565b610736601d5f906104d4565b90565b3461076957610749366004610360565b61076561075461072a565b61075c610352565b91829182610544565b0390f35b610358565b61077a60135f906104d4565b90565b346107ad5761078d366004610360565b6107a961079861076e565b6107a0610352565b91829182610544565b0390f35b610358565b1c90565b90565b6107c99060086107ce93026107b2565b6107b6565b90565b906107dc91546107b9565b90565b6107eb60085f906107d1565b90565b90565b6107fa906107ee565b9052565b9190610811905f602085019401906107f1565b565b3461084357610823366004610360565b61083f61082e6107df565b610836610352565b918291826107fe565b0390f35b610358565b346108795761087561086461085e3660046105e0565b90611654565b61086c610352565b9182918261062f565b0390f35b610358565b61088a60165f906104d4565b90565b346108bd5761089d366004610360565b6108b96108a861087e565b6108b0610352565b91829182610544565b0390f35b610358565b346108f3576108ef6108de6108d83660046105e0565b90611690565b6108e6610352565b9182918261062f565b0390f35b610358565b61090460065f906107d1565b90565b3461093757610917366004610360565b6109336109226108f8565b61092a610352565b918291826107fe565b0390f35b610358565b3461096d576109696109586109523660046105e0565b906116cc565b610960610352565b9182918261062f565b0390f35b610358565b346109a35761099f61098e6109883660046105e0565b90611708565b610996610352565b9182918261062f565b0390f35b610358565b6109b460195f906104d4565b90565b346109e7576109c7366004610360565b6109e36109d26109a8565b6109da610352565b91829182610544565b0390f35b610358565b6109f860095f906107d1565b90565b34610a2b57610a0b366004610360565b610a27610a166109ec565b610a1e610352565b918291826107fe565b0390f35b610358565b610a3c600e5f906107d1565b90565b34610a6f57610a4f366004610360565b610a6b610a5a610a30565b610a62610352565b918291826107fe565b0390f35b610358565b610a7f5f5f906107d1565b90565b34610ab257610a92366004610360565b610aae610a9d610a74565b610aa5610352565b918291826107fe565b0390f35b610358565b34610ae857610ae4610ad3610acd3660046105e0565b90611744565b610adb610352565b9182918261062f565b0390f35b610358565b34610b1e57610b1a610b09610b033660046105e0565b90611780565b610b11610352565b9182918261062f565b0390f35b610358565b610b2f600a5f906107d1565b90565b34610b6257610b42366004610360565b610b5e610b4d610b23565b610b55610352565b918291826107fe565b0390f35b610358565b34610b9857610b94610b83610b7d3660046105e0565b906117bc565b610b8b610352565b9182918261062f565b0390f35b610358565b610ba960155f906104d4565b90565b34610bdc57610bbc366004610360565b610bd8610bc7610b9d565b610bcf610352565b91829182610544565b0390f35b610358565b610bed60045f906107d1565b90565b34610c2057610c00366004610360565b610c1c610c0b610be1565b610c13610352565b918291826107fe565b0390f35b610358565b610c3160035f906107d1565b90565b34610c6457610c44366004610360565b610c60610c4f610c25565b610c57610352565b918291826107fe565b0390f35b610358565b610c7560145f906104d4565b90565b34610ca857610c88366004610360565b610ca4610c93610c69565b610c9b610352565b91829182610544565b0390f35b610358565b610cb9601f5f906104d4565b90565b34610cec57610ccc366004610360565b610ce8610cd7610cad565b610cdf610352565b91829182610544565b0390f35b610358565b610cfd60125f906104d4565b90565b34610d3057610d10366004610360565b610d2c610d1b610cf1565b610d23610352565b91829182610544565b0390f35b610358565b610d41600d5f906107d1565b90565b34610d7457610d54366004610360565b610d70610d5f610d35565b610d67610352565b918291826107fe565b0390f35b610358565b610d8560115f906104d4565b90565b34610db857610d98366004610360565b610db4610da3610d79565b610dab610352565b91829182610544565b0390f35b610358565b34610dee57610dea610dd9610dd33660046105e0565b906117f8565b610de1610352565b9182918261062f565b0390f35b610358565b610dff600c5f906107d1565b90565b34610e3257610e12366004610360565b610e2e610e1d610df3565b610e25610352565b918291826107fe565b0390f35b610358565b34610e6857610e64610e53610e4d3660046105e0565b90611834565b610e5b610352565b9182918261062f565b0390f35b610358565b610e7960015f906107d1565b90565b34610eac57610e8c366004610360565b610ea8610e97610e6d565b610e9f610352565b918291826107fe565b0390f35b610358565b610ebd600f5f906107d1565b90565b34610ef057610ed0366004610360565b610eec610edb610eb1565b610ee3610352565b918291826107fe565b0390f35b610358565b34610f2657610f22610f11610f0b3660046105e0565b90611870565b610f19610352565b9182918261062f565b0390f35b610358565b610f37600b5f906107d1565b90565b34610f6a57610f4a366004610360565b610f66610f55610f2b565b610f5d610352565b918291826107fe565b0390f35b610358565b610f7b601c5f906104d4565b90565b34610fae57610f8e366004610360565b610faa610f99610f6f565b610fa1610352565b91829182610544565b0390f35b610358565b610fbf60175f906104d4565b90565b34610ff257610fd2366004610360565b610fee610fdd610fb3565b610fe5610352565b91829182610544565b0390f35b610358565b61100360055f906107d1565b90565b3461103657611016366004610360565b611032611021610ff7565b611029610352565b918291826107fe565b0390f35b610358565b61104760205f906104d4565b90565b3461107a5761105a366004610360565b61107661106561103b565b61106d610352565b91829182610544565b0390f35b610358565b346110b0576110ac61109b6110953660046105e0565b906118ac565b6110a3610352565b9182918261062f565b0390f35b610358565b6110c160025f906107d1565b90565b346110f4576110d4366004610360565b6110f06110df6110b5565b6110e7610352565b918291826107fe565b0390f35b610358565b3461112a5761112661111561110f3660046105e0565b906118e8565b61111d610352565b9182918261062f565b0390f35b610358565b61113b60075f906107d1565b90565b3461116e5761114e366004610360565b61116a61115961112f565b611161610352565b918291826107fe565b0390f35b610358565b61117f60105f906107d1565b90565b346111b257611192366004610360565b6111ae61119d611173565b6111a5610352565b918291826107fe565b0390f35b610358565b6111c3601e5f906104d4565b90565b346111f6576111d6366004610360565b6111f26111e16111b7565b6111e9610352565b91829182610544565b0390f35b610358565b61120760215f906104d4565b90565b3461123a5761121a366004610360565b6112366112256111fb565b61122d610352565b91829182610544565b0390f35b610358565b346112705761126c61125b6112553660046105e0565b90611924565b611263610352565b9182918261062f565b0390f35b610358565b346112a6576112a261129161128b3660046105e0565b9061195e565b611299610352565b9182918261062f565b0390f35b610358565b6112b760185f906104d4565b90565b346112ea576112ca366004610360565b6112e66112d56112ab565b6112dd610352565b91829182610544565b0390f35b610358565b5f80fd5b5f90565b5f1c90565b61130861130d916112f7565b6107b6565b90565b61131a90546112fc565b90565b634e487b7160e01b5f52601160045260245ffd5b61133a906107ee565b5f1981146113485760010190565b61131d565b5f1b90565b9061135e5f199161134d565b9181191691161790565b90565b61137f61137a611384926107ee565b611368565b6107ee565b90565b90565b9061139f61139a6113a69261136b565b611387565b8254611352565b9055565b5090565b601f602091010490565b1b90565b919060086113d79102916113d15f19846113b8565b926113b8565b9181191691161790565b91906113f76113f26113ff9361136b565b611387565b9083546113bc565b9055565b5f90565b61141991611413611403565b916113e1565b565b5f5b82811061142957505050565b806114385f6001938501611407565b0161141d565b9190601f811161144e575b505050565b81811161145b575b611449565b61147061146a61148e946103c9565b916113ae565b91602061147c826113ae565b9110611496575b80910191039061141b565b5f8080611456565b505f611483565b906114ad905f19906008026107b2565b191690565b816114bc9161149d565b906002021790565b916114cf90826113aa565b9067ffffffffffffffff821161158e576114f3826114ed8554610396565b8561143e565b5f90601f831160011461152657918091611515935f9261151a575b50506114b2565b90555b565b90915001355f8061150e565b601f19831691611535856103c9565b925f5b8181106115765750916002939185600196941061155c575b50505002019055611518565b61156c910135601f84169061149d565b90555f8080611550565b91936020600181928787013581550195019201611538565b610475565b9061159e92916114c4565b565b906115d1916115ad6112f3565b506115ca6115c36115be6006611310565b611331565b600661138a565b6018611593565b6313a6d34160e01b90565b9061160d916115e96112f3565b506116066115ff6115fa6003611310565b611331565b600361138a565b6017611593565b6314ea355b60e01b90565b90611649916116256112f3565b5061164261163b611636600e611310565b611331565b600e61138a565b6016611593565b631da0c40d60e01b90565b90611685916116616112f3565b5061167e6116776116726010611310565b611331565b601061138a565b6021611593565b635279ad9d60e01b90565b906116c19161169d6112f3565b506116ba6116b36116ae6008611310565b611331565b600861138a565b6014611593565b632c9a874560e11b90565b906116fd916116d96112f3565b506116f66116ef6116ea600d611310565b611331565b600d61138a565b6020611593565b632f15c84760e11b90565b90611739916117156112f3565b5061173261172b6117266001611310565b611331565b600161138a565b601c611593565b635eac6a2d60e01b90565b90611775916117516112f3565b5061176e6117676117626009611310565b611331565b600961138a565b6019611593565b631c5a976960e21b90565b906117b19161178d6112f3565b506117aa6117a361179e600f611310565b611331565b600f61138a565b601b611593565b631fb129ff60e21b90565b906117ed916117c96112f3565b506117e66117df6117da6002611310565b611331565b600261138a565b6012611593565b63400d975d60e11b90565b90611829916118056112f3565b5061182261181b6118166005611310565b611331565b600561138a565b6013611593565b6327f1079560e21b90565b90611865916118416112f3565b5061185e611857611852600b611310565b611331565b600b61138a565b6015611593565b63a048233f60e01b90565b906118a19161187d6112f3565b5061189a61189361188e600c611310565b611331565b600c61138a565b601a611593565b63bf0e78db60e01b90565b906118dd916118b96112f3565b506118d66118cf6118ca6007611310565b611331565b600761138a565b601e611593565b63196bce6360e31b90565b90611919916118f56112f3565b5061191261190b611906600a611310565b611331565b600a61138a565b601f611593565b63692181bf60e11b90565b90611953916119316112f3565b5061194c6119466119415f611310565b611331565b5f61138a565b6011611593565b6303c5b06560e61b90565b9061198f9161196b6112f3565b5061198861198161197c6004611310565b611331565b600461138a565b601d611593565b63f3a7920760e01b9056fea264697066735822122076b70d07409921b83bf2d065bc00a3ccd9edf8a799a9399252ea6315b1ae38b664736f6c63430008220033","linkReferences":{}},"methodIdentifiers":{"_midBurn()":"5c94787e","_midDonate()":"a033cb12","_midMint()":"8652cc39","_midModifyKernel()":"bbe08603","_midSwap()":"639f8934","_postBurn()":"d2aeca82","_postDonate()":"9663232b","_postInitialize()":"a38f588e","_postMint()":"84c305f0","_postModifyKernel()":"d54742bf","_postSwap()":"80114eae","_preBurn()":"c5e24e99","_preDonate()":"c0208dc5","_preInitialize()":"6f7e3114","_preMint()":"cb832cc7","_preModifyKernel()":"6bbda613","_preSwap()":"411bc2d4","midBurn(bytes)":"13a6d341","midBurnData()":"f6ea3b62","midDonate(bytes)":"bf0e78db","midDonateData()":"22d2b363","midMint(bytes)":"14ea355b","midMintData()":"c4083110","midModifyKernel(bytes)":"7ec4a7fc","midModifyKernelData()":"01b6f380","midSwap(bytes)":"716a5da4","midSwapData()":"5ef4fd32","postBurn(bytes)":"cb5e7318","postBurnData()":"d8eea910","postDonate(bytes)":"5e2b908e","postDonateData()":"cae72646","postInitialize(bytes)":"5eac6a2d","postInitializeData()":"c25be085","postMint(bytes)":"f3a79207","postMintData()":"3385ea72","postModifyKernel(bytes)":"5279ad9d","postModifyKernelData()":"df97e5a7","postSwap(bytes)":"d243037e","postSwapData()":"91a288cd","preBurn(bytes)":"9fc41e54","preBurnData()":"3a703554","preDonate(bytes)":"a048233f","preDonateData()":"843343a6","preInitialize(bytes)":"f16c1940","preInitializeData()":"9c8d2975","preMint(bytes)":"801b2eba","preMintData()":"921fc60d","preModifyKernel(bytes)":"1da0c40d","preModifyKernelData()":"5413dc71","preSwap(bytes)":"59350e8a","preSwapData()":"886d1a5b"},"id":23}