{"abi":[{"type":"function","name":"equals","inputs":[{"name":"value0","type":"uint256","internalType":"Tag"},{"name":"value1","type":"uint256","internalType":"Tag"}],"outputs":[{"name":"result","type":"bool","internalType":"bool"}],"stateMutability":"nonpayable"},{"type":"function","name":"greaterThan","inputs":[{"name":"value0","type":"uint256","internalType":"Tag"},{"name":"value1","type":"uint256","internalType":"Tag"}],"outputs":[{"name":"result","type":"bool","internalType":"bool"}],"stateMutability":"nonpayable"},{"type":"function","name":"greaterThanOrEqualTo","inputs":[{"name":"value0","type":"uint256","internalType":"Tag"},{"name":"value1","type":"uint256","internalType":"Tag"}],"outputs":[{"name":"result","type":"bool","internalType":"bool"}],"stateMutability":"nonpayable"},{"type":"function","name":"lessThan","inputs":[{"name":"value0","type":"uint256","internalType":"Tag"},{"name":"value1","type":"uint256","internalType":"Tag"}],"outputs":[{"name":"result","type":"bool","internalType":"bool"}],"stateMutability":"nonpayable"},{"type":"function","name":"lessThanOrEqualTo","inputs":[{"name":"value0","type":"uint256","internalType":"Tag"},{"name":"value1","type":"uint256","internalType":"Tag"}],"outputs":[{"name":"result","type":"bool","internalType":"bool"}],"stateMutability":"nonpayable"},{"type":"function","name":"notEqual","inputs":[{"name":"value0","type":"uint256","internalType":"Tag"},{"name":"value1","type":"uint256","internalType":"Tag"}],"outputs":[{"name":"result","type":"bool","internalType":"bool"}],"stateMutability":"nonpayable"},{"type":"function","name":"tag","inputs":[{"name":"poolId","type":"uint256","internalType":"uint256"},{"name":"logPriceMinOffsetted","type":"int256","internalType":"X59"},{"name":"logPriceMaxOffsetted","type":"int256","internalType":"X59"}],"outputs":[{"name":"tokenTag","type":"uint256","internalType":"Tag"}],"stateMutability":"nonpayable"},{"type":"function","name":"tag","inputs":[{"name":"tokenAddress","type":"address","internalType":"address"},{"name":"tokenId","type":"uint256","internalType":"uint256"}],"outputs":[{"name":"tokenTag","type":"uint256","internalType":"Tag"}],"stateMutability":"nonpayable"},{"type":"function","name":"tag","inputs":[{"name":"tokenAddress","type":"address","internalType":"address"}],"outputs":[{"name":"tokenTag","type":"uint256","internalType":"Tag"}],"stateMutability":"nonpayable"}],"bytecode":{"object":"0x608060405234601c57600e6020565b61064261002b823961064290f35b6026565b60405190565b5f80fdfe60806040526004361015610013575b610468565b61001d5f356100ac565b80632215ea7c146100a757806347b5cd81146100a257806348f24ceb1461009d578063827b9d3914610098578063ca4e89bf14610093578063d42d8eed1461008e578063d73492a114610089578063ea045c43146100845763fb1dd0e50361000e57610432565b6103fd565b6103a9565b610373565b6102d6565b6102a0565b6101a6565b610170565b61013a565b60e01c90565b60405190565b5f80fd5b5f80fd5b90565b6100cc816100c0565b036100d357565b5f80fd5b905035906100e4826100c3565b565b919060408382031261010e578061010261010b925f86016100d7565b936020016100d7565b90565b6100bc565b151590565b61012190610113565b9052565b9190610138905f60208501940190610118565b565b3461016b576101676101566101503660046100e6565b90610470565b61015e6100b2565b91829182610125565b0390f35b6100b8565b346101a15761019d61018c6101863660046100e6565b90610486565b6101946100b2565b91829182610125565b0390f35b6100b8565b346101d7576101d36101c26101bc3660046100e6565b9061049c565b6101ca6100b2565b91829182610125565b0390f35b6100b8565b6101e5816100c0565b036101ec57565b5f80fd5b905035906101fd826101dc565b565b90565b61020b816101ff565b0361021257565b5f80fd5b9050359061022382610202565b565b909160608284031261025a57610257610240845f85016101f0565b9361024e8160208601610216565b93604001610216565b90565b6100bc565b90565b61027661027161027b926100c0565b61025f565b6100c0565b90565b61028790610262565b9052565b919061029e905f6020850194019061027e565b565b346102d1576102cd6102bc6102b6366004610225565b916104b6565b6102c46100b2565b9182918261028b565b0390f35b6100b8565b34610307576103036102f26102ec3660046100e6565b906104cf565b6102fa6100b2565b91829182610125565b0390f35b6100b8565b60018060a01b031690565b6103209061030c565b90565b61032c81610317565b0361033357565b5f80fd5b9050359061034482610323565b565b919060408382031261036e578061036261036b925f8601610337565b936020016101f0565b90565b6100bc565b346103a4576103a061038f610389366004610346565b906104e5565b6103976100b2565b9182918261028b565b0390f35b6100b8565b346103da576103d66103c56103bf3660046100e6565b906104fb565b6103cd6100b2565b91829182610125565b0390f35b6100b8565b906020828203126103f8576103f5915f01610337565b90565b6100bc565b3461042d576104296104186104133660046103df565b610511565b6104206100b2565b9182918261028b565b0390f35b6100b8565b346104635761045f61044e6104483660046100e6565b90610526565b6104566100b2565b91829182610125565b0390f35b6100b8565b5f80fd5b5f90565b906104839161047d61046c565b5061053c565b90565b906104999161049361046c565b50610549565b90565b906104af916104a961046c565b50610556565b90565b5f90565b916104cc926104c36104b2565b50919091610563565b90565b906104e2916104dc61046c565b50610586565b90565b906104f8916104f26104b2565b506105a5565b90565b9061050e9161050861046c565b506105ba565b90565b6105239061051d6104b2565b506105d9565b90565b906105399161053361046c565b506105ed565b90565b61054461046c565b501090565b61055161046c565b501490565b61055e61046c565b501190565b9092919261056f6104b2565b50604051936040526020525f5260605f2091604052565b6105a29161059c9161059661046c565b50610549565b15610113565b90565b6105ad6104b2565b506014525f5260345f2090565b6105d6916105d0916105ca61046c565b5061053c565b15610113565b90565b6105e16104b2565b5060018060a01b031690565b61060991610603916105fd61046c565b50610556565b15610113565b9056fea26469706673582212204173bb7201b0aed1f1e295436438edc05b848e905b38abf4a3f089070f19ccf864736f6c63430008220033","linkReferences":{}},"methodIdentifiers":{"equals(uint256,uint256)":"47b5cd81","greaterThan(uint256,uint256)":"48f24ceb","greaterThanOrEqualTo(uint256,uint256)":"d73492a1","lessThan(uint256,uint256)":"2215ea7c","lessThanOrEqualTo(uint256,uint256)":"fb1dd0e5","notEqual(uint256,uint256)":"ca4e89bf","tag(address)":"ea045c43","tag(address,uint256)":"d42d8eed","tag(uint256,int256,int256)":"827b9d39"},"id":30}