{"abi":[{"type":"function","name":"__isMidBurn","inputs":[{"name":"poolId","type":"uint256","internalType":"uint256"}],"outputs":[],"stateMutability":"nonpayable"},{"type":"function","name":"__isMidDonate","inputs":[{"name":"poolId","type":"uint256","internalType":"uint256"}],"outputs":[],"stateMutability":"nonpayable"},{"type":"function","name":"__isMidMint","inputs":[{"name":"poolId","type":"uint256","internalType":"uint256"}],"outputs":[],"stateMutability":"nonpayable"},{"type":"function","name":"__isMidModifyKernel","inputs":[{"name":"poolId","type":"uint256","internalType":"uint256"}],"outputs":[],"stateMutability":"nonpayable"},{"type":"function","name":"__isMidSwap","inputs":[{"name":"poolId","type":"uint256","internalType":"uint256"}],"outputs":[],"stateMutability":"nonpayable"},{"type":"function","name":"__isPostBurn","inputs":[{"name":"poolId","type":"uint256","internalType":"uint256"}],"outputs":[],"stateMutability":"nonpayable"},{"type":"function","name":"__isPostDonate","inputs":[{"name":"poolId","type":"uint256","internalType":"uint256"}],"outputs":[],"stateMutability":"nonpayable"},{"type":"function","name":"__isPostInitialize","inputs":[{"name":"poolId","type":"uint256","internalType":"uint256"}],"outputs":[],"stateMutability":"nonpayable"},{"type":"function","name":"__isPostMint","inputs":[{"name":"poolId","type":"uint256","internalType":"uint256"}],"outputs":[],"stateMutability":"nonpayable"},{"type":"function","name":"__isPostModifyKernel","inputs":[{"name":"poolId","type":"uint256","internalType":"uint256"}],"outputs":[],"stateMutability":"nonpayable"},{"type":"function","name":"__isPostSwap","inputs":[{"name":"poolId","type":"uint256","internalType":"uint256"}],"outputs":[],"stateMutability":"nonpayable"},{"type":"function","name":"__isPreBurn","inputs":[{"name":"poolId","type":"uint256","internalType":"uint256"}],"outputs":[],"stateMutability":"nonpayable"},{"type":"function","name":"__isPreDonate","inputs":[{"name":"poolId","type":"uint256","internalType":"uint256"}],"outputs":[],"stateMutability":"nonpayable"},{"type":"function","name":"__isPreInitialize","inputs":[{"name":"poolId","type":"uint256","internalType":"uint256"}],"outputs":[],"stateMutability":"nonpayable"},{"type":"function","name":"__isPreMint","inputs":[{"name":"poolId","type":"uint256","internalType":"uint256"}],"outputs":[],"stateMutability":"nonpayable"},{"type":"function","name":"__isPreModifyKernel","inputs":[{"name":"poolId","type":"uint256","internalType":"uint256"}],"outputs":[],"stateMutability":"nonpayable"},{"type":"function","name":"__isPreSwap","inputs":[{"name":"poolId","type":"uint256","internalType":"uint256"}],"outputs":[],"stateMutability":"nonpayable"},{"type":"function","name":"_getHook","inputs":[{"name":"poolId","type":"uint256","internalType":"uint256"}],"outputs":[{"name":"hookAddress","type":"address","internalType":"contract IHook"}],"stateMutability":"nonpayable"},{"type":"function","name":"_invokeHook","inputs":[{"name":"poolId","type":"uint256","internalType":"uint256"},{"name":"selector","type":"bytes4","internalType":"bytes4"},{"name":"content","type":"bytes","internalType":"bytes"}],"outputs":[],"stateMutability":"nonpayable"},{"type":"function","name":"_isDonateAllowed","inputs":[{"name":"poolId","type":"uint256","internalType":"uint256"}],"outputs":[{"name":"flag","type":"bool","internalType":"bool"}],"stateMutability":"nonpayable"},{"type":"function","name":"_isMidBurn","inputs":[{"name":"poolId","type":"uint256","internalType":"uint256"}],"outputs":[{"name":"flag","type":"bool","internalType":"bool"}],"stateMutability":"nonpayable"},{"type":"function","name":"_isMidDonate","inputs":[{"name":"poolId","type":"uint256","internalType":"uint256"}],"outputs":[{"name":"flag","type":"bool","internalType":"bool"}],"stateMutability":"nonpayable"},{"type":"function","name":"_isMidMint","inputs":[{"name":"poolId","type":"uint256","internalType":"uint256"}],"outputs":[{"name":"flag","type":"bool","internalType":"bool"}],"stateMutability":"nonpayable"},{"type":"function","name":"_isMidModifyKernel","inputs":[{"name":"poolId","type":"uint256","internalType":"uint256"}],"outputs":[{"name":"flag","type":"bool","internalType":"bool"}],"stateMutability":"nonpayable"},{"type":"function","name":"_isMidSwap","inputs":[{"name":"poolId","type":"uint256","internalType":"uint256"}],"outputs":[{"name":"flag","type":"bool","internalType":"bool"}],"stateMutability":"nonpayable"},{"type":"function","name":"_isMutableKernel","inputs":[{"name":"poolId","type":"uint256","internalType":"uint256"}],"outputs":[{"name":"flag","type":"bool","internalType":"bool"}],"stateMutability":"nonpayable"},{"type":"function","name":"_isMutablePoolGrowthPortion","inputs":[{"name":"poolId","type":"uint256","internalType":"uint256"}],"outputs":[{"name":"flag","type":"bool","internalType":"bool"}],"stateMutability":"nonpayable"},{"type":"function","name":"_isPostBurn","inputs":[{"name":"poolId","type":"uint256","internalType":"uint256"}],"outputs":[{"name":"flag","type":"bool","internalType":"bool"}],"stateMutability":"nonpayable"},{"type":"function","name":"_isPostDonate","inputs":[{"name":"poolId","type":"uint256","internalType":"uint256"}],"outputs":[{"name":"flag","type":"bool","internalType":"bool"}],"stateMutability":"nonpayable"},{"type":"function","name":"_isPostInitialize","inputs":[{"name":"poolId","type":"uint256","internalType":"uint256"}],"outputs":[{"name":"flag","type":"bool","internalType":"bool"}],"stateMutability":"nonpayable"},{"type":"function","name":"_isPostMint","inputs":[{"name":"poolId","type":"uint256","internalType":"uint256"}],"outputs":[{"name":"flag","type":"bool","internalType":"bool"}],"stateMutability":"nonpayable"},{"type":"function","name":"_isPostModifyKernel","inputs":[{"name":"poolId","type":"uint256","internalType":"uint256"}],"outputs":[{"name":"flag","type":"bool","internalType":"bool"}],"stateMutability":"nonpayable"},{"type":"function","name":"_isPostSwap","inputs":[{"name":"poolId","type":"uint256","internalType":"uint256"}],"outputs":[{"name":"flag","type":"bool","internalType":"bool"}],"stateMutability":"nonpayable"},{"type":"function","name":"_isPreBurn","inputs":[{"name":"poolId","type":"uint256","internalType":"uint256"}],"outputs":[{"name":"flag","type":"bool","internalType":"bool"}],"stateMutability":"nonpayable"},{"type":"function","name":"_isPreDonate","inputs":[{"name":"poolId","type":"uint256","internalType":"uint256"}],"outputs":[{"name":"flag","type":"bool","internalType":"bool"}],"stateMutability":"nonpayable"},{"type":"function","name":"_isPreInitialize","inputs":[{"name":"poolId","type":"uint256","internalType":"uint256"}],"outputs":[{"name":"flag","type":"bool","internalType":"bool"}],"stateMutability":"nonpayable"},{"type":"function","name":"_isPreMint","inputs":[{"name":"poolId","type":"uint256","internalType":"uint256"}],"outputs":[{"name":"flag","type":"bool","internalType":"bool"}],"stateMutability":"nonpayable"},{"type":"function","name":"_isPreModifyKernel","inputs":[{"name":"poolId","type":"uint256","internalType":"uint256"}],"outputs":[{"name":"flag","type":"bool","internalType":"bool"}],"stateMutability":"nonpayable"},{"type":"function","name":"_isPreSwap","inputs":[{"name":"poolId","type":"uint256","internalType":"uint256"}],"outputs":[{"name":"flag","type":"bool","internalType":"bool"}],"stateMutability":"nonpayable"},{"type":"function","name":"_validateFlags","inputs":[{"name":"poolId","type":"uint256","internalType":"uint256"}],"outputs":[],"stateMutability":"nonpayable"},{"type":"error","name":"InvalidFlags","inputs":[{"name":"","type":"uint256","internalType":"uint256"}]}],"bytecode":{"object":"0x608060405234601c57600e6020565b6117ce61002b82396117ce90f35b6026565b60405190565b5f80fdfe60806040526004361015610013575b610c7a565b61001d5f3561029c565b80630683280d1461029757806307f343ee146102925780630b529aba1461028d578063115bd27414610288578063132ac9b9146102835780631d10eed71461027e57806320810a141461027957806321624fa814610274578063235620441461026f578063255f10a91461026a57806326ff957c146102655780632fe985e114610260578063326201181461025b5780633607f2d4146102565780633cd1db9514610251578063454efc0f1461024c57806347e90d84146102475780634874ffd1146102425780634a1a15b71461023d5780634b8be1981461023857806351ca441614610233578063565046721461022e5780635ad9c91c146102295780635d1303c8146102245780635f429af21461021f578063615587de1461021a5780637749b7dc146102155780637d801587146102105780637d8fd2f31461020b57806385a4ce0814610206578063897be9c11461020157806389b74391146101fc578063a46f3429146101f7578063ab00c7f8146101f2578063abec8d52146101ed578063ba51bbf4146101e8578063c3678dbf146101e3578063cc83b287146101de578063ce0d55e0146101d95763fc8d9f5a0361000e57610c43565b610b44565b610b11565b610adc565b610aa7565b610a72565b610a3d565b610a08565b6109d5565b6109a2565b61096d565b610938565b610903565b6108ce565b610899565b610864565b610831565b6107fe565b6107c9565b610732565b6106ff565b6106cc565b610699565b610664565b61062f565b6105fa565b6105c5565b610592565b61055d565b61052a565b6104f7565b6104c2565b61048f565b61045a565b610427565b6103f4565b6103bf565b61038c565b610357565b6102fd565b60e01c90565b60405190565b5f80fd5b5f80fd5b5f80fd5b90565b6102c0816102b4565b036102c757565b5f80fd5b905035906102d8826102b7565b565b906020828203126102f3576102f0915f016102cb565b90565b6102ac565b5f0190565b3461032b576103156103103660046102da565b610c7e565b61031d6102a2565b80610327816102f8565b0390f35b6102a8565b151590565b61033e90610330565b9052565b9190610355905f60208501940190610335565b565b346103875761038361037261036d3660046102da565b610c95565b61037a6102a2565b91829182610342565b0390f35b6102a8565b346103ba576103a461039f3660046102da565b610cb2565b6103ac6102a2565b806103b6816102f8565b0390f35b6102a8565b346103ef576103eb6103da6103d53660046102da565b610cc5565b6103e26102a2565b91829182610342565b0390f35b6102a8565b346104225761040c6104073660046102da565b610ce2565b6104146102a2565b8061041e816102f8565b0390f35b6102a8565b346104555761043f61043a3660046102da565b610cf5565b6104476102a2565b80610451816102f8565b0390f35b6102a8565b3461048a576104866104756104703660046102da565b610d08565b61047d6102a2565b91829182610342565b0390f35b6102a8565b346104bd576104a76104a23660046102da565b610d25565b6104af6102a2565b806104b9816102f8565b0390f35b6102a8565b346104f2576104ee6104dd6104d83660046102da565b610d38565b6104e56102a2565b91829182610342565b0390f35b6102a8565b346105255761050f61050a3660046102da565b610d55565b6105176102a2565b80610521816102f8565b0390f35b6102a8565b346105585761054261053d3660046102da565b610d68565b61054a6102a2565b80610554816102f8565b0390f35b6102a8565b3461058d576105896105786105733660046102da565b610d7b565b6105806102a2565b91829182610342565b0390f35b6102a8565b346105c0576105aa6105a53660046102da565b610d98565b6105b26102a2565b806105bc816102f8565b0390f35b6102a8565b346105f5576105f16105e06105db3660046102da565b610dab565b6105e86102a2565b91829182610342565b0390f35b6102a8565b3461062a576106266106156106103660046102da565b610dc8565b61061d6102a2565b91829182610342565b0390f35b6102a8565b3461065f5761065b61064a6106453660046102da565b610de5565b6106526102a2565b91829182610342565b0390f35b6102a8565b346106945761069061067f61067a3660046102da565b610e02565b6106876102a2565b91829182610342565b0390f35b6102a8565b346106c7576106b16106ac3660046102da565b610e1f565b6106b96102a2565b806106c3816102f8565b0390f35b6102a8565b346106fa576106e46106df3660046102da565b610e32565b6106ec6102a2565b806106f6816102f8565b0390f35b6102a8565b3461072d576107176107123660046102da565b610e45565b61071f6102a2565b80610729816102f8565b0390f35b6102a8565b346107605761074a6107453660046102da565b610e58565b6107526102a2565b8061075c816102f8565b0390f35b6102a8565b60018060a01b031690565b90565b61078761078261078c92610765565b610770565b610765565b90565b61079890610773565b90565b6107a49061078f565b90565b6107b09061079b565b9052565b91906107c7905f602085019401906107a7565b565b346107f9576107f56107e46107df3660046102da565b610e6f565b6107ec6102a2565b918291826107b4565b0390f35b6102a8565b3461082c576108166108113660046102da565b610e8c565b61081e6102a2565b80610828816102f8565b0390f35b6102a8565b3461085f576108496108443660046102da565b610e9f565b6108516102a2565b8061085b816102f8565b0390f35b6102a8565b346108945761089061087f61087a3660046102da565b610eb2565b6108876102a2565b91829182610342565b0390f35b6102a8565b346108c9576108c56108b46108af3660046102da565b610ecf565b6108bc6102a2565b91829182610342565b0390f35b6102a8565b346108fe576108fa6108e96108e43660046102da565b610eec565b6108f16102a2565b91829182610342565b0390f35b6102a8565b346109335761092f61091e6109193660046102da565b610f09565b6109266102a2565b91829182610342565b0390f35b6102a8565b346109685761096461095361094e3660046102da565b610f26565b61095b6102a2565b91829182610342565b0390f35b6102a8565b3461099d576109996109886109833660046102da565b610f43565b6109906102a2565b91829182610342565b0390f35b6102a8565b346109d0576109ba6109b53660046102da565b610f60565b6109c26102a2565b806109cc816102f8565b0390f35b6102a8565b34610a03576109ed6109e83660046102da565b610f73565b6109f56102a2565b806109ff816102f8565b0390f35b6102a8565b34610a3857610a34610a23610a1e3660046102da565b610f86565b610a2b6102a2565b91829182610342565b0390f35b6102a8565b34610a6d57610a69610a58610a533660046102da565b610fa3565b610a606102a2565b91829182610342565b0390f35b6102a8565b34610aa257610a9e610a8d610a883660046102da565b610fc0565b610a956102a2565b91829182610342565b0390f35b6102a8565b34610ad757610ad3610ac2610abd3660046102da565b610fdd565b610aca6102a2565b91829182610342565b0390f35b6102a8565b34610b0c57610b08610af7610af23660046102da565b610ffa565b610aff6102a2565b91829182610342565b0390f35b6102a8565b34610b3f57610b29610b243660046102da565b611017565b610b316102a2565b80610b3b816102f8565b0390f35b6102a8565b34610b7257610b5c610b573660046102da565b61102a565b610b646102a2565b80610b6e816102f8565b0390f35b6102a8565b63ffffffff60e01b1690565b610b8c81610b77565b03610b9357565b5f80fd5b90503590610ba482610b83565b565b5f80fd5b5f80fd5b5f80fd5b909182601f83011215610bec5781359167ffffffffffffffff8311610be7576020019260018302840111610be257565b610bae565b610baa565b610ba6565b91606083830312610c3e57610c08825f85016102cb565b92610c168360208301610b97565b92604082013567ffffffffffffffff8111610c3957610c359201610bb2565b9091565b6102b0565b6102ac565b34610c7557610c5f610c56366004610bf1565b92919091611041565b610c676102a2565b80610c71816102f8565b0390f35b6102a8565b5f80fd5b610c8790611070565b610c8f611075565b565b5f90565b610ca790610ca1610c91565b50611070565b610caf611087565b90565b610cbb90611070565b610cc36110a4565b565b610cd790610cd1610c91565b50611070565b610cdf6110b6565b90565b610ceb90611070565b610cf36110d3565b565b610cfe90611070565b610d066110e5565b565b610d1a90610d14610c91565b50611070565b610d226110f7565b90565b610d2e90611070565b610d36611115565b565b610d4a90610d44610c91565b50611070565b610d52611127565b90565b610d5e90611070565b610d666111e8565b565b610d7190611070565b610d7961139a565b565b610d8d90610d87610c91565b50611070565b610d956113ac565b90565b610da190611070565b610da96113c8565b565b610dbd90610db7610c91565b50611070565b610dc56113da565b90565b610dda90610dd4610c91565b50611070565b610de26113f6565b90565b610df790610df1610c91565b50611070565b610dff611412565b90565b610e1490610e0e610c91565b50611070565b610e1c61142f565b90565b610e2890611070565b610e3061144b565b565b610e3b90611070565b610e4361145d565b565b610e4e90611070565b610e5661146f565b565b610e6190611070565b610e69611481565b565b5f90565b610e8190610e7b610e6b565b50611070565b610e896114cb565b90565b610e9590611070565b610e9d611507565b565b610ea890611070565b610eb0611519565b565b610ec490610ebe610c91565b50611070565b610ecc61152b565b90565b610ee190610edb610c91565b50611070565b610ee9611547565b90565b610efe90610ef8610c91565b50611070565b610f06611565565b90565b610f1b90610f15610c91565b50611070565b610f23611582565b90565b610f3890610f32610c91565b50611070565b610f4061159f565b90565b610f5590610f4f610c91565b50611070565b610f5d6115bd565b90565b610f6990611070565b610f716115d9565b565b610f7c90611070565b610f846115eb565b565b610f9890610f92610c91565b50611070565b610fa06115fd565b90565b610fb590610faf610c91565b50611070565b610fbd611619565b90565b610fd290610fcc610c91565b50611070565b610fda611635565b90565b610fef90610fe9610c91565b50611070565b610ff7611652565b90565b61100c90611006610c91565b50611070565b61101461166f565b90565b61102090611070565b61102861168d565b565b61103390611070565b61103b61169f565b565b5f90565b61106e935061106991925061105461103d565b5060443560040180356020019060a437611070565b611709565b565b60d852565b611085632c9a874560e11b611709565b565b61108f610c91565b505f61010061109c611762565b60a01c161190565b6110b4631da0c40d60e01b611709565b565b6110be610c91565b505f6108006110cb611762565b60a01c161190565b6110e363bf0e78db60e01b611709565b565b6110f563f3a7920760e01b611709565b565b6110ff610c91565b505f6204000061110d611762565b60a01c161190565b61112563692181bf60e11b611709565b565b61112f610c91565b505f61020061113c611762565b60a01c161190565b90565b61115b61115661116092611144565b610770565b610765565b90565b61116c90611147565b90565b61117890610773565b90565b6111849061116f565b90565b61119090610765565b90565b61119c90611187565b90565b6111a8906102b4565b9052565b91906111bf905f6020850194019061119f565b565b156111c95750565b6111e4905f918291635c31d35560e11b8352600483016111ac565b0390fd5b6111f061159f565b8015611383575b80611357575b8061132b575b806112ff575b806112d3575b806112a7575b80611247575b61124590611227611762565b906112306114cb565b5f806201ffff8560a01c1611911114166111c1565b565b506112506114cb565b61127261126c6112676112625f611163565b61117b565b611193565b91611193565b148015611299575b8015611286575b61121b565b506112456112926113ac565b9050611281565b506112a261152b565b61127a565b506112b061166f565b80156112bc575b611215565b506112ce6112c8611412565b15610330565b6112b7565b506112dc61166f565b80156112e8575b61120f565b506112fa6112f4611582565b15610330565b6112e3565b5061130861166f565b8015611314575b611209565b506113266113206110b6565b15610330565b61130f565b5061133461159f565b8015611340575b611203565b5061135261134c611547565b15610330565b61133b565b5061136061159f565b801561136c575b6111fd565b5061137e611378611565565b15610330565b611367565b5061139561138f611652565b15610330565b6111f7565b6113aa632f15c84760e11b611709565b565b6113b4610c91565b505f60026113c0611762565b60a01c161190565b6113d86314ea355b60e01b611709565b565b6113e2610c91565b505f60106113ee611762565b60a01c161190565b6113fe610c91565b505f600461140a611762565b60a01c161190565b61141a610c91565b505f612000611427611762565b60a01c161190565b611437610c91565b505f6040611443611762565b60a01c161190565b61145b6327f1079560e21b611709565b565b61146d631fb129ff60e21b611709565b565b61147f631c5a976960e21b611709565b565b611491635279ad9d60e01b611709565b565b6114a76114a26114ac92610765565b610770565b6102b4565b90565b6114c36114be6114c8926102b4565b610770565b610765565b90565b6114d3610e6b565b506115046114ff6114fa6114e5611762565b6114f460018060a01b03611493565b166114af565b61078f565b61117b565b90565b6115176313a6d34160e01b611709565b565b6115296303c5b06560e61b611709565b565b611533610c91565b505f600161153f611762565b60a01c161190565b61154f610c91565b505f6201000061155d611762565b60a01c161190565b61156d610c91565b505f61800061157a611762565b60a01c161190565b61158a610c91565b505f611000611597611762565b60a01c161190565b6115a7610c91565b505f620200006115b5611762565b60a01c161190565b6115c5610c91565b505f60806115d1611762565b60a01c161190565b6115e963a048233f60e01b611709565b565b6115fb635eac6a2d60e01b611709565b565b611605610c91565b505f6008611611611762565b60a01c161190565b611621610c91565b505f602061162d611762565b60a01c161190565b61163d610c91565b505f61040061164a611762565b60a01c161190565b61165a610c91565b505f614000611667611762565b60a01c161190565b611677610c91565b505f62080000611685611762565b60a01c161190565b61169d63196bce6360e31b611709565b565b6116af63400d975d60e11b611709565b565b63ffffffff1690565b6116ce6116c96116d3926116b1565b610770565b6116b1565b90565b6116e26116e79161029c565b6116ba565b90565b90565b6117016116fc611706926116ea565b610770565b6102b4565b90565b61171a611715826116d6565b611771565b61172c61172760206116ed565b611784565b60205f6117376114cb565b6080826044611744611789565b01925af19060203d14905f511416161561175a57565b3d5f803e3d5ffd5b61176a61103d565b5060d85190565b60046080015160201c9060e01b17608052565b608452565b61179161103d565b5060a4519056fea2646970667358221220d1b7904d8aed07d29954b9f7fc8181532fc401c2854e8b0fbb1997c66659719e64736f6c63430008220033","linkReferences":{}},"methodIdentifiers":{"__isMidBurn(uint256)":"5ad9c91c","__isMidDonate(uint256)":"132ac9b9","__isMidMint(uint256)":"32620118","__isMidModifyKernel(uint256)":"4a1a15b7","__isMidSwap(uint256)":"4b8be198","__isPostBurn(uint256)":"cc83b287","__isPostDonate(uint256)":"26ff957c","__isPostInitialize(uint256)":"89b74391","__isPostMint(uint256)":"1d10eed7","__isPostModifyKernel(uint256)":"51ca4416","__isPostSwap(uint256)":"21624fa8","__isPreBurn(uint256)":"4874ffd1","__isPreDonate(uint256)":"897be9c1","__isPreInitialize(uint256)":"5d1303c8","__isPreMint(uint256)":"ce0d55e0","__isPreModifyKernel(uint256)":"0b529aba","__isPreSwap(uint256)":"0683280d","_getHook(uint256)":"56504672","_invokeHook(uint256,bytes4,bytes)":"fc8d9f5a","_isDonateAllowed(uint256)":"c3678dbf","_isMidBurn(uint256)":"47e90d84","_isMidDonate(uint256)":"7d801587","_isMidMint(uint256)":"a46f3429","_isMidModifyKernel(uint256)":"7749b7dc","_isMidSwap(uint256)":"23562044","_isMutableKernel(uint256)":"7d8fd2f3","_isMutablePoolGrowthPortion(uint256)":"20810a14","_isPostBurn(uint256)":"85a4ce08","_isPostDonate(uint256)":"454efc0f","_isPostInitialize(uint256)":"2fe985e1","_isPostMint(uint256)":"3607f2d4","_isPostModifyKernel(uint256)":"615587de","_isPostSwap(uint256)":"abec8d52","_isPreBurn(uint256)":"ab00c7f8","_isPreDonate(uint256)":"115bd274","_isPreInitialize(uint256)":"5f429af2","_isPreMint(uint256)":"3cd1db95","_isPreModifyKernel(uint256)":"ba51bbf4","_isPreSwap(uint256)":"07f343ee","_validateFlags(uint256)":"255f10a9"},"id":17}