{"abi":[{"type":"function","name":"arbitrary","inputs":[{"name":"hookInput","type":"bytes","internalType":"bytes"}],"outputs":[{"name":"","type":"bytes4","internalType":"bytes4"}],"stateMutability":"nonpayable"},{"type":"function","name":"message","inputs":[],"outputs":[{"name":"","type":"bytes","internalType":"bytes"}],"stateMutability":"view"},{"type":"function","name":"midBurn","inputs":[{"name":"hookInput","type":"bytes","internalType":"bytes"}],"outputs":[{"name":"","type":"bytes4","internalType":"bytes4"}],"stateMutability":"nonpayable"},{"type":"function","name":"midDonate","inputs":[{"name":"hookInput","type":"bytes","internalType":"bytes"}],"outputs":[{"name":"","type":"bytes4","internalType":"bytes4"}],"stateMutability":"nonpayable"},{"type":"function","name":"midMint","inputs":[{"name":"hookInput","type":"bytes","internalType":"bytes"}],"outputs":[{"name":"","type":"bytes4","internalType":"bytes4"}],"stateMutability":"nonpayable"},{"type":"function","name":"midModifyKernel","inputs":[{"name":"hookInput","type":"bytes","internalType":"bytes"}],"outputs":[{"name":"","type":"bytes4","internalType":"bytes4"}],"stateMutability":"nonpayable"},{"type":"function","name":"midSwap","inputs":[{"name":"hookInput","type":"bytes","internalType":"bytes"}],"outputs":[{"name":"","type":"bytes4","internalType":"bytes4"}],"stateMutability":"nonpayable"},{"type":"function","name":"postBurn","inputs":[{"name":"hookInput","type":"bytes","internalType":"bytes"}],"outputs":[{"name":"","type":"bytes4","internalType":"bytes4"}],"stateMutability":"nonpayable"},{"type":"function","name":"postDonate","inputs":[{"name":"hookInput","type":"bytes","internalType":"bytes"}],"outputs":[{"name":"","type":"bytes4","internalType":"bytes4"}],"stateMutability":"nonpayable"},{"type":"function","name":"postInitialize","inputs":[{"name":"hookInput","type":"bytes","internalType":"bytes"}],"outputs":[{"name":"","type":"bytes4","internalType":"bytes4"}],"stateMutability":"nonpayable"},{"type":"function","name":"postMint","inputs":[{"name":"hookInput","type":"bytes","internalType":"bytes"}],"outputs":[{"name":"","type":"bytes4","internalType":"bytes4"}],"stateMutability":"nonpayable"},{"type":"function","name":"postModifyKernel","inputs":[{"name":"hookInput","type":"bytes","internalType":"bytes"}],"outputs":[{"name":"","type":"bytes4","internalType":"bytes4"}],"stateMutability":"nonpayable"},{"type":"function","name":"postSwap","inputs":[{"name":"hookInput","type":"bytes","internalType":"bytes"}],"outputs":[{"name":"","type":"bytes4","internalType":"bytes4"}],"stateMutability":"nonpayable"},{"type":"function","name":"preBurn","inputs":[{"name":"hookInput","type":"bytes","internalType":"bytes"}],"outputs":[{"name":"","type":"bytes4","internalType":"bytes4"}],"stateMutability":"nonpayable"},{"type":"function","name":"preDonate","inputs":[{"name":"hookInput","type":"bytes","internalType":"bytes"}],"outputs":[{"name":"","type":"bytes4","internalType":"bytes4"}],"stateMutability":"nonpayable"},{"type":"function","name":"preInitialize","inputs":[{"name":"hookInput","type":"bytes","internalType":"bytes"}],"outputs":[{"name":"","type":"bytes4","internalType":"bytes4"}],"stateMutability":"nonpayable"},{"type":"function","name":"preMint","inputs":[{"name":"hookInput","type":"bytes","internalType":"bytes"}],"outputs":[{"name":"","type":"bytes4","internalType":"bytes4"}],"stateMutability":"nonpayable"},{"type":"function","name":"preModifyKernel","inputs":[{"name":"hookInput","type":"bytes","internalType":"bytes"}],"outputs":[{"name":"","type":"bytes4","internalType":"bytes4"}],"stateMutability":"nonpayable"},{"type":"function","name":"preSwap","inputs":[{"name":"hookInput","type":"bytes","internalType":"bytes"}],"outputs":[{"name":"","type":"bytes4","internalType":"bytes4"}],"stateMutability":"nonpayable"},{"type":"function","name":"returnSelector","inputs":[],"outputs":[{"name":"","type":"bool","internalType":"bool"}],"stateMutability":"view"},{"type":"function","name":"reverting","inputs":[],"outputs":[{"name":"","type":"bool","internalType":"bool"}],"stateMutability":"view"},{"type":"function","name":"selector","inputs":[],"outputs":[{"name":"","type":"bytes4","internalType":"bytes4"}],"stateMutability":"view"},{"type":"function","name":"setValues","inputs":[{"name":"_selector","type":"bytes4","internalType":"bytes4"},{"name":"_reverting","type":"bool","internalType":"bool"},{"name":"_returnSelector","type":"bool","internalType":"bool"},{"name":"_message","type":"bytes","internalType":"bytes"}],"outputs":[],"stateMutability":"nonpayable"},{"type":"error","name":"InvalidHook","inputs":[]}],"bytecode":{"object":"0x608060405234601c57600e6020565b6110f661002b82396110f690f35b6026565b60405190565b5f80fdfe60806040526004361015610013575b610a8c565b61001d5f3561018c565b806305d42a271461018757806313a6d3411461018257806314ea355b1461017d5780631da0c40d1461017857806325d9185c14610173578063274c45841461016e5780635279ad9d1461016957806359350e8a146101645780635e2b908e1461015f5780635eac6a2d1461015a578063716a5da4146101555780637de294fd146101505780637ec4a7fc1461014b578063801b2eba146101465780639fc41e5414610141578063a048233f1461013c578063bf0e78db14610137578063cb5e731814610132578063d243037e1461012d578063e21f37ce14610128578063ea3d508a14610123578063f16c19401461011e5763f3a792070361000e57610a56565b610a20565b6109eb565b610970565b61074d565b610717565b6106e1565b6106ab565b610675565b61063f565b610609565b6105d3565b61059d565b610567565b610531565b6104fb565b6104c5565b61048e565b6103ae565b610369565b610333565b6102fd565b610215565b60e01c90565b60405190565b5f80fd5b5f80fd5b5f9103126101aa57565b61019c565b1c90565b60ff1690565b6101c99060086101ce93026101af565b6101b3565b90565b906101dc91546101b9565b90565b6101eb5f6005906101d1565b90565b151590565b6101fc906101ee565b9052565b9190610213905f602085019401906101f3565b565b34610245576102253660046101a0565b6102416102306101df565b610238610192565b91829182610200565b0390f35b610198565b5f80fd5b5f80fd5b5f80fd5b5f80fd5b909182601f830112156102945781359167ffffffffffffffff831161028f57602001926001830284011161028a57565b610256565b610252565b61024e565b906020828203126102ca575f82013567ffffffffffffffff81116102c5576102c1920161025a565b9091565b61024a565b61019c565b63ffffffff60e01b1690565b6102e4906102cf565b9052565b91906102fb905f602085019401906102db565b565b3461032e5761032a610319610313366004610299565b90610a94565b610321610192565b918291826102e8565b0390f35b610198565b346103645761036061034f610349366004610299565b90610aaa565b610357610192565b918291826102e8565b0390f35b610198565b3461039a5761039661038561037f366004610299565b90610ac0565b61038d610192565b918291826102e8565b0390f35b610198565b6103ab5f6004906101d1565b90565b346103de576103be3660046101a0565b6103da6103c961039f565b6103d1610192565b91829182610200565b0390f35b610198565b6103ec816102cf565b036103f357565b5f80fd5b90503590610404826103e3565b565b61040f816101ee565b0361041657565b5f80fd5b9050359061042782610406565b565b9060808282031261048457610440815f84016103f7565b9261044e826020850161041a565b9261045c836040830161041a565b92606082013567ffffffffffffffff811161047f5761047b920161025a565b9091565b61024a565b61019c565b5f0190565b346104c0576104aa6104a1366004610429565b93929092610dd7565b6104b2610192565b806104bc81610489565b0390f35b610198565b346104f6576104f26104e16104db366004610299565b90610e03565b6104e9610192565b918291826102e8565b0390f35b610198565b3461052c57610528610517610511366004610299565b90610e19565b61051f610192565b918291826102e8565b0390f35b610198565b346105625761055e61054d610547366004610299565b90610e2f565b610555610192565b918291826102e8565b0390f35b610198565b346105985761059461058361057d366004610299565b90610e45565b61058b610192565b918291826102e8565b0390f35b610198565b346105ce576105ca6105b96105b3366004610299565b90610e5b565b6105c1610192565b918291826102e8565b0390f35b610198565b34610604576106006105ef6105e9366004610299565b90610f7c565b6105f7610192565b918291826102e8565b0390f35b610198565b3461063a5761063661062561061f366004610299565b90610ffa565b61062d610192565b918291826102e8565b0390f35b610198565b346106705761066c61065b610655366004610299565b90611010565b610663610192565b918291826102e8565b0390f35b610198565b346106a6576106a261069161068b366004610299565b90611026565b610699610192565b918291826102e8565b0390f35b610198565b346106dc576106d86106c76106c1366004610299565b9061103c565b6106cf610192565b918291826102e8565b0390f35b610198565b346107125761070e6106fd6106f7366004610299565b90611052565b610705610192565b918291826102e8565b0390f35b610198565b346107485761074461073361072d366004610299565b90611068565b61073b610192565b918291826102e8565b0390f35b610198565b3461077e5761077a610769610763366004610299565b9061107e565b610771610192565b918291826102e8565b0390f35b610198565b634e487b7160e01b5f525f60045260245ffd5b634e487b7160e01b5f52602260045260245ffd5b90600160028304921680156107ca575b60208310146107c557565b610796565b91607f16916107ba565b60209181520190565b5f5260205f2090565b905f92918054906108006107f9836107aa565b80946107d4565b916001811690815f14610857575060011461081b575b505050565b61082891929394506107dd565b915f925b81841061083f57505001905f8080610816565b6001816020929593955484860152019101929061082c565b92949550505060ff19168252151560200201905f8080610816565b9061087c916107e6565b90565b601f801991011690565b634e487b7160e01b5f52604160045260245ffd5b906108a79061087f565b810190811067ffffffffffffffff8211176108c157604052565b610889565b906108e66108df926108d6610192565b93848092610872565b038361089d565b565b905f106108fb576108f8906108c6565b90565b610783565b61090c60015f906108e8565b90565b5190565b60209181520190565b90825f9392825e0152565b61094661094f6020936109549361093d8161090f565b93848093610913565b9586910161091c565b61087f565b0190565b61096d9160208201915f818403910152610927565b90565b346109a0576109803660046101a0565b61099c61098b610900565b610993610192565b91829182610958565b0390f35b610198565b60e01b90565b6109b4906109a5565b90565b6109c79060086109cc93026101af565b6109ab565b90565b906109da91546109b7565b90565b6109e85f5f906109cf565b90565b34610a1b576109fb3660046101a0565b610a17610a066109dd565b610a0e610192565b918291826102e8565b0390f35b610198565b34610a5157610a4d610a3c610a36366004610299565b90611094565b610a44610192565b918291826102e8565b0390f35b610198565b34610a8757610a83610a72610a6c366004610299565b906110aa565b610a7a610192565b918291826102e8565b0390f35b610198565b5f80fd5b5f90565b5050610a9e610a90565b506313a6d34160e01b90565b5050610ab4610a90565b506314ea355b60e01b90565b5050610aca610a90565b50631da0c40d60e01b90565b5f1b90565b90610aea63ffffffff91610ad6565b9181191691161790565b610afd906102cf565b90565b610b099061018c565b90565b90610b21610b1c610b2892610af4565b610b00565b8254610adb565b9055565b60201b90565b90610b4264ff0000000091610b2c565b9181191691161790565b610b55906101ee565b90565b90565b90610b70610b6b610b7792610b4c565b610b58565b8254610b32565b9055565b60281b90565b90610b9265ff000000000091610b7b565b9181191691161790565b90610bb1610bac610bb892610b4c565b610b58565b8254610b81565b9055565b5090565b601f602091010490565b1b90565b91906008610be9910291610be35f1984610bca565b92610bca565b9181191691161790565b90565b90565b610c0d610c08610c1292610bf3565b610bf6565b610bf3565b90565b90565b9190610c2e610c29610c3693610bf9565b610c15565b908354610bce565b9055565b5f90565b610c5091610c4a610c3a565b91610c18565b565b5f5b828110610c6057505050565b80610c6f5f6001938501610c3e565b01610c54565b9190601f8111610c85575b505050565b818111610c92575b610c80565b610ca7610ca1610cc5946107dd565b91610bc0565b916020610cb382610bc0565b9110610ccd575b809101910390610c52565b5f8080610c8d565b505f610cba565b90610ce4905f19906008026101af565b191690565b81610cf391610cd4565b906002021790565b91610d069082610bbc565b9067ffffffffffffffff8211610dc557610d2a82610d2485546107aa565b85610c75565b5f90601f8311600114610d5d57918091610d4c935f92610d51575b5050610ce9565b90555b565b90915001355f80610d45565b601f19831691610d6c856107dd565b925f5b818110610dad57509160029391856001969410610d93575b50505002019055610d4f565b610da3910135601f841690610cd4565b90555f8080610d87565b91936020600181928787013581550195019201610d6f565b610889565b90610dd59291610cfb565b565b91610df4610dfa92610dee610e019796955f610b0c565b5f610b5b565b5f610b9c565b6001610dca565b565b5050610e0d610a90565b50635279ad9d60e01b90565b5050610e23610a90565b50632c9a874560e11b90565b5050610e39610a90565b50632f15c84760e11b90565b5050610e4f610a90565b50635eac6a2d60e01b90565b5050610e65610a90565b50631c5a976960e21b90565b60201c90565b610e83610e8891610e71565b6101b3565b90565b610e959054610e77565b90565b5f80fd5b90610eaf610ea8610192565b928361089d565b565b67ffffffffffffffff8111610ecf57610ecb60209161087f565b0190565b610889565b90825f939282370152565b90929192610ef4610eef82610eb1565b610e9c565b93818552602085019082840111610f1057610f0e92610ed4565b565b610e98565b610f20913691610edf565b90565b60281c90565b610f35610f3a91610f23565b6101b3565b90565b610f479054610f29565b90565b610f53906108c6565b90565b5f1c90565b610f67610f6c91610f56565b6109ab565b90565b610f799054610f5b565b90565b610f84610a90565b50610f8e5f610e8b565b5f14610fad57610f9e6001610f4a565b6020610fa98261090f565b9101fd5b5f91610fb891610f15565b6020610fc38261090f565b9101a1610fcf5f610f3d565b5f14610fe157610fde5f610f6f565b90565b610feb6001610f4a565b6020610ff68261090f565b9101f35b5050611004610a90565b50631fb129ff60e21b90565b505061101a610a90565b5063400d975d60e11b90565b5050611030610a90565b506327f1079560e21b90565b5050611046610a90565b5063a048233f60e01b90565b505061105c610a90565b5063bf0e78db60e01b90565b5050611072610a90565b5063196bce6360e31b90565b5050611088610a90565b5063692181bf60e11b90565b505061109e610a90565b506303c5b06560e61b90565b50506110b4610a90565b5063f3a7920760e01b9056fea2646970667358221220f29144cf9c3b042cc117c9313471061f1992573acef06052006bc36f28c5a8c264736f6c63430008220033","linkReferences":{}},"methodIdentifiers":{"arbitrary(bytes)":"7de294fd","message()":"e21f37ce","midBurn(bytes)":"13a6d341","midDonate(bytes)":"bf0e78db","midMint(bytes)":"14ea355b","midModifyKernel(bytes)":"7ec4a7fc","midSwap(bytes)":"716a5da4","postBurn(bytes)":"cb5e7318","postDonate(bytes)":"5e2b908e","postInitialize(bytes)":"5eac6a2d","postMint(bytes)":"f3a79207","postModifyKernel(bytes)":"5279ad9d","postSwap(bytes)":"d243037e","preBurn(bytes)":"9fc41e54","preDonate(bytes)":"a048233f","preInitialize(bytes)":"f16c1940","preMint(bytes)":"801b2eba","preModifyKernel(bytes)":"1da0c40d","preSwap(bytes)":"59350e8a","returnSelector()":"05d42a27","reverting()":"25d9185c","selector()":"ea3d508a","setValues(bytes4,bool,bool,bytes)":"274c4584"},"id":17}