{"abi":[{"type":"function","name":"add512","inputs":[{"name":"a0","type":"uint256","internalType":"uint256"},{"name":"a1","type":"uint256","internalType":"uint256"},{"name":"b0","type":"uint256","internalType":"uint256"},{"name":"b1","type":"uint256","internalType":"uint256"}],"outputs":[{"name":"r0","type":"uint256","internalType":"uint256"},{"name":"r1","type":"uint256","internalType":"uint256"}],"stateMutability":"nonpayable"},{"type":"function","name":"cheapMulDiv","inputs":[{"name":"a","type":"uint256","internalType":"uint256"},{"name":"b","type":"uint256","internalType":"uint256"},{"name":"denominator","type":"uint256","internalType":"uint256"}],"outputs":[{"name":"result","type":"uint256","internalType":"uint256"}],"stateMutability":"nonpayable"},{"type":"function","name":"modularInverse","inputs":[{"name":"value","type":"uint256","internalType":"uint256"}],"outputs":[{"name":"inverse","type":"uint256","internalType":"uint256"}],"stateMutability":"nonpayable"},{"type":"function","name":"mul512","inputs":[{"name":"a","type":"uint256","internalType":"uint256"},{"name":"b","type":"uint256","internalType":"uint256"}],"outputs":[{"name":"prod0","type":"uint256","internalType":"uint256"},{"name":"prod1","type":"uint256","internalType":"uint256"}],"stateMutability":"nonpayable"},{"type":"function","name":"mul768","inputs":[{"name":"a","type":"uint256","internalType":"uint256"},{"name":"b","type":"uint256","internalType":"uint256"},{"name":"c","type":"uint256","internalType":"uint256"}],"outputs":[{"name":"q0","type":"uint256","internalType":"uint256"},{"name":"q1","type":"uint256","internalType":"uint256"},{"name":"q2","type":"uint256","internalType":"uint256"}],"stateMutability":"nonpayable"},{"type":"function","name":"mulDiv","inputs":[{"name":"a","type":"uint256","internalType":"uint256"},{"name":"b","type":"uint256","internalType":"uint256"},{"name":"c","type":"uint256","internalType":"uint256"},{"name":"d","type":"uint256","internalType":"uint256"},{"name":"e","type":"uint256","internalType":"uint256"},{"name":"roundUp","type":"bool","internalType":"bool"}],"outputs":[{"name":"result","type":"uint256","internalType":"uint256"},{"name":"overflow","type":"bool","internalType":"bool"}],"stateMutability":"nonpayable"},{"type":"function","name":"mulDiv","inputs":[{"name":"a","type":"uint256","internalType":"uint256"},{"name":"b","type":"uint256","internalType":"uint256"},{"name":"c","type":"uint256","internalType":"uint256"},{"name":"d","type":"uint256","internalType":"uint256"},{"name":"roundUp","type":"bool","internalType":"bool"}],"outputs":[{"name":"result","type":"uint256","internalType":"uint256"}],"stateMutability":"nonpayable"},{"type":"function","name":"mulDiv","inputs":[{"name":"a","type":"uint256","internalType":"uint256"},{"name":"b","type":"uint256","internalType":"uint256"},{"name":"denominator","type":"uint256","internalType":"uint256"}],"outputs":[{"name":"result","type":"uint256","internalType":"uint256"}],"stateMutability":"nonpayable"},{"type":"function","name":"mulDivRoundUp","inputs":[{"name":"a","type":"uint256","internalType":"uint256"},{"name":"b","type":"uint256","internalType":"uint256"},{"name":"denominator","type":"uint256","internalType":"uint256"}],"outputs":[{"name":"result","type":"uint256","internalType":"uint256"}],"stateMutability":"nonpayable"},{"type":"function","name":"safeMulDiv","inputs":[{"name":"a","type":"uint256","internalType":"uint256"},{"name":"b","type":"uint256","internalType":"uint256"},{"name":"denominator","type":"uint256","internalType":"uint256"}],"outputs":[{"name":"result","type":"uint256","internalType":"uint256"}],"stateMutability":"nonpayable"},{"type":"function","name":"safeMulDivRoundUp","inputs":[{"name":"a","type":"uint256","internalType":"uint256"},{"name":"b","type":"uint256","internalType":"uint256"},{"name":"denominator","type":"uint256","internalType":"uint256"}],"outputs":[{"name":"result","type":"uint256","internalType":"uint256"}],"stateMutability":"nonpayable"},{"type":"function","name":"sub512","inputs":[{"name":"a0","type":"uint256","internalType":"uint256"},{"name":"a1","type":"uint256","internalType":"uint256"},{"name":"b0","type":"uint256","internalType":"uint256"},{"name":"b1","type":"uint256","internalType":"uint256"}],"outputs":[{"name":"r0","type":"uint256","internalType":"uint256"},{"name":"r1","type":"uint256","internalType":"uint256"}],"stateMutability":"nonpayable"},{"type":"error","name":"MulDivOverflow","inputs":[{"name":"a","type":"uint256","internalType":"uint256"},{"name":"b","type":"uint256","internalType":"uint256"},{"name":"denominator","type":"uint256","internalType":"uint256"}]}],"bytecode":{"object":"0x608060405234601c57600e6020565b61112561002b823961112590f35b6026565b60405190565b5f80fdfe60806040526004361015610013575b610607565b61001d5f356100dc565b80632886a33f146100d757806330d6363f146100d25780634ec4fb07146100cd5780636573e771146100c85780636d422242146100c35780636d728653146100be57806373d0b512146100b9578063aa9a0912146100b4578063b0533a35146100af578063bda4e619146100aa578063c0ecbc39146100a55763fa38dbe30361000e576105ce565b610562565b61052c565b6104f7565b6104a3565b61046c565b610409565b6103d0565b610344565b610307565b610211565b610172565b60e01c90565b60405190565b5f80fd5b5f80fd5b90565b6100fc816100f0565b0361010357565b5f80fd5b90503590610114826100f3565b565b909160608284031261014b57610148610131845f8501610107565b9361013f8160208601610107565b93604001610107565b90565b6100ec565b610159906100f0565b9052565b9190610170905f60208501940190610150565b565b346101a35761019f61018e610188366004610116565b9161060f565b6101966100e2565b9182918261015d565b0390f35b6100e8565b6080818303126101e9576101be825f8301610107565b926101e66101cf8460208501610107565b936101dd8160408601610107565b93606001610107565b90565b6100ec565b91602061020f92949361020860408201965f830190610150565b0190610150565b565b346102465761022d6102243660046101a8565b92919091610628565b906102426102396100e2565b928392836101ee565b0390f35b6100e8565b151590565b6102598161024b565b0361026057565b5f80fd5b9050359061027182610250565b565b909160c0828403126102d25761028b835f8401610107565b926102998160208501610107565b926102a78260408301610107565b926102cf6102b88460608501610107565b936102c68160808601610107565b9360a001610264565b90565b6100ec565b6102e09061024b565b9052565b9160206103059294936102fe60408201965f830190610150565b01906102d7565b565b3461033f5761032661031a366004610273565b94939093929192610654565b9061033b6103326100e2565b928392836102e4565b0390f35b6100e8565b346103755761037161036061035a366004610116565b91610680565b6103686100e2565b9182918261015d565b0390f35b6100e8565b919060a0838203126103cb57610392815f8501610107565b926103a08260208301610107565b926103c86103b18460408501610107565b936103bf8160608601610107565b93608001610264565b90565b6100ec565b34610404576104006103ef6103e636600461037a565b93929092610699565b6103f76100e2565b9182918261015d565b0390f35b6100e8565b3461043a5761043661042561041f366004610116565b916106b8565b61042d6100e2565b9182918261015d565b0390f35b6100e8565b9190604083820312610467578061045b610464925f8601610107565b93602001610107565b90565b6100ec565b3461049e5761048561047f36600461043f565b906106d1565b9061049a6104916100e2565b928392836101ee565b0390f35b6100e8565b346104d4576104d06104bf6104b9366004610116565b916106f3565b6104c76100e2565b9182918261015d565b0390f35b6100e8565b906020828203126104f2576104ef915f01610107565b90565b6100ec565b346105275761052361051261050d3660046104d9565b61070c565b61051a6100e2565b9182918261015d565b0390f35b6100e8565b3461055d57610559610548610542366004610116565b91610721565b6105506100e2565b9182918261015d565b0390f35b6100e8565b346105975761057e6105753660046101a8565b9291909161073a565b9061059361058a6100e2565b928392836101ee565b0390f35b6100e8565b6040906105c56105cc94969593966105bb60608401985f850190610150565b6020830190610150565b0190610150565b565b34610602576105fe6105ea6105e4366004610116565b91610762565b6105f59391936100e2565b9384938461059c565b0390f35b6100e8565b5f80fd5b5f90565b916106259261061c61060b565b50919091610791565b90565b9161064a93919261063761060b565b5061064061060b565b50929091926107b0565b91909190565b5f90565b9161067a959391949261066561060b565b5061066e610650565b50949091929394610915565b91909190565b916106969261068d61060b565b50919091610b24565b90565b916106b594929391936106aa61060b565b509390919293610c08565b90565b916106ce926106c561060b565b50919091610ddd565b90565b906106ed916106de61060b565b506106e761060b565b50610dfa565b91909190565b916107099261070061060b565b50919091610e20565b90565b61071e9061071861060b565b50610eef565b90565b916107379261072e61060b565b50919091611033565b90565b9161075c93919261074961060b565b5061075261060b565b5092909192611079565b91909190565b9161078a9261076f61060b565b5061077861060b565b5061078161060b565b5091909161109a565b9192909190565b915f9161079c61060b565b506107a984828491610e20565b9309110190565b939290916107bc61060b565b506107c561060b565b50808503941091030390565b90565b90565b6107eb6107e66107f0926107d1565b6107d4565b6100f0565b90565b90565b61080a61080561080f926107f3565b6107d4565b6100f0565b90565b90565b60ff1690565b61082f61082a61083492610812565b6107d4565b610815565b90565b1b90565b61085a9061085461084e61085f94610815565b916100f0565b90610837565b6100f0565b90565b90565b61087961087461087e92610862565b6107d4565b610815565b90565b1c90565b6108a49061089e6108986108a994610815565b916100f0565b90610881565b6100f0565b90565b906108b791036100f0565b90565b906108c591026100f0565b90565b90565b6108df6108da6108e4926108c8565b6107d4565b6100f0565b90565b60016108f391016100f0565b90565b90565b61090d610908610912926108f6565b6107d4565b6100f0565b90565b9495939291906109399161092761060b565b50610930610650565b9691909161109a565b93919290938061095561094f6001606f1b6107d7565b916100f0565b1015610ad2576109726109989161096c609161081b565b9061083b565b61098686610980606f610865565b90610885565b1794610992609161081b565b9061083b565b6109ac846109a6606f610865565b90610885565b176109b561060b565b5081805f198709818784080880958183109003910391816109de6109d8836100f0565b916100f0565b1015610ab85790610a129392916109fe5f6109f983916107f6565b6108ac565b1690600182805f03040102910417906108ba565b94610a4d575b505082610a31610a2b600160ff1b6108f9565b916100f0565b1015610a3957565b9150505f90610a496001926107f6565b9190565b610a646d7fffffffffffffffffffffffffff6108cb565b16610a77610a715f6107f6565b916100f0565b11908115610a9d575b50610a8d575b5f80610a18565b91610a97906108e7565b91610a86565b9050610ab1610aab5f6107f6565b916100f0565b115f610a80565b5050505050509150505f90610ace6001926107f6565b9190565b50505050509150505f90610ae76001926107f6565b9190565b634e487b7160e01b5f52601160045260245ffd5b610b0e610b14919392936100f0565b926100f0565b8201809211610b1f57565b610aeb565b90610b4590610b4b93610b3561060b565b505f818386091193919091611033565b90610aff565b90565b90565b610b65610b60610b6a92610b4e565b6107d4565b6100f0565b90565b90565b610b84610b7f610b8992610b6d565b6107d4565b6100f0565b90565b90565b610ba3610b9e610ba892610b8c565b6107d4565b610815565b90565b90565b610bc2610bbd610bc792610bab565b6107d4565b610815565b90565b90565b610be1610bdc610be692610bca565b6107d4565b6100f0565b90565b90565b610c00610bfb610c0592610be9565b6107d4565b6100f0565b90565b91610c2192959495610c1861060b565b5091909161109a565b80610c38610c32600160671b610b51565b916100f0565b1015610dc557610c55610c7b91610c4f6071610b8f565b9061083b565b610c6983610c63608f610bae565b90610885565b1791610c756071610b8f565b9061083b565b610c8f83610c89608f610bae565b90610885565b179092610c9a61060b565b5080805f19860981868508088094818410900392039082610cc3610cbd836100f0565b916100f0565b1015610dac57610d029291610cfd91610ce55f610ce083916107f6565b6108ac565b811680910493600182805f0304010291041791610eef565b6108ba565b93610d3d575b505081610d21610d1b600160d81b610bec565b916100f0565b1015610d2957565b9050610d3a60018060d81b03610b70565b90565b610d58717fffffffffffffffffffffffffffffffffff610bcd565b16610d6b610d655f6107f6565b916100f0565b11908115610d91575b50610d81575b5f80610d08565b90610d8b906108e7565b90610d7a565b9050610da5610d9f5f6107f6565b916100f0565b115f610d74565b50505050509050610dc260018060d81b03610b70565b90565b505050509050610dda60018060d81b03610b70565b90565b9091610de761060b565b5060018103928391818409820392090890565b9190610e0461060b565b50610e0d61060b565b505f198184099202918280821091030390565b610e2861060b565b50610e34818390610dfa565b9290929182610e4b610e455f6107f6565b916100f0565b14610eaa57610ea19285610ea79693610e9a93610e6661060b565b50099085821190039403936001610e865f610e8186916107f6565b6108ac565b841680809504960493805f030401906108ba565b1791610eef565b906108ba565b90565b5050500490565b90565b610ec8610ec3610ecd92610eb1565b6107d4565b6100f0565b90565b90565b610ee7610ee2610eec92610ed0565b6107d4565b6100f0565b90565b61100390610efb61060b565b50610ffd610fe1610fbd610f99610f75610f51610f226003610f1d8991610eb4565b6108ba565b610f2c6002610ed3565b18610f4b6002610f46610f408b85906108ba565b91610ed3565b6108ac565b906108ba565b610f6f6002610f6a610f648a85906108ba565b91610ed3565b6108ac565b906108ba565b610f936002610f8e610f888985906108ba565b91610ed3565b6108ac565b906108ba565b610fb76002610fb2610fac8885906108ba565b91610ed3565b6108ac565b906108ba565b610fdb6002610fd6610fd08785906108ba565b91610ed3565b6108ac565b906108ba565b91610ff8610ff260029285906108ba565b91610ed3565b6108ac565b906108ba565b90565b929091921561101457505050565b61102f905f93849363362ced0960e11b85526004850161059c565b0390fd5b916110769261104061060b565b5061106e61104f828590610dfa565b905061106361105d856100f0565b916100f0565b108285908592611006565b919091610e20565b90565b9392909161108561060b565b5061108e61060b565b50840193841091010190565b6110cf6110d994926110e1926110ae61060b565b506110b761060b565b506110c061060b565b506110c961060b565b50610dfa565b9490948490610dfa565b939094610dfa565b92909280939401928310019056fea2646970667358221220acf9ff1a4e88a5a4c1cd650a1485ce63f5fa1450bfa5df89bc31431a880562e864736f6c63430008220033","linkReferences":{}},"methodIdentifiers":{"add512(uint256,uint256,uint256,uint256)":"c0ecbc39","cheapMulDiv(uint256,uint256,uint256)":"6d728653","modularInverse(uint256)":"b0533a35","mul512(uint256,uint256)":"73d0b512","mul768(uint256,uint256,uint256)":"fa38dbe3","mulDiv(uint256,uint256,uint256)":"aa9a0912","mulDiv(uint256,uint256,uint256,uint256,bool)":"6d422242","mulDiv(uint256,uint256,uint256,uint256,uint256,bool)":"4ec4fb07","mulDivRoundUp(uint256,uint256,uint256)":"2886a33f","safeMulDiv(uint256,uint256,uint256)":"bda4e619","safeMulDivRoundUp(uint256,uint256,uint256)":"6573e771","sub512(uint256,uint256,uint256,uint256)":"30d6363f"},"id":14}