{"abi":[{"type":"function","name":"add","inputs":[{"name":"value0","type":"uint256","internalType":"X208"},{"name":"value1","type":"uint256","internalType":"X208"}],"outputs":[{"name":"result","type":"uint256","internalType":"X208"}],"stateMutability":"nonpayable"},{"type":"function","name":"equals","inputs":[{"name":"value0","type":"uint256","internalType":"X208"},{"name":"value1","type":"uint256","internalType":"X208"}],"outputs":[{"name":"result","type":"bool","internalType":"bool"}],"stateMutability":"nonpayable"},{"type":"function","name":"greaterThan","inputs":[{"name":"value0","type":"uint256","internalType":"X208"},{"name":"value1","type":"uint256","internalType":"X208"}],"outputs":[{"name":"result","type":"bool","internalType":"bool"}],"stateMutability":"nonpayable"},{"type":"function","name":"greaterThanOrEqualTo","inputs":[{"name":"value0","type":"uint256","internalType":"X208"},{"name":"value1","type":"uint256","internalType":"X208"}],"outputs":[{"name":"result","type":"bool","internalType":"bool"}],"stateMutability":"nonpayable"},{"type":"function","name":"lessThan","inputs":[{"name":"value0","type":"uint256","internalType":"X208"},{"name":"value1","type":"uint256","internalType":"X208"}],"outputs":[{"name":"result","type":"bool","internalType":"bool"}],"stateMutability":"nonpayable"},{"type":"function","name":"lessThanOrEqualTo","inputs":[{"name":"value0","type":"uint256","internalType":"X208"},{"name":"value1","type":"uint256","internalType":"X208"}],"outputs":[{"name":"result","type":"bool","internalType":"bool"}],"stateMutability":"nonpayable"},{"type":"function","name":"mulDiv","inputs":[{"name":"value","type":"uint256","internalType":"X208"},{"name":"numerator","type":"int256","internalType":"X216"},{"name":"denominator","type":"int256","internalType":"X216"}],"outputs":[{"name":"result","type":"uint256","internalType":"X208"}],"stateMutability":"nonpayable"},{"type":"function","name":"mulDivByExpInv8","inputs":[{"name":"value","type":"uint256","internalType":"X208"},{"name":"multiplier","type":"int256","internalType":"X216"}],"outputs":[{"name":"product","type":"int256","internalType":"X111"}],"stateMutability":"nonpayable"},{"type":"function","name":"notEqual","inputs":[{"name":"value0","type":"uint256","internalType":"X208"},{"name":"value1","type":"uint256","internalType":"X208"}],"outputs":[{"name":"result","type":"bool","internalType":"bool"}],"stateMutability":"nonpayable"},{"type":"function","name":"sub","inputs":[{"name":"value0","type":"uint256","internalType":"X208"},{"name":"value1","type":"uint256","internalType":"X208"}],"outputs":[{"name":"result","type":"uint256","internalType":"X208"}],"stateMutability":"nonpayable"}],"bytecode":{"object":"0x608060405234601c57600e6020565b610a4661002b8239610a4690f35b6026565b60405190565b5f80fdfe60806040526004361015610013575b610472565b61001d5f356100bc565b80632215ea7c146100b75780632797970b146100b257806347b5cd81146100ad57806348f24ceb146100a85780636d42a242146100a3578063771602f71461009e578063b67d77c514610099578063ca4e89bf14610094578063d73492a11461008f5763fb1dd0e50361000e5761043c565b610406565b6103d0565b61039a565b610364565b61032e565b610280565b61024a565b610214565b61014a565b60e01c90565b60405190565b5f80fd5b5f80fd5b90565b6100dc816100d0565b036100e357565b5f80fd5b905035906100f4826100d3565b565b919060408382031261011e578061011261011b925f86016100e7565b936020016100e7565b90565b6100cc565b151590565b61013190610123565b9052565b9190610148905f60208501940190610128565b565b3461017b576101776101666101603660046100f6565b9061047a565b61016e6100c2565b91829182610135565b0390f35b6100c8565b90565b61018c81610180565b0361019357565b5f80fd5b905035906101a482610183565b565b91906040838203126101ce57806101c26101cb925f86016100e7565b93602001610197565b90565b6100cc565b90565b6101ea6101e56101ef92610180565b6101d3565b610180565b90565b6101fb906101d6565b9052565b9190610212905f602085019401906101f2565b565b346102455761024161023061022a3660046101a6565b90610494565b6102386100c2565b918291826101ff565b0390f35b6100c8565b3461027b576102776102666102603660046100f6565b906104aa565b61026e6100c2565b91829182610135565b0390f35b6100c8565b346102b1576102ad61029c6102963660046100f6565b906104c0565b6102a46100c2565b91829182610135565b0390f35b6100c8565b90916060828403126102eb576102e86102d1845f85016100e7565b936102df8160208601610197565b93604001610197565b90565b6100cc565b6103046102ff610309926100d0565b6101d3565b6100d0565b90565b610315906102f0565b9052565b919061032c905f6020850194019061030c565b565b3461035f5761035b61034a6103443660046102b6565b916104da565b6103526100c2565b91829182610319565b0390f35b6100c8565b346103955761039161038061037a3660046100f6565b906104f3565b6103886100c2565b91829182610319565b0390f35b6100c8565b346103cb576103c76103b66103b03660046100f6565b90610509565b6103be6100c2565b91829182610319565b0390f35b6100c8565b34610401576103fd6103ec6103e63660046100f6565b9061051f565b6103f46100c2565b91829182610135565b0390f35b6100c8565b346104375761043361042261041c3660046100f6565b90610535565b61042a6100c2565b91829182610135565b0390f35b6100c8565b3461046d576104696104586104523660046100f6565b9061054b565b6104606100c2565b91829182610135565b0390f35b6100c8565b5f80fd5b5f90565b9061048d91610487610476565b50610561565b90565b5f90565b906104a7916104a1610490565b50610615565b90565b906104bd916104b7610476565b50610695565b90565b906104d3916104cd610476565b506106a2565b90565b5f90565b916104f0926104e76104d6565b509190916106af565b90565b90610506916105006104d6565b506106f9565b90565b9061051c916105166104d6565b50610706565b90565b906105329161052c610476565b50610713565b90565b9061054891610542610476565b50610732565b90565b9061055e91610558610476565b50610751565b90565b610569610476565b501090565b61058261057d61058792610180565b6101d3565b6100d0565b90565b90565b6105a161059c6105a69261058a565b6101d3565b6100d0565b90565b90565b60ff1690565b6105c66105c16105cb926105a9565b6101d3565b6105ac565b90565b1c90565b6105f1906105eb6105e56105f6946105ac565b916100d0565b906105ce565b6100d0565b90565b61060d610608610612926100d0565b6101d3565b610180565b90565b61068861067561068d926106929461062b610490565b5061067061066a61066561065f7fba4f53ea38636f85f007042540ae8ef33225e9a7ab4f4473a86d4a8fdd1a5b82956102f0565b936101d6565b61056e565b9261058d565b610774565b915050610682602d6105b2565b906105d2565b6105f9565b6101d6565b90565b61069d610476565b501490565b6106aa610476565b501190565b906106f6926106eb6106e66106e06106db6106d56106f1976106cf6104d6565b506102f0565b956101d6565b61056e565b926101d6565b61056e565b91610804565b6102f0565b90565b6107016104d6565b500190565b61070e6104d6565b500390565b61072f9161072991610723610476565b50610695565b15610123565b90565b61074e9161074891610742610476565b50610561565b15610123565b90565b61076d9161076791610761610476565b506106a2565b15610123565b90565b5f90565b6107a96107b394926107bb92610788610770565b50610791610770565b5061079a610770565b506107a3610770565b50610895565b9490948490610895565b939094610895565b929092809394019283100190565b90565b6107e06107db6107e5926107c9565b6101d3565b6100d0565b90565b906107f391036100d0565b90565b9061080191026100d0565b90565b61080c610770565b50610818818390610895565b929092918261082f6108295f6107cc565b916100d0565b1461088e57610885928561088b969361087e9361084a610770565b5009908582119003940393600161086a5f61086586916107cc565b6107e8565b841680809504960493805f030401906107f6565b17916108f9565b906107f6565b90565b5050500490565b919061089f610770565b506108a8610770565b505f198184099202918280821091030390565b90565b6108d26108cd6108d7926108bb565b6101d3565b6100d0565b90565b90565b6108f16108ec6108f6926108da565b6101d3565b6100d0565b90565b610a0d90610905610770565b50610a076109eb6109c76109a361097f61095b61092c600361092789916108be565b6107f6565b61093660026108dd565b18610955600261095061094a8b85906107f6565b916108dd565b6107e8565b906107f6565b610979600261097461096e8a85906107f6565b916108dd565b6107e8565b906107f6565b61099d60026109986109928985906107f6565b916108dd565b6107e8565b906107f6565b6109c160026109bc6109b68885906107f6565b916108dd565b6107e8565b906107f6565b6109e560026109e06109da8785906107f6565b916108dd565b6107e8565b906107f6565b91610a026109fc60029285906107f6565b916108dd565b6107e8565b906107f6565b9056fea2646970667358221220513ca904414f2adf1b16525f47cba02fc0a1c3fead4bb649e93b5f3910a3193a64736f6c63430008220033","linkReferences":{}},"methodIdentifiers":{"add(uint256,uint256)":"771602f7","equals(uint256,uint256)":"47b5cd81","greaterThan(uint256,uint256)":"48f24ceb","greaterThanOrEqualTo(uint256,uint256)":"d73492a1","lessThan(uint256,uint256)":"2215ea7c","lessThanOrEqualTo(uint256,uint256)":"fb1dd0e5","mulDiv(uint256,int256,int256)":"6d42a242","mulDivByExpInv8(uint256,int256)":"2797970b","notEqual(uint256,uint256)":"ca4e89bf","sub(uint256,uint256)":"b67d77c5"},"id":36}