{"abi":[{"type":"function","name":"_calculateIntegralLimitInterval","inputs":[{"name":"exactInput","type":"bool","internalType":"bool"},{"name":"zeroForOne","type":"bool","internalType":"bool"},{"name":"back","type":"int256","internalType":"X59"},{"name":"next","type":"int256","internalType":"X59"},{"name":"outgoingMax","type":"int256","internalType":"X216"},{"name":"incomingMax","type":"int256","internalType":"X216"}],"outputs":[{"name":"integralLimitInterval","type":"int256","internalType":"X216"}],"stateMutability":"nonpayable"},{"type":"function","name":"_cross","inputs":[{"name":"values","type":"uint256[19]","internalType":"uint256[19]"}],"outputs":[{"name":"halt","type":"bool","internalType":"bool"}],"stateMutability":"nonpayable"},{"type":"function","name":"_setSwapParams","inputs":[{"name":"zeroForOne","type":"uint256","internalType":"uint256"},{"name":"poolId","type":"uint256","internalType":"uint256"},{"name":"curveContent","type":"uint256","internalType":"uint256"},{"name":"logPriceLimit","type":"int256","internalType":"X59"},{"name":"amountSpecified","type":"int256","internalType":"X127"},{"name":"outgoingMax","type":"int256","internalType":"X216"},{"name":"incomingMax","type":"int256","internalType":"X216"},{"name":"growth","type":"int256","internalType":"X111"},{"name":"sharesTotal","type":"uint256","internalType":"uint256"}],"outputs":[],"stateMutability":"nonpayable"},{"type":"function","name":"_swapWithin","inputs":[{"name":"values","type":"uint256[18]","internalType":"uint256[18]"},{"name":"kernelArray","type":"uint256[]","internalType":"uint256[]"},{"name":"curveArray","type":"uint256[]","internalType":"uint256[]"}],"outputs":[{"name":"exactAmount","type":"bool","internalType":"bool"}],"stateMutability":"nonpayable"},{"type":"function","name":"_transition","inputs":[{"name":"values","type":"uint256[12]","internalType":"uint256[12]"}],"outputs":[],"stateMutability":"nonpayable"},{"type":"function","name":"_updateAmounts","inputs":[{"name":"exactInput","type":"bool","internalType":"bool"},{"name":"zeroForOne","type":"bool","internalType":"bool"},{"name":"amount0","type":"int256","internalType":"X127"},{"name":"amount1","type":"int256","internalType":"X127"},{"name":"amountSpecified","type":"int256","internalType":"X127"},{"name":"outgoingAmount","type":"int256","internalType":"X127"},{"name":"incomingAmount","type":"int256","internalType":"X127"}],"outputs":[{"name":"amount0Updated","type":"int256","internalType":"X127"},{"name":"amount1Updated","type":"int256","internalType":"X127"},{"name":"amountSpecifiedUpdated","type":"int256","internalType":"X127"}],"stateMutability":"nonpayable"},{"type":"function","name":"_updateKernel","inputs":[{"name":"poolId","type":"uint256","internalType":"uint256"},{"name":"storagePointer","type":"uint256","internalType":"uint256"},{"name":"kernelLength0","type":"uint256","internalType":"Index"},{"name":"kernelLength1","type":"uint256","internalType":"Index"},{"name":"staticContent0","type":"bytes","internalType":"bytes"},{"name":"staticContent1","type":"bytes","internalType":"bytes"}],"outputs":[],"stateMutability":"nonpayable"},{"type":"error","name":"AccruedGrowthPortionOverflow","inputs":[{"name":"accruedValue","type":"int256","internalType":"X127"}]},{"type":"error","name":"CurveIndexOutOfRange","inputs":[{"name":"length","type":"uint256","internalType":"Index"}]},{"type":"error","name":"DeploymentFailed","inputs":[]},{"type":"error","name":"GrowthOverflow","inputs":[]},{"type":"error","name":"InvalidDirection","inputs":[{"name":"current","type":"int256","internalType":"X59"},{"name":"limit","type":"int256","internalType":"X59"}]},{"type":"error","name":"SafeAddFailed","inputs":[{"name":"a","type":"int256","internalType":"X127"},{"name":"b","type":"int256","internalType":"X127"}]},{"type":"error","name":"SafeInRangeAmountOverflow","inputs":[{"name":"sqrtOffsetOrSqrtInverseOffset","type":"int256","internalType":"X127"},{"name":"integral","type":"int256","internalType":"X216"},{"name":"liquidity","type":"int256","internalType":"X111"},{"name":"outgoingMax","type":"int256","internalType":"X216"},{"name":"outgoingMaxModularInverse","type":"uint256","internalType":"uint256"}]},{"type":"error","name":"SearchingForIncomingTargetFailed","inputs":[]},{"type":"error","name":"SearchingForOutgoingTargetFailed","inputs":[]},{"type":"error","name":"SearchingForOvershootFailed","inputs":[]}],"bytecode":{"object":"0x608060405234601c57600e6020565b61941661002b823961941690f35b6026565b60405190565b5f80fdfe60806040526004361015610013575b61074f565b61001d5f3561008c565b80630c3f03ce14610087578063395431681461008257806369b873501461007d57806389bb1ec714610078578063b0d4f3bc14610073578063d69f819f1461006e5763f254a6f30361000e57610716565b610615565b610531565b61049e565b61038b565b61022a565b6100e1565b60e01c90565b60405190565b5f80fd5b5f80fd5b5f80fd5b5f80fd5b91906020600c028301116100b857565b6100a4565b90610180828203126100d7576100d4915f016100a8565b90565b61009c565b5f0190565b3461010f576100f96100f43660046100bd565b610a0d565b610101610092565b8061010b816100dc565b0390f35b610098565b151590565b61012281610114565b0361012957565b5f80fd5b9050359061013a82610119565b565b90565b6101488161013c565b0361014f57565b5f80fd5b905035906101608261013f565b565b61016b8161013c565b0361017257565b5f80fd5b9050359061018382610162565b565b909160c0828403126101e45761019d835f840161012d565b926101ab816020850161012d565b926101b98260408301610153565b926101e16101ca8460608501610153565b936101d88160808601610176565b9360a001610176565b90565b61009c565b90565b6102006101fb6102059261013c565b6101e9565b61013c565b90565b610211906101ec565b9052565b9190610228905f60208501940190610208565b565b346102615761025d61024c610240366004610185565b94939093929192610e76565b610254610092565b91829182610215565b0390f35b610098565b90565b61027281610266565b0361027957565b5f80fd5b9050359061028a82610269565b565b61029581610266565b0361029c57565b5f80fd5b905035906102ad8261028c565b565b5f80fd5b5f80fd5b909182601f830112156102f15781359167ffffffffffffffff83116102ec5760200192600183028401116102e757565b6100a4565b6102b3565b6102af565b60c0818303126103865761030c825f830161027d565b9261031a836020840161027d565b9261032881604085016102a0565b9261033682606083016102a0565b92608082013567ffffffffffffffff811161038157836103579184016102b7565b92909360a082013567ffffffffffffffff811161037c5761037892016102b7565b9091565b6100a0565b6100a0565b61009c565b346103c3576103ad61039e3660046102f6565b96959095949194939293610f64565b6103b5610092565b806103bf816100dc565b0390f35b610098565b6103d18161013c565b036103d857565b5f80fd5b905035906103e9826103c8565b565b6103f48161013c565b036103fb57565b5f80fd5b9050359061040c826103eb565b565b90916101208284031261049957610427835f840161027d565b92610435816020850161027d565b92610443826040830161027d565b926104518360608401610153565b9261045f81608085016103dc565b9261046d8260a08301610176565b9261049661047e8460c08501610176565b9361048c8160e086016103ff565b936101000161027d565b90565b61009c565b346104d6576104c06104b136600461040e565b97969096959195949294611093565b6104c8610092565b806104d2816100dc565b0390f35b610098565b919060206013028301116104eb57565b6100a4565b906102608282031261050a57610507915f016104db565b90565b61009c565b61051890610114565b9052565b919061052f905f6020850194019061050f565b565b346105615761055d61054c6105473660046104f0565b6112f0565b610554610092565b9182918261051c565b0390f35b610098565b60e0818303126105d15761057c825f830161012d565b9261058a836020840161012d565b9261059881604085016103dc565b926105a682606083016103dc565b926105ce6105b784608085016103dc565b936105c58160a086016103dc565b9360c0016103dc565b90565b61009c565b6105df906101ec565b9052565b60409061060c610613949695939661060260608401985f8501906105d6565b60208301906105d6565b01906105d6565b565b3461064f5761064b61063761062b366004610566565b9594909493919361175c565b610642939193610092565b938493846105e3565b0390f35b610098565b9190602060120283011161066457565b6100a4565b909182601f830112156106a35781359167ffffffffffffffff831161069e57602001926020830284011161069957565b6100a4565b6102b3565b6102af565b61028081830312610711576106bf825f8301610654565b9261024082013567ffffffffffffffff811161070c57836106e1918401610669565b92909361026082013567ffffffffffffffff8111610707576107039201610669565b9091565b6100a0565b6100a0565b61009c565b3461074a5761074661073561072c3660046106a8565b9392909261183f565b61073d610092565b9182918261051c565b0390f35b610098565b5f80fd5b634e487b7160e01b5f52603260045260245ffd5b90600c811015610778576020020190565b610753565b90565b61079461078f6107999261077d565b6101e9565b610266565b90565b356107a681610269565b90565b5f90565b90565b6107c46107bf6107c9926107ad565b6101e9565b610266565b90565b90565b6107e36107de6107e8926107cc565b6101e9565b610266565b90565b5f90565b90565b61080661080161080b926107ef565b6101e9565b610266565b90565b90565b61ffff1690565b61082c6108276108319261080e565b6101e9565b610811565b90565b61083f6101c8610818565b90565b61085661085161085b92610811565b6101e9565b610266565b90565b90565b61087561087061087a9261085e565b6101e9565b610266565b90565b90565b61089461088f6108999261087d565b6101e9565b610811565b90565b6108a7610206610880565b90565b5f90565b90565b6108c56108c06108ca926108ae565b6101e9565b610266565b90565b90565b6108e46108df6108e9926108cd565b6101e9565b610266565b90565b5f90565b90565b61090761090261090c926108f0565b6101e9565b610266565b90565b5f90565b90565b61092a61092561092f92610913565b6101e9565b610266565b90565b90565b61094961094461094e92610932565b6101e9565b610266565b90565b90565b61096861096361096d92610951565b6101e9565b610266565b90565b90565b61098761098261098c92610970565b6101e9565b610266565b90565b90565b6109a66109a16109ab9261098f565b6101e9565b610811565b90565b6109b9610760610992565b90565b6109d06109cb6109d59261077d565b6101e9565b61013c565b90565b6109e15f6109bc565b90565b6109ed5f6109bc565b90565b5f90565b6109fd5f610780565b90565b610a0a60016107b0565b90565b610cc390610a34610a2f610a2a83610a245f610780565b90610767565b61079c565b611dd1565b610a3c6107a9565b50610a61610a5c610a5783610a5160016107b0565b90610767565b61079c565b611dd6565b610a696107a9565b50610a8e610a89610a8483610a7e60026107cf565b90610767565b61079c565b611deb565b610a966107eb565b50610acb610ab6610ab183610aab60036107f2565b90610767565b61079c565b610ac6610ac1610834565b610842565b611e00565b610ad36107eb565b50610b08610af3610aee83610ae86004610861565b90610767565b61079c565b610b03610afe61089c565b610842565b611e00565b610b106108aa565b50610b35610b30610b2b83610b2560056108b1565b90610767565b61079c565b611e1a565b610b59610b54610b4f83610b4960066108d0565b90610767565b61079c565b611e2f565b610b616108ec565b50610b86610b81610b7c83610b7660076108f3565b90610767565b61079c565b611e44565b610b8e61090f565b50610bb3610bae610ba983610ba36008610916565b90610767565b61079c565b611e4a565b610bbb61090f565b50610be0610bdb610bd683610bd06009610935565b90610767565b61079c565b611e50565b610be861090f565b50610c78610c08610c0383610bfd600a610954565b90610767565b61079c565b610c73610c13611e56565b610c6d610c4f610c31610c2c610c2761089c565b610842565b611e65565b610c49610c44610c3f61089c565b610842565b611e65565b90611e75565b610c67610c62610c5d610834565b610842565b611e65565b90611e82565b90611e8f565b611eb1565b610cbd610cb8610ca7610c89611e56565b610ca1610c9c610c9761089c565b610842565b611e65565b90611eb4565b92610cb2600b610973565b90610767565b61079c565b90611ed6565b610d57610cd6610cd16109ae565b610842565b610d51610d12610cf4610cef610cea610834565b610842565b611e65565b610d0c610d07610d0261089c565b610842565b611e65565b90611ed9565b610d4b610d2d610d28610d23610834565b610842565b611e65565b610d45610d40610d3b61089c565b610842565b611e65565b90611eff565b90611e82565b90611e00565b610d78610d73610d65611f26565b610d6d6109d8565b90611f36565b611f43565b610db9610db4610d96610d91610d8c61089c565b610842565b611e65565b610dae610da9610da4610834565b610842565b611e65565b90611f4c565b611f59565b610dd9610dd4610dcf610dca611e56565b611f62565b611fad565b612024565b610e0a610e05610e00610dea6109e4565b610dfa610df5611e56565b611f62565b90611e82565b611fad565b61202a565b610e32610e2d610e18612030565b610e206109f0565b5080805f0316900461205f565b612176565b610e3a612297565b600a610e55610e47612779565b610e4f6109f4565b90612789565b610e6e610e60612779565b610e68610a00565b90612789565b906108085fa3565b92610eb6610ed5969593610ea1610ecb94610e9c610ed098610e966107a9565b50611f43565b611f59565b610eb1610eac610834565b610842565b611e00565b610ec6610ec161089c565b610842565b611e00565b611dd6565b611deb565b610edd61279e565b610ee561282c565b90565b634e487b7160e01b5f52601160045260245ffd5b610f0b610f1191939293610266565b92610266565b8201809211610f1c57565b610ee8565b5f90565b60018060a01b031690565b610f44610f3f610f4992610f25565b6101e9565b610f25565b90565b610f5590610f30565b90565b610f6190610f4c565b90565b9350945090611054955061104f9350610fcc90610f8084611dd1565b610f898361283f565b610f916109f0565b50610f9a6109f0565b5060843560240160843560040135818180936106e037610fb984612854565b610fc2896128c4565b016106e05e61283f565b60a43560240160a43560040135818180936106e037610ffd610ff888610ff260016107b0565b90610efc565b6128c4565b016106e05e61100a610f21565b5061104861080861101a81612975565b61103661103161102930610f58565b86899161297b565b6129e4565b9261104030610f58565b90869161297b565b90916129f2565b612a09565b61105c612a1d565b611064612a99565b61106c612aac565b90600181036040026106e061080803016106e0a2565b5f90565b61109060026107cf565b90565b966111156111da976111106111bc9861110b86996111066111e49f999a6111df9f61111f9c6110cc61111a9c6110e09361015053611dd1565b6110d4611082565b50610808908152612abc565b6111016110fc6110ee612779565b6110f6611086565b90612789565b612ac2565b612ad7565b611e44565b611dd6565b611deb565b611e1a565b611e2f565b6111b761113261112d6109ae565b610842565b6111b1611170611151611143612779565b61114b6109f4565b90612789565b61116a61115c612779565b611164610a00565b90612789565b90611ed9565b6111ab61118c61117e612779565b6111866109f4565b90612789565b6111a5611197612779565b61119f610a00565b90612789565b90611eff565b90611e82565b90611e00565b611f62565b6111cd6111c882611fad565b612024565b6111d56109e4565b611e82565b611fad565b61202a565b6111ec612bc0565b600a6108085fa1565b5f90565b90601381101561120a576020020190565b610753565b5f90565b5f90565b90565b61122e61122961123392611217565b6101e9565b610266565b90565b90565b61124d61124861125292611236565b6101e9565b610266565b90565b90565b61126c61126761127192611255565b6101e9565b610266565b90565b90565b61128b61128661129092611274565b6101e9565b610266565b90565b90565b6112aa6112a56112af92611293565b6101e9565b610266565b90565b90565b6112c96112c46112ce926112b2565b6101e9565b610266565b90565b90565b6112e86112e36112ed926112d1565b6101e9565b610266565b90565b61163f61163a611654926113026111f5565b5061132661132161131c836113165f610780565b906111f9565b61079c565b611dd1565b61132e6108aa565b5061135361134e6113498361134360016107b0565b906111f9565b61079c565b611e1a565b61135b6107a9565b5061138061137b6113768361137060026107cf565b906111f9565b61079c565b612ebe565b6113886107a9565b506113ad6113a86113a38361139d60036107f2565b906111f9565b61079c565b612ed3565b6113d16113cc6113c7836113c16004610861565b906111f9565b61079c565b611e2f565b6113d96107a9565b506113fe6113f96113f4836113ee60056108b1565b906111f9565b61079c565b611dd6565b6114066107a9565b5061142b6114266114218361141b60066108d0565b906111f9565b61079c565b611deb565b61143361120f565b5061145861145361144e8361144860076108f3565b906111f9565b61079c565b612ee8565b61146061120f565b5061148561148061147b836114756008610916565b906111f9565b61079c565b612efd565b61148d6108ec565b506114b26114ad6114a8836114a26009610935565b906111f9565b61079c565b612f12565b6114ba6108ec565b506114df6114da6114d5836114cf600a610954565b906111f9565b61079c565b612f18565b6114e7611213565b5061150c611507611502836114fc600b610973565b906111f9565b61079c565b612f1e565b611514611213565b5061153961153461152f83611529600c61121a565b906111f9565b61079c565b612f33565b6115416108ec565b5061156661156161155c83611556600d611239565b906111f9565b61079c565b612f48565b61156e6108ec565b5061159361158e61158983611583600e611258565b906111f9565b61079c565b612f4e565b61159b6108ec565b506115c06115bb6115b6836115b0600f611277565b906111f9565b61079c565b611e44565b6115e46115df6115da836115d46010611296565b906111f9565b61079c565b612f54565b6115ec6107eb565b5061162161160c6116078361160160116112b5565b906111f9565b61079c565b61161c611617610834565b610842565b611e00565b6116296107eb565b5061163460126112d4565b906111f9565b61079c565b61164f61164a61089c565b610842565b611e00565b61165c611082565b5061166f61080860208101604052612abc565b61169061168b61167d611f26565b6116856109d8565b90611f36565b611f43565b6116d16116cc6116ae6116a96116a461089c565b610842565b611e65565b6116c66116c16116bc610834565b610842565b611e65565b90611f4c565b611f59565b6116f16116ec6116e76116e2611e56565b611f62565b611fad565b612024565b61172261171d6117186117026109e4565b61171261170d611e56565b611f62565b90611e82565b611fad565b61202a565b61174a611745611730612030565b6117386109f0565b5080805f0316900461205f565b612176565b611752612f67565b90600a6108085fa1565b9261179f6117ae9796959361179a6117a4946117956117a99861177d6108ec565b506117866108ec565b5061178f6108ec565b50611f43565b611f59565b612f48565b612f4e565b611e44565b6132ab565b6117b6613395565b6117be6133a5565b916117c7611f26565b91929190565b9060128110156117de576020020190565b610753565b5f90565b90565b6117fe6117f9611803926117e7565b6101e9565b61013c565b90565b611813600160d81b6117ea565b90565b61182a61182561182f926107ad565b6101e9565b61013c565b90565b61183c6001611816565b90565b9050611b5d9350611b589250611b5391506118586111f5565b5061187c6118776118728361186c5f610780565b906117cd565b61079c565b611dd1565b6118846108aa565b506118a96118a461189f8361189960016107b0565b906117cd565b61079c565b611e1a565b6118b16107a9565b506118d66118d16118cc836118c660026107cf565b906117cd565b61079c565b612ebe565b6118de6107a9565b506119036118fe6118f9836118f360036107f2565b906117cd565b61079c565b612ed3565b61192761192261191d836119176004610861565b906117cd565b61079c565b611e2f565b61192f6107a9565b5061195461194f61194a8361194460056108b1565b906117cd565b61079c565b611dd6565b61195c61120f565b5061198161197c6119778361197160066108d0565b906117cd565b61079c565b612ee8565b61198961120f565b506119ae6119a96119a48361199e60076108f3565b906117cd565b61079c565b612efd565b6119b66108ec565b506119db6119d66119d1836119cb6008610916565b906117cd565b61079c565b612f12565b6119e36108ec565b50611a08611a036119fe836119f86009610935565b906117cd565b61079c565b612f18565b611a10611213565b50611a35611a30611a2b83611a25600a610954565b906117cd565b61079c565b612f1e565b611a3d611213565b50611a62611a5d611a5883611a52600b610973565b906117cd565b61079c565b612f33565b611a6a6108ec565b50611a8f611a8a611a8583611a7f600c61121a565b906117cd565b61079c565b612f48565b611a976108ec565b50611abc611ab7611ab283611aac600d611239565b906117cd565b61079c565b612f4e565b611ac46108ec565b50611ae9611ae4611adf83611ad9600e611258565b906117cd565b61079c565b611e44565b611af16107eb565b50611b16611b11611b0c83611b06600f611277565b906117cd565b61079c565b6133b5565b611b3a611b35611b3083611b2a6010611296565b906117cd565b61079c565b612f54565b611b426117e3565b50611b4d60116112b5565b906117cd565b61079c565b6133ca565b611b65610f21565b50611b6e611082565b50611b776117e3565b50611bf4611bef610808611bd061024435611bc26001600283600401358060051b8095602401883704019184019361026435806004013560051b809160240187378501604052612975565b611bcb83612abc565b61283f565b611be9611bdb6133df565b611be3610a00565b906133f2565b90612789565b612ac2565b611c15611c10611c02611f26565b611c0a6109d8565b90611f36565b611f43565b611c36611c31611c236133ff565b611c2b613412565b90611f4c565b611f59565b611c56611c51611c4c611c47611e56565b611f62565b611fad565b612024565b611c87611c82611c7d611c676109e4565b611c77611c72611e56565b611f62565b90611e82565b611fad565b61202a565b611caf611caa611c95612030565b611c9d6109f0565b5080805f0316900461205f565b612176565b611d12611cc2611cbd61089c565b610842565b611cca613425565b5f14611d9057611d0b611cec611cde612779565b611ce66109f4565b90612789565b611d05611cf7612779565b611cff610a00565b90612789565b90611eff565b905b611e00565b611d33611d2e611d20611806565b611d28611832565b90613438565b613445565b611d54611d4f611d41611806565b611d49611832565b90613438565b61345a565b611d5c6135e3565b90600a611d89611d6a612779565b611d83611d756133df565b611d7d611086565b906133f2565b90612789565b6108085fa2565b611dcb611dac611d9e612779565b611da66109f4565b90612789565b611dc5611db7612779565b611dbf610a00565b90612789565b90611ed9565b90611d0d565b60d852565b601b61079e015160d81c9060281b1761079e52565b601b6107d9015160d81c9060281b176107d952565b90611e1891611e0e82613d76565b9192909192613e0a565b565b601061068f015160801c9060801b1761068f52565b601061067f015160801c9060801b1761067f52565b61010852565b61024452565b61026452565b611e5e6109f0565b5060d85190565b611e6d6107eb565b505160c01c90565b611e7d6107eb565b500190565b611e8a6107eb565b500390565b90611e986109f0565b50671447e579411c2c936010526008525f5260305f2090565b55565b90611ebd6109f0565b5067d7cb7a927a838d416010526008525f5260305f2090565b55565b611ee16107eb565b50611eed818390611f4c565b5f14611ef857505b90565b9050611ef5565b90611f086107eb565b50611f14828290611f4c565b5f14611f1f57505b90565b9050611f1c565b611f2e6108ec565b506101085190565b611f3e6111f5565b501390565b60ff0261015153565b611f546111f5565b501290565b60ff0261015053565b611f6a6107eb565b5060b41c5f0b6001603b1b0290565b90565b611f90611f8b611f9592611f79565b6101e9565b61013c565b90565b611faa6802d000000000000000611f7c565b90565b611ff0611feb7fcf8e41e6c4d4aa5e9cc597c10cd32eacd30c44f750a8ffdb1a8863dd8f72f0a592611fdd6108ec565b50611fe6611f98565b611e82565b613f1d565b7f872db9e8ffa9e7d41f2aaf39897b91e4002e70fceed391471fad73d51503772d600160bf1b820990600160bf1b02030290565b61072052565b61074052565b6120386107a9565b5061079e5160281c90565b9061204e9102610266565b90565b9061205c9103610266565b90565b6121739061206b6109f0565b5061216d61215161212d6121096120e56120c1612092600361208d89916107f2565b612043565b61209c60026107cf565b186120bb60026120b66120b08b8590612043565b916107cf565b612051565b90612043565b6120df60026120da6120d48a8590612043565b916107cf565b612051565b90612043565b61210360026120fe6120f8898590612043565b916107cf565b612051565b90612043565b612127600261212261211c888590612043565b916107cf565b612051565b90612043565b61214b6002612146612140878590612043565b916107cf565b612051565b90612043565b916121686121626002928590612043565b916107cf565b612051565b90612043565b90565b6107b952565b6121855f6109bc565b90565b61219761219d919392936101ec565b926101ec565b90565b6121b86121b26121be929593956101ec565b946101ec565b926101ec565b90565b6121ca5f610780565b90565b90565b6121e46121df6121e9926121cd565b6101e9565b610266565b90565b6122117b0ba4f53ea38636f85f007042540ae8ef33225e9a7ab4f4473a86d4a86121d0565b90565b90565b61222b61222661223092612214565b6101e9565b61013c565b90565b6122406001606f1b612217565b90565b61225761225261225c92610266565b6101e9565b61013c565b90565b9061226a910161013c565b90565b61228161227c6122869261013c565b6101e9565b610266565b90565b90612294910361013c565b90565b6125866122a2613425565b805f14612730576122ef6122b461217c565b6122ea6122e36122d56122cd6122c861089c565b610842565b6001906141b4565b6122dd612030565b906141cd565b915b612ebe565b612ed3565b6123186123026122fd610834565b610842565b61231261230d61089c565b610842565b9061422b565b805f14612668576123f661235b61233d61233861233361089c565b610842565b611e65565b61235561235061234b6109ae565b610842565b611e65565b90611e82565b61239961237861237161236c61089c565b610842565b5f906141b4565b61239361238b6123866109ae565b610842565b6001906141b4565b90614262565b6123d76123b76123af6123aa61089c565b610842565b6001906141b4565b6123d16123ca6123c56109ae565b610842565b5f906141b4565b90614232565b919091905b916123ed6123e861089c565b610842565b92909192613e0a565b6125276125226124046142c7565b612457612430612412611e56565b61242a61242561242061089c565b610842565b611e65565b90611e8f565b612439816142d7565b9061244c826124466121c1565b906142e4565b6125ff575b50611e50565b6124d661249f612465614357565b612499612470614367565b61249361248361247e610834565b610842565b61248d8b15610114565b906141b4565b906143d7565b9061446a565b6124a881611e4a565b6124d16124b3611e56565b6124cb6124c66124c1610834565b610842565b611e65565b90611e8f565b611eb1565b61251c6124f36124e4612233565b926124ed6142c7565b90614477565b612516612506612501610834565b610842565b6125108815610114565b906141b4565b906144a3565b90614523565b611e1a565b612558612553612535611e56565b61254d612548612543610834565b610842565b611e65565b90611eb4565b61454d565b905f146125d95761257b6125809161257661257161455a565b612243565b612289565b61226d565b5b611e2f565b6125c7612591612779565b6125a96125a461259f610834565b610842565b611e65565b6125c16125bc6125b761089c565b610842565b611e65565b9161456d565b6125cf61458b565b6125d761279e565b565b6125f56125fa916125f06125eb61455a565b612243565b61225f565b61226d565b612581565b905061266261265a61260f6121ec565b61262961262261261d61089c565b610842565b8a906141b4565b612654612634611806565b61264e6126476126426109ae565b610842565b5f906141b4565b90613438565b9161430d565b918290611eb1565b5f612451565b6123f66127296126a761268961268461267f61089c565b610842565b611e65565b6126a161269c6126976109ae565b610842565b611e65565b90611e75565b6126e46126c46126bd6126b861089c565b610842565b5f906141b4565b6126de6126d76126d26109ae565b610842565b5f906141b4565b90614232565b6127236127026126fa6126f561089c565b610842565b6001906141b4565b61271d6127156127106109ae565b610842565b6001906141b4565b90614262565b916121a0565b90916123dc565b6122ef6122ea61277261276461275661274f61274a61089c565b610842565b5f906141b4565b61275e612030565b906141cd565b61276c61217c565b90612188565b91906122e5565b612781611082565b5061060f5190565b906127926107eb565b5060031b015160c01c90565b6127a6614710565b5f146127f2576127f06127ea6127ba614723565b6127e46127cd6127c861089c565b610842565b6127de6127d8613425565b15610114565b906141b4565b906141cd565b5b61345a565b565b6127f0612827612800612030565b61282161281361280e610834565b610842565b61281b613425565b906141b4565b906141cd565b6127eb565b6128346107a9565b5061016d5160281c90565b600261064f015160101c9060f01b1761064f52565b6002610806015160101c9060f01b1761080652565b5f90565b61288161287c6128869261077d565b6101e9565b610f25565b90565b6128929061286d565b90565b61289e90610f25565b90565b156128a857565b5f633011642560e01b8152806128c0600482016100dc565b0390fd5b6128cc611e56565b6128d4612869565b505f526020526129735f80604081206f67363d3d37363d3df03d5260086018f3825260108083f56129208161291961291361290e86612889565b612895565b91612895565b14156128a1565b6106d582600b6001612930612a99565b6129386109f0565b500360061b6106e061080803016129616001820160401b6a61000080600a3d393df30017614736565b6129696111f5565b5001925af16128a1565b565b6105ef52565b9190612985612869565b505f5260205260405f20604051915f5260ff600b536020527ff779edcbdc615c777a4cb2bee1bf733055aa41ff7247837d0cd548565f65d0346040526055600b2060145260405261d6945f5260016034535f1960601c6017601e201690565b60016106e08061080803923c565b916001900360061b916106e061080803600101913c565b61065552565b90612a1a9101610266565b90565b612a97612a3b612a2b612aac565b612a3560016107b0565b90612a0f565b612a4481612a09565b612a92612a58612a5261474b565b9261475e565b612a61816129e4565b612a82612a7d612a6f614788565b612a7761479b565b906147ae565b612ee8565b612a8a6147d5565b9083916129f2565b61283f565b565b612aa16117e3565b5061064f5160f01c90565b612ab46109f0565b506106555190565b61060f52565b6008610677015160401c9060c01b1761067752565b61012852565b612ae76001611816565b90565b90565b612b01612afc612b0692612aea565b6101e9565b61013c565b90565b612b1b68010000000000000000612aed565b90565b90565b612b35612b30612b3a92612b1e565b6101e9565b61013c565b90565b612b4e678000000000000000612b21565b90565b612b5a906101ec565b9052565b916020612b7f929493612b7860408201965f830190612b51565b0190612b51565b565b15612b8a575050565b612ba45f9283926316b77c3360e31b845260048401612b5e565b0390fd5b612bb7612bbd919392936101ec565b926101ec565b90565b612dc6612bd3612bce612779565b6147e5565b612c96612c91612bf1612bec612be76109ae565b610842565b611e65565b612c8b612c0682612c00612add565b90611e75565b612c85612c74612c3c612c21612c1a612b09565b8590611e82565b93612c36612c2f828c611e82565b8890614840565b90611e75565b612c6e612c58612c4a612b3d565b612c5261484d565b90611e75565b612c68612c63611e56565b611f62565b90611e82565b90611ed9565b93612c80838a90611e82565b614840565b90611e82565b90611eff565b6133b5565b612caf612ca16133ff565b612ca9613412565b9061485d565b90612cb86109f0565b506101505160f81c80612cd4612cce60016107b0565b91610266565b1115612e78575b50612ce582611f59565b612d06612d01612cf3611f26565b612cfb6109d8565b9061487c565b611f43565b815f14612e6357612d2990925b92612d24612d1f610834565b610842565b611e00565b5f14612dd857612d6d612d4c612d45612d40610834565b610842565b5f906141b4565b612d67612d5f612d5a6109ae565b610842565b6001906141b4565b90614262565b612dab612d8b612d83612d7e610834565b610842565b6001906141b4565b612da5612d9e612d996109ae565b610842565b5f906141b4565b90614232565b905b612dbd612db861089c565b610842565b92909192613e0a565b612dce61458b565b612dd661279e565b565b612e5d612e18612df8612df1612dec610834565b610842565b5f906141b4565b612e12612e0b612e066109ae565b610842565b5f906141b4565b90614232565b612e57612e36612e2e612e29610834565b610842565b6001906141b4565b612e51612e49612e446109ae565b610842565b6001906141b4565b90614262565b90612188565b90612dad565b612e7090612d2993612ba8565b929092612d13565b612eb890612e8e612e885f610780565b91610266565b11612ea1612e9b85610114565b91610114565b14612eaa613412565b612eb26133ff565b91612b81565b5f612cdb565b601b61069f015160d81c9060281b1761069f52565b601b6106ba015160d81c9060281b176106ba52565b60066107f4015160301c9060d01b176107f452565b6006610800015160301c9060d01b1761080052565b6105a952565b6105c952565b60036105e9015160181c9060e81b176105e952565b60036105ec015160181c9060e81b176105ec52565b61018852565b6101a852565b601060f8015160801c9060801b1760f852565b612f6f6111f5565b90612f7861455a565b612f91612f8b612f8661489b565b610266565b91610266565b1061328c57612fb6612fb1612fac612fa761089c565b610842565b611e65565b612ac2565b612ff7612fc1612779565b612fd9612fd4612fcf61089c565b610842565b611e65565b612ff1612fec612fe7610834565b610842565b611e65565b9161456d565b613010613002614367565b61300a61455a565b906148ad565b6130186108ec565b506130216108ec565b5061302a613425565b5f146132355761308061304961303e6149d9565b836001905f9261496e565b9161307561306761306061305b61089c565b610842565b5f906141b4565b61306f614723565b906141cd565b905f9060019261496e565b905b61308a613425565b5f146131eb576130d56130be6130b06130a96130a461089c565b610842565b5f906141b4565b6130b8612030565b906141cd565b6130d06130c961217c565b915b612ebe565b612ed3565b61310f61310a6130e3614367565b6130fc6130ee614723565b6130f6612030565b90613438565b613104612030565b916149ec565b611e1a565b61311761455a565b6131296131235f610780565b91610266565b146131e357906131459161313b614a29565b613147575b6132ab565b565b61317282613164613156614723565b61315e612030565b90613438565b61316c614723565b91614a74565b61317a613425565b5f146131b2576131a76131a06131ac92613192614c3d565b61319a614c4d565b91614b5e565b9190612f12565b612f1e565b5b613140565b6131d96131d26131de926131c4614ace565b6131cc614ade565b91614b5e565b9190612f18565b612f33565b6131ad565b505090505f90565b6130d56130d061322e6131fc61217c565b61322861321a61321261320d61089c565b610842565b6001906141b4565b613222612030565b906141cd565b90612188565b91906130cb565b61328661324d6132436148ba565b835f905f9261496e565b9161327a61326c61326461325f61089c565b610842565b6001906141b4565b613274614723565b906141cd565b9060019060019261496e565b90613082565b9050600190565b6132a26132a8919392936101ec565b926101ec565b90565b9061333b916132b8613425565b5f14613366576133036132fe836132f16132ec6132dd6132d66109d8565b8790614c60565b925b6132e7613395565b614cb7565b612f48565b6132f96133a5565b614cb7565b612f4e565b61330b614710565b5f1461333d57506133359061332f6133216109d8565b9161332a611f26565b614c60565b90614d40565b5b611e44565b565b613361915061335b61334d6109d8565b91613356611f26565b614d0c565b90614d19565b613336565b6133036132fe6132ec6132f161338e6133876133806109d8565b8790614c60565b8790613293565b92906132df565b61339d6108ec565b506101885190565b6133ad6108ec565b506101a85190565b6008610148015160401c9060c01b1761014852565b6002610651015160101c9060f01b1761065152565b6133e76117e3565b506106515160f01c90565b6133fa6117e3565b500390565b6134076107eb565b506101485160c01c90565b61341a6107eb565b506106775160c01c90565b61342d6111f5565b506101505160ff1c90565b6134406107a9565b500390565b601b610152015160d81c9060281b1761015252565b601b61016d015160d81c9060281b1761016d52565b90565b61348661348161348b9261346f565b6101e9565b610811565b90565b61349961038b613472565b90565b90565b6134b36134ae6134b89261349c565b6101e9565b610811565b90565b6134c661052261349f565b90565b90565b6134e06134db6134e5926134c9565b6101e9565b610811565b90565b6134f36103c96134cc565b90565b90565b61350d613508613512926134f6565b6101e9565b610811565b90565b6135206105586134f9565b90565b90565b61353a61353561353f92613523565b6101e9565b610811565b90565b61354d6104c9613526565b90565b90565b61356761356261356c92613550565b6101e9565b610811565b90565b61357a610507613553565b90565b90565b61359461358f6135999261357d565b6101e9565b610811565b90565b6135a7610449613580565b90565b6135b35f610780565b90565b90565b6135cd6135c86135d2926135b6565b6101e9565b610811565b90565b6135e06102936135b9565b90565b6135eb6111f5565b6135f361455a565b61360c61360661360161489b565b610266565b91610266565b10613ce257613619614e1a565b613621614fbb565b905b61364561363e61363961363461348e565b610842565b611e65565b8390614fce565b15613cdb5750613653615047565b90816136655761364590919050613623565b505b61366f613425565b6136b961368261367d6134bb565b610842565b6136b361369d6136986136936134bb565b610842565b61543f565b845f14613ccd576136ac6149d9565b905b61544f565b90615476565b6136e26136cc6136c76134e8565b610842565b6136dc6136d761348e565b610842565b9061422b565b6137136136f56136f0613515565b610842565b61370d6137086137036134bb565b610842565b61543f565b90615476565b61373c613726613721613542565b610842565b61373661373161348e565b610842565b9061422b565b613755613747614367565b61374f61455a565b906148ad565b61375d6107a9565b506137666107a9565b5061376f6108ec565b506137786108ec565b5061379161378c6137876134bb565b610842565b61543f565b6137a96137a461379f61356f565b610842565b61543f565b90835f14613c91576137c3826137bd6148ba565b90615486565b926137fe6137e96137dc6137d56149d9565b8590613438565b5b95938388905f9261496e565b93826137f58815610114565b9060019261496e565b9382938161380a611806565b97613813611806565b61384c61382e61382961382461348e565b610842565b611e65565b61384661384161383c61089c565b610842565b611e65565b90615493565b5f14613a7b575061395b98505f14613a095750916138b5613884613956959361387e6139519691856001905f9261496e565b90614cb7565b956138b06138a261389b61389661089c565b610842565b5f906141b4565b6138aa612030565b906141cd565b61544f565b6138bd61217c565b6138c561217c565b8483945b5b6138d385612ebe565b6138dc84612ed3565b6138fc6138f76138f26138ed61348e565b610842565b611e65565b612ac2565b613925613907612779565b61391f61391a61391561348e565b610842565b611e65565b90615e23565b61392d614a29565b61397a575b505050505061394a613942614367565b928290613438565b90916149ec565b611e1a565b6132ab565b6139658115610114565b61396d575b90565b6139756161a0565b61396a565b6139d26139fa946139f3946139cd6139c86139c16139ab6139a16139ff9c6139dd9a613438565b885f905f9261496e565b6139b3614c3d565b6139bb614c4d565b91614b5e565b9190612f12565b612f1e565b613438565b906001905f9261496e565b6139e5614ace565b6139ed614ade565b91614b5e565b9190612f18565b612f33565b5f80808080613932565b945091613a60613a2e61395695613a286139519691855f905f9261496e565b90614cb7565b95613a5b613a4d613a45613a4061089c565b610842565b6001906141b4565b613a55612030565b906141cd565b61544f565b613a6861217c565b90613a7161217c565b93809482946138c9565b95919392969490613aab613a9d613a98613a9361359c565b610842565b6154a4565b613aa56135aa565b906154b8565b80613c52575b613acc575b50926139569592613951959261395b9a956138ca565b939850969450925b613adf818990615531565b613ad45761395b97613af091615a9c565b919092613b1c613afe612779565b613b16613b11613b0c6134e8565b610842565b611e65565b90615e23565b613b246111f5565b50613b33858584908692615fd8565b9791969096975f14613bc257613b63613b59613b51888b8b91616120565b928390613438565b8b5f905f9261496e565b90925f14613ba45791613b9361395698969492613b8d613951999795613b876109d8565b92614c60565b90614d40565b995b5b92959a509295509295613ab6565b91613bbc613951979593613956999795939b9a614cb7565b98613b95565b9192909897613bfd613bf2613be4613bdc888c8c91616120565b948590613438565b613bec61217c565b9061617a565b8a6001905f9261496e565b91935f14613c225791613c1b61395698969492613951989694614cb7565b985b613b96565b979891613c4c613951979593613c466139569a989694613c406109d8565b92614c60565b90614d40565b99613c1d565b50613c8c613c6e613c69613c6461348e565b610842565b611e65565b613c86613c81613c7c6135d5565b610842565b611e65565b90614fce565b613ab1565b6137e9926137fe613cc5613cad613ca66148ba565b8590613438565b613cbf86613cb96149d9565b90615486565b90612188565b9590956137dd565b613cd56148ba565b906136ae565b9050613667565b50600190565b90565b613cff613cfa613d0492613ce8565b6101e9565b610266565b90565b90565b613d1e613d19613d2392613d07565b6101e9565b610266565b90565b90565b60ff1690565b613d43613d3e613d4892613d26565b6101e9565b613d29565b90565b1c90565b613d6e90613d68613d62613d7394613d29565b91610266565b90613d4b565b610266565b90565b613d9190613d826107a9565b50613d8b6107a9565b5061628f565b613e07613e02613dfd613dec613de7613de27ff1aaddd7742e56d32fb9f997447d9e6314db84884fabab26bf059af9bc20b609600160c11b613ddc613dd68a93613ceb565b91613d0a565b9061650c565b612243565b6101ec565b93613df76028613d2f565b90613d4f565b612243565b6101ec565b91565b6018906020810393845195601e8301526003820152035252565b90565b613e3b613e36613e4092613e24565b6101e9565b613d29565b90565b1b90565b613e6690613e60613e5a613e6b94613d29565b91610266565b90613e43565b610266565b90565b634e487b7160e01b5f52601260045260245ffd5b613e8e613e9491610266565b91610266565b908115613e9f570490565b613e6e565b90565b613ebb613eb6613ec092613ea4565b6101e9565b610266565b90565b90565b613eda613ed5613edf92613ec3565b6101e9565b613d29565b90565b90565b613ef9613ef4613efe92613ee2565b6101e9565b610266565b90565b613f15613f10613f1a926107cc565b6101e9565b613d29565b90565b613fc1613f3d613f38613fd193613f326109f0565b506101ec565b61226d565b613f98613f87613f74613f64613f54858690612043565b613f5e6025613e27565b90613e47565b613f6e60036107f2565b90613e82565b613f81600160ff1b613ea7565b90612a0f565b91613f926092613ec6565b90613e47565b613fbb613fb5613fa9848490612051565b92600160fe1b94612a0f565b92613ee5565b9061650c565b613fcb6002613f01565b90613e47565b808002905f1990800903808002905f1990800903808002905f1990800903808002905f1990800903808002905f1990800903808002905f1990800903808002905f1990800903808002905f1990800903808002905f1990800903808002905f1990800903808002905f1990800903808002905f1990800903808002905f1990800903808002905f1990800903808002905f1990800903808002905f1990800903808002905f1990800903808002905f1990800903808002905f1990800903808002905f1990800903808002905f1990800903808002905f1990800903808002905f1990800903808002905f1990800903808002905f1990800903808002905f1990800903808002905f1990800903808002905f1990800903808002905f1990800903808002905f1990800903808002905f1990800903808002905f1990800903808002905f1990800903808002905f1990800903808002905f1990800903808002905f1990800903808002905f1990800903808002905f1990800903808002905f1990800903808002905f1990800903808002905f1990800903808002905f1990800903808002905f1990800903808002905f1990800903808002905f1990800903808002905f1990800903808002905f1990800903808002905f199080090390565b906141bd6107a9565b5015601b02602303015160281c90565b9064f8f6376c447f28256938c4923ff15ab260970aa81f81c15e6f5ef3af38dc210569e77db19359926141fe6107a9565b5002907e1561650620dabb6a84b684e2a7e5a47caa0a0905210083f0e3b551aabf84e98183099102030290565b90603e915e565b9061423b6107a9565b5060018060d81b0391600160d81b82820960018060d81b03039160018060d81b0391090890565b90632ec3a85664027d117d7b7f7f6af8233bada11dd406b4458454ed9904d7af796be7aa4885b23e25b6985d49936142986107a9565b500291027fdbb82f7041b890fe67970a62a3568cc34df9dcb17cc3a2a6a027850e7e3724f98183099102030290565b6142cf61090f565b506102645190565b6142df61090f565b505490565b6142ec6111f5565b501490565b61430561430061430a92610266565b6101e9565b610266565b90565b906143549261434961434461433e61433961433361434f9761432d61090f565b506142f1565b956101ec565b61226d565b926101ec565b61226d565b91616529565b6142f1565b90565b61435f61090f565b506102445190565b61436f6108aa565b5061068f5160801c90565b90565b61439161438c6143969261437a565b6101e9565b613d29565b90565b90565b6143b06143ab6143b592614399565b6101e9565b613d29565b90565b90565b6143cf6143ca6143d4926143b8565b6101e9565b610266565b90565b61445f90614467926143e761090f565b5061445a61445461444461443f6144396144296144247fba4f53ea38636f85f007042540ae8ef33225e9a7ab4f4473a86d4a8fdd1a5b82986101ec565b61226d565b614433606e61437d565b90613e47565b946101ec565b61226d565b61444e602761439c565b90613e47565b926143bb565b6165ba565b9150506142f1565b90565b61447261090f565b500190565b61447f61090f565b500390565b90565b61449b6144966144a092614484565b6101e9565b613d29565b90565b61451661450361451b92614520946144b96108aa565b506144fe6144f86144f36144ed7fba4f53ea38636f85f007042540ae8ef33225e9a7ab4f4473a86d4a8fdd1a5b82956142f1565b936101ec565b61226d565b926143bb565b6165ba565b915050614510602d614487565b90613d4f565b612243565b6101ec565b90565b61452b6108aa565b5061453781839061660f565b5f1461454257505b90565b905061453f565b5f90565b614555614549565b505490565b6145626109f0565b5061067f5160801c90565b919060801b9060c01b179052614589614584611086565b6133ca565b565b614593614710565b5f146146525761463d61463861463361462d6145bd6145b86145b3612030565b6101ec565b61226d565b6145c5613425565b5f1461463f576145e46145df6145d961661c565b5b6101ec565b61226d565b6145fc6145f76145f2611f26565b6101ec565b61226d565b61462561462061461b61460d614367565b61461561455a565b906148ad565b6101ec565b61226d565b915f93616702565b5b612243565b6101ec565b613445565b565b6145e46145df61464d61662c565b6145da565b61463d6146386146336146f861467661467161466c612030565b6101ec565b61226d565b61467e613425565b5f146146fd5761469d61469861469261662c565b5b6101ec565b61226d565b6146c66146c16146bc6146ae6109d8565b6146b6611f26565b90614c60565b6101ec565b61226d565b6146ef6146ea6146e56146d7614367565b6146df61455a565b906148ad565b6101ec565b61226d565b91600193616702565b61462e565b61469d61469861470b61661c565b614693565b6147186111f5565b506101515160ff1c90565b61472b6107a9565b506107d95160281c90565b600b6106d5015160581c9060a81b176106d552565b6147536117e3565b506108065160f01c90565b6147859061476a612869565b50614773612869565b50309061477e611e56565b909161297b565b90565b61479061120f565b506107f45160d01c90565b6147a361120f565b506107fa5160d01c90565b906147b761120f565b506147c38282906168d7565b5f146147ce57505b90565b90506147cb565b6147dd610f21565b506105ef5190565b6147ed6107eb565b506147f66107eb565b5061481b61480c826148066109f4565b90612789565b91614815610a00565b90612789565b61482681839061485d565b5f1461483257905b9091565b61483b91612ba8565b61482e565b6148486107eb565b500690565b6148556107eb565b506101285190565b614879916148739161486d6111f5565b506168e4565b15610114565b90565b614898916148929161488c6111f5565b506168f1565b15610114565b90565b6148a36109f0565b5060f85160801c90565b6148b56108aa565b500290565b6148c26107a9565b5061069f5160281c90565b6148d6906101ec565b9052565b6148e390610266565b9052565b909594926149329461492161492b9261491760809661490d60a088019c5f8901906105d6565b6020870190610208565b60408501906148cd565b6060830190610208565b01906148da565b565b94929093919415614946575050505050565b9061496a9291614954610092565b95869563059cafa160e51b8752600487016148e7565b0390fd5b6149c992916149986149a196956149836108ec565b5061498c6111f5565b5083908386919261690a565b96909615610114565b925f146149cb576149b061661c565b915b6149ba612030565b926149c3616a4c565b94614934565b565b6149d361662c565b916149b2565b6149e16107a9565b506106ba5160281c90565b91614a14614a0f614a09614a1a95614a026108aa565b50946101ec565b926101ec565b61226d565b91616acd565b90565b614a265f610780565b90565b614a316111f5565b50614a4b614a3d614788565b614a45614a1d565b90616b89565b8015614a55575b90565b50614a6f614a61616b96565b614a69614a1d565b90616b89565b614a52565b614ac691614acb93614abb614ab6614ab0614aab614aa5614aa0614ac198614a9a6108ec565b506101ec565b61226d565b956101ec565b61226d565b926101ec565b61226d565b91616529565b612243565b6101ec565b90565b614ad66108ec565b506105c95190565b614ae6611213565b506105ec5160e81c90565b9190614b04905f602085019401906105d6565b565b15614b0e5750565b614b29905f918291631718db0760e31b835260048301614af1565b0390fd5b90565b614b44614b3f614b4992614b2d565b6101e9565b61013c565b90565b614b5b60018060e71b03614b30565b90565b929092614b696108ec565b50614b72611213565b92614b7b616b96565b91614b84614788565b614b8c6108ec565b50836001602f1b03025f19600160a21b5f196001605e1b8486095f19035f19858709080993602f1b015f1991600160a21b915f19916001605e1b8282095f1903915f19910908098501948592614bed614be685849061487c565b8590614b06565b614c09614c0285614bfc614b4c565b90616ba9565b8590614b06565b614c1b84614c156109d8565b90611f36565b614c26575b50505050565b90919293945060171b9102010490825f8080614c20565b614c456108ec565b506105a95190565b614c55611213565b506105e95160e81c90565b614c686108ec565b500390565b916020614c8e929493614c8760408201965f8301906105d6565b01906105d6565b565b15614c99575050565b614cb35f928392639389559160e01b845260048401614c6d565b0390fd5b614d0a90929192614cc66108ec565b50614cd2818590614d0c565b93614ce581614cdf6109d8565b9061487c565b614d01614cfb614cf688869061487c565b610114565b91610114565b14919091614c90565b565b614d146108ec565b500190565b90614d226108ec565b50614d2e8282906168f1565b5f14614d3957505b90565b9050614d36565b614d486108ec565b50614d548183906168f1565b5f14614d5f57505b90565b9050614d5c565b90565b614d7d614d78614d8292614d66565b6101e9565b610811565b90565b614d906102d1614d69565b90565b90565b614daa614da5614daf92614d93565b6101e9565b610811565b90565b614dbd61030f614d96565b90565b90565b614dd7614dd2614ddc92614dc0565b6101e9565b610811565b90565b614dea61034d614dc3565b90565b90565b614e04614dff614e0992614ded565b6101e9565b610811565b90565b614e17610409614df0565b90565b614ec3614e25612779565b614e51614e4c614e47614e37846147e5565b9190614e416133ff565b90611ed9565b611eff565b616bc8565b614eae614ea9614e70614e626133df565b614e6a610a00565b906133f2565b92614e7a84616bdd565b614ea3614e88828690612789565b94614e9d869391614e97610a00565b906133f2565b90612789565b90611f4c565b616bf2565b614ebe614eb96135d5565b610842565b611e00565b614eec614ed6614ed1614d85565b610842565b614ee6614ee16135d5565b610842565b9061422b565b614f15614eff614efa614db2565b610842565b614f0f614f0a6135d5565b610842565b9061422b565b614f3e614f28614f23614ddf565b610842565b614f38614f336135d5565b610842565b9061422b565b614f67614f51614f4c61348e565b610842565b614f61614f5c6135d5565b610842565b9061422b565b614f90614f7a614f75614e0c565b610842565b614f8a614f856135d5565b610842565b9061422b565b614fb9614fa3614f9e61359c565b610842565b614fb3614fae6135d5565b610842565b9061422b565b565b614fc36107eb565b5061028b5160c01c90565b614fea91614fe491614fde6111f5565b50615493565b15610114565b90565b90565b615004614fff61500992614fed565b6101e9565b610811565b90565b61501761058e614ff0565b90565b90565b61503161502c6150369261501a565b6101e9565b610811565b90565b61504461053d61501d565b90565b61504f6111f5565b9061508961506b61506661506161348e565b610842565b611e65565b61508361507e61507961359c565b610842565b611e65565b90615493565b615432575b615096616ca9565b6150cf6150b16150ac6150a761348e565b610842565b611e65565b6150c96150c46150bf614ddf565b610842565b611e65565b90615493565b6153c5575b8061511f6151196151146150f66150f16150ec614db2565b610842565b611e65565b61510e615109615104614e0c565b610842565b611e65565b90611f4c565b610114565b91610114565b03615397575b6151a161513861513361348e565b610842565b8261518361517d61517861515a615155615150614ddf565b610842565b611e65565b61517261516d61516861359c565b610842565b611e65565b9061485d565b610114565b91610114565b145f146153875761519b61519561359c565b5b610842565b9061422b565b6151a96107a9565b50806151c46151be6151b9613425565b610114565b91610114565b145f14615329576152ba92506151d8614fbb565b9061520c615206615201846151fb6151f66151f161348e565b610842565b611e65565b90611f4c565b610114565b91610114565b0361530a575b5061521b6107a9565b50615224614710565b5f146152bc576152326179aa565b9290926152a461527361524b615246614e0c565b610842565b615253614db2565b61526d61526761526161348e565b92610842565b91610842565b91616f1f565b915b61528f6152886152836134bb565b610842565b8490617171565b61529f61529a61356f565b610842565b617171565b5b6152b56152b061500c565b610842565b617171565b565b6152c461719f565b9290926152a46153056152dd6152d8614e0c565b610842565b6152e5614db2565b6152ff6152f96152f361348e565b92610842565b91610842565b9161772e565b615275565b6153239061531e61531961348e565b610842565b611e00565b5f615212565b506152ba61536861534061533b614e0c565b610842565b615348614db2565b61536261535c61535661348e565b92610842565b91610842565b91616f1f565b61538261537b615376615039565b610842565b8290617171565b6152a5565b61519b615392614ddf565b615196565b6153c06153aa6153a5614db2565b610842565b6153ba6153b5614e0c565b610842565b9061422b565b615125565b6154259061541f6153dc6153d761500c565b610842565b916153f56153f06153eb61500c565b610842565b61543f565b6153fd61348e565b9161541961541361540c614d85565b9294610842565b91610842565b91616cbc565b90615476565b61542d616d7e565b6150d4565b61543a616c28565b61508e565b6154476107a9565b505160281c90565b906154586107a9565b50615464828290617f9b565b5f1461546f57505b90565b905061546c565b9060208203906005825193035252565b61548e6107a9565b500190565b61549b6111f5565b501490565b5f90565b6002906154af6154a0565b50035160f01c90565b6154d4916154ce916154c86111f5565b50617fa8565b15610114565b90565b90565b6154ee6154e96154f3926154d7565b6101e9565b610811565b90565b6155016104896154da565b90565b90565b61551b61551661552092615504565b6101e9565b610811565b90565b61552e610573615507565b90565b9061553a6111f5565b5061557461555661555161554c6134e8565b610842565b611e65565b61556e615569615564613542565b610842565b611e65565b90615493565b615a8f575b6155b261559461558f61558a6134e8565b610842565b611e65565b6155ac6155a76155a261359c565b610842565b611e65565b90615493565b615a82575b6155bf616ca9565b906155f96155db6155d66155d16134e8565b610842565b611e65565b6155f36155ee6155e9614ddf565b610842565b611e65565b90615493565b615a13575b8161564961564361563e61562061561b615616614db2565b610842565b611e65565b61563861563361562e614e0c565b610842565b611e65565b90611f4c565b610114565b91610114565b036159e5575b6156cb61566261565d6134e8565b610842565b836156ad6156a76156a261568461567f61567a614ddf565b610842565b611e65565b61569c61569761569261359c565b610842565b611e65565b90611f4c565b610114565b91610114565b145f146159d5576156c56156bf61359c565b5b610842565b9061422b565b816156e56156df6156da613425565b610114565b91610114565b146158d2575b6157266156fe6156f9614e0c565b610842565b615706614db2565b61572061571a6157146134e8565b92610842565b91610842565b91616f1f565b9161574061573a615735613425565b610114565b91610114565b145f14615898576157dd6157eb9161578961576161575c6154f6565b610842565b615769614db2565b61578361577d6157776134e8565b92610842565b91610842565b91616f1f565b946157a461579d615798613515565b610842565b8690617171565b6157be6157b76157b2615523565b610842565b8790617171565b6157d86157d16157cc61500c565b610842565b8690617171565b618063565b6157e561217c565b906181ee565b6157f75750505b600190565b61585661586b9261582761581161580c614ddf565b610842565b61582161581c6134e8565b610842565b9061422b565b61584161583a615835613515565b610842565b84906181fb565b61585161584c615523565b610842565b6181fb565b61586661586161500c565b610842565b6181fb565b61589461587e6158796134e8565b610842565b61588e615889614db2565b610842565b9061422b565b5f90565b506158cd91506158b86158b16158ac615039565b610842565b8290617171565b6158c86158c361500c565b610842565b617171565b6157f2565b8161591d6159176159126158f46158ef6158ea614db2565b610842565b611e65565b61590c6159076159026154f6565b610842565b611e65565b90611f4c565b610114565b91610114565b036159a7575b8161596e61596861596361594561594061593b6134e8565b610842565b611e65565b61595d615958615953613542565b610842565b611e65565b90611f4c565b610114565b91610114565b14615979575b6156eb565b6159a261598c6159876134e8565b610842565b61599c615997613542565b610842565b9061422b565b615974565b6159d06159ba6159b5614db2565b610842565b6159ca6159c56154f6565b610842565b9061422b565b615923565b6156c56159e0614ddf565b6156c0565b615a0e6159f86159f3614db2565b610842565b615a08615a03614e0c565b610842565b9061422b565b61564f565b90615a7490615a6e615a2b615a2661500c565b610842565b91615a44615a3f615a3a61500c565b610842565b61543f565b615a4c6134e8565b91615a68615a62615a5b614d85565b9294610842565b91610842565b91616cbc565b90615476565b615a7c616d7e565b906155fe565b615a8a616c28565b6155b7565b615a97617fe2565b615579565b919091615aa76107a9565b91615ab06107a9565b615ab8613425565b93615ac16107eb565b50615aca6111f5565b5b600115615dc057505050615ae082859061824a565b929091615af581615aef6109e4565b90615493565b615bef57615b8090615b0d615b086134e8565b610842565b90885f14615b8557615b5b615b7991615b55615b37615b32615b2d614ddf565b610842565b611e65565b91615b50615b4b615b466134e8565b610842565b611e65565b611e75565b90611ed9565b615b73615b6e615b69614db2565b610842565b611e65565b90611eff565b905b611e00565b615acb565b615bcb615be991615bc5615ba7615ba2615b9d614db2565b610842565b611e65565b91615bc0615bbb615bb66134e8565b610842565b611e65565b611e75565b90611ed9565b615be3615bde615bd9614ddf565b610842565b611e65565b90611eff565b90615b7b565b5094615cbb9493955b615c17615c06868690614232565b615c118a8690614232565b9061617a565b91615c51615c33615c2e615c296134e8565b610842565b611e65565b615c4b615c46615c41614ddf565b610842565b611e65565b90614fce565b80615da6575b91615c91615c73615c6e615c696134e8565b610842565b611e65565b615c8b615c86615c81614db2565b610842565b611e65565b90614fce565b9081615d8a575b5082908115615d82575b50615cbe575b505050615cb5919261544f565b9361544f565b90565b615d0c90615d06615d00615d3e979495969495615cfa615ce4615cdf614ddf565b610842565b615cf4615cef6134e8565b610842565b9061422b565b92610114565b91610114565b146186db565b615d178589906187f9565b949093615d39615d28888890614232565b615d338c8890614232565b9061617a565b618a5c565b615d49575b80615ca8565b909150615cb59250615d7a615d64615d5f6134e8565b610842565b615d74615d6f614ddf565b610842565b9061422b565b90915f615d43565b90505f615ca2565b9050615d9e615d9883610114565b91610114565b14155f615c98565b5081615dba615db483610114565b91610114565b14615c57565b94615cbb949395615bf8565b615dd761ffff610842565b90565b615de3906142f1565b9052565b9190615dfa905f60208501940190615dda565b565b15615e045750565b615e1f905f91829163855b486b60e01b835260048301615de7565b0390fd5b615e3581615e2f6109f4565b90612789565b91615e4882615e42610a00565b90612789565b92615e5e82615e58838790611eff565b9061485d565b615f8957615e77615e70828690611ed9565b839061485d565b615f6757615e836133df565b90615e8c610a00565b905b600115615f5557615ea0908690611f4c565b5f14615f4557615eb1838690611f4c565b5b5f14615f3457615eca90615ec4610a00565b90618a7b565b615ed5818390618a88565b5f14615eec57615ee6848290612789565b94615e8e565b91615f329450615f2d9391505b60c01b908260031b0152615f1f615f1882615f12615dcc565b90618a88565b8290615dfc565b615f27610a00565b90618a7b565b6133ca565b565b91615f329450615f2d939150615ef9565b615f50858490611f4c565b615eb2565b5091615f329450615f2d939150615ef9565b9050615f81615f8793615f7b838290611ed9565b92611eff565b9161456d565b565b9050615fa3615fa993615f9d838290611eff565b92611ed9565b9161456d565b565b615fb490610114565b90565b615fcf615fc9615fd5929593956101ec565b946101ec565b92615fab565b90565b91929092615fe46107a9565b50615fed6107a9565b50615ff66111f5565b506160098361600361217c565b90618a95565b6160fb575b61603961602261601d856101ec565b61226d565b61603361602e856101ec565b61226d565b90618aa2565b9061606561604e616049856101ec565b61226d565b61605f61605a896101ec565b61226d565b90618aa2565b919091928361607c61607683610266565b91610266565b119384156160b1575b505050505f1461609b5750505f9091905b909192565b9091506160ac925090600191615fb7565b616096565b6160c991929394506160c39092610266565b91610266565b1491826160dc575b50505f808080616085565b6160f29192506160ec9092610266565b91610266565b10155f806160d1565b61610d8461610761217c565b90618a95565b1561600e57915091509091600191929190565b616172916161779361616761616261615c61615761615161614c61616d986161466107a9565b506101ec565b61226d565b956101ec565b61226d565b926101ec565b61226d565b91616529565b612243565b6101ec565b90565b6161826107a9565b5061618e818390617f9b565b5f1461619957505b90565b9050616196565b6102846105a9036102846105a9035f0361028439565b90565b6161cd6161c86161d2926161b6565b6101e9565b610266565b90565b90565b6161ec6161e76161f1926161d5565b6101e9565b610266565b90565b90565b61620b616206616210926161f4565b6101e9565b610266565b90565b90565b61622a61622561622f92616213565b6101e9565b610266565b90565b90565b61624961624461624e92616232565b6101e9565b613d29565b90565b90565b61626861626361626d92616251565b6101e9565b610266565b90565b90565b61628761628261628c92616270565b6101e9565b610266565b90565b61646d6162af6162aa61647d936162a46109f0565b506101ec565b61226d565b6162ba818290612043565b9061642b6164186162cc848590612043565b6162d46109f0565b506164126163f75f19600160801b600160801b858a095f19868b090309926162fa6109f0565b506163f16163da6163ca6163b96163a68c6163a061638a6163676163476163378b80025f198d80090395616331600760681b6161b9565b90612043565b616341600f611277565b90613e82565b6163618b61635b6609c000000000006161d8565b90613e82565b90612a0f565b6163848d61637e69c91800000000000000006161f7565b90613e82565b90612a0f565b9161639a621eee11605a1b616216565b90613e82565b90612a0f565b6163b3600160fe1b613ee5565b90612a0f565b9a6163c4606a616235565b90613e47565b6163d4600f611277565b90613e82565b916163eb6624900000000000616254565b90613e82565b90612a0f565b9161640c6a06df920000000000000000616273565b90613e82565b90612a0f565b616425600160ff1b613ea7565b90612a0f565b905f1991600160b41b916001604c1b828209915f1991090309616467616461616455848490612051565b92600160fe1b94612a0f565b92613ee5565b9061650c565b6164776002613f01565b90613e47565b808002905f1990800903808002905f1990800903808002905f1990800903808002905f1990800903808002905f1990800903808002905f1990800903808002905f1990800903808002905f1990800903808002905f1990800903808002905f1990800903808002905f1990800903808002905f1990800903808002905f1990800903808002905f199080090390565b90916165166109f0565b5060018103928391818409820392090890565b6165316109f0565b5061653d818390618aa2565b929092918261655461654e5f610780565b91610266565b146165b3576165aa92856165b096936165a39361656f6109f0565b5009908582119003940393600161658f5f61658a8691610780565b612051565b841680809504960493805f03040190612043565b179161205f565b90612043565b90565b5050500490565b6165ef6165f99492616601926165ce6109f0565b506165d76109f0565b506165e06109f0565b506165e96109f0565b50618aa2565b9490948490618aa2565b939094618aa2565b929092809394019283100190565b6166176111f5565b501290565b6166246108ec565b506107205190565b6166346108ec565b506107405190565b90565b61665361664e6166589261663c565b6101e9565b610266565b90565b90565b61667261666d6166779261665b565b6101e9565b610266565b90565b90565b61669161668c6166969261667a565b6101e9565b613d29565b90565b90565b6166b06166ab6166b592616699565b6101e9565b613d29565b90565b90565b6166cf6166ca6166d4926166b8565b6101e9565b610266565b90565b60016166e39101610266565b90565b6166fa6166f56166ff926117e7565b6101e9565b610266565b90565b9161671b929594956167126109f0565b509190916165ba565b8061673261672c600160671b61663f565b91610266565b10156168bf5761674f61677591616749607161667d565b90613e47565b6167638361675d608f61669c565b90613d4f565b179161676f607161667d565b90613e47565b61678983616783608f61669c565b90613d4f565b1790926167946109f0565b5080805f198609818685080880948184109003920390826167bd6167b783610266565b91610266565b10156168a6576167fc92916167f7916167df5f6167da8391610780565b612051565b811680910493600182805f030401029104179161205f565b612043565b93616837575b50508161681b616815600160d81b6166e6565b91610266565b101561682357565b905061683460018060d81b0361665e565b90565b616852717fffffffffffffffffffffffffffffffffff6166bb565b1661686561685f5f610780565b91610266565b1190811561688b575b5061687b575b5f80616802565b90616885906166d7565b90616874565b905061689f6168995f610780565b91610266565b115f61686e565b505050505090506168bc60018060d81b0361665e565b90565b5050505090506168d460018060d81b0361665e565b90565b6168df6111f5565b501090565b6168ec6111f5565b501390565b6168f96111f5565b501290565b6169075f6109bc565b90565b6169ec6169f8916169f395616a0794956169226108ec565b5061692b6111f5565b506169346109f0565b505f14616a335761696561696061695a61695561694f61661c565b5b6101ec565b61226d565b936101ec565b61226d565b616977876169716168fe565b9061660f565b5f14616a27576169a061699b61699561698e6168fe565b8a90618ac8565b5b6101ec565b61226d565b6169b86169b36169ae612030565b6101ec565b61226d565b916169c1616a4c565b936169e56169df6169da8c6169d46168fe565b90618ad5565b610114565b91610114565b1494618b6d565b9490612243565b6101ec565b91616a016168fe565b9061660f565b5f14616a2257616a1e90616a196109d8565b614c60565b5b91565b616a1f565b6169a061699b88616996565b61696561696061695a616955616a4761662c565b616950565b616a546109f0565b506107b95190565b15616a6357565b5f636dd3b1dd60e11b815280616a7b600482016100dc565b0390fd5b90565b616a96616a91616a9b92616a7f565b6101e9565b613d29565b90565b90565b616ab5616ab0616aba92616a9e565b6101e9565b61013c565b90565b616aca6001607f1b616aa1565b90565b90616b61616b5c616b4c616b6c95616af0616b6695616aea6108aa565b5061226d565b90616af9616b96565b87616b02614788565b91616b0b6109f0565b500288602f1b0380910290602f1b0396616b43616b29898590618aa2565b9050616b3d616b3785610266565b91610266565b10616a5c565b96919091616529565b616b56605e616a82565b90613d4f565b612243565b6101ec565b90618d43565b90616b87616b8283616b7c616abd565b90618d50565b616a5c565b565b616b916111f5565b501190565b616b9e61120f565b506108005160d01c90565b616bc591616bbf91616bb96111f5565b50611f36565b15610114565b90565b600861028b015160401c9060c01b1761028b52565b6002610285015160101c9060f01b1761028552565b60ff0261028453565b90565b616c12616c0d616c1792616bfb565b6101e9565b610811565b90565b616c25610287616bfe565b90565b616c51616c3b616c36614e0c565b610842565b616c4b616c4661359c565b610842565b90618d6f565b616ca7616c5c6147d5565b616c6461359c565b90616c6d614d85565b90616c86616c81616c7c616c1a565b610842565b618d7b565b91616ca1616c9b616c95616ca9565b95610842565b91610842565b91618d95565b565b616cb16111f5565b506102845160ff1c90565b90616d0790616d01616cf97f7082326d62b7ef4d06861f13c21dd192c8044b19a121205b7dc63c2642b5a8059596616cf26107a9565b5015610114565b9182906141b4565b946141b4565b90634bc3287b029264cef6ae8685029063cb21e499027f5bc2a24e50a66d39c35a9132c33f2fc50a1b99389d5455e78a7cf7ef8894e4cd81830991020302818102915f1991090390565b90565b616d68616d63616d6d92616d51565b6101e9565b610811565b90565b616d7b610285616d54565b90565b616d866111f5565b50616db0616d9a616d95614db2565b610842565b616daa616da5614d85565b610842565b9061422b565b616dd9616dc3616dbe614d85565b610842565b616dd3616dce614ddf565b610842565b9061422b565b616e1b616dec616de7614ddf565b610842565b616e15616df7612779565b616e0f616e0a616e05616d70565b610842565b618e4e565b90612789565b90611e00565b616e2c616e26616ca9565b15610114565b90616e3682616bf2565b616ec7616e416147d5565b616e59616e54616e4f616c1a565b610842565b618e68565b90616e9c81616e66614e0c565b90616e6f614d85565b90616e8286616e7c610a00565b906133f2565b91616e96616e908b95610842565b91610842565b91618d95565b90616ea561359c565b91616eae614d85565b616ec1616ebb8895610842565b91610842565b91618d95565b565b5f90565b90565b616ee4616edf616ee992616ecd565b6101e9565b610266565b90565b90565b616f03616efe616f0892616eec565b6101e9565b61013c565b90565b616f1c671000000000000000616eef565b90565b616f276107a9565b50616f306154a0565b50616f396107a9565b50616f426107a9565b50616f4b6107eb565b50616f54616ec9565b50616f5d616ec9565b50616f6782611e65565b91616f7184611e65565b616f7c848290615493565b61716157616f886109f0565b50616f9d83616f976040616ed0565b90612a0f565b616fa6846154a4565b94616fb0826154a4565b616fc281616fbc6135aa565b90617fa8565b61714e57616fd1908790618e78565b90616ff3616feb616fe3868490611f4c565b9687906141b4565b9886906141b4565b95617006836170006135aa565b90617fa8565b61713e5761701390611e65565b91855f146170ef5761705e6170506170496170426170346170639688611e82565b61703c616f0b565b90611e75565b8490618e85565b9685611e82565b617058616f0b565b90611e75565b618e85565b5b92935f146170d9579061707a6170809291611e65565b90611e82565b5b8091600160c01b87850993600160c01b868309600160c01b81600160c01b03870895818110938860018060c01b03910901918960018060c01b0391090103039281840660c01b0104910460c01b0192030201600f1c90565b6170e56170ea92611e65565b611e82565b617081565b61713461712661711e617117617109617139968890611e82565b617111616f0b565b90611e75565b8490618e85565b968590611e82565b61712e616f0b565b90611e75565b618e85565b617064565b50505050505090910302600f1c90565b505050505050505061715e61217c565b90565b505050505061716e61217c565b90565b9060281b8151019052565b1561718357565b5f630f975a0160e11b81528061719b600482016100dc565b0390fd5b6171a76111f5565b506171b06107a9565b506171da6171bc618e92565b6171d46171cf6171ca6134bb565b610842565b61543f565b90613438565b6172156171ed6171e8614e0c565b610842565b6171f5614db2565b61720f61720961720361348e565b92610842565b91610842565b91616f1f565b90617221828290618ea5565b6177275761722d613425565b90815f146176e95761726e61725061724b617246614e0c565b610842565b611e65565b61726861726361725e61359c565b610842565b611e65565b90611e82565b5b916172a961728b61728661728161359c565b610842565b6154a4565b6172a361729e617299614e0c565b610842565b6154a4565b90618e78565b946172bc6172b5616f0b565b8790618e85565b6173876173816172ee836172e8896172e26172dd6172d8614e0c565b610842565b6154a4565b90618e85565b90618ec4565b855f14617697576173429061733c61733561731761731261730d614e0c565b610842565b611e65565b61732f61732a617325614db2565b610842565b611e65565b90611e82565b8c90618e85565b90618ec4565b5b9661737b61735089618ed1565b9161737461736461735f614db2565b610842565b61736e8a15610114565b906141b4565b8991618ee3565b90613438565b80615486565b90835f14617656576173e96173cb6173ad6173a86173a3614db2565b610842565b611e65565b6173c56173c06173bb61348e565b610842565b611e65565b90611e82565b5b976173e36173d8612add565b918a90899091618f3f565b90611ed9565b5b600115617648576174066173ff828b90618e85565b8890618ec4565b61744561743d61741583618ed1565b61743787600160ff1b9061743161742b8961628f565b92613ea7565b90618f99565b90613438565b918490618fd3565b809161744f6107eb565b506174586109f0565b5005908a82020581603c1d03600160531b038181920105906174828261747c6109e4565b90615493565b6174b257506174ad916174a06174a69261749a612add565b92611e75565b90611ed9565b8890611eff565b6173ea565b9497505094975050506174da9194506174d36174cd5f610780565b91610266565b141561717c565b5b825f1461762257617503906174fe6174f96174f4614db2565b610842565b611e65565b611e82565b5b61751e6175176175126134e8565b610842565b8290611e00565b61755961753161752c614e0c565b610842565b617539614db2565b61755361754d6175476134e8565b92610842565b91610842565b91616f1f565b5b617565818690617f9b565b156175ee5750825f146175d7576175849061757e612add565b90611e82565b5b9061758f836186db565b6175656175cd6175a56175a0614e0c565b610842565b6175ad614db2565b6175c76175c16175bb6134e8565b92610842565b91610842565b91616f1f565b905091909161755a565b6175e9906175e3612add565b90611e75565b617585565b935050905061761c61760661760161348e565b610842565b6176166176116134e8565b610842565b9061422b565b60019190565b6176439061763e617639617634614db2565b610842565b611e65565b611e75565b617504565b9497505050925092506174db565b6173e961769261767461766f61766a61348e565b610842565b611e65565b61768c617687617682614db2565b610842565b611e65565b90611e82565b6173cc565b6176e4906176de6176d76176b96176b46176af614db2565b610842565b611e65565b6176d16176cc6176c7614e0c565b610842565b611e65565b90611e82565b8c90618e85565b90618ec4565b617343565b6177226177046176ff6176fa61359c565b610842565b611e65565b61771c617717617712614e0c565b610842565b611e65565b90611e82565b61726f565b50905f9190565b90916177386107a9565b916177416154a0565b5061774a6107a9565b506177536107a9565b5061775c6107eb565b50617765616ec9565b5061776e616ec9565b5061777884611e65565b9361778283611e65565b9161778e868490615493565b6179765761779a6109f0565b506177af816177a96040616ed0565b90612a0f565b6177b8816154a4565b956177cb876177c56135aa565b90617fa8565b61796b57506177d990611e65565b9061780d6177fc6177eb868a90611f4c565b946177f68615610114565b906141b4565b956178078515610114565b906141b4565b96617817826154a4565b617822888290617fa8565b61795b576178309088618e78565b845f1461790e5761787c61786e61786661785f617851617881968990611e82565b617859616f0b565b90611e75565b8490618e85565b978690611e82565b617876616f0b565b90611e75565b618e85565b5b93925f146178f6579061789761789c92611e65565b611e82565b5b8091600160c01b85820993600160c01b88820994600160c01b81600160c01b03870895818110938860018060c01b03910901918960018060c01b0391090103039281840660c01b0104910460c01b0192030203600f1c90565b6179036179099291611e65565b90611e82565b61789d565b61795161794361793c6179356179276179569689611e82565b61792f616f0b565b90611e75565b8490618e85565b9786611e82565b61794b616f0b565b90611e75565b618e85565b617882565b50505050505090910302600f1c90565b965050505050505090565b50505050505061798461217c565b90565b1561798e57565b5f637fbbcd6760e01b8152806179a6600482016100dc565b0390fd5b6179b26111f5565b506179bb6107a9565b506179e56179c7618e92565b6179df6179da6179d561356f565b610842565b61543f565b90613438565b617a206179f86179f3614e0c565b610842565b617a00614db2565b617a1a617a14617a0e61348e565b92610842565b91610842565b9161772e565b617a2b818390618ea5565b617f9357617a37613425565b91825f14617f5557617a78617a5a617a55617a50614e0c565b610842565b611e65565b617a72617a6d617a6861359c565b610842565b611e65565b90611e82565b5b92617ab3617a95617a90617a8b61359c565b610842565b6154a4565b617aad617aa8617aa3614e0c565b610842565b6154a4565b90618e78565b94617ac6617abf616f0b565b8790618e85565b617b7f617af582617aef89617ae9617ae4617adf61359c565b610842565b6154a4565b90618e85565b90618fd3565b845f14617f0357617b4990617b43617b3c617b1e617b19617b14614db2565b610842565b611e65565b617b36617b31617b2c61359c565b610842565b611e65565b90611e82565b8b90618e85565b90618ec4565b5b96617b79617b5789618ed1565b91617b72617b6b617b66614db2565b610842565b88906141b4565b8891618ee3565b90613438565b90835f14617ec557617bc0617ba2617b9d617b98614db2565b610842565b611e65565b617bba617bb5617bb061348e565b610842565b611e65565b90611e82565b5b968796617bcd896101ec565b617be7617be1617bdc846101ec565b61013c565b9161013c565b1315617e9c575b50955b600115617e8657617c0d617c06828b90618e85565b8890618fd3565b617c60617c58617c1c83618ed1565b617c5287617c4c617c47617c42617c328a61628f565b617c3c6028613d2f565b90613d4f565b612243565b6101ec565b90618fe0565b90615486565b918490618ec4565b8091617c6a6107eb565b50617c736109f0565b5005908a82020581603c1d01600160531b03818192010590617c9d82617c976109e4565b90615493565b617ccd5750617cc891617cbb617cc192617cb5612add565b92611e82565b90611ed9565b8890611eff565b617bf1565b91935050617d0c9397949850617d11959650617cfd9150617cf6617cf05f610780565b91610266565b1415617987565b5b617d06612add565b90611e75565b611eff565b835f14617e6057617d3990617d34617d2f617d2a614db2565b610842565b611e65565b611e82565b5b617d54617d4d617d486134e8565b610842565b8290611e00565b617d8f617d67617d62614e0c565b610842565b617d6f614db2565b617d89617d83617d7d6134e8565b92610842565b91610842565b9161772e565b5b617d9b8184906181ee565b15617e2d5750835f14617e1657617dba90617db4612add565b90611e75565b5b91617dce617dc98515610114565b6186db565b617d9b617e0c617de4617ddf614e0c565b610842565b617dec614db2565b617e06617e00617dfa6134e8565b92610842565b91610842565b9161772e565b9050929092617d90565b617e2890617e22612add565b90611e82565b617dbb565b93505050617e5a617e44617e3f61348e565b610842565b617e54617e4f6134e8565b610842565b9061422b565b60019190565b617e8190617e7c617e77617e72614db2565b610842565b611e65565b611e75565b617d3a565b915050617d0c9195929650617d11939450617cfe565b617ebe919750617eb8617ead612add565b918a90899091618f3f565b90611ed9565b955f617bee565b617efe617ee0617edb617ed661348e565b610842565b611e65565b617ef8617ef3617eee614db2565b610842565b611e65565b90611e82565b617bc1565b617f5090617f4a617f43617f25617f20617f1b61359c565b610842565b611e65565b617f3d617f38617f33614db2565b610842565b611e65565b90611e82565b8b90618e85565b90618ec4565b617b4a565b617f8e617f70617f6b617f6661359c565b610842565b611e65565b617f88617f83617f7e614e0c565b610842565b611e65565b90611e82565b617a79565b9190505f9190565b617fa36111f5565b501290565b617fb06111f5565b501490565b90565b617fcc617fc7617fd192617fb5565b6101e9565b610811565b90565b617fdf610289617fb8565b90565b61800b617ff5617ff06154f6565b610842565b618005618000613542565b610842565b90618d6f565b6180616180166147d5565b61801e613542565b9061802761348e565b9061804061803b618036617fd4565b610842565b618d7b565b9161805b61805561804f613425565b95610842565b91610842565b91618d95565b565b61806b6107a9565b50618074613425565b9061814a61812c61810e6180c361809961809461808f61500c565b610842565b61543f565b6180a16134e8565b906180aa614d85565b6180bd6180b78a94610842565b91610842565b91616cbc565b6181086180de6180d96180d4615523565b610842565b61543f565b6180e66134e8565b906180ef61348e565b6181026180fc8b94610842565b91610842565b91616cbc565b90613438565b61812661812161811c615039565b610842565b61543f565b90613438565b61814461813f61813a61356f565b610842565b61543f565b90613438565b926181a561818761816961816461815f6134bb565b610842565b61543f565b61818161817c618177615523565b610842565b61543f565b90615486565b61819f61819a618195613515565b610842565b61543f565b90613438565b925f146181cd57906181bd6181c3926181c995618fe0565b92618fe0565b90613438565b5b90565b6181dd6181e3926181e995618fe0565b92618fe0565b90613438565b6181ca565b6181f66111f5565b501390565b9060281b8151039052565b61821e618218618224929593956101ec565b946101ec565b926101ec565b90565b1561822e57565b5f6327177a2d60e11b815280618246600482016100dc565b0390fd5b9190916182556111f5565b5061825e6107eb565b506182676107a9565b506182706107a9565b50618279613425565b92835f146186cd57905b909261828d6107a9565b506182c96182a161829c614e0c565b610842565b6182a9614db2565b6182c36182bd6182b76134e8565b92610842565b91610842565b91616f1f565b916184338561842d6184036183e56183bb61839d61838f6183676183406183216182f96182f46154f6565b610842565b618301614db2565b61831b61831561830f6134e8565b92610842565b91610842565b91616f1f565b9861833a6183356183306134bb565b610842565b61543f565b90615486565b6183618d61835c618357618352613515565b610842565b61543f565b615486565b90613438565b61838961838261837d618378615523565b610842565b61543f565b8990615486565b90615486565b61839761217c565b9061617a565b986183b66183b16183ac61500c565b610842565b61543f565b615486565b6183c36134e8565b906183cc614d85565b6183df6183d98b94610842565b91610842565b91616cbc565b926183fe6183f96183f4615523565b610842565b61543f565b615486565b61840b6134e8565b9061841461348e565b6184276184218994610842565b91610842565b91616cbc565b90613438565b91618492618484618466618448858790615486565b61846061845b618456615039565b610842565b61543f565b90613438565b61847e61847961847461356f565b610842565b61543f565b90613438565b61848c61217c565b9061617a565b9261859361858d6184c26184ac6184a7614e0c565b610842565b6184bc6184b76134e8565b610842565b90619015565b6185876185666184f16184db6184d66154f6565b610842565b6184eb6184e66134e8565b610842565b90619015565b9561856161855961852561851e61850e618509614d85565b610842565b6185188d15610114565b906141b4565b87906141cd565b61855361854c8c61854661853f61853a61348e565b610842565b9115610114565b906141b4565b8b906141cd565b90613438565b918290615486565b615486565b9461858161857a6185756134e8565b610842565b88906141b4565b92613438565b906141cd565b80615486565b9161859c6107a9565b505f1461868a576185e892916185dc6185e2926185ce6185bd8b8990614232565b6185c8878b90614232565b90613438565b96979697965b969799618fe0565b92618fe0565b90615486565b926185fb856185f561217c565b906181ee565b61861e6186186186138761860d61217c565b906181ee565b610114565b91610114565b1415948460161d81600160261b0205946186408661863a6109e4565b90615493565b618649575b5050565b61865f9060161d9161865961217c565b906191a3565b61866a575b80618645565b61867f6186849161867961217c565b906191a3565b618227565b5f618664565b9282916186c26185dc966185e2936186ba6186a96185e8988490614232565b6186b48d8490614232565b90613438565b919091618206565b9791979690966185d4565b6186d691612188565b618283565b5f1461876c576187696186f46186ef6134e8565b610842565b61871d61870f61870a6187056134e8565b610842565b611e65565b618717612add565b90611e82565b61873f61873a61873361872e6134e8565b610842565b5f906141b4565b61920d565b9061876361875e6187566187516134e8565b610842565b6001906141b4565b6191c2565b92613e0a565b5b565b6187f461877f61877a6134e8565b610842565b6187a861879a6187956187906134e8565b610842565b611e65565b6187a2612add565b90611e75565b6187ca6187c56187be6187b96134e8565b610842565b5f906141b4565b6191c2565b906187ee6187e96187e16187dc6134e8565b610842565b6001906141b4565b61920d565b92613e0a565b61876a565b906188026107a9565b5061880b6107a9565b50618814613425565b90815f14618a3e57618a156189f76189d9618a2393955b956189d36189c5876189bf6189a161887461884c618847614e0c565b610842565b618854614db2565b61886e6188686188626134e8565b92610842565b91610842565b91616f1f565b61899b61897d61895e6188b861889061888b6154f6565b610842565b618898614db2565b6188b26188ac6188a66134e8565b92610842565b91610842565b91616f1f565b9661895861890b6188e16188da6188d56188d061500c565b610842565b61543f565b8890615486565b6188e96134e8565b906188f2614d85565b6189056188ff8794610842565b91610842565b91616cbc565b9161892e61892761892261891d615523565b610842565b61543f565b8b90615486565b6189366134e8565b9161895261894c61894561348e565b9294610842565b91610842565b91616cbc565b90613438565b9861897761897261896d6134bb565b610842565b61543f565b90615486565b9161899661899161898c613515565b610842565b61543f565b615486565b90613438565b916189ba6189b56189b0615523565b610842565b61543f565b615486565b90615486565b6189cd61217c565b9061617a565b96615486565b6189f16189ec6189e7615039565b610842565b61543f565b90613438565b618a0f618a0a618a0561356f565b610842565b61543f565b90613438565b618a1d61217c565b9061617a565b905f14618a3057905b9091565b618a3991612188565b618a2c565b618a156189f7618a54618a23936189d996612188565b95909561882b565b618a7891618a7291618a6c6111f5565b50617f9b565b15610114565b90565b618a836117e3565b500190565b618a906111f5565b501090565b618a9d6111f5565b501490565b9190618aac6109f0565b50618ab56109f0565b505f198184099202918280821091030390565b618ad06108aa565b500390565b618af191618aeb91618ae56111f5565b5061660f565b15610114565b90565b618b08618b03618b0d92612214565b6101e9565b610266565b90565b90565b618b27618b22618b2c92618b10565b6101e9565b613d29565b90565b90565b618b46618b41618b4b92618b2f565b6101e9565b613d29565b90565b90565b618b65618b60618b6a92618b4e565b6101e9565b610266565b90565b949593929190618b9191618b7f6109f0565b50618b886111f5565b969190916165ba565b939192909380618bad618ba76001606f1b618af4565b91610266565b1015618d2a57618bca618bf091618bc46091618b13565b90613e47565b618bde86618bd8606f618b32565b90613d4f565b1794618bea6091618b13565b90613e47565b618c0484618bfe606f618b32565b90613d4f565b17618c0d6109f0565b5081805f19870981878408088095818310900391039181618c36618c3083610266565b91610266565b1015618d105790618c6a939291618c565f618c518391610780565b612051565b1690600182805f0304010291041790612043565b94618ca5575b505082618c89618c83600160ff1b613ea7565b91610266565b1015618c9157565b9150505f90618ca1600192610780565b9190565b618cbc6d7fffffffffffffffffffffffffff618b51565b16618ccf618cc95f610780565b91610266565b11908115618cf5575b50618ce5575b5f80618c70565b91618cef906166d7565b91618cde565b9050618d09618d035f610780565b91610266565b115f618cd8565b5050505050509150505f90618d26600192610780565b9190565b50505050509150505f90618d3f600192610780565b9190565b618d4b6108aa565b500190565b618d6c91618d6691618d606111f5565b50619273565b15610114565b90565b6002806040930391035e565b618d836117e3565b50600160f01b81510180915260f01c90565b618e009493618da69193929361929f565b919592959091925f14618e025790618de9618de0618dcf618dee94618dca88611e65565b611e82565b94618ddb875f906141b4565b614262565b946001906141b4565b618fe0565b909190915b9091929390919293619353565b565b839192618e3d618e34618e23618e4294618e1e618e4899611e65565b611e75565b95618e2f865f906141b4565b618fe0565b936001906141b4565b614262565b916121a0565b91618df3565b618e566117e3565b50600160f01b81510380915260f01c90565b618e706117e3565b505160f01c90565b618e806154a0565b500390565b618e8d616ec9565b500290565b618e9a6107a9565b506101525160281c90565b618ec191618ebb91618eb56111f5565b506181ee565b15610114565b90565b618ecc616ec9565b500190565b618ed96107a9565b506001608e1b0290565b90917fd49c04af80af1ea5f98f85886b450a4b264fc14874f9f64143836145a37dd8a192618f0f6107a9565b507f0f1aaddd7742e56d32fb9f997447d9e6314db84884fabab26bf059af9bc20b61828183860909920202030290565b618f9191618f9693618f86618f81618f7b618f76618f70618f6b618f8c98618f656107eb565b506101ec565b61226d565b956101ec565b61226d565b926101ec565b61226d565b9161650c565b612243565b6101ec565b90565b618fcb91618fd093618fbe618fb9618fc694618fb36107a9565b506101ec565b61226d565b91909161650c565b612243565b6101ec565b90565b618fdb616ec9565b500390565b618fe86107a9565b505f1991600160281b915f1991600160d81b8183095f1903915f19915f81129003905f8112900309080990565b906190276190216107a9565b92619373565b93929190939461903f866190396135aa565b90617fa8565b61919a575061904f858590617fa8565b619170576190668161906085611e65565b90615493565b6191475793846190967c15fc21041027acbbfcd46780fee71ead23fbcb7f4a81e58767ef801a3295968490611f4c565b5f14619110576190c183946190bb6190b46190c9946190cf97611e82565b9691611e65565b90611e82565b918690618e78565b90618e85565b905b80600160c01b8385099260018060c01b03908460018060c01b03039060018060c01b03908709089281840660c01b0104910460c01b0191020160281c90565b6191336191419361912e61912861913b948390611e82565b96611e65565b611e82565b918690618e78565b90618e85565b906190d1565b505050507c15fc21041027acbbfcd46780fee71ead23fbcb7f4a81e58767ef801a320260281c90565b5050507c15fc21041027acbbfcd46780fee71ead23fbcb7f4a81e58767ef801a3291500260281c90565b94505050505090565b6191bf916191b9916191b36111f5565b50618a95565b15610114565b90565b6191ca6107a9565b50780fffffffffffffff8000000000000002aaaaaaaaaaaaaaa001198102905f1990780fffffffffffffff8000000000000002aaaaaaaaaaaaaaa0011990090390565b7faa3ed2381a8b1241d16168fd77ef989ed2b13be12b716aa23f35ed0e39556001906192376107a9565b50780fffffffffffffff8000000000000002aaaaaaaaaaaaaaa001780fffffffffffffff8000000000000002aaaaaaaaaaaaaaa0001991090290565b61927b6111f5565b501390565b90565b61929761929261929c92619280565b6101e9565b61013c565b90565b906192a86154a0565b6192b06107eb565b6192b86107a9565b506192c16107a9565b506192d4836192ce6109f4565b906193d3565b5f1461931d575050603e906192e76109f0565b5060061b0301906192f7826154a4565b9161930181611e65565b91619319619310835f906141b4565b926001906141b4565b905b565b925092905061932a611806565b9061934d7801e355bbaee85cada65f73f32e88fb3cc629b709109f57564d619283565b9061931b565b602091926022820394855196601e84015260038301526018820352035252565b9061937c6107eb565b506193856107eb565b5061938e6154a0565b506193976154a0565b506193a1826154a4565b6193be6193ad84611e65565b936193b86040616ed0565b90612a0f565b6193d06193ca826154a4565b91611e65565b92565b6193db6111f5565b50119056fea2646970667358221220fa0124587fb63a29e82ff3d9749de27c0fbfe809c2d39bfbfc3800dd97e8778464736f6c63430008220033","linkReferences":{}},"methodIdentifiers":{"_calculateIntegralLimitInterval(bool,bool,int256,int256,int256,int256)":"39543168","_cross(uint256[19])":"b0d4f3bc","_setSwapParams(uint256,uint256,uint256,int256,int256,int256,int256,int256,uint256)":"89bb1ec7","_swapWithin(uint256[18],uint256[],uint256[])":"f254a6f3","_transition(uint256[12])":"0c3f03ce","_updateAmounts(bool,bool,int256,int256,int256,int256,int256)":"d69f819f","_updateKernel(uint256,uint256,uint256,uint256,bytes,bytes)":"69b87350"},"id":29}