{"abi":[{"type":"function","name":"deploy","inputs":[{"name":"poolId","type":"uint256","internalType":"uint256"},{"name":"kernelLength","type":"uint256","internalType":"Index"},{"name":"storagePointer","type":"uint256","internalType":"uint256"},{"name":"content","type":"bytes","internalType":"bytes"}],"outputs":[],"stateMutability":"nonpayable"},{"type":"function","name":"manipulate","inputs":[{"name":"slot","type":"bytes32","internalType":"bytes32"},{"name":"content","type":"bytes32","internalType":"bytes32"}],"outputs":[],"stateMutability":"nonpayable"},{"type":"error","name":"DeploymentFailed","inputs":[]}],"bytecode":{"object":"0x608060405234601c57600e6020565b6103f361002b82396103f390f35b6026565b60405190565b5f80fdfe60806040526004361015610013575b61020b565b61001d5f3561003c565b80632a40b1c71461003757633d8ab3c20361000e576101d7565b61014d565b60e01c90565b60405190565b5f80fd5b5f80fd5b5f80fd5b90565b61006081610054565b0361006757565b5f80fd5b9050359061007882610057565b565b61008381610054565b0361008a57565b5f80fd5b9050359061009b8261007a565b565b5f80fd5b5f80fd5b5f80fd5b909182601f830112156100e35781359167ffffffffffffffff83116100de5760200192600183028401116100d957565b6100a5565b6100a1565b61009d565b90608082820312610143576100ff815f840161006b565b9261010d826020850161008e565b9261011b836040830161006b565b92606082013567ffffffffffffffff811161013e5761013a92016100a9565b9091565b610050565b61004c565b5f0190565b3461017f576101696101603660046100e8565b9392909261020f565b610171610042565b8061017b81610148565b0390f35b610048565b90565b61019081610184565b0361019757565b5f80fd5b905035906101a882610187565b565b91906040838203126101d257806101c66101cf925f860161019b565b9360200161019b565b90565b61004c565b34610206576101f06101ea3660046101aa565b90610240565b6101f8610042565b8061020281610148565b0390f35b610048565b5f80fd5b61023e945061022892935061022390610243565b610248565b606435600401356064356024016106e0376102d1565b565b55565b60d852565b600261064f015160101c9060f01b1761064f52565b5f90565b90565b60018060a01b031690565b90565b61028661028161028b92610261565b61026f565b610264565b90565b61029790610272565b90565b6102a390610264565b90565b156102ad57565b5f633011642560e01b8152806102c560048201610148565b0390fd5b5f90565b5f90565b6102d9610382565b6102e161025d565b505f526020526103805f80604081206f67363d3d37363d3df03d5260086018f3825260108083f561032d8161032661032061031b8661028e565b61029a565b9161029a565b14156102a6565b6106d582600b600161033d610395565b6103456102c9565b500360061b6106e0610808030161036e6001820160401b6a61000080600a3d393df300176103a8565b6103766102cd565b5001925af16102a6565b565b61038a6102c9565b5060d85190565b5f90565b61039d610391565b5061064f5160f01c90565b600b6106d5015160581c9060a81b176106d55256fea264697066735822122059ef30e498c0a707939aa3bcc9154d484b3d996325ff238216fd436c753e985864736f6c63430008220033","linkReferences":{}},"methodIdentifiers":{"deploy(uint256,uint256,uint256,bytes)":"2a40b1c7","manipulate(bytes32,bytes32)":"3d8ab3c2"},"id":24}