{"abi":[{"type":"constructor","inputs":[{"name":"_delegatee","type":"address","internalType":"address"},{"name":"admin","type":"address","internalType":"address"}],"stateMutability":"nonpayable"},{"type":"function","name":"allowance","inputs":[{"name":"owner","type":"address","internalType":"address"},{"name":"spender","type":"address","internalType":"address"},{"name":"tag","type":"uint256","internalType":"Tag"}],"outputs":[{"name":"amount","type":"uint256","internalType":"uint256"}],"stateMutability":"view"},{"type":"function","name":"approve","inputs":[{"name":"spender","type":"address","internalType":"address"},{"name":"tag","type":"uint256","internalType":"Tag"},{"name":"amount","type":"uint256","internalType":"uint256"}],"outputs":[{"name":"success","type":"bool","internalType":"bool"}],"stateMutability":"nonpayable"},{"type":"function","name":"balanceOf","inputs":[{"name":"owner","type":"address","internalType":"address"},{"name":"tag","type":"uint256","internalType":"Tag"}],"outputs":[{"name":"amount","type":"uint256","internalType":"uint256"}],"stateMutability":"view"},{"type":"function","name":"callManipulator","inputs":[{"name":"manipulator","type":"address","internalType":"address"},{"name":"input","type":"bytes","internalType":"bytes"}],"outputs":[],"stateMutability":"nonpayable"},{"type":"function","name":"clear","inputs":[{"name":"tag","type":"uint256","internalType":"Tag"},{"name":"amount","type":"uint256","internalType":"uint256"}],"outputs":[],"stateMutability":"nonpayable"},{"type":"function","name":"dispatch","inputs":[{"name":"input","type":"bytes","internalType":"bytes"}],"outputs":[{"name":"output0","type":"int256","internalType":"int256"},{"name":"output1","type":"int256","internalType":"int256"}],"stateMutability":"nonpayable"},{"type":"function","name":"isOperator","inputs":[{"name":"owner","type":"address","internalType":"address"},{"name":"spender","type":"address","internalType":"address"}],"outputs":[{"name":"status","type":"bool","internalType":"bool"}],"stateMutability":"view"},{"type":"function","name":"modifyBalance","inputs":[{"name":"owner","type":"address","internalType":"address"},{"name":"tag0","type":"uint256","internalType":"Tag"},{"name":"tag1","type":"uint256","internalType":"Tag"},{"name":"amount0","type":"int256","internalType":"int256"},{"name":"amount1","type":"int256","internalType":"int256"}],"outputs":[],"stateMutability":"nonpayable"},{"type":"function","name":"modifyBalance","inputs":[{"name":"owner","type":"address","internalType":"address"},{"name":"tag","type":"uint256","internalType":"Tag"},{"name":"amount","type":"int256","internalType":"int256"}],"outputs":[],"stateMutability":"nonpayable"},{"type":"function","name":"onERC1155BatchReceived","inputs":[{"name":"","type":"address","internalType":"address"},{"name":"","type":"address","internalType":"address"},{"name":"","type":"uint256[]","internalType":"uint256[]"},{"name":"","type":"uint256[]","internalType":"uint256[]"},{"name":"","type":"bytes","internalType":"bytes"}],"outputs":[{"name":"","type":"bytes4","internalType":"bytes4"}],"stateMutability":"pure"},{"type":"function","name":"onERC1155Received","inputs":[{"name":"","type":"address","internalType":"address"},{"name":"","type":"address","internalType":"address"},{"name":"","type":"uint256","internalType":"uint256"},{"name":"","type":"uint256","internalType":"uint256"},{"name":"","type":"bytes","internalType":"bytes"}],"outputs":[{"name":"","type":"bytes4","internalType":"bytes4"}],"stateMutability":"pure"},{"type":"function","name":"setOperator","inputs":[{"name":"spender","type":"address","internalType":"address"},{"name":"approved","type":"bool","internalType":"bool"}],"outputs":[{"name":"success","type":"bool","internalType":"bool"}],"stateMutability":"nonpayable"},{"type":"function","name":"settle","inputs":[],"outputs":[{"name":"paid","type":"uint256","internalType":"uint256"}],"stateMutability":"payable"},{"type":"function","name":"storageAccess","inputs":[{"name":"slot","type":"bytes32","internalType":"bytes32"}],"outputs":[{"name":"","type":"bytes32","internalType":"bytes32"}],"stateMutability":"view"},{"type":"function","name":"storageAccess","inputs":[{"name":"startSlot","type":"bytes32","internalType":"bytes32"},{"name":"nSlots","type":"uint256","internalType":"uint256"}],"outputs":[{"name":"","type":"bytes32[]","internalType":"bytes32[]"}],"stateMutability":"view"},{"type":"function","name":"storageAccess","inputs":[{"name":"slots","type":"bytes32[]","internalType":"bytes32[]"}],"outputs":[{"name":"","type":"bytes32[]","internalType":"bytes32[]"}],"stateMutability":"view"},{"type":"function","name":"supportsInterface","inputs":[{"name":"interfaceId","type":"bytes4","internalType":"bytes4"}],"outputs":[{"name":"","type":"bool","internalType":"bool"}],"stateMutability":"pure"},{"type":"function","name":"swap","inputs":[{"name":"poolId","type":"uint256","internalType":"uint256"},{"name":"amountSpecified","type":"int256","internalType":"int256"},{"name":"logPriceLimit","type":"int256","internalType":"X59"},{"name":"zeroForOne","type":"uint256","internalType":"uint256"},{"name":"hookData","type":"bytes","internalType":"bytes"}],"outputs":[{"name":"amount0","type":"int256","internalType":"int256"},{"name":"amount1","type":"int256","internalType":"int256"}],"stateMutability":"nonpayable"},{"type":"function","name":"sync","inputs":[{"name":"token","type":"address","internalType":"address"}],"outputs":[],"stateMutability":"nonpayable"},{"type":"function","name":"sync","inputs":[{"name":"token","type":"address","internalType":"address"},{"name":"tokenId","type":"uint256","internalType":"uint256"}],"outputs":[],"stateMutability":"nonpayable"},{"type":"function","name":"take","inputs":[{"name":"token","type":"address","internalType":"address"},{"name":"tokenId","type":"uint256","internalType":"uint256"},{"name":"to","type":"address","internalType":"address"},{"name":"amount","type":"uint256","internalType":"uint256"}],"outputs":[],"stateMutability":"nonpayable"},{"type":"function","name":"take","inputs":[{"name":"token","type":"address","internalType":"address"},{"name":"to","type":"address","internalType":"address"},{"name":"amount","type":"uint256","internalType":"uint256"}],"outputs":[],"stateMutability":"nonpayable"},{"type":"function","name":"take","inputs":[{"name":"token","type":"address","internalType":"address"},{"name":"tokenId","type":"uint256","internalType":"uint256"},{"name":"to","type":"address","internalType":"address"},{"name":"amount","type":"uint256","internalType":"uint256"},{"name":"transferData","type":"bytes","internalType":"bytes"}],"outputs":[],"stateMutability":"nonpayable"},{"type":"function","name":"transfer","inputs":[{"name":"receiver","type":"address","internalType":"address"},{"name":"tag","type":"uint256","internalType":"Tag"},{"name":"amount","type":"uint256","internalType":"uint256"}],"outputs":[{"name":"success","type":"bool","internalType":"bool"}],"stateMutability":"nonpayable"},{"type":"function","name":"transferFrom","inputs":[{"name":"sender","type":"address","internalType":"address"},{"name":"receiver","type":"address","internalType":"address"},{"name":"tag","type":"uint256","internalType":"Tag"},{"name":"amount","type":"uint256","internalType":"uint256"}],"outputs":[{"name":"success","type":"bool","internalType":"bool"}],"stateMutability":"nonpayable"},{"type":"function","name":"transferTransientBalanceFrom","inputs":[{"name":"sender","type":"address","internalType":"address"},{"name":"receiver","type":"address","internalType":"address"},{"name":"tag","type":"uint256","internalType":"Tag"},{"name":"amount","type":"uint256","internalType":"uint256"}],"outputs":[],"stateMutability":"nonpayable"},{"type":"function","name":"transientAccess","inputs":[{"name":"slot","type":"bytes32","internalType":"bytes32"}],"outputs":[{"name":"","type":"bytes32","internalType":"bytes32"}],"stateMutability":"view"},{"type":"function","name":"transientAccess","inputs":[{"name":"slots","type":"bytes32[]","internalType":"bytes32[]"}],"outputs":[{"name":"","type":"bytes32[]","internalType":"bytes32[]"}],"stateMutability":"view"},{"type":"function","name":"transientAccess","inputs":[{"name":"startSlot","type":"bytes32","internalType":"bytes32"},{"name":"nSlots","type":"uint256","internalType":"uint256"}],"outputs":[{"name":"","type":"bytes32[]","internalType":"bytes32[]"}],"stateMutability":"view"},{"type":"function","name":"unlock","inputs":[{"name":"unlockTarget","type":"address","internalType":"address"},{"name":"data","type":"bytes","internalType":"bytes"}],"outputs":[{"name":"result","type":"bytes","internalType":"bytes"}],"stateMutability":"payable"},{"type":"event","name":"Approval","inputs":[{"name":"owner","type":"address","indexed":true,"internalType":"address"},{"name":"spender","type":"address","indexed":true,"internalType":"address"},{"name":"tag","type":"uint256","indexed":true,"internalType":"Tag"},{"name":"amount","type":"uint256","indexed":false,"internalType":"uint256"}],"anonymous":false},{"type":"event","name":"Donate","inputs":[{"name":"poolId","type":"uint256","indexed":true,"internalType":"uint256"},{"name":"caller","type":"address","indexed":true,"internalType":"address"},{"name":"data","type":"bytes32","indexed":false,"internalType":"bytes32"}],"anonymous":false},{"type":"event","name":"Initialize","inputs":[{"name":"poolId","type":"uint256","indexed":true,"internalType":"uint256"},{"name":"tag0","type":"uint256","indexed":true,"internalType":"Tag"},{"name":"tag1","type":"uint256","indexed":true,"internalType":"Tag"},{"name":"data","type":"bytes","indexed":false,"internalType":"bytes"}],"anonymous":false},{"type":"event","name":"ModifyDoubleBalanceEvent","inputs":[{"name":"caller","type":"address","indexed":true,"internalType":"address"},{"name":"owner","type":"address","indexed":true,"internalType":"address"},{"name":"tag","type":"uint256","indexed":true,"internalType":"Tag"},{"name":"increment","type":"int256","indexed":false,"internalType":"int256"},{"name":"balance","type":"uint256","indexed":false,"internalType":"uint256"}],"anonymous":false},{"type":"event","name":"ModifyKernel","inputs":[{"name":"poolId","type":"uint256","indexed":true,"internalType":"uint256"},{"name":"caller","type":"address","indexed":true,"internalType":"address"},{"name":"data","type":"bytes","indexed":false,"internalType":"bytes"}],"anonymous":false},{"type":"event","name":"ModifyPoolGrowthPortion","inputs":[{"name":"poolId","type":"uint256","indexed":true,"internalType":"uint256"},{"name":"caller","type":"address","indexed":true,"internalType":"address"},{"name":"data","type":"bytes32","indexed":false,"internalType":"bytes32"}],"anonymous":false},{"type":"event","name":"ModifyPoolOwner","inputs":[{"name":"poolId","type":"uint256","indexed":true,"internalType":"uint256"},{"name":"oldOwner","type":"address","indexed":true,"internalType":"address"},{"name":"newOwner","type":"address","indexed":true,"internalType":"address"}],"anonymous":false},{"type":"event","name":"ModifyPosition","inputs":[{"name":"poolId","type":"uint256","indexed":true,"internalType":"uint256"},{"name":"caller","type":"address","indexed":true,"internalType":"address"},{"name":"data","type":"bytes32[6]","indexed":false,"internalType":"bytes32[6]"}],"anonymous":false},{"type":"event","name":"ModifyProtocol","inputs":[{"name":"newOwner","type":"address","indexed":true,"internalType":"address"},{"name":"newProtocol","type":"uint256","indexed":false,"internalType":"uint256"}],"anonymous":false},{"type":"event","name":"ModifySentinel","inputs":[{"name":"oldSentinel","type":"address","indexed":false,"internalType":"contract ISentinel"},{"name":"newSentinel","type":"address","indexed":false,"internalType":"contract ISentinel"}],"anonymous":false},{"type":"event","name":"OperatorSet","inputs":[{"name":"owner","type":"address","indexed":true,"internalType":"address"},{"name":"operator","type":"address","indexed":true,"internalType":"address"},{"name":"approved","type":"bool","indexed":false,"internalType":"bool"}],"anonymous":false},{"type":"event","name":"PoolCollection","inputs":[{"name":"poolId","type":"uint256","indexed":true,"internalType":"uint256"},{"name":"owner","type":"address","indexed":true,"internalType":"address"},{"name":"amount0","type":"uint256","indexed":false,"internalType":"uint256"},{"name":"amount1","type":"uint256","indexed":false,"internalType":"uint256"}],"anonymous":false},{"type":"event","name":"ProtocolCollection","inputs":[{"name":"poolId","type":"uint256","indexed":true,"internalType":"uint256"},{"name":"amount0","type":"uint256","indexed":false,"internalType":"uint256"},{"name":"amount1","type":"uint256","indexed":false,"internalType":"uint256"}],"anonymous":false},{"type":"event","name":"Swap","inputs":[{"name":"poolId","type":"uint256","indexed":true,"internalType":"uint256"},{"name":"caller","type":"address","indexed":true,"internalType":"address"},{"name":"data","type":"bytes32","indexed":false,"internalType":"bytes32"}],"anonymous":false},{"type":"event","name":"Transfer","inputs":[{"name":"caller","type":"address","indexed":false,"internalType":"address"},{"name":"from","type":"address","indexed":true,"internalType":"address"},{"name":"to","type":"address","indexed":true,"internalType":"address"},{"name":"tag","type":"uint256","indexed":true,"internalType":"Tag"},{"name":"amount","type":"uint256","indexed":false,"internalType":"uint256"}],"anonymous":false},{"type":"event","name":"UpdateGrowthPortions","inputs":[{"name":"poolId","type":"uint256","indexed":true,"internalType":"uint256"},{"name":"caller","type":"address","indexed":true,"internalType":"address"},{"name":"data","type":"bytes32","indexed":false,"internalType":"bytes32"}],"anonymous":false},{"type":"error","name":"AccruedGrowthPortionOverflow","inputs":[{"name":"accruedValue","type":"int256","internalType":"X127"}]},{"type":"error","name":"AlreadyUnlocked","inputs":[{"name":"currentCaller","type":"address","internalType":"address"}]},{"type":"error","name":"BalanceOverflow","inputs":[{"name":"balance","type":"uint256","internalType":"uint256"}]},{"type":"error","name":"CannotTransferToAddressZero","inputs":[]},{"type":"error","name":"CurveIndexOutOfRange","inputs":[{"name":"length","type":"uint256","internalType":"Index"}]},{"type":"error","name":"GrowthOverflow","inputs":[]},{"type":"error","name":"HookDataTooLong","inputs":[{"name":"hookDataByteCount","type":"uint256","internalType":"uint256"}]},{"type":"error","name":"InsufficientBalance","inputs":[{"name":"owner","type":"address","internalType":"address"},{"name":"tag","type":"uint256","internalType":"Tag"}]},{"type":"error","name":"InsufficientPermission","inputs":[{"name":"spender","type":"address","internalType":"address"},{"name":"tag","type":"uint256","internalType":"Tag"}]},{"type":"error","name":"InvalidDirection","inputs":[{"name":"current","type":"int256","internalType":"X59"},{"name":"limit","type":"int256","internalType":"X59"}]},{"type":"error","name":"MsgValueIsNonZero","inputs":[{"name":"msgValue","type":"uint256","internalType":"uint256"}]},{"type":"error","name":"NativeTokenCannotBeSynced","inputs":[]},{"type":"error","name":"NoDelegateCall","inputs":[{"name":"context","type":"address","internalType":"address"}]},{"type":"error","name":"NotEqualToTransientBalance","inputs":[{"name":"currentBalance","type":"int256","internalType":"int256"}]},{"type":"error","name":"OutstandingAmount","inputs":[]},{"type":"error","name":"PoolDoesNotExist","inputs":[{"name":"poolId","type":"uint256","internalType":"uint256"}]},{"type":"error","name":"PoolIsLocked","inputs":[{"name":"poolId","type":"uint256","internalType":"uint256"}]},{"type":"error","name":"ProtocolIsLocked","inputs":[]},{"type":"error","name":"SafeAddFailed","inputs":[{"name":"a","type":"int256","internalType":"X127"},{"name":"b","type":"int256","internalType":"X127"}]},{"type":"error","name":"SafeCastOverflow","inputs":[{"name":"value","type":"uint256","internalType":"uint256"}]},{"type":"error","name":"SafeInRangeAmountOverflow","inputs":[{"name":"sqrtOffsetOrSqrtInverseOffset","type":"int256","internalType":"X127"},{"name":"integral","type":"int256","internalType":"X216"},{"name":"liquidity","type":"int256","internalType":"X111"},{"name":"outgoingMax","type":"int256","internalType":"X216"},{"name":"outgoingMaxModularInverse","type":"uint256","internalType":"uint256"}]},{"type":"error","name":"SearchingForIncomingTargetFailed","inputs":[]},{"type":"error","name":"SearchingForOutgoingTargetFailed","inputs":[]},{"type":"error","name":"SearchingForOvershootFailed","inputs":[]},{"type":"error","name":"TagsOutOfOrder","inputs":[{"name":"tag0","type":"uint256","internalType":"Tag"},{"name":"tag1","type":"uint256","internalType":"Tag"}]}],"bytecode":{"object":"0x60c0604052346100425761001a610014610116565b90610138565b610022610047565b61ae5f610243823960805181611543015260a05181611ef9015261ae5f90f35b61004d565b60405190565b5f80fd5b601f801991011690565b634e487b7160e01b5f52604160045260245ffd5b9061007990610051565b810190811060018060401b0382111761009157604052565b61005b565b906100a96100a2610047565b928361006f565b565b5f80fd5b60018060a01b031690565b6100c3906100af565b90565b6100cf816100ba565b036100d657565b5f80fd5b905051906100e7826100c6565b565b9190604083820312610111578061010561010e925f86016100da565b936020016100da565b90565b6100ab565b61013461b0a28038038061012981610096565b9283398101906100e9565b9091565b90610142916101a6565b565b90565b61015b610156610160926100af565b610144565b6100af565b90565b61016c90610147565b90565b61017890610163565b90565b61018490610147565b90565b90565b61019e6101996101a3926100af565b610144565b610187565b90565b6101c56101df926101ca926101ba3061016f565b60805260a05261017b565b61018a565b6101d960018060a01b0361018a565b1661022c565b565b90565b6101f86101f36101fd926101e1565b610144565b610187565b90565b6102297ffb342fa999fea16067b1f01baf96673f31a25f2b1443e6754d93fc40b57e8df16101e4565b90565b61023d90610238610200565b61023f565b565b5556fe60806040526004361015610013575b61101c565b61001d5f356101fb565b8062fdd58e146101f657806301ffc9a7146101f15780630720b584146101ec578063095bcdb6146101e75780630b0d9c09146101e257806311da60b4146101dd5780631352ea35146101d85780632b7f670f146101d357806332269698146101ce57806341ee903e146101c9578063426a8493146101c457806349dff3ab146101bf578063558a7297146101ba578063598af9e7146101b5578063738c440a146101b0578063745fa652146101ab578063834178fe146101a657806389c59eb9146101a15780639385145b1461019c578063a584119414610197578063ab7fff1814610192578063b6363cf21461018d578063b84a0dd214610188578063bc197c8114610183578063bea556c91461017e578063d02bdb6214610179578063da95455914610174578063ef4fcafa1461016f578063f23a6e611461016a5763fe99049a0361000e57610fe3565b610fa7565b610f03565b610e9f565b610e3e565b610e0a565b610d91565b610c73565b610c3d565b610bf5565b610b8c565b610b3a565b610b1f565b610a90565b610a75565b610a37565b6109bb565b61094b565b6108c4565b610838565b610804565b61079a565b610677565b6105a2565b610533565b6104f0565b610480565b61040f565b61036c565b6102c2565b60e01c90565b60405190565b5f80fd5b5f80fd5b5f80fd5b60018060a01b031690565b61022790610213565b90565b6102338161021e565b0361023a57565b5f80fd5b9050359061024b8261022a565b565b90565b6102598161024d565b0361026057565b5f80fd5b9050359061027182610250565b565b919060408382031261029b578061028f610298925f860161023e565b93602001610264565b90565b61020b565b6102a99061024d565b9052565b91906102c0905f602085019401906102a0565b565b346102f3576102ef6102de6102d8366004610273565b90611024565b6102e6610201565b918291826102ad565b0390f35b610207565b63ffffffff60e01b1690565b61030d816102f8565b0361031457565b5f80fd5b9050359061032582610304565b565b906020828203126103405761033d915f01610318565b90565b61020b565b151590565b61035390610345565b9052565b919061036a905f6020850194019061034a565b565b3461039c57610398610387610382366004610327565b61108a565b61038f610201565b91829182610357565b0390f35b610207565b6103aa8161024d565b036103b157565b5f80fd5b905035906103c2826103a1565b565b608081830312610405576103da825f830161023e565b926104026103eb84602085016103b5565b936103f9816040860161023e565b936060016103b5565b90565b61020b565b5f0190565b346104415761042b6104223660046103c4565b929190916110d6565b610433610201565b8061043d8161040a565b0390f35b610207565b909160608284031261047b57610478610461845f850161023e565b9361046f8160208601610264565b936040016103b5565b90565b61020b565b346104b1576104ad61049c610496366004610446565b9161110e565b6104a4610201565b91829182610357565b0390f35b610207565b90916060828403126104eb576104e86104d1845f850161023e565b936104df816020860161023e565b936040016103b5565b90565b61020b565b3461051f576105096105033660046104b6565b9161112c565b610511610201565b8061051b8161040a565b0390f35b610207565b5f91031261052e57565b61020b565b61053e366004610524565b61055a61054961129e565b610551610201565b918291826102ad565b0390f35b90565b61056a8161055e565b0361057157565b5f80fd5b9050359061058282610561565b565b9060208282031261059d5761059a915f01610575565b90565b61020b565b346105b7576105b2366004610584565b6113b4565b610207565b5f80fd5b5f80fd5b5f80fd5b909182601f830112156106025781359167ffffffffffffffff83116105fd5760200192600183028401116105f857565b6105c4565b6105c0565b6105bc565b91909160a08184031261067257610620835f830161023e565b9261062e81602084016103b5565b9261063c826040850161023e565b9261064a83606083016103b5565b92608082013567ffffffffffffffff811161066d5761066992016105c8565b9091565b61020f565b61020b565b346106ac5761069661068a366004610607565b949390939291926113c5565b61069e610201565b806106a88161040a565b0390f35b610207565b90565b6106bd816106b1565b036106c457565b5f80fd5b905035906106d5826106b4565b565b6106e0816106b1565b036106e757565b5f80fd5b905035906106f8826106d7565b565b91909160a08184031261076557610713835f83016103b5565b9261072181602084016106c8565b9261072f82604085016106eb565b9261073d83606083016103b5565b92608082013567ffffffffffffffff81116107605761075c92016105c8565b9091565b61020f565b61020b565b610773906106b1565b9052565b91602061079892949361079160408201965f83019061076a565b019061076a565b565b346107d2576107b96107ad3660046106fa565b94939093929192611517565b906107ce6107c5610201565b92839283610777565b0390f35b610207565b91906040838203126107ff57806107f36107fc925f8601610264565b936020016103b5565b90565b61020b565b346108335761081d6108173660046107d7565b9061195b565b610825610201565b8061082f8161040a565b0390f35b610207565b346108695761086561085461084e366004610446565b916119ab565b61085c610201565b91829182610357565b0390f35b610207565b919060a0838203126108bf57610886815f850161023e565b926108948260208301610264565b926108bc6108a58460408501610264565b936108b381606086016106c8565b936080016106c8565b90565b61020b565b346108f6576108e06108d736600461086e565b93929092611ab8565b6108e8610201565b806108f28161040a565b0390f35b610207565b61090481610345565b0361090b57565b5f80fd5b9050359061091c826108fb565b565b9190604083820312610946578061093a610943925f860161023e565b9360200161090f565b90565b61020b565b3461097c5761097861096761096136600461091e565b90611cce565b61096f610201565b91829182610357565b0390f35b610207565b90916060828403126109b6576109b361099c845f850161023e565b936109aa816020860161023e565b93604001610264565b90565b61020b565b346109ec576109e86109d76109d1366004610981565b91611d28565b6109df610201565b918291826102ad565b0390f35b610207565b919091604081840312610a3257610a0a835f830161023e565b92602082013567ffffffffffffffff8111610a2d57610a2992016105c8565b9091565b61020f565b61020b565b610a423660046109f1565b91611d71565b9190604083820312610a705780610a64610a6d925f8601610575565b936020016103b5565b90565b61020b565b34610a8b57610a85366004610a48565b90611dff565b610207565b34610aa557610aa0366004610584565b611e4c565b610207565b909182601f83011215610ae45781359167ffffffffffffffff8311610adf576020019260208302840111610ada57565b6105c4565b6105c0565b6105bc565b90602082820312610b1a575f82013567ffffffffffffffff8111610b1557610b119201610aaa565b9091565b61020f565b61020b565b34610b3557610b2f366004610ae9565b90611e5d565b610207565b34610b6957610b53610b4d3660046109f1565b91611ea9565b610b5b610201565b80610b658161040a565b0390f35b610207565b90602082820312610b8757610b84915f0161023e565b90565b61020b565b34610bba57610ba4610b9f366004610b6e565b611ebe565b610bac610201565b80610bb68161040a565b0390f35b610207565b90602082820312610bf0575f82013567ffffffffffffffff8111610beb57610be792016105c8565b9091565b61020f565b61020b565b34610c0b57610c05366004610bbf565b90611edc565b610207565b9190604083820312610c385780610c2c610c35925f860161023e565b9360200161023e565b90565b61020b565b34610c6e57610c6a610c59610c53366004610c10565b90611f39565b610c61610201565b91829182610357565b0390f35b610207565b34610c8957610c83366004610ae9565b90611f6a565b610207565b909182601f83011215610cc85781359167ffffffffffffffff8311610cc3576020019260208302840111610cbe57565b6105c4565b6105c0565b6105bc565b9160a083830312610d6a57610ce4825f850161023e565b92610cf2836020830161023e565b92604082013567ffffffffffffffff8111610d655781610d13918401610c8e565b929093606082013567ffffffffffffffff8111610d605783610d36918401610c8e565b929093608082013567ffffffffffffffff8111610d5b57610d5792016105c8565b9091565b61020f565b61020f565b61020f565b61020b565b610d78906102f8565b9052565b9190610d8f905f60208501940190610d6f565b565b34610dcb57610dc7610db6610da7366004610ccd565b96959095949194939293611fba565b610dbe610201565b91829182610d7c565b0390f35b610207565b9091606082840312610e0557610e02610deb845f850161023e565b93610df98160208601610264565b936040016106c8565b90565b61020b565b34610e3957610e23610e1d366004610dd0565b91611fd6565b610e2b610201565b80610e358161040a565b0390f35b610207565b34610e5457610e4e366004610a48565b9061203b565b610207565b608081830312610e9a57610e6f825f830161023e565b92610e97610e80846020850161023e565b93610e8e8160408601610264565b936060016103b5565b90565b61020b565b34610ed157610ebb610eb2366004610e59565b92919091612096565b610ec3610201565b80610ecd8161040a565b0390f35b610207565b9190604083820312610efe5780610ef2610efb925f860161023e565b936020016103b5565b90565b61020b565b34610f3257610f1c610f16366004610ed6565b906120df565b610f24610201565b80610f2e8161040a565b0390f35b610207565b91909160a081840312610fa257610f50835f830161023e565b92610f5e816020840161023e565b92610f6c82604085016103b5565b92610f7a83606083016103b5565b92608082013567ffffffffffffffff8111610f9d57610f9992016105c8565b9091565b61020f565b61020b565b34610fde57610fda610fc9610fbd366004610f37565b94939093929192612108565b610fd1610201565b91829182610d7c565b0390f35b610207565b3461101757611013611002610ff9366004610e59565b92919091612122565b61100a610201565b91829182610357565b0390f35b610207565b5f80fd5b5f90565b61103f9161103a91611034611020565b5061214c565b612171565b90565b5f90565b90565b60e01b90565b61106361105e61106892611046565b611049565b6102f8565b90565b90565b61108261107d6110879261106b565b611049565b6102f8565b90565b611092611042565b50806110aa6110a46301ffc9a761104f565b916102f8565b149081156110b7575b5090565b90506110cf6110c9630f632fb361106e565b916102f8565b145f6110b3565b9161110c9391926110e56121ec565b611103336110f4838790612222565b6110fd8661227a565b916122f1565b92909192612387565b565b90916111279261111c611042565b503392909192612446565b600190565b9161115d926111396121ec565b611155336111468361253b565b61114f8561227a565b916122f1565b91909161254f565b565b5f90565b90565b90565b61117d61117861118292611163565b611166565b610213565b90565b61118e90611169565b90565b6111a56111a06111aa92611163565b611166565b61024d565b90565b156111b55750565b6111d0905f91829163833bded760e01b8352600483016102ad565b0390fd5b6111e86111e36111ed9261024d565b611166565b61024d565b90565b6111ff611205919392936111d4565b926111d4565b90565b634e487b7160e01b5f52601160045260245ffd5b61122b6112319193929361024d565b9261024d565b820391821161123c57565b611208565b61124a5f611191565b90565b61126161125c61126692611163565b611166565b6106b1565b90565b61127861127e919392936106b1565b926106b1565b91828103925f82851281831216928513911215161761129957565b611208565b6112a6611020565b506112af6121ec565b6112b7612735565b9193929390916112c561115f565b50846112e16112db6112d65f611185565b61021e565b9161021e565b145f146113215750505090506112f5611241565b9061131f34925b33906113195f61131461130e8861227a565b9161124d565b611269565b916122f1565b565b61133f346113376113315f611191565b9161024d565b1434906111ad565b611347611020565b505f14611381579061137c61137661136d61131f94611367888290612222565b97612874565b5b95928661121c565b946128e5565b6112fc565b5061131f9061137c6113a8856113a261139c6113769861253b565b9161280d565b906111f0565b95909561136e565b5f90565b6113bc6113b0565b50545f5260205ff35b916113ff95939194926113d66121ec565b6113f4336113e5838990612222565b6113ee8661227a565b916122f1565b9490919293946128f8565b565b5f90565b61141961141461141e92610213565b611166565b610213565b90565b61142a90611405565b90565b61143690611421565b90565b6114429061021e565b9052565b9190611459905f60208501940190611439565b565b156114635750565b61147e905f918291631569cf5360e01b835260048301611446565b0390fd5b61148b5f61124d565b90565b90565b61ffff1690565b6114ac6114a76114b19261148e565b611166565b611491565b90565b6114bf610206611498565b90565b6114d66114d16114db92611491565b611166565b61024d565b90565b6114e75f611191565b90565b90565b6115016114fc611506926114ea565b611166565b611491565b90565b6115146101c86114ed565b90565b505050505050611525611401565b5061152e611401565b5061157d61153b3061142d565b61156d6115677f000000000000000000000000000000000000000000000000000000000000000061021e565b9161021e565b146115773061142d565b9061145b565b6115856121ec565b61158d6129a0565b611595612b46565b611904575b6115a2612b75565b6115ab81612bda565b6115b3612c19565b6115bb612d00565b6118f7575b6115c8612f61565b6115d061325f565b6118ea575b6115ee6115e061328e565b6115e86132a1565b906132b4565b80156118cb575b6118aa57611601611042565b5b6001156118a4576116326116146132a1565b61162c6116276116226114b4565b6114c2565b6132f3565b906132b4565b6117e4575b6116606116426132a1565b61165a611655611650611509565b6114c2565b6132f3565b906139c3565b80156117c5575b801561177b575b5f146117685761167c613eeb565b611762575b61169a61168c6132a1565b61169461328e565b906132b4565b61175c576116b76116a96132c1565b6116b1611482565b906132d1565b1561160257505b6116c66145f0565b6116ce612d00565b61174f575b6116db6147bf565b6116eb6116e661480d565b61481d565b9161172b6116ff6116fa614830565b61481d565b926117133361170c614840565b87916122f1565b6117263361171f614850565b86916122f1565b6132de565b611733614860565b61173b6148b6565b611742575b565b61174a6148d3565b611740565b6117576146f3565b6116d3565b506116be565b506116be565b611770613a4b565b1561168157506116be565b50611784613a19565b6117be6117b86117b361179561328e565b6117ad6117a86117a36114b4565b6114c2565b6132f3565b90613a2c565b610345565b91610345565b141561166e565b506117df6117d16139e6565b6117d96139f9565b90613a0c565b611667565b61180c906118016117f3613307565b6117fb6114de565b9061331a565b611897575b15610345565b611820575b6118196134e1565b6001611637565b61185961185461184f6118316133b5565b61184961184461183f611509565b6114c2565b6132f3565b906133c4565b6133ea565b6133f7565b61189261188d61188861186a6133b5565b61188261187d6118786114b4565b6114c2565b6132f3565b906133c4565b6133ea565b6133fd565b611811565b61189f613339565b611806565b506116be565b6118b3906132de565b5f906118c86118c25f9361124d565b9261124d565b90565b506118e56118d76132c1565b6118df611482565b906132d1565b6115f5565b6118f261327c565b6115d5565b6118ff612d4f565b6115c0565b61190c612b63565b61159a565b9061191c91016106b1565b90565b9190611932905f6020850194019061076a565b565b1561193c5750565b611957905f918291633733429b60e21b83526004830161191f565b0390fd5b61196f6119a99261196a6121ec565b61227a565b6119a061197d3384906148e5565b611988838290611911565b61199a6119945f61124d565b916106b1565b14611934565b339190916122f1565b565b90916119da926119b9611042565b506119d06119c933858491614903565b8390614935565b3392909192614944565b600190565b6119e8906111d4565b9052565b916020611a0d929493611a0660408201965f8301906119df565b01906119df565b565b15611a18575050565b611a325f928392633fa491e760e21b8452600484016119ec565b0390fd5b916020611a57929493611a5060408201965f830190611439565b01906119df565b565b15611a62575050565b611a7c5f928392633db7aa8160e21b845260048401611a36565b0390fd5b90611a8b910361024d565b90565b611aa2611a9d611aa7926106b1565b611166565b61024d565b90565b90611ab5910161024d565b90565b9293909193611ac56121ec565b611adb611ad386859061499a565b848791611a0f565b611ae7848487916149a7565b92611b5e611af4856149d8565b919084611b09611b035f61124d565b916106b1565b12155f14611c2957611b2490611b1e86611a8e565b90611aaa565b915b85611b39611b335f61124d565b916106b1565b12155f14611be157611b5490611b4e87611a8e565b90611aaa565b955b828791614b3f565b611b6a338385916122f1565b611b76338886916122f1565b82611b89611b835f61124d565b916106b1565b03611bc9575b50505080611ba5611b9f5f61124d565b916106b1565b03611bb1575b50505050565b611bc093339390919293614be3565b5f808080611bab565b611bd99233928790919293614be3565b5f8080611b8f565b611c2390611bed611020565b50865f03611bfd8a8c8391614a35565b611c1d82611c13611c0d8461024d565b9161024d565b10158b8d91611a59565b90611a80565b95611b56565b611c6b90611c35611020565b50855f03611c458a878391614a35565b611c6582611c5b611c558461024d565b9161024d565b10158b8891611a59565b90611a80565b91611b26565b60ff1690565b611c8b611c86611c9092611163565b611166565b611c71565b90565b90565b611caa611ca5611caf92611c93565b611166565b611c71565b90565b611cc6611cc1611ccb92611c71565b611166565b61024d565b90565b611d1291611cda611042565b50611d09611ce9338490614c3d565b825f14611d1757611d03611cfd6001611c96565b5b611cb2565b90614935565b33919091614c63565b600190565b611d03611d235f611c77565b611cfe565b90611d4792611d4292611d39611020565b50919091614903565b612171565b90565b606090565b15611d5657565b5f62ef38f560e61b815280611d6d6004820161040a565b0390fd5b9050611d889150611d80611d4a565b503390614d22565b63d4e27d3b60e01b60805233608452604060a4525f806064600460243501803590602082019060c437016080346004355af115611df257611de2611dca614dc5565b611ddc611dd65f611191565b9161024d565b14611d4f565b611dea614de1565b3d5f803e3d5ff35b3d5f803e3d5ffd5b606090565b611e07611dfa565b5060405191600160206040858460051b948382528382015201928301925b845481520192018382841015611e4657506001602083949091929450611e25565b80830390f35b611e546113b0565b505c5f5260205ff35b90611e66611dfa565b50604051916020806040858281528583820152019360051b840192935b84355481520192018382841015611ea35750602080839490929450611e83565b80830390f35b5f9250829150816044359182606483375af450565b611ed5611eda91611ed0815f90614e73565b61280d565b6128e5565b565b5050611ee6611401565b50611eef611401565b5060405f602060807f0000000000000000000000000000000000000000000000000000000000000000600480350180359384910183375af415611f315760405ff35b3d5f803e3d5ffd5b611f5491611f4f91611f49611042565b50614c3d565b612171565b611f66611f605f611191565b9161024d565b1190565b90611f73611dfa565b50604051916020806040858281528583820152019360051b840192935b84355c81520192018382841015611fb05750602080839490929450611f90565b80830390f35b5f90565b5050505050505050611fca611fb6565b5063bc197c8160e01b90565b9161201c92611fe36121ec565b81611ff6611ff05f61124d565b916106b1565b12155f1461201e57612012908361200c84611a8e565b91614f7c565b5b339190916122f1565b565b6120369061202a611020565b50825f03849091614f0c565b612013565b612043611dfa565b5060405191600160206040858460051b948382528382015201928301925b845c8152019201838284101561208257506001602083949091929450612061565b80830390f35b9061209391036106b1565b90565b906120d7906120c76120be6120dd966120ad6121ec565b6120b986888391614a35565b61227a565b938585916122f1565b92916120d25f61124d565b612088565b916122f1565b565b61210691612101916120f381600190614e73565b6120fc82614fee565b612874565b6128e5565b565b505050505050612116611fb6565b5063f23a6e6160e01b90565b91612147939192612131611042565b5061213e81838591614a35565b92909192612446565b600190565b612154611020565b506b3c244899b5fa3e971383ac4b6020526014525f5260405f2090565b612179611020565b505490565b90565b61219561219061219a9261217e565b611166565b61024d565b90565b6121c67fd71f1cf4f9d9f82ef0f0a7247563f6632677ada0e0f8f0d8734b4d2327da39e9612181565b90565b156121d057565b5f63892e4e5760e01b8152806121e86004820161040a565b0390fd5b6122206121ff6121fa61219d565b615001565b61221961221361220e5f611185565b61021e565b9161021e565b14156121c9565b565b61222a61115f565b506014525f5260345f2090565b1561223f5750565b61225a905f918291630d643c8160e21b8352600483016102ad565b0390fd5b61227261226d6122779261024d565b611166565b6106b1565b90565b6122b990612286611401565b506122b4816122ab6122a56122a060018060ff1b03611a8e565b61024d565b9161024d565b11158290612237565b61225e565b90565b6122cb6122d1919392936106b1565b926106b1565b808301925f828512158183121692851291121516176122ec57565b611208565b919091816123076123015f61124d565b916106b1565b1461238257612356926123199161500e565b61232c61232582615033565b92836122bc565b918261234061233a5f61124d565b916106b1565b145f14612358575061235061506e565b5b61509c565b565b61236a6123645f61124d565b916106b1565b14612375575b612351565b61237d615040565b612370565b505050565b915f80936020956064946304ade6db60e11b946040519586526004860152602485015260448401525af160203d1460015f51141616156123c357565b3d5f803e3d5ffd5b156123d257565b5f63a7cd662f60e01b8152806123ea6004820161040a565b0390fd5b6fffffffffffffffffffffffffffffffff1690565b61241761241261241c926123ee565b611166565b61024d565b90565b156124275750565b612442905f918291630610d90760e11b8352600483016102ad565b0390fd5b9161253993916124718161246a61246461245f5f611185565b61021e565b9161021e565b14156123cb565b6124ba61247f85849061214c565b6124b461248b82612171565b916124ac836124a261249c8a61024d565b9161024d565b1015898891611a59565b918690611a80565b90614935565b61252e6124c882849061214c565b6125286124d482612171565b916125208361250d6125076125026fffffffffffffffffffffffffffffffff6124fd8d91612403565b611a80565b61024d565b9161024d565b111561251a858a90611aaa565b9061241f565b918690611aaa565b90614935565b3393909192936150c2565b565b61254361115f565b5060018060a01b031690565b8061256a61256461255f5f611185565b61021e565b9161021e565b145f1461258a57505f80809381935af115612582575b565b3d5f803e3d5ffd5b60445f8080936020959663a9059cbb60e01b976040519884526004526024525af1601f3d1160015f5114163d151716156125c657604052612580565b3d5f803e3d5ffd5b5f90565b90565b6125e96125e46125ee926125d2565b611166565b61024d565b90565b61261a7f9b9b0454cadcb5884dd3faa6ba975da4d2459aa3f11d31291a25a8358f84946c6125d5565b90565b61263161262c61263692610213565b611166565b61024d565b90565b61264d6126486126529261024d565b611166565b610213565b90565b90565b61266c61266761267192612655565b611166565b611c71565b90565b1c90565b6126979061269161268b61269c94611c71565b9161024d565b90612674565b61024d565b90565b90565b6126b66126b16126bb9261269f565b611166565b61024d565b90565b6126e77f53dc9bf46bebdca9be947ee80674b58899973aac1948a8396714431da6d4f1666126a2565b90565b90565b6127016126fc612706926126ea565b611166565b61024d565b90565b6127327ff712c2fa585715e22c7fcc833629ce4482ad96496ecd08f3a14847183c4ef4ed6126ed565b90565b61273d6125ce565b50612746611020565b61274e611020565b612756611042565b6127666127616125f1565b615119565b936127886127838661277d60018060a01b0361261d565b16612639565b611421565b94856127a461279e6127995f611185565b61021e565b9161021e565b036127ad575b50565b9092506127c591506127bf60a0612658565b90612678565b6127d76127d15f611191565b9161024d565b11806127f5575b6127ee6127e9612709565b615119565b915f6127aa565b91506128076128026126be565b615119565b916127de565b5f6024818060209461281d611020565b506370a0823160e01b8252306004525af160203d14161561286c575f519061286a8261286161285b6fffffffffffffffffffffffffffffffff612403565b9161024d565b1115839061241f565b565b3d5f803e3d5ffd5b5f60448180602094612884611020565b50627eeac760e11b96604051978352306004526024525af160203d1416156128dd576040525f51906128db826128d26128cc6fffffffffffffffffffffffffffffffff612403565b9161024d565b1115839061241f565b565b3d5f803e3d5ffd5b6128f6906128f1612709565b615126565b565b925f955085946020918693637921219560e11b9560405196875230600488015260248701526044860152606485015260a0608485015203803590816020019060a485013760c401925af11561294957565b3d5f803e3d5ffd5b5f90565b5f90565b5f90565b156129655750565b612980905f91829163805cfd4b60e01b8352600483016102ad565b0390fd5b61299861299361299d9261024d565b611166565b611491565b90565b6129a933615129565b6129b1611020565b506129bd60043561513c565b6129c5612951565b506024356f7fffffffffffffffffffffffffffffff5f038112612b2d575b6f7fffffffffffffffffffffffffffffff8113612b11575b612a0a906001607f1b02615141565b612a12612955565b50612a1e604435615147565b612a26611020565b5060643560801c6f7fffffffffffffffffffffffffffffff8111612af5575b612a4e9061514d565b60743560801c60028111612aed575b61015053612a69612959565b50612a72611020565b50612a7b611020565b50612a84611020565b50612aeb608435600401612ae661080891612ae1612adc8235612ab6818701968260208060a48b030397018237615160565b612ad781612ace612ac861ffff6114c2565b9161024d565b1115829061295d565b612984565b615166565b61517b565b615180565b565b506002612a5d565b50612a4e6f7fffffffffffffffffffffffffffffff9050612a45565b50612a0a6f7fffffffffffffffffffffffffffffff90506129fb565b506f7fffffffffffffffffffffffffffffff5f036129e3565b612b4e611042565b505f610100612b5b6133b5565b60a01c161190565b612b73632c9a874560e11b6151de565b565b612b7d611020565b50612b866133b5565b7f08afe526398486e38896d620563771687e7d20a3b0d01f72483eeb2e7d93a48e6020525f5260405f2090565b15612bbb5750565b612bd6905f9182916376f8d70760e01b8352600483016102ad565b0390fd5b612c1390612c0b612bea82615119565b612bfc612bf65f611191565b9161024d565b14612c056133b5565b90612bb3565b5f1990615126565b565b5f90565b612c2161526a565b612cf2602060a4612c38612c3361530e565b61531e565b612c4181615348565b612c62612c5d612c4f61535a565b612c5761536d565b90615380565b6153a7565b6001612c9c612c70836153bc565b612c79816153db565b612c8e612c846153f0565b9485908391615400565b612c96613307565b90615417565b612ca4612c15565b500360061b01612cb38161543d565b60026001612cbf615443565b612cc881615519565b612cd0611020565b5003811c0160051b01612ce28161552e565b612cea611020565b50030361517b565b565b612cfd5f611191565b90565b612d08611042565b50612d22612d1461535a565b612d1c612cf4565b90615533565b8015612d2c575b90565b50612d46612d38615540565b612d40612cf4565b90615533565b612d29565b5f90565b612d57612d4b565b50612d60612d4b565b50612d69612951565b50612d72612951565b50612de3612d8e612d89612d846133b5565b615553565b612171565b612dde62ffffff8260d01c1691612dd98160e81c612dd46cffffffffffffffffffffffffff8416607f1b936cffffffffffffffffffffffffff60681b1660171b95615579565b61558e565b6155a3565b6155a9565b565b90565b612dfc612df7612e0192612de5565b611166565b611491565b90565b612e0f610760612de8565b90565b612e26612e21612e2b92611c93565b611166565b6106b1565b90565b612e386001612e12565b90565b90565b612e52612e4d612e5792612e3b565b611166565b6106b1565b90565b612e6c68010000000000000000612e3e565b90565b90565b612e86612e81612e8b92612e6f565b611166565b6106b1565b90565b612e9f678000000000000000612e72565b90565b612eb6612eb1612ebb92611c93565b611166565b61024d565b90565b612ed2612ecd612ed7926106b1565b611166565b6106b1565b90565b612ee390612ebe565b9052565b916020612f08929493612f0160408201965f830190612eda565b0190612eda565b565b15612f13575050565b612f2d5f9283926316b77c3360e31b845260048401612ee7565b0390fd5b612f40612f4691939293612ebe565b92612ebe565b90565b612f58612f5e91939293612ebe565b92612ebe565b90565b613167612f74612f6f6155af565b6155cc565b613037613032612f92612f8d612f88612e04565b6114c2565b6132f3565b61302c612fa782612fa1612e2e565b90615627565b613026613015612fdd612fc2612fbb612e5a565b8590615634565b93612fd7612fd0828c615634565b8890615641565b90615627565b61300f612ff9612feb612e8e565b612ff361564e565b90615627565b6130096130046133b5565b61565e565b90615634565b90615675565b93613021838a90615634565b615641565b90615634565b9061569b565b6156c2565b61305061304261328e565b61304a6132a1565b90613a2c565b90613059611020565b506101505160f81c8061307561306f6001612ea2565b9161024d565b1115613219575b50613086826156d7565b6130a76130a26130946132c1565b61309c611482565b906156e0565b6156ff565b815f14613204576130ca90925b926130c56130c0611509565b6114c2565b615708565b5f146131795761310e6130ed6130e66130e1611509565b6114c2565b5f90615722565b6131086131006130fb612e04565b6114c2565b600190615722565b9061576b565b61314c61312c61312461311f611509565b6114c2565b600190615722565b61314661313f61313a612e04565b6114c2565b5f90615722565b9061573b565b905b61315e6131596114b4565b6114c2565b929091926157d0565b61316f6157ea565b61317761596f565b565b6131fe6131b961319961319261318d611509565b6114c2565b5f90615722565b6131b36131ac6131a7612e04565b6114c2565b5f90615722565b9061573b565b6131f86131d76131cf6131ca611509565b6114c2565b600190615722565b6131f26131ea6131e5612e04565b6114c2565b600190615722565b9061576b565b90612f49565b9061314e565b613211906130ca93612f31565b9290926130b4565b6132599061322f6132295f611191565b9161024d565b1161324261323c85610345565b91610345565b1461324b6132a1565b61325361328e565b91612f0a565b5f61307c565b613267611042565b505f6102006132746133b5565b60a01c161190565b61328c631c5a976960e21b6151de565b565b613296612955565b506101485160c01c90565b6132a9612955565b506106775160c01c90565b6132bc611042565b501490565b6132c9612951565b506101085190565b6132d9611042565b501490565b6132f1906132eb5f611191565b90615126565b565b6132fb612955565b505160c01c90565b5f90565b61330f613303565b506108065160f01c90565b613336916133309161332a611042565b506159fd565b15610345565b90565b6133b361335761334761530e565b6133516001612ea2565b90611aaa565b61336081615a0a565b6133ae61337461336e613307565b9261531e565b61337d81615348565b61339e61339961338b61535a565b61339361536d565b90615380565b6153a7565b6133a66153f0565b908391615400565b6153db565b565b6133bd611020565b5060d85190565b906133cd611020565b50671447e579411c2c936010526008525f5260305f2090565b5f90565b6133f26133e6565b505490565b61024452565b61026452565b61340c5f61124d565b90565b61342761342161342d92959395612ebe565b94612ebe565b92612ebe565b90565b6134395f611191565b90565b90565b61345361344e6134589261343c565b611166565b61024d565b90565b6134807b0ba4f53ea38636f85f007042540ae8ef33225e9a7ab4f4473a86d4a861343f565b90565b90565b61349a61349561349f92613483565b611166565b6106b1565b90565b6134af600160d81b613486565b90565b90565b6134c96134c46134ce926134b2565b611166565b6106b1565b90565b6134de6001606f1b6134b5565b90565b6137d06134ec613a19565b805f1461397a576135396134fe613403565b61353461352d61351f6135176135126114b4565b6114c2565b600190615722565b613527615a10565b90615a23565b915b615a81565b615a96565b61356261354c613547611509565b6114c2565b61355c6135576114b4565b6114c2565b90615aab565b805f146138b2576136406135a561358761358261357d6114b4565b6114c2565b6132f3565b61359f61359a613595612e04565b6114c2565b6132f3565b90615634565b6135e36135c26135bb6135b66114b4565b6114c2565b5f90615722565b6135dd6135d56135d0612e04565b6114c2565b600190615722565b9061576b565b6136216136016135f96135f46114b4565b6114c2565b600190615722565b61361b61361461360f612e04565b6114c2565b5f90615722565b9061573b565b919091905b916136376136326114b4565b6114c2565b929091926157d0565b61377161376c61364e615ab2565b6136a161367a61365c6133b5565b61367461366f61366a6114b4565b6114c2565b6132f3565b906133c4565b613683816133ea565b9061369682613690613430565b90615ac2565b613849575b506133fd565b6137206136e96136af615b29565b6136e36136ba615b3d565b6136dd6136cd6136c8611509565b6114c2565b6136d78b15610345565b90615722565b90615bad565b90615c40565b6136f2816133f7565b61371b6136fd6133b5565b61371561371061370b611509565b6114c2565b6132f3565b906133c4565b615b26565b61376661373d61372e6134d1565b92613737615ab2565b90615c4d565b61376061375061374b611509565b6114c2565b61375a8815610345565b90615722565b90615c79565b90615cf9565b615d1f565b6137a261379d61377f6133b5565b61379761379261378d611509565b6114c2565b6132f3565b90615d34565b615d56565b905f14613823576137c56137ca916137c06137bb615d63565b61225e565b612088565b611a8e565b5b615d76565b6138116137db6155af565b6137f36137ee6137e9611509565b6114c2565b6132f3565b61380b6138066138016114b4565b6114c2565b6132f3565b91615db7565b6138196157ea565b61382161596f565b565b61383f6138449161383a613835615d63565b61225e565b611911565b611a8e565b6137cb565b90506138ac6138a461385961345b565b61387361386c6138676114b4565b6114c2565b8a90615722565b61389e61387e6134a2565b61389861389161388c612e04565b6114c2565b5f90615722565b90615acf565b91615adc565b918290615b26565b5f61369b565b6136406139736138f16138d36138ce6138c96114b4565b6114c2565b6132f3565b6138eb6138e66138e1612e04565b6114c2565b6132f3565b90615627565b61392e61390e6139076139026114b4565b6114c2565b5f90615722565b61392861392161391c612e04565b6114c2565b5f90615722565b9061573b565b61396d61394c61394461393f6114b4565b6114c2565b600190615722565b61396761395f61395a612e04565b6114c2565b600190615722565b9061576b565b9161340f565b9091613626565b6135396135346139bc6139ae6139a06139996139946114b4565b6114c2565b5f90615722565b6139a8615a10565b90615a23565b6139b6613403565b90612f49565b919061352f565b6139df916139d9916139d3611042565b506132b4565b15610345565b90565b5f90565b6139ee6139e2565b506101525160281c90565b613a016139e2565b5061016d5160281c90565b613a14611042565b501290565b613a21611042565b506101505160ff1c90565b613a4891613a4291613a3c611042565b50615dd5565b15610345565b90565b613a53611042565b90613a5c615d63565b613a75613a6f613a6a615de2565b61024d565b9161024d565b10613d7057613a9a613a95613a90613a8b6114b4565b6114c2565b6132f3565b615df4565b613adb613aa56155af565b613abd613ab8613ab36114b4565b6114c2565b6132f3565b613ad5613ad0613acb611509565b6114c2565b6132f3565b91615db7565b613af4613ae6615b3d565b613aee615d63565b90615e09565b613afc612951565b50613b05612951565b50613b0e613a19565b5f14613d1957613b64613b2d613b22615f48565b836001905f92615eca565b91613b59613b4b613b44613b3f6114b4565b6114c2565b5f90615722565b613b53615f35565b90615a23565b905f90600192615eca565b905b613b6e613a19565b5f14613ccf57613bb9613ba2613b94613b8d613b886114b4565b6114c2565b5f90615722565b613b9c615a10565b90615a23565b613bb4613bad613403565b915b615a81565b615a96565b613bf3613bee613bc7615b3d565b613be0613bd2615f35565b613bda615a10565b90615acf565b613be8615a10565b91615f5b565b615d1f565b613bfb615d63565b613c0d613c075f611191565b9161024d565b14613cc75790613c2991613c1f612d00565b613c2b575b616123565b565b613c5682613c48613c3a615f35565b613c42615a10565b90615acf565b613c50615f35565b91615f8c565b613c5e613a19565b5f14613c9657613c8b613c84613c9092613c766160e8565b613c7e6160f8565b91616009565b91906155a3565b615579565b5b613c24565b613cbd613cb6613cc292613ca8615fe6565b613cb0615ff6565b91616009565b91906155a9565b61558e565b613c91565b505090505f90565b613bb9613bb4613d12613ce0613403565b613d0c613cfe613cf6613cf16114b4565b6114c2565b600190615722565b613d06615a10565b90615a23565b90612f49565b9190613baf565b613d6a613d31613d27615e16565b835f905f92615eca565b91613d5e613d50613d48613d436114b4565b6114c2565b600190615722565b613d58615f35565b90615a23565b90600190600192615eca565b90613b66565b9050600190565b90565b613d8e613d89613d9392613d77565b611166565b611491565b90565b613da161038b613d7a565b90565b90565b613dbb613db6613dc092613da4565b611166565b611491565b90565b613dce610522613da7565b90565b90565b613de8613de3613ded92613dd1565b611166565b611491565b90565b613dfb6103c9613dd4565b90565b90565b613e15613e10613e1a92613dfe565b611166565b611491565b90565b613e28610558613e01565b90565b90565b613e42613e3d613e4792613e2b565b611166565b611491565b90565b613e556104c9613e2e565b90565b90565b613e6f613e6a613e7492613e58565b611166565b611491565b90565b613e82610507613e5b565b90565b90565b613e9c613e97613ea192613e85565b611166565b611491565b90565b613eaf610449613e88565b90565b613ebb5f611191565b90565b90565b613ed5613ed0613eda92613ebe565b611166565b611491565b90565b613ee8610293613ec1565b90565b613ef3611042565b613efb615d63565b613f14613f0e613f09615de2565b61024d565b9161024d565b106145ea57613f216162c1565b613f29616462565b905b613f4d613f46613f41613f3c613d96565b6114c2565b6132f3565b83906139c3565b156145e35750613f5b6164cf565b9081613f6d57613f4d90919050613f2b565b505b613f77613a19565b613fc1613f8a613f85613dc3565b6114c2565b613fbb613fa5613fa0613f9b613dc3565b6114c2565b6168c7565b845f146145d557613fb4615f48565b905b6168d7565b906168fe565b613fea613fd4613fcf613df0565b6114c2565b613fe4613fdf613d96565b6114c2565b90615aab565b61401b613ffd613ff8613e1d565b6114c2565b61401561401061400b613dc3565b6114c2565b6168c7565b906168fe565b61404461402e614029613e4a565b6114c2565b61403e614039613d96565b6114c2565b90615aab565b61405d61404f615b3d565b614057615d63565b90615e09565b6140656139e2565b5061406e6139e2565b50614077612951565b50614080612951565b5061409961409461408f613dc3565b6114c2565b6168c7565b6140b16140ac6140a7613e77565b6114c2565b6168c7565b90835f14614599576140cb826140c5615e16565b9061690e565b926141066140f16140e46140dd615f48565b8590615acf565b5b95938388905f92615eca565b93826140fd8815610345565b90600192615eca565b938293816141126134a2565b9761411b6134a2565b61415461413661413161412c613d96565b6114c2565b6132f3565b61414e6141496141446114b4565b6114c2565b6132f3565b906132b4565b5f14614383575061426398505f146143115750916141bd61418c61425e95936141866142599691856001905f92615eca565b906176a4565b956141b86141aa6141a361419e6114b4565b6114c2565b5f90615722565b6141b2615a10565b90615a23565b6168d7565b6141c5613403565b6141cd613403565b8483945b5b6141db85615a81565b6141e484615a96565b6142046141ff6141fa6141f5613d96565b6114c2565b6132f3565b615df4565b61422d61420f6155af565b61422761422261421d613d96565b6114c2565b6132f3565b906172aa565b614235612d00565b614282575b505050505061425261424a615b3d565b928290615acf565b9091615f5b565b615d1f565b616123565b61426d8115610345565b614275575b90565b61427d6176f9565b614272565b6142da614302946142fb946142d56142d06142c96142b36142a96143079c6142e59a615acf565b885f905f92615eca565b6142bb6160e8565b6142c36160f8565b91616009565b91906155a3565b615579565b615acf565b906001905f92615eca565b6142ed615fe6565b6142f5615ff6565b91616009565b91906155a9565b61558e565b5f8080808061423a565b94509161436861433661425e956143306142599691855f905f92615eca565b906176a4565b9561436361435561434d6143486114b4565b6114c2565b600190615722565b61435d615a10565b90615a23565b6168d7565b614370613403565b90614379613403565b93809482946141d1565b959193929694906143b36143a56143a061439b613ea4565b6114c2565b61691f565b6143ad613eb2565b90616933565b8061455a575b6143d4575b509261425e959261425995926142639a956141d2565b939850969450925b6143e78189906169ac565b6143dc57614263976143f891616f23565b9190926144246144066155af565b61441e614419614414613df0565b6114c2565b6132f3565b906172aa565b61442c611042565b5061443b85858490869261745f565b9791969096975f146144ca5761446b614461614459888b8b916175a7565b928390615acf565b8b5f905f92615eca565b90925f146144ac579161449b61425e9896949261449561425999979561448f611482565b92617627565b90617634565b995b5b92959a5092955092956143be565b916144c461425997959361425e999795939b9a6176a4565b9861449d565b91929098976145056144fa6144ec6144e4888c8c916175a7565b948590615acf565b6144f4613403565b90617601565b8a6001905f92615eca565b91935f1461452a579161452361425e989694926142599896946176a4565b985b61449e565b97989161455461425997959361454e61425e9a989694614548611482565b92617627565b90617634565b99614525565b5061459461457661457161456c613d96565b6114c2565b6132f3565b61458e614589614584613edd565b6114c2565b6132f3565b906139c3565b6143b9565b6140f1926141066145cd6145b56145ae615e16565b8590615acf565b6145c7866145c1615f48565b9061690e565b90612f49565b9590956140e5565b6145dd615e16565b90613fb6565b9050613f6f565b50600190565b6146006145fb6133b5565b61770f565b61460861530e565b61461c61461661ffff6114c2565b9161024d565b10155f1461465c5761065551600182035561463861ffff617735565b5b602061065501518155604061065501516001820155600260606106550151910155565b61467461466f61466a61530e565b612984565b617735565b614639565b61468290612ebe565b9052565b9190614699905f60208501940190614679565b565b156146a35750565b6146be905f918291631718db0760e31b835260048301614686565b0390fd5b90565b6146d96146d46146de926146c2565b611166565b6106b1565b90565b6146f060018060e71b036146c5565b90565b6147bd6146fe6160e8565b61471a6147138261470d611482565b906156e0565b829061469b565b61473661472f826147296146e1565b9061774a565b829061469b565b61473e615fe6565b61475a6147538261474d611482565b906156e0565b829061469b565b61477661476f826147696146e1565b9061774a565b829061469b565b61477e6160f8565b90614787615ff6565b906147986147936133b5565b615553565b936147a1611020565b50607f1c90607f1c60681b179160d01b9060e81b171790614935565b565b6147cf6147ca6133b5565b617769565b6147d76155af565b60016147e161778f565b0360021c820191815181555b8281106147f957505050565b6001602091019101918251825591906147ed565b614815612951565b506101885190565b614825611401565b505f03607f1d5f0390565b614838612951565b506101a85190565b61484861115f565b506106e05190565b61485861115f565b506107005190565b6148686133b5565b6148706155af565b61487861778f565b907f7b1b2e572a782739fc5ac300a50ada6a682434d210dee70c511533a0c8782ed69160031b0190815192601061068f845e3391602060108503a352565b6148be611042565b505f6104006148cb6133b5565b60a01c161190565b6148e363692181bf60e11b6151de565b565b614900916148fb916148f5611401565b5061500e565b615033565b90565b92919061490e611020565b50604051936b034105b980ba117bd0c29fe06034526028526014525f5260545f2091604052565b55565b61494190611421565b90565b61499561498361497d6149777fb3fd5071835887567a0671151121894ddccc2842f1d10bedad13e0d17cace9a794614938565b94614938565b946111d4565b9461498c610201565b918291826102ad565b0390a4565b6149a2611042565b501190565b92916149b1611020565b50604051936bc8f78086c3211e71a328e7f56040526034526020525f5260605f2091604052565b6149f3906149e4611020565b506149ed611020565b50612171565b906fffffffffffffffffffffffffffffffff82169160801c90565b15614a17575050565b614a315f92839263731555bd60e01b845260048401611a36565b0390fd5b80614a48614a423361021e565b9161021e565b03614a53575b505050565b614a66614a61823390614c3d565b612171565b614a78614a725f611191565b9161024d565b14614a83575b614a4e565b614a8f90338391614903565b614aba614a9b82612171565b9283614aaf614aa98761024d565b9161024d565b101590339091614a0e565b81614ace614ac85f1961024d565b9161024d565b03614ad9575b614a7e565b614aed92614ae79192611a80565b90614935565b5f8080614ad4565b90565b614b0c614b07614b1192614af5565b611166565b611c71565b90565b1b90565b614b3790614b31614b2b614b3c94611c71565b9161024d565b90614b14565b61024d565b90565b90614bb7614bbe9392614b7783614b6e614b686fffffffffffffffffffffffffffffffff612403565b9161024d565b1115849061241f565b614ba684614b9d614b976fffffffffffffffffffffffffffffffff612403565b9161024d565b1115859061241f565b92614bb16080614af8565b90614b18565b1790614935565b565b916020614be1929493614bda60408201965f83019061076a565b01906102a0565b565b90919293614c23614c1d614c177f56a6ca58daf8ecd992baa77cfb74dc2a696e42aa279cf8fbbc55bf3081f18d5194614938565b94614938565b946111d4565b94614c38614c2f610201565b92839283614bc0565b0390a4565b614c45611020565b506be442b523d9447037e4923f5b6020526014525f526034600c2090565b614cab614c99614c937fceb576d9f15e4e200fdb5096d64d5dfd667e16def20c1eefd14256d8e3faa26793614938565b93614938565b93614ca2610201565b91829182610357565b0390a3565b15614cb85750565b614cd3905f918291632ab8097760e01b835260048301611446565b0390fd5b90565b614cee614ce9614cf392614cd7565b611166565b61024d565b90565b614d1f7f08afe526398486e38896d620563771687e7d20a3b0d01f72483eeb2e7d93a48e614cda565b90565b90614d6b614d7892614d5e614d3d614d3861219d565b615001565b80614d58614d52614d4d5f611185565b61021e565b9161021e565b14614cb0565b614d66614cf6565b6177a2565b614d7361219d565b6177a2565b565b90565b614d91614d8c614d9692614d7a565b611166565b61024d565b90565b614dc27f5d43e4cd1a16168a103e08dc189528d374b6e2bd5c612e94553d728c80030103614d7d565b90565b614dcd611020565b50614dde614dd9614d99565b615119565b90565b614dfb614dec614cf6565b614df55f611185565b906177a2565b614e15614e0661219d565b614e0f5f611185565b906177a2565b565b15614e1e57565b5f63c0a7e46960e01b815280614e366004820161040a565b0390fd5b614e4390611405565b90565b6bffffffffffffffffffffffff1690565b614e6b614e66614e7092614e46565b611166565b61024d565b90565b614efc91614e9c82614e95614e8f614e8a5f611185565b61021e565b9161021e565b1415614e17565b614eb5614eb0614eaa6125f1565b93614e3a565b61261d565b614ec460018060a01b0361261d565b16905f14614efe57614ef4614ee46bffffffffffffffffffffffff614e57565b614eee60a0612658565b90614b18565b5b1790615126565b565b614f075f611191565b614ef5565b9091614f7a92614f67614f2084839061214c565b614f61614f2c82612171565b91614f3987868891614a35565b614f5983614f4f614f498961024d565b9161024d565b1015888791611a59565b918590611a80565b90614935565b3392614f725f611185565b9192936150c2565b565b9091614fec92614fd8614f9084839061214c565b614fa3614f9c82612171565b8590611aaa565b90614fd382614fca614fc46fffffffffffffffffffffffffffffffff612403565b9161024d565b1115839061241f565b614935565b3392614fe35f611185565b909192936150c2565b565b614fff90614ffa6126be565b615126565b565b6150096125ce565b505c90565b615016611020565b506bdc0da6920d198e2eedf81ef66020526014525f5260405f2090565b61503b611401565b505c90565b61506c61504b614d99565b615066615056614dc5565b6150606001612ea2565b90611aaa565b90615126565b565b61509a615079614d99565b615094615084614dc5565b61508e6001612ea2565b90611a80565b90615126565b565b5d565b9160206150c09294936150b960408201965f830190611439565b01906102a0565b565b936150ff6150f96150f37f1b3d7edb2e9c0b0e7c525b20aaaef0f5940d2ed71663c7d39266ecafac72885994614938565b94614938565b946111d4565b9461511461510b610201565b9283928361509f565b0390a4565b615121611020565b505c90565b5d565b601460c4015160a01c9060601b1760c452565b60d852565b61010852565b61012852565b601060f8015160801c9060801b1760f852565b61062f52565b6002610653015160101c9060f01b1761065352565b60a452565b6105ef52565b63ffffffff1690565b6151a361519e6151a892615186565b611166565b615186565b90565b6151b76151bc916101fb565b61518f565b90565b90565b6151d66151d16151db926151bf565b611166565b61024d565b90565b6151ef6151ea826151ab565b6177af565b6152016151fc60206151c2565b6177c2565b60205f61520c6177e3565b608082604461521961781f565b01925af19060203d14905f511416161561522f57565b3d5f803e3d5ffd5b6152405f61124d565b90565b1561524b5750565b615266905f918291631e657b1d60e01b8352600483016102ad565b0390fd5b61527a6152756133b5565b61770f565b8054602061065501526001810154604061065501526002810154606061065501526152c56152b76152a9615b3d565b6152b1615237565b9061782e565b6152bf6133b5565b90615243565b6152cd617851565b90816152e36152dd61ffff611491565b91611491565b145f146152f757600191500354610655525b565b50615304615309916114c2565b615a0a565b6152f5565b615316611020565b506106555190565b6153459061532a6125ce565b506153336125ce565b50309061533e6133b5565b9091617864565b90565b60016106e08061080803923c565b5f90565b615362615356565b506107f45160d01c90565b615375615356565b506107fa5160d01c90565b90615389615356565b506153958282906178cd565b5f146153a057505b90565b905061539d565b60066107f4015160301c9060d01b176107f452565b6001906153c7613303565b50816106e061080803913b030360061c0190565b600261064f015160101c9060f01b1761064f52565b6153f8612959565b506105ef5190565b916001900360061b916106e061080803600101913c565b61541f613303565b5061542b8183906178da565b5f1461543657505b90565b9050615433565b61060f52565b61544b613303565b61545b6154566133b5565b617769565b906154646155af565b9161546d6132a1565b905b8054928360c01c83811461550457508360801c8367ffffffffffffffff8216146154ef57508360401c8367ffffffffffffffff8216146154da5750600401928267ffffffffffffffff8216146154d05760209160019186520193019261546f565b9294939150505b52565b95949350905060039150019260401b906154d7565b95949350905060029150019260801b906154d7565b95949350905060019150019260c01b906154d7565b6002610651015160101c9060f01b1761065152565b604052565b61553b611042565b501190565b615548615356565b506108005160d01c90565b61555b611020565b506f5e1c6265e3e30cea650443fb20ef1ef96010525f5260305f2090565b60036105e9015160181c9060e81b176105e952565b60036105ec015160181c9060e81b176105ec52565b6105a952565b6105c952565b6155b7612c15565b5061060f5190565b6155c96001612ea2565b90565b6155d4612955565b506155dd612955565b506156026155f3826155ed6114de565b906178e7565b916155fc6155bf565b906178e7565b61560d818390613a2c565b5f1461561957905b9091565b61562291612f31565b615615565b61562f612955565b500190565b61563c612955565b500390565b615649612955565b500690565b615656612955565b506101285190565b615666612955565b5060b41c5f0b6001603b1b0290565b61567d612955565b506156898183906178fc565b5f1461569457505b90565b9050615691565b906156a4612955565b506156b08282906178fc565b5f146156bb57505b90565b90506156b8565b6008610148015160401c9060c01b1761014852565b60ff0261015053565b6156fc916156f6916156f0611042565b50617909565b15610345565b90565b60ff0261015153565b906157209161571682617973565b91929091926157d0565b565b9061572b6139e2565b5015601b02602303015160281c90565b906157446139e2565b5060018060d81b0391600160d81b82820960018060d81b03039160018060d81b0391090890565b90632ec3a85664027d117d7b7f7f6af8233bada11dd406b4458454ed9904d7af796be7aa4885b23e25b6985d49936157a16139e2565b500291027fdbb82f7041b890fe67970a62a3568cc34df9dcb17cc3a2a6a027850e7e3724f98183099102030290565b6018906020810393845195601e8301526003820152035252565b6157f2617a07565b5f146158b15761589c61589761589261588c61581c615817615812615a10565b612ebe565b611a8e565b615824613a19565b5f1461589e5761584361583e615838617a1a565b5b612ebe565b611a8e565b61585b6158566158516132c1565b612ebe565b611a8e565b61588461587f61587a61586c615b3d565b615874615d63565b90615e09565b612ebe565b611a8e565b915f93617b0e565b5b61225e565b612ebe565b617ce3565b565b61584361583e6158ac617a2a565b615839565b61589c6158976158926159576158d56158d06158cb615a10565b612ebe565b611a8e565b6158dd613a19565b5f1461595c576158fc6158f76158f1617a2a565b5b612ebe565b611a8e565b61592561592061591b61590d611482565b6159156132c1565b90617627565b612ebe565b611a8e565b61594e615949615944615936615b3d565b61593e615d63565b90615e09565b612ebe565b611a8e565b91600193617b0e565b61588d565b6158fc6158f761596a617a1a565b6158f2565b615977617a07565b5f146159c3576159c16159bb61598b615f35565b6159b561599e6159996114b4565b6114c2565b6159af6159a9613a19565b15610345565b90615722565b90615a23565b5b617cf8565b565b6159c16159f86159d1615a10565b6159f26159e46159df611509565b6114c2565b6159ec613a19565b90615722565b90615a23565b6159bc565b615a05611042565b501490565b61065552565b615a186139e2565b5061079e5160281c90565b9064f8f6376c447f28256938c4923ff15ab260970aa81f81c15e6f5ef3af38dc210569e77db1935992615a546139e2565b5002907e1561650620dabb6a84b684e2a7e5a47caa0a0905210083f0e3b551aabf84e98183099102030290565b601b61069f015160d81c9060281b1761069f52565b601b6106ba015160d81c9060281b176106ba52565b90603e915e565b615aba6133e6565b506102645190565b615aca611042565b501490565b615ad76139e2565b500390565b90615b2392615b18615b13615b0d615b08615b02615b1e97615afc6133e6565b506111d4565b95612ebe565b611a8e565b92612ebe565b611a8e565b91617d0d565b6111d4565b90565b55565b615b316133e6565b506102445190565b5f90565b615b45615b39565b5061068f5160801c90565b90565b615b67615b62615b6c92615b50565b611166565b611c71565b90565b90565b615b86615b81615b8b92615b6f565b611166565b611c71565b90565b90565b615ba5615ba0615baa92615b8e565b611166565b61024d565b90565b615c3590615c3d92615bbd6133e6565b50615c30615c2a615c1a615c15615c0f615bff615bfa7fba4f53ea38636f85f007042540ae8ef33225e9a7ab4f4473a86d4a8fdd1a5b8298612ebe565b611a8e565b615c09606e615b53565b90614b18565b94612ebe565b611a8e565b615c246027615b72565b90614b18565b92615b91565b617d9e565b9150506111d4565b90565b615c486133e6565b500190565b615c556133e6565b500390565b90565b615c71615c6c615c7692615c5a565b611166565b611c71565b90565b615cec615cd9615cf192615cf694615c8f615b39565b50615cd4615cce615cc9615cc37fba4f53ea38636f85f007042540ae8ef33225e9a7ab4f4473a86d4a8fdd1a5b82956111d4565b93612ebe565b611a8e565b92615b91565b617d9e565b915050615ce6602d615c5d565b90612678565b61225e565b612ebe565b90565b615d01615b39565b50615d0d818390617df3565b5f14615d1857505b90565b9050615d15565b601061068f015160801c9060801b1761068f52565b90615d3d611020565b5067d7cb7a927a838d416010526008525f5260305f2090565b615d5e611401565b505490565b615d6b611020565b5061067f5160801c90565b601061067f015160801c9060801b1761067f52565b90565b615da2615d9d615da792615d8b565b611166565b61024d565b90565b615db46002615d8e565b90565b919060801b9060c01b179052615dd3615dce615daa565b615519565b565b615ddd611042565b501390565b615dea611020565b5060f85160801c90565b6008610677015160401c9060c01b1761067752565b615e11615b39565b500290565b615e1e6139e2565b5061069f5160281c90565b615e3290612ebe565b9052565b615e3f90612ebe565b9052565b90959492615e8e94615e7d615e8792615e73608096615e6960a088019c5f890190614679565b6020870190615e29565b6040850190615e36565b6060830190615e29565b01906102a0565b565b94929093919415615ea2575050505050565b90615ec69291615eb0610201565b95869563059cafa160e51b875260048701615e43565b0390fd5b615f259291615ef4615efd9695615edf612951565b50615ee8611042565b50839083869192617e00565b96909615610345565b925f14615f2757615f0c617a1a565b915b615f16615a10565b92615f1f617f42565b94615e90565b565b615f2f617a2a565b91615f0e565b615f3d6139e2565b506107d95160281c90565b615f506139e2565b506106ba5160281c90565b91615f83615f7e615f78615f8995615f71615b39565b5094612ebe565b92612ebe565b611a8e565b91617fc3565b90565b615fde91615fe393615fd3615fce615fc8615fc3615fbd615fb8615fd998615fb2612951565b50612ebe565b611a8e565b95612ebe565b611a8e565b92612ebe565b611a8e565b91617d0d565b61225e565b612ebe565b90565b615fee612951565b506105c95190565b615ffe612d4b565b506105ec5160e81c90565b929092616014612951565b5061601d612d4b565b92616026615540565b9161602f61535a565b616037612951565b50836001602f1b03025f19600160a21b5f196001605e1b8486095f19035f19858709080993602f1b015f1991600160a21b915f19916001605e1b8282095f1903915f199109080985019485926160986160918584906156e0565b859061469b565b6160b46160ad856160a76146e1565b9061774a565b859061469b565b6160c6846160c0611482565b9061807f565b6160d1575b50505050565b90919293945060171b9102010490825f80806160cb565b6160f0612951565b506105a95190565b616100612d4b565b506105e95160e81c90565b61611a61612091939293612ebe565b92612ebe565b90565b906161b391616130613a19565b5f146161de5761617b6161768361616961616461615561614e611482565b8790617627565b925b61615f61480d565b6176a4565b61808c565b616171614830565b6176a4565b618092565b616183617a07565b5f146161b557506161ad906161a7616199611482565b916161a26132c1565b617627565b90617634565b5b615141565b565b6161d991506161d36161c5611482565b916161ce6132c1565b618098565b906180a5565b6161ae565b61617b6161766161646161696162066161ff6161f8611482565b8790617627565b879061610b565b9290616157565b90565b61622461621f6162299261620d565b611166565b611491565b90565b6162376102d1616210565b90565b90565b61625161624c6162569261623a565b611166565b611491565b90565b61626461030f61623d565b90565b90565b61627e61627961628392616267565b611166565b611491565b90565b61629161034d61626a565b90565b90565b6162ab6162a66162b092616294565b611166565b611491565b90565b6162be610409616297565b90565b61636a6162cc6155af565b6162f86162f36162ee6162de846155cc565b91906162e861328e565b90615675565b61569b565b6180cc565b61635561635061631761630961778f565b6163116155bf565b906180e1565b92616321846180ee565b61634a61632f8286906178e7565b9461634486939161633e6155bf565b906180e1565b906178e7565b906178fc565b618103565b616365616360613edd565b6114c2565b615708565b61639361637d61637861622c565b6114c2565b61638d616388613edd565b6114c2565b90615aab565b6163bc6163a66163a1616259565b6114c2565b6163b66163b1613edd565b6114c2565b90615aab565b6163e56163cf6163ca616286565b6114c2565b6163df6163da613edd565b6114c2565b90615aab565b61640e6163f86163f3613d96565b6114c2565b616408616403613edd565b6114c2565b90615aab565b61643761642161641c6162b3565b6114c2565b61643161642c613edd565b6114c2565b90615aab565b61646061644a616445613ea4565b6114c2565b61645a616455613edd565b6114c2565b90615aab565b565b61646a612955565b5061028b5160c01c90565b90565b61648c61648761649192616475565b611166565b611491565b90565b61649f61058e616478565b90565b90565b6164b96164b46164be926164a2565b611166565b611491565b90565b6164cc61053d6164a5565b90565b6164d7611042565b906165116164f36164ee6164e9613d96565b6114c2565b6132f3565b61650b616506616501613ea4565b6114c2565b6132f3565b906132b4565b6168ba575b61651e6181ba565b61655761653961653461652f613d96565b6114c2565b6132f3565b61655161654c616547616286565b6114c2565b6132f3565b906132b4565b61684d575b806165a76165a161659c61657e616579616574616259565b6114c2565b6132f3565b61659661659161658c6162b3565b6114c2565b6132f3565b906178fc565b610345565b91610345565b0361681f575b6166296165c06165bb613d96565b6114c2565b8261660b6166056166006165e26165dd6165d8616286565b6114c2565b6132f3565b6165fa6165f56165f0613ea4565b6114c2565b6132f3565b90613a2c565b610345565b91610345565b145f1461680f5761662361661d613ea4565b5b6114c2565b90615aab565b6166316139e2565b508061664c616646616641613a19565b610345565b91610345565b145f146167b1576167429250616660616462565b9061669461668e6166898461668361667e616679613d96565b6114c2565b6132f3565b906178fc565b610345565b91610345565b03616792575b506166a36139e2565b506166ac617a07565b5f14616744576166ba618eda565b92909261672c6166fb6166d36166ce6162b3565b6114c2565b6166db616259565b6166f56166ef6166e9613d96565b926114c2565b916114c2565b91618430565b915b61671761671061670b613dc3565b6114c2565b8490618682565b616727616722613e77565b6114c2565b618682565b5b61673d616738616494565b6114c2565b618682565b565b61674c6186cf565b92909261672c61678d6167656167606162b3565b6114c2565b61676d616259565b61678761678161677b613d96565b926114c2565b916114c2565b91618c5e565b6166fd565b6167ab906167a66167a1613d96565b6114c2565b615708565b5f61669a565b506167426167f06167c86167c36162b3565b6114c2565b6167d0616259565b6167ea6167e46167de613d96565b926114c2565b916114c2565b91618430565b61680a6168036167fe6164c1565b6114c2565b8290618682565b61672d565b61662361681a616286565b61661e565b61684861683261682d616259565b6114c2565b61684261683d6162b3565b6114c2565b90615aab565b6165ad565b6168ad906168a761686461685f616494565b6114c2565b9161687d616878616873616494565b6114c2565b6168c7565b616885613d96565b916168a161689b61689461622c565b92946114c2565b916114c2565b916181cd565b906168fe565b6168b561828f565b61655c565b6168c2618139565b616516565b6168cf6139e2565b505160281c90565b906168e06139e2565b506168ec828290613a0c565b5f146168f757505b90565b90506168f4565b9060208203906005825193035252565b6169166139e2565b500190565b5f90565b60029061692a61691b565b50035160f01c90565b61694f9161694991616943611042565b506194cb565b15610345565b90565b90565b61696961696461696e92616952565b611166565b611491565b90565b61697c610489616955565b90565b90565b61699661699161699b9261697f565b611166565b611491565b90565b6169a9610573616982565b90565b906169b5611042565b506169ef6169d16169cc6169c7613df0565b6114c2565b6132f3565b6169e96169e46169df613e4a565b6114c2565b6132f3565b906132b4565b616f0a575b616a2d616a0f616a0a616a05613df0565b6114c2565b6132f3565b616a27616a22616a1d613ea4565b6114c2565b6132f3565b906132b4565b616efd575b616a3a6181ba565b90616a74616a56616a51616a4c613df0565b6114c2565b6132f3565b616a6e616a69616a64616286565b6114c2565b6132f3565b906132b4565b616e8e575b81616ac4616abe616ab9616a9b616a96616a91616259565b6114c2565b6132f3565b616ab3616aae616aa96162b3565b6114c2565b6132f3565b906178fc565b610345565b91610345565b03616e60575b616b46616add616ad8613df0565b6114c2565b83616b28616b22616b1d616aff616afa616af5616286565b6114c2565b6132f3565b616b17616b12616b0d613ea4565b6114c2565b6132f3565b906178fc565b610345565b91610345565b145f14616e5057616b40616b3a613ea4565b5b6114c2565b90615aab565b81616b60616b5a616b55613a19565b610345565b91610345565b14616d4d575b616ba1616b79616b746162b3565b6114c2565b616b81616259565b616b9b616b95616b8f613df0565b926114c2565b916114c2565b91618430565b91616bbb616bb5616bb0613a19565b610345565b91610345565b145f14616d1357616c58616c6691616c04616bdc616bd7616971565b6114c2565b616be4616259565b616bfe616bf8616bf2613df0565b926114c2565b916114c2565b91618430565b94616c1f616c18616c13613e1d565b6114c2565b8690618682565b616c39616c32616c2d61699e565b6114c2565b8790618682565b616c53616c4c616c47616494565b6114c2565b8690618682565b619586565b616c60613403565b90619711565b616c725750505b600190565b616cd1616ce692616ca2616c8c616c87616286565b6114c2565b616c9c616c97613df0565b6114c2565b90615aab565b616cbc616cb5616cb0613e1d565b6114c2565b849061971e565b616ccc616cc761699e565b6114c2565b61971e565b616ce1616cdc616494565b6114c2565b61971e565b616d0f616cf9616cf4613df0565b6114c2565b616d09616d04616259565b6114c2565b90615aab565b5f90565b50616d489150616d33616d2c616d276164c1565b6114c2565b8290618682565b616d43616d3e616494565b6114c2565b618682565b616c6d565b81616d98616d92616d8d616d6f616d6a616d65616259565b6114c2565b6132f3565b616d87616d82616d7d616971565b6114c2565b6132f3565b906178fc565b610345565b91610345565b03616e22575b81616de9616de3616dde616dc0616dbb616db6613df0565b6114c2565b6132f3565b616dd8616dd3616dce613e4a565b6114c2565b6132f3565b906178fc565b610345565b91610345565b14616df4575b616b66565b616e1d616e07616e02613df0565b6114c2565b616e17616e12613e4a565b6114c2565b90615aab565b616def565b616e4b616e35616e30616259565b6114c2565b616e45616e40616971565b6114c2565b90615aab565b616d9e565b616b40616e5b616286565b616b3b565b616e89616e73616e6e616259565b6114c2565b616e83616e7e6162b3565b6114c2565b90615aab565b616aca565b90616eef90616ee9616ea6616ea1616494565b6114c2565b91616ebf616eba616eb5616494565b6114c2565b6168c7565b616ec7613df0565b91616ee3616edd616ed661622c565b92946114c2565b916114c2565b916181cd565b906168fe565b616ef761828f565b90616a79565b616f05618139565b616a32565b616f12619505565b6169f4565b616f205f61124d565b90565b919091616f2e6139e2565b91616f376139e2565b616f3f613a19565b93616f48612955565b50616f51611042565b5b60011561724757505050616f6782859061976d565b929091616f7c81616f76616f17565b906132b4565b6170765761700790616f94616f8f613df0565b6114c2565b90885f1461700c57616fe261700091616fdc616fbe616fb9616fb4616286565b6114c2565b6132f3565b91616fd7616fd2616fcd613df0565b6114c2565b6132f3565b615627565b90615675565b616ffa616ff5616ff0616259565b6114c2565b6132f3565b9061569b565b905b615708565b616f52565b6170526170709161704c61702e617029617024616259565b6114c2565b6132f3565b9161704761704261703d613df0565b6114c2565b6132f3565b615627565b90615675565b61706a617065617060616286565b6114c2565b6132f3565b9061569b565b90617002565b50946171429493955b61709e61708d86869061573b565b6170988a869061573b565b90617601565b916170d86170ba6170b56170b0613df0565b6114c2565b6132f3565b6170d26170cd6170c8616286565b6114c2565b6132f3565b906139c3565b8061722d575b916171186170fa6170f56170f0613df0565b6114c2565b6132f3565b61711261710d617108616259565b6114c2565b6132f3565b906139c3565b9081617211575b5082908115617209575b50617145575b50505061713c91926168d7565b936168d7565b90565b6171939061718d6171876171c597949596949561718161716b617166616286565b6114c2565b61717b617176613df0565b6114c2565b90615aab565b92610345565b91610345565b14619bfe565b61719e858990619d1c565b9490936171c06171af88889061573b565b6171ba8c889061573b565b90617601565b619f7f565b6171d0575b8061712f565b90915061713c92506172016171eb6171e6613df0565b6114c2565b6171fb6171f6616286565b6114c2565b90615aab565b90915f6171ca565b90505f617129565b905061722561721f83610345565b91610345565b14155f61711f565b508161724161723b83610345565b91610345565b146170de565b9461714294939561707f565b61725e61ffff6114c2565b90565b61726a906111d4565b9052565b9190617281905f60208501940190617261565b565b1561728b5750565b6172a6905f91829163855b486b60e01b83526004830161726e565b0390fd5b6172bc816172b66114de565b906178e7565b916172cf826172c96155bf565b906178e7565b926172e5826172df83879061569b565b90613a2c565b617410576172fe6172f7828690615675565b8390613a2c565b6173ee5761730a61778f565b906173136155bf565b905b6001156173dc576173279086906178fc565b5f146173cc576173388386906178fc565b5b5f146173bb576173519061734b6155bf565b90619f9e565b61735c8183906178da565b5f146173735761736d8482906178e7565b94617315565b916173b994506173b49391505b60c01b908260031b01526173a661739f82617399617253565b906178da565b8290617283565b6173ae6155bf565b90619f9e565b615519565b565b916173b994506173b4939150617380565b6173d78584906178fc565b617339565b50916173b994506173b4939150617380565b905061740861740e93617402838290615675565b9261569b565b91615db7565b565b905061742a6174309361742483829061569b565b92615675565b91615db7565b565b61743b90610345565b90565b61745661745061745c92959395612ebe565b94612ebe565b92617432565b90565b9192909261746b6139e2565b506174746139e2565b5061747d611042565b506174908361748a613403565b90619fab565b617582575b6174c06174a96174a485612ebe565b611a8e565b6174ba6174b585612ebe565b611a8e565b90619fb8565b906174ec6174d56174d085612ebe565b611a8e565b6174e66174e189612ebe565b611a8e565b90619fb8565b91909192836175036174fd8361024d565b9161024d565b11938415617538575b505050505f146175225750505f9091905b909192565b90915061753392509060019161743e565b61751d565b617550919293945061754a909261024d565b9161024d565b149182617563575b50505f80808061750c565b617579919250617573909261024d565b9161024d565b10155f80617558565b6175948461758e613403565b90619fab565b1561749557915091509091600191929190565b6175f9916175fe936175ee6175e96175e36175de6175d86175d36175f4986175cd6139e2565b50612ebe565b611a8e565b95612ebe565b611a8e565b92612ebe565b611a8e565b91617d0d565b61225e565b612ebe565b90565b6176096139e2565b50617615818390613a0c565b5f1461762057505b90565b905061761d565b61762f612951565b500390565b61763c612951565b50617648818390617909565b5f1461765357505b90565b9050617650565b91602061767b92949361767460408201965f830190614679565b0190614679565b565b15617686575050565b6176a05f928392639389559160e01b84526004840161765a565b0390fd5b6176f7909291926176b3612951565b506176bf818590618098565b936176d2816176cc611482565b906156e0565b6176ee6176e86176e38886906156e0565b610345565b91610345565b1491909161767d565b565b6102846105a9036102846105a9035f0361028439565b617717611020565b506f6890d047ad8c870137858a70716b2c6b6010525f5260305f2090565b6002610675015160101c9060f01b1761067552565b617766916177609161775a611042565b5061807f565b15610345565b90565b617771611020565b506f3b2d91718dfb37f9969a1b0670a83e706010525f5260305f2090565b617797613303565b506106515160f01c90565b9060018060a01b0316905d565b60046080015160201c9060e01b17608052565b608452565b5f90565b6177d490611405565b90565b6177e0906177cb565b90565b6177eb6177c7565b5061781c6178176178126177fd6133b5565b61780c60018060a01b0361261d565b16612639565b611421565b6177d7565b90565b617827611020565b5060a45190565b61784a916178449161783e611042565b50619fde565b15610345565b90565b5f90565b61785961784d565b506106755160f01c90565b919061786e6125ce565b505f5260205260405f20604051915f5260ff600b536020527ff779edcbdc615c777a4cb2bee1bf733055aa41ff7247837d0cd548565f65d0346040526055600b2060145260405261d6945f5260016034535f1960601c6017601e201690565b6178d5611042565b501090565b6178e2611042565b501090565b906178f0612955565b5060031b015160c01c90565b617904611042565b501290565b617911611042565b501290565b90565b61792d61792861793292617916565b611166565b61024d565b90565b90565b61794c61794761795192617935565b611166565b61024d565b90565b90565b61796b61796661797092617954565b611166565b611c71565b90565b61798e9061797f6139e2565b506179886139e2565b5061a154565b617a046179ff6179fa6179e96179e46179df7ff1aaddd7742e56d32fb9f997447d9e6314db84884fabab26bf059af9bc20b609600160c11b6179d96179d38a93617919565b91617938565b9061a3d1565b61225e565b612ebe565b936179f46028617957565b90612678565b61225e565b612ebe565b91565b617a0f611042565b506101515160ff1c90565b617a22612951565b506107205190565b617a32612951565b506107405190565b90565b617a51617a4c617a5692617a3a565b611166565b61024d565b90565b90565b617a70617a6b617a7592617a59565b611166565b61024d565b90565b90565b617a8f617a8a617a9492617a78565b611166565b611c71565b90565b90565b617aae617aa9617ab392617a97565b611166565b611c71565b90565b90617ac1910261024d565b90565b90565b617adb617ad6617ae092617ac4565b611166565b61024d565b90565b6001617aef910161024d565b90565b617b06617b01617b0b92613483565b611166565b61024d565b90565b91617b2792959495617b1e611020565b50919091617d9e565b80617b3e617b38600160671b617a3d565b9161024d565b1015617ccb57617b5b617b8191617b556071617a7b565b90614b18565b617b6f83617b69608f617a9a565b90612678565b1791617b7b6071617a7b565b90614b18565b617b9583617b8f608f617a9a565b90612678565b179092617ba0611020565b5080805f19860981868508088094818410900392039082617bc9617bc38361024d565b9161024d565b1015617cb257617c089291617c0391617beb5f617be68391611191565b611a80565b811680910493600182805f030401029104179161a40d565b617ab6565b93617c43575b505081617c27617c21600160d81b617af2565b9161024d565b1015617c2f57565b9050617c4060018060d81b03617a5c565b90565b617c5e717fffffffffffffffffffffffffffffffffff617ac7565b16617c71617c6b5f611191565b9161024d565b11908115617c97575b50617c87575b5f80617c0e565b90617c9190617ae3565b90617c80565b9050617cab617ca55f611191565b9161024d565b115f617c7a565b50505050509050617cc860018060d81b03617a5c565b90565b505050509050617ce060018060d81b03617a5c565b90565b601b610152015160d81c9060281b1761015252565b601b61016d015160d81c9060281b1761016d52565b617d15611020565b50617d21818390619fb8565b9290929182617d38617d325f611191565b9161024d565b14617d9757617d8e9285617d949693617d8793617d53611020565b50099085821190039403936001617d735f617d6e8691611191565b611a80565b841680809504960493805f03040190617ab6565b179161a40d565b90617ab6565b90565b5050500490565b617dd3617ddd9492617de592617db2611020565b50617dbb611020565b50617dc4611020565b50617dcd611020565b50619fb8565b9490948490619fb8565b939094619fb8565b929092809394019283100190565b617dfb611042565b501290565b617ee2617eee91617ee995617efd9495617e18612951565b50617e21611042565b50617e2a611020565b505f14617f2957617e5b617e56617e50617e4b617e45617a1a565b5b612ebe565b611a8e565b93612ebe565b611a8e565b617e6d87617e67615237565b90617df3565b5f14617f1d57617e96617e91617e8b617e84615237565b8a9061a524565b5b612ebe565b611a8e565b617eae617ea9617ea4615a10565b612ebe565b611a8e565b91617eb7617f42565b93617edb617ed5617ed08c617eca615237565b9061a531565b610345565b91610345565b149461a5c9565b949061225e565b612ebe565b91617ef7615237565b90617df3565b5f14617f1857617f1490617f0f611482565b617627565b5b91565b617f15565b617e96617e9188617e8c565b617e5b617e56617e50617e4b617f3d617a2a565b617e46565b617f4a611020565b506107b95190565b15617f5957565b5f636dd3b1dd60e11b815280617f716004820161040a565b0390fd5b90565b617f8c617f87617f9192617f75565b611166565b611c71565b90565b90565b617fab617fa6617fb092617f94565b611166565b6106b1565b90565b617fc06001607f1b617f97565b90565b9061805761805261804261806295617fe661805c95617fe0615b39565b50611a8e565b90617fef615540565b87617ff861535a565b91618001611020565b500288602f1b0380910290602f1b039661803961801f898590619fb8565b905061803361802d8561024d565b9161024d565b10617f52565b96919091617d0d565b61804c605e617f78565b90612678565b61225e565b612ebe565b9061a79f565b9061807d61807883618072617fb3565b9061a7ac565b617f52565b565b618087611042565b501390565b61018852565b6101a852565b6180a0612951565b500190565b906180ae612951565b506180ba828290617909565b5f146180c557505b90565b90506180c2565b600861028b015160401c9060c01b1761028b52565b6180e9613303565b500390565b6002610285015160101c9060f01b1761028552565b60ff0261028453565b90565b61812361811e6181289261810c565b611166565b611491565b90565b61813661028761810f565b90565b61816261814c6181476162b3565b6114c2565b61815c618157613ea4565b6114c2565b9061a7cb565b6181b861816d6153f0565b618175613ea4565b9061817e61622c565b9061819761819261818d61812b565b6114c2565b61a7d7565b916181b26181ac6181a66181ba565b956114c2565b916114c2565b9161a7f1565b565b6181c2611042565b506102845160ff1c90565b906182189061821261820a7f7082326d62b7ef4d06861f13c21dd192c8044b19a121205b7dc63c2642b5a80595966182036139e2565b5015610345565b918290615722565b94615722565b90634bc3287b029264cef6ae8685029063cb21e499027f5bc2a24e50a66d39c35a9132c33f2fc50a1b99389d5455e78a7cf7ef8894e4cd81830991020302818102915f1991090390565b90565b61827961827461827e92618262565b611166565b611491565b90565b61828c610285618265565b90565b618297611042565b506182c16182ab6182a6616259565b6114c2565b6182bb6182b661622c565b6114c2565b90615aab565b6182ea6182d46182cf61622c565b6114c2565b6182e46182df616286565b6114c2565b90615aab565b61832c6182fd6182f8616286565b6114c2565b6183266183086155af565b61832061831b618316618281565b6114c2565b61a8aa565b906178e7565b90615708565b61833d6183376181ba565b15610345565b9061834782618103565b6183d86183526153f0565b61836a61836561836061812b565b6114c2565b61a8c4565b906183ad816183776162b3565b9061838061622c565b906183938661838d6155bf565b906180e1565b916183a76183a18b956114c2565b916114c2565b9161a7f1565b906183b6613ea4565b916183bf61622c565b6183d26183cc88956114c2565b916114c2565b9161a7f1565b565b5f90565b90565b6183f56183f06183fa926183de565b611166565b61024d565b90565b90565b61841461840f618419926183fd565b611166565b6106b1565b90565b61842d671000000000000000618400565b90565b6184386139e2565b5061844161691b565b5061844a6139e2565b506184536139e2565b5061845c612955565b506184656183da565b5061846e6183da565b50618478826132f3565b91618482846132f3565b61848d8482906132b4565b61867257618499611020565b506184ae836184a860406183e1565b90611aaa565b6184b78461691f565b946184c18261691f565b6184d3816184cd613eb2565b906194cb565b61865f576184e290879061a8d4565b906185046184fc6184f48684906178fc565b968790615722565b988690615722565b9561851783618511613eb2565b906194cb565b61864f57618524906132f3565b91855f146186005761856f61856161855a6185536185456185749688615634565b61854d61841c565b90615627565b849061a8e1565b9685615634565b61856961841c565b90615627565b61a8e1565b5b92935f146185ea579061858b61859192916132f3565b90615634565b5b8091600160c01b87850993600160c01b868309600160c01b81600160c01b03870895818110938860018060c01b03910901918960018060c01b0391090103039281840660c01b0104910460c01b0192030201600f1c90565b6185f66185fb926132f3565b615634565b618592565b61864561863761862f61862861861a61864a968890615634565b61862261841c565b90615627565b849061a8e1565b968590615634565b61863f61841c565b90615627565b61a8e1565b618575565b50505050505090910302600f1c90565b505050505050505061866f613403565b90565b505050505061867f613403565b90565b9060281b8151019052565b90565b6186a461869f6186a99261868d565b611166565b61024d565b90565b156186b357565b5f630f975a0160e11b8152806186cb6004820161040a565b0390fd5b6186d7611042565b506186e06139e2565b5061870a6186ec6139e6565b6187046186ff6186fa613dc3565b6114c2565b6168c7565b90615acf565b61874561871d6187186162b3565b6114c2565b618725616259565b61873f618739618733613d96565b926114c2565b916114c2565b91618430565b9061875182829061a8ee565b618c575761875d613a19565b90815f14618c195761879e61878061877b6187766162b3565b6114c2565b6132f3565b61879861879361878e613ea4565b6114c2565b6132f3565b90615634565b5b916187d96187bb6187b66187b1613ea4565b6114c2565b61691f565b6187d36187ce6187c96162b3565b6114c2565b61691f565b9061a8d4565b946187ec6187e561841c565b879061a8e1565b6188b76188b161881e836188188961881261880d6188086162b3565b6114c2565b61691f565b9061a8e1565b9061a90d565b855f14618bc7576188729061886c61886561884761884261883d6162b3565b6114c2565b6132f3565b61885f61885a618855616259565b6114c2565b6132f3565b90615634565b8c9061a8e1565b9061a90d565b5b966188ab6188808961a91a565b916188a461889461888f616259565b6114c2565b61889e8a15610345565b90615722565b899161a92c565b90615acf565b8061690e565b90835f14618b86576189196188fb6188dd6188d86188d3616259565b6114c2565b6132f3565b6188f56188f06188eb613d96565b6114c2565b6132f3565b90615634565b5b97618913618908612e2e565b918a9089909161a988565b90615675565b5b600115618b785761893661892f828b9061a8e1565b889061a90d565b61897561896d6189458361a91a565b61896787600160ff1b9061896161895b8961a154565b92618690565b9061a9e2565b90615acf565b91849061aa1c565b809161897f612955565b50618988611020565b5005908a82020581603c1d03600160531b038181920105906189b2826189ac616f17565b906132b4565b6189e257506189dd916189d06189d6926189ca612e2e565b92615627565b90615675565b889061569b565b61891a565b949750509497505050618a0a919450618a036189fd5f611191565b9161024d565b14156186ac565b5b825f14618b5257618a3390618a2e618a29618a24616259565b6114c2565b6132f3565b615634565b5b618a4e618a47618a42613df0565b6114c2565b8290615708565b618a89618a61618a5c6162b3565b6114c2565b618a69616259565b618a83618a7d618a77613df0565b926114c2565b916114c2565b91618430565b5b618a95818690613a0c565b15618b1e5750825f14618b0757618ab490618aae612e2e565b90615634565b5b90618abf83619bfe565b618a95618afd618ad5618ad06162b3565b6114c2565b618add616259565b618af7618af1618aeb613df0565b926114c2565b916114c2565b91618430565b9050919091618a8a565b618b1990618b13612e2e565b90615627565b618ab5565b9350509050618b4c618b36618b31613d96565b6114c2565b618b46618b41613df0565b6114c2565b90615aab565b60019190565b618b7390618b6e618b69618b64616259565b6114c2565b6132f3565b615627565b618a34565b949750505092509250618a0b565b618919618bc2618ba4618b9f618b9a613d96565b6114c2565b6132f3565b618bbc618bb7618bb2616259565b6114c2565b6132f3565b90615634565b6188fc565b618c1490618c0e618c07618be9618be4618bdf616259565b6114c2565b6132f3565b618c01618bfc618bf76162b3565b6114c2565b6132f3565b90615634565b8c9061a8e1565b9061a90d565b618873565b618c52618c34618c2f618c2a613ea4565b6114c2565b6132f3565b618c4c618c47618c426162b3565b6114c2565b6132f3565b90615634565b61879f565b50905f9190565b9091618c686139e2565b91618c7161691b565b50618c7a6139e2565b50618c836139e2565b50618c8c612955565b50618c956183da565b50618c9e6183da565b50618ca8846132f3565b93618cb2836132f3565b91618cbe8684906132b4565b618ea657618cca611020565b50618cdf81618cd960406183e1565b90611aaa565b618ce88161691f565b95618cfb87618cf5613eb2565b906194cb565b618e9b5750618d09906132f3565b90618d3d618d2c618d1b868a906178fc565b94618d268615610345565b90615722565b95618d378515610345565b90615722565b96618d478261691f565b618d528882906194cb565b618e8b57618d60908861a8d4565b845f14618e3e57618dac618d9e618d96618d8f618d81618db1968990615634565b618d8961841c565b90615627565b849061a8e1565b978690615634565b618da661841c565b90615627565b61a8e1565b5b93925f14618e265790618dc7618dcc926132f3565b615634565b5b8091600160c01b85820993600160c01b88820994600160c01b81600160c01b03870895818110938860018060c01b03910901918960018060c01b0391090103039281840660c01b0104910460c01b0192030203600f1c90565b618e33618e3992916132f3565b90615634565b618dcd565b618e81618e73618e6c618e65618e57618e869689615634565b618e5f61841c565b90615627565b849061a8e1565b9786615634565b618e7b61841c565b90615627565b61a8e1565b618db2565b50505050505090910302600f1c90565b965050505050505090565b505050505050618eb4613403565b90565b15618ebe57565b5f637fbbcd6760e01b815280618ed66004820161040a565b0390fd5b618ee2611042565b50618eeb6139e2565b50618f15618ef76139e6565b618f0f618f0a618f05613e77565b6114c2565b6168c7565b90615acf565b618f50618f28618f236162b3565b6114c2565b618f30616259565b618f4a618f44618f3e613d96565b926114c2565b916114c2565b91618c5e565b618f5b81839061a8ee565b6194c357618f67613a19565b91825f1461948557618fa8618f8a618f85618f806162b3565b6114c2565b6132f3565b618fa2618f9d618f98613ea4565b6114c2565b6132f3565b90615634565b5b92618fe3618fc5618fc0618fbb613ea4565b6114c2565b61691f565b618fdd618fd8618fd36162b3565b6114c2565b61691f565b9061a8d4565b94618ff6618fef61841c565b879061a8e1565b6190af6190258261901f8961901961901461900f613ea4565b6114c2565b61691f565b9061a8e1565b9061aa1c565b845f14619433576190799061907361906c61904e619049619044616259565b6114c2565b6132f3565b61906661906161905c613ea4565b6114c2565b6132f3565b90615634565b8b9061a8e1565b9061a90d565b5b966190a96190878961a91a565b916190a261909b619096616259565b6114c2565b8890615722565b889161a92c565b90615acf565b90835f146193f5576190f06190d26190cd6190c8616259565b6114c2565b6132f3565b6190ea6190e56190e0613d96565b6114c2565b6132f3565b90615634565b5b9687966190fd89612ebe565b61911761911161910c84612ebe565b6106b1565b916106b1565b13156193cc575b50955b6001156193b65761913d619136828b9061a8e1565b889061aa1c565b61919061918861914c8361a91a565b6191828761917c6191776191726191628a61a154565b61916c6028617957565b90612678565b61225e565b612ebe565b9061aa29565b9061690e565b91849061a90d565b809161919a612955565b506191a3611020565b5005908a82020581603c1d01600160531b038181920105906191cd826191c7616f17565b906132b4565b6191fd57506191f8916191eb6191f1926191e5612e2e565b92615634565b90615675565b889061569b565b619121565b9193505061923c939794985061924195965061922d91506192266192205f611191565b9161024d565b1415618eb7565b5b619236612e2e565b90615627565b61569b565b835f14619390576192699061926461925f61925a616259565b6114c2565b6132f3565b615634565b5b61928461927d619278613df0565b6114c2565b8290615708565b6192bf6192976192926162b3565b6114c2565b61929f616259565b6192b96192b36192ad613df0565b926114c2565b916114c2565b91618c5e565b5b6192cb818490619711565b1561935d5750835f14619346576192ea906192e4612e2e565b90615627565b5b916192fe6192f98515610345565b619bfe565b6192cb61933c61931461930f6162b3565b6114c2565b61931c616259565b61933661933061932a613df0565b926114c2565b916114c2565b91618c5e565b90509290926192c0565b61935890619352612e2e565b90615634565b6192eb565b9350505061938a61937461936f613d96565b6114c2565b61938461937f613df0565b6114c2565b90615aab565b60019190565b6193b1906193ac6193a76193a2616259565b6114c2565b6132f3565b615627565b61926a565b91505061923c919592965061924193945061922e565b6193ee9197506193e86193dd612e2e565b918a9089909161a988565b90615675565b955f61911e565b61942e61941061940b619406613d96565b6114c2565b6132f3565b61942861942361941e616259565b6114c2565b6132f3565b90615634565b6190f1565b6194809061947a61947361945561945061944b613ea4565b6114c2565b6132f3565b61946d619468619463616259565b6114c2565b6132f3565b90615634565b8b9061a8e1565b9061a90d565b61907a565b6194be6194a061949b619496613ea4565b6114c2565b6132f3565b6194b86194b36194ae6162b3565b6114c2565b6132f3565b90615634565b618fa9565b9190505f9190565b6194d3611042565b501490565b90565b6194ef6194ea6194f4926194d8565b611166565b611491565b90565b6195026102896194db565b90565b61952e619518619513616971565b6114c2565b619528619523613e4a565b6114c2565b9061a7cb565b6195846195396153f0565b619541613e4a565b9061954a613d96565b9061956361955e6195596194f7565b6114c2565b61a7d7565b9161957e619578619572613a19565b956114c2565b916114c2565b9161a7f1565b565b61958e6139e2565b50619597613a19565b9061966d61964f6196316195e66195bc6195b76195b2616494565b6114c2565b6168c7565b6195c4613df0565b906195cd61622c565b6195e06195da8a946114c2565b916114c2565b916181cd565b61962b6196016195fc6195f761699e565b6114c2565b6168c7565b619609613df0565b90619612613d96565b61962561961f8b946114c2565b916114c2565b916181cd565b90615acf565b61964961964461963f6164c1565b6114c2565b6168c7565b90615acf565b61966761966261965d613e77565b6114c2565b6168c7565b90615acf565b926196c86196aa61968c619687619682613dc3565b6114c2565b6168c7565b6196a461969f61969a61699e565b6114c2565b6168c7565b9061690e565b6196c26196bd6196b8613e1d565b6114c2565b6168c7565b90615acf565b925f146196f057906196e06196e6926196ec9561aa29565b9261aa29565b90615acf565b5b90565b6197006197069261970c9561aa29565b9261aa29565b90615acf565b6196ed565b619719611042565b501390565b9060281b8151039052565b61974161973b61974792959395612ebe565b94612ebe565b92612ebe565b90565b1561975157565b5f6327177a2d60e11b8152806197696004820161040a565b0390fd5b919091619778611042565b50619781612955565b5061978a6139e2565b506197936139e2565b5061979c613a19565b92835f14619bf057905b90926197b06139e2565b506197ec6197c46197bf6162b3565b6114c2565b6197cc616259565b6197e66197e06197da613df0565b926114c2565b916114c2565b91618430565b91619956856199506199266199086198de6198c06198b261988a61986361984461981c619817616971565b6114c2565b619824616259565b61983e619838619832613df0565b926114c2565b916114c2565b91618430565b9861985d619858619853613dc3565b6114c2565b6168c7565b9061690e565b6198848d61987f61987a619875613e1d565b6114c2565b6168c7565b61690e565b90615acf565b6198ac6198a56198a061989b61699e565b6114c2565b6168c7565b899061690e565b9061690e565b6198ba613403565b90617601565b986198d96198d46198cf616494565b6114c2565b6168c7565b61690e565b6198e6613df0565b906198ef61622c565b6199026198fc8b946114c2565b916114c2565b916181cd565b9261992161991c61991761699e565b6114c2565b6168c7565b61690e565b61992e613df0565b90619937613d96565b61994a61994489946114c2565b916114c2565b916181cd565b90615acf565b916199b56199a761998961996b85879061690e565b61998361997e6199796164c1565b6114c2565b6168c7565b90615acf565b6199a161999c619997613e77565b6114c2565b6168c7565b90615acf565b6199af613403565b90617601565b92619ab6619ab06199e56199cf6199ca6162b3565b6114c2565b6199df6199da613df0565b6114c2565b9061aa5e565b619aaa619a89619a146199fe6199f9616971565b6114c2565b619a0e619a09613df0565b6114c2565b9061aa5e565b95619a84619a7c619a48619a41619a31619a2c61622c565b6114c2565b619a3b8d15610345565b90615722565b8790615a23565b619a76619a6f8c619a69619a62619a5d613d96565b6114c2565b9115610345565b90615722565b8b90615a23565b90615acf565b91829061690e565b61690e565b94619aa4619a9d619a98613df0565b6114c2565b8890615722565b92615acf565b90615a23565b8061690e565b91619abf6139e2565b505f14619bad57619b0b9291619aff619b0592619af1619ae08b899061573b565b619aeb878b9061573b565b90615acf565b96979697965b96979961aa29565b9261aa29565b9061690e565b92619b1e85619b18613403565b90619711565b619b41619b3b619b3687619b30613403565b90619711565b610345565b91610345565b1415948460161d81600160261b020594619b6386619b5d616f17565b906132b4565b619b6c575b5050565b619b829060161d91619b7c613403565b9061abec565b619b8d575b80619b68565b619ba2619ba791619b9c613403565b9061abec565b61974a565b5f619b87565b928291619be5619aff96619b0593619bdd619bcc619b0b98849061573b565b619bd78d849061573b565b90615acf565b919091619729565b979197969096619af7565b619bf991612f49565b6197a6565b5f14619c8f57619c8c619c17619c12613df0565b6114c2565b619c40619c32619c2d619c28613df0565b6114c2565b6132f3565b619c3a612e2e565b90615634565b619c62619c5d619c56619c51613df0565b6114c2565b5f90615722565b61ac56565b90619c86619c81619c79619c74613df0565b6114c2565b600190615722565b61ac0b565b926157d0565b5b565b619d17619ca2619c9d613df0565b6114c2565b619ccb619cbd619cb8619cb3613df0565b6114c2565b6132f3565b619cc5612e2e565b90615627565b619ced619ce8619ce1619cdc613df0565b6114c2565b5f90615722565b61ac0b565b90619d11619d0c619d04619cff613df0565b6114c2565b600190615722565b61ac56565b926157d0565b619c8d565b90619d256139e2565b50619d2e6139e2565b50619d37613a19565b90815f14619f6157619f38619f1a619efc619f4693955b95619ef6619ee887619ee2619ec4619d97619d6f619d6a6162b3565b6114c2565b619d77616259565b619d91619d8b619d85613df0565b926114c2565b916114c2565b91618430565b619ebe619ea0619e81619ddb619db3619dae616971565b6114c2565b619dbb616259565b619dd5619dcf619dc9613df0565b926114c2565b916114c2565b91618430565b96619e7b619e2e619e04619dfd619df8619df3616494565b6114c2565b6168c7565b889061690e565b619e0c613df0565b90619e1561622c565b619e28619e2287946114c2565b916114c2565b916181cd565b91619e51619e4a619e45619e4061699e565b6114c2565b6168c7565b8b9061690e565b619e59613df0565b91619e75619e6f619e68613d96565b92946114c2565b916114c2565b916181cd565b90615acf565b98619e9a619e95619e90613dc3565b6114c2565b6168c7565b9061690e565b91619eb9619eb4619eaf613e1d565b6114c2565b6168c7565b61690e565b90615acf565b91619edd619ed8619ed361699e565b6114c2565b6168c7565b61690e565b9061690e565b619ef0613403565b90617601565b9661690e565b619f14619f0f619f0a6164c1565b6114c2565b6168c7565b90615acf565b619f32619f2d619f28613e77565b6114c2565b6168c7565b90615acf565b619f40613403565b90617601565b905f14619f5357905b9091565b619f5c91612f49565b619f4f565b619f38619f1a619f77619f4693619efc96612f49565b959095619d4e565b619f9b91619f9591619f8f611042565b50613a0c565b15610345565b90565b619fa6613303565b500190565b619fb3611042565b501490565b9190619fc2611020565b50619fcb611020565b505f198184099202918280821091030390565b619fe6611042565b501490565b90565b61a002619ffd61a00792619feb565b611166565b61024d565b90565b90565b61a02161a01c61a0269261a00a565b611166565b61024d565b90565b634e487b7160e01b5f52601260045260245ffd5b61a04961a04f9161024d565b9161024d565b90811561a05a570490565b61a029565b90565b61a07661a07161a07b9261a05f565b611166565b61024d565b90565b90565b61a09561a09061a09a9261a07e565b611166565b61024d565b90565b90565b61a0b461a0af61a0b99261a09d565b611166565b61024d565b90565b90565b61a0d361a0ce61a0d89261a0bc565b611166565b61024d565b90565b90565b61a0f261a0ed61a0f79261a0db565b611166565b611c71565b90565b90565b61a11161a10c61a1169261a0fa565b611166565b61024d565b90565b90565b61a13061a12b61a1359261a119565b611166565b61024d565b90565b61a14c61a14761a15192615d8b565b611166565b611c71565b90565b61a33261a17461a16f61a3429361a169611020565b50612ebe565b611a8e565b61a17f818290617ab6565b9061a2f061a2dd61a191848590617ab6565b61a199611020565b5061a2d761a2bc5f19600160801b600160801b858a095f19868b0903099261a1bf611020565b5061a2b661a29f61a28f61a27e61a26b8c61a26561a24f61a22c61a20c61a1fc8b80025f198d8009039561a1f6600760681b619fee565b90617ab6565b61a206600f61a00d565b9061a03d565b61a2268b61a2206609c0000000000061a062565b9061a03d565b90611aaa565b61a2498d61a24369c918000000000000000061a081565b9061a03d565b90611aaa565b9161a25f621eee11605a1b61a0a0565b9061a03d565b90611aaa565b61a278600160fe1b61a0bf565b90611aaa565b9a61a289606a61a0de565b90614b18565b61a299600f61a00d565b9061a03d565b9161a2b0662490000000000061a0fd565b9061a03d565b90611aaa565b9161a2d16a06df92000000000000000061a11c565b9061a03d565b90611aaa565b61a2ea600160ff1b618690565b90611aaa565b905f1991600160b41b916001604c1b828209915f199109030961a32c61a32661a31a848490611a80565b92600160fe1b94611aaa565b9261a0bf565b9061a3d1565b61a33c600261a138565b90614b18565b808002905f1990800903808002905f1990800903808002905f1990800903808002905f1990800903808002905f1990800903808002905f1990800903808002905f1990800903808002905f1990800903808002905f1990800903808002905f1990800903808002905f1990800903808002905f1990800903808002905f1990800903808002905f199080090390565b909161a3db611020565b5060018103928391818409820392090890565b90565b61a40561a40061a40a9261a3ee565b611166565b61024d565b90565b61a5219061a419611020565b5061a51b61a4ff61a4db61a4b761a49361a46f61a440600361a43b899161a3f1565b617ab6565b61a44a6002615d8e565b1861a469600261a46461a45e8b8590617ab6565b91615d8e565b611a80565b90617ab6565b61a48d600261a48861a4828a8590617ab6565b91615d8e565b611a80565b90617ab6565b61a4b1600261a4ac61a4a6898590617ab6565b91615d8e565b611a80565b90617ab6565b61a4d5600261a4d061a4ca888590617ab6565b91615d8e565b611a80565b90617ab6565b61a4f9600261a4f461a4ee878590617ab6565b91615d8e565b611a80565b90617ab6565b9161a51661a5106002928590617ab6565b91615d8e565b611a80565b90617ab6565b90565b61a52c615b39565b500390565b61a54d9161a5479161a541611042565b50617df3565b15610345565b90565b61a56461a55f61a569926134b2565b611166565b61024d565b90565b90565b61a58361a57e61a5889261a56c565b611166565b611c71565b90565b90565b61a5a261a59d61a5a79261a58b565b611166565b611c71565b90565b90565b61a5c161a5bc61a5c69261a5aa565b611166565b61024d565b90565b94959392919061a5ed9161a5db611020565b5061a5e4611042565b96919091617d9e565b93919290938061a60961a6036001606f1b61a550565b9161024d565b101561a7865761a62661a64c9161a620609161a56f565b90614b18565b61a63a8661a634606f61a58e565b90612678565b179461a646609161a56f565b90614b18565b61a6608461a65a606f61a58e565b90612678565b1761a669611020565b5081805f1987098187840808809581831090039103918161a69261a68c8361024d565b9161024d565b101561a76c579061a6c693929161a6b25f61a6ad8391611191565b611a80565b1690600182805f0304010291041790617ab6565b9461a701575b50508261a6e561a6df600160ff1b618690565b9161024d565b101561a6ed57565b9150505f9061a6fd600192611191565b9190565b61a7186d7fffffffffffffffffffffffffff61a5ad565b1661a72b61a7255f611191565b9161024d565b1190811561a751575b5061a741575b5f8061a6cc565b9161a74b90617ae3565b9161a73a565b905061a76561a75f5f611191565b9161024d565b115f61a734565b5050505050509150505f9061a782600192611191565b9190565b50505050509150505f9061a79b600192611191565b9190565b61a7a7615b39565b500190565b61a7c89161a7c29161a7bc611042565b5061acbc565b15610345565b90565b6002806040930391035e565b61a7df613303565b50600160f01b81510180915260f01c90565b61a85c949361a8029193929361ace8565b919592959091925f1461a85e579061a84561a83c61a82b61a84a9461a826886132f3565b615634565b9461a837875f90615722565b61576b565b94600190615722565b61aa29565b909190915b909192939091929361ad9c565b565b83919261a89961a89061a87f61a89e9461a87a61a8a4996132f3565b615627565b9561a88b865f90615722565b61aa29565b93600190615722565b61576b565b9161340f565b9161a84f565b61a8b2613303565b50600160f01b81510380915260f01c90565b61a8cc613303565b505160f01c90565b61a8dc61691b565b500390565b61a8e96183da565b500290565b61a90a9161a9049161a8fe611042565b50619711565b15610345565b90565b61a9156183da565b500190565b61a9226139e2565b506001608e1b0290565b90917fd49c04af80af1ea5f98f85886b450a4b264fc14874f9f64143836145a37dd8a19261a9586139e2565b507f0f1aaddd7742e56d32fb9f997447d9e6314db84884fabab26bf059af9bc20b61828183860909920202030290565b61a9da9161a9df9361a9cf61a9ca61a9c461a9bf61a9b961a9b461a9d59861a9ae612955565b50612ebe565b611a8e565b95612ebe565b611a8e565b92612ebe565b611a8e565b9161a3d1565b61225e565b612ebe565b90565b61aa149161aa199361aa0761aa0261aa0f9461a9fc6139e2565b50612ebe565b611a8e565b91909161a3d1565b61225e565b612ebe565b90565b61aa246183da565b500390565b61aa316139e2565b505f1991600160281b915f1991600160d81b8183095f1903915f19915f81129003905f8112900309080990565b9061aa7061aa6a6139e2565b9261adbc565b93929190939461aa888661aa82613eb2565b906194cb565b61abe3575061aa988585906194cb565b61abb95761aaaf8161aaa9856132f3565b906132b4565b61ab9057938461aadf7c15fc21041027acbbfcd46780fee71ead23fbcb7f4a81e58767ef801a32959684906178fc565b5f1461ab595761ab0a839461ab0461aafd61ab129461ab1897615634565b96916132f3565b90615634565b91869061a8d4565b9061a8e1565b905b80600160c01b8385099260018060c01b03908460018060c01b03039060018060c01b03908709089281840660c01b0104910460c01b0191020160281c90565b61ab7c61ab8a9361ab7761ab7161ab84948390615634565b966132f3565b615634565b91869061a8d4565b9061a8e1565b9061ab1a565b505050507c15fc21041027acbbfcd46780fee71ead23fbcb7f4a81e58767ef801a320260281c90565b5050507c15fc21041027acbbfcd46780fee71ead23fbcb7f4a81e58767ef801a3291500260281c90565b94505050505090565b61ac089161ac029161abfc611042565b50619fab565b15610345565b90565b61ac136139e2565b50780fffffffffffffff8000000000000002aaaaaaaaaaaaaaa001198102905f1990780fffffffffffffff8000000000000002aaaaaaaaaaaaaaa0011990090390565b7faa3ed2381a8b1241d16168fd77ef989ed2b13be12b716aa23f35ed0e395560019061ac806139e2565b50780fffffffffffffff8000000000000002aaaaaaaaaaaaaaa001780fffffffffffffff8000000000000002aaaaaaaaaaaaaaa0001991090290565b61acc4611042565b501390565b90565b61ace061acdb61ace59261acc9565b611166565b6106b1565b90565b9061acf161691b565b61acf9612955565b61ad016139e2565b5061ad0a6139e2565b5061ad1d8361ad176114de565b9061ae1c565b5f1461ad66575050603e9061ad30611020565b5060061b03019061ad408261691f565b9161ad4a816132f3565b9161ad6261ad59835f90615722565b92600190615722565b905b565b925092905061ad736134a2565b9061ad967801e355bbaee85cada65f73f32e88fb3cc629b709109f57564d61accc565b9061ad64565b602091926022820394855196601e84015260038301526018820352035252565b9061adc5612955565b5061adce612955565b5061add761691b565b5061ade061691b565b5061adea8261691f565b61ae0761adf6846132f3565b9361ae0160406183e1565b90611aaa565b61ae1961ae138261691f565b916132f3565b92565b61ae24611042565b50119056fea264697066735822122007c7c055c08ec929735ec4e50aa86e0b8b16a2c04c8afe017874740f644c249a64736f6c63430008220033","linkReferences":{}},"methodIdentifiers":{"allowance(address,address,uint256)":"598af9e7","approve(address,uint256,uint256)":"426a8493","balanceOf(address,uint256)":"00fdd58e","callManipulator(address,bytes)":"9385145b","clear(uint256,uint256)":"41ee903e","dispatch(bytes)":"ab7fff18","isOperator(address,address)":"b6363cf2","modifyBalance(address,uint256,int256)":"bea556c9","modifyBalance(address,uint256,uint256,int256,int256)":"49dff3ab","onERC1155BatchReceived(address,address,uint256[],uint256[],bytes)":"bc197c81","onERC1155Received(address,address,uint256,uint256,bytes)":"f23a6e61","setOperator(address,bool)":"558a7297","settle()":"11da60b4","storageAccess(bytes32)":"1352ea35","storageAccess(bytes32,uint256)":"745fa652","storageAccess(bytes32[])":"89c59eb9","supportsInterface(bytes4)":"01ffc9a7","swap(uint256,int256,int256,uint256,bytes)":"32269698","sync(address)":"a5841194","sync(address,uint256)":"ef4fcafa","take(address,address,uint256)":"0b0d9c09","take(address,uint256,address,uint256)":"0720b584","take(address,uint256,address,uint256,bytes)":"2b7f670f","transfer(address,uint256,uint256)":"095bcdb6","transferFrom(address,address,uint256,uint256)":"fe99049a","transferTransientBalanceFrom(address,address,uint256,uint256)":"da954559","transientAccess(bytes32)":"834178fe","transientAccess(bytes32,uint256)":"d02bdb62","transientAccess(bytes32[])":"b84a0dd2","unlock(address,bytes)":"738c440a"},"id":24}