{"abi":[{"type":"function","name":"add","inputs":[{"name":"value0","type":"int256","internalType":"X74"},{"name":"value1","type":"int256","internalType":"X74"}],"outputs":[{"name":"result","type":"int256","internalType":"X74"}],"stateMutability":"nonpayable"},{"type":"function","name":"equals","inputs":[{"name":"value0","type":"int256","internalType":"X74"},{"name":"value1","type":"int256","internalType":"X74"}],"outputs":[{"name":"result","type":"bool","internalType":"bool"}],"stateMutability":"nonpayable"},{"type":"function","name":"notEqual","inputs":[{"name":"value0","type":"int256","internalType":"X74"},{"name":"value1","type":"int256","internalType":"X74"}],"outputs":[{"name":"result","type":"bool","internalType":"bool"}],"stateMutability":"nonpayable"},{"type":"function","name":"sub","inputs":[{"name":"value0","type":"int256","internalType":"X74"},{"name":"value1","type":"int256","internalType":"X74"}],"outputs":[{"name":"result","type":"int256","internalType":"X74"}],"stateMutability":"nonpayable"},{"type":"function","name":"toX216","inputs":[{"name":"value","type":"int256","internalType":"X74"}],"outputs":[{"name":"result","type":"int256","internalType":"X216"}],"stateMutability":"nonpayable"}],"bytecode":{"object":"0x608060405234601c57600e6020565b61039361002b823961039390f35b6026565b60405190565b5f80fdfe60806040526004361015610013575b610288565b61001d5f3561006c565b8063048ca12d14610067578063230ebba114610062578063a5f3c23b1461005d578063adefc37b146100585763bfb0f6bf0361000e57610252565b61021c565b6101e6565b61018e565b610105565b60e01c90565b60405190565b5f80fd5b5f80fd5b90565b61008c81610080565b0361009357565b5f80fd5b905035906100a482610083565b565b906020828203126100bf576100bc915f01610097565b90565b61007c565b90565b6100db6100d66100e092610080565b6100c4565b610080565b90565b6100ec906100c7565b9052565b9190610103905f602085019401906100e3565b565b346101355761013161012061011b3660046100a6565b610290565b610128610072565b918291826100f0565b0390f35b610078565b9190604083820312610162578061015661015f925f8601610097565b93602001610097565b90565b61007c565b151590565b61017590610167565b9052565b919061018c905f6020850194019061016c565b565b346101bf576101bb6101aa6101a436600461013a565b906102a9565b6101b2610072565b91829182610179565b0390f35b610078565b6101cd906100c7565b9052565b91906101e4905f602085019401906101c4565b565b34610217576102136102026101fc36600461013a565b906102c3565b61020a610072565b918291826101d1565b0390f35b610078565b3461024d5761024961023861023236600461013a565b906102d9565b610240610072565b918291826101d1565b0390f35b610078565b346102835761027f61026e61026836600461013a565b906102ef565b610276610072565b91829182610179565b0390f35b610078565b5f80fd5b5f90565b6102a29061029c61028c565b50610305565b90565b5f90565b906102bc916102b66102a5565b50610317565b90565b5f90565b906102d6916102d06102bf565b50610336565b90565b906102ec916102e66102bf565b50610343565b90565b90610302916102fc6102a5565b50610350565b90565b61030d61028c565b506001608e1b0290565b6103339161032d916103276102a5565b50610350565b15610167565b90565b61033e6102bf565b500190565b61034b6102bf565b500390565b6103586102a5565b50149056fea2646970667358221220305905847ade819d9e0e467fa57e72c555be4fa1f1a250d52161cca529d093ec64736f6c63430008220033","linkReferences":{}},"methodIdentifiers":{"add(int256,int256)":"a5f3c23b","equals(int256,int256)":"bfb0f6bf","notEqual(int256,int256)":"230ebba1","sub(int256,int256)":"adefc37b","toX216(int256)":"048ca12d"},"id":41}