{"abi":[{"type":"function","name":"add","inputs":[{"name":"value0","type":"int256","internalType":"X59"},{"name":"value1","type":"int256","internalType":"X59"}],"outputs":[{"name":"result","type":"int256","internalType":"X59"}],"stateMutability":"nonpayable"},{"type":"function","name":"cheapMulDiv","inputs":[{"name":"value","type":"int256","internalType":"X59"},{"name":"numerator","type":"int256","internalType":"X216"},{"name":"denominator","type":"int256","internalType":"X216"}],"outputs":[{"name":"result","type":"int256","internalType":"X59"}],"stateMutability":"nonpayable"},{"type":"function","name":"equals","inputs":[{"name":"value0","type":"int256","internalType":"X59"},{"name":"value1","type":"int256","internalType":"X59"}],"outputs":[{"name":"result","type":"bool","internalType":"bool"}],"stateMutability":"nonpayable"},{"type":"function","name":"exp","inputs":[{"name":"value","type":"int256","internalType":"X59"}],"outputs":[{"name":"exponentialInverse","type":"int256","internalType":"X216"},{"name":"exponentialOverExp16","type":"int256","internalType":"X216"}],"stateMutability":"nonpayable"},{"type":"function","name":"expOffset","inputs":[{"name":"value","type":"int256","internalType":"X59"}],"outputs":[{"name":"exponentialInverse","type":"uint256","internalType":"uint256"}],"stateMutability":"nonpayable"},{"type":"function","name":"greaterThan","inputs":[{"name":"value0","type":"int256","internalType":"X59"},{"name":"value1","type":"int256","internalType":"X59"}],"outputs":[{"name":"result","type":"bool","internalType":"bool"}],"stateMutability":"nonpayable"},{"type":"function","name":"greaterThanOrEqualTo","inputs":[{"name":"value0","type":"int256","internalType":"X59"},{"name":"value1","type":"int256","internalType":"X59"}],"outputs":[{"name":"result","type":"bool","internalType":"bool"}],"stateMutability":"nonpayable"},{"type":"function","name":"lessThan","inputs":[{"name":"value0","type":"int256","internalType":"X59"},{"name":"value1","type":"int256","internalType":"X59"}],"outputs":[{"name":"result","type":"bool","internalType":"bool"}],"stateMutability":"nonpayable"},{"type":"function","name":"lessThanOrEqualTo","inputs":[{"name":"value0","type":"int256","internalType":"X59"},{"name":"value1","type":"int256","internalType":"X59"}],"outputs":[{"name":"result","type":"bool","internalType":"bool"}],"stateMutability":"nonpayable"},{"type":"function","name":"logToSqrtOffset","inputs":[{"name":"value","type":"int256","internalType":"X59"}],"outputs":[{"name":"sqrtOffset","type":"int256","internalType":"X127"}],"stateMutability":"nonpayable"},{"type":"function","name":"maxX59","inputs":[{"name":"value0","type":"int256","internalType":"X59"},{"name":"value1","type":"int256","internalType":"X59"}],"outputs":[{"name":"result","type":"int256","internalType":"X59"}],"stateMutability":"nonpayable"},{"type":"function","name":"minX59","inputs":[{"name":"value0","type":"int256","internalType":"X59"},{"name":"value1","type":"int256","internalType":"X59"}],"outputs":[{"name":"result","type":"int256","internalType":"X59"}],"stateMutability":"nonpayable"},{"type":"function","name":"mod","inputs":[{"name":"value0","type":"int256","internalType":"X59"},{"name":"value1","type":"int256","internalType":"X59"}],"outputs":[{"name":"result","type":"int256","internalType":"X59"}],"stateMutability":"nonpayable"},{"type":"function","name":"mulDivByExpInv16","inputs":[{"name":"value","type":"int256","internalType":"X59"},{"name":"multiplier0","type":"int256","internalType":"X216"},{"name":"multiplier1","type":"int256","internalType":"X216"}],"outputs":[{"name":"product","type":"int256","internalType":"X216"}],"stateMutability":"nonpayable"},{"type":"function","name":"notEqual","inputs":[{"name":"value0","type":"int256","internalType":"X59"},{"name":"value1","type":"int256","internalType":"X59"}],"outputs":[{"name":"result","type":"bool","internalType":"bool"}],"stateMutability":"nonpayable"},{"type":"function","name":"sub","inputs":[{"name":"value0","type":"int256","internalType":"X59"},{"name":"value1","type":"int256","internalType":"X59"}],"outputs":[{"name":"result","type":"int256","internalType":"X59"}],"stateMutability":"nonpayable"},{"type":"function","name":"times","inputs":[{"name":"value0","type":"int256","internalType":"X59"},{"name":"value1","type":"uint256","internalType":"X15"}],"outputs":[{"name":"result","type":"int256","internalType":"X74"}],"stateMutability":"nonpayable"}],"bytecode":{"object":"0x608060405234601c57600e6020565b61140d61002b823961140d90f35b6026565b60405190565b5f80fdfe60806040526004361015610013575b610708565b61001d5f3561012c565b8063230ebba11461012757806324e28928146101225780634525d8fd1461011d57806370be203d14610118578063a5f3c23b14610113578063adefc37b1461010e578063b4a480ad14610109578063ba2cbd1d14610104578063babdd838146100ff578063bfb0f6bf146100fa578063da72bf8f146100f5578063e1272d7e146100f0578063e46751e3146100eb578063e650ab3d146100e6578063e91812b3146100e1578063fd70d9c3146100dc5763ffe4b6560361000e576106d2565b61062a565b6105f5565b61059d565b610567565b61050e565b6104d8565b6104a2565b61046c565b610437565b6103be565b610388565b610352565b61031c565b6102e6565b610231565b6101ba565b60e01c90565b60405190565b5f80fd5b5f80fd5b90565b61014c81610140565b0361015357565b5f80fd5b9050359061016482610143565b565b919060408382031261018e578061018261018b925f8601610157565b93602001610157565b90565b61013c565b151590565b6101a190610193565b9052565b91906101b8905f60208501940190610198565b565b346101eb576101e76101d66101d0366004610166565b90610710565b6101de610132565b918291826101a5565b0390f35b610138565b90565b61020761020261020c92610140565b6101f0565b610140565b90565b610218906101f3565b9052565b919061022f905f6020850194019061020f565b565b346102625761025e61024d610247366004610166565b9061072a565b610255610132565b9182918261021c565b0390f35b610138565b61027081610140565b0361027757565b5f80fd5b9050359061028882610267565b565b90916060828403126102bf576102bc6102a5845f8501610157565b936102b3816020860161027b565b9360400161027b565b90565b61013c565b6102cd906101f3565b9052565b91906102e4905f602085019401906102c4565b565b34610317576103136103026102fc36600461028a565b91610744565b61030a610132565b918291826102d1565b0390f35b610138565b3461034d57610349610338610332366004610166565b9061075d565b610340610132565b918291826101a5565b0390f35b610138565b346103835761037f61036e610368366004610166565b90610773565b610376610132565b9182918261021c565b0390f35b610138565b346103b9576103b56103a461039e366004610166565b90610789565b6103ac610132565b9182918261021c565b0390f35b610138565b346103ef576103eb6103da6103d4366004610166565b9061079f565b6103e2610132565b918291826101a5565b0390f35b610138565b9060208282031261040d5761040a915f01610157565b90565b61013c565b90565b61041e90610412565b9052565b9190610435905f60208501940190610415565b565b346104675761046361045261044d3660046103f4565b6107b9565b61045a610132565b91829182610422565b0390f35b610138565b3461049d57610499610488610482366004610166565b906107ce565b610490610132565b918291826101a5565b0390f35b610138565b346104d3576104cf6104be6104b8366004610166565b906107e4565b6104c6610132565b918291826101a5565b0390f35b610138565b34610509576105056104f46104ee36600461028a565b916107fa565b6104fc610132565b9182918261021c565b0390f35b610138565b3461053f5761053b61052a610524366004610166565b90610813565b610532610132565b9182918261021c565b0390f35b610138565b91602061056592949361055e60408201965f8301906102c4565b01906102c4565b565b346105985761057f61057a3660046103f4565b610829565b9061059461058b610132565b92839283610544565b0390f35b610138565b346105ce576105ca6105b96105b3366004610166565b9061084a565b6105c1610132565b9182918261021c565b0390f35b610138565b6105dc906101f3565b9052565b91906105f3905f602085019401906105d3565b565b346106255761062161061061060b3660046103f4565b610864565b610618610132565b918291826105e0565b0390f35b610138565b3461065b57610657610646610640366004610166565b90610879565b61064e610132565b918291826101a5565b0390f35b610138565b61066981610412565b0361067057565b5f80fd5b9050359061068182610660565b565b91906040838203126106ab578061069f6106a8925f8601610157565b93602001610674565b90565b61013c565b6106b9906101f3565b9052565b91906106d0905f602085019401906106b0565b565b34610703576106ff6106ee6106e8366004610683565b90610893565b6106f6610132565b918291826106bd565b0390f35b610138565b5f80fd5b5f90565b906107239161071d61070c565b506108a9565b90565b5f90565b9061073d91610737610726565b506108c8565b90565b5f90565b9161075a92610751610740565b509190916108d5565b90565b906107709161076a61070c565b50610931565b90565b9061078691610780610726565b50610950565b90565b9061079c91610796610726565b5061095d565b90565b906107b2916107ac61070c565b5061096a565b90565b5f90565b6107cb906107c56107b5565b50610ade565b90565b906107e1916107db61070c565b50610d75565b90565b906107f7916107f161070c565b50610d94565b90565b9161081092610807610726565b50919091610dbd565b90565b9061082691610820610726565b50610e17565b90565b61084490610835610740565b5061083e610740565b50610ec6565b91909190565b9061085d91610857610726565b50610f5a565b90565b5f90565b61087690610870610860565b50610fb4565b90565b9061088c9161088661070c565b5061102b565b90565b5f90565b906108a6916108a061088f565b50611038565b90565b6108c5916108bf916108b961070c565b50610d94565b15610193565b90565b6108d0610726565b500690565b90917fd49c04af80af1ea5f98f85886b450a4b264fc14874f9f64143836145a37dd8a192610901610740565b507f0f1aaddd7742e56d32fb9f997447d9e6314db84884fabab26bf059af9bc20b61828183860909920202030290565b61094d916109479161094161070c565b5061102b565b15610193565b90565b610958610726565b500190565b610965610726565b500390565b61097261070c565b501390565b61098b61098661099092610140565b6101f0565b610412565b90565b9061099e9102610412565b90565b90565b60ff1690565b6109be6109b96109c3926109a1565b6101f0565b6109a4565b90565b1b90565b6109e9906109e36109dd6109ee946109a4565b91610412565b906109c6565b610412565b90565b90565b610a08610a03610a0d926109f1565b6101f0565b610412565b90565b634e487b7160e01b5f52601260045260245ffd5b610a30610a3691610412565b91610412565b908115610a41570490565b610a10565b90565b610a5d610a58610a6292610a46565b6101f0565b610412565b90565b90610a709101610412565b90565b90565b610a8a610a85610a8f92610a73565b6101f0565b6109a4565b90565b90610a9d9103610412565b90565b90565b610ab7610ab2610abc92610aa0565b6101f0565b610412565b90565b90565b610ad6610ad1610adb92610abf565b6101f0565b6109a4565b90565b610b82610afe610af9610b9293610af36107b5565b506101f3565b610977565b610b59610b48610b35610b25610b15858690610993565b610b1f60256109aa565b906109ca565b610b2f60036109f4565b90610a24565b610b42600160ff1b610a49565b90610a65565b91610b536092610a76565b906109ca565b610b7c610b76610b6a848490610a92565b92600160fe1b94610a65565b92610aa3565b90611045565b610b8c6002610ac2565b906109ca565b808002905f1990800903808002905f1990800903808002905f1990800903808002905f1990800903808002905f1990800903808002905f1990800903808002905f1990800903808002905f1990800903808002905f1990800903808002905f1990800903808002905f1990800903808002905f1990800903808002905f1990800903808002905f1990800903808002905f1990800903808002905f1990800903808002905f1990800903808002905f1990800903808002905f1990800903808002905f1990800903808002905f1990800903808002905f1990800903808002905f1990800903808002905f1990800903808002905f1990800903808002905f1990800903808002905f1990800903808002905f1990800903808002905f1990800903808002905f1990800903808002905f1990800903808002905f1990800903808002905f1990800903808002905f1990800903808002905f1990800903808002905f1990800903808002905f1990800903808002905f1990800903808002905f1990800903808002905f1990800903808002905f1990800903808002905f1990800903808002905f1990800903808002905f1990800903808002905f1990800903808002905f1990800903808002905f1990800903808002905f199080090390565b610d9191610d8b91610d8561070c565b5061096a565b15610193565b90565b610d9c61070c565b501490565b610db5610db0610dba92610412565b6101f0565b610140565b90565b610e0f91610e1493610e04610dff610df9610df4610dee610de9610e0a98610de3610726565b506101f3565b610977565b956101f3565b610977565b926101f3565b610977565b91611045565b610da1565b6101f3565b90565b90610e20610726565b50610e2c82829061102b565b5f14610e3757505b90565b9050610e34565b90565b610e55610e50610e5a92610e3e565b6101f0565b610412565b90565b90565b610e74610e6f610e7992610e5d565b6101f0565b610412565b90565b90565b610e93610e8e610e9892610e7c565b6101f0565b6109a4565b90565b1c90565b610ebe90610eb8610eb2610ec3946109a4565b91610412565b90610e9b565b610412565b90565b610ee190610ed2610740565b50610edb610740565b5061115a565b610f57610f52610f4d610f3c610f37610f327ff1aaddd7742e56d32fb9f997447d9e6314db84884fabab26bf059af9bc20b609600160c11b610f2c610f268a93610e41565b91610e60565b90611045565b610da1565b6101f3565b93610f476028610e7f565b90610e9f565b610da1565b6101f3565b91565b610f62610726565b50610f6e81839061102b565b5f14610f7957505b90565b9050610f76565b90565b610f97610f92610f9c92610f80565b6101f0565b610140565b90565b610fb16802d000000000000000610f83565b90565b610ff7610ff27fcf8e41e6c4d4aa5e9cc597c10cd32eacd30c44f750a8ffdb1a8863dd8f72f0a592610fe4610860565b50610fed610f9f565b61095d565b610ade565b7f872db9e8ffa9e7d41f2aaf39897b91e4002e70fceed391471fad73d51503772d600160bf1b820990600160bf1b02030290565b61103361070c565b501290565b61104061088f565b500290565b909161104f6107b5565b5060018103928391818409820392090890565b90565b61107961107461107e92611062565b6101f0565b610412565b90565b90565b61109861109361109d92611081565b6101f0565b610412565b90565b90565b6110b76110b26110bc926110a0565b6101f0565b610412565b90565b90565b6110d66110d16110db926110bf565b6101f0565b610412565b90565b90565b6110f56110f06110fa926110de565b6101f0565b610412565b90565b90565b61111461110f611119926110fd565b6101f0565b6109a4565b90565b90565b61113361112e6111389261111c565b6101f0565b610412565b90565b90565b61115261114d6111579261113b565b6101f0565b610412565b90565b61133861117a6111756113489361116f6107b5565b506101f3565b610977565b611185818290610993565b906112f66112e3611197848590610993565b61119f6107b5565b506112dd6112c25f19600160801b600160801b858a095f19868b090309926111c56107b5565b506112bc6112a56112956112846112718c61126b6112556112326112126112028b80025f198d800903956111fc600760681b611065565b90610993565b61120c600f611084565b90610a24565b61122c8b6112266609c000000000006110a3565b90610a24565b90610a65565b61124f8d61124969c91800000000000000006110c2565b90610a24565b90610a65565b91611265621eee11605a1b6110e1565b90610a24565b90610a65565b61127e600160fe1b610aa3565b90610a65565b9a61128f606a611100565b906109ca565b61129f600f611084565b90610a24565b916112b6662490000000000061111f565b90610a24565b90610a65565b916112d76a06df92000000000000000061113e565b90610a24565b90610a65565b6112f0600160ff1b610a49565b90610a65565b905f1991600160b41b916001604c1b828209915f199109030961133261132c611320848490610a92565b92600160fe1b94610a65565b92610aa3565b90611045565b6113426002610ac2565b906109ca565b808002905f1990800903808002905f1990800903808002905f1990800903808002905f1990800903808002905f1990800903808002905f1990800903808002905f1990800903808002905f1990800903808002905f1990800903808002905f1990800903808002905f1990800903808002905f1990800903808002905f1990800903808002905f19908009039056fea2646970667358221220b677bbe82252e518671238581eda62cbae95f2cda35acc35fcf16ede10462e5164736f6c63430008220033","linkReferences":{}},"methodIdentifiers":{"add(int256,int256)":"a5f3c23b","cheapMulDiv(int256,int256,int256)":"da72bf8f","equals(int256,int256)":"bfb0f6bf","exp(int256)":"e46751e3","expOffset(int256)":"ba2cbd1d","greaterThan(int256,int256)":"b4a480ad","greaterThanOrEqualTo(int256,int256)":"70be203d","lessThan(int256,int256)":"fd70d9c3","lessThanOrEqualTo(int256,int256)":"babdd838","logToSqrtOffset(int256)":"e91812b3","maxX59(int256,int256)":"e650ab3d","minX59(int256,int256)":"e1272d7e","mod(int256,int256)":"24e28928","mulDivByExpInv16(int256,int256,int256)":"4525d8fd","notEqual(int256,int256)":"230ebba1","sub(int256,int256)":"adefc37b","times(int256,uint256)":"ffe4b656"},"id":40}