{"abi":[{"type":"function","name":"_derivePoolId","inputs":[{"name":"unsaltedPoolId","type":"uint256","internalType":"uint256"}],"outputs":[{"name":"poolId","type":"uint256","internalType":"uint256"}],"stateMutability":"nonpayable"},{"type":"function","name":"_getLogOffsetFromPoolId","inputs":[{"name":"poolId","type":"uint256","internalType":"uint256"}],"outputs":[{"name":"logOffset","type":"int256","internalType":"X59"}],"stateMutability":"nonpayable"}],"bytecode":{"object":"0x608060405234601c57600e6020565b61020561002b823961020590f35b6026565b60405190565b5f80fdfe60806040526004361015610013575b610164565b61001d5f3561003c565b8063667fb107146100375763a750a5e10361000e5761012f565b6100b6565b60e01c90565b60405190565b5f80fd5b5f80fd5b90565b61005c81610050565b0361006357565b5f80fd5b9050359061007482610053565b565b9060208282031261008f5761008c915f01610067565b90565b61004c565b61009d90610050565b9052565b91906100b4905f60208501940190610094565b565b346100e6576100e26100d16100cc366004610076565b61016c565b6100d9610042565b918291826100a1565b0390f35b610048565b90565b90565b61010561010061010a926100eb565b6100ee565b6100eb565b90565b610116906100f1565b9052565b919061012d905f6020850194019061010d565b565b3461015f5761015b61014a610145366004610076565b610185565b610152610042565b9182918261011a565b0390f35b610048565b5f80fd5b5f90565b61017e90610178610168565b5061019a565b90565b5f90565b61019790610191610181565b506101b8565b90565b6101a2610168565b503360601b5f528060145260345f2060bc1b0190565b6101c0610181565b5060b41c5f0b6001603b1b029056fea26469706673582212205baa4335bff58fc4e375d7b8fa17b851a6534df5b08ee3cb5bbda1857dcbd98b64736f6c63430008220033","linkReferences":{}},"methodIdentifiers":{"_derivePoolId(uint256)":"667fb107","_getLogOffsetFromPoolId(uint256)":"a750a5e1"},"id":25}