{"abi":[{"type":"function","name":"_readAccruedParams","inputs":[{"name":"nofeeswap","type":"address","internalType":"contract IStorageAccess"},{"name":"poolId","type":"uint256","internalType":"uint256"}],"outputs":[{"name":"poolRatio0","type":"uint256","internalType":"X23"},{"name":"poolRatio1","type":"uint256","internalType":"X23"},{"name":"accrued0","type":"uint256","internalType":"uint256"},{"name":"accrued1","type":"uint256","internalType":"uint256"}],"stateMutability":"view"},{"type":"function","name":"_readCurve","inputs":[{"name":"nofeeswap","type":"address","internalType":"contract IStorageAccess"},{"name":"poolId","type":"uint256","internalType":"uint256"},{"name":"logPriceCurrent","type":"int256","internalType":"X59"}],"outputs":[{"name":"","type":"uint256[]","internalType":"uint256[]"}],"stateMutability":"nonpayable"},{"type":"function","name":"_readDoubleBalance","inputs":[{"name":"nofeeswap","type":"address","internalType":"contract IStorageAccess"},{"name":"owner","type":"address","internalType":"address"},{"name":"tag0","type":"uint256","internalType":"Tag"},{"name":"tag1","type":"uint256","internalType":"Tag"}],"outputs":[{"name":"doubleBalance","type":"uint256","internalType":"uint256"}],"stateMutability":"view"},{"type":"function","name":"_readDynamicParams","inputs":[{"name":"nofeeswap","type":"address","internalType":"contract IStorageAccess"},{"name":"poolId","type":"uint256","internalType":"uint256"}],"outputs":[{"name":"staticParamsStoragePointerExtension","type":"uint256","internalType":"uint256"},{"name":"staticParamsStoragePointer","type":"uint16","internalType":"uint16"},{"name":"logPriceCurrent","type":"int256","internalType":"X59"},{"name":"sharesTotal","type":"uint256","internalType":"uint256"},{"name":"growth","type":"int256","internalType":"X111"},{"name":"integral0","type":"int256","internalType":"X216"},{"name":"integral1","type":"int256","internalType":"X216"}],"stateMutability":"view"},{"type":"function","name":"_readGrowthMultiplier","inputs":[{"name":"nofeeswap","type":"address","internalType":"contract IStorageAccess"},{"name":"poolId","type":"uint256","internalType":"uint256"},{"name":"logPrice","type":"int256","internalType":"X59"}],"outputs":[{"name":"growthMultiplier","type":"uint256","internalType":"X208"}],"stateMutability":"view"},{"type":"function","name":"_readKernel","inputs":[{"name":"nofeeswap","type":"address","internalType":"address"},{"name":"poolId","type":"uint256","internalType":"uint256"},{"name":"pointer","type":"uint256","internalType":"uint256"}],"outputs":[{"name":"","type":"uint256[]","internalType":"uint256[]"}],"stateMutability":"view"},{"type":"function","name":"_readPoolOwner","inputs":[{"name":"nofeeswap","type":"address","internalType":"contract IStorageAccess"},{"name":"poolId","type":"uint256","internalType":"uint256"}],"outputs":[{"name":"owner","type":"address","internalType":"address"}],"stateMutability":"view"},{"type":"function","name":"_readProtocol","inputs":[{"name":"nofeeswap","type":"address","internalType":"contract IStorageAccess"}],"outputs":[{"name":"protocol","type":"uint256","internalType":"uint256"}],"stateMutability":"view"},{"type":"function","name":"_readSentinel","inputs":[{"name":"nofeeswap","type":"address","internalType":"contract IStorageAccess"}],"outputs":[{"name":"sentinel","type":"address","internalType":"address"}],"stateMutability":"view"},{"type":"function","name":"_readSharesDelta","inputs":[{"name":"nofeeswap","type":"address","internalType":"contract IStorageAccess"},{"name":"poolId","type":"uint256","internalType":"uint256"},{"name":"logPrice","type":"int256","internalType":"X59"}],"outputs":[{"name":"sharesDelta","type":"int256","internalType":"int256"}],"stateMutability":"view"},{"type":"function","name":"_readSharesGross","inputs":[{"name":"nofeeswap","type":"address","internalType":"contract IStorageAccess"},{"name":"poolId","type":"uint256","internalType":"uint256"}],"outputs":[{"name":"sharesGross","type":"int256","internalType":"int256"}],"stateMutability":"view"},{"type":"function","name":"_readStaticParams0","inputs":[{"name":"nofeeswap","type":"address","internalType":"address"},{"name":"poolId","type":"uint256","internalType":"uint256"},{"name":"pointer","type":"uint256","internalType":"uint256"}],"outputs":[{"name":"tag0","type":"uint256","internalType":"Tag"},{"name":"tag1","type":"uint256","internalType":"Tag"},{"name":"sqrtOffset","type":"int256","internalType":"X127"},{"name":"sqrtInverseOffset","type":"int256","internalType":"X127"},{"name":"sqrtSpacing","type":"int256","internalType":"X216"},{"name":"sqrtInverseSpacing","type":"int256","internalType":"X216"}],"stateMutability":"view"},{"type":"function","name":"_readStaticParams1","inputs":[{"name":"nofeeswap","type":"address","internalType":"address"},{"name":"poolId","type":"uint256","internalType":"uint256"},{"name":"pointer","type":"uint256","internalType":"uint256"}],"outputs":[{"name":"outgoingMax","type":"int256","internalType":"X216"},{"name":"outgoingMaxModularInverse","type":"uint256","internalType":"uint256"},{"name":"incomingMax","type":"int256","internalType":"X216"},{"name":"poolGrowthPortion","type":"uint256","internalType":"X47"},{"name":"maxPoolGrowthPortion","type":"uint256","internalType":"X47"},{"name":"protocolGrowthPortion","type":"uint256","internalType":"X47"},{"name":"pendingKernelLength","type":"uint256","internalType":"Index"}],"stateMutability":"view"}],"bytecode":{"object":"0x608060405234601c57600e6020565b6118af61002b82396118af90f35b6026565b60405190565b5f80fdfe60806040526004361015610013575b610827565b61001d5f356100ec565b806304d78e08146100e75780630d030c0d146100e257806320522ac1146100dd5780632d34a98d146100d85780633d9dd359146100d35780633f855ef3146100ce57806348afca83146100c95780634b72f01e146100c45780639f9ae942146100bf578063bda7426b146100ba578063c807fe0a146100b5578063d1f01506146100b05763f625c4320361000e576107f1565b6107bb565b61077e565b610745565b61069f565b6105ed565b610522565b6104d7565b61049a565b6103b9565b610302565b6102a7565b610210565b60e01c90565b60405190565b5f80fd5b5f80fd5b60018060a01b031690565b61011490610100565b90565b6101209061010b565b90565b61012c81610117565b0361013357565b5f80fd5b9050359061014482610123565b565b90565b61015281610146565b0361015957565b5f80fd5b9050359061016a82610149565b565b91906040838203126101945780610188610191925f8601610137565b9360200161015d565b90565b6100fc565b90565b6101b06101ab6101b592610146565b610199565b610146565b90565b6101c19061019c565b9052565b6101ce90610146565b9052565b61020761020e946101fd6060949897956101f3608086019a5f8701906101b8565b60208501906101b8565b60408301906101c5565b01906101c5565b565b346102455761024161022c61022636600461016c565b9061094b565b906102389492946100f2565b948594856101d2565b0390f35b6100f8565b6102538161010b565b0361025a57565b5f80fd5b9050359061026b8261024a565b565b90916060828403126102a25761029f610288845f850161025e565b93610296816020860161015d565b9360400161015d565b90565b6100fc565b346102bd576102b736600461026d565b91610a2f565b6100f8565b906020828203126102db576102d8915f01610137565b90565b6100fc565b6102e99061010b565b9052565b9190610300905f602085019401906102e0565b565b346103325761032e61031d6103183660046102c2565b610ad2565b6103256100f2565b918291826102ed565b0390f35b6100f8565b90565b61034381610337565b0361034a57565b5f80fd5b9050359061035b8261033a565b565b90916060828403126103925761038f610378845f8501610137565b93610386816020860161015d565b9360400161034e565b90565b6100fc565b6103a09061019c565b9052565b91906103b7905f60208501940190610397565b565b346103ea576103e66103d56103cf36600461035d565b91610b6f565b6103dd6100f2565b918291826103a4565b0390f35b6100f8565b6104036103fe61040892610337565b610199565b610337565b90565b610414906103ef565b9052565b6104219061019c565b9052565b61042e9061019c565b9052565b949290979695939160e08601985f870161044b9161040b565b60208601610458916101c5565b604085016104659161040b565b6060840161047291610418565b6080830161047f91610418565b60a0820161048c91610418565b60c00161049891610425565b565b346104d2576104ce6104b66104b036600461026d565b91610c17565b936104c59795979391936100f2565b97889788610432565b0390f35b6100f8565b34610508576105046104f36104ed36600461016c565b90610cad565b6104fb6100f2565b918291826102ed565b0390f35b6100f8565b9190610520905f602085019401906101c5565b565b346105525761054e61053d6105383660046102c2565b610d92565b6105456100f2565b9182918261050d565b0390f35b6100f8565b61ffff1690565b61056790610557565b9052565b610574906103ef565b9052565b610581906103ef565b9052565b949290979695939160e08601985f870161059e916101c5565b602086016105ab9161055e565b604085016105b89161056b565b606084016105c5916101c5565b608083016105d291610578565b60a082016105df9161040b565b60c0016105eb9161040b565b565b346106255761062161060961060336600461016c565b90610ed3565b936106189795979391936100f2565b97889788610585565b0390f35b6100f8565b6106339061019c565b9052565b610640906103ef565b9052565b919461068c6106969298979561068260a09661067861069d9a61066e60c08a019e5f8b019061062a565b602089019061062a565b6040870190610637565b6060850190610637565b608083019061040b565b019061040b565b565b346106d7576106d36106bb6106b536600461026d565b91611230565b926106ca9694969291926100f2565b96879687610644565b0390f35b6100f8565b6106e581610146565b036106ec57565b5f80fd5b905035906106fd826106dc565b565b60808183031261074057610715825f8301610137565b9261073d610726846020850161025e565b9361073481604086016106f0565b936060016106f0565b90565b6100fc565b346107795761077561076461075b3660046106ff565b929190916112d9565b61076c6100f2565b9182918261050d565b0390f35b6100f8565b346107945761078e36600461035d565b91611378565b6100f8565b6107a290610337565b9052565b91906107b9905f60208501940190610799565b565b346107ec576107e86107d76107d136600461035d565b91611406565b6107df6100f2565b918291826107a6565b0390f35b6100f8565b346108225761081e61080d61080736600461016c565b906114a2565b6108156100f2565b918291826107a6565b0390f35b6100f8565b5f80fd5b5f90565b5f90565b61084761084261084c92610100565b610199565b610100565b90565b61085890610833565b90565b6108649061084f565b90565b90565b5f1b90565b61088361087e61088892610146565b61086a565b610867565b90565b601f801991011690565b634e487b7160e01b5f52604160045260245ffd5b906108b39061088b565b810190811067ffffffffffffffff8211176108cd57604052565b610895565b60e01b90565b6108e181610867565b036108e857565b5f80fd5b905051906108f9826108d8565b565b9060208282031261091457610911915f016108ec565b90565b6100fc565b61092290610867565b9052565b9190610939905f60208501940190610919565b565b6109436100f2565b3d5f823e3d90fd5b6109b79161097e60209261095d61082b565b5061096661082b565b5061096f61082f565b5061097861082f565b5061085b565b6109ac610997610992631352ea359461153c565b61086f565b926109a06100f2565b958694859384936108d2565b835260048301610926565b03915afa908115610a21575f916109f3575b509062ffffff8260d01c16918060e81c916cffffffffffffffffffffffffff8083169260681c1690565b610a14915060203d8111610a1a575b610a0c81836108a9565b8101906108fb565b5f6109c9565b503d610a02565b61093b565b606090565b5f90565b610a68610a6f92610a3e610a26565b50610a53610a4e84838891611562565b6115cb565b94610a5c610a2b565b50604093919091611562565b83916115ea565b60205f526001810360011b60205260061b5ff35b5f90565b90565b610a9e610a99610aa392610a87565b610199565b610146565b90565b610acf7fd0716769b9821201d69d150facfd6f46f5fd95ac252f6eccb21b7560a01e078b610a8a565b90565b6020610ae9610b2292610ae3610a83565b5061085b565b631352ea3590610b17610b02610afd610aa6565b61086f565b92610b0b6100f2565b958694859384936108d2565b835260048301610926565b03915afa908115610b66575f91610b38575b5090565b610b59915060203d8111610b5f575b610b5181836108a9565b8101906108fb565b5f610b34565b503d610b47565b61093b565b5f90565b90610bc292610bb7610ba2610b9d610b91602096610b8b610b6b565b5061085b565b93631352ea3595611601565b61086f565b92610bab6100f2565b958694859384936108d2565b835260048301610926565b03915afa908115610c06575f91610bd8575b5090565b610bf9915060203d8111610bff575b610bf181836108a9565b8101906108fb565b5f610bd4565b503d610be7565b61093b565b5f90565b5f90565b5f90565b90610c6c92610c6792610c28610c0b565b50610c3161082f565b50610c3a610c0b565b50610c43610c0f565b50610c4c610c0f565b50610c55610c0f565b50610c5e610c13565b50919091611562565b611623565b610c74611631565b90610c7d611644565b90610c86611654565b90610c8f611667565b90610c9861167a565b90610ca161168d565b90610caa6116a0565b90565b610cfe91610cc5602092610cbf610a83565b5061085b565b610cf3610cde610cd9631352ea35946116b3565b61086f565b92610ce76100f2565b958694859384936108d2565b835260048301610926565b03915afa908115610d42575f91610d14575b5090565b610d35915060203d8111610d3b575b610d2d81836108a9565b8101906108fb565b5f610d10565b503d610d23565b61093b565b90565b610d5e610d59610d6392610d47565b610199565b610146565b90565b610d8f7ffb342fa999fea16067b1f01baf96673f31a25f2b1443e6754d93fc40b57e8df1610d4a565b90565b6020610da9610de292610da361082f565b5061085b565b631352ea3590610dd7610dc2610dbd610d66565b61086f565b92610dcb6100f2565b958694859384936108d2565b835260048301610926565b03915afa908115610e26575f91610df8575b5090565b610e19915060203d8111610e1f575b610e1181836108a9565b8101906108fb565b5f610df4565b503d610e07565b61093b565b5f90565b5f90565b5f90565b90565b610e4e610e49610e5392610e37565b610199565b610146565b90565b634e487b7160e01b5f52601160045260245ffd5b610e79610e7f91939293610146565b92610146565b8203918211610e8a57565b610e56565b610e9e610ea491939293610146565b92610146565b8201809211610eaf57565b610e56565b90565b610ecb610ec6610ed092610eb4565b610199565b610146565b90565b90610f6f90610ee061082f565b50610ee9610e2b565b50610ef2610e2f565b50610efb61082f565b50610f04610e33565b50610f0d610c0b565b50610f16610c0b565b506020610f228461085b565b631352ea3590610f64610f4f610f4a610f3a876116d9565b610f446001610e3a565b90610e6a565b61086f565b92610f586100f2565b968794859384936108d2565b835260048301610926565b03915afa80156111da57610fce925f916111ac575b50610655526020610f948461085b565b631352ea3590610fc3610fae610fa9866116d9565b61086f565b92610fb76100f2565b968794859384936108d2565b835260048301610926565b03915afa80156111a757611043925f91611179575b50602061065501526020610ff68461085b565b631352ea359061103861102361101e61100e876116d9565b6110186001610e3a565b90610e8f565b61086f565b9261102c6100f2565b968794859384936108d2565b835260048301610926565b03915afa918215611174576110b99360209361106d925f91611147575b506040610655015261085b565b6110ae611099611094611084631352ea35956116d9565b61108e6002610eb7565b90610e8f565b61086f565b926110a26100f2565b958694859384936108d2565b835260048301610926565b03915afa908115611142575f91611114575b50606061065501526110db6116ff565b906110e461170f565b906110ed611722565b906110f6611735565b906110ff611748565b9061110861175b565b9061111161176e565b90565b611135915060203d811161113b575b61112d81836108a9565b8101906108fb565b5f6110cb565b503d611123565b61093b565b6111679150853d811161116d575b61115f81836108a9565b8101906108fb565b5f611060565b503d611155565b61093b565b61119a915060203d81116111a0575b61119281836108a9565b8101906108fb565b5f610fe3565b503d611188565b61093b565b6111cd915060203d81116111d3575b6111c581836108a9565b8101906108fb565b5f610f84565b503d6111bb565b61093b565b5f90565b5f90565b90565b6111fe6111f9611203926111e7565b610199565b610557565b90565b6112116107606111ea565b90565b61122861122361122d92610557565b610199565b610146565b90565b9061127c92611277926112416111df565b5061124a6111df565b506112536111e3565b5061125c6111e3565b50611265610c0b565b5061126e610c0b565b50919091611562565b611623565b611284611781565b9061128d611791565b906112966117a1565b9061129f6117b1565b906112ba6112b36112ae611206565b611214565b5f906117c1565b906112d66112ce6112c9611206565b611214565b6001906117c1565b90565b9261132461130f61130a6020956112fb61132f986112f561082f565b5061085b565b94631352ea35969190916117da565b61086f565b926113186100f2565b958694859384936108d2565b835260048301610926565b03915afa908115611373575f91611345575b5090565b611366915060203d811161136c575b61135e81836108a9565b8101906108fb565b5f611341565b503d611354565b61093b565b919061138c90611386610a26565b5061180b565b90600190604091631352ea355f525b836020526020806024601c5f895af15067ffffffffffffffff60208051948581520193168281146113f7575f146113e75760206024601c5f60018085960198019794505050505061139b565b92505091505b60205f526020525ff35b5092505091506113ed565b5f90565b906114599261144e611439611434611428602096611422611402565b5061085b565b93631352ea3595611831565b61086f565b926114426100f2565b958694859384936108d2565b835260048301610926565b03915afa90811561149d575f9161146f575b5090565b611490915060203d8111611496575b61148881836108a9565b8101906108fb565b5f61146b565b503d61147e565b61093b565b6114f3916114ba6020926114b4611402565b5061085b565b6114e86114d36114ce631352ea3594611853565b61086f565b926114dc6100f2565b958694859384936108d2565b835260048301610926565b03915afa908115611537575f91611509575b5090565b61152a915060203d8111611530575b61152281836108a9565b8101906108fb565b5f611505565b503d611518565b61093b565b61154461082f565b506f5e1c6265e3e30cea650443fb20ef1ef96010525f5260305f2090565b919061156c610a83565b505f5260205260405f20604051915f5260ff600b536020527ff779edcbdc615c777a4cb2bee1bf733055aa41ff7247837d0cd548565f65d0346040526055600b2060145260405261d6945f5260016034535f1960601c6017601e201690565b6001906115d6610c13565b50816106e061080803913b030360061c0190565b916001900360061b916106e061080803600101913c565b9061160a61082f565b50671447e579411c2c936010526008525f5260305f2090565b60016106e08061080803923c565b611639610c0b565b5061079e5160281c90565b61164c61082f565b506107b95190565b61165c610c0b565b506107d95160281c90565b61166f610c0f565b506107f45160d01c90565b611682610c0f565b506107fa5160d01c90565b611695610c0f565b506108005160d01c90565b6116a8610c13565b506108065160f01c90565b6116bb61082f565b506f68e919334073168f7b6f6d0178986a646010525f5260305f2090565b6116e161082f565b506f6890d047ad8c870137858a70716b2c6b6010525f5260305f2090565b61170761082f565b506106555190565b611717610e2b565b506106755160f01c90565b61172a610e2f565b506106775160c01c90565b61173d61082f565b5061067f5160801c90565b611750610e33565b5061068f5160801c90565b611763610c0b565b5061069f5160281c90565b611776610c0b565b506106ba5160281c90565b6117896111df565b506106e05190565b6117996111df565b506107005190565b6117a96111e3565b506107205190565b6117b96111e3565b506107405190565b906117ca610c0b565b5015601b02602303015160281c90565b92916117e461082f565b50604051936bc8f78086c3211e71a328e7f56040526034526020525f5260605f2091604052565b61181361082f565b506f3b2d91718dfb37f9969a1b0670a83e706010525f5260305f2090565b9061183a61082f565b5067d7cb7a927a838d416010526008525f5260305f2090565b61185b61082f565b506fa20d6232b6352d00abc0d966e2bcfb8a6010525f5260305f209056fea264697066735822122050e60451581b2be40f7f92a28d96d7383fbc4b14f0f1b2c2976d218cf56c4e3164736f6c63430008220033","linkReferences":{}},"methodIdentifiers":{"_readAccruedParams(address,uint256)":"04d78e08","_readCurve(address,uint256,int256)":"c807fe0a","_readDoubleBalance(address,address,uint256,uint256)":"bda7426b","_readDynamicParams(address,uint256)":"4b72f01e","_readGrowthMultiplier(address,uint256,int256)":"2d34a98d","_readKernel(address,uint256,uint256)":"0d030c0d","_readPoolOwner(address,uint256)":"3f855ef3","_readProtocol(address)":"48afca83","_readSentinel(address)":"20522ac1","_readSharesDelta(address,uint256,int256)":"d1f01506","_readSharesGross(address,uint256)":"f625c432","_readStaticParams0(address,uint256,uint256)":"9f9ae942","_readStaticParams1(address,uint256,uint256)":"3d9dd359"},"id":5}