{"abi":[{"type":"function","name":"calculateIntegralLimitWrapper","inputs":[{"name":"_outgoingMax","type":"int256","internalType":"X216"},{"name":"_sqrtOffset","type":"int256","internalType":"X127"},{"name":"_sqrtInverseOffset","type":"int256","internalType":"X127"},{"name":"_amountSpecified","type":"int256","internalType":"X127"},{"name":"_growth","type":"int256","internalType":"X111"},{"name":"_shares","type":"uint256","internalType":"uint256"}],"outputs":[{"name":"limit0","type":"int256","internalType":"X216"},{"name":"limit1","type":"int256","internalType":"X216"}],"stateMutability":"nonpayable"},{"type":"function","name":"inRangeAmountWrapper","inputs":[{"name":"_sqrtOffset","type":"int256","internalType":"X127"},{"name":"_sqrtInverseOffset","type":"int256","internalType":"X127"},{"name":"_integral","type":"int256","internalType":"X216"},{"name":"_growth","type":"int256","internalType":"X111"},{"name":"_shares","type":"int256","internalType":"int256"},{"name":"_outgoingMax","type":"int256","internalType":"X216"},{"name":"_outgoingMaxModularInverse","type":"uint256","internalType":"uint256"},{"name":"_zeroOrOne","type":"bool","internalType":"bool"},{"name":"roundUp","type":"bool","internalType":"bool"}],"outputs":[{"name":"result","type":"int256","internalType":"X127"},{"name":"overflow","type":"bool","internalType":"bool"}],"stateMutability":"nonpayable"},{"type":"function","name":"safeInRangeAmountWrapper","inputs":[{"name":"_sqrtOffset","type":"int256","internalType":"X127"},{"name":"_sqrtInverseOffset","type":"int256","internalType":"X127"},{"name":"_integral","type":"int256","internalType":"X216"},{"name":"_growth","type":"int256","internalType":"X111"},{"name":"_shares","type":"int256","internalType":"int256"},{"name":"_outgoingMax","type":"int256","internalType":"X216"},{"name":"_outgoingMaxModularInverse","type":"uint256","internalType":"uint256"},{"name":"_zeroOrOne","type":"bool","internalType":"bool"},{"name":"roundUp","type":"bool","internalType":"bool"}],"outputs":[{"name":"result","type":"int256","internalType":"X127"}],"stateMutability":"nonpayable"},{"type":"function","name":"safeOutOfRangeAmountWrapper","inputs":[{"name":"_sqrtOffset","type":"int256","internalType":"X127"},{"name":"_sqrtInverseOffset","type":"int256","internalType":"X127"},{"name":"_growthMultiplier","type":"uint256","internalType":"X208"},{"name":"_shares","type":"int256","internalType":"int256"},{"name":"_zeroOrOne","type":"bool","internalType":"bool"}],"outputs":[{"name":"result","type":"int256","internalType":"X127"}],"stateMutability":"nonpayable"},{"type":"error","name":"SafeInRangeAmountOverflow","inputs":[{"name":"sqrtOffsetOrSqrtInverseOffset","type":"int256","internalType":"X127"},{"name":"integral","type":"int256","internalType":"X216"},{"name":"liquidity","type":"int256","internalType":"X111"},{"name":"outgoingMax","type":"int256","internalType":"X216"},{"name":"outgoingMaxModularInverse","type":"uint256","internalType":"uint256"}]},{"type":"error","name":"SafeOutOfRangeAmountOverflow","inputs":[{"name":"sqrtOffsetOrSqrtInverseOffset","type":"int256","internalType":"X127"},{"name":"growthMultiplier","type":"uint256","internalType":"X208"},{"name":"shares","type":"int256","internalType":"int256"}]}],"bytecode":{"object":"0x608060405234601c57600e6020565b61161361002b823961161390f35b6026565b60405190565b5f80fdfe60806040526004361015610013575b610450565b61001d5f3561005c565b80632c82ccfa146100575780636064a67f146100525780639622c8d91461004d5763ae8d0d890361000e57610411565b6103d4565b610307565b610239565b60e01c90565b60405190565b5f80fd5b5f80fd5b90565b61007c81610070565b0361008357565b5f80fd5b9050359061009482610073565b565b61009f81610070565b036100a657565b5f80fd5b905035906100b782610096565b565b6100c281610070565b036100c957565b5f80fd5b905035906100da826100b9565b565b6100e581610070565b036100ec57565b5f80fd5b905035906100fd826100dc565b565b90565b61010b816100ff565b0361011257565b5f80fd5b9050359061012382610102565b565b151590565b61013381610125565b0361013a57565b5f80fd5b9050359061014b8261012a565b565b9091610120828403126101d857610166835f8401610087565b926101748160208501610087565b9261018282604083016100aa565b9261019083606084016100cd565b9261019e81608085016100f0565b926101ac8260a083016100aa565b926101d56101bd8460c08501610116565b936101cb8160e0860161013e565b936101000161013e565b90565b61006c565b90565b6101f46101ef6101f992610070565b6101dd565b610070565b90565b610205906101e0565b9052565b61021290610125565b9052565b91602061023792949361023060408201965f8301906101fc565b0190610209565b565b346102745761025b61024c36600461014d565b9796909695919594929461045c565b90610270610267610062565b92839283610216565b0390f35b610068565b610282816100ff565b0361028957565b5f80fd5b9050359061029a82610279565b565b919060a0838203126102ed576102b4815f8501610087565b926102c28260208301610087565b926102ea6102d3846040850161028d565b936102e181606086016100f0565b9360800161013e565b90565b61006c565b9190610305905f602085019401906101fc565b565b3461033b5761033761032661031d36600461029c565b939290926104b0565b61032e610062565b918291826102f2565b0390f35b610068565b909160c08284031261039f57610358835f84016100aa565b926103668160208501610087565b926103748260408301610087565b9261039c6103858460608501610087565b9361039381608086016100cd565b9360a001610116565b90565b61006c565b6103ad906101e0565b9052565b9160206103d29294936103cb60408201965f8301906103a4565b01906103a4565b565b3461040c576103f36103e7366004610340565b9493909392919261050f565b906104086103ff610062565b928392836103b1565b0390f35b610068565b3461044b5761044761043661042736600461014d565b979690969591959492946105a8565b61043e610062565b918291826102f2565b0390f35b610068565b5f80fd5b5f90565b5f90565b956104976104a29594989661049261049c9461048d6104aa9d9b61047e610454565b50610487610458565b506105f0565b6105f6565b6105fc565b610611565b9461061b565b909192610670565b91909190565b926104d36104d8926104ce6104dd97966104c8610454565b506105f0565b6105f6565b6107b2565b610914565b90565b5f90565b90565b6104fb6104f6610500926104e4565b6101dd565b610070565b90565b61050c5f6104e7565b90565b9261056261057196959361055d6105679461055861056c9861052f6104e0565b506105386104e0565b5061055361054e88610548610503565b90610ad7565b610ae4565b6105fc565b6105f0565b6105f6565b610aed565b610af3565b610b08565b61057a5f610b1d565b610582610b26565b61058a610cab565b906105956001610b1d565b61059d610b26565b6105a5610cab565b90565b956105da6105e5959498966105d56105df946105d06105ed9d9b6105ca610454565b506105f0565b6105f6565b6105fc565b610611565b9461061b565b909192610d5f565b90565b61072052565b61074052565b601b61079e015160d81c9060281b1761079e52565b6107b952565b5f90565b610623610617565b500290565b5f90565b61064061063b61064592610070565b6101dd565b6100ff565b90565b6106515f6104e7565b90565b61066861066361066d926100ff565b6101dd565b610070565b90565b61075261075e916107599561076d9495610688610454565b50610691610458565b5061069a610628565b505f14610799576106cb6106c66106c06106bb6106b5610dda565b5b6101e0565b61062c565b936101e0565b61062c565b6106dd876106d7610648565b90610dea565b5f1461078d576107066107016106fb6106f4610648565b8a90610df7565b5b6101e0565b61062c565b61071e610719610714610e04565b6101e0565b61062c565b91610727610e17565b9361074b6107456107408c61073a610648565b90610e27565b610125565b91610125565b1494610f09565b9490610654565b6101e0565b91610767610648565b90610dea565b5f14610788576107849061077f610503565b6110df565b5b91565b610785565b610706610701886106fc565b6106cb6106c66106c06106bb6107ad610dca565b6106b6565b61010852565b90565b60ff1690565b6107d56107d06107da926107b8565b6101dd565b6107bb565b90565b1b90565b610800906107fa6107f4610805946107bb565b916100ff565b906107dd565b6100ff565b90565b61081c610817610821926100ff565b6101dd565b6100ff565b90565b9061082f9103610070565b90565b61084661084161084b926104e4565b6101dd565b6100ff565b90565b61085790610808565b9052565b61086490610070565b9052565b604090610891610898949695939661088760608401985f8501906101fc565b602083019061084e565b019061085b565b565b92909192156108a857505050565b6108c3905f93849363872deb8f60e01b855260048501610868565b0390fd5b90565b6108de6108d96108e3926108c7565b6101dd565b6100ff565b90565b90565b6108fd6108f8610902926108e6565b6101dd565b6100ff565b90565b600161091191016100ff565b90565b6109c691610920610454565b506109296110f0565b905f14610aca57610938610dda565b5b916109a661096161095161094c866101e0565b61062c565b61095b60306107c1565b906107e1565b61096a83610808565b8461097d6109775f6104e7565b91610070565b125f14610ac1576109a061099a5f61099588916104e7565b610824565b5b61062c565b91611100565b9590956109bb6109b55f610832565b916100ff565b14858490869261089a565b826109d96109d35f6104e7565b91610070565b125f14610a305750610a27928492610a0f92610a2c96610a056109ff600160ff1b6108ca565b916100ff565b109290919261089a565b610a22610a1c5f92610654565b916104e7565b610824565b6101e0565b905b565b92610a90949192610a8b94610a4d610a475f610832565b916100ff565b115f14610a965790610a8091610a859484610a76610a7060018060ff1b036108e9565b916100ff565b109290919261089a565b610905565b5b610654565b6101e0565b90610a2e565b8293610abc93610ab2610aac600160ff1b6108ca565b916100ff565b109290919261089a565b610a86565b6109a08561099b565b610ad2610dca565b610939565b610adf610458565b501390565b60ff0261015153565b61010852565b601061068f015160801c9060801b1761068f52565b601061067f015160801c9060801b1761067f52565b60ff0261015053565b610b2e611155565b5f14610bed57610bd8610bd3610bce610bc8610b58610b53610b4e610e04565b6101e0565b61062c565b610b60611168565b5f14610bda57610b7f610b7a610b74610dda565b5b6101e0565b61062c565b610b97610b92610b8d61117b565b6101e0565b61062c565b610bc0610bbb610bb6610ba861118b565b610bb061119e565b906111b1565b6101e0565b61062c565b915f93611278565b5b610654565b6101e0565b61144d565b565b610b7f610b7a610be8610dca565b610b75565b610bd8610bd3610bce610c93610c11610c0c610c07610e04565b6101e0565b61062c565b610c19611168565b5f14610c9857610c38610c33610c2d610dca565b5b6101e0565b61062c565b610c61610c5c610c57610c49610503565b610c5161117b565b906110df565b6101e0565b61062c565b610c8a610c85610c80610c7261118b565b610c7a61119e565b906111b1565b6101e0565b61062c565b91600193611278565b610bc9565b610c38610c33610ca6610dda565b610c2e565b610cb36104e0565b506101525160281c90565b610cc7906101e0565b9052565b610cd4906100ff565b9052565b90959492610d2394610d12610d1c92610d08608096610cfe60a088019c5f8901906101fc565b60208701906103a4565b6040850190610cbe565b60608301906103a4565b0190610ccb565b565b94929093919415610d37575050505050565b90610d5b9291610d45610062565b95869563059cafa160e51b875260048701610cd8565b0390fd5b610dba9291610d89610d929695610d74610454565b50610d7d610458565b50839083869192610670565b96909615610125565b925f14610dbc57610da1610dda565b915b610dab610e04565b92610db4610e17565b94610d25565b565b610dc4610dca565b91610da3565b610dd2610454565b506107405190565b610de2610454565b506107205190565b610df2610458565b501290565b610dff610617565b500390565b610e0c6104e0565b5061079e5160281c90565b610e1f610628565b506107b95190565b610e4391610e3d91610e37610458565b50610dea565b15610125565b90565b90565b610e5d610e58610e6292610e46565b6101dd565b6100ff565b90565b90565b610e7c610e77610e8192610e65565b6101dd565b6107bb565b90565b90565b610e9b610e96610ea092610e84565b6101dd565b6107bb565b90565b1c90565b610ec690610ec0610eba610ecb946107bb565b916100ff565b90610ea3565b6100ff565b90565b90610ed991036100ff565b90565b90610ee791026100ff565b90565b90565b610f01610efc610f0692610eea565b6101dd565b6100ff565b90565b949593929190610f2d91610f1b610628565b50610f24610458565b96919091611100565b939192909380610f49610f436001606f1b610e49565b916100ff565b10156110c657610f66610f8c91610f606091610e68565b906107e1565b610f7a86610f74606f610e87565b90610ea7565b1794610f866091610e68565b906107e1565b610fa084610f9a606f610e87565b90610ea7565b17610fa9610628565b5081805f19870981878408088095818310900391039181610fd2610fcc836100ff565b916100ff565b10156110ac5790611006939291610ff25f610fed8391610832565b610ece565b1690600182805f0304010291041790610edc565b94611041575b50508261102561101f600160ff1b6108ca565b916100ff565b101561102d57565b9150505f9061103d600192610832565b9190565b6110586d7fffffffffffffffffffffffffff610eed565b1661106b6110655f610832565b916100ff565b11908115611091575b50611081575b5f8061100c565b9161108b90610905565b9161107a565b90506110a561109f5f610832565b916100ff565b115f611074565b5050505050509150505f906110c2600192610832565b9190565b50505050509150505f906110db600192610832565b9190565b6110e7610454565b500390565b5f90565b6110f86110ec565b506101085190565b61113561113f949261114792611114610628565b5061111d610628565b50611126610628565b5061112f610628565b50611462565b9490948490611462565b939094611462565b929092809394019283100190565b61115d610458565b506101515160ff1c90565b611170610458565b506101505160ff1c90565b611183610454565b506101085190565b611193610617565b5061068f5160801c90565b6111a6610628565b5061067f5160801c90565b6111b9610617565b500290565b90565b6111d56111d06111da926111be565b6101dd565b6100ff565b90565b90565b6111f46111ef6111f9926111dd565b6101dd565b6100ff565b90565b90565b61121361120e611218926111fc565b6101dd565b6107bb565b90565b90565b61123261122d6112379261121b565b6101dd565b6107bb565b90565b90565b61125161124c6112569261123a565b6101dd565b6100ff565b90565b90565b61127061126b61127592611259565b6101dd565b6100ff565b90565b9161129192959495611288610628565b50919091611100565b806112a86112a2600160671b6111c1565b916100ff565b1015611435576112c56112eb916112bf60716111ff565b906107e1565b6112d9836112d3608f61121e565b90610ea7565b17916112e560716111ff565b906107e1565b6112ff836112f9608f61121e565b90610ea7565b17909261130a610628565b5080805f1986098186850808809481841090039203908261133361132d836100ff565b916100ff565b101561141c57611372929161136d916113555f6113508391610832565b610ece565b811680910493600182805f03040102910417916114c6565b610edc565b936113ad575b50508161139161138b600160d81b61125c565b916100ff565b101561139957565b90506113aa60018060d81b036111e0565b90565b6113c8717fffffffffffffffffffffffffffffffffff61123d565b166113db6113d55f610832565b916100ff565b11908115611401575b506113f1575b5f80611378565b906113fb90610905565b906113ea565b905061141561140f5f610832565b916100ff565b115f6113e4565b5050505050905061143260018060d81b036111e0565b90565b50505050905061144a60018060d81b036111e0565b90565b601b610152015160d81c9060281b1761015252565b919061146c610628565b50611475610628565b505f198184099202918280821091030390565b90565b61149f61149a6114a492611488565b6101dd565b6100ff565b90565b90565b6114be6114b96114c3926114a7565b6101dd565b6100ff565b90565b6115da906114d2610628565b506115d46115b861159461157061154c6115286114f960036114f4899161148b565b610edc565b61150360026114aa565b18611522600261151d6115178b8590610edc565b916114aa565b610ece565b90610edc565b611546600261154161153b8a8590610edc565b916114aa565b610ece565b90610edc565b61156a600261156561155f898590610edc565b916114aa565b610ece565b90610edc565b61158e6002611589611583888590610edc565b916114aa565b610ece565b90610edc565b6115b260026115ad6115a7878590610edc565b916114aa565b610ece565b90610edc565b916115cf6115c96002928590610edc565b916114aa565b610ece565b90610edc565b9056fea26469706673582212208f339f322d5b8c1aa09a627cc74c4ae30b8d11fef5cd5cf5cf342599035a00a364736f6c63430008220033","linkReferences":{}},"methodIdentifiers":{"calculateIntegralLimitWrapper(int256,int256,int256,int256,int256,uint256)":"9622c8d9","inRangeAmountWrapper(int256,int256,int256,int256,int256,int256,uint256,bool,bool)":"2c82ccfa","safeInRangeAmountWrapper(int256,int256,int256,int256,int256,int256,uint256,bool,bool)":"ae8d0d89","safeOutOfRangeAmountWrapper(int256,int256,uint256,int256,bool)":"6064a67f"},"id":6}