{"abi":[{"type":"function","name":"_expand","inputs":[{"name":"kernelCompact","type":"uint256","internalType":"KernelCompact"},{"name":"kernelCompactLength","type":"uint256","internalType":"uint256"},{"name":"kernelCompactArray","type":"uint256[]","internalType":"uint256[]"}],"outputs":[],"stateMutability":"nonpayable"},{"type":"function","name":"_member","inputs":[{"name":"kernelCompact","type":"uint256","internalType":"KernelCompact"},{"name":"kernelCompactLength","type":"uint256","internalType":"uint256"},{"name":"kernelCompactArray","type":"uint256[]","internalType":"uint256[]"}],"outputs":[],"stateMutability":"nonpayable"},{"type":"function","name":"_validate","inputs":[{"name":"kernelCompact","type":"uint256","internalType":"KernelCompact"},{"name":"qSpacing","type":"int256","internalType":"X59"},{"name":"kernelCompactArray","type":"uint256[]","internalType":"uint256[]"}],"outputs":[{"name":"kernelCompactLength","type":"uint256","internalType":"Index"}],"stateMutability":"nonpayable"},{"type":"error","name":"HorizontalCoordinatesMayNotExceedLogSpacing","inputs":[{"name":"q_j","type":"int256","internalType":"X59"},{"name":"qSpacing","type":"int256","internalType":"X59"}]},{"type":"error","name":"KernelIndexOutOfRange","inputs":[{"name":"length","type":"uint256","internalType":"Index"}]},{"type":"error","name":"LastVerticalCoordinateMismatch","inputs":[{"name":"c_j","type":"uint256","internalType":"X15"}]},{"type":"error","name":"NonMonotonicHorizontalCoordinates","inputs":[{"name":"q_i","type":"int256","internalType":"X59"},{"name":"q_j","type":"int256","internalType":"X59"}]},{"type":"error","name":"NonMonotonicVerticalCoordinates","inputs":[{"name":"c_i","type":"uint256","internalType":"X15"},{"name":"c_j","type":"uint256","internalType":"X15"}]},{"type":"error","name":"RepetitiveHorizontalCoordinates","inputs":[{"name":"q_i","type":"int256","internalType":"X59"}]},{"type":"error","name":"RepetitiveKernelPoints","inputs":[{"name":"c_i","type":"uint256","internalType":"X15"},{"name":"q_i","type":"int256","internalType":"X59"}]},{"type":"error","name":"RepetitiveVerticalCoordinates","inputs":[{"name":"c_i","type":"uint256","internalType":"X15"}]},{"type":"error","name":"SecondHorizontalCoordinateIsZero","inputs":[]},{"type":"error","name":"SlopeTooHigh","inputs":[{"name":"q_i","type":"int256","internalType":"X59"},{"name":"q_j","type":"int256","internalType":"X59"}]}],"bytecode":{"object":"0x608060405234601c57600e6020565b61140561002b823961140590f35b6026565b60405190565b5f80fdfe60806040526004361015610013575b6102af565b61001d5f3561004c565b80634504c9d3146100475780639d9a004d146100425763af206f2d0361000e57610278565b610241565b61018e565b60e01c90565b60405190565b5f80fd5b5f80fd5b5f80fd5b90565b61007081610064565b0361007757565b5f80fd5b9050359061008882610067565b565b90565b6100968161008a565b0361009d57565b5f80fd5b905035906100ae8261008d565b565b5f80fd5b5f80fd5b5f80fd5b909182601f830112156100f65781359167ffffffffffffffff83116100f15760200192602083028401116100ec57565b6100b8565b6100b4565b6100b0565b9160608383031261014857610112825f850161007b565b9261012083602083016100a1565b92604082013567ffffffffffffffff81116101435761013f92016100bc565b9091565b610060565b61005c565b90565b61016461015f61016992610064565b61014d565b610064565b90565b61017590610150565b9052565b919061018c905f6020850194019061016c565b565b346101c2576101be6101ad6101a43660046100fb565b92919091610307565b6101b5610052565b91829182610179565b0390f35b610058565b6101d081610064565b036101d757565b5f80fd5b905035906101e8826101c7565b565b9160608383031261023757610201825f850161007b565b9261020f83602083016101db565b92604082013567ffffffffffffffff81116102325761022e92016100bc565b9091565b610060565b61005c565b5f0190565b346102735761025d6102543660046101ea565b9291909161035b565b610265610052565b8061026f8161023c565b0390f35b610058565b346102aa5761029461028b3660046101ea565b92919091610466565b61029c610052565b806102a68161023c565b0390f35b610058565b5f80fd5b5f90565b90565b61ffff1690565b6102d56102d06102da926102b7565b61014d565b6102ba565b90565b6102e86107606102c1565b90565b6102ff6102fa610304926102ba565b61014d565b610064565b90565b915061034c92506103479061031a6102b3565b50604435806004013560051b80916024018537830160405261034261033d6102dd565b6102eb565b610534565b6108b7565b610354610b11565b90565b5f90565b91505f925060019061036b610357565b506103ae604435806004013560051b80916024018637840193838303604002850160405261039885610b24565b6103a96103a484610150565b610b2a565b610b70565b0360400290a1565b606090565b606090565b90565b6103d76103d26103dc926103c0565b61014d565b610064565b90565b60016103eb9101610064565b90565b634e487b7160e01b5f52603260045260245ffd5b5190565b9061041082610402565b811015610421576020809102010190565b6103ee565b5190565b9061043482610426565b811015610445576020809102010190565b6103ee565b906104549061008a565b9052565b9061046290610064565b9052565b93915091506104736103b6565b5061047c6103bb565b50604435806004013560051b809160240185378301600183016020028101918382528383526001840160200283016040526104b65f6103c3565b5b806104ca6104c487610064565b91610064565b101561051c576105179061051261050d6104ed896104e785610150565b90610c03565b87929161050786926105028c9189909261042a565b61044a565b92610406565b610458565b6103df565b6104b7565b5093506001925f602092838381029101a181029101a1565b9061054c9161054282610d10565b9192909192610da4565b565b90565b61056561056061056a9261054e565b61014d565b610064565b90565b6105776002610551565b90565b6105835f6103c3565b90565b90565b61059d6105986105a292610586565b61014d565b610064565b90565b6105af6001610589565b90565b5f90565b5f90565b6105ce6105c96105d3926103c0565b61014d565b61008a565b90565b6105df5f6105ba565b90565b156105e957565b5f639d6f849760e01b8152806106016004820161023c565b0390fd5b61061961061461061e9261008a565b61014d565b61008a565b90565b61062a90610605565b9052565b91602061064f92949361064860408201965f830190610621565b0190610621565b565b1561065a575050565b6106745f928392632ecb8af760e11b84526004840161062e565b0390fd5b61068190610150565b9052565b9160206106a692949361069f60408201965f830190610678565b0190610678565b565b156106b1575050565b6106cb5f928392636d01227360e01b845260048401610685565b0390fd5b9160206106f09294936106e960408201965f830190610678565b0190610621565b565b156106fb575050565b6107155f928392639743dfb160e01b8452600484016106cf565b0390fd5b90565b61073061072b61073592610719565b61014d565b61008a565b90565b61074664010000000061071c565b90565b15610752575050565b61076c5f928392631a16c05960e11b84526004840161062e565b0390fd5b15610779575050565b6107935f928392630f8c0ef360e01b84526004840161062e565b0390fd5b91906107aa905f60208501940190610621565b565b156107b45750565b6107cf905f918291637c242c4360e11b835260048301610797565b0390fd5b91906107e6905f60208501940190610678565b565b156107f05750565b61080b905f918291636860171d60e11b8352600483016107d3565b0390fd5b90565b61082661082161082b9261080f565b61014d565b610064565b90565b6108396103fc610812565b90565b156108445750565b61085f905f91829163cae6a1e160e01b835260048301610179565b0390fd5b90565b61087a61087561087f92610863565b61014d565b610064565b90565b61088d618000610866565b90565b156108985750565b6108b3905f91829163d6622c3160e01b8352600483016107d3565b0390fd5b6108cf6108ca6108c56102dd565b6102eb565b610dbe565b6108d761056d565b906108e061057a565b506108e96105a5565b916108f26105b2565b6108fa6105b6565b90610906868690610c03565b95610912888690610c03565b9390939461093061092b8a6109256105d6565b90610dd7565b6105e2565b5b600115610afa5761094e610946828b90610df6565b828b91610651565b61096461095c838690610e15565b8386916106a8565b61096f818a90610dd7565b8015610ae4575b610982908383916106f2565b61098d818a90610e53565b8015610ad3575b8015610aac575b6109a790828b91610749565b6109bd6109b58a8a90610df6565b8a8a91610770565b6109c8898990610e53565b610a7b57906109ed826109df610a06948c90610dd7565b908115610a68575b906107ac565b6109f8818590610e34565b908115610a55575b906107e8565b50610a1c84929394610a166105a5565b90610e99565b95610a39610a3288610a2c61082e565b90610ea6565b889061083c565b610a44888890610c03565b999093919994929099979597610931565b9050610a62848690610e34565b90610a00565b9050610a758b8990610dd7565b906109e7565b5050509294505050610aaa9350610aa591505b610aa081610a9a610882565b90610e60565b610890565b610b2a565b565b506109a7610acc610abe8b8490610e6d565b610ac6610738565b90610e7a565b905061099b565b50610adf828590610e60565b610994565b50610982610af3838690610e34565b9050610976565b5050509294505050610aaa9350610aa59150610a8e565b610b196102b3565b5061064f5160f01c90565b6105ef52565b600261064f015160101c9060f01b1761064f52565b5f90565b90565b610b5a610b55610b5f92610b43565b61014d565b610064565b90565b90610b6d9101610064565b90565b90610b796105a5565b610b81610b3f565b50603e610b8c610ec5565b0391610b96610b11565b925b610ba3838590610ed5565b15610bfc57610bf4610bc2610ba392610bbc6040610b46565b90610b62565b93610be6610bd1888390610c03565b610bda81610d10565b91899390919293610ee2565b610bee6105a5565b90610e99565b929050610b98565b5092505050565b91610c0c6105b2565b92610c156105b6565b92610c2881610c2261057a565b90610f02565b610c31575b5050565b9092506008919350610c41610b3f565b50600a02030190610c5a610c5483610f0f565b92610dbe565b905f80610c2d565b5f90565b90565b610c7d610c78610c8292610c66565b61014d565b610064565b90565b90565b610c9c610c97610ca192610c85565b61014d565b610064565b90565b610cb8610cb3610cbd92610064565b61014d565b61008a565b90565b90565b60ff1690565b610cdd610cd8610ce292610cc0565b61014d565b610cc3565b90565b1c90565b610d0890610d02610cfc610d0d94610cc3565b91610064565b90610ce5565b610064565b90565b610d2b90610d1c610c62565b50610d25610c62565b5061110e565b610da1610d9c610d97610d86610d81610d7c7ff1aaddd7742e56d32fb9f997447d9e6314db84884fabab26bf059af9bc20b609600160c11b610d76610d708a93610c69565b91610c88565b9061138b565b610ca4565b610605565b93610d916028610cc9565b90610ce9565b610ca4565b610605565b91565b6018906020810393845195601e8301526003820152035252565b610dc66105b6565b505160c01c90565b5f90565b151590565b610df391610ded91610de7610dce565b50610e53565b15610dd2565b90565b610e1291610e0c91610e06610dce565b506113a8565b15610dd2565b90565b610e3191610e2b91610e25610dce565b506113b5565b15610dd2565b90565b610e5091610e4a91610e44610dce565b50610e60565b15610dd2565b90565b610e5b610dce565b501490565b610e68610dce565b501490565b610e756105b6565b500390565b610e9691610e9091610e8a610dce565b506113c2565b15610dd2565b90565b610ea16102b3565b500190565b610ec291610ebc91610eb6610dce565b50610f02565b15610dd2565b90565b610ecd610357565b506105ef5190565b610edd610dce565b501090565b602091926022820394855196601e84015260038301526018820352035252565b610f0a610dce565b501190565b600290610f1a6105b2565b50035160f01c90565b610f37610f32610f3c9261008a565b61014d565b610064565b90565b90610f4a9102610064565b90565b90565b610f64610f5f610f6992610f4d565b61014d565b610064565b90565b90565b610f83610f7e610f8892610f6c565b61014d565b610064565b90565b634e487b7160e01b5f52601260045260245ffd5b610fab610fb191610064565b91610064565b908115610fbc570490565b610f8b565b90565b610fd8610fd3610fdd92610fc1565b61014d565b610064565b90565b90565b610ff7610ff2610ffc92610fe0565b61014d565b610064565b90565b90565b61101661101161101b92610fff565b61014d565b610064565b90565b90565b61103561103061103a9261101e565b61014d565b610064565b90565b90565b61105461104f6110599261103d565b61014d565b610cc3565b90565b1b90565b61107f9061107961107361108494610cc3565b91610064565b9061105c565b610064565b90565b90565b61109e6110996110a392611087565b61014d565b610064565b90565b90565b6110bd6110b86110c2926110a6565b61014d565b610064565b90565b90565b6110dc6110d76110e1926110c5565b61014d565b610064565b90565b906110ef9103610064565b90565b61110661110161110b9261054e565b61014d565b610cc3565b90565b6112ec61112e6111296112fc93611123610b3f565b50610605565b610f23565b611139818290610f3f565b906112aa61129761114b848590610f3f565b611153610b3f565b506112916112765f19600160801b600160801b858a095f19868b09030992611179610b3f565b506112706112596112496112386112258c61121f6112096111e66111c66111b68b80025f198d800903956111b0600760681b610f50565b90610f3f565b6111c0600f610f6f565b90610f9f565b6111e08b6111da6609c00000000000610fc4565b90610f9f565b90610b62565b6112038d6111fd69c9180000000000000000610fe3565b90610f9f565b90610b62565b91611219621eee11605a1b611002565b90610f9f565b90610b62565b611232600160fe1b611021565b90610b62565b9a611243606a611040565b90611060565b611253600f610f6f565b90610f9f565b9161126a662490000000000061108a565b90610f9f565b90610b62565b9161128b6a06df9200000000000000006110a9565b90610f9f565b90610b62565b6112a4600160ff1b6110c8565b90610b62565b905f1991600160b41b916001604c1b828209915f19910903096112e66112e06112d48484906110e4565b92600160fe1b94610b62565b92611021565b9061138b565b6112f660026110f2565b90611060565b808002905f1990800903808002905f1990800903808002905f1990800903808002905f1990800903808002905f1990800903808002905f1990800903808002905f1990800903808002905f1990800903808002905f1990800903808002905f1990800903808002905f1990800903808002905f1990800903808002905f1990800903808002905f199080090390565b9091611395610b3f565b5060018103928391818409820392090890565b6113b0610dce565b501390565b6113bd610dce565b501190565b6113ca610dce565b50129056fea2646970667358221220acefae0f5b7ec739a0330f8f0dc9660afe913d82ab277f7ba73a367c5bf8aa8c64736f6c63430008220033","linkReferences":{}},"methodIdentifiers":{"_expand(uint256,uint256,uint256[])":"9d9a004d","_member(uint256,uint256,uint256[])":"af206f2d","_validate(uint256,int256,uint256[])":"4504c9d3"},"id":21}