{"abi":[{"type":"receive","stateMutability":"payable"},{"type":"function","name":"balanceOfSelf","inputs":[{"name":"tokenAddress","type":"address","internalType":"address"}],"outputs":[{"name":"result","type":"uint256","internalType":"uint256"}],"stateMutability":"nonpayable"},{"type":"function","name":"balanceOfSelf","inputs":[{"name":"tokenAddress","type":"address","internalType":"address"},{"name":"id","type":"uint256","internalType":"uint256"}],"outputs":[{"name":"result","type":"uint256","internalType":"uint256"}],"stateMutability":"nonpayable"},{"type":"function","name":"onERC1155BatchReceived","inputs":[{"name":"","type":"address","internalType":"address"},{"name":"","type":"address","internalType":"address"},{"name":"","type":"uint256[]","internalType":"uint256[]"},{"name":"","type":"uint256[]","internalType":"uint256[]"},{"name":"","type":"bytes","internalType":"bytes"}],"outputs":[{"name":"","type":"bytes4","internalType":"bytes4"}],"stateMutability":"pure"},{"type":"function","name":"onERC1155Received","inputs":[{"name":"","type":"address","internalType":"address"},{"name":"","type":"address","internalType":"address"},{"name":"","type":"uint256","internalType":"uint256"},{"name":"","type":"uint256","internalType":"uint256"},{"name":"data","type":"bytes","internalType":"bytes"}],"outputs":[{"name":"","type":"bytes4","internalType":"bytes4"}],"stateMutability":"nonpayable"},{"type":"function","name":"storedData","inputs":[],"outputs":[{"name":"","type":"bytes","internalType":"bytes"}],"stateMutability":"view"},{"type":"function","name":"transfer","inputs":[{"name":"tokenAddress","type":"address","internalType":"address"},{"name":"id","type":"uint256","internalType":"uint256"},{"name":"to","type":"address","internalType":"address"},{"name":"amount","type":"uint256","internalType":"uint256"}],"outputs":[],"stateMutability":"nonpayable"},{"type":"function","name":"transfer","inputs":[{"name":"tokenAddress","type":"address","internalType":"address"},{"name":"id","type":"uint256","internalType":"uint256"},{"name":"to","type":"address","internalType":"address"},{"name":"amount","type":"uint256","internalType":"uint256"},{"name":"transferData","type":"bytes","internalType":"bytes"}],"outputs":[],"stateMutability":"nonpayable"},{"type":"function","name":"transfer","inputs":[{"name":"tokenAddress","type":"address","internalType":"address"},{"name":"to","type":"address","internalType":"address"},{"name":"amount","type":"uint256","internalType":"uint256"}],"outputs":[],"stateMutability":"nonpayable"},{"type":"error","name":"BalanceOverflow","inputs":[{"name":"balance","type":"uint256","internalType":"uint256"}]},{"type":"error","name":"CannotBe101","inputs":[]}],"bytecode":{"object":"0x608060405234601c57600e6020565b610d8f61002b8239610d8f90f35b6026565b60405190565b5f80fdfe6080604052600436101561001d575b366108055761001b610ac8565b005b6100275f356100a6565b80632a1afcd9146100a1578063335a94061461009c578063881efde614610097578063ac4a1c3a14610092578063bc197c811461008d578063beabacc814610088578063ddab9b61146100835763f23a6e610361000e576107c9565b610723565b6106c2565b610649565b610505565b61048b565b610399565b6102b5565b60e01c90565b60405190565b5f80fd5b5f80fd5b5f9103126100c457565b6100b6565b634e487b7160e01b5f525f60045260245ffd5b634e487b7160e01b5f52602260045260245ffd5b9060016002830492168015610110575b602083101461010b57565b6100dc565b91607f1691610100565b60209181520190565b5f5260205f2090565b905f929180549061014661013f836100f0565b809461011a565b916001811690815f1461019d5750600114610161575b505050565b61016e9192939450610123565b915f925b81841061018557505001905f808061015c565b60018160209295939554848601520191019290610172565b92949550505060ff19168252151560200201905f808061015c565b906101c29161012c565b90565b601f801991011690565b634e487b7160e01b5f52604160045260245ffd5b906101ed906101c5565b810190811067ffffffffffffffff82111761020757604052565b6101cf565b9061022c6102259261021c6100ac565b938480926101b8565b03836101e3565b565b905f106102415761023e9061020c565b90565b6100c9565b6102515f5f9061022e565b90565b5190565b60209181520190565b90825f9392825e0152565b61028b6102946020936102999361028281610254565b93848093610258565b95869101610261565b6101c5565b0190565b6102b29160208201915f81840391015261026c565b90565b346102e5576102c53660046100ba565b6102e16102d0610246565b6102d86100ac565b9182918261029d565b0390f35b6100b2565b5f80fd5b60018060a01b031690565b610302906102ee565b90565b61030e816102f9565b0361031557565b5f80fd5b9050359061032682610305565b565b90565b61033481610328565b0361033b57565b5f80fd5b9050359061034c8261032b565b565b60808183031261038f57610364825f8301610319565b9261038c610375846020850161033f565b936103838160408601610319565b9360600161033f565b90565b6100b6565b5f0190565b346103cb576103b56103ac36600461034e565b92919091610809565b6103bd6100ac565b806103c781610394565b0390f35b6100b2565b5f80fd5b5f80fd5b5f80fd5b909182601f830112156104165781359167ffffffffffffffff831161041157602001926001830284011161040c57565b6103d8565b6103d4565b6103d0565b91909160a08184031261048657610434835f8301610319565b92610442816020840161033f565b926104508260408501610319565b9261045e836060830161033f565b92608082013567ffffffffffffffff81116104815761047d92016103dc565b9091565b6102ea565b6100b6565b346104c0576104aa61049e36600461041b565b94939093929192610819565b6104b26100ac565b806104bc81610394565b0390f35b6100b2565b906020828203126104de576104db915f01610319565b90565b6100b6565b6104ec90610328565b9052565b9190610503905f602085019401906104e3565b565b346105355761053161052061051b3660046104c5565b610833565b6105286100ac565b918291826104f0565b0390f35b6100b2565b909182601f830112156105745781359167ffffffffffffffff831161056f57602001926020830284011161056a57565b6103d8565b6103d4565b6103d0565b9160a08383031261061657610590825f8501610319565b9261059e8360208301610319565b92604082013567ffffffffffffffff811161061157816105bf91840161053a565b929093606082013567ffffffffffffffff811161060c57836105e291840161053a565b929093608082013567ffffffffffffffff81116106075761060392016103dc565b9091565b6102ea565b6102ea565b6102ea565b6100b6565b63ffffffff60e01b1690565b6106309061061b565b9052565b9190610647905f60208501940190610627565b565b346106835761067f61066e61065f366004610579565b9695909594919493929361084c565b6106766100ac565b91829182610634565b0390f35b6100b2565b90916060828403126106bd576106ba6106a3845f8501610319565b936106b18160208601610319565b9360400161033f565b90565b6100b6565b346106f1576106db6106d5366004610688565b91610868565b6106e36100ac565b806106ed81610394565b0390f35b6100b2565b919060408382031261071e578061071261071b925f8601610319565b9360200161033f565b90565b6100b6565b346107545761075061073f6107393660046106f6565b90610877565b6107476100ac565b918291826104f0565b0390f35b6100b2565b91909160a0818403126107c457610772835f8301610319565b926107808160208401610319565b9261078e826040850161033f565b9261079c836060830161033f565b92608082013567ffffffffffffffff81116107bf576107bb92016103dc565b9091565b6102ea565b6100b6565b34610800576107fc6107eb6107df366004610759565b94939093929192610aa5565b6107f36100ac565b91829182610634565b0390f35b6100b2565b5f80fd5b916108179391909192610ae2565b565b9161082d9593919492949091929394610b26565b565b5f90565b6108459061083f61082f565b50610bd7565b90565b5f90565b505050505050505061085c610848565b5063bc197c8160e01b90565b9161087592919091610c69565b565b9061088a9161088461082f565b50610ce8565b90565b5090565b601f602091010490565b1b90565b919060086108ba9102916108b45f198461089b565b9261089b565b9181191691161790565b90565b6108db6108d66108e092610328565b6108c4565b610328565b90565b90565b91906108fc6108f7610904936108c7565b6108e3565b90835461089f565b9055565b61091a9161091461082f565b916108e6565b565b5f5b82811061092a57505050565b806109395f6001938501610908565b0161091e565b9190601f811161094f575b505050565b81811161095c575b61094a565b61097161096b61098f94610123565b91610891565b91602061097d82610891565b9110610997575b80910191039061091c565b5f8080610957565b505f610984565b1c90565b906109b2905f199060080261099e565b191690565b816109c1916109a2565b906002021790565b916109d4908261088d565b9067ffffffffffffffff8211610a93576109f8826109f285546100f0565b8561093f565b5f90601f8311600114610a2b57918091610a1a935f92610a1f575b50506109b7565b90555b565b90915001355f80610a13565b601f19831691610a3a85610123565b925f5b818110610a7b57509160029391856001969410610a61575b50505002019055610a1d565b610a71910135601f8416906109a2565b90555f8080610a55565b91936020600181928787013581550195019201610a3d565b6101cf565b90610aa392916109c9565b565b5050505090610abd91610ab6610848565b505f610a98565b63f23a6e6160e01b90565b6398d31d1960e01b60653414610adb5750565b5f5260045ffd5b915f80936020956064946304ade6db60e11b946040519586526004860152602485015260448401525af160203d1460015f5114161615610b1e57565b3d5f803e3d5ffd5b925f955085946020918693637921219560e11b9560405196875230600488015260248701526044860152606485015260a0608485015203803590816020019060a485013760c401925af115610b7757565b3d5f803e3d5ffd5b6fffffffffffffffffffffffffffffffff1690565b610ba8610ba3610bad92610b7f565b6108c4565b610328565b90565b15610bb85750565b610bd3905f918291630610d90760e11b8352600483016104f0565b0390fd5b5f60248180602094610be761082f565b506370a0823160e01b8252306004525af160203d141615610c36575f5190610c3482610c2b610c256fffffffffffffffffffffffffffffffff610b94565b91610328565b11158390610bb0565b565b3d5f803e3d5ffd5b90565b610c55610c50610c5a92610c3e565b6108c4565b6102ee565b90565b610c6690610c41565b90565b80610c84610c7e610c795f610c5d565b6102f9565b916102f9565b145f14610ca457505f80809381935af115610c9c575b565b3d5f803e3d5ffd5b60445f8080936020959663a9059cbb60e01b976040519884526004526024525af1601f3d1160015f5114163d15171615610ce057604052610c9a565b3d5f803e3d5ffd5b5f60448180602094610cf861082f565b50627eeac760e11b96604051978352306004526024525af160203d141615610d51576040525f5190610d4f82610d46610d406fffffffffffffffffffffffffffffffff610b94565b91610328565b11158390610bb0565b565b3d5f803e3d5ffdfea264697066735822122034a6e140130302ef820189b2a535ebb8f167473142e531d0ab806d7536b95d6f64736f6c63430008220033","linkReferences":{}},"methodIdentifiers":{"balanceOfSelf(address)":"ac4a1c3a","balanceOfSelf(address,uint256)":"ddab9b61","onERC1155BatchReceived(address,address,uint256[],uint256[],bytes)":"bc197c81","onERC1155Received(address,address,uint256,uint256,bytes)":"f23a6e61","storedData()":"2a1afcd9","transfer(address,address,uint256)":"beabacc8","transfer(address,uint256,address,uint256)":"335a9406","transfer(address,uint256,address,uint256,bytes)":"881efde6"},"id":31}