{"abi":[{"type":"function","name":"storageAccess","inputs":[{"name":"slot","type":"bytes32","internalType":"bytes32"}],"outputs":[{"name":"","type":"bytes32","internalType":"bytes32"}],"stateMutability":"view"},{"type":"function","name":"storageAccess","inputs":[{"name":"startSlot","type":"bytes32","internalType":"bytes32"},{"name":"nSlots","type":"uint256","internalType":"uint256"}],"outputs":[{"name":"","type":"bytes32[]","internalType":"bytes32[]"}],"stateMutability":"view"},{"type":"function","name":"storageAccess","inputs":[{"name":"slots","type":"bytes32[]","internalType":"bytes32[]"}],"outputs":[{"name":"","type":"bytes32[]","internalType":"bytes32[]"}],"stateMutability":"view"}],"bytecode":{"object":"0x6080806040523460155761017e908161001a8239f35b5f80fdfe60806040526004361015610011575f80fd5b5f3560e01c80631352ea351461012c578063745fa652146100d6576389c59eb91461003a575f80fd5b346100d25760203660031901126100d2576004356001600160401b0381116100d257366023820112156100d2576004810135906001600160401b0382116100d2578160051b9036602483830101116100d25760408051809460208252602082015201918301916020806024604086019401925b83355481520191019084838210156100c95750602080916100ad565b60408186030190f35b5f80fd5b346100d25760403660031901126100d2576024356004356040519160408360208152826020820152019060051b8301916001602060408501935b835481520191019084838210156100c957506020600191610110565b346100d25760203660031901126100d257600435545f5260205ff3fea26469706673582212206732680903af49dfe0932f6397d609596dcf06534b2c11d34266dbfe0c886d7c64736f6c63430008220033","linkReferences":{}},"methodIdentifiers":{"storageAccess(bytes32)":"1352ea35","storageAccess(bytes32,uint256)":"745fa652","storageAccess(bytes32[])":"89c59eb9"},"id":1}