{"abi":[{"type":"function","name":"authorizeInitialization","inputs":[{"name":"sentinelInput","type":"bytes","internalType":"bytes"}],"outputs":[{"name":"selector","type":"bytes4","internalType":"bytes4"}],"stateMutability":"nonpayable"},{"type":"function","name":"authorizeInitializationSelector","inputs":[],"outputs":[{"name":"","type":"bytes4","internalType":"bytes4"}],"stateMutability":"view"},{"type":"function","name":"authorizeModificationOfPoolGrowthPortion","inputs":[{"name":"sentinelInput","type":"bytes","internalType":"bytes"}],"outputs":[{"name":"selector","type":"bytes4","internalType":"bytes4"}],"stateMutability":"nonpayable"},{"type":"function","name":"authorizeModificationOfPoolGrowthPortionSelector","inputs":[],"outputs":[{"name":"","type":"bytes4","internalType":"bytes4"}],"stateMutability":"view"},{"type":"function","name":"getGrowthPortions","inputs":[{"name":"sentinelInput","type":"bytes","internalType":"bytes"}],"outputs":[{"name":"_maxPoolGrowthPortion","type":"uint256","internalType":"X47"},{"name":"_protocolGrowthPortion","type":"uint256","internalType":"X47"}],"stateMutability":"nonpayable"},{"type":"function","name":"maxPoolGrowthPortion","inputs":[],"outputs":[{"name":"","type":"uint256","internalType":"X47"}],"stateMutability":"view"},{"type":"function","name":"protocolGrowthPortion","inputs":[],"outputs":[{"name":"","type":"uint256","internalType":"X47"}],"stateMutability":"view"},{"type":"function","name":"setValues","inputs":[{"name":"_maxPoolGrowthPortion","type":"uint256","internalType":"X47"},{"name":"_protocolGrowthPortion","type":"uint256","internalType":"X47"},{"name":"selector0","type":"bytes4","internalType":"bytes4"},{"name":"selector1","type":"bytes4","internalType":"bytes4"}],"outputs":[],"stateMutability":"nonpayable"}],"bytecode":{"object":"0x608060405234601c57600e6020565b6106c361002b82396106c390f35b6026565b60405190565b5f80fdfe60806040526004361015610013575b6104b9565b61001d5f3561009c565b80630c4257de146100975780631dfa4738146100925780633d5e89371461008d578063445bebf91461008857806353c16ec1146100835780638fcaa6e21461007e578063b8bc6125146100795763ef0c20a70361000e57610484565b61043e565b610407565b610341565b6102c4565b610261565b61021e565b610187565b60e01c90565b60405190565b5f80fd5b5f80fd5b5f80fd5b5f80fd5b5f80fd5b5f80fd5b909182601f830112156100fa5781359167ffffffffffffffff83116100f55760200192600183028401116100f057565b6100bc565b6100b8565b6100b4565b90602082820312610130575f82013567ffffffffffffffff811161012b5761012792016100c0565b9091565b6100b0565b6100ac565b90565b90565b61014f61014a61015492610135565b610138565b610135565b90565b6101609061013b565b9052565b91602061018592949361017e60408201965f830190610157565b0190610157565b565b346101b9576101a061019a3660046100ff565b906104e7565b906101b56101ac6100a2565b92839283610164565b0390f35b6100a8565b5f9103126101c857565b6100ac565b1c90565b90565b6101e49060086101e993026101cd565b6101d1565b90565b906101f791546101d4565b90565b61020660015f906101ec565b90565b919061021c905f60208501940190610157565b565b3461024e5761022e3660046101be565b61024a6102396101fa565b6102416100a2565b91829182610209565b0390f35b6100a8565b61025e5f5f906101ec565b90565b34610291576102713660046101be565b61028d61027c610253565b6102846100a2565b91829182610209565b0390f35b6100a8565b63ffffffff60e01b1690565b6102ab90610296565b9052565b91906102c2905f602085019401906102a2565b565b346102f5576102f16102e06102da3660046100ff565b90610537565b6102e86100a2565b918291826102af565b0390f35b6100a8565b60e01b90565b610309906102fa565b90565b61031c90600861032193026101cd565b610300565b90565b9061032f915461030c565b90565b61033e60025f90610324565b90565b34610371576103513660046101be565b61036d61035c610332565b6103646100a2565b918291826102af565b0390f35b6100a8565b61037f81610135565b0361038657565b5f80fd5b9050359061039782610376565b565b6103a281610296565b036103a957565b5f80fd5b905035906103ba82610399565b565b6080818303126103fd576103d2825f830161038a565b926103fa6103e3846020850161038a565b936103f181604086016103ad565b936060016103ad565b90565b6100ac565b5f0190565b346104395761042361041a3660046103bc565b92919091610621565b61042b6100a2565b8061043581610402565b0390f35b6100a8565b3461046f5761046b61045a6104543660046100ff565b90610675565b6104626100a2565b918291826102af565b0390f35b6100a8565b6104816002600490610324565b90565b346104b4576104943660046101be565b6104b061049f610474565b6104a76100a2565b918291826102af565b0390f35b6100a8565b5f80fd5b5f90565b5f1c90565b6104d26104d7916104c1565b6101d1565b90565b6104e490546104c6565b90565b50506104f16104bd565b506104fa6104bd565b506105045f6104da565b9061050f60016104da565b90565b5f90565b610522610527916104c1565b610300565b90565b6105349054610516565b90565b5050610541610512565b5061054c600261052a565b90565b5f1b90565b906105605f199161054f565b9181191691161790565b90565b9061058261057d6105899261013b565b61056a565b8254610554565b9055565b9061059c63ffffffff9161054f565b9181191691161790565b6105af90610296565b90565b6105bb9061009c565b90565b906105d36105ce6105da926105a6565b6105b2565b825461058d565b9055565b60201b90565b906105f767ffffffff00000000916105de565b9181191691161790565b9061061661061161061d926105a6565b6105b2565b82546105e4565b9055565b9161063e6106459261063761064c96955f61056d565b600161056d565b60026105be565b6002610601565b565b60201c90565b6106606106659161064e565b610300565b90565b6106729054610654565b90565b505061067f610512565b5061068a6002610668565b9056fea2646970667358221220000c8f069f58d89352b02ffce1f73d4110af9331311baeeb05a4708e4ea8dd5364736f6c63430008220033","linkReferences":{}},"methodIdentifiers":{"authorizeInitialization(bytes)":"445bebf9","authorizeInitializationSelector()":"53c16ec1","authorizeModificationOfPoolGrowthPortion(bytes)":"b8bc6125","authorizeModificationOfPoolGrowthPortionSelector()":"ef0c20a7","getGrowthPortions(bytes)":"0c4257de","maxPoolGrowthPortion()":"3d5e8937","protocolGrowthPortion()":"1dfa4738","setValues(uint256,uint256,bytes4,bytes4)":"8fcaa6e2"},"id":28}