{"abi":[{"type":"function","name":"_accruedParamsSlot","inputs":[],"outputs":[{"name":"storageSlot","type":"uint256","internalType":"uint256"}],"stateMutability":"nonpayable"},{"type":"function","name":"_allowanceSlot","inputs":[],"outputs":[{"name":"storageSlot","type":"uint256","internalType":"uint256"}],"stateMutability":"nonpayable"},{"type":"function","name":"_calculateGrowthMultiplier0","inputs":[{"name":"poolId","type":"uint256","internalType":"uint256"},{"name":"qSpacing","type":"int256","internalType":"X59"},{"name":"qBoundary","type":"int256","internalType":"X59"},{"name":"growthMultiplier","type":"uint256","internalType":"X208"}],"outputs":[{"name":"growthMultiplierResult","type":"uint256","internalType":"X208"},{"name":"growthMultiplierStorage","type":"uint256","internalType":"X208"}],"stateMutability":"nonpayable"},{"type":"function","name":"_calculateGrowthMultiplier0","inputs":[{"name":"qSpacing","type":"int256","internalType":"X59"},{"name":"qBoundary","type":"int256","internalType":"X59"}],"outputs":[{"name":"growthMultiplier","type":"uint256","internalType":"X208"}],"stateMutability":"nonpayable"},{"type":"function","name":"_calculateGrowthMultiplier1","inputs":[{"name":"qSpacing","type":"int256","internalType":"X59"},{"name":"qBoundary","type":"int256","internalType":"X59"}],"outputs":[{"name":"growthMultiplier","type":"uint256","internalType":"X208"}],"stateMutability":"nonpayable"},{"type":"function","name":"_calculateGrowthMultiplier1","inputs":[{"name":"poolId","type":"uint256","internalType":"uint256"},{"name":"qSpacing","type":"int256","internalType":"X59"},{"name":"qBoundary","type":"int256","internalType":"X59"},{"name":"growthMultiplier","type":"uint256","internalType":"X208"}],"outputs":[{"name":"growthMultiplierResult","type":"uint256","internalType":"X208"},{"name":"growthMultiplierStorage","type":"uint256","internalType":"X208"}],"stateMutability":"nonpayable"},{"type":"function","name":"_curveSlot","inputs":[],"outputs":[{"name":"storageSlot","type":"uint256","internalType":"uint256"}],"stateMutability":"nonpayable"},{"type":"function","name":"_decrementBalance","inputs":[{"name":"currentBalance","type":"uint256","internalType":"uint256"},{"name":"currentIsOperator","type":"bool","internalType":"bool"},{"name":"currentAllowance","type":"uint256","internalType":"uint256"},{"name":"owner","type":"address","internalType":"address"},{"name":"tag","type":"uint256","internalType":"Tag"},{"name":"amount","type":"uint256","internalType":"uint256"}],"outputs":[{"name":"newBalance","type":"uint256","internalType":"uint256"},{"name":"newAllowance","type":"uint256","internalType":"uint256"}],"stateMutability":"nonpayable"},{"type":"function","name":"_doubleBalanceSlot","inputs":[],"outputs":[{"name":"storageSlot","type":"uint256","internalType":"uint256"}],"stateMutability":"nonpayable"},{"type":"function","name":"_dynamicParamsSlot","inputs":[],"outputs":[{"name":"storageSlot","type":"uint256","internalType":"uint256"}],"stateMutability":"nonpayable"},{"type":"function","name":"_getAccruedParamsSlot","inputs":[{"name":"poolId","type":"uint256","internalType":"uint256"}],"outputs":[{"name":"storageSlot","type":"uint256","internalType":"uint256"}],"stateMutability":"nonpayable"},{"type":"function","name":"_getAllowanceSlot","inputs":[{"name":"owner","type":"address","internalType":"address"},{"name":"spender","type":"address","internalType":"address"},{"name":"tag","type":"uint256","internalType":"Tag"}],"outputs":[{"name":"storageSlot","type":"uint256","internalType":"uint256"}],"stateMutability":"nonpayable"},{"type":"function","name":"_getCurveSlot","inputs":[{"name":"poolId","type":"uint256","internalType":"uint256"}],"outputs":[{"name":"storageSlot","type":"uint256","internalType":"uint256"}],"stateMutability":"nonpayable"},{"type":"function","name":"_getDoubleBalanceSlot","inputs":[{"name":"owner","type":"address","internalType":"address"},{"name":"tag0","type":"uint256","internalType":"Tag"},{"name":"tag1","type":"uint256","internalType":"Tag"}],"outputs":[{"name":"storageSlot","type":"uint256","internalType":"uint256"}],"stateMutability":"nonpayable"},{"type":"function","name":"_getDynamicParamsSlot","inputs":[{"name":"poolId","type":"uint256","internalType":"uint256"}],"outputs":[{"name":"storageSlot","type":"uint256","internalType":"uint256"}],"stateMutability":"nonpayable"},{"type":"function","name":"_getGrowthMultiplierSlot","inputs":[{"name":"poolId","type":"uint256","internalType":"uint256"},{"name":"qBoundary","type":"int256","internalType":"X59"}],"outputs":[{"name":"storageSlot","type":"uint256","internalType":"uint256"}],"stateMutability":"nonpayable"},{"type":"function","name":"_getGrowthPortions","inputs":[{"name":"protocol","type":"uint256","internalType":"uint256"}],"outputs":[{"name":"maxPoolGrowthPortion","type":"uint256","internalType":"X47"},{"name":"protocolGrowthPortion","type":"uint256","internalType":"X47"}],"stateMutability":"nonpayable"},{"type":"function","name":"_getIsOperatorSlot","inputs":[{"name":"owner","type":"address","internalType":"address"},{"name":"spender","type":"address","internalType":"address"}],"outputs":[{"name":"storageSlot","type":"uint256","internalType":"uint256"}],"stateMutability":"nonpayable"},{"type":"function","name":"_getPoolOwnerSlot","inputs":[{"name":"poolId","type":"uint256","internalType":"uint256"}],"outputs":[{"name":"storageSlot","type":"uint256","internalType":"uint256"}],"stateMutability":"nonpayable"},{"type":"function","name":"_getProtocolOwner","inputs":[{"name":"protocol","type":"uint256","internalType":"uint256"}],"outputs":[{"name":"result","type":"address","internalType":"address"}],"stateMutability":"nonpayable"},{"type":"function","name":"_getSharesDeltaSlot","inputs":[{"name":"poolId","type":"uint256","internalType":"uint256"},{"name":"qBoundary","type":"int256","internalType":"X59"}],"outputs":[{"name":"storageSlot","type":"uint256","internalType":"uint256"}],"stateMutability":"nonpayable"},{"type":"function","name":"_getSharesGrossSlot","inputs":[{"name":"poolId","type":"uint256","internalType":"uint256"}],"outputs":[{"name":"storageSlot","type":"uint256","internalType":"uint256"}],"stateMutability":"nonpayable"},{"type":"function","name":"_getSingleBalanceSlot","inputs":[{"name":"owner","type":"address","internalType":"address"},{"name":"tag","type":"uint256","internalType":"Tag"}],"outputs":[{"name":"storageSlot","type":"uint256","internalType":"uint256"}],"stateMutability":"nonpayable"},{"type":"function","name":"_getStaticParamsStorageAddress","inputs":[{"name":"poolId","type":"uint256","internalType":"uint256"},{"name":"storagePointer","type":"uint256","internalType":"uint256"}],"outputs":[{"name":"storageAddress","type":"address","internalType":"address"}],"stateMutability":"nonpayable"},{"type":"function","name":"_getStaticParamsStorageAddress","inputs":[{"name":"nofeeswap","type":"address","internalType":"address"},{"name":"poolId","type":"uint256","internalType":"uint256"},{"name":"storagePointer","type":"uint256","internalType":"uint256"}],"outputs":[{"name":"storageAddress","type":"address","internalType":"address"}],"stateMutability":"nonpayable"},{"type":"function","name":"_growthMultiplierSlot","inputs":[],"outputs":[{"name":"storageSlot","type":"uint256","internalType":"uint256"}],"stateMutability":"nonpayable"},{"type":"function","name":"_incrementBalance","inputs":[{"name":"currentBalance","type":"uint256","internalType":"uint256"},{"name":"owner","type":"address","internalType":"address"},{"name":"tag","type":"uint256","internalType":"Tag"},{"name":"amount","type":"uint256","internalType":"uint256"}],"outputs":[{"name":"newBalance","type":"uint256","internalType":"uint256"}],"stateMutability":"nonpayable"},{"type":"function","name":"_isOperatorSlot","inputs":[],"outputs":[{"name":"storageSlot","type":"uint256","internalType":"uint256"}],"stateMutability":"nonpayable"},{"type":"function","name":"_modifySharesDelta","inputs":[{"name":"poolId","type":"uint256","internalType":"uint256"},{"name":"sharesGross","type":"uint256","internalType":"uint256"},{"name":"shares","type":"int256","internalType":"int256"},{"name":"sharesDeltaMin","type":"int256","internalType":"int256"},{"name":"sharesDeltaMax","type":"int256","internalType":"int256"},{"name":"qMin","type":"int256","internalType":"X59"},{"name":"qMax","type":"int256","internalType":"X59"},{"name":"qSpacing","type":"int256","internalType":"X59"}],"outputs":[{"name":"sharesGrossNew","type":"uint256","internalType":"uint256"},{"name":"sharesDeltaMinNew","type":"int256","internalType":"int256"},{"name":"sharesDeltaMaxNew","type":"int256","internalType":"int256"}],"stateMutability":"nonpayable"},{"type":"function","name":"_poolOwnerSlot","inputs":[],"outputs":[{"name":"storageSlot","type":"uint256","internalType":"uint256"}],"stateMutability":"nonpayable"},{"type":"function","name":"_protocolSlot","inputs":[],"outputs":[{"name":"storageSlot","type":"uint256","internalType":"uint256"}],"stateMutability":"nonpayable"},{"type":"function","name":"_readAccruedParams","inputs":[{"name":"poolId","type":"uint256","internalType":"uint256"},{"name":"content","type":"uint256","internalType":"uint256"}],"outputs":[{"name":"poolRatio0","type":"uint256","internalType":"X23"},{"name":"poolRatio1","type":"uint256","internalType":"X23"},{"name":"accrued0","type":"int256","internalType":"X127"},{"name":"accrued1","type":"int256","internalType":"X127"}],"stateMutability":"nonpayable"},{"type":"function","name":"_readBoundaries","inputs":[{"name":"poolId","type":"uint256","internalType":"uint256"},{"name":"content","type":"uint256","internalType":"uint256"}],"outputs":[{"name":"qLower","type":"int256","internalType":"X59"},{"name":"qUpper","type":"int256","internalType":"X59"}],"stateMutability":"nonpayable"},{"type":"function","name":"_readCurve","inputs":[{"name":"poolId","type":"uint256","internalType":"uint256"},{"name":"qCurrent","type":"int256","internalType":"X59"},{"name":"curveArray","type":"uint256[]","internalType":"uint256[]"}],"outputs":[{"name":"curveMembers","type":"int256[]","internalType":"X59[]"},{"name":"curveLength","type":"uint256","internalType":"Index"}],"stateMutability":"nonpayable"},{"type":"function","name":"_readDoubleBalance","inputs":[{"name":"storageSlot","type":"uint256","internalType":"uint256"},{"name":"content","type":"uint256","internalType":"uint256"}],"outputs":[{"name":"amount0","type":"uint256","internalType":"uint256"},{"name":"amount1","type":"uint256","internalType":"uint256"}],"stateMutability":"nonpayable"},{"type":"function","name":"_readDynamicParams","inputs":[{"name":"poolId","type":"uint256","internalType":"uint256"},{"name":"content0","type":"uint256","internalType":"uint256"},{"name":"content1","type":"uint256","internalType":"uint256"},{"name":"content2","type":"uint256","internalType":"uint256"},{"name":"content3","type":"uint256","internalType":"uint256"}],"outputs":[{"name":"staticParamsStoragePointerExtension","type":"uint256","internalType":"uint256"},{"name":"staticParamsStoragePointer","type":"uint16","internalType":"uint16"},{"name":"logPriceCurrent","type":"int256","internalType":"X59"},{"name":"sharesTotal","type":"uint256","internalType":"uint256"},{"name":"growth","type":"int256","internalType":"X111"},{"name":"integral0","type":"int256","internalType":"X216"},{"name":"integral1","type":"int256","internalType":"X216"}],"stateMutability":"nonpayable"},{"type":"function","name":"_readGrowthMultiplier","inputs":[{"name":"storageSlot","type":"uint256","internalType":"uint256"},{"name":"content","type":"uint256","internalType":"uint256"}],"outputs":[{"name":"growthMultiplier","type":"uint256","internalType":"X208"}],"stateMutability":"nonpayable"},{"type":"function","name":"_readGrowthPortions","inputs":[{"name":"sentinel","type":"address","internalType":"contract ISentinel"},{"name":"protocol","type":"uint256","internalType":"uint256"}],"outputs":[{"name":"maxPoolGrowthPortion","type":"uint256","internalType":"X47"},{"name":"protocolGrowthPortion","type":"uint256","internalType":"X47"}],"stateMutability":"nonpayable"},{"type":"function","name":"_readKernel","inputs":[{"name":"content","type":"bytes","internalType":"bytes"}],"outputs":[{"name":"contentResult","type":"bytes","internalType":"bytes"}],"stateMutability":"nonpayable"},{"type":"function","name":"_readKernelLength","inputs":[{"name":"content","type":"bytes","internalType":"bytes"}],"outputs":[{"name":"length","type":"uint256","internalType":"Index"}],"stateMutability":"nonpayable"},{"type":"function","name":"_readPoolData0","inputs":[{"name":"poolId","type":"uint256","internalType":"uint256"},{"name":"kernelLength","type":"uint256","internalType":"Index"},{"name":"storagePointer","type":"uint256","internalType":"uint256"},{"name":"dynamicContent","type":"uint256[4]","internalType":"uint256[4]"},{"name":"curveArray","type":"uint256[]","internalType":"uint256[]"},{"name":"staticContent","type":"bytes","internalType":"bytes"}],"outputs":[],"stateMutability":"nonpayable"},{"type":"function","name":"_readPoolData1","inputs":[{"name":"poolId","type":"uint256","internalType":"uint256"},{"name":"kernel","type":"uint256","internalType":"Kernel"}],"outputs":[{"name":"contentResult","type":"bytes","internalType":"bytes"}],"stateMutability":"nonpayable"},{"type":"function","name":"_readPoolOwner","inputs":[{"name":"storageSlot","type":"uint256","internalType":"uint256"},{"name":"poolOwner","type":"address","internalType":"address"}],"outputs":[{"name":"poolOwnerResult","type":"address","internalType":"address"}],"stateMutability":"nonpayable"},{"type":"function","name":"_readProtocol","inputs":[{"name":"protocol","type":"uint256","internalType":"uint256"}],"outputs":[{"name":"result","type":"uint256","internalType":"uint256"}],"stateMutability":"nonpayable"},{"type":"function","name":"_readSentinel","inputs":[{"name":"sentinel","type":"address","internalType":"contract ISentinel"}],"outputs":[{"name":"sentinelResult","type":"address","internalType":"contract ISentinel"}],"stateMutability":"nonpayable"},{"type":"function","name":"_readSharesDelta","inputs":[{"name":"storageSlot","type":"uint256","internalType":"uint256"},{"name":"content","type":"uint256","internalType":"uint256"}],"outputs":[{"name":"sharesDelta","type":"int256","internalType":"int256"}],"stateMutability":"nonpayable"},{"type":"function","name":"_readStaticParams","inputs":[{"name":"content","type":"bytes","internalType":"bytes"}],"outputs":[{"name":"contentResult","type":"bytes","internalType":"bytes"}],"stateMutability":"nonpayable"},{"type":"function","name":"_readStaticParamsAndKernel","inputs":[{"name":"content","type":"bytes","internalType":"bytes"}],"outputs":[{"name":"contentResult","type":"bytes","internalType":"bytes"}],"stateMutability":"nonpayable"},{"type":"function","name":"_sentinelSlot","inputs":[],"outputs":[{"name":"storageSlot","type":"uint256","internalType":"uint256"}],"stateMutability":"nonpayable"},{"type":"function","name":"_sharesDeltaSlot","inputs":[],"outputs":[{"name":"storageSlot","type":"uint256","internalType":"uint256"}],"stateMutability":"nonpayable"},{"type":"function","name":"_sharesGrossSlot","inputs":[],"outputs":[{"name":"storageSlot","type":"uint256","internalType":"uint256"}],"stateMutability":"nonpayable"},{"type":"function","name":"_singleBalanceSlot","inputs":[],"outputs":[{"name":"storageSlot","type":"uint256","internalType":"uint256"}],"stateMutability":"nonpayable"},{"type":"function","name":"_totalSupplySlot","inputs":[],"outputs":[{"name":"storageSlot","type":"uint256","internalType":"uint256"}],"stateMutability":"nonpayable"},{"type":"function","name":"_updateAllowance","inputs":[{"name":"currentIsOperator","type":"bool","internalType":"bool"},{"name":"currentAllowance","type":"uint256","internalType":"uint256"},{"name":"owner","type":"address","internalType":"address"},{"name":"tag","type":"uint256","internalType":"Tag"},{"name":"amount","type":"uint256","internalType":"uint256"}],"outputs":[{"name":"newAllowance","type":"uint256","internalType":"uint256"}],"stateMutability":"nonpayable"},{"type":"function","name":"_updateTotalSupply","inputs":[{"name":"storageSlot","type":"uint256","internalType":"uint256"},{"name":"totalSupply","type":"uint256","internalType":"uint256"},{"name":"poolId","type":"uint256","internalType":"uint256"},{"name":"qMin","type":"int256","internalType":"X59"},{"name":"qMax","type":"int256","internalType":"X59"},{"name":"shares","type":"int256","internalType":"int256"}],"outputs":[{"name":"newTotalSupply","type":"uint256","internalType":"uint256"}],"stateMutability":"nonpayable"},{"type":"function","name":"_writeAccruedParams","inputs":[{"name":"poolId","type":"uint256","internalType":"uint256"},{"name":"poolRatio0","type":"uint256","internalType":"X23"},{"name":"poolRatio1","type":"uint256","internalType":"X23"},{"name":"accrued0","type":"int256","internalType":"X127"},{"name":"accrued1","type":"int256","internalType":"X127"}],"outputs":[{"name":"content","type":"uint256","internalType":"uint256"}],"stateMutability":"nonpayable"},{"type":"function","name":"_writeCurve","inputs":[{"name":"poolId","type":"uint256","internalType":"uint256"},{"name":"curveLength","type":"uint256","internalType":"Index"},{"name":"curveArray","type":"uint256[]","internalType":"uint256[]"}],"outputs":[{"name":"curveArrayResult","type":"uint256[]","internalType":"uint256[]"}],"stateMutability":"nonpayable"},{"type":"function","name":"_writeDoubleBalance","inputs":[{"name":"storageSlot","type":"uint256","internalType":"uint256"},{"name":"amount0","type":"uint256","internalType":"uint256"},{"name":"amount1","type":"uint256","internalType":"uint256"}],"outputs":[{"name":"content","type":"uint256","internalType":"uint256"}],"stateMutability":"nonpayable"},{"type":"function","name":"_writeDynamicParams","inputs":[{"name":"poolId","type":"uint256","internalType":"uint256"},{"name":"staticParamsStoragePointerExtension","type":"uint256","internalType":"uint256"},{"name":"staticParamsStoragePointer","type":"uint16","internalType":"uint16"},{"name":"logPriceCurrent","type":"int256","internalType":"X59"},{"name":"sharesTotal","type":"uint256","internalType":"uint256"},{"name":"growth","type":"int256","internalType":"X111"},{"name":"integral0","type":"int256","internalType":"X216"},{"name":"integral1","type":"int256","internalType":"X216"}],"outputs":[{"name":"content0","type":"uint256","internalType":"uint256"},{"name":"content1","type":"uint256","internalType":"uint256"},{"name":"content2","type":"uint256","internalType":"uint256"},{"name":"content3","type":"uint256","internalType":"uint256"}],"stateMutability":"nonpayable"},{"type":"function","name":"_writeGrowthMultiplier","inputs":[{"name":"storageSlot","type":"uint256","internalType":"uint256"},{"name":"growthMultiplier","type":"uint256","internalType":"X208"}],"outputs":[{"name":"content","type":"uint256","internalType":"uint256"}],"stateMutability":"nonpayable"},{"type":"function","name":"_writeGrowthMultipliers","inputs":[{"name":"poolId","type":"uint256","internalType":"uint256"},{"name":"qSpacing","type":"int256","internalType":"X59"},{"name":"qLower","type":"int256","internalType":"X59"},{"name":"qUpper","type":"int256","internalType":"X59"}],"outputs":[{"name":"growthMultiplierLowerResult","type":"uint256","internalType":"X208"},{"name":"growthMultiplierUpperResult","type":"uint256","internalType":"X208"}],"stateMutability":"nonpayable"},{"type":"function","name":"_writePoolOwner","inputs":[{"name":"storageSlot","type":"uint256","internalType":"uint256"},{"name":"poolOwner","type":"address","internalType":"address"}],"outputs":[{"name":"content","type":"uint256","internalType":"uint256"}],"stateMutability":"nonpayable"},{"type":"function","name":"_writeProtocol","inputs":[{"name":"protocol","type":"uint256","internalType":"uint256"}],"outputs":[{"name":"protocolResult","type":"uint256","internalType":"uint256"}],"stateMutability":"nonpayable"},{"type":"function","name":"_writeSentinel","inputs":[{"name":"sentinel","type":"address","internalType":"contract ISentinel"}],"outputs":[{"name":"sentinelResult","type":"uint256","internalType":"uint256"}],"stateMutability":"nonpayable"},{"type":"function","name":"_writeStaticParams","inputs":[{"name":"poolId","type":"uint256","internalType":"uint256"},{"name":"kernelLength","type":"uint256","internalType":"Index"},{"name":"storagePointer","type":"uint256","internalType":"uint256"},{"name":"storageAddress","type":"uint160","internalType":"uint160"},{"name":"content","type":"bytes","internalType":"bytes"}],"outputs":[{"name":"contentResult","type":"bytes","internalType":"bytes"}],"stateMutability":"nonpayable"},{"type":"event","name":"Transfer","inputs":[{"name":"caller","type":"address","indexed":false,"internalType":"address"},{"name":"from","type":"address","indexed":true,"internalType":"address"},{"name":"to","type":"address","indexed":true,"internalType":"address"},{"name":"tag","type":"uint256","indexed":true,"internalType":"Tag"},{"name":"amount","type":"uint256","indexed":false,"internalType":"uint256"}],"anonymous":false},{"type":"error","name":"AccruedGrowthPortionOverflow","inputs":[{"name":"accruedValue","type":"int256","internalType":"X127"}]},{"type":"error","name":"BalanceOverflow","inputs":[{"name":"balance","type":"uint256","internalType":"uint256"}]},{"type":"error","name":"DeploymentFailed","inputs":[]},{"type":"error","name":"InsufficientBalance","inputs":[{"name":"owner","type":"address","internalType":"address"},{"name":"tag","type":"uint256","internalType":"Tag"}]},{"type":"error","name":"InsufficientPermission","inputs":[{"name":"spender","type":"address","internalType":"address"},{"name":"tag","type":"uint256","internalType":"Tag"}]},{"type":"error","name":"PoolDoesNotExist","inputs":[{"name":"poolId","type":"uint256","internalType":"uint256"}]},{"type":"error","name":"SharesGrossOverflow","inputs":[{"name":"sharesGross","type":"int256","internalType":"int256"}]}],"bytecode":{"object":"0x608060405234601c57600e6020565b615cf761002b8239615cf790f35b6026565b60405190565b5f80fdfe60806040526004361015610013575b612281565b61001d5f3561042c565b806302ae745414610427578063037aef47146104225780630638a4451461041d5780630a8d43cf146104185780630b6a9c40146104135780630e1134a91461040e5780630f220f2d14610409578063138c9d8614610404578063147d6499146103ff57806315a72216146103fa5780631e27bcf5146103f55780631ebb8a50146103f057806320522ac1146103eb578063245e6f88146103e6578063268481af146103e15780632c450a84146103dc5780632fba011c146103d757806331fb0a77146103d2578063350ce6ec146103cd57806335713e91146103c857806339ea5dd4146103c35780633dc0c836146103be5780633f8fd396146103b95780634250ea05146103b457806346331f20146103af5780634663aaa4146103aa578063478d7461146103a5578063492e04a8146103a05780634b4c4f761461039b5780634f23f5881461039657806350647a4c1461039157806353f6fcfa1461038c578063608efbae1461038757806360f183ca1461038257806367d532a61461037d57806369f9d0b71461037857806370d4a96014610373578063766526f41461036e5780637fbb6da01461036957806380af3797146103645780638d13f3821461035f5780638d7f380e1461035a57806393a825781461035557806393e635e9146103505780639545a8501461034b578063a1f3202114610346578063a4d3864914610341578063a67fe2001461033c578063a870307a14610337578063b7f7dfc914610332578063b8c6a87c1461032d578063bee6c99d14610328578063c3fb990614610323578063cb21c7171461031e578063ce8fab4514610319578063d47a54d314610314578063dc65cc2a1461030f578063dd808c0d1461030a578063e076c3a514610305578063e6e75c9f14610300578063efcc4408146102fb578063f04125ed146102f6578063f1f2fb1f146102f1578063fb0f7b72146102ec5763fd29c9f70361000e5761224b565b6121e8565b6121b3565b61217d565b61210e565b6120d5565b61204a565b612014565b611fda565b611fa5565b611f6f565b611efc565b611e2a565b611df5565b611dc0565b611d8b565b611d55565b611cec565b611c16565b611ab9565b611a84565b611a4f565b611a1a565b6119e5565b6119ab565b61191d565b6118e1565b611848565b611812565b611798565b611676565b611641565b61160c565b6115d7565b6115a1565b611531565b6114e7565b6114ae565b61142b565b611344565b61130e565b6112d9565b6112a4565b61124f565b6111b5565b6110d0565b61106e565b611039565b611003565b610fcd565b610f69565b610f04565b610ecf565b610dea565b610cde565b610c59565b610bff565b610b40565b610ae4565b610986565b61086d565b6106d8565b61065f565b6105c8565b610525565b60e01c90565b60405190565b5f80fd5b5f80fd5b5f80fd5b90565b61045081610444565b0361045757565b5f80fd5b9050359061046882610447565b565b90565b6104768161046a565b0361047d57565b5f80fd5b9050359061048e8261046d565b565b6080818303126104d1576104a6825f830161045b565b926104ce6104b78460208501610481565b936104c58160408601610481565b93606001610481565b90565b61043c565b90565b6104ed6104e86104f292610444565b6104d6565b610444565b90565b6104fe906104d9565b9052565b91602061052392949361051c60408201965f8301906104f5565b01906104f5565b565b3461055a57610541610538366004610490565b929190916122d2565b9061055661054d610432565b92839283610502565b0390f35b610438565b61056881610444565b0361056f57565b5f80fd5b905035906105808261055f565b565b6080818303126105c357610598825f830161045b565b926105c06105a98460208501610481565b936105b78160408601610481565b93606001610573565b90565b61043c565b346105fd576105e46105db366004610582565b92919091612349565b906105f96105f0610432565b92839283610502565b0390f35b610438565b919060408382031261062a578061061e610627925f860161045b565b9360200161045b565b90565b61043c565b61063890610444565b9052565b91602061065d92949361065660408201965f83019061062f565b019061062f565b565b3461069157610678610672366004610602565b906123b5565b9061068d610684610432565b9283928361063c565b0390f35b610438565b91906040838203126106be57806106b26106bb925f8601610481565b93602001610481565b90565b61043c565b91906106d6905f602085019401906104f5565b565b34610709576107056106f46106ee366004610696565b906123df565b6106fc610432565b918291826106c3565b0390f35b610438565b61071781610444565b0361071e57565b5f80fd5b9050359061072f8261070e565b565b5f80fd5b5f80fd5b5f80fd5b909182601f830112156107775781359167ffffffffffffffff831161077257602001926020830284011161076d57565b610739565b610735565b610731565b916060838303126107c957610793825f850161045b565b926107a18360208301610722565b92604082013567ffffffffffffffff81116107c4576107c0920161073d565b9091565b610440565b61043c565b5190565b60209181520190565b60200190565b6107ea90610444565b9052565b906107fb816020936107e1565b0190565b60200190565b9061082261081c610815846107ce565b80936107d2565b926107db565b905f5b8181106108325750505090565b90919261084b61084560019286516107ee565b946107ff565b9101919091610825565b61086a9160208201915f818403910152610805565b90565b346108a15761089d61088c61088336600461077c565b929190916124b6565b610894610432565b91829182610855565b0390f35b610438565b909182601f830112156108e05781359167ffffffffffffffff83116108db5760200192600183028401116108d657565b610739565b610735565b610731565b90602082820312610916575f82013567ffffffffffffffff81116109115761090d92016108a6565b9091565b610440565b61043c565b5190565b60209181520190565b90825f9392825e0152565b601f801991011690565b61095c61096560209361096a936109538161091b565b9384809361091f565b95869101610928565b610933565b0190565b6109839160208201915f81840391015261093d565b90565b346109b7576109b36109a261099c3660046108e5565b9061258d565b6109aa610432565b9182918261096e565b0390f35b610438565b91606083830312610a09576109d3825f850161045b565b926109e18360208301610481565b92604082013567ffffffffffffffff8111610a0457610a00920161073d565b9091565b610440565b61043c565b5190565b60209181520190565b60200190565b610a35610a30610a3a9261046a565b6104d6565b61046a565b90565b610a4690610a21565b9052565b90610a5781602093610a3d565b0190565b60200190565b90610a7e610a78610a7184610a0e565b8093610a12565b92610a1b565b905f5b818110610a8e5750505090565b909192610aa7610aa16001928651610a4a565b94610a5b565b9101919091610a81565b610aba906104d9565b9052565b92916020610ada610ae29360408701908782035f890152610a61565b940190610ab1565b565b34610b1957610b00610af73660046109bc565b92919091612694565b90610b15610b0c610432565b92839283610abe565b0390f35b610438565b610b279061046a565b9052565b9190610b3e905f60208501940190610b1e565b565b34610b7157610b6d610b5c610b56366004610602565b906127c5565b610b64610432565b91829182610b2b565b0390f35b610438565b60018060a01b031690565b610b8a90610b76565b90565b610b9681610b81565b03610b9d57565b5f80fd5b90503590610bae82610b8d565b565b9190604083820312610bd85780610bcc610bd5925f860161045b565b93602001610ba1565b90565b61043c565b610be690610b81565b9052565b9190610bfd905f60208501940190610bdd565b565b34610c3057610c2c610c1b610c15366004610bb0565b9061280b565b610c23610432565b91829182610bea565b0390f35b610438565b5f910312610c3f57565b61043c565b9190610c57905f6020850194019061062f565b565b34610c8957610c69366004610c35565b610c85610c74612897565b610c7c610432565b91829182610c44565b0390f35b610438565b610c9781610444565b03610c9e57565b5f80fd5b90503590610caf82610c8e565b565b9190604083820312610cd95780610ccd610cd6925f860161045b565b93602001610ca2565b90565b61043c565b34610d0f57610d0b610cfa610cf4366004610cb1565b906128b3565b610d02610432565b9182918261096e565b0390f35b610438565b610d1d8161046a565b03610d2457565b5f80fd5b90503590610d3582610d14565b565b919061010083820312610db357610d50815f850161045b565b92610d5e826020830161045b565b92610d6c8360408401610d28565b92610d7a8160608501610d28565b92610d888260808301610d28565b92610db0610d998460a08501610481565b93610da78160c08601610481565b9360e001610481565b90565b61043c565b604090610de1610de89496959396610dd760608401985f85019061062f565b6020830190610b1e565b0190610b1e565b565b34610e2757610e23610e0f610e00366004610d37565b9695909594919493929361291a565b610e1a939193610432565b93849384610db8565b0390f35b610438565b610e3590610b81565b90565b610e4181610e2c565b03610e4857565b5f80fd5b90503590610e5982610e38565b565b90602082820312610e7457610e71915f01610e4c565b90565b61043c565b610e8d610e88610e9292610b76565b6104d6565b610b76565b90565b610e9e90610e79565b90565b610eaa90610e95565b90565b610eb690610ea1565b9052565b9190610ecd905f60208501940190610ead565b565b34610eff57610efb610eea610ee5366004610e5b565b612a65565b610ef2610432565b91829182610eba565b0390f35b610438565b34610f3457610f14366004610c35565b610f30610f1f612b10565b610f27610432565b91829182610c44565b0390f35b610438565b610f4290610a21565b9052565b916020610f67929493610f6060408201965f830190610f39565b0190610f39565b565b34610f9b57610f82610f7c366004610602565b90612b30565b90610f97610f8e610432565b92839283610f46565b0390f35b610438565b9190604083820312610fc85780610fbc610fc5925f860161045b565b93602001610573565b90565b61043c565b34610ffe57610ffa610fe9610fe3366004610fa0565b90612b6b565b610ff1610432565b91829182610c44565b0390f35b610438565b346110345761103061101f611019366004610696565b90612b89565b611027610432565b918291826106c3565b0390f35b610438565b3461106957611049366004610c35565b611065611054612bf2565b61105c610432565b91829182610c44565b0390f35b610438565b3461109e5761107e366004610c35565b61109a611089612c72565b611091610432565b91829182610c44565b0390f35b610438565b91906040838203126110cb57806110bf6110c8925f860161045b565b93602001610481565b90565b61043c565b34611101576110fd6110ec6110e63660046110a3565b90612c8e565b6110f4610432565b91829182610c44565b0390f35b610438565b151590565b61111481611106565b0361111b57565b5f80fd5b9050359061112c8261110b565b565b61113781610444565b0361113e57565b5f80fd5b9050359061114f8261112e565b565b909160c0828403126111b057611169835f840161045b565b92611177816020850161111f565b92611185826040830161045b565b926111ad6111968460608501610ba1565b936111a48160808601611142565b9360a00161045b565b90565b61043c565b346111ed576111d46111c8366004611151565b94939093929192612d01565b906111e96111e0610432565b9283928361063c565b0390f35b610438565b919060408382031261121a578061120e611217925f8601610e4c565b9360200161045b565b90565b61043c565b611228906104d9565b9052565b91602061124d92949361124660408201965f83019061121f565b019061121f565b565b34611281576112686112623660046111f2565b90612dbc565b9061127d611274610432565b9283928361122c565b0390f35b610438565b9060208282031261129f5761129c915f0161045b565b90565b61043c565b346112d4576112d06112bf6112ba366004611286565b612dfc565b6112c7610432565b91829182610c44565b0390f35b610438565b34611309576113056112f46112ef366004611286565b612e11565b6112fc610432565b91829182610bea565b0390f35b610438565b3461133f5761133b61132a611324366004610602565b90612e26565b611332610432565b91829182610bea565b0390f35b610438565b346113755761137161136061135a3660046108e5565b90612e48565b611368610432565b9182918261096e565b0390f35b610438565b9190602060040283011161138a57565b610739565b61012081830312611421576113a6825f830161045b565b926113b48360208401610722565b926113c2816040850161045b565b926113d0826060830161137a565b9260e082013567ffffffffffffffff811161141c57836113f191840161073d565b92909361010082013567ffffffffffffffff81116114175761141392016108a6565b9091565b610440565b610440565b61043c565b5f0190565b346114635761144d61143e36600461138f565b96959095949194939293612fa3565b611455610432565b8061145f81611426565b0390f35b610438565b6080818303126114a95761147e825f830161045b565b926114a661148f8460208501610ba1565b9361149d8160408601611142565b9360600161045b565b90565b61043c565b346114e2576114de6114cd6114c4366004611468565b92919091613129565b6114d5610432565b91829182610c44565b0390f35b610438565b34611517576114f7366004610c35565b6115136115026131a4565b61150a610432565b91829182610c44565b0390f35b610438565b919061152f905f60208501940190610ab1565b565b346115625761155e61154d6115473660046108e5565b906131c0565b611555610432565b9182918261151c565b0390f35b610438565b909160608284031261159c57611599611582845f8501610ba1565b936115908160208601611142565b93604001611142565b90565b61043c565b346115d2576115ce6115bd6115b7366004611567565b9161322e565b6115c5610432565b91829182610c44565b0390f35b610438565b34611607576115e7366004610c35565b6116036115f2613282565b6115fa610432565b91829182610c44565b0390f35b610438565b3461163c57611638611627611622366004611286565b6132e9565b61162f610432565b91829182610c44565b0390f35b610438565b346116715761166d61165c611657366004611286565b61330e565b611664610432565b91829182610c44565b0390f35b610438565b346116a7576116a361169261168c366004610bb0565b90613323565b61169a610432565b91829182610c44565b0390f35b610438565b919060a0838203126116fd576116c4815f850161045b565b926116d2826020830161045b565b926116fa6116e3846040850161045b565b936116f1816060860161045b565b9360800161045b565b90565b61043c565b61ffff1690565b61171290611702565b9052565b61171f90610a21565b9052565b61172c90610a21565b9052565b949290979695939160e08601985f87016117499161062f565b6020860161175691611709565b6040850161176391610f39565b606084016117709161062f565b6080830161177d91611716565b60a0820161178a91611723565b60c00161179691611723565b565b346117d3576117cf6117b76117ae3660046116ac565b9392909261334d565b936117c6979597939193610432565b97889788611730565b0390f35b610438565b909160608284031261180d5761180a6117f3845f850161045b565b93611801816020860161045b565b9360400161045b565b90565b61043c565b346118435761183f61182e6118283660046117d8565b9161344d565b611836610432565b91829182610c44565b0390f35b610438565b346118785761187461186361185e366004611286565b613470565b61186b610432565b91829182610c44565b0390f35b610438565b909160c0828403126118dc57611895835f840161045b565b926118a3816020850161045b565b926118b1826040830161045b565b926118d96118c28460608501610481565b936118d08160808601610481565b9360a001610d28565b90565b61043c565b34611918576119146119036118f736600461187d565b94939093929192613485565b61190b610432565b91829182610c44565b0390f35b610438565b3461194e5761194a6119396119333660046108e5565b906134b3565b611941610432565b9182918261096e565b0390f35b610438565b61195c906104d9565b9052565b61196990610a21565b9052565b6119a26119a99461199860609498979561198e608086019a5f870190611953565b6020850190611953565b6040830190611960565b0190611960565b565b346119e0576119dc6119c76119c1366004610602565b9061355a565b906119d3949294610432565b9485948561196d565b0390f35b610438565b34611a15576119f5366004610c35565b611a11611a006135ca565b611a08610432565b91829182610c44565b0390f35b610438565b34611a4a57611a2a366004610c35565b611a46611a35613615565b611a3d610432565b91829182610c44565b0390f35b610438565b34611a7f57611a5f366004610c35565b611a7b611a6a613664565b611a72610432565b91829182610c44565b0390f35b610438565b34611ab457611ab0611a9f611a9a366004610e5b565b613680565b611aa7610432565b91829182610c44565b0390f35b610438565b34611ae957611ac9366004610c35565b611ae5611ad46136e0565b611adc610432565b91829182610c44565b0390f35b610438565b611af781611702565b03611afe57565b5f80fd5b90503590611b0f82611aee565b565b611b1a8161046a565b03611b2157565b5f80fd5b90503590611b3282611b11565b565b611b3d8161046a565b03611b4457565b5f80fd5b90503590611b5582611b34565b565b919061010083820312611bd357611b70815f850161045b565b92611b7e826020830161045b565b92611b8c8360408401611b02565b92611b9a8160608501610481565b92611ba8826080830161045b565b92611bd0611bb98460a08501611b25565b93611bc78160c08601611b48565b9360e001611b48565b90565b61043c565b611c0d611c1494611c03606094989795611bf9608086019a5f87019061062f565b602085019061062f565b604083019061062f565b019061062f565b565b34611c5457611c50611c3b611c2c366004611b57565b969590959491949392936136fc565b90611c47949294610432565b94859485611bd8565b0390f35b610438565b611c6281610b76565b03611c6957565b5f80fd5b90503590611c7a82611c59565b565b91909160a081840312611ce757611c95835f830161045b565b92611ca38160208401610722565b92611cb1826040850161045b565b92611cbf8360608301611c6d565b92608082013567ffffffffffffffff8111611ce257611cde92016108a6565b9091565b610440565b61043c565b34611d2357611d1f611d0e611d02366004611c7c565b949390939291926137de565b611d16610432565b9182918261096e565b0390f35b610438565b9190604083820312611d505780611d44611d4d925f8601610ba1565b93602001611142565b90565b61043c565b34611d8657611d82611d71611d6b366004611d28565b90613834565b611d79610432565b91829182610c44565b0390f35b610438565b34611dbb57611db7611da6611da1366004611286565b61384a565b611dae610432565b91829182610c44565b0390f35b610438565b34611df057611dec611ddb611dd6366004611286565b61385f565b611de3610432565b91829182610c44565b0390f35b610438565b34611e2557611e05366004610c35565b611e21611e106138b7565b611e18610432565b91829182610c44565b0390f35b610438565b34611e5b57611e57611e46611e40366004610602565b906138d3565b611e4e610432565b918291826106c3565b0390f35b610438565b611e6981610444565b03611e7057565b5f80fd5b90503590611e8182611e60565b565b611e8c8161046a565b03611e9357565b5f80fd5b90503590611ea482611e83565b565b919060a083820312611ef757611ebe815f850161045b565b92611ecc8260208301611e74565b92611ef4611edd8460408501611e74565b93611eeb8160608601611e97565b93608001611e97565b90565b61043c565b34611f3057611f2c611f1b611f12366004611ea6565b939290926138f1565b611f23610432565b91829182610c44565b0390f35b610438565b9091606082840312611f6a57611f67611f50845f8501610ba1565b93611f5e8160208601610ba1565b93604001611142565b90565b61043c565b34611fa057611f9c611f8b611f85366004611f35565b91613943565b611f93610432565b91829182610c44565b0390f35b610438565b34611fd557611fd1611fc0611fbb366004611286565b61395c565b611fc8610432565b91829182610c44565b0390f35b610438565b3461200f57611ff6611fed366004610582565b92919091613971565b9061200b612002610432565b92839283610502565b0390f35b610438565b346120455761202c612027366004611286565b6139d9565b90612041612038610432565b9283928361122c565b0390f35b610438565b3461207a5761205a366004610c35565b612076612065613a31565b61206d610432565b91829182610c44565b0390f35b610438565b919060a0838203126120d057612097815f850161111f565b926120a5826020830161045b565b926120cd6120b68460408501610ba1565b936120c48160608601611142565b9360800161045b565b90565b61043c565b34612109576121056120f46120eb36600461207f565b93929092613a4d565b6120fc610432565b91829182610c44565b0390f35b610438565b3461213e5761211e366004610c35565b61213a612129613b09565b612131610432565b91829182610c44565b0390f35b610438565b90916060828403126121785761217561215e845f8501610ba1565b9361216c816020860161045b565b9360400161045b565b90565b61043c565b346121ae576121aa612199612193366004612143565b91613b25565b6121a1610432565b91829182610bea565b0390f35b610438565b346121e3576121c3366004610c35565b6121df6121ce613b3e565b6121d6610432565b91829182610c44565b0390f35b610438565b34612219576122156122046121fe3660046110a3565b90613b52565b61220c610432565b91829182610c44565b0390f35b610438565b9190604083820312612246578061223a612243925f8601610ba1565b93602001610ba1565b90565b61043c565b3461227c5761227861226761226136600461221e565b90613b68565b61226f610432565b91829182610c44565b0390f35b610438565b5f80fd5b5f90565b90565b6122a061229b6122a592612289565b6104d6565b611702565b90565b6122b361076061228c565b90565b6122ca6122c56122cf92611702565b6104d6565b610444565b90565b61232e6123469361231661234194612301612333959998996122f2612285565b506122fb612285565b50613b7e565b61231161230c6122a8565b6122b6565b613b83565b612321818890613b9d565b612329613be3565b613bf2565b613c14565b9361233c613be3565b613bf2565b613c14565b90565b93929161239a6123ae9361238a6123a994612362612285565b5061236b612285565b5061237589613b7e565b6123856123806122a8565b6122b6565b613b83565b612395878490613bf2565b613c21565b6123a381613c30565b94613bf2565b613c14565b90565b5f90565b6123d46123d9926123c46123b1565b506123cd6123b1565b5082613c8f565b613c92565b91909190565b9061240561240a926123ef612285565b506124006123fb6122a8565b6122b6565b613b83565b613d3e565b90565b606090565b5f90565b90565b61242d61242861243292612416565b6104d6565b610444565b90565b60016124419101610444565b90565b634e487b7160e01b5f52603260045260245ffd5b90612462826107ce565b811015612473576020809102010190565b612444565b9061248290610444565b9052565b634e487b7160e01b5f52601160045260245ffd5b6124a390610444565b5f1981146124b15760010190565b612486565b9093925061251e91506124c761240d565b506124d181613b7e565b6124da84613d91565b6124e2612412565b506125116108089480600802604435602401610808376008026020610808010194604435600401358652613da6565b612519613dac565b613dfa565b6125275f612419565b905b8161254461253e612539876107ce565b610444565b91610444565b1015612580576125748161256f61255d61257a94613e20565b61256a8891879092612458565b612478565b61249a565b91612435565b90612529565b5050565b606090565b5f90565b5050612597612584565b506125a0612589565b5060636080536043360360e01b60815260806085536060608653600e60875360606088535f6089536039608a536060608b535f608c5360f3608d535f608e52604436036044608f376125f86035360360805ff0613e2d565b60206106e003906106e0610808038252565b606090565b5f90565b5090565b9190811015612627576020020190565b612444565b3561263681610447565b90565b90565b61265061264b61265592612639565b6104d6565b611702565b90565b61266361080861263c565b90565b9061267082610a0e565b811015612681576020809102010190565b612444565b906126909061046a565b9052565b6126be6126c3929594956126a661260a565b506126af61260f565b506126b983613b7e565b613e3b565b613dfa565b926126cd5f612419565b935b846126ec6126e66126e1868690612613565b610444565b91610444565b10156127285761271c816127176127229361271161270c88888c91612617565b61262c565b90613c8f565b61249a565b94612435565b936126cf565b505050905061273d612738612658565b6122b6565b9061274782613da6565b61274f613e50565b91826008028101928084526127635f612419565b5b8061277f612779612774856104d9565b610444565b91610444565b10156127bb576127b6906127b161279f85612799846104d9565b90613f26565b6127ac8891849092612666565b612686565b612435565b612764565b50919050565b5f90565b6127db6127e0926127d46127c1565b5082613c8f565b613f3b565b90565b6127ec90610e79565b90565b6128036127fe61280892610b76565b6104d6565b610444565b90565b6128336128389261281a612589565b5061282d61282884926127e3565b6127ef565b90613c8f565b613f64565b90565b90565b67ffffffffffffffff1690565b61285f61285a6128649261283b565b6104d6565b61283e565b90565b61287867d7cb7a927a838d4161284b565b90565b61288f61288a6128949261283e565b6104d6565b610444565b90565b61289f6123b1565b506128b06128ab612867565b61287b565b90565b906128c96128ce926128c3612584565b50613b7e565b613f89565b6128d6613f8f565b5f906020604051035f52565b6128f66128f16128fb9261046a565b6104d6565b610444565b90565b61291261290d61291792610444565b6104d6565b61046a565b90565b979591936129b3612a0694612999612a10989a6129726129cd9661296d8f612968612a0b9d6129476123b1565b506129506127c1565b506129596127c1565b5061296383613b7e565b61406a565b614070565b613c8f565b61297b8c614096565b612984876140a9565b61299461298f6122a8565b6122b6565b613b83565b6129ad6129a78c8c906140be565b916128e2565b90613c8f565b6129c76129c18a85906140be565b916128e2565b90613c8f565b6129d5614129565b612a006129fb6129f66129ef6129ea8b614070565b613e20565b988a6140be565b613e20565b6128fe565b966140be565b613e20565b6128fe565b91929190565b5f90565b90565b612a31612a2c612a3692612a1a565b6104d6565b610444565b90565b612a627fd0716769b9821201d69d150facfd6f46f5fd95ac252f6eccb21b7560a01e078b612a1d565b90565b612a9990612a71612a16565b50612a93612a8e612a89612a83612a39565b93610ea1565b6127e3565b6127ef565b90613c8f565b612aa16141d0565b90565b90565b6fffffffffffffffffffffffffffffffff1690565b612ad0612acb612ad592612aa4565b6104d6565b612aa7565b90565b612af16f5daca5ccc655360fa5ccacf9c267936c612abc565b90565b612b08612b03612b0d92612aa7565b6104d6565b610444565b90565b612b186123b1565b50612b29612b24612ad8565b612af4565b90565b5f90565b90612b58612b5d92612b40612b2c565b50612b49612b2c565b50612b5381613b7e565b613dfa565b613c8f565b612b6561423c565b91909190565b612b81612b8692612b7a6123b1565b5082613c21565b613e20565b90565b90612baf612bb492612b99612285565b50612baa612ba56122a8565b6122b6565b613b83565b6142cb565b90565b90565b612bce612bc9612bd392612bb7565b6104d6565b612aa7565b90565b612bef6fa20d6232b6352d00abc0d966e2bcfb8a612bba565b90565b612bfa6123b1565b50612c0b612c06612bd6565b612af4565b90565b90565b6bffffffffffffffffffffffff1690565b612c36612c31612c3b92612c0e565b6104d6565b612c11565b90565b612c536be442b523d9447037e4923f5b612c22565b90565b612c6a612c65612c6f92612c11565b6104d6565b610444565b90565b612c7a6123b1565b50612c8b612c86612c3e565b612c56565b90565b90612ca191612c9b6123b1565b506140be565b90565b60ff1690565b612cbe612cb9612cc392612416565b6104d6565b612ca4565b90565b90565b612cdd612cd8612ce292612cc6565b6104d6565b612ca4565b90565b612cf9612cf4612cfe92612ca4565b6104d6565b610444565b90565b94612d78612da49593612d67612d8294612d3c612d9f989b9a612d226123b1565b50612d2b6123b1565b50612d378d8a9061431f565b613c8f565b612d478b3390614344565b905f14612da757612d61612d5b6001612cc9565b5b612ce5565b90613c8f565b612d738933879161436a565b613c8f565b8690839091614429565b612d95612d9086839061431f565b613e20565b949033909161436a565b613e20565b90565b612d61612db35f612caa565b612d5c565b5f90565b90612ddb612de092612dcc612db8565b50612dd5612db8565b50614499565b6144bd565b612de8614501565b612df06145b0565b90612df96145c3565b90565b612e0e90612e086123b1565b50614070565b90565b612e2390612e1d612589565b506145d6565b90565b90612e3c612e4192612e36612589565b50613b7e565b6145f3565b90565b5f90565b5050612e52612584565b50612e5b612e44565b50612e67610808613f89565b612e6f612589565b5060636080536043360360e01b60815260806085536060608653600e60875360606088535f6089536039608a536060608b535f608c5360f3608d535f608e52604436036044608f37612ec76035360360805ff061461d565b612ecf61464e565b90600160206106e00392036040026106e061080803018252565b906004811015612efa576020020190565b612444565b612f13612f0e612f1892612cc6565b6104d6565b610444565b90565b612f2a612f3091939293610444565b92610444565b8201809211612f3b57565b612486565b90565b612f57612f52612f5c92612f40565b6104d6565b610444565b90565b612f6e612f7491939293610444565b92610444565b8203918211612f7f57565b612486565b90565b612f9b612f96612fa092612f84565b6104d6565b610444565b90565b965096929450906130839061307d613078613067612fc08a614661565b612fe581612fdf612fda88612fd45f612419565b90612ee9565b61262c565b90613c8f565b61301e612ffc82612ff66001612eff565b90612f1b565b6130186130138861300d6001612eff565b90612ee9565b61262c565b90613c8f565b6130576130358261302f6002612f43565b90612f1b565b61305161304c886130466002612f43565b90612ee9565b61262c565b90613c8f565b6130616001612eff565b90612f5f565b926130726003612f87565b90612ee9565b61262c565b90613c8f565b61308c85613dfa565b956130965f612419565b965b876130b56130af6130aa898990612613565b610444565b91610444565b10156130f3576130e7816130e26130ed936130dc6130d78d8c908c9091612617565b61262c565b90613c8f565b61249a565b97612435565b96613098565b50919550925061310f915061310a61312794613b7e565b614687565b6101043560040135610104356024016106e0376146c3565b565b9061315c6131669461315261316195946131416123b1565b5061314d85879061431f565b613c8f565b82908490916147a9565b61431f565b613e20565b90565b90565b61318061317b61318592613169565b6104d6565b612aa7565b90565b6131a16f5e1c6265e3e30cea650443fb20ef1ef961316c565b90565b6131ac6123b1565b506131bd6131b8613188565b612af4565b90565b50506131ca61260f565b506131d3612589565b5060636080536043360360e01b60815260806085536060608653600e60875360606088535f6089536039608a536060608b535f608c5360f3608d535f608e52604436036044608f3761322b6035360360805ff061481b565b90565b916132449261323b6123b1565b5091909161483a565b90565b90565b61325e61325961326392613247565b6104d6565b612aa7565b90565b61327f6f6890d047ad8c870137858a70716b2c6b61324a565b90565b61328a6123b1565b5061329b613296613266565b612af4565b90565b90565b6132b56132b06132ba9261329e565b6104d6565b610444565b90565b6132e67ffb342fa999fea16067b1f01baf96673f31a25f2b1443e6754d93fc40b57e8df16132a1565b90565b6132fb906132f56123b1565b506144bd565b61330b6133066132bd565b613e20565b90565b6133209061331a6123b1565b50613dfa565b90565b61333961333e926133326123b1565b508261486b565b613e20565b90565b5f90565b5f90565b5f90565b6133fe94936133d06133f9946133b76133b06133e99561336b6123b1565b50613374613341565b5061337d612b2c565b506133866123b1565b5061338f613345565b50613398613349565b506133a1613349565b506133ab81613b7e565b614661565b9586613c8f565b6133cb856133c56001612eff565b90612f1b565b613c8f565b6133e4836133de6002612f43565b90612f1b565b613c8f565b6133f36001612eff565b90612f5f565b613c8f565b6134066148d8565b61340e61497c565b61341661498c565b9161341f61499f565b916134286149b2565b916134316149c5565b9161343a6149d8565b916134436149eb565b9196959493929190565b906134689061346d9361345e6123b1565b5083919091614a48565b613e20565b90565b6134829061347c6123b1565b50614ac9565b90565b936134ab93926134a26134b0979361349b6123b1565b5087613c8f565b92909192614aef565b613e20565b90565b50506134bd612584565b506134c6612e44565b50610808906134d482613f89565b6134dc612589565b5060636080536043360360e01b60815260806085536060608653600e60875360606088535f6089536039608a536060608b535f608c5360f3608d535f608e52604436036044608f376135416035360360805ff06135388161481b565b93908491614b60565b600160206108080392036040028252565b5f90565b5f90565b61359361359892613569613552565b50613572613552565b5061357b613556565b50613584613556565b5061358e83614ac9565b613c8f565b613b7e565b6135a0614b77565b6135a8614c0d565b906135b1614c20565b916135ba614c33565b916135c3614c43565b9193929190565b6135d26123b1565b506135db6132bd565b90565b90565b6135f56135f06135fa926135de565b6104d6565b612c11565b90565b6136126bc8f78086c3211e71a328e7f56135e1565b90565b61361d6123b1565b5061362e6136296135fd565b612c56565b90565b90565b61364861364361364d92613631565b6104d6565b61283e565b90565b613661671447e579411c2c93613634565b90565b61366c6123b1565b5061367d613678613650565b61287b565b90565b6136929061368c6123b1565b50614499565b6136a261369d612a39565b613e20565b90565b90565b6136bc6136b76136c1926136a5565b6104d6565b612aa7565b90565b6136dd6f3b2d91718dfb37f9969a1b0670a83e706136a8565b90565b6136e86123b1565b506136f96136f46136c4565b612af4565b90565b95919461375d61377998956137586137679661375361376c9a61374e613762986137498f6137286123b1565b506137316123b1565b5061373a6123b1565b506137436123b1565b50613b7e565b614c53565b614c59565b613e3b565b614c6e565b614c83565b614c98565b614cad565b613774614cde565b614661565b61378281613e20565b61379e613799836137936001612eff565b90612f1b565b613e20565b926137d76137d26137c16137bc866137b66002612f43565b90612f1b565b613e20565b946137cc6001612eff565b90612f5f565b613e20565b9193929190565b613802929396955061381894506137fd906137f7612584565b50613b7e565b614687565b608435600401356084356024016106e0376146c3565b608435600401356106e00191803b83525f813b9160208501903c565b90613847916138416123b1565b5061431f565b90565b61385c906138566123b1565b50614d67565b90565b6138719061386b6123b1565b506144bd565b613879614d8d565b90565b90565b61389361388e6138989261387c565b6104d6565b612aa7565b90565b6138b46f68e919334073168f7b6f6d0178986a6461387f565b90565b6138bf6123b1565b506138d06138cb61389b565b612af4565b90565b6138e96138ee926138e2612285565b5082613c8f565b613c14565b90565b919361392961393b946139246139409761391f61392e966139106123b1565b5061391a89613b7e565b614da9565b614dbe565b614dd3565b614dd9565b613936614e58565b614ac9565b613e20565b90565b91613959926139506123b1565b5091909161436a565b90565b61396e906139686123b1565b50614661565b90565b9392916139c26139d6936139b26139d19461398a612285565b50613993612285565b5061399d89613b7e565b6139ad6139a86122a8565b6122b6565b613b83565b6139bd878490613bf2565b613c21565b6139cb81614f24565b94613bf2565b613c14565b90565b6139f4906139e5612db8565b506139ee612db8565b50614f83565b91909190565b90565b613a11613a0c613a16926139fa565b6104d6565b612c11565b90565b613a2e6b3c244899b5fa3e971383ac4b6139fd565b90565b613a396123b1565b50613a4a613a45613a19565b612c56565b90565b613abe94613aa6613ab9959493613a95613ab094613a696123b1565b50613a75873390614344565b905f14613ac157613a8f613a896001612cc9565b5b612ce5565b90613c8f565b613aa18533889161436a565b613c8f565b8290849091614fd0565b9033909161436a565b613e20565b90565b613a8f613acd5f612caa565b613a8a565b90565b613ae9613ae4613aee92613ad2565b6104d6565b612c11565b90565b613b066b034105b980ba117bd0c29fe0613ad5565b90565b613b116123b1565b50613b22613b1d613af1565b612c56565b90565b91613b3b92613b32612589565b50919091615090565b90565b613b466123b1565b50613b4f612a39565b90565b90613b6591613b5f6123b1565b50613bf2565b90565b90613b7b91613b756123b1565b50614344565b90565b60d852565b90613b9b91613b9182615181565b9192909192615215565b565b90613bdb613bd5613be193613bce613bb3613be3565b91613bc8613bc2848390613bf2565b916142cb565b90613c21565b8390613bf2565b91613d3e565b90613c21565b565b613beb6123b1565b5060d85190565b90613bfb6123b1565b50671447e579411c2c936010526008525f5260305f2090565b613c1c612285565b505490565b55565b613c2d5f612419565b90565b90613c39612285565b50613c4c613c45613be3565b8390613bf2565b613c5581613c14565b92613c6884613c62613c24565b9061522f565b613c71575b5050565b613c88919350613c8090613d3e565b928390613c21565b5f80613c6d565b55565b613cad90613c9e6123b1565b50613ca76123b1565b50613e20565b906fffffffffffffffffffffffffffffffff82169160801c90565b90565b613cdf613cda613ce492613cc8565b6104d6565b610444565b90565b613d0c7b0ba4f53ea38636f85f007042540ae8ef33225e9a7ab4f4473a86d4a8613ccb565b90565b90565b613d26613d21613d2b92613d0f565b6104d6565b61046a565b90565b613d3b600160d81b613d12565b90565b613d53613d8e91613d4d612285565b50615181565b50613d5c613ce7565b90613d88613d68613d2e565b613d82613d7b613d766122a8565b6122b6565b5f9061523c565b90615255565b91615262565b90565b6002610651015160101c9060f01b1761065152565b61060f52565b613dbc613db7613be3565b613dfa565b613dc46152ac565b6001613dce6152bc565b0360021c820191815181555b828110613de657505050565b600160209101910191825182559190613dda565b613e026123b1565b506f3b2d91718dfb37f9969a1b0670a83e706010525f5260305f2090565b613e286123b1565b505490565b60016106e08061080803923c565b6008610677015160401c9060c01b1761067752565b613e5861260f565b613e68613e63613be3565b613dfa565b90613e716152ac565b91613e7a61499f565b905b8054928360c01c838114613f1157508360801c8367ffffffffffffffff821614613efc57508360401c8367ffffffffffffffff821614613ee75750600401928267ffffffffffffffff821614613edd57602091600191865201930192613e7c565b9294939150505b52565b95949350905060039150019260401b90613ee4565b95949350905060029150019260801b90613ee4565b95949350905060019150019260c01b90613ee4565b90613f2f612b2c565b5060031b015160c01c90565b613f436127c1565b505490565b613f5c613f57613f6192610444565b6104d6565b610b76565b90565b613f81613f7c613f8692613f76612589565b50613e20565b613f48565b610e95565b90565b6105ef52565b613f976148d8565b614068602060a4613fae613fa961497c565b6145f3565b613fb781613e2d565b613fd8613fd3613fc56152cf565b613fcd6145b0565b906152e2565b615309565b6001614012613fe68361481b565b613fef81614687565b614004613ffa61531e565b9485908391614b60565b61400c61532e565b90615341565b61401a612412565b500360061b0161402981613da6565b60026001614035613e50565b61403e81613d91565b6140466123b1565b5003811c0160051b0161405881615367565b6140606123b1565b50030361536c565b565b61010852565b6140786123b1565b506fa20d6232b6352d00abc0d966e2bcfb8a6010525f5260305f2090565b600860f8015160401c9060c01b1760f852565b6008610100015160401c9060c01b1761010052565b906140c76123b1565b5067d7cb7a927a838d416010526008525f5260305f2090565b600f0b90565b6140fa6140f56140ff926140e0565b6104d6565b61046a565b90565b1561410a5750565b614125905f91829163462df80560e11b835260048301610b2b565b0390fd5b6141ce614134613be3565b61413c615371565b614144615381565b916141508184906140be565b828154019055614181614161615393565b9161416d8184906140be565b84815403905561417b6127c1565b50614070565b9261419a6141956141906122a8565b6122b6565b6153a6565b91030402815401809155806141c76141c16f7fffffffffffffffffffffffffffffff6140e6565b9161046a565b1315614102565b565b6141d8612a16565b507fd0716769b9821201d69d150facfd6f46f5fd95ac252f6eccb21b7560a01e078b5490565b6142086002612f43565b90565b6142145f612419565b90565b6142216001612eff565b90565b61423361423991939293610a21565b92610a21565b90565b614244612b2c565b5061424d612b2c565b5061426661426161425c613be3565b613dfa565b613e20565b61426e6152ac565b9061427f61427a6141fe565b613d91565b81526142a56142968261429061420b565b90613f26565b9161429f614217565b90613f26565b906142b18183906153b6565b5f146142bd57905b9091565b6142c691614224565b6142b9565b6142e061431c916142da612285565b50615181565b90506142ea613ce7565b906143166142f6613d2e565b6143106143096143046122a8565b6122b6565b5f9061523c565b90615255565b91615262565b90565b6143276123b1565b506b3c244899b5fa3e971383ac4b6020526014525f5260405f2090565b61434c6123b1565b506be442b523d9447037e4923f5b6020526014525f526034600c2090565b9291906143756123b1565b50604051936b034105b980ba117bd0c29fe06034526028526014525f5260545f2091604052565b6143a5906104d9565b9052565b9160206143ca9294936143c360408201965f830190610bdd565b019061439c565b565b156143d5575050565b6143ef5f928392633db7aa8160e21b8452600484016143a9565b0390fd5b906143fe9103610444565b90565b61441561441061441a92612416565b6104d6565b610b76565b90565b61442690614401565b90565b90916144979261448461443d84839061431f565b61447e61444982613e20565b9161445687868891614fd0565b6144768361446c61446689610444565b91610444565b10158887916143cc565b9185906143f3565b90613c8f565b339261448f5f61441d565b9192936153f2565b565b7fd0716769b9821201d69d150facfd6f46f5fd95ac252f6eccb21b7560a01e078b55565b6144ce906144c96132bd565b613c8f565b565b90565b6144e76144e26144ec926144d0565b6104d6565b610444565b90565b6144fe658000000000006144d3565b90565b61453961450c615506565b9061451f816145196144ef565b906155b2565b8015614598575b61453b575b614534906155bf565b6155d4565b565b61454b614546614d8d565b614f83565b9061455e836145586144ef565b906155b2565b61458e575b50614576836145706144ef565b906155b2565b614581575b5061452b565b614534919250919061457b565b909150905f614563565b506145ab826145a56144ef565b906155b2565b614526565b6145b8612db8565b506107fa5160d01c90565b6145cb612db8565b506108005160d01c90565b6145eb6145f0916145e5612589565b50613f48565b610e95565b90565b61461a906145ff612589565b50614608612589565b503090614613613be3565b9091615090565b90565b61464c9061462a81613e2d565b6146338161481b565b61463c81614687565b61464461531e565b919091614b60565b565b61465661260f565b5061064f5160f01c90565b6146696123b1565b506f6890d047ad8c870137858a70716b2c6b6010525f5260305f2090565b600261064f015160101c9060f01b1761064f52565b156146a357565b5f633011642560e01b8152806146bb60048201611426565b0390fd5b5f90565b6146cb613be3565b6146d3612589565b505f526020526147725f80604081206f67363d3d37363d3df03d5260086018f3825260108083f561471f8161471861471261470d8661441d565b610b81565b91610b81565b141561469c565b6106d582600b600161472f61464e565b6147376123b1565b500360061b6106e061080803016147606001820160401b6a61000080600a3d393df300176155e9565b6147686146bf565b5001925af161469c565b565b9061477f9101610444565b90565b1561478a5750565b6147a5905f918291630610d90760e11b835260048301610c44565b0390fd5b9091614819926148056147bd84839061431f565b6147d06147c982613e20565b8590614774565b90614800826147f76147f16fffffffffffffffffffffffffffffffff612af4565b91610444565b11158390614782565b613c8f565b33926148105f61441d565b909192936153f2565b565b60019061482661260f565b50816106e061080803913b030360061c0190565b92916148446123b1565b50604051936bc8f78086c3211e71a328e7f56040526034526020525f5260605f2091604052565b9061488161487c61488793926127e3565b6127ef565b90613c8f565b565b61489d6148986148a292612416565b6104d6565b61046a565b90565b6148ae5f614889565b90565b156148b95750565b6148d4905f918291631e657b1d60e01b835260048301610c44565b0390fd5b6148e86148e3613be3565b614661565b8054602061065501526001810154604061065501526002810154606061065501526149336149256149176149c5565b61491f6148a5565b906155fe565b61492d613be3565b906148b1565b61493b61498c565b908161495161494b61ffff611702565b91611702565b145f1461496557600191500354610655525b565b50614972614977916122b6565b614c53565b614963565b6149846123b1565b506106555190565b614994613341565b506106755160f01c90565b6149a7612b2c565b506106775160c01c90565b6149ba6123b1565b5061067f5160801c90565b6149cd613345565b5061068f5160801c90565b6149e0613349565b5061069f5160281c90565b6149f3613349565b506106ba5160281c90565b90565b614a15614a10614a1a926149fe565b6104d6565b612ca4565b90565b1b90565b614a4090614a3a614a34614a4594612ca4565b91610444565b90614a1d565b610444565b90565b90614ac0614ac79392614a8083614a77614a716fffffffffffffffffffffffffffffffff612af4565b91610444565b11158490614782565b614aaf84614aa6614aa06fffffffffffffffffffffffffffffffff612af4565b91610444565b11158590614782565b92614aba6080614a01565b90614a21565b1790613c8f565b565b614ad16123b1565b506f5e1c6265e3e30cea650443fb20ef1ef96010525f5260305f2090565b90614b5e9392614afd6123b1565b506f5daca5ccc655360fa5ccacf9c267936c6020526010526008525f5260405f2090614b2882613e20565b0190614b5982614b50614b4a6fffffffffffffffffffffffffffffffff612af4565b91610444565b11158390614782565b613c8f565b565b916001900360061b916106e061080803600101913c565b614b7f613552565b50614b88613552565b50614b91613556565b50614b9a613556565b50614c0b614bb6614bb1614bac613be3565b614ac9565b613e20565b614c0662ffffff8260d01c1691614c018160e81c614bfc6cffffffffffffffffffffffffff8416607f1b936cffffffffffffffffffffffffff60681b1660171b95614da9565b614dbe565b614dd3565b614dd9565b565b614c15613552565b506105e95160e81c90565b614c28613552565b506105ec5160e81c90565b614c3b613556565b506105a95190565b614c4b613556565b506105c95190565b61065552565b6002610675015160101c9060f01b1761067552565b601061067f015160801c9060801b1761067f52565b601061068f015160801c9060801b1761068f52565b601b61069f015160d81c9060281b1761069f52565b601b6106ba015160d81c9060281b176106ba52565b614cd6614cd1614cdb92610444565b6104d6565b611702565b90565b614cee614ce9613be3565b614661565b614cf661497c565b614d0a614d0461ffff6122b6565b91610444565b10155f14614d4a57610655516001820355614d2661ffff614c59565b5b602061065501518155604061065501516001820155600260606106550151910155565b614d62614d5d614d5861497c565b614cc2565b614c59565b614d27565b614d6f6123b1565b506f68e919334073168f7b6f6d0178986a646010525f5260305f2090565b614d956123b1565b50614da6614da16132bd565b613e20565b90565b60036105e9015160181c9060e81b176105e952565b60036105ec015160181c9060e81b176105ec52565b6105a952565b6105c952565b614de85f614889565b90565b9190614dfe905f60208501940190611960565b565b15614e085750565b614e23905f918291631718db0760e31b835260048301614deb565b0390fd5b90565b614e3e614e39614e4392614e27565b6104d6565b61046a565b90565b614e5560018060e71b03614e2a565b90565b614f22614e63614c33565b614e7f614e7882614e72614ddf565b9061561d565b8290614e00565b614e9b614e9482614e8e614e46565b9061563c565b8290614e00565b614ea3614c43565b614ebf614eb882614eb2614ddf565b9061561d565b8290614e00565b614edb614ed482614ece614e46565b9061563c565b8290614e00565b614ee3614c0d565b90614eec614c20565b90614efd614ef8613be3565b614ac9565b93614f066123b1565b50607f1c90607f1c60681b179160d01b9060e81b171790613c8f565b565b90614f2d612285565b50614f40614f39613be3565b8390613bf2565b614f4981613c14565b92614f5c84614f56613c24565b9061522f565b614f65575b5050565b614f7c919350614f74906142cb565b928390613c21565b5f80614f61565b90614f8c612db8565b50614f95612db8565b5065ffffffffffff8260d01c9260a01c1690565b15614fb2575050565b614fcc5f92839263731555bd60e01b8452600484016143a9565b0390fd5b80614fe3614fdd33610b81565b91610b81565b03614fee575b505050565b615001614ffc823390614344565b613e20565b61501361500d5f612419565b91610444565b1461501e575b614fe9565b61502a9033839161436a565b61505561503682613e20565b928361504a61504487610444565b91610444565b101590339091614fa9565b816150696150635f19610444565b91610444565b03615074575b615019565b6150889261508291926143f3565b90613c8f565b5f808061506f565b919061509a612589565b505f5260205260405f20604051915f5260ff600b536020527ff779edcbdc615c777a4cb2bee1bf733055aa41ff7247837d0cd548565f65d0346040526055600b2060145260405261d6945f5260016034535f1960601c6017601e201690565b90565b61511061510b615115926150f9565b6104d6565b610444565b90565b90565b61512f61512a61513492615118565b6104d6565b610444565b90565b90565b61514e61514961515392615137565b6104d6565b612ca4565b90565b1c90565b6151799061517361516d61517e94612ca4565b91610444565b90615156565b610444565b90565b61519c9061518d613349565b50615196613349565b506157f1565b61521261520d6152086151f76151f26151ed7ff1aaddd7742e56d32fb9f997447d9e6314db84884fabab26bf059af9bc20b609600160c11b6151e76151e18a936150fc565b9161511b565b90615a6e565b6128fe565b610a21565b93615202602861513a565b9061515a565b6128fe565b610a21565b91565b6018906020810393845195601e8301526003820152035252565b6152376146bf565b501490565b90615245613349565b5015601b02602303015160281c90565b61525d613349565b500390565b906152a99261529e61529961529361528e6152886152a497615282612285565b506104d9565b95610a21565b6128e2565b92610a21565b6128e2565b91615a8b565b6104d9565b90565b6152b4612412565b5061060f5190565b6152c461260f565b506106515160f01c90565b6152d7612db8565b506107f45160d01c90565b906152eb612db8565b506152f7828290615b1c565b5f1461530257505b90565b90506152ff565b60066107f4015160301c9060d01b176107f452565b615326612e44565b506105ef5190565b61533661260f565b506108065160f01c90565b61534961260f565b50615355818390615b29565b5f1461536057505b90565b905061535d565b604052565b60a452565b6153796127c1565b506101085190565b615389612b2c565b5060f85160c01c90565b61539b612b2c565b506101005160c01c90565b6153ae612b2c565b505160c01c90565b6153be6146bf565b501290565b6153cc90610e95565b90565b9160206153f09294936153e960408201965f830190610bdd565b019061062f565b565b9361542f6154296154237f1b3d7edb2e9c0b0e7c525b20aaaef0f5940d2ed71663c7d39266ecafac728859946153c3565b946153c3565b946104d9565b9461544461543b610432565b928392836153cf565b0390a4565b65ffffffffffff1690565b61546861546361546d92615449565b6104d6565b610444565b90565b61547f65ffffffffffff615454565b90565b61548b90610e79565b90565b61549790615482565b90565b6154ab6154a65f61441d565b61548e565b90565b63ffffffff1690565b6154cb6154c66154d0926154ae565b6104d6565b6154ae565b90565b6154df6154e49161042c565b6154b7565b90565b90565b6154fe6154f9615503926154e7565b6104d6565b610444565b90565b61550e612db8565b50615517612db8565b50615520615470565b90615529615470565b906155326141d0565b8061554c61554661554161549a565b610e2c565b91610e2c565b03615555575b50565b5f919350604092506155756155706306212bef60e11b6154d3565b615b36565b61558761558260206154ea565b615b49565b6080826044615594615b4e565b01925af1156155aa575f5190602051905f615552565b3d5f803e3d5ffd5b6155ba6146bf565b501190565b60066107fa015160301c9060d01b176107fa52565b6006610800015160301c9060d01b1761080052565b600b6106d5015160581c9060a81b176106d552565b61561a916156149161560e6146bf565b50615b5d565b15611106565b90565b615639916156339161562d6146bf565b50615b6a565b15611106565b90565b615658916156529161564c6146bf565b50615b77565b15611106565b90565b906156669102610444565b90565b90565b61568061567b61568592615669565b6104d6565b610444565b90565b90565b61569f61569a6156a492615688565b6104d6565b610444565b90565b634e487b7160e01b5f52601260045260245ffd5b6156c76156cd91610444565b91610444565b9081156156d8570490565b6156a7565b90565b6156f46156ef6156f9926156dd565b6104d6565b610444565b90565b90565b61571361570e615718926156fc565b6104d6565b610444565b90565b90565b61573261572d6157379261571b565b6104d6565b610444565b90565b90565b61575161574c6157569261573a565b6104d6565b610444565b90565b90565b61577061576b61577592615759565b6104d6565b612ca4565b90565b90565b61578f61578a61579492615778565b6104d6565b610444565b90565b90565b6157ae6157a96157b392615797565b6104d6565b610444565b90565b90565b6157cd6157c86157d2926157b6565b6104d6565b610444565b90565b6157e96157e46157ee92612f40565b6104d6565b612ca4565b90565b6159cf61581161580c6159df936158066123b1565b50610a21565b6128e2565b61581c81829061565b565b9061598d61597a61582e84859061565b565b6158366123b1565b506159746159595f19600160801b600160801b858a095f19868b0903099261585c6123b1565b5061595361593c61592c61591b6159088c6159026158ec6158c96158a96158998b80025f198d80090395615893600760681b61566c565b9061565b565b6158a3600f61568b565b906156bb565b6158c38b6158bd6609c000000000006156e0565b906156bb565b90614774565b6158e68d6158e069c91800000000000000006156ff565b906156bb565b90614774565b916158fc621eee11605a1b61571e565b906156bb565b90614774565b615915600160fe1b61573d565b90614774565b9a615926606a61575c565b90614a21565b615936600f61568b565b906156bb565b9161594d662490000000000061577b565b906156bb565b90614774565b9161596e6a06df92000000000000000061579a565b906156bb565b90614774565b615987600160ff1b6157b9565b90614774565b905f1991600160b41b916001604c1b828209915f19910903096159c96159c36159b78484906143f3565b92600160fe1b94614774565b9261573d565b90615a6e565b6159d960026157d5565b90614a21565b808002905f1990800903808002905f1990800903808002905f1990800903808002905f1990800903808002905f1990800903808002905f1990800903808002905f1990800903808002905f1990800903808002905f1990800903808002905f1990800903808002905f1990800903808002905f1990800903808002905f1990800903808002905f199080090390565b9091615a786123b1565b5060018103928391818409820392090890565b615a936123b1565b50615a9f818390615b84565b9290929182615ab6615ab05f612419565b91610444565b14615b1557615b0c9285615b129693615b0593615ad16123b1565b50099085821190039403936001615af15f615aec8691612419565b6143f3565b841680809504960493805f0304019061565b565b1791615baa565b9061565b565b90565b5050500490565b615b246146bf565b501090565b615b316146bf565b501090565b60046080015160201c9060e01b17608052565b608452565b615b566123b1565b5060a45190565b615b656146bf565b501490565b615b726146bf565b501290565b615b7f6146bf565b501390565b9190615b8e6123b1565b50615b976123b1565b505f198184099202918280821091030390565b615cbe90615bb66123b1565b50615cb8615c9c615c78615c54615c30615c0c615bdd6003615bd88991612f87565b61565b565b615be76002612f43565b18615c066002615c01615bfb8b859061565b565b91612f43565b6143f3565b9061565b565b615c2a6002615c25615c1f8a859061565b565b91612f43565b6143f3565b9061565b565b615c4e6002615c49615c4389859061565b565b91612f43565b6143f3565b9061565b565b615c726002615c6d615c6788859061565b565b91612f43565b6143f3565b9061565b565b615c966002615c91615c8b87859061565b565b91612f43565b6143f3565b9061565b565b91615cb3615cad600292859061565b565b91612f43565b6143f3565b9061565b565b9056fea26469706673582212203fce26d1f2086fdad4edb5f287e6ce8d7f718f12740a528fe0d558efb5a438c564736f6c63430008220033","linkReferences":{}},"methodIdentifiers":{"_accruedParamsSlot()":"4b4c4f76","_allowanceSlot()":"efcc4408","_calculateGrowthMultiplier0(int256,int256)":"0a8d43cf","_calculateGrowthMultiplier0(uint256,int256,int256,uint256)":"037aef47","_calculateGrowthMultiplier1(int256,int256)":"2fba011c","_calculateGrowthMultiplier1(uint256,int256,int256,uint256)":"dc65cc2a","_curveSlot()":"a1f32021","_decrementBalance(uint256,bool,uint256,address,uint256,uint256)":"39ea5dd4","_doubleBalanceSlot()":"93a82578","_dynamicParamsSlot()":"53f6fcfa","_getAccruedParamsSlot(uint256)":"766526f4","_getAllowanceSlot(address,address,uint256)":"ce8fab45","_getCurveSlot(uint256)":"60f183ca","_getDoubleBalanceSlot(address,uint256,uint256)":"50647a4c","_getDynamicParamsSlot(uint256)":"d47a54d3","_getGrowthMultiplierSlot(uint256,int256)":"fb0f7b72","_getGrowthPortions(uint256)":"dd808c0d","_getIsOperatorSlot(address,address)":"fd29c9f7","_getPoolOwnerSlot(uint256)":"b7f7dfc9","_getProtocolOwner(uint256)":"4250ea05","_getSharesDeltaSlot(uint256,int256)":"35713e91","_getSharesGrossSlot(uint256)":"3f8fd396","_getSingleBalanceSlot(address,uint256)":"a870307a","_getStaticParamsStorageAddress(address,uint256,uint256)":"f04125ed","_getStaticParamsStorageAddress(uint256,uint256)":"46331f20","_growthMultiplierSlot()":"93e635e9","_incrementBalance(uint256,address,uint256,uint256)":"492e04a8","_isOperatorSlot()":"350ce6ec","_modifySharesDelta(uint256,uint256,int256,int256,int256,int256,int256,int256)":"1ebb8a50","_poolOwnerSlot()":"bee6c99d","_protocolSlot()":"8d7f380e","_readAccruedParams(uint256,uint256)":"8d13f382","_readBoundaries(uint256,uint256)":"268481af","_readCurve(uint256,int256,uint256[])":"0f220f2d","_readDoubleBalance(uint256,uint256)":"0638a445","_readDynamicParams(uint256,uint256,uint256,uint256,uint256)":"69f9d0b7","_readGrowthMultiplier(uint256,uint256)":"c3fb9906","_readGrowthPortions(address,uint256)":"3dc0c836","_readKernel(bytes)":"80af3797","_readKernelLength(bytes)":"4f23f588","_readPoolData0(uint256,uint256,uint256,uint256[4],uint256[],bytes)":"478d7461","_readPoolData1(uint256,uint256)":"1e27bcf5","_readPoolOwner(uint256,address)":"147d6499","_readProtocol(uint256)":"b8c6a87c","_readSentinel(address)":"20522ac1","_readSharesDelta(uint256,uint256)":"138c9d86","_readStaticParams(bytes)":"0e1134a9","_readStaticParamsAndKernel(bytes)":"4663aaa4","_sentinelSlot()":"f1f2fb1f","_sharesDeltaSlot()":"15a72216","_sharesGrossSlot()":"31fb0a77","_singleBalanceSlot()":"e076c3a5","_totalSupplySlot()":"245e6f88","_updateAllowance(bool,uint256,address,uint256,uint256)":"e6e75c9f","_updateTotalSupply(uint256,uint256,uint256,int256,int256,int256)":"7fbb6da0","_writeAccruedParams(uint256,uint256,uint256,int256,int256)":"cb21c717","_writeCurve(uint256,uint256,uint256[])":"0b6a9c40","_writeDoubleBalance(uint256,uint256,uint256)":"70d4a960","_writeDynamicParams(uint256,uint256,uint16,int256,uint256,int256,int256,int256)":"a4d38649","_writeGrowthMultiplier(uint256,uint256)":"2c450a84","_writeGrowthMultipliers(uint256,int256,int256,int256)":"02ae7454","_writePoolOwner(uint256,address)":"67d532a6","_writeProtocol(uint256)":"608efbae","_writeSentinel(address)":"9545a850","_writeStaticParams(uint256,uint256,uint256,uint160,bytes)":"a67fe200"},"id":28}