{"abi":[{"type":"function","name":"add","inputs":[{"name":"value0","type":"int256","internalType":"X111"},{"name":"value1","type":"int256","internalType":"X111"}],"outputs":[{"name":"result","type":"int256","internalType":"X111"}],"stateMutability":"nonpayable"},{"type":"function","name":"equals","inputs":[{"name":"value0","type":"int256","internalType":"X111"},{"name":"value1","type":"int256","internalType":"X111"}],"outputs":[{"name":"result","type":"bool","internalType":"bool"}],"stateMutability":"nonpayable"},{"type":"function","name":"greaterThan","inputs":[{"name":"value0","type":"int256","internalType":"X111"},{"name":"value1","type":"int256","internalType":"X111"}],"outputs":[{"name":"result","type":"bool","internalType":"bool"}],"stateMutability":"nonpayable"},{"type":"function","name":"greaterThanOrEqualTo","inputs":[{"name":"value0","type":"int256","internalType":"X111"},{"name":"value1","type":"int256","internalType":"X111"}],"outputs":[{"name":"result","type":"bool","internalType":"bool"}],"stateMutability":"nonpayable"},{"type":"function","name":"lessThan","inputs":[{"name":"value0","type":"int256","internalType":"X111"},{"name":"value1","type":"int256","internalType":"X111"}],"outputs":[{"name":"result","type":"bool","internalType":"bool"}],"stateMutability":"nonpayable"},{"type":"function","name":"lessThanOrEqualTo","inputs":[{"name":"value0","type":"int256","internalType":"X111"},{"name":"value1","type":"int256","internalType":"X111"}],"outputs":[{"name":"result","type":"bool","internalType":"bool"}],"stateMutability":"nonpayable"},{"type":"function","name":"maxX111","inputs":[{"name":"value0","type":"int256","internalType":"X111"},{"name":"value1","type":"int256","internalType":"X111"}],"outputs":[{"name":"result","type":"int256","internalType":"X111"}],"stateMutability":"nonpayable"},{"type":"function","name":"minX111","inputs":[{"name":"value0","type":"int256","internalType":"X111"},{"name":"value1","type":"int256","internalType":"X111"}],"outputs":[{"name":"result","type":"int256","internalType":"X111"}],"stateMutability":"nonpayable"},{"type":"function","name":"mulDivByExpInv8","inputs":[{"name":"value","type":"int256","internalType":"X111"},{"name":"multiplier","type":"int256","internalType":"X216"}],"outputs":[{"name":"result","type":"uint256","internalType":"X208"}],"stateMutability":"nonpayable"},{"type":"function","name":"notEqual","inputs":[{"name":"value0","type":"int256","internalType":"X111"},{"name":"value1","type":"int256","internalType":"X111"}],"outputs":[{"name":"result","type":"bool","internalType":"bool"}],"stateMutability":"nonpayable"},{"type":"function","name":"sub","inputs":[{"name":"value0","type":"int256","internalType":"X111"},{"name":"value1","type":"int256","internalType":"X111"}],"outputs":[{"name":"result","type":"int256","internalType":"X111"}],"stateMutability":"nonpayable"},{"type":"function","name":"timesSigned","inputs":[{"name":"_growth","type":"int256","internalType":"X111"},{"name":"_shares","type":"int256","internalType":"int256"}],"outputs":[{"name":"result","type":"int256","internalType":"X111"}],"stateMutability":"nonpayable"},{"type":"function","name":"timesUnsigned","inputs":[{"name":"_growth","type":"int256","internalType":"X111"},{"name":"_shares","type":"uint256","internalType":"uint256"}],"outputs":[{"name":"result","type":"int256","internalType":"X111"}],"stateMutability":"nonpayable"}],"bytecode":{"object":"0x608060405234601c57600e6020565b6109cf61002b82396109cf90f35b6026565b60405190565b5f80fdfe60806040526004361015610013575b6105aa565b61001d5f356100ec565b8063087ad07b146100e75780631cbb5fc9146100e2578063230ebba1146100dd57806348661c86146100d85780634dfa18d7146100d357806370be203d146100ce57806383bfc315146100c9578063a5f3c23b146100c4578063adefc37b146100bf578063b4a480ad146100ba578063babdd838146100b5578063bfb0f6bf146100b05763fd70d9c30361000e57610574565b61053e565b610508565b6104d2565b61049c565b610466565b610430565b6103fa565b6103c4565b61033e565b610308565b61027e565b6101ba565b60e01c90565b60405190565b5f80fd5b5f80fd5b90565b61010c81610100565b0361011357565b5f80fd5b9050359061012482610103565b565b90565b61013281610126565b0361013957565b5f80fd5b9050359061014a82610129565b565b91906040838203126101745780610168610171925f8601610117565b9360200161013d565b90565b6100fc565b90565b61019061018b61019592610100565b610179565b610100565b90565b6101a19061017c565b9052565b91906101b8905f60208501940190610198565b565b346101eb576101e76101d66101d036600461014c565b906105b2565b6101de6100f2565b918291826101a5565b0390f35b6100f8565b6101f981610100565b0361020057565b5f80fd5b90503590610211826101f0565b565b919060408382031261023b578061022f610238925f8601610117565b93602001610204565b90565b6100fc565b61025461024f61025992610126565b610179565b610126565b90565b61026590610240565b9052565b919061027c905f6020850194019061025c565b565b346102af576102ab61029a610294366004610213565b906105cc565b6102a26100f2565b91829182610269565b0390f35b6100f8565b91906040838203126102dc57806102d06102d9925f8601610117565b93602001610117565b90565b6100fc565b151590565b6102ef906102e1565b9052565b9190610306905f602085019401906102e6565b565b346103395761033561032461031e3660046102b4565b906105e6565b61032c6100f2565b918291826102f3565b0390f35b6100f8565b3461036f5761036b61035a6103543660046102b4565b906105fc565b6103626100f2565b918291826101a5565b0390f35b6100f8565b61037d81610100565b0361038457565b5f80fd5b9050359061039582610374565b565b91906040838203126103bf57806103b36103bc925f8601610117565b93602001610388565b90565b6100fc565b346103f5576103f16103e06103da366004610397565b90610612565b6103e86100f2565b918291826101a5565b0390f35b6100f8565b3461042b576104276104166104103660046102b4565b90610628565b61041e6100f2565b918291826102f3565b0390f35b6100f8565b346104615761045d61044c6104463660046102b4565b9061063e565b6104546100f2565b918291826101a5565b0390f35b6100f8565b346104975761049361048261047c3660046102b4565b90610654565b61048a6100f2565b918291826101a5565b0390f35b6100f8565b346104cd576104c96104b86104b23660046102b4565b9061066a565b6104c06100f2565b918291826101a5565b0390f35b6100f8565b34610503576104ff6104ee6104e83660046102b4565b90610680565b6104f66100f2565b918291826102f3565b0390f35b6100f8565b346105395761053561052461051e3660046102b4565b90610696565b61052c6100f2565b918291826102f3565b0390f35b6100f8565b3461056f5761056b61055a6105543660046102b4565b906106ac565b6105626100f2565b918291826102f3565b0390f35b6100f8565b346105a5576105a161059061058a3660046102b4565b906106c2565b6105986100f2565b918291826102f3565b0390f35b6100f8565b5f80fd5b5f90565b906105c5916105bf6105ae565b506106d8565b90565b5f90565b906105df916105d96105c8565b5061078f565b90565b5f90565b906105f9916105f36105e2565b50610822565b90565b9061060f916106096105ae565b50610841565b90565b906106259161061f6105ae565b50610868565b90565b9061063b916106356105e2565b50610875565b90565b906106519161064b6105ae565b50610894565b90565b90610667916106616105ae565b506108ba565b90565b9061067d916106776105ae565b506108c7565b90565b906106939161068d6105e2565b506108d4565b90565b906106a9916106a36105e2565b506108e1565b90565b906106bf916106b96105e2565b50610900565b90565b906106d5916106cf6105e2565b5061090d565b90565b6106e06105ae565b500290565b6106f96106f46106fe92610100565b610179565b610126565b90565b90565b60ff1690565b61071e61071961072392610701565b610179565b610704565b90565b1b90565b6107499061074361073d61074e94610704565b91610126565b90610726565b610126565b90565b90565b61076861076361076d92610751565b610179565b610704565b90565b90565b61078761078261078c92610770565b610179565b610126565b90565b6108179061081f9261079f6105c8565b5061081261080c6107fc6107f76107f16107e16107dc7fba4f53ea38636f85f007042540ae8ef33225e9a7ab4f4473a86d4a8fdd1a5b829861017c565b6106e5565b6107eb606e61070a565b9061072a565b9461017c565b6106e5565b6108066027610754565b9061072a565b92610773565b61091e565b915050610240565b90565b61083e91610838916108326105e2565b50610900565b156102e1565b90565b9061084a6105ae565b5061085682829061090d565b5f1461086157505b90565b905061085e565b6108706105ae565b500290565b6108919161088b916108856105e2565b5061090d565b156102e1565b90565b61089c6105ae565b506108a881839061090d565b5f146108b357505b90565b90506108b0565b6108c26105ae565b500190565b6108cf6105ae565b500390565b6108dc6105e2565b501390565b6108fd916108f7916108f16105e2565b506108d4565b156102e1565b90565b6109086105e2565b501490565b6109156105e2565b501290565b5f90565b61095361095d94926109659261093261091a565b5061093b61091a565b5061094461091a565b5061094d61091a565b50610973565b9490948490610973565b939094610973565b929092809394019283100190565b919061097d61091a565b5061098661091a565b505f19818409920291828082109103039056fea26469706673582212204c5d560cc67256b2b9f580a5e5f82d66ddf0728ff3aec765d8c4d5bee7f1c91264736f6c63430008220033","linkReferences":{}},"methodIdentifiers":{"add(int256,int256)":"a5f3c23b","equals(int256,int256)":"bfb0f6bf","greaterThan(int256,int256)":"b4a480ad","greaterThanOrEqualTo(int256,int256)":"70be203d","lessThan(int256,int256)":"fd70d9c3","lessThanOrEqualTo(int256,int256)":"babdd838","maxX111(int256,int256)":"83bfc315","minX111(int256,int256)":"48661c86","mulDivByExpInv8(int256,int256)":"1cbb5fc9","notEqual(int256,int256)":"230ebba1","sub(int256,int256)":"adefc37b","timesSigned(int256,int256)":"4dfa18d7","timesUnsigned(int256,uint256)":"087ad07b"},"id":33}