{"abi":[{"type":"constructor","inputs":[{"name":"_nofeeswap","type":"address","internalType":"address"}],"stateMutability":"nonpayable"},{"type":"function","name":"collectPool","inputs":[{"name":"poolId","type":"uint256","internalType":"uint256"}],"outputs":[{"name":"amount0","type":"uint256","internalType":"uint256"},{"name":"amount1","type":"uint256","internalType":"uint256"}],"stateMutability":"nonpayable"},{"type":"function","name":"collectProtocol","inputs":[{"name":"poolId","type":"uint256","internalType":"uint256"}],"outputs":[{"name":"amount0","type":"uint256","internalType":"uint256"},{"name":"amount1","type":"uint256","internalType":"uint256"}],"stateMutability":"nonpayable"},{"type":"function","name":"donate","inputs":[{"name":"poolId","type":"uint256","internalType":"uint256"},{"name":"shares","type":"uint256","internalType":"uint256"},{"name":"hookData","type":"bytes","internalType":"bytes"}],"outputs":[{"name":"amount0","type":"int256","internalType":"int256"},{"name":"amount1","type":"int256","internalType":"int256"}],"stateMutability":"nonpayable"},{"type":"function","name":"initialize","inputs":[{"name":"unsaltedPoolId","type":"uint256","internalType":"uint256"},{"name":"tag0","type":"uint256","internalType":"Tag"},{"name":"tag1","type":"uint256","internalType":"Tag"},{"name":"poolGrowthPortion","type":"uint256","internalType":"X47"},{"name":"kernelCompactArray","type":"uint256[]","internalType":"uint256[]"},{"name":"curveArray","type":"uint256[]","internalType":"uint256[]"},{"name":"hookData","type":"bytes","internalType":"bytes"}],"outputs":[],"stateMutability":"nonpayable"},{"type":"function","name":"modifyKernel","inputs":[{"name":"poolId","type":"uint256","internalType":"uint256"},{"name":"kernelCompactArray","type":"uint256[]","internalType":"uint256[]"},{"name":"hookData","type":"bytes","internalType":"bytes"}],"outputs":[],"stateMutability":"nonpayable"},{"type":"function","name":"modifyPoolGrowthPortion","inputs":[{"name":"poolId","type":"uint256","internalType":"uint256"},{"name":"poolGrowthPortion","type":"uint256","internalType":"X47"}],"outputs":[],"stateMutability":"nonpayable"},{"type":"function","name":"modifyPoolOwner","inputs":[{"name":"poolId","type":"uint256","internalType":"uint256"},{"name":"newOwner","type":"address","internalType":"address"}],"outputs":[],"stateMutability":"nonpayable"},{"type":"function","name":"modifyPosition","inputs":[{"name":"poolId","type":"uint256","internalType":"uint256"},{"name":"logPriceMin","type":"int256","internalType":"X59"},{"name":"logPriceMax","type":"int256","internalType":"X59"},{"name":"shares","type":"int256","internalType":"int256"},{"name":"hookData","type":"bytes","internalType":"bytes"}],"outputs":[{"name":"amount0","type":"int256","internalType":"int256"},{"name":"amount1","type":"int256","internalType":"int256"}],"stateMutability":"nonpayable"},{"type":"function","name":"modifyProtocol","inputs":[{"name":"protocol","type":"uint256","internalType":"uint256"}],"outputs":[],"stateMutability":"nonpayable"},{"type":"function","name":"modifySentinel","inputs":[{"name":"sentinel","type":"address","internalType":"contract ISentinel"}],"outputs":[],"stateMutability":"nonpayable"},{"type":"function","name":"redeployStaticParamsAndKernel","inputs":[],"outputs":[],"stateMutability":"nonpayable"},{"type":"function","name":"updateGrowthPortions","inputs":[{"name":"poolId","type":"uint256","internalType":"uint256"}],"outputs":[],"stateMutability":"nonpayable"},{"type":"event","name":"ModifyPoolOwner","inputs":[{"name":"poolId","type":"uint256","indexed":true,"internalType":"uint256"},{"name":"oldOwner","type":"address","indexed":true,"internalType":"address"},{"name":"newOwner","type":"address","indexed":true,"internalType":"address"}],"anonymous":false},{"type":"event","name":"ModifyProtocol","inputs":[{"name":"newOwner","type":"address","indexed":true,"internalType":"address"},{"name":"newProtocol","type":"uint256","indexed":false,"internalType":"uint256"}],"anonymous":false},{"type":"event","name":"ModifySentinel","inputs":[{"name":"oldSentinel","type":"address","indexed":false,"internalType":"contract ISentinel"},{"name":"newSentinel","type":"address","indexed":false,"internalType":"contract ISentinel"}],"anonymous":false},{"type":"event","name":"PoolCollection","inputs":[{"name":"poolId","type":"uint256","indexed":true,"internalType":"uint256"},{"name":"owner","type":"address","indexed":true,"internalType":"address"},{"name":"amount0","type":"uint256","indexed":false,"internalType":"uint256"},{"name":"amount1","type":"uint256","indexed":false,"internalType":"uint256"}],"anonymous":false},{"type":"event","name":"ProtocolCollection","inputs":[{"name":"poolId","type":"uint256","indexed":true,"internalType":"uint256"},{"name":"amount0","type":"uint256","indexed":false,"internalType":"uint256"},{"name":"amount1","type":"uint256","indexed":false,"internalType":"uint256"}],"anonymous":false},{"type":"event","name":"Transfer","inputs":[{"name":"caller","type":"address","indexed":false,"internalType":"address"},{"name":"from","type":"address","indexed":true,"internalType":"address"},{"name":"to","type":"address","indexed":true,"internalType":"address"},{"name":"tag","type":"uint256","indexed":true,"internalType":"Tag"},{"name":"amount","type":"uint256","indexed":false,"internalType":"uint256"}],"anonymous":false},{"type":"error","name":"AccruedGrowthPortionOverflow","inputs":[{"name":"accruedValue","type":"int256","internalType":"X127"}]},{"type":"error","name":"AdminCannotBeAddressZero","inputs":[]},{"type":"error","name":"BalanceOverflow","inputs":[{"name":"balance","type":"uint256","internalType":"uint256"}]},{"type":"error","name":"BlankIntervalsShouldBeAvoided","inputs":[{"name":"qLower","type":"int256","internalType":"X59"},{"name":"qUpper","type":"int256","internalType":"X59"}]},{"type":"error","name":"CannotDonateToEmptyInterval","inputs":[]},{"type":"error","name":"CannotMintAfterBurning","inputs":[{"name":"poolId","type":"uint256","internalType":"uint256"},{"name":"qMin","type":"int256","internalType":"X59"},{"name":"qMax","type":"int256","internalType":"X59"}]},{"type":"error","name":"CannotRedeployStaticParamsAndKernelExternally","inputs":[]},{"type":"error","name":"CurveIndexOutOfRange","inputs":[{"name":"length","type":"uint256","internalType":"Index"}]},{"type":"error","name":"CurveLengthIsZero","inputs":[]},{"type":"error","name":"DeploymentFailed","inputs":[]},{"type":"error","name":"DonateIsNotAllowed","inputs":[{"name":"poolId","type":"uint256","internalType":"uint256"}]},{"type":"error","name":"GrowthOverflow","inputs":[]},{"type":"error","name":"HookDataTooLong","inputs":[{"name":"hookDataByteCount","type":"uint256","internalType":"uint256"}]},{"type":"error","name":"HorizontalCoordinatesMayNotExceedLogSpacing","inputs":[{"name":"q_j","type":"int256","internalType":"X59"},{"name":"qSpacing","type":"int256","internalType":"X59"}]},{"type":"error","name":"ImmutableKernel","inputs":[{"name":"poolId","type":"uint256","internalType":"uint256"}]},{"type":"error","name":"ImmutablePoolGrowthPortion","inputs":[{"name":"poolId","type":"uint256","internalType":"uint256"}]},{"type":"error","name":"InvalidCurveArrangement","inputs":[{"name":"q0","type":"int256","internalType":"X59"},{"name":"q1","type":"int256","internalType":"X59"},{"name":"q2","type":"int256","internalType":"X59"}]},{"type":"error","name":"InvalidFlags","inputs":[{"name":"","type":"uint256","internalType":"uint256"}]},{"type":"error","name":"InvalidGrowthPortion","inputs":[{"name":"poolGrowthPortion","type":"uint256","internalType":"X47"}]},{"type":"error","name":"InvalidNumberOfShares","inputs":[{"name":"shares","type":"int256","internalType":"int256"}]},{"type":"error","name":"InvalidSentinelResponse","inputs":[{"name":"response","type":"bytes4","internalType":"bytes4"}]},{"type":"error","name":"KernelIndexOutOfRange","inputs":[{"name":"length","type":"uint256","internalType":"Index"}]},{"type":"error","name":"LastVerticalCoordinateMismatch","inputs":[{"name":"c_j","type":"uint256","internalType":"X15"}]},{"type":"error","name":"LogOffsetOutOfRange","inputs":[{"name":"qOffset","type":"int256","internalType":"X59"}]},{"type":"error","name":"LogPriceMaxIsInBlankArea","inputs":[{"name":"logPriceMax","type":"int256","internalType":"X59"}]},{"type":"error","name":"LogPriceMaxIsNotSpaced","inputs":[{"name":"logPriceMax","type":"int256","internalType":"X59"}]},{"type":"error","name":"LogPriceMinIsInBlankArea","inputs":[{"name":"logPriceMin","type":"int256","internalType":"X59"}]},{"type":"error","name":"LogPriceMinIsNotSpaced","inputs":[{"name":"logPriceMin","type":"int256","internalType":"X59"}]},{"type":"error","name":"LogPriceOutOfRange","inputs":[{"name":"logPrice","type":"int256","internalType":"X59"}]},{"type":"error","name":"LogPricesOutOfOrder","inputs":[{"name":"logPriceMin","type":"int256","internalType":"X59"},{"name":"logPriceMax","type":"int256","internalType":"X59"}]},{"type":"error","name":"LogSpacingIsTooSmall","inputs":[{"name":"qSpacing","type":"int256","internalType":"X59"}]},{"type":"error","name":"NoDelegateCall","inputs":[{"name":"context","type":"address","internalType":"address"}]},{"type":"error","name":"NonMonotonicHorizontalCoordinates","inputs":[{"name":"q_i","type":"int256","internalType":"X59"},{"name":"q_j","type":"int256","internalType":"X59"}]},{"type":"error","name":"NonMonotonicVerticalCoordinates","inputs":[{"name":"c_i","type":"uint256","internalType":"X15"},{"name":"c_j","type":"uint256","internalType":"X15"}]},{"type":"error","name":"OnlyByPoolOwner","inputs":[{"name":"attemptingAddress","type":"address","internalType":"address"},{"name":"poolOwnerAddress","type":"address","internalType":"address"}]},{"type":"error","name":"OnlyByProtocol","inputs":[{"name":"attemptingAddress","type":"address","internalType":"address"},{"name":"protocolAddress","type":"address","internalType":"address"}]},{"type":"error","name":"PoolDoesNotExist","inputs":[{"name":"poolId","type":"uint256","internalType":"uint256"}]},{"type":"error","name":"PoolExists","inputs":[{"name":"poolId","type":"uint256","internalType":"uint256"}]},{"type":"error","name":"PoolIdCannotBeZero","inputs":[]},{"type":"error","name":"PoolIsLocked","inputs":[{"name":"poolId","type":"uint256","internalType":"uint256"}]},{"type":"error","name":"ProtocolIsLocked","inputs":[]},{"type":"error","name":"RepetitiveHorizontalCoordinates","inputs":[{"name":"q_i","type":"int256","internalType":"X59"}]},{"type":"error","name":"RepetitiveKernelPoints","inputs":[{"name":"c_i","type":"uint256","internalType":"X15"},{"name":"q_i","type":"int256","internalType":"X59"}]},{"type":"error","name":"RepetitiveVerticalCoordinates","inputs":[{"name":"c_i","type":"uint256","internalType":"X15"}]},{"type":"error","name":"SafeAddFailed","inputs":[{"name":"a","type":"int256","internalType":"X127"},{"name":"b","type":"int256","internalType":"X127"}]},{"type":"error","name":"SafeInRangeAmountOverflow","inputs":[{"name":"sqrtOffsetOrSqrtInverseOffset","type":"int256","internalType":"X127"},{"name":"integral","type":"int256","internalType":"X216"},{"name":"liquidity","type":"int256","internalType":"X111"},{"name":"outgoingMax","type":"int256","internalType":"X216"},{"name":"outgoingMaxModularInverse","type":"uint256","internalType":"uint256"}]},{"type":"error","name":"SafeOutOfRangeAmountOverflow","inputs":[{"name":"sqrtOffsetOrSqrtInverseOffset","type":"int256","internalType":"X127"},{"name":"growthMultiplier","type":"uint256","internalType":"X208"},{"name":"shares","type":"int256","internalType":"int256"}]},{"type":"error","name":"SearchingForIncomingTargetFailed","inputs":[]},{"type":"error","name":"SearchingForOutgoingTargetFailed","inputs":[]},{"type":"error","name":"SecondHorizontalCoordinateIsZero","inputs":[]},{"type":"error","name":"SharesGrossOverflow","inputs":[{"name":"sharesGross","type":"int256","internalType":"int256"}]},{"type":"error","name":"SlopeTooHigh","inputs":[{"name":"q_i","type":"int256","internalType":"X59"},{"name":"q_j","type":"int256","internalType":"X59"}]},{"type":"error","name":"TagsOutOfOrder","inputs":[{"name":"tag0","type":"uint256","internalType":"Tag"},{"name":"tag1","type":"uint256","internalType":"Tag"}]}],"bytecode":{"object":"0x60a0604052346100855761001961001461014a565b61016b565b61002161008a565b61a46361017182396080518181816108be01528181610a360152818161123701528181611316015281816116020152818161181501528181611a2601528181611dbb01528181611fd7015281816120b7015281816122b90152612465015261a46390f35b610090565b60405190565b5f80fd5b601f801991011690565b634e487b7160e01b5f52604160045260245ffd5b906100bc90610094565b810190811060018060401b038211176100d457604052565b61009e565b906100ec6100e561008a565b92836100b2565b565b5f80fd5b60018060a01b031690565b610106906100f2565b90565b610112816100fd565b0361011957565b5f80fd5b9050519061012a82610109565b565b9060208282031261014557610142915f0161011d565b90565b6100ee565b61016861a5d48038038061015d816100d9565b92833981019061012c565b90565b60805256fe60806040526004361015610013575b610821565b61001d5f356100dc565b80630331321d146100d75780630e42e0c4146100d257806314640252146100cd57806317f1b849146100c857806344ba759a146100c35780634e038e6a146100be57806362fc9e53146100b957806365e8dabc146100b45780637e833aac146100af578063b094cfee146100aa578063e2ea169d146100a55763fa824b760361000e576107eb565b6107b8565b610778565b610662565b6105e1565b610557565b6104d2565b61049c565b610417565b61033a565b6102ee565b610186565b60e01c90565b60405190565b5f80fd5b5f80fd5b5f80fd5b90565b610100816100f4565b0361010757565b5f80fd5b90503590610118826100f7565b565b60018060a01b031690565b61012e9061011a565b90565b61013a81610125565b0361014157565b5f80fd5b9050359061015282610131565b565b919060408382031261017c5780610170610179925f860161010b565b93602001610145565b90565b6100ec565b5f0190565b346101b55761019f610199366004610154565b90610a07565b6101a76100e2565b806101b181610181565b0390f35b6100e8565b90565b6101c6816101ba565b036101cd57565b5f80fd5b905035906101de826101bd565b565b6101e9816101ba565b036101f057565b5f80fd5b90503590610201826101e0565b565b5f80fd5b5f80fd5b5f80fd5b909182601f830112156102495781359167ffffffffffffffff831161024457602001926001830284011161023f57565b61020b565b610207565b610203565b91909160a0818403126102b957610267835f830161010b565b9261027581602084016101d1565b9261028382604085016101d1565b9261029183606083016101f4565b92608082013567ffffffffffffffff81116102b4576102b0920161020f565b9091565b6100f0565b6100ec565b6102c7906101ba565b9052565b9160206102ec9294936102e560408201965f8301906102be565b01906102be565b565b346103265761030d61030136600461024e565b94939093929192611200565b906103226103196100e2565b928392836102cb565b0390f35b6100e8565b5f91031261033557565b6100ec565b346103685761034a36600461032b565b6103526112f0565b61035a6100e2565b8061036481610181565b0390f35b6100e8565b909182601f830112156103a75781359167ffffffffffffffff83116103a257602001926020830284011161039d57565b61020b565b610207565b610203565b606081830312610412576103c2825f830161010b565b92602082013567ffffffffffffffff811161040d57836103e391840161036d565b929093604082013567ffffffffffffffff811161040857610404920161020f565b9091565b6100f0565b6100f0565b6100ec565b346104495761043361042a3660046103ac565b939290926115d9565b61043b6100e2565b8061044581610181565b0390f35b6100e8565b9060208282031261046757610464915f0161010b565b90565b6100ec565b610475906100f4565b9052565b91602061049a92949361049360408201965f83019061046c565b019061046c565b565b346104cd576104b46104af36600461044e565b6117df565b906104c96104c06100e2565b92839283610479565b0390f35b6100e8565b34610500576104ea6104e536600461044e565b6119fe565b6104f26100e2565b806104fc81610181565b0390f35b6100e8565b916060838303126105525761051c825f850161010b565b9261052a836020830161010b565b92604082013567ffffffffffffffff811161054d57610549920161020f565b9091565b6100f0565b6100ec565b3461058c5761057361056a366004610505565b92919091611d81565b9061058861057f6100e2565b928392836102cb565b0390f35b6100e8565b61059a816100f4565b036105a157565b5f80fd5b905035906105b282610591565b565b91906040838203126105dc57806105d06105d9925f860161010b565b936020016105a5565b90565b6100ec565b34610610576105fa6105f43660046105b4565b90611fb3565b6106026100e2565b8061060c81610181565b0390f35b6100e8565b61061e90610125565b90565b61062a81610615565b0361063157565b5f80fd5b9050359061064282610621565b565b9060208282031261065d5761065a915f01610635565b90565b6100ec565b346106905761067a610675366004610644565b61208b565b6106826100e2565b8061068c81610181565b0390f35b6100e8565b61069e816100f4565b036106a557565b5f80fd5b905035906106b682610695565b565b91909160e081840312610773576106d1835f830161010b565b926106df81602084016106a9565b926106ed82604085016106a9565b926106fb83606083016105a5565b92608082013567ffffffffffffffff811161076e578161071c91840161036d565b92909360a082013567ffffffffffffffff8111610769578361073f91840161036d565b92909360c082013567ffffffffffffffff811161076457610760920161020f565b9091565b6100f0565b6100f0565b6100f0565b6100ec565b346107b35761079d61078b3660046106b8565b9897909796919695929594939461228d565b6107a56100e2565b806107af81610181565b0390f35b6100e8565b346107e6576107d06107cb36600461044e565b612440565b6107d86100e2565b806107e281610181565b0390f35b6100e8565b3461081c576108036107fe36600461044e565b61260a565b9061081861080f6100e2565b92839283610479565b0390f35b6100e8565b5f80fd5b90565b61083c6108376108419261011a565b610825565b61011a565b90565b61084d90610828565b90565b61085990610844565b90565b61086590610125565b9052565b919061087c905f6020850194019061085c565b565b156108865750565b6108a1905f918291631569cf5360e01b835260048301610869565b0390fd5b906108fd916108f86108b630610850565b6108e86108e27f0000000000000000000000000000000000000000000000000000000000000000610125565b91610125565b146108f230610850565b9061087e565b610997565b565b91602061092092949361091960408201965f83019061085c565b019061085c565b565b1561092b575050565b6109455f92839263f3a5968560e01b8452600484016108ff565b0390fd5b90565b61096061095b61096592610949565b610825565b61011a565b90565b6109719061094c565b90565b1561097b57565b5f632e67161160e21b81528061099360048201610181565b0390fd5b610a05916109a482612628565b916109fd6109b18461266e565b936109d1336109c86109c288610125565b91610125565b14338791610922565b6109f6846109ef6109e96109e45f610968565b610125565b91610125565b1415610974565b8390612693565b9190916126bd565b565b90610a11916108a5565b565b5f90565b90610a7597969594939291610a70610a2e30610850565b610a60610a5a7f0000000000000000000000000000000000000000000000000000000000000000610125565b91610125565b14610a6a30610850565b9061087e565b610c80565b9091565b610a8d610a88610a9292610949565b610825565b6101ba565b90565b610aa9610aa4610aae926101ba565b610825565b6101ba565b90565b610aba90610a95565b9052565b9190610ad1905f60208501940190610ab1565b565b15610adb5750565b610af6905f91829163f7666dbf60e01b835260048301610abe565b0390fd5b15610b025750565b610b1d905f91829163227359af60e21b835260048301610abe565b0390fd5b916020610b42929493610b3b60408201965f830190610ab1565b0190610ab1565b565b15610b4d575050565b610b675f92839263560c606760e11b845260048401610b21565b0390fd5b90565b610b82610b7d610b8792610b6b565b610825565b6101ba565b90565b610b9c68010000000000000000610b6e565b90565b15610ba75750565b610bc2905f918291631f168b4f60e21b835260048301610abe565b0390fd5b15610bce5750565b610be9905f918291634a64178960e11b835260048301610abe565b0390fd5b5f90565b610c05610c00610c0a926100f4565b610825565b6101ba565b90565b634e487b7160e01b5f52601160045260245ffd5b610c30610c36919392936101ba565b926101ba565b808301925f82851215818312169285129112151617610c5157565b610c0d565b610c6a610c65610c6f926101ba565b610825565b6100f4565b90565b90610c7d91036101ba565b90565b9550969550505050509190610c93612781565b610c9b61294d565b610ca3612b8c565b6111ce575b610cb0612bca565b61119c575b610cbd612bf8565b610cc681612c5d565b610cce612ccb565b610ce6610ce1610cdc612d6f565b612d7f565b612da9565b610cee612e08565b94610cf7612e97565b91610d00612ea9565b96610dad610da6610d12838590612ebc565b610d3b610d34610d23898490612ec9565b610d2e878590612ec9565b90612ed6565b8890610ad3565b610d64610d5d610d4c8d8490612ec9565b610d57878590612ec9565b90612ed6565b8c90610afa565b610d7a610d72888d90612ee3565b888d91610b44565b610da0610d998c610d93610d8c610b8a565b8590612ebc565b90612ee3565b8c90610b9f565b86612ef0565b8590610bc6565b610db5612efd565b611169575b610dc2612f2b565b611136575b610dcf612fad565b610dda818590613059565b5f14610f595750505090610eb882610e18610e13610e0c610dfd610ebd9761320e565b610e068b61320e565b9061326d565b5f90613374565b6135e2565b965b610e5f33610e3f610e29613718565b610e31613727565b610e39613737565b9161374b565b610e595f610e54610e4e612ba8565b91610a79565b610c72565b9161376e565b610e7233610e6b613804565b8a9161376e565b610e8533610e7e613814565b899161376e565b610ea1610e90613718565b838390610e9b612ba8565b92613883565b610ea9613718565b91610eb2612ba8565b92613962565b6139d3565b610ec6836139e8565b610ecf826139ee565b610ed76139f4565b610edf613a3b565b610f26575b610eec613a69565b610ef3575b565b610efb612ba8565b610f0d610f075f610a79565b916101ba565b1315610f19575b610ef1565b610f21613a85565b610f14565b610f2e612ba8565b610f40610f3a5f610a79565b916101ba565b1215610f4c575b610ee4565b610f54613a57565b610f47565b9091969550610f69868390613059565b5f14610fae57505090610eb8610ebd92610fa7610fa2610f9a610f8b89613608565b610f9485613608565b9061326d565b600190613374565b6135e2565b955b610e1a565b610eb89196509161106a611065611018611013610ebd97968a610fcf610bed565b91610fe2610fdb613078565b829061308b565b6110ed575b61100d91611000610ffa6110069361320e565b9161320e565b9061326d565b5f90613374565b9061358d565b6135e2565b98611021610bed565b9061103461102d613078565b829061308b565b6110a9575b61105761104861105f92613608565b61105187613608565b9061326d565b600190613374565b9061358d565b6135e2565b9561109c61109761109261108461107f613667565b610bf1565b61108c612ba8565b90610c21565b610c56565b61367a565b6110a461368f565b610fa9565b905061105f6110576110486110e36110bf6135f5565b6110d86110ca6130c5565b6110d2612ba8565b906130d8565b600190600192613193565b9392505050611039565b915061100661100d91611000610ffa61112a6111076130ae565b6111206111126130c5565b61111a612ba8565b906130d8565b5f90600192613193565b95935050509150610fe7565b61113e612ba8565b61115061114a5f610a79565b916101ba565b131561115c575b610dc7565b611164612f47565b611157565b611171612ba8565b61118361117d5f610a79565b916101ba565b121561118f575b610dba565b611197612f19565b61118a565b6111a4612ba8565b6111b66111b05f610a79565b916101ba565b126111c1575b610cb5565b6111c9612be6565b6111bc565b6111d6612ba8565b6111e86111e25f610a79565b916101ba565b136111f3575b610ca8565b6111fb612bb8565b6111ee565b9061121f9594939291611211610a13565b611219610a13565b90610a17565b9091565b61127161122f30610850565b61126161125b7f0000000000000000000000000000000000000000000000000000000000000000610125565b91610125565b1461126b30610850565b9061087e565b61127961127f565b565b5f90565b6112ee6112d56112e96112d06112e46112da6112df6112cb61129f613b97565b98959c9391949a929c9690969a919c9496989a6112ba61127b565b506112c6610808613e54565b613e5a565b612d7f565b613e5f565b613e90565b613ea5565b613eba565b613ecf565b613f07565b565b6112f8611223565b565b906113559493929161135061130e30610850565b61134061133a7f0000000000000000000000000000000000000000000000000000000000000000610125565b91610125565b1461134a30610850565b9061087e565b6113fb565b565b919061136a905f6020850194019061046c565b565b156113745750565b61138f905f9182916388cb5bc160e01b835260048301611357565b0390fd5b5f90565b90565b6113ae6113a96113b392611397565b610825565b6100f4565b90565b906113c191016100f4565b90565b6113d86113d36113dd92610949565b610825565b6100f4565b90565b6113e95f6113c4565b90565b60016113f891016100f4565b90565b505050505061158661140b613fbc565b6114246114166140b2565b61141e613718565b9061136c565b61145c61143f61143a611435613718565b612628565b61266e565b3361145261144c83610125565b91610125565b1490339091610922565b6114646140d0565b6115cc575b6114b6611474612bf8565b9161147e83612c5d565b611486612ccb565b61149e611499611494612d6f565b612d7f565b612da9565b6114a6612e08565b50506114b181614399565b614612565b6114be6147d6565b6114c6614968565b6115bf575b6115796115746114d9612d6f565b6114e1611393565b506114f6816114f0600161139a565b906113b6565b90611510611502614997565b61150a6113e0565b906149aa565b6115aa575b61154b90611521613718565b908361152b6149b7565b6115336149ca565b9161153c6149dd565b936115456149f0565b95614a1b565b61155481614bb2565b61156461155f6113e0565b613ecf565b61156e600161139a565b906113b6565b613f07565b61158161368f565b6139d3565b61158e614bb8565b611596614c4e565b61159d575b565b6115a5614c6c565b61159b565b906115b761154b916113ec565b919050611515565b6115c7614985565b6114cb565b6115d46140ed565b611469565b906115e6949392916112fa565b565b90611641929161163c6115fa30610850565b61162c6116267f0000000000000000000000000000000000000000000000000000000000000000610125565b91610125565b1461163630610850565b9061087e565b611673565b9091565b90565b61165c61165761166192611645565b610825565b6100f4565b90565b61167062800000611648565b90565b9091505050611680614caa565b611688612bf8565b61169181612c5d565b611699612ccb565b6116b16116ac6116a7612d6f565b612d7f565b612da9565b6116b9614cdc565b6116e36116c4614d72565b6116dd6116cf611664565b6116d7614d82565b90614d95565b90614da2565b916117ca61178f61178a61178461177f61171d6116fe614db2565b611717611709611664565b611711614dc2565b90614d95565b90614da2565b9761173861173361172c614d72565b8390614dd5565b614de2565b61175261174d611746614db2565b8b90614dd5565b614de8565b61176261175d611664565b614dee565b61177261176d611664565b614e03565b61177a614e85565b614f51565b610c56565b95614f51565b610c56565b926117c56117a361179e614fab565b614fc7565b6117b6816117af613804565b8991614fe4565b6117be613814565b8691614fe4565b6139d3565b6117dd6117d5613718565b848491615056565b565b6117f9906117eb611393565b6117f3611393565b906115e8565b9091565b6118549061184f61180d30610850565b61183f6118397f0000000000000000000000000000000000000000000000000000000000000000610125565b91610125565b1461184930610850565b9061087e565b611875565b565b90565b61186d61186861187292611856565b610825565b6100f4565b90565b5061187e6150c9565b6118ef611889612bf8565b61189281612c5d565b61189a612ccb565b6118b26118ad6118a8612d6f565b612d7f565b612da9565b6118ba6149ca565b6118dc6118c56149dd565b916118ce615111565b6118d66149ca565b906151c0565b9081156119e5575b506118f9575b6139d3565b6118f76151df565b565b61197b611904612d6f565b61190c611393565b506119218161191b600161139a565b906113b6565b9061193b61192d614997565b6119356113e0565b906149aa565b611988575b6119769061194c613718565b90836119566149b7565b61195e6149ca565b916119676149dd565b93611970614997565b95614a1b565b614bb2565b61198361368f565b6118ea565b906119dd611976916119d861199b613718565b826119b0876119aa6003611859565b906113b6565b6119b86149b7565b6119c06149ca565b916119c96149dd565b936119d26113e0565b95614a1b565b6113ec565b919050611940565b6119f891506119f26149dd565b906151c0565b5f6118e4565b611a07906117fd565b565b90611a659594939291611a60611a1e30610850565b611a50611a4a7f0000000000000000000000000000000000000000000000000000000000000000610125565b91610125565b14611a5a30610850565b9061087e565b611ab3565b9091565b15611a715750565b611a8c905f91829163d2646f0f60e01b835260048301611357565b0390fd5b15611a9757565b5f63a6c66ba760e01b815280611aaf60048201610181565b0390fd5b9350935050505050611ac3612781565b611acb615229565b611ae4611ad661534b565b611ade613718565b90611a69565b611aec615369565b611d74575b611af9612bf8565b611b0281612c5d565b611b0a612ccb565b611b2e611b15613667565b611b27611b215f6113c4565b916100f4565b1415611a90565b611b46611b41611b3c612d6f565b612d7f565b612da9565b611b67611b62611b546149b7565b611b5c6149ca565b90615398565b613e90565b611b6f6153cb565b611d67575b611b7c612e08565b929092611b87615416565b611d5a575b611ba5611b97610bed565b91611ba0613078565b61308b565b611d26575b611bc3611bb5610bed565b94611bbe613078565b61308b565b611ce2575b611c28611c22611c5492611bfb611bf6611be06130c5565b611be8612ba8565b611bf0613667565b916154e1565b61559d565b611c036153cb565b611c85575b611c1061368f565b611c186153cb565b611c78575b6135e2565b946135e2565b92611c3c33611c35613804565b879161376e565b611c4f33611c48613814565b869161376e565b6139d3565b611c5c615691565b611c646156db565b611c6b575b565b611c736156f8565b611c69565b611c80614e85565b611c1d565b611cb1611cac611ca583611c97614d72565b611c9f614d82565b916155b2565b9190614de2565b614dee565b611cdd611cd8611cd189611cc3614db2565b611ccb614dc2565b916155b2565b9190614de8565b614e03565b611c08565b9250611c54611c28611c22611d1c611cf86135f5565b611d11611d036130c5565b611d0b612ba8565b906130d8565b600190600192613193565b9592505050611bc8565b50611d55611d326130ae565b611d4b611d3d6130c5565b611d45612ba8565b906130d8565b5f90600192613193565b611baa565b611d62615433565b611b8c565b611d6f614cdc565b611b74565b611d7c615386565b611af1565b90611d9e939291611d90610a13565b611d98610a13565b90611a09565b9091565b90611dfa91611df5611db330610850565b611de5611ddf7f0000000000000000000000000000000000000000000000000000000000000000610125565b91610125565b14611def30610850565b9061087e565b611e23565b565b15611e045750565b611e1f905f9182916306db803b60e01b835260048301611357565b0390fd5b5050611e2d61570a565b611e46611e3861578b565b611e40613718565b90611dfc565b611f55611e51612bf8565b611e5a81612c5d565b611e92611e75611e70611e6b613718565b612628565b61266e565b33611e88611e8283610125565b91610125565b1490339091610922565b611e9a612ccb565b611f48611ea56149b7565b611ebd611eb8611eb3612d6f565b612d7f565b612da9565b611ec681613e90565b611ece61587a565b611ed6612d6f565b611ede611393565b50611ef381611eed600161139a565b906113b6565b90611f0d611eff614997565b611f076113e0565b906149aa565b611f5f575b611f439192611f1f613718565b91908490611f2b6149ca565b91611f346149dd565b93611f3d614997565b95614a1b565b614bb2565b611f5061368f565b6139d3565b611f5d615924565b565b611fac611f4392611fa7611f71613718565b82611f8686611f806003611859565b906113b6565b88611f8f6149ca565b91611f986149dd565b93611fa16113e0565b95614a1b565b6113ec565b9150611f12565b90611fbd91611da2565b565b61201690612011611fcf30610850565b612001611ffb7f0000000000000000000000000000000000000000000000000000000000000000610125565b91610125565b1461200b30610850565b9061087e565b61203f565b565b15612021575050565b61203b5f92839263354ed6c560e11b8452600484016108ff565b0390fd5b61208990612073612056612051614fab565b614fc7565b3361206961206383610125565b91610125565b1490339091612018565b61207b615972565b612084826159a0565b615a00565b565b61209490611fbf565b565b906120f69998979695949392916120f16120af30610850565b6120e16120db7f0000000000000000000000000000000000000000000000000000000000000000610125565b91610125565b146120eb30610850565b9061087e565b61214f565b565b90565b61210f61210a612114926120f8565b610825565b6101ba565b90565b6121246001606f1b6120fb565b90565b61213090610828565b90565b61214761214261214c9261011a565b610825565b6100f4565b90565b5050505050505050505061225c612164615bbf565b6121f461216f612bf8565b9161218c61218784612181600161139a565b906113b6565b612c5d565b612194615e6f565b612280575b6121a283612c5d565b6121aa615ee8565b6121b2615111565b6121c26121bd612117565b61559d565b6121e76121d56121d061609a565b616190565b919091926121e281614399565b614612565b6121ef6147d6565b616376565b6121fc6163e9565b612204616519565b61220c61587a565b6122146165c3565b6122256122205f6113c4565b613f07565b61222d61368f565b61225761224061223b613718565b612628565b61225161224c33612127565b612133565b90616611565b6139d3565b612264616614565b61226c6166b8565b612273575b565b61227b6166d4565b612271565b612288615e8b565b612199565b9061229f999897969594939291612096565b565b6122f8906122f36122b130610850565b6122e36122dd7f0000000000000000000000000000000000000000000000000000000000000000610125565b91610125565b146122ed30610850565b9061087e565b612390565b565b90565b61231161230c612316926122fa565b610825565b6100f4565b90565b612328658000000000006122fd565b90565b61233f61233a612344926100f4565b610825565b6100f4565b90565b6123509061232b565b9052565b9190612367905f60208501940190612347565b565b156123715750565b61238c905f918291631f84bbb360e01b835260048301612354565b0390fd5b61243e906123c46123a76123a2614fab565b614fc7565b336123ba6123b483610125565b91610125565b1490339091612018565b6123f16123d082614fc7565b6123ea6123e46123df5f610968565b610125565b91610125565b1415610974565b612430612419612400836166e6565b91906124148161240e612319565b9061670c565b612369565b61242b81612425612319565b9061670c565b612369565b6124398161672b565b61673e565b565b612449906122a1565b565b906124a4929161249f61245d30610850565b61248f6124897f0000000000000000000000000000000000000000000000000000000000000000610125565b91610125565b1461249930610850565b9061087e565b6124b4565b9091565b6124b15f6113c4565b90565b90915050506124c1614caa565b6124c9612bf8565b6124d281612c5d565b6124da612ccb565b6124f26124ed6124e8612d6f565b612d7f565b612da9565b6124fa614cdc565b612513612505614d72565b61250d614d82565b90614da2565b916126086125ae6125a96125a361259e61253c61252e614db2565b612536614dc2565b90614da2565b9761255761255261254b614d72565b8390614dd5565b614de2565b61257161256c612565614db2565b8b90614dd5565b614de8565b61258161257c6124a8565b614dee565b61259161258c6124a8565b614e03565b612599614e85565b614f51565b610c56565b95614f51565b610c56565b926125f66125ca6125c56125c0613718565b612628565b61266e565b916125de836125d7613804565b8991614fe4565b6125f1836125ea613814565b8891614fe4565b6139d3565b6125fe613718565b908590859261678b565b565b61262490612616611393565b61261e611393565b9061244b565b9091565b612630611393565b506f68e919334073168f7b6f6d0178986a646010525f5260305f2090565b5f90565b61266661266161266b926100f4565b610825565b61011a565b90565b61268b6126866126909261268061264e565b506167db565b612652565b610844565b90565b906126a96126a46126af9392612127565b612133565b90616611565b565b6126ba90610844565b90565b91906126fb6126f56126ef7f6649f0c2772ae6f9550a735cad4406c3c8f7a5d0ed0fe3df41afcb8b8abade219561232b565b926126b1565b926126b1565b926127046100e2565b8061270e81610181565b0390a4565b90565b61272a61272561272f92612713565b610825565b6100f4565b90565b61275b7fd71f1cf4f9d9f82ef0f0a7247563f6632677ada0e0f8f0d8734b4d2327da39e9612716565b90565b1561276557565b5f63892e4e5760e01b81528061277d60048201610181565b0390fd5b6127b561279461278f612732565b6167e8565b6127ae6127a86127a35f610968565b610125565b91610125565b141561275e565b565b90565b6127ce6127c96127d3926127b7565b610825565b6101ba565b90565b6127e76780000000000000006127ba565b90565b5f90565b6127f75f610a79565b90565b156128025750565b61281d905f91829163085a022d60e31b835260048301610abe565b0390fd5b600f0b90565b61283b61283661284092612821565b610825565b6101ba565b90565b9190612856905f602085019401906102be565b565b156128605750565b61287b905f91829163c270deb360e01b835260048301612843565b0390fd5b61289361288e61289892610949565b610825565b612821565b90565b6128a76128ad91612821565b91612821565b9003906f7fffffffffffffffffffffffffffffff82136f7fffffffffffffffffffffffffffffff198312176128de57565b610c0d565b5f90565b61ffff1690565b6129026128fd612907926128e7565b610825565b6100f4565b90565b156129125750565b61292d905f91829163805cfd4b60e01b835260048301611357565b0390fd5b61294561294061294a926100f4565b610825565b6128e7565b90565b612956336167f5565b61295e611393565b50612a4161298761297960043561297481613e5a565b616808565b6129816127d6565b90612ebc565b61298f6127ea565b506129e660243561299f8161681f565b6129e16129ad828590612ebc565b916129ca6129c3846129bd6127ee565b90612ef0565b82906127fa565b6129dc836129d6610b8a565b90612ee3565b6127fa565b616825565b6129ee6127ea565b50612a3c612a0860443592612a0284616838565b83612ebc565b91612a25612a1e84612a186127ee565b90612ef0565b82906127fa565b612a3783612a31610b8a565b90612ee3565b6127fa565b61683e565b612a49610a13565b50612ae4606435612a7f81612a76612a706f7fffffffffffffffffffffffffffffff612827565b916101ba565b13158290612858565b612ac081612ab7612ab1612aac5f612aa76f7fffffffffffffffffffffffffffffff9161287f565b61289b565b612827565b916101ba565b12158290612858565b612adf81612ad6612ad05f610a79565b916101ba565b14158290612858565b616853565b612aec6128e3565b50612af5611393565b50612afe611393565b50612b07611393565b50612b10611393565b50612b86608435600401612b8161080891612b7c612b77602061080801612b51843591612b4c838201988460208060a48d030399018437616859565b61685f565b612b7281612b69612b6361ffff6128ee565b916100f4565b1115829061290a565b612931565b616865565b61687a565b61687f565b565b5f90565b612b94612b88565b505f6004612ba0613718565b60a01c161190565b612bb0610a13565b506101085190565b612bc863400d975d60e11b616884565b565b612bd2612b88565b505f6020612bde613718565b60a01c161190565b612bf66327f1079560e21b616884565b565b612c00611393565b50612c09613718565b7f08afe526398486e38896d620563771687e7d20a3b0d01f72483eeb2e7d93a48e6020525f5260405f2090565b15612c3e5750565b612c59905f9182916376f8d70760e01b835260048301611357565b0390fd5b612c9690612c8e612c6d826168dd565b612c7f612c795f6113c4565b916100f4565b14612c88613718565b90612c36565b5f19906168ea565b565b612ca15f610a79565b90565b15612cac5750565b612cc7905f918291631e657b1d60e01b835260048301611357565b0390fd5b612cdb612cd6613718565b6168ed565b805460206106550152600181015460406106550152600281015460606106550152612d26612d18612d0a6130c5565b612d12612c98565b90616913565b612d20613718565b90612ca4565b612d2e616936565b9081612d44612d3e61ffff6128e7565b916128e7565b145f14612d5857600191500354610655525b565b50612d65612d6a916128ee565b614bb2565b612d56565b612d77611393565b506106555190565b612da690612d8b61264e565b50612d9461264e565b503090612d9f613718565b9091616949565b90565b60016106e08061080803923c565b90565b612dce612dc9612dd392612db7565b610825565b6100f4565b90565b612de06002612dba565b90565b612ded600161139a565b90565b612dff612e0591939293610a95565b92610a95565b90565b612e106127ea565b50612e196127ea565b50612e32612e2d612e28613718565b6169b2565b6167db565b612e3a61609a565b90612e4b612e46612dd6565b6169d8565b8152612e71612e6282612e5c6113e0565b906169ed565b91612e6b612de3565b906169ed565b90612e7d818390612ee3565b5f14612e8957905b9091565b612e9291612df0565b612e85565b612e9f6127ea565b5060f85160c01c90565b612eb16127ea565b506101005160c01c90565b612ec46127ea565b500390565b612ed16127ea565b500690565b612ede612b88565b501490565b612eeb612b88565b501290565b612ef8612b88565b501390565b612f05612b88565b505f6008612f11613718565b60a01c161190565b612f296314ea355b60e01b616884565b565b612f33612b88565b505f6040612f3f613718565b60a01c161190565b612f576313a6d34160e01b616884565b565b90565b612f70612f6b612f7592612f59565b610825565b6128e7565b90565b612f83610760612f5c565b90565b15612f8e5750565b612fa9905f91829163462df80560e11b835260048301612843565b0390fd5b613052612fb8613718565b612fc0612ba8565b612fc8612e97565b91612fd4818490616a02565b828154019055613005612fe5612ea9565b91612ff1818490616a02565b848154039055612fff610a13565b50616a24565b9261301e613019613014612f78565b6128ee565b616a4a565b910304028154018091558061304b6130456f7fffffffffffffffffffffffffffffff612827565b916101ba565b1315612f86565b565b151590565b6130759161306f91613069612b88565b50612ef0565b15613054565b90565b6130806127ea565b506106775160c01c90565b6130a7916130a19161309b612b88565b50612ed6565b15613054565b90565b5f90565b6130b66130aa565b5061069f5160281c90565b5f90565b6130cd6130c1565b5061068f5160801c90565b6130e06130c1565b500290565b6130ee90610a95565b9052565b6130fb90610a95565b9052565b61310890610a95565b9052565b90959492613157946131466131509261313c60809661313260a088019c5f8901906130e5565b60208701906130f2565b60408501906130ff565b60608301906130f2565b019061046c565b565b9492909391941561316b575050505050565b9061318f92916131796100e2565b95869563059cafa160e51b87526004870161310c565b0390fd5b6131ee92916131bd6131c696956131a8610bed565b506131b1612b88565b50839083869192616a5a565b96909615613054565b925f146131f0576131d5616bac565b915b6131df616bbc565b926131e8616bcf565b94613159565b565b6131f8616b9c565b916131d7565b5f90565b61320b5f6113c4565b90565b906132176131fe565b5061322a613223613718565b8390616bdf565b61323381616c01565b9261324684613240613202565b90616c0e565b61324f575b5050565b61326691935061325e90616c62565b928390616cb5565b5f8061324b565b6132756131fe565b500390565b90565b60ff1690565b61329761329261329c9261327a565b610825565b61327d565b90565b1b90565b6132c2906132bc6132b66132c79461327d565b916100f4565b9061329f565b6100f4565b90565b6132d39061232b565b9052565b60409061330061330794969593966132f660608401985f8501906130e5565b60208301906132ca565b01906102be565b565b929091921561331757505050565b613332905f93849363872deb8f60e01b8552600485016132d7565b0390fd5b90565b61334d61334861335292613336565b610825565b6100f4565b90565b90565b61336c61336761337192613355565b610825565b6100f4565b90565b61342691613380610bed565b50613389612ba8565b905f1461352a57613398616bac565b5b916134066133c16133b16133ac86610a95565b610c56565b6133bb6030613283565b906132a3565b6133ca8361232b565b846133dd6133d75f610a79565b916101ba565b125f14613521576134006133fa5f6133f58891610a79565b610c72565b5b610c56565b91616cb8565b95909561341b6134155f6113c4565b916100f4565b148584908692613309565b826134396134335f610a79565b916101ba565b125f14613490575061348792849261346f9261348c9661346561345f600160ff1b613339565b916100f4565b1092909192613309565b61348261347c5f92610bf1565b91610a79565b610c72565b610a95565b905b565b926134f09491926134eb946134ad6134a75f6113c4565b916100f4565b115f146134f657906134e0916134e594846134d66134d060018060ff1b03613358565b916100f4565b1092909192613309565b6113ec565b5b610bf1565b610a95565b9061348e565b829361351c9361351261350c600160ff1b613339565b916100f4565b1092909192613309565b6134e6565b613400856133fb565b613532616b9c565b613399565b6135405f610a79565b90565b91602061356492949361355d60408201965f8301906130e5565b01906130e5565b565b1561356f575050565b6135895f928392639389559160e01b845260048401613543565b0390fd5b6135e09092919261359c610bed565b506135a8818590616d0d565b936135bb816135b5613537565b90616d1a565b6135d76135d16135cc888690616d1a565b613054565b91613054565b14919091613566565b565b6135ea610a13565b505f03607f1d5f0390565b6135fd6130aa565b506106ba5160281c90565b906136116131fe565b5061362461361d613718565b8390616bdf565b61362d81616c01565b926136408461363a613202565b90616c0e565b613649575b5050565b61366091935061365890616d39565b928390616cb5565b5f80613645565b61366f611393565b5061067f5160801c90565b601061067f015160801c9060801b1761067f52565b61369f61369a613718565b6168ed565b6136a7612d6f565b6136bb6136b561ffff6128ee565b916100f4565b10155f146136fb576106555160018203556136d761ffff616d8d565b5b602061065501518155604061065501516001820155600260606106550151910155565b61371361370e613709612d6f565b612931565b616d8d565b6136d8565b613720611393565b5060d85190565b61372f6127ea565b506101285190565b61373f6127ea565b506101485190565b5f90565b90929192613757613747565b50604051936040526020525f5260605f2091604052565b9190918161378461377e5f610a79565b916101ba565b146137ff576137d39261379691616da2565b6137a96137a282616dc7565b9283610c21565b91826137bd6137b75f610a79565b916101ba565b145f146137d557506137cd616e4d565b5b616e7b565b565b6137e76137e15f610a79565b916101ba565b146137f2575b6137ce565b6137fa616e1f565b6137ed565b505050565b61380c613747565b506106e05190565b61381c613747565b506107005190565b60409061384d613854949695939661384360608401985f85019061046c565b6020830190610ab1565b0190610ab1565b565b929091921561386457505050565b61387f905f938493630ef5859f60e31b855260048501613824565b0390fd5b919061388d611393565b506f1605fc00905adeb7c36aafa65ecdd6bd6020528160105280600852825f5260405f20936138c46138be5f610a79565b916101ba565b135f146138f6576138d76138f3946168dd565b6138e96138e35f6113c4565b916100f4565b1492909192613856565b5b565b505050613905905f19906168ea565b6138f4565b6fffffffffffffffffffffffffffffffff1690565b61393361392e6139389261390a565b610825565b6100f4565b90565b156139435750565b61395e905f918291630610d90760e11b835260048301611357565b0390fd5b906139d19392613970611393565b506f5daca5ccc655360fa5ccacf9c267936c6020526010526008525f5260405f209061399b826167db565b01906139cc826139c36139bd6fffffffffffffffffffffffffffffffff61391f565b916100f4565b1115839061393b565b616611565b565b6139e6906139e05f6113c4565b906168ea565b565b61016852565b61018852565b6139fc613718565b7feef50c47b85ec69dca971f098462811b06c03a692c07d40cb113b6a022f1484f6101a851915f6101a8523391601060f86101a8030160f8a36101a852565b613a43612b88565b505f6010613a4f613718565b60a01c161190565b613a6763f3a7920760e01b616884565b565b613a71612b88565b505f6080613a7d613718565b60a01c161190565b613a9563196bce6360e31b616884565b565b5f90565b5f90565b90565b613ab6613ab1613abb92613a9f565b610825565b6100f4565b90565b613ae77fa16a3cb3a8861ad97eb93808d8efbb8a4a4b6ec0c8563d6da823a8190f8645eb613aa2565b90565b15613af157565b5f637275462b60e01b815280613b0960048201610181565b0390fd5b90613b1891036100f4565b90565b90565b613b32613b2d613b3792613b1b565b610825565b6100f4565b90565b90565b613b51613b4c613b5692613b3a565b610825565b6100f4565b90565b90565b613b70613b6b613b7592613b59565b610825565b6100f4565b90565b90565b613b8f613b8a613b9492613b78565b610825565b6100f4565b90565b613b9f611393565b50613ba8611393565b50613bb1611393565b50613bba613a97565b50613bc3613a97565b50613bcc613a97565b50613bd5613a9b565b50613c01613be9613be4613abe565b6168dd565b613bfb613bf55f6113c4565b916100f4565b11613aea565b613c24613c1f613c0f613abe565b613c19600161139a565b90613b0d565b6168dd565b90613c48613c43613c33613abe565b613c3d6002612dba565b90613b0d565b6168dd565b90613c6c613c67613c57613abe565b613c616003611859565b90613b0d565b6168dd565b90613c90613c8b613c7b613abe565b613c856004613b1e565b90613b0d565b616e7e565b90613cb4613caf613c9f613abe565b613ca96005613b3d565b90613b0d565b616e7e565b90613cd8613cd3613cc3613abe565b613ccd6006613b5c565b90613b0d565b616e7e565b90613cfc613cf7613ce7613abe565b613cf16007613b7b565b90613b0d565b616e8b565b90613d17613d08613abe565b613d115f6113c4565b906168ea565b613d44613d35613d25613abe565b613d2f600161139a565b90613b0d565b613d3e5f6113c4565b906168ea565b613d71613d62613d52613abe565b613d5c6002612dba565b90613b0d565b613d6b5f6113c4565b906168ea565b613d9e613d8f613d7f613abe565b613d896003611859565b90613b0d565b613d985f6113c4565b906168ea565b613dcb613dbc613dac613abe565b613db66004613b1e565b90613b0d565b613dc55f6113c4565b906168ea565b613df8613de9613dd9613abe565b613de36005613b3d565b90613b0d565b613df25f6113c4565b906168ea565b613e25613e16613e06613abe565b613e106006613b5c565b90613b0d565b613e1f5f6113c4565b906168ea565b613e52613e43613e33613abe565b613e3d6007613b7b565b90613b0d565b613e4c5f6113c4565b906168ea565b565b6105ef52565b60d852565b613e8e90613e6c81612da9565b613e7581616e98565b613e7e81616eb7565b613e86616ecc565b919091616edc565b565b60066107f4015160301c9060d01b176107f452565b60066107fa015160301c9060d01b176107fa52565b6006610800015160301c9060d01b1761080052565b6002610806015160101c9060f01b1761080652565b15613eeb57565b5f633011642560e01b815280613f0360048201610181565b0390fd5b613f0f613718565b613f1761264e565b505f52602052613fb65f80604081206f67363d3d37363d3df03d5260086018f3825260108083f5613f6381613f5c613f56613f5186610968565b610125565b91610125565b1415613ee4565b6106d582600b6001613f736149f0565b613f7b611393565b500360061b6106e06108080301613fa46001820160401b6a61000080600a3d393df30017616ef3565b613fac612b88565b5001925af1613ee4565b565b5f90565b613fc4613fb8565b50613fce336167f5565b613fd6611393565b50613fe2600435613e5a565b613fea61127b565b50613ff3611393565b50613ffc611393565b50602435600401906140b060a46140ab610808946140a66140a1823560051b61402d6005820460051b8a0199613e54565b614035611393565b5061403e611393565b50614047611393565b50614050611393565b5061407b6044356004018a602084820192803595869383808688019e8f03039b01903701823761685f565b61409c8161409361408d61ffff6128ee565b916100f4565b1115829061290a565b612931565b616865565b61687a565b61687f565b565b6140ba612b88565b505f620200006140c8613718565b60a01c161190565b6140d8612b88565b505f6140006140e5613718565b60a01c161190565b6140fd631da0c40d60e01b616884565b565b5f90565b1561410a57565b5f639d6f849760e01b81528061412260048201610181565b0390fd5b1561412f575050565b6141495f928392632ecb8af760e11b845260048401610b21565b0390fd5b6141569061232b565b9052565b91602061417b92949361417460408201965f83019061414d565b019061414d565b565b15614186575050565b6141a05f928392636d01227360e01b84526004840161415a565b0390fd5b9160206141c59294936141be60408201965f83019061414d565b0190610ab1565b565b156141d0575050565b6141ea5f928392639743dfb160e01b8452600484016141a4565b0390fd5b90565b61420561420061420a926141ee565b610825565b6101ba565b90565b61421b6401000000006141f1565b90565b15614227575050565b6142415f928392631a16c05960e11b845260048401610b21565b0390fd5b1561424e575050565b6142685f928392630f8c0ef360e01b845260048401610b21565b0390fd5b156142745750565b61428f905f918291637c242c4360e11b835260048301610abe565b0390fd5b91906142a6905f6020850194019061414d565b565b156142b05750565b6142cb905f918291636860171d60e11b835260048301614293565b0390fd5b90565b6142e66142e16142eb926142cf565b610825565b6100f4565b90565b6142f96103fc6142d2565b90565b6143059061232b565b9052565b919061431c905f602085019401906142fc565b565b156143265750565b614341905f91829163cae6a1e160e01b835260048301614309565b0390fd5b90565b61435c61435761436192614345565b610825565b6100f4565b90565b61436f618000614348565b90565b1561437a5750565b614395905f91829163d6622c3160e01b835260048301614293565b0390fd5b6143b16143ac6143a7612f78565b6128ee565b616a4a565b6143b9612dd6565b906143c26113e0565b506143cb612de3565b916143d46140ff565b6143dc6127ea565b906143e8868690616f08565b956143f4888690616f08565b9390939461441261440d8a6144076127ee565b9061308b565b614103565b5b6001156145dc57614430614428828b90613059565b828b91614126565b61444661443e838690616f67565b83869161417d565b614451818a9061308b565b80156145c6575b614464908383916141c7565b61446f818a90612ed6565b80156145b5575b801561458e575b61448990828b9161421e565b61449f6144978a8a90613059565b8a8a91614245565b6144aa898990612ed6565b61455d57906144cf826144c16144e8948c9061308b565b90811561454a575b9061426c565b6144da818590616f86565b908115614537575b906142a8565b506144fe849293946144f8612de3565b90616fd1565b9561451b6145148861450e6142ee565b90616fde565b889061431e565b614526888890616f08565b999093919994929099979597614413565b9050614544848690616f86565b906144e2565b90506145578b899061308b565b906144c9565b505050929450505061458c935061458791505b6145828161457c614364565b90616fa5565b614372565b616eb7565b565b506144896145ae6145a08b8490612ebc565b6145a861420d565b90616fb2565b905061447d565b506145c1828590616fa5565b614476565b506144646145d5838690616f86565b9050614458565b505050929450505061458c93506145879150614570565b90565b61460a61460561460f926145f3565b610825565b6100f4565b90565b9061461b612de3565b614623611393565b50603e61462e616ecc565b03916146386149f0565b925b614645838590616ffd565b1561469e576146966146646146459261465e60406145f6565b906113b6565b93614688614673888390616f08565b61467c81617067565b918993909192936170fb565b614690612de3565b90616fd1565b92905061463a565b5092505050565b6146b96146b46146be92611397565b610825565b6101ba565b90565b6146cb60016146a5565b90565b90565b6146e56146e06146ea926146ce565b610825565b6101ba565b90565b6146fa600160d81b6146d1565b90565b61470760016146a5565b90565b90565b61472161471c6147269261470a565b610825565b6128e7565b90565b61473461038b61470d565b90565b90565b61474e61474961475392614737565b610825565b6128e7565b90565b61476161052261473a565b90565b90565b61477b61477661478092614764565b610825565b6101ba565b90565b6147a67915fc21041027acbbfcd46780fee71ead23fbcb7f4a81e58767ef614767565b90565b90565b6147c06147bb6147c5926147a9565b610825565b6128e7565b90565b6147d36105076147ac565b90565b6147de61609a565b6147e661711b565b61480f6148016147fc6147f7612f78565b6128ee565b616a4a565b6148096146c1565b9061712e565b61483261481a6128e3565b61482381616859565b61482b6146c1565b839161713b565b61483b81617159565b61485c6148576148496146ed565b6148516146fd565b9061716e565b61717b565b61486461729e565b5b61488761488061487b614876614729565b6128ee565b616a4a565b829061308b565b1561495b5761489461746c565b1561486557506148a76148ac925b616859565b6169d8565b6149066149016148e36148de6148d06148cb6148c6614756565b6128ee565b617864565b6148d8614783565b90617874565b6178a4565b6148ec8161790a565b6148f4611393565b5080805f0316900461792d565b617a44565b61495161494c61494761492761492261491d6147c8565b6128ee565b617864565b61494161493a614935612f78565b6128ee565b5f90617a4a565b90617a63565b617ac1565b617b0c565b614959617b21565b565b506148a76148ac926148a2565b614970612b88565b505f61800061497d613718565b60a01c161190565b614995631fb129ff60e21b616884565b565b61499f613a9b565b506108065160f01c90565b6149b2612b88565b501190565b6149bf613a97565b506107f45160d01c90565b6149d2613a97565b506107fa5160d01c90565b6149e5613a97565b506108005160d01c90565b6149f8613a9b565b5061064f5160f01c90565b63ffffffff60e01b1690565b614a1890614a03565b90565b614b2a969593614aaa614aea94614a8a614b0a9895614a6a614aca96614a4a614a42613abe565b5f19906168ea565b614a65614a55613abe565b614a5f600161139a565b90613b0d565b6168ea565b614a85614a75613abe565b614a7f6002612dba565b90613b0d565b6168ea565b614aa5614a95613abe565b614a9f6003611859565b90613b0d565b6168ea565b614ac5614ab5613abe565b614abf6004613b1e565b90613b0d565b617b37565b614ae5614ad5613abe565b614adf6005613b3d565b90613b0d565b617b37565b614b05614af5613abe565b614aff6006613b5c565b90613b0d565b617b37565b614b25614b15613abe565b614b1f6007613b7b565b90613b0d565b617b3a565b614bb0614b567fab7fff18ef175da7256f14d9ba7e8ad14a920a026b4588afbc39d7a18a9a4aa6614a0f565b614b7f7f14640252f378e6434e33d348888b077b3deeebf45c66ac61939fef26a9421cf6614a0f565b90614b88612b88565b506040519160e01c602852600460245260206004525f525f80604881305af490604052613ee4565b565b61065552565b614bc0613718565b7f94eaae04beca0748e87fc5d696c5ddf77d74f92fb580e9592b31494c3a25597a90614bea617b3d565b906106e0820360406106e0035190602060406106e0035260206106e00351928160206106e003528451955f8652602083065f8111614c41575b50604033930160406106e003a360406106e0035260206106e0035252565b602091930301915f614c23565b614c56612b88565b505f62010000614c64613718565b60a01c161190565b614c7c635279ad9d60e01b616884565b565b90565b614c95614c90614c9a92614c7e565b610825565b6128e7565b90565b614ca760f8614c81565b90565b614cb2611393565b50614cbe600435613e5a565b614cd6614cd1614ccc614c9d565b6128ee565b61687f565b565b5f90565b614ce4614cd8565b50614ced614cd8565b50614cf6610bed565b50614cff610bed565b50614d70614d1b614d16614d11613718565b617b4d565b6167db565b614d6b62ffffff8260d01c1691614d668160e81c614d616cffffffffffffffffffffffffff8416607f1b936cffffffffffffffffffffffffff60681b1660171b95614dee565b614e03565b614de2565b614de8565b565b614d7a610bed565b506105a95190565b614d8a614cd8565b506105e95160e81c90565b614d9d614cd8565b500390565b614daa610bed565b500260171c90565b614dba610bed565b506105c95190565b614dca614cd8565b506105ec5160e81c90565b614ddd610bed565b500390565b6105a952565b6105c952565b60036105e9015160181c9060e81b176105e952565b60036105ec015160181c9060e81b176105ec52565b9190614e2b905f602085019401906130e5565b565b15614e355750565b614e50905f918291631718db0760e31b835260048301614e18565b0390fd5b90565b614e6b614e66614e7092614e54565b610825565b6101ba565b90565b614e8260018060e71b03614e57565b90565b614f4f614e90614d72565b614eac614ea582614e9f613537565b90616d1a565b8290614e2d565b614ec8614ec182614ebb614e73565b90617b73565b8290614e2d565b614ed0614db2565b614eec614ee582614edf613537565b90616d1a565b8290614e2d565b614f08614f0182614efb614e73565b90617b73565b8290614e2d565b614f10614d82565b90614f19614dc2565b90614f2a614f25613718565b617b4d565b93614f33611393565b50607f1c90607f1c60681b179160d01b9060e81b171790616611565b565b614f59610a13565b50607f1d90565b90565b614f77614f72614f7c92614f60565b610825565b6100f4565b90565b614fa87ffb342fa999fea16067b1f01baf96673f31a25f2b1443e6754d93fc40b57e8df1614f63565b90565b614fb3611393565b50614fc4614fbf614f7f565b6167db565b90565b614fdc614fe191614fd661264e565b50612652565b610844565b90565b909161505492615040614ff8848390617b92565b61500b615004826167db565b85906113b6565b9061503b8261503261502c6fffffffffffffffffffffffffffffffff61391f565b916100f4565b1115839061393b565b616611565b339261504b5f610968565b90919293617bda565b565b90916150827f19bc1cbcf8a1f48c254b78e01d785173cb667144a3c3246bfa1f40a1a7aec11f9261232b565b9261509761508e6100e2565b92839283610479565b0390a2565b90565b6150b36150ae6150b89261509c565b610825565b6128e7565b90565b6150c661080861509f565b90565b6150d1611393565b506150dd600435613e5a565b6150e5611393565b506150f7602060a4610808030361687a565b61510f61510a6151056150bb565b6128ee565b61687f565b565b61514961511c617c6a565b9061512f81615129612319565b90617d16565b80156151a8575b61514b575b61514490613ea5565b613eba565b565b61515b615156614fab565b6166e6565b9061516e83615168612319565b90617d16565b61519e575b5061518683615180612319565b90617d16565b615191575b5061513b565b615144919250919061518b565b909150905f615173565b506151bb826151b5612319565b90617d16565b615136565b6151dc916151d6916151d0612b88565b50617d23565b15613054565b90565b6151e7613718565b7f7e45b502773d0df12a025b25a368af435357d3235d9dcd3bae60ca3ae6bce8b5600c6107fa0151915f600c6107fa0152339160206107faa3600c6107fa0152565b615232336167f5565b61523a611393565b50615246600435613e5a565b61524e610a13565b506152a76024356152848161527b6152756f7fffffffffffffffffffffffffffffff612827565b916101ba565b13158290612858565b6152a28161529a6152945f610a79565b916101ba565b138290612858565b616853565b6152af6128e3565b506152b8611393565b506152c1611393565b506152ca611393565b506152d3611393565b506153496044356004016153446108089161533f61533a60206108080161531484359161530f838201988460208060a48d030399018437616859565b61685f565b6153358161532c61532661ffff6128ee565b916100f4565b1115829061290a565b612931565b616865565b61687a565b61687f565b565b615353612b88565b505f62080000615361613718565b60a01c161190565b615371612b88565b505f61080061537e613718565b60a01c161190565b61539663a048233f60e01b616884565b565b906153a1613a97565b506153ad828290617d30565b5f146153b857505b90565b90506153b5565b6153c85f6113c4565b90565b6153d3612b88565b506153ed6153df6149b7565b6153e76153bf565b90617d16565b80156153f7575b90565b506154116154036149dd565b61540b6153bf565b90617d16565b6153f4565b61541e612b88565b505f61100061542b613718565b60a01c161190565b61544363bf0e78db60e01b616884565b565b1561544c57565b5f636dd3b1dd60e11b81528061546460048201610181565b0390fd5b90565b61547f61547a61548492615468565b610825565b61327d565b90565b1c90565b6154aa906154a461549e6154af9461327d565b916100f4565b90615487565b6100f4565b90565b90565b6154c96154c46154ce926154b2565b610825565b6101ba565b90565b6154de6001607f1b6154b5565b90565b906155756155706155606155809561550461557a956154fe6130c1565b50610c56565b9061550d6149dd565b876155166149b7565b9161551f611393565b500288602f1b0380910290602f1b039661555761553d898590617d3d565b905061555161554b856100f4565b916100f4565b10615445565b96919091617d63565b61556a605e61546b565b9061548b565b610bf1565b610a95565b90617df4565b9061559b615596836155906154d1565b90617e01565b615445565b565b601061068f015160801c9060801b1761068f52565b9290926155bd610bed565b506155c6614cd8565b926155cf6149dd565b916155d86149b7565b6155e0610bed565b50836001602f1b03025f19600160a21b5f196001605e1b8486095f19035f19858709080993602f1b015f1991600160a21b915f19916001605e1b8282095f1903915f1991090809850194859261564161563a858490616d1a565b8590614e2d565b61565d61565685615650614e73565b90617b73565b8590614e2d565b61566f84615669613537565b90617e20565b61567a575b50505050565b90919293945060171b9102010490825f8080615674565b615699613718565b7f05581d7b0a863ab3ccd5fbadc5fb5f55cd3cd2901be73dd910af4000c4520864601061068f0151915f601061068f01523391602061068fa3601061068f0152565b6156e3612b88565b505f6120006156f0613718565b60a01c161190565b615708632f15c84760e11b616884565b565b615713336167f5565b61571b611393565b50615727600435613e5a565b61572f613a97565b5061575760243561575261574b82615745612319565b9061670c565b8290612369565b613e90565b61575f611393565b50615771602060a4610808030361687a565b61578961578461577f6150bb565b6128ee565b61687f565b565b615793612b88565b505f620400006157a1613718565b60a01c161190565b6157b290610828565b90565b6157be906157a9565b90565b6157d26157cd5f610968565b6157b5565b90565b63ffffffff1690565b6157f26157ed6157f7926157d5565b610825565b6157d5565b90565b61580661580b916100dc565b6157de565b90565b90565b61582561582061582a9261580e565b610825565b6100f4565b90565b5f90565b61583a90614a03565b9052565b9190615851905f60208501940190615831565b565b1561585b5750565b615876905f918291633438289f60e01b83526004830161583e565b0390fd5b615882615972565b8061589c6158966158916157c1565b610615565b91610615565b036158a5575b50565b5f6020916158c16158bc63b8bc612560e01b6157fa565b617e2d565b6158d26158cd84615811565b617e40565b60808260446158df617e45565b6158e761582d565b5001925af11561591c576159165f518061591061590a63b8bc612560e01b614a03565b91614a03565b14615853565b5f6158a2565b3d5f803e3d5ffd5b61592c613718565b7f2acc6bc8384d87ac5f72c8f45789cd5cd8e90615e261099383b4bf5c5ee8aa4160066107f40151915f60066107f40152339160206107f4a360066107f40152565b5f90565b61597a61596e565b507fd0716769b9821201d69d150facfd6f46f5fd95ac252f6eccb21b7560a01e078b5490565b7fd0716769b9821201d69d150facfd6f46f5fd95ac252f6eccb21b7560a01e078b55565b6159cd90610844565b90565b6159d9906159c4565b9052565b9160206159fe9294936159f760408201965f8301906159d0565b01906159d0565b565b907f2811c9ab8a98e83335a140cab217588f70cfad93c5ad191b309bdb3be93be6e691615a37615a2e6100e2565b928392836159dd565b0390a1565b15615a4357565b5f63273c8bc360e11b815280615a5b60048201610181565b0390fd5b15615a675750565b615a82905f91829163a3a300c760e01b835260048301611357565b0390fd5b90565b615a9d615a98615aa292615a86565b610825565b6101ba565b90565b615ab4615aba919392936101ba565b926101ba565b91828103925f828512818312169285139112151617615ad557565b610c0d565b615b06615b015f615afc615af66802d000000000000000615a89565b91610a79565b615aa5565b610a95565b90565b15615b115750565b615b2c905f91829163a2ff8abd60e01b835260048301610abe565b0390fd5b615b426802d000000000000000615a89565b90565b615b4e9061232b565b9052565b916020615b73929493615b6c60408201965f830190615b45565b0190615b45565b565b15615b7e575050565b615b985f928392633fa491e760e21b845260048401615b52565b0390fd5b15615ba357565b5f630149225b60e31b815280615bbb60048201610181565b0390fd5b615bc7613fb8565b5033615bd2906167f5565b615bda611393565b50615be3611393565b50600435615bf090617e54565b80615bfa90613e5a565b805f615c05906113c4565b90615c0f906100f4565b1415615c1a90615a3c565b80615c24906168ed565b615c2d906167db565b5f615c37906113c4565b90615c41906100f4565b1481615c4c91615a5f565b615c5590616808565b80615c5e615ada565b615c6791612ef0565b81615c7191615b09565b80615c7a615b30565b615c8391612ee3565b81615c8d91615b09565b80615c9790617e72565b615ca090617ee9565b615ca86127ee565b90615cb291612ebc565b615cbb90617e72565b615cc490617eef565b615ccc613747565b5060243580615cda90617ef5565b615ce2613747565b5060443580615cf090617efb565b8082615cfb91617f01565b91615d0592615b75565b615d0d613a97565b5060643580615d1a612319565b615d239161670c565b81615d2d91612369565b615d3690613e90565b615d3e61127b565b50615d47611393565b50615d50611393565b506084356004019061080891803560051b906005820460051b840193615d7590613e54565b615d7d6128e3565b50615d86611393565b50615d8f611393565b5060a43560040182850190803560051b90816020615dac90615811565b90615db6906100f4565b1015615dc190615b9c565b82615dcb90616859565b615dd3611393565b50615ddc611393565b50615de5611393565b50615dee611393565b5060c4356004018284016008019281359485938486019860a48a0360209003986020018c3760200190376020018237615e269061685f565b8061ffff615e33906128ee565b90615e3d906100f4565b111581615e499161290a565b615e5290612931565b615e5b90616865565b615e649061687a565b615e6d9061687f565b565b615e77612b88565b505f6001615e83613718565b60a01c161190565b615e9b6303c5b06560e61b616884565b565b615ea690610828565b90565b615eb290615e9d565b90565b615ebe90610125565b90565b15615ec95750565b615ee4905f918291635c31d35560e11b835260048301611357565b0390fd5b615ef06140b2565b8015616083575b80616057575b8061602b575b80615fff575b80615fd3575b80615fa7575b80615f47575b615f4590615f27613718565b90615f30617f12565b5f806201ffff8560a01c161191111416615ec1565b565b50615f50617f12565b615f72615f6c615f67615f625f610968565b615ea9565b615eb5565b91615eb5565b148015615f99575b8015615f86575b615f1b565b50615f45615f926166b8565b9050615f81565b50615fa2615e6f565b615f7a565b50615fb061534b565b8015615fbc575b615f15565b50615fce615fc86156db565b15613054565b615fb7565b50615fdc61534b565b8015615fe8575b615f0f565b50615ffa615ff4615416565b15613054565b615fe3565b5061600861534b565b8015616014575b615f09565b50616026616020615369565b15613054565b61600f565b506160346140b2565b8015616040575b615f03565b5061605261604c614c4e565b15613054565b61603b565b506160606140b2565b801561606c575b615efd565b5061607e616078614968565b15613054565b616067565b5061609561608f6140d0565b15613054565b615ef7565b6160a26128e3565b5061060f5190565b90565b6160c16160bc6160c6926160aa565b610825565b6101ba565b90565b6160d8650100000000006160ad565b90565b156160e35750565b6160fe905f9182916387a53ed360e01b835260048301610abe565b0390fd5b1561610b575050565b6161255f928392630c34b95560e21b845260048401610b21565b0390fd5b604090616152616159949695939661614860608401985f850190610ab1565b6020830190610ab1565b0190610ab1565b565b61616661ffff6128ee565b90565b156161715750565b61618c905f91829163855b486b60e01b835260048301614309565b0390fd5b6161986127ea565b506161a16127ea565b506161b4816161ae6113e0565b906169ed565b6161c6826161c0612de3565b906169ed565b906161d2818390613059565b5f146163665780825b6162586162506161ec838590612ebc565b6162066161ff6161fa612f78565b6128ee565b8290617f4e565b61622261621b826162156160c9565b90616fb2565b82906160db565b616238616230868390612ef0565b868691616102565b61624a8491616245610b8a565b612ebc565b90612ee3565b838391616102565b616260612dd6565b935b600115616352576162748686906169ed565b93616287856162816127ee565b90612ed6565b61631957616296858290613059565b8015616308575b6162bd575b506162b79093946162b1612de3565b90616fd1565b93616262565b6162c8858390613059565b80156162f7575b156162a257906162f3859291925f93849363207d71e160e11b855260048501616129565b0390fd5b50616303818690613059565b6162cf565b50616314828690613059565b61629d565b5061634b9195506163509350959391955b61634661633f8461633961615b565b90616fde565b8490616169565b617f68565b6169d8565b565b61634b91955061635093509593919561632a565b616371828290612df0565b6161db565b906163b46163ae6163ba936163a761638c613718565b916163a161639b848390616bdf565b91616d39565b90616cb5565b8390616bdf565b91616c62565b90616cb5565b565b90565b6163d36163ce6163d8926163bc565b610825565b6128e7565b90565b6163e661053d6163bf565b90565b6164026163f461609a565b6163fc6113e0565b906169ed565b61640b81617159565b6164256164208261641a613078565b90613059565b617f7d565b6164466164416164336146ed565b61643b6146fd565b9061716e565b61717b565b61644e61729e565b5b61647161646a616465616460614729565b6128ee565b616a4a565b829061308b565b156165135761647e61746c565b1561644f57505b61648d617f86565b5f146164d7576164d56164ae6164a96164a46163db565b6128ee565b617864565b6164d06164c96164c46164bf614756565b6128ee565b617864565b915b617f99565b617fae565b565b6164d56164f26164ed6164e8614756565b6128ee565b617864565b6164d061650d6165086165036163db565b6128ee565b617864565b916164cb565b50616485565b616521615972565b8061653b6165356165306157c1565b610615565b91610615565b03616544575b50565b5f60209161656061655b63445bebf960e01b6157fa565b617e2d565b61657161656c84615811565b617e40565b608082604461657e617e45565b61658661582d565b5001925af1156165bb576165b55f51806165af6165a963445bebf960e01b614a03565b91614a03565b14615853565b5f616541565b3d5f803e3d5ffd5b6165d36165ce613718565b6169b2565b6165db61609a565b60016165e561711b565b0360021c820191815181555b8281106165fd57505050565b6001602091019101918251825591906165f1565b55565b61661c613718565b616624613804565b9061662d613814565b616635617b3d565b917fb4add0d5707804b0e090dcf8df1efa022cb9d69286cbcd113c027c82fefc315c916106e084039460406106e0035192602060406106e0035260206106e00351948760206106e0035260408751985f8952602081065f81116166ad575b500160406106e003a460406106e0035260206106e0035252565b60209103015f616693565b6166c0612b88565b505f60026166cc613718565b60a01c161190565b6166e4635eac6a2d60e01b616884565b565b906166ef613a97565b506166f8613a97565b5065ffffffffffff8260d01c9260a01c1690565b616728916167229161671c612b88565b50617d16565b15613054565b90565b61673c90616737614f7f565b616611565b565b61674781614fc7565b6167866167747f8d490d21decc9c8fda6f7e1b1b69e35b2aca42d0b00c7a68afca218dc3b516f2926126b1565b9261677d6100e2565b91829182611357565b0390a2565b9091926167c16167bb7feb39dc3cce8d7be5eb591fafdb67dcbccf19017c002cb86c3a466ee396c9cd2a9361232b565b936126b1565b936167d66167cd6100e2565b92839283610479565b0390a3565b6167e3611393565b505490565b6167f061264e565b505c90565b601460c4015160a01c9060601b1760c452565b6168106127ea565b5060b41c5f0b6001603b1b0290565b61012852565b600860f8015160401c9060c01b1760f852565b61014852565b6008610100015160401c9060c01b1761010052565b61010852565b61060f52565b61062f52565b6002610653015160101c9060f01b1761065352565b60a452565b604052565b616895616890826157fa565b617e2d565b6168a76168a26020615811565b617e40565b60205f6168b2617f12565b60808260446168bf617e45565b01925af19060203d14905f51141616156168d557565b3d5f803e3d5ffd5b6168e5611393565b505c90565b5d565b6168f5611393565b506f6890d047ad8c870137858a70716b2c6b6010525f5260305f2090565b61692f9161692991616923612b88565b50617fc3565b15613054565b90565b5f90565b61693e616932565b506106755160f01c90565b919061695361264e565b505f5260205260405f20604051915f5260ff600b536020527ff779edcbdc615c777a4cb2bee1bf733055aa41ff7247837d0cd548565f65d0346040526055600b2060145260405261d6945f5260016034535f1960601c6017601e201690565b6169ba611393565b506f3b2d91718dfb37f9969a1b0670a83e706010525f5260305f2090565b6002610651015160101c9060f01b1761065152565b906169f66127ea565b5060031b015160c01c90565b90616a0b611393565b5067d7cb7a927a838d416010526008525f5260305f2090565b616a2c611393565b506fa20d6232b6352d00abc0d966e2bcfb8a6010525f5260305f2090565b616a526127ea565b505160c01c90565b616b3c616b4891616b4395616b579495616a72610bed565b50616a7b612b88565b50616a84611393565b505f14616b8357616ab5616ab0616aaa616aa5616a9f616bac565b5b610a95565b610c56565b93610a95565b610c56565b616ac787616ac1612c98565b90617fd0565b5f14616b7757616af0616aeb616ae5616ade612c98565b8a90617fdd565b5b610a95565b610c56565b616b08616b03616afe616bbc565b610a95565b610c56565b91616b11616bcf565b93616b35616b2f616b2a8c616b24612c98565b90617fea565b613054565b91613054565b1494618082565b9490610bf1565b610a95565b91616b51612c98565b90617fd0565b5f14616b7257616b6e90616b69613537565b614dd5565b5b91565b616b6f565b616af0616aeb88616ae6565b616ab5616ab0616aaa616aa5616b97616b9c565b616aa0565b616ba4610bed565b506107405190565b616bb4610bed565b506107205190565b616bc46130aa565b5061079e5160281c90565b616bd7611393565b506107b95190565b90616be8611393565b50671447e579411c2c936010526008525f5260305f2090565b616c096131fe565b505490565b616c16612b88565b501490565b90565b616c32616c2d616c3792616c1b565b610825565b6100f4565b90565b616c5f7b0ba4f53ea38636f85f007042540ae8ef33225e9a7ab4f4473a86d4a8616c1e565b90565b616c77616cb291616c716131fe565b50617067565b50616c80616c3a565b90616cac616c8c6146ed565b616ca6616c9f616c9a612f78565b6128ee565b5f90617a4a565b9061716e565b91618258565b90565b55565b616ced616cf79492616cff92616ccc611393565b50616cd5611393565b50616cde611393565b50616ce7611393565b50617d3d565b9490948490617d3d565b939094617d3d565b929092809394019283100190565b616d15610bed565b500190565b616d3691616d3091616d2a612b88565b506182a2565b15613054565b90565b616d4e616d8a91616d486131fe565b50617067565b9050616d58616c3a565b90616d84616d646146ed565b616d7e616d77616d72612f78565b6128ee565b5f90617a4a565b9061716e565b91618258565b90565b6002610675015160101c9060f01b1761067552565b616daa611393565b506bdc0da6920d198e2eedf81ef66020526014525f5260405f2090565b616dcf610a13565b505c90565b90565b616deb616de6616df092616dd4565b610825565b6100f4565b90565b616e1c7f5d43e4cd1a16168a103e08dc189528d374b6e2bd5c612e94553d728c80030103616dd7565b90565b616e4b616e2a616df3565b616e45616e356182af565b616e3f600161139a565b906113b6565b906168ea565b565b616e79616e58616df3565b616e73616e636182af565b616e6d600161139a565b90613b0d565b906168ea565b565b5d565b616e86613a97565b505c90565b616e93613a9b565b505c90565b600190616ea3613a9b565b50816106e061080803913b030360061c0190565b600261064f015160101c9060f01b1761064f52565b616ed461127b565b506105ef5190565b916001900360061b916106e061080803600101913c565b600b6106d5015160581c9060a81b176106d552565b91616f116140ff565b92616f1a6127ea565b92616f2d81616f276113e0565b906149aa565b616f36575b5050565b9092506008919350616f46611393565b50600a02030190616f5f616f59836182cb565b92616a4a565b905f80616f32565b616f8391616f7d91616f77612b88565b506182df565b15613054565b90565b616fa291616f9c91616f96612b88565b50616fa5565b15613054565b90565b616fad612b88565b501490565b616fce91616fc891616fc2612b88565b50612ee3565b15613054565b90565b616fd9613a9b565b500190565b616ffa91616ff491616fee612b88565b506149aa565b15613054565b90565b617005612b88565b501090565b90565b61702161701c6170269261700a565b610825565b6100f4565b90565b90565b61704061703b61704592617029565b610825565b6100f4565b90565b90565b61705f61705a61706492617048565b610825565b61327d565b90565b617082906170736130aa565b5061707c6130aa565b50618455565b6170f86170f36170ee6170dd6170d86170d37ff1aaddd7742e56d32fb9f997447d9e6314db84884fabab26bf059af9bc20b609600160c11b6170cd6170c78a9361700d565b9161702c565b906186d2565b610bf1565b610a95565b936170e8602861704b565b9061548b565b610bf1565b610a95565b91565b602091926022820394855196601e84015260038301526018820352035252565b617123613a9b565b506106515160f01c90565b6171366127ea565b500190565b919060801b9060c01b179052617157617152612dd6565b6169d8565b565b6008610148015160401c9060c01b1761014852565b6171766130aa565b500390565b601b610152015160d81c9060281b1761015252565b90565b6171a76171a26171ac92617190565b610825565b6128e7565b90565b6171ba610293617193565b90565b90565b6171d46171cf6171d9926171bd565b610825565b6128e7565b90565b6171e76102d16171c0565b90565b90565b6172016171fc617206926171ea565b610825565b6128e7565b90565b61721461030f6171ed565b90565b90565b61722e61722961723392617217565b610825565b6128e7565b90565b61724161034d61721a565b90565b90565b61725b61725661726092617244565b610825565b6128e7565b90565b61726e610409617247565b90565b90565b61728861728361728d92617271565b610825565b6128e7565b90565b61729b610449617274565b90565b6173476172a961609a565b6172d56172d06172cb6172bb846186ef565b91906172c561874a565b9061875d565b618783565b6187aa565b61733261732d6172f46172e661711b565b6172ee612de3565b906187bf565b926172fe846187cc565b61732761730c8286906169ed565b9461732186939161731b612de3565b906187bf565b906169ed565b90612ee3565b6187e1565b61734261733d6171af565b6128ee565b617f4e565b61737061735a6173556171dc565b6128ee565b61736a6173656171af565b6128ee565b906187ea565b61739961738361737e617209565b6128ee565b61739361738e6171af565b6128ee565b906187ea565b6173c26173ac6173a7617236565b6128ee565b6173bc6173b76171af565b6128ee565b906187ea565b6173eb6173d56173d0614729565b6128ee565b6173e56173e06171af565b6128ee565b906187ea565b6174146173fe6173f9617263565b6128ee565b61740e6174096171af565b6128ee565b906187ea565b61743d617427617422617290565b6128ee565b6174376174326171af565b6128ee565b906187ea565b565b90565b61745661745161745b9261743f565b610825565b6128e7565b90565b61746961058e617442565b90565b617474612b88565b906174ae61749061748b617486614729565b6128ee565b616a4a565b6174a86174a361749e617290565b6128ee565b616a4a565b90612ed6565b617857575b6174bb61889f565b6174f46174d66174d16174cc614729565b6128ee565b616a4a565b6174ee6174e96174e4617236565b6128ee565b616a4a565b90612ed6565b6177ea575b8061754461753e61753961751b617516617511617209565b6128ee565b616a4a565b61753361752e617529617263565b6128ee565b616a4a565b90612ee3565b613054565b91613054565b036177bc575b6175c661755d617558614729565b6128ee565b826175a86175a261759d61757f61757a617575617236565b6128ee565b616a4a565b61759761759261758d617290565b6128ee565b616a4a565b90613059565b613054565b91613054565b145f146177ac576175c06175ba617290565b5b6128ee565b906187ea565b6175ce6130aa565b50806175e96175e36175de617f86565b613054565b91613054565b145f1461774e576176df92506175fd618d7b565b9061763161762b6176268461762061761b617616614729565b6128ee565b616a4a565b90612ee3565b613054565b91613054565b0361772f575b506176406130aa565b50617649618d8e565b5f146176e1576176576195fc565b9290926176c961769861767061766b617263565b6128ee565b617678617209565b61769261768c617686614729565b926128ee565b916128ee565b91618b1e565b915b6176b46176ad6176a8614756565b6128ee565b8490618d70565b6176c46176bf6147c8565b6128ee565b618d70565b5b6176da6176d561745e565b6128ee565b618d70565b565b6176e9618df1565b9290926176c961772a6177026176fd617263565b6128ee565b61770a617209565b61772461771e617718614729565b926128ee565b916128ee565b91619380565b61769a565b6177489061774361773e614729565b6128ee565b617f4e565b5f617637565b506176df61778d617765617760617263565b6128ee565b61776d617209565b61778761778161777b614729565b926128ee565b916128ee565b91618b1e565b6177a76177a061779b6163db565b6128ee565b8290618d70565b6176ca565b6175c06177b7617236565b6175bb565b6177e56177cf6177ca617209565b6128ee565b6177df6177da617263565b6128ee565b906187ea565b61754a565b61784a906178446178016177fc61745e565b6128ee565b9161781a61781561781061745e565b6128ee565b617864565b617822614729565b9161783e6178386178316171dc565b92946128ee565b916128ee565b916188b2565b90618947565b617852618984565b6174f9565b61785f61881e565b6174b3565b61786c6130aa565b505160281c90565b9061787d6130aa565b5060018060d81b0391600160d81b82820960018060d81b03039160018060d81b0391090890565b7faa3ed2381a8b1241d16168fd77ef989ed2b13be12b716aa23f35ed0e39556001906178ce6130aa565b50780fffffffffffffff8000000000000002aaaaaaaaaaaaaaa001780fffffffffffffff8000000000000002aaaaaaaaaaaaaaa0001991090290565b601b61079e015160d81c9060281b1761079e52565b9061792a91026100f4565b90565b617a4190617939611393565b50617a3b617a1f6179fb6179d76179b361798f617960600361795b8991611859565b61791f565b61796a6002612dba565b18617989600261798461797e8b859061791f565b91612dba565b613b0d565b9061791f565b6179ad60026179a86179a28a859061791f565b91612dba565b613b0d565b9061791f565b6179d160026179cc6179c689859061791f565b91612dba565b613b0d565b9061791f565b6179f560026179f06179ea88859061791f565b91612dba565b613b0d565b9061791f565b617a196002617a14617a0e87859061791f565b91612dba565b613b0d565b9061791f565b91617a36617a30600292859061791f565b91612dba565b613b0d565b9061791f565b90565b6107b952565b90617a536130aa565b5015601b02602303015160281c90565b9064f8f6376c447f28256938c4923ff15ab260970aa81f81c15e6f5ef3af38dc210569e77db1935992617a946130aa565b5002907e1561650620dabb6a84b684e2a7e5a47caa0a0905210083f0e3b551aabf84e98183099102030290565b617ac96130aa565b50780fffffffffffffff8000000000000002aaaaaaaaaaaaaaa001198102905f1990780fffffffffffffff8000000000000002aaaaaaaaaaaaaaa0011990090390565b601b6107d9015160d81c9060281b176107d952565b6102846105a9036102846105a9035f0361028439565b5d565b5d565b617b45611393565b5061062f5190565b617b55611393565b506f5e1c6265e3e30cea650443fb20ef1ef96010525f5260305f2090565b617b8f91617b8991617b83612b88565b50617e20565b15613054565b90565b617b9a611393565b506b3c244899b5fa3e971383ac4b6020526014525f5260405f2090565b916020617bd8929493617bd160408201965f83019061085c565b019061046c565b565b93617c17617c11617c0b7f1b3d7edb2e9c0b0e7c525b20aaaef0f5940d2ed71663c7d39266ecafac728859946126b1565b946126b1565b9461232b565b94617c2c617c236100e2565b92839283617bb7565b0390a4565b65ffffffffffff1690565b617c50617c4b617c5592617c31565b610825565b6100f4565b90565b617c6765ffffffffffff617c3c565b90565b617c72613a97565b50617c7b613a97565b50617c84617c58565b90617c8d617c58565b90617c96615972565b80617cb0617caa617ca56157c1565b610615565b91610615565b03617cb9575b50565b5f91935060409250617cd9617cd46306212bef60e11b6157fa565b617e2d565b617ceb617ce66020615811565b617e40565b6080826044617cf8617e45565b01925af115617d0e575f5190602051905f617cb6565b3d5f803e3d5ffd5b617d1e612b88565b501190565b617d2b612b88565b501490565b617d38612b88565b501090565b9190617d47611393565b50617d50611393565b505f198184099202918280821091030390565b617d6b611393565b50617d77818390617d3d565b9290929182617d8e617d885f6113c4565b916100f4565b14617ded57617de49285617dea9693617ddd93617da9611393565b50099085821190039403936001617dc95f617dc486916113c4565b613b0d565b841680809504960493805f0304019061791f565b179161792d565b9061791f565b90565b5050500490565b617dfc6130c1565b500190565b617e1d91617e1791617e11612b88565b50619bed565b15613054565b90565b617e28612b88565b501390565b60046080015160201c9060e01b17608052565b608452565b617e4d611393565b5060a45190565b617e5c611393565b503360601b5f528060145260345f2060bc1b0190565b617eb5617eb07fcf8e41e6c4d4aa5e9cc597c10cd32eacd30c44f750a8ffdb1a8863dd8f72f0a592617ea2610bed565b50617eab615b30565b612ebc565b619c38565b7f872db9e8ffa9e7d41f2aaf39897b91e4002e70fceed391471fad73d51503772d600160bf1b820990600160bf1b02030290565b61072052565b61074052565b6106e052565b61070052565b617f09612b88565b501190565b5f90565b617f1a617f0e565b50617f4b617f46617f41617f2c613718565b617f3b60018060a01b03612133565b16612652565b610844565b615ea9565b90565b90617f6691617f5c82617067565b9192909192619ecf565b565b6008610677015160401c9060c01b1761067752565b60ff0261015053565b617f8e612b88565b506101505160ff1c90565b601b61069f015160d81c9060281b1761069f52565b601b6106ba015160d81c9060281b176106ba52565b617fcb612b88565b501490565b617fd8612b88565b501290565b617fe56130c1565b500390565b6180069161800091617ffa612b88565b50617fd0565b15613054565b90565b61801d618018618022926120f8565b610825565b6100f4565b90565b90565b61803c61803761804192618025565b610825565b61327d565b90565b90565b61805b61805661806092618044565b610825565b61327d565b90565b90565b61807a61807561807f92618063565b610825565b6100f4565b90565b9495939291906180a691618094611393565b5061809d612b88565b96919091616cb8565b9391929093806180c26180bc6001606f1b618009565b916100f4565b101561823f576180df618105916180d96091618028565b906132a3565b6180f3866180ed606f618047565b9061548b565b17946180ff6091618028565b906132a3565b61811984618113606f618047565b9061548b565b17618122611393565b5081805f1987098187840808809581831090039103918161814b618145836100f4565b916100f4565b1015618225579061817f93929161816b5f61816683916113c4565b613b0d565b1690600182805f030401029104179061791f565b946181ba575b50508261819e618198600160ff1b613339565b916100f4565b10156181a657565b9150505f906181b66001926113c4565b9190565b6181d16d7fffffffffffffffffffffffffff618066565b166181e46181de5f6113c4565b916100f4565b1190811561820a575b506181fa575b5f80618185565b91618204906113ec565b916181f3565b905061821e6182185f6113c4565b916100f4565b115f6181ed565b5050505050509150505f9061823b6001926113c4565b9190565b50505050509150505f906182546001926113c4565b9190565b9061829f9261829461828f61828961828461827e61829a976182786131fe565b5061232b565b95610a95565b610c56565b92610a95565b610c56565b91617d63565b61232b565b90565b6182aa612b88565b501290565b6182b7611393565b506182c86182c3616df3565b6168dd565b90565b6002906182d66140ff565b50035160f01c90565b6182e7612b88565b501190565b90565b6183036182fe618308926182ec565b610825565b6100f4565b90565b90565b61832261831d6183279261830b565b610825565b6100f4565b90565b634e487b7160e01b5f52601260045260245ffd5b61834a618350916100f4565b916100f4565b90811561835b570490565b61832a565b90565b61837761837261837c92618360565b610825565b6100f4565b90565b90565b61839661839161839b9261837f565b610825565b6100f4565b90565b90565b6183b56183b06183ba9261839e565b610825565b6100f4565b90565b90565b6183d46183cf6183d9926183bd565b610825565b6100f4565b90565b90565b6183f36183ee6183f8926183dc565b610825565b61327d565b90565b90565b61841261840d618417926183fb565b610825565b6100f4565b90565b90565b61843161842c6184369261841a565b610825565b6100f4565b90565b61844d61844861845292612db7565b610825565b61327d565b90565b6186336184756184706186439361846a611393565b50610a95565b610c56565b61848081829061791f565b906185f16185de61849284859061791f565b61849a611393565b506185d86185bd5f19600160801b600160801b858a095f19868b090309926184c0611393565b506185b76185a061859061857f61856c8c61856661855061852d61850d6184fd8b80025f198d800903956184f7600760681b6182ef565b9061791f565b618507600f61830e565b9061833e565b6185278b6185216609c00000000000618363565b9061833e565b906113b6565b61854a8d61854469c9180000000000000000618382565b9061833e565b906113b6565b91618560621eee11605a1b6183a1565b9061833e565b906113b6565b618579600160fe1b6183c0565b906113b6565b9a61858a606a6183df565b906132a3565b61859a600f61830e565b9061833e565b916185b166249000000000006183fe565b9061833e565b906113b6565b916185d26a06df92000000000000000061841d565b9061833e565b906113b6565b6185eb600160ff1b613339565b906113b6565b905f1991600160b41b916001604c1b828209915f199109030961862d61862761861b848490613b0d565b92600160fe1b946113b6565b926183c0565b906186d2565b61863d6002618439565b906132a3565b808002905f1990800903808002905f1990800903808002905f1990800903808002905f1990800903808002905f1990800903808002905f1990800903808002905f1990800903808002905f1990800903808002905f1990800903808002905f1990800903808002905f1990800903808002905f1990800903808002905f1990800903808002905f199080090390565b90916186dc611393565b5060018103928391818409820392090890565b6186f76127ea565b506187006127ea565b50618725618716826187106113e0565b906169ed565b9161871f612de3565b906169ed565b618730818390613059565b5f1461873c57905b9091565b61874591612df0565b618738565b6187526127ea565b506101485160c01c90565b6187656127ea565b50618771818390612ee3565b5f1461877c57505b90565b9050618779565b9061878c6127ea565b50618798828290612ee3565b5f146187a357505b90565b90506187a0565b600861028b015160401c9060c01b1761028b52565b6187c7613a9b565b500390565b6002610285015160101c9060f01b1761028552565b60ff0261028453565b90603e915e565b90565b61880861880361880d926187f1565b610825565b6128e7565b90565b61881b6102876187f4565b90565b61884761883161882c617263565b6128ee565b61884161883c617290565b6128ee565b90619ee9565b61889d618852616ecc565b61885a617290565b906188636171dc565b9061887c618877618872618810565b6128ee565b619ef5565b9161889761889161888b61889f565b956128ee565b916128ee565b91619f30565b565b6188a7612b88565b506102845160ff1c90565b906188fd906188f76188ef7f7082326d62b7ef4d06861f13c21dd192c8044b19a121205b7dc63c2642b5a80595966188e86130aa565b5015613054565b918290617a4a565b94617a4a565b90634bc3287b029264cef6ae8685029063cb21e499027f5bc2a24e50a66d39c35a9132c33f2fc50a1b99389d5455e78a7cf7ef8894e4cd81830991020302818102915f1991090390565b9060208203906005825193035252565b90565b61896e61896961897392618957565b610825565b6128e7565b90565b61898161028561895a565b90565b61898c612b88565b506189b66189a061899b617209565b6128ee565b6189b06189ab6171dc565b6128ee565b906187ea565b6189df6189c96189c46171dc565b6128ee565b6189d96189d4617236565b6128ee565b906187ea565b618a216189f26189ed617236565b6128ee565b618a1b6189fd61609a565b618a15618a10618a0b618976565b6128ee565b619fe9565b906169ed565b90617f4e565b618a32618a2c61889f565b15613054565b90618a3c826187e1565b618acd618a47616ecc565b618a5f618a5a618a55618810565b6128ee565b61a003565b90618aa281618a6c617263565b90618a756171dc565b90618a8886618a82612de3565b906187bf565b91618a9c618a968b956128ee565b916128ee565b91619f30565b90618aab617290565b91618ab46171dc565b618ac7618ac188956128ee565b916128ee565b91619f30565b565b5f90565b618adc5f610a79565b90565b618ae85f6113c4565b90565b90565b618b02618afd618b0792618aeb565b610825565b6101ba565b90565b618b1b671000000000000000618aee565b90565b618b266130aa565b50618b2f6140ff565b50618b386130aa565b50618b416130aa565b50618b4a6127ea565b50618b53618acf565b50618b5c618acf565b50618b6682616a4a565b91618b7084616a4a565b618b7b848290612ed6565b618d6057618b87611393565b50618b9c83618b9660406145f6565b906113b6565b618ba5846182cb565b94618baf826182cb565b618bc181618bbb618adf565b90616fa5565b618d4d57618bd090879061a013565b90618bf2618bea618be2868490612ee3565b968790617a4a565b988690617a4a565b95618c0583618bff618adf565b90616fa5565b618d3d57618c1290616a4a565b91855f14618cee57618c5d618c4f618c48618c41618c33618c629688612ebc565b618c3b618b0a565b9061712e565b849061a020565b9685612ebc565b618c57618b0a565b9061712e565b61a020565b5b92935f14618cd85790618c79618c7f9291616a4a565b90612ebc565b5b8091600160c01b87850993600160c01b868309600160c01b81600160c01b03870895818110938860018060c01b03910901918960018060c01b0391090103039281840660c01b0104910460c01b0192030201600f1c90565b618ce4618ce992616a4a565b612ebc565b618c80565b618d33618d25618d1d618d16618d08618d38968890612ebc565b618d10618b0a565b9061712e565b849061a020565b968590612ebc565b618d2d618b0a565b9061712e565b61a020565b618c63565b50505050505090910302600f1c90565b5050505050505050618d5d618ad3565b90565b5050505050618d6d618ad3565b90565b9060281b8151019052565b618d836127ea565b5061028b5160c01c90565b618d96612b88565b506101515160ff1c90565b15618da857565b5f630f975a0160e11b815280618dc060048201610181565b0390fd5b90565b618ddb618dd6618de092618dc4565b610825565b6128e7565b90565b618dee6103c9618dc7565b90565b618df9612b88565b50618e026130aa565b50618e2c618e0e61a02d565b618e26618e21618e1c614756565b6128ee565b617864565b9061716e565b618e67618e3f618e3a617263565b6128ee565b618e47617209565b618e61618e5b618e55614729565b926128ee565b916128ee565b91618b1e565b90618e7382829061a040565b61937957618e7f617f86565b90815f1461933b57618ec0618ea2618e9d618e98617263565b6128ee565b616a4a565b618eba618eb5618eb0617290565b6128ee565b616a4a565b90612ebc565b5b91618efb618edd618ed8618ed3617290565b6128ee565b6182cb565b618ef5618ef0618eeb617263565b6128ee565b6182cb565b9061a013565b94618f0e618f07618b0a565b879061a020565b618fd9618fd3618f4083618f3a89618f34618f2f618f2a617263565b6128ee565b6182cb565b9061a020565b9061a05f565b855f146192e957618f9490618f8e618f87618f69618f64618f5f617263565b6128ee565b616a4a565b618f81618f7c618f77617209565b6128ee565b616a4a565b90612ebc565b8c9061a020565b9061a05f565b5b96618fcd618fa28961a06c565b91618fc6618fb6618fb1617209565b6128ee565b618fc08a15613054565b90617a4a565b899161a07e565b9061716e565b8061a0da565b90835f146192a85761903b61901d618fff618ffa618ff5617209565b6128ee565b616a4a565b61901761901261900d614729565b6128ee565b616a4a565b90612ebc565b5b9761903561902a6146c1565b918a9089909161a0e7565b9061875d565b5b60011561929a57619058619051828b9061a020565b889061a05f565b61909761908f6190678361a06c565b61908987600160ff1b9061908361907d89618455565b92613339565b9061a141565b9061716e565b91849061a17b565b80916190a16127ea565b506190aa611393565b5005908a82020581603c1d03600160531b038181920105906190d4826190ce6127ee565b90612ed6565b61910457506190ff916190f26190f8926190ec6146c1565b9261712e565b9061875d565b8890618783565b61903c565b94975050949750505061912c91945061912561911f5f6113c4565b916100f4565b1415618da1565b5b825f14619274576191559061915061914b619146617209565b6128ee565b616a4a565b612ebc565b5b619170619169619164618de3565b6128ee565b8290617f4e565b6191ab61918361917e617263565b6128ee565b61918b617209565b6191a561919f619199618de3565b926128ee565b916128ee565b91618b1e565b5b6191b781869061a188565b156192405750825f14619229576191d6906191d06146c1565b90612ebc565b5b906191e18361a195565b6191b761921f6191f76191f2617263565b6128ee565b6191ff617209565b61921961921361920d618de3565b926128ee565b916128ee565b91618b1e565b90509190916191ac565b61923b906192356146c1565b9061712e565b6191d7565b935050905061926e619258619253614729565b6128ee565b619268619263618de3565b6128ee565b906187ea565b60019190565b6192959061929061928b619286617209565b6128ee565b616a4a565b61712e565b619156565b94975050509250925061912d565b61903b6192e46192c66192c16192bc614729565b6128ee565b616a4a565b6192de6192d96192d4617209565b6128ee565b616a4a565b90612ebc565b61901e565b6193369061933061932961930b619306619301617209565b6128ee565b616a4a565b61932361931e619319617263565b6128ee565b616a4a565b90612ebc565b8c9061a020565b9061a05f565b618f95565b61937461935661935161934c617290565b6128ee565b616a4a565b61936e619369619364617263565b6128ee565b616a4a565b90612ebc565b618ec1565b50905f9190565b909161938a6130aa565b916193936140ff565b5061939c6130aa565b506193a56130aa565b506193ae6127ea565b506193b7618acf565b506193c0618acf565b506193ca84616a4a565b936193d483616a4a565b916193e0868490612ed6565b6195c8576193ec611393565b50619401816193fb60406145f6565b906113b6565b61940a816182cb565b9561941d87619417618adf565b90616fa5565b6195bd575061942b90616a4a565b9061945f61944e61943d868a90612ee3565b946194488615613054565b90617a4a565b956194598515613054565b90617a4a565b96619469826182cb565b619474888290616fa5565b6195ad57619482908861a013565b845f14619560576194ce6194c06194b86194b16194a36194d3968990612ebc565b6194ab618b0a565b9061712e565b849061a020565b978690612ebc565b6194c8618b0a565b9061712e565b61a020565b5b93925f1461954857906194e96194ee92616a4a565b612ebc565b5b8091600160c01b85820993600160c01b88820994600160c01b81600160c01b03870895818110938860018060c01b03910901918960018060c01b0391090103039281840660c01b0104910460c01b0192030203600f1c90565b61955561955b9291616a4a565b90612ebc565b6194ef565b6195a361959561958e6195876195796195a89689612ebc565b619581618b0a565b9061712e565b849061a020565b9786612ebc565b61959d618b0a565b9061712e565b61a020565b6194d4565b50505050505090910302600f1c90565b965050505050505090565b5050505050506195d6618ad3565b90565b156195e057565b5f637fbbcd6760e01b8152806195f860048201610181565b0390fd5b619604612b88565b5061960d6130aa565b5061963761961961a02d565b61963161962c6196276147c8565b6128ee565b617864565b9061716e565b61967261964a619645617263565b6128ee565b619652617209565b61966c619666619660614729565b926128ee565b916128ee565b91619380565b61967d81839061a040565b619be557619689617f86565b91825f14619ba7576196ca6196ac6196a76196a2617263565b6128ee565b616a4a565b6196c46196bf6196ba617290565b6128ee565b616a4a565b90612ebc565b5b926197056196e76196e26196dd617290565b6128ee565b6182cb565b6196ff6196fa6196f5617263565b6128ee565b6182cb565b9061a013565b94619718619711618b0a565b879061a020565b6197d1619747826197418961973b619736619731617290565b6128ee565b6182cb565b9061a020565b9061a17b565b845f14619b555761979b9061979561978e61977061976b619766617209565b6128ee565b616a4a565b61978861978361977e617290565b6128ee565b616a4a565b90612ebc565b8b9061a020565b9061a05f565b5b966197cb6197a98961a06c565b916197c46197bd6197b8617209565b6128ee565b8890617a4a565b889161a07e565b9061716e565b90835f14619b17576198126197f46197ef6197ea617209565b6128ee565b616a4a565b61980c619807619802614729565b6128ee565b616a4a565b90612ebc565b5b96879661981f89610a95565b61983961983361982e84610a95565b6101ba565b916101ba565b1315619aee575b50955b600115619ad85761985f619858828b9061a020565b889061a17b565b6198b26198aa61986e8361a06c565b6198a48761989e6198996198946198848a618455565b61988e602861704b565b9061548b565b610bf1565b610a95565b9061a2b3565b9061a0da565b91849061a05f565b80916198bc6127ea565b506198c5611393565b5005908a82020581603c1d01600160531b038181920105906198ef826198e96127ee565b90612ed6565b61991f575061991a9161990d619913926199076146c1565b92612ebc565b9061875d565b8890618783565b619843565b9193505061995e939794985061996395965061994f91506199486199425f6113c4565b916100f4565b14156195d9565b5b6199586146c1565b9061712e565b618783565b835f14619ab25761998b9061998661998161997c617209565b6128ee565b616a4a565b612ebc565b5b6199a661999f61999a618de3565b6128ee565b8290617f4e565b6199e16199b96199b4617263565b6128ee565b6199c1617209565b6199db6199d56199cf618de3565b926128ee565b916128ee565b91619380565b5b6199ed81849061a2e8565b15619a7f5750835f14619a6857619a0c90619a066146c1565b9061712e565b5b91619a20619a1b8515613054565b61a195565b6199ed619a5e619a36619a31617263565b6128ee565b619a3e617209565b619a58619a52619a4c618de3565b926128ee565b916128ee565b91619380565b90509290926199e2565b619a7a90619a746146c1565b90612ebc565b619a0d565b93505050619aac619a96619a91614729565b6128ee565b619aa6619aa1618de3565b6128ee565b906187ea565b60019190565b619ad390619ace619ac9619ac4617209565b6128ee565b616a4a565b61712e565b61998c565b91505061995e9195929650619963939450619950565b619b10919750619b0a619aff6146c1565b918a9089909161a0e7565b9061875d565b955f619840565b619b50619b32619b2d619b28614729565b6128ee565b616a4a565b619b4a619b45619b40617209565b6128ee565b616a4a565b90612ebc565b619813565b619ba290619b9c619b95619b77619b72619b6d617290565b6128ee565b616a4a565b619b8f619b8a619b85617209565b6128ee565b616a4a565b90612ebc565b8b9061a020565b9061a05f565b61979c565b619be0619bc2619bbd619bb8617290565b6128ee565b616a4a565b619bda619bd5619bd0617263565b6128ee565b616a4a565b90612ebc565b6196cb565b9190505f9190565b619bf5612b88565b501390565b90565b619c11619c0c619c1692619bfa565b610825565b61327d565b90565b90565b619c30619c2b619c3592619c19565b610825565b61327d565b90565b619cdc619c58619c53619cec93619c4d611393565b50610a95565b610c56565b619cb3619ca2619c8f619c7f619c6f85869061791f565b619c796025619bfd565b906132a3565b619c896003611859565b9061833e565b619c9c600160ff1b613339565b906113b6565b91619cad6092619c1c565b906132a3565b619cd6619cd0619cc4848490613b0d565b92600160fe1b946113b6565b926183c0565b906186d2565b619ce66002618439565b906132a3565b808002905f1990800903808002905f1990800903808002905f1990800903808002905f1990800903808002905f1990800903808002905f1990800903808002905f1990800903808002905f1990800903808002905f1990800903808002905f1990800903808002905f1990800903808002905f1990800903808002905f1990800903808002905f1990800903808002905f1990800903808002905f1990800903808002905f1990800903808002905f1990800903808002905f1990800903808002905f1990800903808002905f1990800903808002905f1990800903808002905f1990800903808002905f1990800903808002905f1990800903808002905f1990800903808002905f1990800903808002905f1990800903808002905f1990800903808002905f1990800903808002905f1990800903808002905f1990800903808002905f1990800903808002905f1990800903808002905f1990800903808002905f1990800903808002905f1990800903808002905f1990800903808002905f1990800903808002905f1990800903808002905f1990800903808002905f1990800903808002905f1990800903808002905f1990800903808002905f1990800903808002905f1990800903808002905f1990800903808002905f199080090390565b6018906020810393845195601e8301526003820152035252565b6002806040930391035e565b619efd613a9b565b50600160f01b81510180915260f01c90565b619f27619f21619f2d92959395610a95565b94610a95565b92610a95565b90565b619f9b9493619f419193929361a314565b919592959091925f14619f9d5790619f84619f7b619f6a619f8994619f6588616a4a565b612ebc565b94619f76875f90617a4a565b61a3c8565b94600190617a4a565b61a2b3565b909190915b90919293909192936170fb565b565b839192619fd8619fcf619fbe619fdd94619fb9619fe399616a4a565b61712e565b95619fca865f90617a4a565b61a2b3565b93600190617a4a565b61a3c8565b91619f0f565b91619f8e565b619ff1613a9b565b50600160f01b81510380915260f01c90565b61a00b613a9b565b505160f01c90565b61a01b6140ff565b500390565b61a028618acf565b500290565b61a0356130aa565b506101525160281c90565b61a05c9161a0569161a050612b88565b5061a2e8565b15613054565b90565b61a067618acf565b500190565b61a0746130aa565b506001608e1b0290565b90917fd49c04af80af1ea5f98f85886b450a4b264fc14874f9f64143836145a37dd8a19261a0aa6130aa565b507f0f1aaddd7742e56d32fb9f997447d9e6314db84884fabab26bf059af9bc20b61828183860909920202030290565b61a0e26130aa565b500190565b61a1399161a13e9361a12e61a12961a12361a11e61a11861a11361a1349861a10d6127ea565b50610a95565b610c56565b95610a95565b610c56565b92610a95565b610c56565b916186d2565b610bf1565b610a95565b90565b61a1739161a1789361a16661a16161a16e9461a15b6130aa565b50610a95565b610c56565b9190916186d2565b610bf1565b610a95565b90565b61a183618acf565b500390565b61a190612b88565b501290565b5f1461a2265761a22361a1ae61a1a9618de3565b6128ee565b61a1d761a1c961a1c461a1bf618de3565b6128ee565b616a4a565b61a1d16146c1565b90612ebc565b61a1f961a1f461a1ed61a1e8618de3565b6128ee565b5f90617a4a565b6178a4565b9061a21d61a21861a21061a20b618de3565b6128ee565b600190617a4a565b617ac1565b92619ecf565b5b565b61a2ae61a23961a234618de3565b6128ee565b61a26261a25461a24f61a24a618de3565b6128ee565b616a4a565b61a25c6146c1565b9061712e565b61a28461a27f61a27861a273618de3565b6128ee565b5f90617a4a565b617ac1565b9061a2a861a2a361a29b61a296618de3565b6128ee565b600190617a4a565b6178a4565b92619ecf565b61a224565b61a2bb6130aa565b505f1991600160281b915f1991600160d81b8183095f1903915f19915f81129003905f8112900309080990565b61a2f0612b88565b501390565b90565b61a30c61a30761a3119261a2f5565b610825565b6101ba565b90565b9061a31d6140ff565b61a3256127ea565b61a32d6130aa565b5061a3366130aa565b5061a3498361a3436113e0565b906149aa565b5f1461a392575050603e9061a35c611393565b5060061b03019061a36c826182cb565b9161a37681616a4a565b9161a38e61a385835f90617a4a565b92600190617a4a565b905b565b925092905061a39f6146ed565b9061a3c27801e355bbaee85cada65f73f32e88fb3cc629b709109f57564d61a2f8565b9061a390565b90632ec3a85664027d117d7b7f7f6af8233bada11dd406b4458454ed9904d7af796be7aa4885b23e25b6985d499361a3fe6130aa565b500291027fdbb82f7041b890fe67970a62a3568cc34df9dcb17cc3a2a6a027850e7e3724f9818309910203029056fea2646970667358221220b5cc76c02f485c6a203506c7daa324ac919711c53ea9273df53905b9a55fdb4e64736f6c63430008220033","linkReferences":{}},"methodIdentifiers":{"collectPool(uint256)":"fa824b76","collectProtocol(uint256)":"44ba759a","donate(uint256,uint256,bytes)":"62fc9e53","initialize(uint256,uint256,uint256,uint256,uint256[],uint256[],bytes)":"b094cfee","modifyKernel(uint256,uint256[],bytes)":"17f1b849","modifyPoolGrowthPortion(uint256,uint256)":"65e8dabc","modifyPoolOwner(uint256,address)":"0331321d","modifyPosition(uint256,int256,int256,int256,bytes)":"0e42e0c4","modifyProtocol(uint256)":"e2ea169d","modifySentinel(address)":"7e833aac","redeployStaticParamsAndKernel()":"14640252","updateGrowthPortions(uint256)":"4e038e6a"},"id":1}