{"abi":[{"type":"function","name":"_calculateGrowthPortion","inputs":[{"name":"protocolGrowthPortion","type":"uint256","internalType":"X47"},{"name":"poolGrowthPortion","type":"uint256","internalType":"X47"},{"name":"increment","type":"int256","internalType":"X127"},{"name":"currentAccrued","type":"int256","internalType":"X127"},{"name":"currentPoolRatio","type":"uint256","internalType":"X23"}],"outputs":[{"name":"updatedAccrued","type":"int256","internalType":"X127"},{"name":"updatedPoolRatio","type":"uint256","internalType":"X23"}],"stateMutability":"nonpayable"},{"type":"function","name":"_isGrowthPortion","inputs":[{"name":"protocolGrowthPortion","type":"uint256","internalType":"X47"},{"name":"poolGrowthPortion","type":"uint256","internalType":"X47"}],"outputs":[{"name":"result","type":"bool","internalType":"bool"}],"stateMutability":"nonpayable"},{"type":"error","name":"AccruedGrowthPortionOverflow","inputs":[{"name":"accruedValue","type":"int256","internalType":"X127"}]}],"bytecode":{"object":"0x608060405234601c57600e6020565b61059761002b823961059790f35b6026565b60405190565b5f80fdfe60806040526004361015610013575b610251565b61001d5f3561003c565b8063224939c7146100375763339a0fd40361000e57610217565b6100ca565b60e01c90565b60405190565b5f80fd5b5f80fd5b90565b61005c81610050565b0361006357565b5f80fd5b9050359061007482610053565b565b919060408382031261009e578061009261009b925f8601610067565b93602001610067565b90565b61004c565b151590565b6100b1906100a3565b9052565b91906100c8905f602085019401906100a8565b565b346100fb576100f76100e66100e0366004610076565b90610259565b6100ee610042565b918291826100b5565b0390f35b610048565b90565b61010c81610100565b0361011357565b5f80fd5b9050359061012482610103565b565b61012f81610050565b0361013657565b5f80fd5b9050359061014782610126565b565b919060a08382031261019a57610161815f8501610067565b9261016f8260208301610067565b926101976101808460408501610117565b9361018e8160608601610117565b9360800161013a565b90565b61004c565b90565b6101b66101b16101bb92610100565b61019f565b610100565b90565b6101c7906101a2565b9052565b6101df6101da6101e492610050565b61019f565b610050565b90565b6101f0906101cb565b9052565b91602061021592949361020e60408201965f8301906101be565b01906101e7565b565b3461024c5761023361022a366004610149565b93929092610287565b9061024861023f610042565b928392836101f4565b0390f35b610048565b5f80fd5b5f90565b9061026f61027492610269610255565b506102be565b6102d3565b61027c610313565b90565b5f90565b5f90565b6102b89492916102ab6102b09261029c61027f565b506102a5610283565b506102be565b6102d3565b9190916103f3565b91909190565b6006610800015160301c9060d01b1761080052565b60066107f4015160301c9060d01b176107f452565b90565b6102ff6102fa610304926102e8565b61019f565b610050565b90565b6103105f6102eb565b90565b61031b610255565b506103356103276104d6565b61032f610307565b906104e9565b801561033f575b90565b5061035961034b6104f6565b610353610307565b906104e9565b61033c565b9190610371905f602085019401906101be565b565b1561037b5750565b610396905f918291631718db0760e31b83526004830161035e565b0390fd5b90565b6103b16103ac6103b69261039a565b61019f565b610100565b90565b6103c860018060e71b0361039d565b90565b6103df6103da6103e4926102e8565b61019f565b610100565b90565b6103f05f6103cb565b90565b9290926103fe61027f565b50610407610283565b926104106104f6565b916104196104d6565b61042161027f565b50836001602f1b03025f19600160a21b5f196001605e1b8486095f19035f19858709080993602f1b015f1991600160a21b915f19916001605e1b8282095f1903915f1991090809850194859261048261047b858490610509565b8590610373565b61049e610497856104916103b9565b90610528565b8590610373565b6104b0846104aa6103e7565b90610547565b6104bb575b50505050565b90919293945060171b9102010490825f80806104b5565b5f90565b6104de6104d2565b506107f45160d01c90565b6104f1610255565b501190565b6104fe6104d2565b506108005160d01c90565b6105259161051f91610519610255565b50610554565b156100a3565b90565b6105449161053e91610538610255565b50610547565b156100a3565b90565b61054f610255565b501390565b61055c610255565b50129056fea264697066735822122025a1413ec83a2897c5387fe7f395c3afc8c275cc1eee2032ff7d41e7d965e2c164736f6c63430008220033","linkReferences":{}},"methodIdentifiers":{"_calculateGrowthPortion(uint256,uint256,int256,int256,uint256)":"339a0fd4","_isGrowthPortion(uint256,uint256)":"224939c7"},"id":15}