{"abi":[{"type":"function","name":"_calculateIntegrals","inputs":[{"name":"curveLength","type":"uint256","internalType":"Index"},{"name":"kernelArray","type":"uint256[]","internalType":"uint256[]"},{"name":"curveArray","type":"uint256[]","internalType":"uint256[]"}],"outputs":[{"name":"integral0","type":"int256","internalType":"X216"},{"name":"integral1","type":"int256","internalType":"X216"}],"stateMutability":"nonpayable"},{"type":"function","name":"_calculateMaxIntegrals","inputs":[{"name":"kernelArray","type":"uint256[]","internalType":"uint256[]"}],"outputs":[{"name":"outgoingMax","type":"int256","internalType":"X216"},{"name":"incomingMax","type":"int256","internalType":"X216"},{"name":"outgoingMaxModularInverse","type":"uint256","internalType":"uint256"}],"stateMutability":"nonpayable"},{"type":"function","name":"_clearInterval","inputs":[],"outputs":[{"name":"pre","type":"uint256","internalType":"uint256"},{"name":"post","type":"uint256","internalType":"uint256"}],"stateMutability":"nonpayable"},{"type":"function","name":"_getMismatch","inputs":[{"name":"zeroForOne","type":"bool","internalType":"bool"},{"name":"currentToOrigin","type":"int256","internalType":"X216"},{"name":"currentToOvershoot","type":"int256","internalType":"X216"},{"name":"currentToTarget","type":"int256","internalType":"X216"},{"name":"incomingCurrentToTarget","type":"int256","internalType":"X216"},{"name":"originToOvershoot","type":"int256","internalType":"X216"},{"name":"targetToOvershoot","type":"int256","internalType":"X216"},{"name":"integral0Incremented","type":"int256","internalType":"X216"},{"name":"integral1Incremented","type":"int256","internalType":"X216"},{"name":"target","type":"int256","internalType":"X59"},{"name":"overshoot","type":"int256","internalType":"X59"},{"name":"origin","type":"int256","internalType":"X59"}],"outputs":[{"name":"mismatch","type":"int256","internalType":"X216"}],"stateMutability":"nonpayable"},{"type":"function","name":"_getNewtonStep","inputs":[{"name":"zeroForOne","type":"bool","internalType":"bool"},{"name":"begin","type":"int256","internalType":"X59"},{"name":"origin","type":"int256","internalType":"X59"},{"name":"target","type":"int256","internalType":"X59"},{"name":"overshoot","type":"int256","internalType":"X59"},{"name":"integrals","type":"int256[8]","internalType":"X216[8]"},{"name":"input","type":"uint256[8]","internalType":"uint256[8]"}],"outputs":[{"name":"sign","type":"bool","internalType":"bool"},{"name":"step","type":"int256","internalType":"X59"},{"name":"integral0Amended","type":"int256","internalType":"X216"},{"name":"integral1Amended","type":"int256","internalType":"X216"}],"stateMutability":"nonpayable"},{"type":"function","name":"_initiateInterval","inputs":[{"name":"curve","type":"uint256","internalType":"Curve"},{"name":"curveLength","type":"uint256","internalType":"Index"},{"name":"qLimit","type":"int256","internalType":"X59"},{"name":"curveArray","type":"uint256[]","internalType":"uint256[]"}],"outputs":[{"name":"logPriceLimitOffsettedWithinInterval","type":"int256","internalType":"X59"},{"name":"indexCurve","type":"uint256","internalType":"Index"},{"name":"direction","type":"bool","internalType":"bool"}],"stateMutability":"nonpayable"},{"type":"function","name":"_moveBreakpointForward","inputs":[{"name":"forward1Content0","type":"uint256","internalType":"uint256"},{"name":"forward1Content1","type":"uint256","internalType":"uint256"},{"name":"targetContent0","type":"uint256","internalType":"uint256"},{"name":"targetContent1","type":"uint256","internalType":"uint256"},{"name":"memberContent0","type":"uint256","internalType":"uint256"},{"name":"memberContent1","type":"uint256","internalType":"uint256"},{"name":"indexKernelForward","type":"uint256","internalType":"Index"},{"name":"zeroForOne","type":"bool","internalType":"bool"}],"outputs":[{"name":"","type":"uint256","internalType":"uint256"},{"name":"","type":"uint256","internalType":"uint256"},{"name":"","type":"uint256","internalType":"uint256"},{"name":"","type":"uint256","internalType":"uint256"},{"name":"","type":"uint256","internalType":"Index"}],"stateMutability":"nonpayable"},{"type":"function","name":"_moveBreakpointTotal","inputs":[{"name":"total1Content0","type":"uint256","internalType":"uint256"},{"name":"total1Content1","type":"uint256","internalType":"uint256"},{"name":"originContent0","type":"uint256","internalType":"uint256"},{"name":"originContent1","type":"uint256","internalType":"uint256"},{"name":"memberContent0","type":"uint256","internalType":"uint256"},{"name":"memberContent1","type":"uint256","internalType":"uint256"},{"name":"indexKernelTotal","type":"uint256","internalType":"Index"},{"name":"direction","type":"bool","internalType":"bool"}],"outputs":[{"name":"","type":"uint256","internalType":"uint256"},{"name":"","type":"uint256","internalType":"uint256"},{"name":"","type":"uint256","internalType":"uint256"},{"name":"","type":"uint256","internalType":"uint256"},{"name":"","type":"uint256","internalType":"Index"}],"stateMutability":"nonpayable"},{"type":"function","name":"_moveOvershoot","inputs":[{"name":"direction","type":"bool","internalType":"bool"},{"name":"zeroForOne","type":"bool","internalType":"bool"},{"name":"originToOvershoot","type":"int256","internalType":"X216"},{"name":"input","type":"uint256[11]","internalType":"uint256[11]"}],"outputs":[{"name":"_direction","type":"bool","internalType":"bool"},{"name":"output","type":"uint256[16]","internalType":"uint256[16]"},{"name":"integrals","type":"int256[4]","internalType":"X216[4]"}],"stateMutability":"nonpayable"},{"type":"function","name":"_moveOvershootByEpsilon","inputs":[{"name":"overshoot","type":"int256","internalType":"X59"},{"name":"left","type":"bool","internalType":"bool"}],"outputs":[{"name":"overshootContent0","type":"uint256","internalType":"uint256"},{"name":"overshootContent1","type":"uint256","internalType":"uint256"}],"stateMutability":"nonpayable"},{"type":"function","name":"_movePhase","inputs":[{"name":"indexCurve","type":"uint256","internalType":"Index"},{"name":"indexKernelTotal","type":"uint256","internalType":"Index"},{"name":"direction","type":"bool","internalType":"bool"},{"name":"curveMember","type":"int256","internalType":"X59"},{"name":"input","type":"uint256[8]","internalType":"uint256[8]"}],"outputs":[{"name":"_indexCurve","type":"uint256","internalType":"Index"},{"name":"_direction","type":"bool","internalType":"bool"},{"name":"output","type":"uint256[10]","internalType":"uint256[10]"}],"stateMutability":"nonpayable"},{"type":"function","name":"_moveTarget","inputs":[{"name":"direction","type":"bool","internalType":"bool"},{"name":"zeroForOne","type":"bool","internalType":"bool"},{"name":"qLimit","type":"int256","internalType":"X59"},{"name":"originToOvershoot","type":"int256","internalType":"X216"},{"name":"input","type":"uint256[7]","internalType":"uint256[7]"}],"outputs":[{"name":"_direction","type":"bool","internalType":"bool"},{"name":"output","type":"uint256[12]","internalType":"uint256[12]"},{"name":"integrals","type":"int256[4]","internalType":"X216[4]"}],"stateMutability":"nonpayable"},{"type":"function","name":"_movements","inputs":[{"name":"integral0","type":"int256","internalType":"X216"},{"name":"integral1","type":"int256","internalType":"X216"},{"name":"qLimit","type":"int256","internalType":"X59"},{"name":"curveLength","type":"uint256","internalType":"Index"},{"name":"kernelArray","type":"uint256[]","internalType":"uint256[]"},{"name":"curveArray","type":"uint256[]","internalType":"uint256[]"}],"outputs":[],"stateMutability":"nonpayable"},{"type":"function","name":"_newIntegrals","inputs":[{"name":"zeroForOne","type":"bool","internalType":"bool"},{"name":"begin","type":"int256","internalType":"X59"},{"name":"origin","type":"int256","internalType":"X59"},{"name":"target","type":"int256","internalType":"X59"},{"name":"overshoot","type":"int256","internalType":"X59"},{"name":"integrals","type":"int256[8]","internalType":"X216[8]"},{"name":"input","type":"uint256[8]","internalType":"uint256[8]"}],"outputs":[{"name":"integral0Amended","type":"int256","internalType":"X216"},{"name":"integral1Amended","type":"int256","internalType":"X216"}],"stateMutability":"nonpayable"},{"type":"function","name":"_searchIncomingTarget","inputs":[{"name":"integralLimit","type":"int256","internalType":"X216"},{"name":"incomingCurrentToTarget","type":"int256","internalType":"X216"},{"name":"zeroForOne","type":"bool","internalType":"bool"},{"name":"input","type":"uint256[8]","internalType":"uint256[8]"}],"outputs":[{"name":"exactAmount","type":"bool","internalType":"bool"},{"name":"incoming","type":"int256","internalType":"X216"},{"name":"output","type":"uint256[4]","internalType":"uint256[4]"}],"stateMutability":"nonpayable"},{"type":"function","name":"_searchOutgoingTarget","inputs":[{"name":"integralLimit","type":"int256","internalType":"X216"},{"name":"currentToTarget","type":"int256","internalType":"X216"},{"name":"zeroForOne","type":"bool","internalType":"bool"},{"name":"input","type":"uint256[8]","internalType":"uint256[8]"}],"outputs":[{"name":"exactAmount","type":"bool","internalType":"bool"},{"name":"outgoing","type":"int256","internalType":"X216"},{"name":"output","type":"uint256[4]","internalType":"uint256[4]"}],"stateMutability":"nonpayable"},{"type":"function","name":"_searchOvershoot","inputs":[{"name":"integral0","type":"int256","internalType":"X216"},{"name":"integral1","type":"int256","internalType":"X216"},{"name":"qLimit","type":"int256","internalType":"X59"},{"name":"curveLength","type":"uint256","internalType":"Index"},{"name":"kernelArray","type":"uint256[]","internalType":"uint256[]"},{"name":"curveArray","type":"uint256[]","internalType":"uint256[]"}],"outputs":[{"name":"overshoot","type":"int256","internalType":"X59"},{"name":"integral0Amended","type":"int256","internalType":"X216"},{"name":"integral1Amended","type":"int256","internalType":"X216"}],"stateMutability":"nonpayable"},{"type":"error","name":"SearchingForIncomingTargetFailed","inputs":[]},{"type":"error","name":"SearchingForOutgoingTargetFailed","inputs":[]},{"type":"error","name":"SearchingForOvershootFailed","inputs":[]}],"bytecode":{"object":"0x608060405234601c57600e6020565b61927861002b823961927890f35b6026565b60405190565b5f80fdfe60806040526004361015610013575b61106e565b61001d5f3561012c565b806315f1b191146101275780632697a0d4146101225780635369943f1461011d57806358593d0d14610118578063587fe69a146101135780637d7bc0121461010e578063a7a01b5314610109578063ac11f23e14610104578063ac2d6d9d146100ff578063aecb7265146100fa578063b2907eb1146100f5578063be95da21146100f0578063c1d899a7146100eb578063c28b759d146100e6578063d1752509146100e1578063eaf17e87146100dc5763efb1d9e30361000e57611037565b610fc7565b610f84565b610e4e565b610d40565b610c04565b610bc2565b610b54565b610a65565b610997565b610889565b61084d565b610705565b610697565b61056d565b610454565b61034f565b60e01c90565b60405190565b5f80fd5b5f80fd5b5f80fd5b151590565b61015281610144565b0361015957565b5f80fd5b9050359061016a82610149565b565b90565b6101788161016c565b0361017f57565b5f80fd5b905035906101908261016f565b565b5f80fd5b91906020600b028301116101a657565b610192565b6101c0818303126101ed576101c2825f830161015d565b926101ea6101d3846020850161015d565b936101e18160408601610183565b93606001610196565b90565b61013c565b6101fb90610144565b9052565b50601090565b905090565b90565b90565b6102199061020d565b9052565b9061022a81602093610210565b0190565b60200190565b61025061024a610243836101ff565b8094610205565b9161020a565b5f915b8383106102605750505050565b610276610270600192845161021d565b9261022e565b92019190610253565b50600490565b905090565b90565b90565b6102a461029f6102a99261016c565b61028d565b61016c565b90565b6102b590610290565b9052565b906102c6816020936102ac565b0190565b60200190565b6102ec6102e66102df8361027f565b8094610285565b9161028a565b5f915b8383106102fc5750505050565b61031261030c60019284516102b9565b926102ca565b920191906102ef565b6102209061034661034d949695939661033c6102a08401985f8501906101f2565b6020830190610234565b01906102d0565b565b346103865761038261036e6103653660046101ab565b929190916116f6565b610379939193610132565b9384938461031b565b0390f35b610138565b5f80fd5b5f80fd5b909182601f830112156103cd5781359167ffffffffffffffff83116103c85760200192602083028401116103c357565b610192565b61038f565b61038b565b90602082820312610403575f82013567ffffffffffffffff81116103fe576103fa9201610393565b9091565b610140565b61013c565b61041190610290565b9052565b61041e9061020d565b9052565b60409061044b610452949695939661044160608401985f850190610408565b6020830190610408565b0190610415565b565b346104885761048461047061046a3660046103d2565b90612540565b61047b939193610132565b93849384610422565b0390f35b610138565b6104968161016c565b0361049d57565b5f80fd5b905035906104ae8261048d565b565b6104b98161020d565b036104c057565b5f80fd5b905035906104d1826104b0565b565b60c081830312610563576104e9825f8301610183565b926104f78360208401610183565b9261050581604085016104a1565b9261051382606083016104c4565b92608082013567ffffffffffffffff811161055e5783610534918401610393565b92909360a082013567ffffffffffffffff8111610559576105559201610393565b9091565b610140565b610140565b61013c565b5f0190565b346105a55761058f6105803660046104d3565b969590959491949392936126ef565b610597610132565b806105a181610568565b0390f35b610138565b919060206008028301116105ba57565b610192565b61016081830312610601576105d6825f8301610183565b926105fe6105e78460208501610183565b936105f5816040860161015d565b936060016105aa565b90565b61013c565b50600490565b905090565b90565b60200190565b61063661063061062983610606565b809461060c565b91610611565b5f915b8383106106465750505050565b61065c610656600192845161021d565b92610614565b92019190610639565b60409061068e610695949695939661068460c08401985f8501906101f2565b6020830190610408565b019061061a565b565b346106ce576106ca6106b66106ad3660046105bf565b92919091612b87565b6106c1939193610132565b93849384610665565b0390f35b610138565b5f9103126106dd57565b61013c565b9160206107039294936106fc60408201965f830190610415565b0190610415565b565b34610736576107153660046106d3565b61071d612e74565b90610732610729610132565b928392836106e2565b0390f35b610138565b91906101808382031261078d57610754815f85016104c4565b9261076282602083016104c4565b9261078a610773846040850161015d565b9361078181606086016104a1565b936080016105aa565b90565b61013c565b6107a66107a16107ab9261020d565b61028d565b61020d565b90565b6107b790610792565b9052565b50600a90565b905090565b90565b60200190565b6107eb6107e56107de836107bb565b80946107c1565b916107c6565b5f915b8383106107fb5750505050565b61081161080b600192845161021d565b926107c9565b920191906107ee565b60409061084461084b949695939661083a6101808401985f8501906107ae565b60208301906101f2565b01906107cf565b565b346108845761088061086c61086336600461073b565b93929092612ff9565b610877939193610132565b9384938461081a565b0390f35b610138565b346108c0576108bc6108a861089f3660046105bf565b9291909161338d565b6108b3939193610132565b93849384610665565b0390f35b610138565b919060206008028301116108d557565b610192565b6102a081830312610947576108f1825f830161015d565b926108ff83602084016104a1565b9261090d81604085016104a1565b9261091b82606083016104a1565b9261094461092c84608085016104a1565b9361093a8160a086016108c5565b936101a0016105aa565b90565b61013c565b61095590610290565b9052565b61098e6109959461098460609498979561097a608086019a5f8701906101f2565b602085019061094c565b6040830190610408565b0190610408565b565b346109d2576109ce6109b96109ad3660046108da565b959490949391936135d9565b906109c5949294610132565b94859485610959565b0390f35b610138565b606081830312610a3d576109ed825f83016104c4565b92602082013567ffffffffffffffff8111610a385783610a0e918401610393565b929093604082013567ffffffffffffffff8111610a3357610a2f9201610393565b9091565b610140565b610140565b61013c565b916020610a63929493610a5c60408201965f830190610408565b0190610408565b565b34610a9a57610a81610a783660046109d7565b9392909261390e565b90610a96610a8d610132565b92839283610a42565b0390f35b610138565b610aa88161020d565b03610aaf57565b5f80fd5b90503590610ac082610a9f565b565b90608082820312610b1d57610ad9815f8401610ab3565b92610ae782602085016104c4565b92610af583604083016104a1565b92606082013567ffffffffffffffff8111610b1857610b149201610393565b9091565b610140565b61013c565b604090610b4b610b529496959396610b4160608401985f85019061094c565b60208301906107ae565b01906101f2565b565b34610b8b57610b87610b73610b6a366004610ac2565b93929092613a07565b610b7e939193610132565b93849384610b22565b0390f35b610138565b604090610bb9610bc09496959396610baf60608401985f85019061094c565b6020830190610408565b0190610408565b565b34610bff57610bfb610be7610bd83660046104d3565b96959095949194939293613ce0565b610bf2939193610132565b93849384610b90565b0390f35b610138565b34610c3c57610c23610c173660046108da565b95949094939193613fb7565b90610c38610c2f610132565b92839283610a42565b0390f35b610138565b91906020600702830111610c5157565b610192565b919061016083820312610ca857610c6f815f850161015d565b92610c7d826020830161015d565b92610ca5610c8e84604085016104a1565b93610c9c8160608601610183565b93608001610c41565b90565b61013c565b50600c90565b905090565b90565b60200190565b610cdd610cd7610cd083610cad565b8094610cb3565b91610cb8565b5f915b838310610ced5750505050565b610d03610cfd600192845161021d565b92610cbb565b92019190610ce0565b6101a090610d37610d3e9496959396610d2d6102208401985f8501906101f2565b6020830190610cc1565b01906102d0565b565b34610d7757610d73610d5f610d56366004610c56565b93929092614364565b610d6a939193610132565b93849384610d0c565b0390f35b610138565b909161018082840312610e3457610d95835f840161015d565b92610da38160208501610183565b92610db18260408301610183565b92610dbf8360608401610183565b92610dcd8160808501610183565b92610ddb8260a08301610183565b92610de98360c08401610183565b92610df78160e08501610183565b92610e06826101008301610183565b92610e31610e188461012085016104a1565b93610e278161014086016104a1565b93610160016104a1565b90565b61013c565b9190610e4c905f60208501940190610408565b565b34610e8e57610e8a610e79610e64366004610d7c565b9a999099989198979297969396959495614c83565b610e81610132565b91829182610e39565b0390f35b610138565b610e9c8161020d565b03610ea357565b5f80fd5b90503590610eb482610e93565b565b919061010083820312610f3257610ecf815f8501610ea7565b92610edd8260208301610ea7565b92610eeb8360408401610ea7565b92610ef98160608501610ea7565b92610f078260808301610ea7565b92610f2f610f188460a08501610ea7565b93610f268160c086016104c4565b9360e00161015d565b90565b61013c565b90959492610f8294610f71610f7b92610f67608096610f5d60a088019c5f890190610415565b6020870190610415565b6040850190610415565b6060830190610415565b01906107ae565b565b34610fc257610fbe610fa9610f9a366004610eb6565b96959095949194939293614db0565b91610fb5959395610132565b95869586610f37565b0390f35b610138565b3461100557611001610fec610fdd366004610eb6565b96959095949194939293614ec7565b91610ff8959395610132565b95869586610f37565b0390f35b610138565b9190604083820312611032578061102661102f925f86016104a1565b9360200161015d565b90565b61013c565b346110695761105061104a36600461100a565b90614fb1565b9061106561105c610132565b928392836106e2565b0390f35b610138565b5f80fd5b5f90565b601f801991011690565b634e487b7160e01b5f52604160045260245ffd5b9061109e90611076565b810190811067ffffffffffffffff8211176110b857604052565b611080565b906110d06110c9610132565b9283611094565b565b67ffffffffffffffff81116110e75760200290565b611080565b6110f86110fd916110d2565b6110bd565b90565b369037565b90611123611112836110ec565b9261111d84916110d2565b90611100565b565b61112f6010611105565b90565b67ffffffffffffffff81116111475760200290565b611080565b61115861115d91611132565b6110bd565b90565b369037565b906111836111728361114c565b9261117d8491611132565b90611160565b565b61118f6004611165565b90565b90565b61ffff1690565b6111b06111ab6111b592611192565b61028d565b611195565b90565b6111c361058e61119c565b90565b6111da6111d56111df92611195565b61028d565b61020d565b90565b5f90565b5f90565b5f90565b634e487b7160e01b5f52603260045260245ffd5b90600b811015611213576020020190565b6111ee565b90565b61122f61122a61123492611218565b61028d565b61020d565b90565b3561124181610e93565b90565b90565b61125b61125661126092611244565b61028d565b61020d565b90565b90565b61127a61127561127f92611263565b61028d565b61020d565b90565b90565b61129961129461129e92611282565b61028d565b61020d565b90565b90565b6112b86112b36112bd926112a1565b61028d565b61020d565b90565b90565b6112d76112d26112dc926112c0565b61028d565b61020d565b90565b90565b6112f66112f16112fb926112df565b61028d565b61020d565b90565b90565b61131561131061131a926112fe565b61028d565b61020d565b90565b90565b61133461132f6113399261131d565b61028d565b61020d565b90565b90565b61135361134e6113589261133c565b61028d565b61020d565b90565b90565b61137261136d6113779261135b565b61028d565b61020d565b90565b90565b61139161138c6113969261137a565b61028d565b611195565b90565b6113a461038b61137d565b90565b90565b6113be6113b96113c3926113a7565b61028d565b611195565b90565b6113d16104c96113aa565b90565b6113e86113e36113ed92611244565b61028d565b61016c565b90565b6113fa60016113d4565b90565b6114076002611266565b90565b90565b61142161141c6114269261140a565b61028d565b611195565b90565b61143461030f61140d565b90565b90565b61144e61144961145392611437565b61028d565b611195565b90565b61146161040961143a565b90565b90565b61147b61147661148092611464565b61028d565b611195565b90565b61148e610489611467565b90565b90565b6114a86114a36114ad92611491565b61028d565b611195565b90565b6114bb6102d1611494565b90565b6114c86001611247565b90565b90565b6114e26114dd6114e7926114cb565b61028d565b611195565b90565b6114f561034d6114ce565b90565b90565b61150f61150a611514926114f8565b61028d565b611195565b90565b6115226103c96114fb565b90565b90565b61153c61153761154192611525565b61028d565b611195565b90565b61154f610449611528565b90565b5f90565b61156a61156561156f92611218565b61028d565b61016c565b90565b61157b5f611556565b90565b90611588826101ff565b811015611596576020020190565b6111ee565b906115a59061020d565b9052565b90565b6115c06115bb6115c5926115a9565b61028d565b61020d565b90565b90565b6115df6115da6115e4926115c8565b61028d565b61020d565b90565b90565b6115fe6115f9611603926115e7565b61028d565b61020d565b90565b90565b61161d61161861162292611606565b61028d565b61020d565b90565b90565b61163c61163761164192611625565b61028d565b61020d565b90565b90565b61165b61165661166092611644565b61028d565b611195565b90565b61166e610558611647565b90565b9061167b8261027f565b811015611689576020020190565b6111ee565b906116989061016c565b9052565b90565b6116b36116ae6116b89261169c565b61028d565b611195565b90565b6116c661057361169f565b90565b90565b6116e06116db6116e5926116c9565b61028d565b611195565b90565b6116f361053d6116cc565b90565b9192611740611e479294611708611072565b5061172b611714611125565b96611726611720611185565b97614ff7565b615000565b61173b6117366111b8565b6111c6565b615009565b6117486111e2565b50611754610808615019565b61175c6111e6565b506117656111e6565b5061176e6111ea565b50611cb7610140610808016117828161501f565b61179d611798846117925f61121b565b90611202565b611237565b8152602281019260a060408501920160405260016002610289015160101c9060f01b176102895260046002610287015160101c9060f01b176102875260016002610285015160101c9060f01b176102855261180a611805826117ff6001611247565b90611202565b611237565b6118266118218361181b6002611266565b90611202565b611237565b9060026104890352601e610489015261185161184c826118466001611247565b90611202565b611237565b61186d611868836118626002611266565b90611202565b611237565b9060026104c90352601e6104c901526118986118938261188d6003611285565b90611202565b611237565b6118b46118af836118a960046112a4565b90611202565b611237565b906002840352601e8301526118db6118d6826118d060056112c3565b90611202565b611237565b6118f76118f2836118ec60066112e2565b90611202565b611237565b9060026104090352601e610409015261192261191d826119176007611301565b90611202565b611237565b61193e611939836119336008611320565b90611202565b611237565b9060026104490352601e610449015261198561198061196f61196a84611964600961133f565b90611202565b611237565b9261197a600a61135e565b90611202565b611237565b906002850352601e840152611b0861199b615025565b6119a3615035565b5f146124c4576119eb6119bc6119b7611399565b6111c6565b6119e56119d76119d26119cd6113c6565b6111c6565b615048565b6119df6113f0565b9061507f565b90615065565b5b611aa4611a1282611a0c6119fe61508c565b611a066113fd565b9061509f565b906150ac565b611a22611a1d611429565b6111c6565b90611a2b6150c1565b611a44611a3e611a39615035565b610144565b91610144565b145f1461246657611a536150c1565b5f1461241e57611a7e611a9c91611a78611a73611a6e611456565b6111c6565b615048565b906150fa565b611a96611a91611a8c611483565b6111c6565b615048565b906150fa565b5b905b615065565b611ae0611ab7611ab26114b0565b6111c6565b611ada83611ad4611ac661508c565b611ace6114be565b9061509f565b906150ac565b90615065565b611b02611af3611aee6114ea565b6111c6565b91611afc61508c565b906150ac565b90615065565b611bb3611b1b611b16611517565b6111c6565b611b236150c1565b611b3c611b36611b31615035565b610144565b91610144565b145f1461239257611b4b6150c1565b5f1461233357611bab611b8d611b6f611b6a611b656114ea565b6111c6565b615048565b611b87611b82611b7d611544565b6111c6565b615048565b906150d4565b611ba5611ba0611b9b6113c6565b6111c6565b615048565b906150d4565b5b905b615065565b611bbb615035565b5f146122f257611c3e611bfd611bdf611bda611bd5611399565b6111c6565b615048565b611bf7611bf2611bed6113c6565b6111c6565b615048565b90615058565b5b611c07816151cb565b906002611c1261525f565b611c1a611552565b500192611c35611c30611c2b6113c6565b6111c6565b615273565b90919293615287565b611c46615035565b5f146122bb57611c7e611c67611c62611c5d611399565b6111c6565b615048565b611c78611c73846111c6565b615048565b90615058565b5b611c88816151cb565b91611cae611ca96042611c9961525f565b611ca1611552565b5001956111c6565b615273565b90919293615287565b611cbf6150c1565b5f1461227a57611d42611d01611ce3611cde611cd96114b0565b6111c6565b615048565b611cfb611cf6611cf1611456565b6111c6565b615048565b90615058565b5b611d0b816151cb565b906082611d1661525f565b611d1e611552565b500192611d39611d34611d2f611456565b6111c6565b615273565b90919293615287565b611d4a6150c1565b5f1461223957611dcd611d8c611d6e611d69611d646114b0565b6111c6565b615048565b611d86611d81611d7c611544565b6111c6565b615048565b90615058565b5b611d96816151cb565b9060c2611da161525f565b611da9611552565b500192611dc4611dbf611dba611544565b6111c6565b615273565b90919293615287565b611dd56150c1565b5f1461220257611e0d611df6611df1611dec6114b0565b6111c6565b615048565b611e07611e02846111c6565b615048565b90615058565b5b611e17816151cb565b91611e3e611e39610102611e2961525f565b611e31611552565b5001956111c6565b615273565b90919293615287565b611e60611e52611572565b611e5a611572565b906152a7565b50611e696150c1565b92611e72611552565b50611e7b611552565b50611ec260026104890351611ea9601e610489015191611ea487611e9e5f61121b565b9061157e565b61159b565b611ebd85611eb76001611247565b9061157e565b61159b565b611eca611552565b50611ed3611552565b50611f1b60026104c90351611f02601e6104c9015191611efd87611ef76002611266565b9061157e565b61159b565b611f1685611f106003611285565b9061157e565b61159b565b611f23611552565b50611f2c611552565b50611f7460026104090351611f5b601e610409015191611f5687611f5060046112a4565b9061157e565b61159b565b611f6f85611f6960056112c3565b9061157e565b61159b565b611f7c611552565b50611f85611552565b50611fcd60026104490351611fb4601e610449015191611faf87611fa960066112e2565b9061157e565b61159b565b611fc885611fc26007611301565b9061157e565b61159b565b611fd5611552565b50611fde611552565b50612026600261030f035161200d601e61030f015191612008876120026008611320565b9061157e565b61159b565b6120218561201b600961133f565b9061157e565b61159b565b61202e611552565b50612037611552565b5061207f600261034d0351612066601e61034d0151916120618761205b600a61135e565b9061157e565b61159b565b61207a85612074600b6115ac565b9061157e565b61159b565b612087611552565b50612090611552565b506120d860026102d103516120bf601e6102d10151916120ba876120b4600c6115cb565b9061157e565b61159b565b6120d3856120cd600d6115ea565b9061157e565b61159b565b6120e0611552565b506120e9611552565b5061213160026103c90351612118601e6103c90151916121138761210d600e611609565b9061157e565b61159b565b61212c85612126600f611628565b9061157e565b61159b565b61216461214c612147612142611663565b6111c6565b615812565b61215f846121595f61121b565b90611671565b61168e565b61219861217f61217a6121756116bb565b6111c6565b615812565b6121938461218d6001611247565b90611671565b61168e565b6121cc6121b36121ae6121a96111b8565b6111c6565b615812565b6121c7846121c16002611266565b90611671565b61168e565b6122006121e76121e26121dd6116e8565b6111c6565b615812565b6121fb846121f56003611285565b90611671565b61168e565b565b612234612216612211836111c6565b615048565b61222e6122296122246114b0565b6111c6565b615048565b90615058565b611e0e565b611dcd61227561225761225261224d611544565b6111c6565b615048565b61226f61226a6122656114b0565b6111c6565b615048565b90615058565b611d8d565b611d426122b661229861229361228e611456565b6111c6565b615048565b6122b06122ab6122a66114b0565b6111c6565b615048565b90615058565b611d02565b6122ed6122cf6122ca836111c6565b615048565b6122e76122e26122dd611399565b6111c6565b615048565b90615058565b611c7f565b611c3e61232e61231061230b6123066113c6565b6111c6565b615048565b61232861232361231e611399565b6111c6565b615048565b90615058565b611bfe565b61238d61236f61235161234c6123476114ea565b6111c6565b615048565b61236961236461235f611544565b6111c6565b615048565b906150fa565b61238761238261237d6113c6565b6111c6565b615048565b906150fa565b611bac565b61239a6150c1565b5f146123e0576123d96123bb6123b66123b16114ea565b6111c6565b615048565b6123d36123ce6123c9611544565b6111c6565b615048565b906150d4565b5b90611bae565b6124196123fb6123f66123f16114ea565b6111c6565b615048565b61241361240e612409611544565b6111c6565b615048565b906150fa565b6123da565b6124436124619161243d612438612433611456565b6111c6565b615048565b906150d4565b61245b612456612451611483565b6111c6565b615048565b906150d4565b611a9d565b61246e6150c1565b5f1461249d576124969061249061248b612486611456565b6111c6565b615048565b906150fa565b5b90611a9f565b6124bf906124b96124b46124af611456565b6111c6565b615048565b906150d4565b612497565b6125066124d76124d2611399565b6111c6565b6125006124f26124ed6124e86113c6565b6111c6565b615048565b6124fa6113f0565b90615058565b90615065565b6119ec565b5f90565b5f90565b90565b61252a61252561252f92612513565b61028d565b611195565b90565b61253d610760612516565b90565b505061254a61250b565b5061255361250b565b5061255c611552565b506125656111e2565b5061256e61250f565b506125e66125c86108086125c2600160026004358060040135908160051b9060240186370401916001830160400281016040526125aa81615019565b6125b383615822565b916125bc6114be565b90615837565b90615863565b91909250916125dd6125d8612532565b6111c6565b92909192615917565b6125ee615976565b5f6102846105a903610284a1612602615b08565b61260a615b1b565b91612613615b2e565b91929190565b90565b61263061262b61263592612619565b61028d565b61016c565b90565b612645600160d81b61261c565b90565b61265260016113d4565b90565b90565b61266c61266761267192612655565b61028d565b611195565b90565b61267f610522612658565b90565b61268b5f61121b565b90565b90565b6126a56126a06126aa9261268e565b61028d565b611195565b90565b6126b8610507612691565b90565b6126ca6126d091939293610290565b92610290565b90565b6126e76126e26126ec92611263565b61028d565b611195565b90565b61270b919297506127a1965061279c9550612710939450615b3e565b615b53565b6127186111e2565b506127216111ea565b5061272a61250f565b5061279661080861277e6084356127706001600283600401358060051b8095602401883704019184019360a435806004013560051b809160240187378501604052615019565b6127798361501f565b615822565b61278783615b68565b916127906114be565b90615837565b906150ac565b615b7d565b6127aa81615b92565b6127c46127bf826127b9615ba7565b90615bba565b615000565b6127e56127e06127d2612638565b6127da612648565b90615bd9565b615be6565b6127ed615bfb565b5b6128106128096128046127ff611399565b6111c6565b615048565b8290615d9c565b156128315761281090612821615dbb565b505f8080600a8180a490506127ee565b5061285b612845612840611517565b6111c6565b612855612850611399565b6111c6565b906161b3565b61288461286e6128696113c6565b6111c6565b61287e612879611399565b6111c6565b906161b3565b6128b5612897612892611663565b6111c6565b6128af6128aa6128a5612674565b6111c6565b615812565b90615009565b6128ef6128d06128cb6128c6611399565b6111c6565b615048565b6128e96128db615025565b6128e3612682565b906150ac565b90615d9c565b80612ab9575b6128fc575b565b5b61293761291861291361290e611517565b6111c6565b615048565b612931612923615025565b61292b612682565b906150ac565b90615d9c565b15612ab457612955612947611572565b61294f611572565b906152a7565b5061295e615035565b5f14612a535761298d61297f61297a6129756126ad565b6111c6565b615812565b6129876161ba565b906161e0565b6129b66129986161cd565b6129b06129ab6129a6612674565b6111c6565b615812565b90615bd9565b905b612a46612a4b6129c860026126d3565b936129eb6129d5866111c6565b6129e56129e0611429565b6111c6565b906161b3565b612a146129fe6129f9611429565b6111c6565b612a0e612a09611517565b6111c6565b906161b3565b612a1f84829061623d565b9692509490949596612a40612a3a612a35611429565b6111c6565b916111c6565b906161b3565b6166ce565b5f80a46128fd565b612aae612a7f612a616161ba565b612a79612a74612a6f612674565b6111c6565b615812565b90615bd9565b612aa8612a9a612a95612a906126ad565b6111c6565b615812565b612aa26161cd565b906161e0565b906126bb565b906129b8565b6128fa565b50612af4612ad5612ad0612acb611399565b6111c6565b615048565b612aee612ae0615025565b612ae86114be565b906150ac565b90615d9c565b6128f5565b67ffffffffffffffff8111612b0e5760200290565b611080565b612b1f612b2491612af9565b6110bd565b90565b90612b45612b3483612b13565b92612b3f8491612af9565b90611100565b565b612b516004612b27565b90565b906008811015612b65576020020190565b6111ee565b90612b7482610606565b811015612b82576020020190565b6111ee565b9291612bc8612bcd92612b98611072565b50612ba161250b565b50612bb3612bad612b47565b96615be6565b612bc3612bbe612674565b6111c6565b615009565b615000565b612be8612be382612bdd5f61121b565b90612b54565b611237565b612c04612bff83612bf96001611247565b90612b54565b611237565b905f52601e600261030f5e601e61030f0152612c32612c2d82612c276002611266565b90612b54565b611237565b612c4e612c4983612c436003611285565b90612b54565b611237565b905f52601e600261038b5e601e61038b0152612c7c612c7782612c7160046112a4565b90612b54565b611237565b612c98612c9383612c8d60056112c3565b90612b54565b611237565b9060026104090352601e6104090152612cdf612cda612cc9612cc484612cbe60066112e2565b90612b54565b611237565b92612cd46007611301565b90612b54565b611237565b9060026104490352601e6104490152612cf66168ce565b919092612d01611552565b50612d0a611552565b50612d5160026103c90351612d38601e6103c9015191612d3386612d2d5f61121b565b90612b6a565b61159b565b612d4c84612d466001611247565b90612b6a565b61159b565b612d59611552565b50612d62611552565b50612daa600261038b0351612d91601e61038b015191612d8c86612d866002611266565b90612b6a565b61159b565b612da584612d9f6003611285565b90612b6a565b61159b565b565b90565b612dc3612dbe612dc892612dac565b61028d565b611195565b90565b612dd6610284612daf565b90565b90565b612df0612deb612df592612dd9565b61028d565b611195565b90565b634e487b7160e01b5f52601160045260245ffd5b612e18612e1e91611195565b91611195565b019061ffff8211612e2b57565b612df8565b90565b612e47612e42612e4c92612e30565b61028d565b61020d565b90565b612e5e612e649193929361020d565b9261020d565b8201809211612e6f57565b612df8565b612e7c611552565b50612e85611552565b50612e96612e91612dcb565b6111c6565b5b600115612f21575f19815280612ecf612ec9612ec4612eb46111b8565b612ebe601b612ddc565b90612e0c565b6111c6565b9161020d565b11612eed57612ee890612ee26020612e33565b90612e4f565b612e97565b505b5f19602061028403525f196105a952612f06616e5d565b5f6102846105a903610284a160206102840351906105a95190565b50612eef565b67ffffffffffffffff8111612f3c5760200290565b611080565b612f4d612f5291612f27565b6110bd565b90565b90612f73612f6283612f41565b92612f6d8491612f27565b90611100565b565b612f7f600a612f55565b90565b90565b612f99612f94612f9e92612f82565b61028d565b611195565b90565b612fac610808612f85565b90565b90565b612fc6612fc1612fcb92612faf565b61028d565b611195565b90565b612fd9610285612fb2565b90565b90612fe6826107bb565b811015612ff4576020020190565b6111ee565b6131ad9394601e9161300961250f565b50613012611072565b506008601861301f612f75565b98600161303261302d612fa1565b6111c6565b9461303c86615019565b6130446111ea565b50886040028601926130558461501f565b6002610285015160101c8260f01b17610285526002610287015160101c8a60f01b17610287526130966130918961308b5f61121b565b90612b54565b611237565b6130b16130ac8a6130a687611247565b90612b54565b611237565b905f528960026102d15e896102d101526130dd6130d8896130d26002611266565b90612b54565b611237565b6130f96130f48a6130ee6003611285565b90612b54565b611237565b905f5289600261034d5e8961034d01525f52038302015e61312c6131278361312160046112a4565b90612b54565b611237565b836131496131448561313e60056112c3565b90612b54565b611237565b91600280880360061b01840190600282035201526002600161319961319461318361317e8761317860066112e2565b90612b54565b611237565b9561318e6007611301565b90612b54565b611237565b950360061b01019060028203520152614ff7565b6131b5616e73565b906131ce6131c96131c4612fce565b6111c6565b616fbe565b926131d7611552565b506131e0611552565b50613227600261030f035161320e601e61030f015191613209866132035f61121b565b90612fdc565b61159b565b6132228461321c6001611247565b90612fdc565b61159b565b61322f611552565b50613238611552565b5061328060026102d10351613267601e6102d10151916132628661325c6002611266565b90612fdc565b61159b565b61327b846132756003611285565b90612fdc565b61159b565b613288611552565b50613291611552565b506132d9600261034d03516132c0601e61034d0151916132bb866132b560046112a4565b90612fdc565b61159b565b6132d4846132ce60056112c3565b90612fdc565b61159b565b6132e1611552565b506132ea611552565b5061333260026104090351613319601e6104090151916133148661330e60066112e2565b90612fdc565b61159b565b61332d846133276007611301565b90612fdc565b61159b565b61333a611552565b50613343611552565b5061338b60026104490351613372601e61044901519161336d866133676008611320565b90612fdc565b61159b565b61338684613380600961133f565b90612fdc565b61159b565b565b92916133ce6133d39261339e611072565b506133a761250b565b506133b96133b3612b47565b96615be6565b6133c96133c46126ad565b6111c6565b615009565b615000565b6133ee6133e9826133e35f61121b565b90612b54565b611237565b61340a613405836133ff6001611247565b90612b54565b611237565b905f52601e600261030f5e601e61030f01526134386134338261342d6002611266565b90612b54565b611237565b61345461344f836134496003611285565b90612b54565b611237565b905f52601e600261038b5e601e61038b015261348261347d8261347760046112a4565b90612b54565b611237565b61349e6134998361349360056112c3565b90612b54565b611237565b9060026104090352601e61040901526134e56134e06134cf6134ca846134c460066112e2565b90612b54565b611237565b926134da6007611301565b90612b54565b611237565b9060026104490352601e61044901526134fc616ff1565b919092613507611552565b50613510611552565b5061355760026103c9035161353e601e6103c9015191613539866135335f61121b565b90612b6a565b61159b565b6135528461354c6001611247565b90612b6a565b61159b565b61355f611552565b50613568611552565b506135b0600261038b0351613597601e61038b0151916135928661358c6002611266565b90612b6a565b61159b565b6135ab846135a56003611285565b90612b6a565b61159b565b565b5f90565b9060088110156135c7576020020190565b6111ee565b356135d68161016f565b90565b9261364461390497959361362f6136599461361a61366e986135f9611072565b506136026135b2565b5061360b61250b565b5061361461250b565b50615000565b61362a613625611429565b6111c6565b615065565b61363f61363a6114b0565b6111c6565b615065565b61365461364f611399565b6111c6565b615065565b613669613664611517565b6111c6565b615065565b6136896136848261367e5f61121b565b90612b54565b611237565b6136a56136a08361369a6001611247565b90612b54565b611237565b9060026104090352601e61040901526136d06136cb826136c56002611266565b90612b54565b611237565b6136ec6136e7836136e16003611285565b90612b54565b611237565b9060026104490352601e61044901526137176137128261370c60046112a4565b90612b54565b611237565b61373361372e8361372860056112c3565b90612b54565b611237565b9060026104890352601e610489015261377a61377561376461375f8461375960066112e2565b90612b54565b611237565b9261376f6007611301565b90612b54565b611237565b9060026104c90352601e6104c901526137be61379c613797612674565b6111c6565b6137b86137b3846137ad6002611266565b906135b6565b6135cc565b90615009565b6137f36137d16137cc611663565b6111c6565b6137ed6137e8846137e26003611285565b906135b6565b6135cc565b90615009565b6138286138066138016116bb565b6111c6565b61382261381d8461381760046112a4565b906135b6565b6135cc565b90615009565b61385d61383b6138366111b8565b6111c6565b6138576138528461384c60056112c3565b906135b6565b6135cc565b90615009565b61389261387061386b6116e8565b6111c6565b61388c6138878461388160066112e2565b906135b6565b6135cc565b90615009565b6138c76138a56138a06126ad565b6111c6565b6138c16138bc846138b66007611301565b906135b6565b6135cc565b90615009565b6138fe6138f96138e86138e3846138dd5f61121b565b906135b6565b6135cc565b926138f36001611247565b906135b6565b6135cc565b9061623d565b9193909293929190565b9150506139be92506139b9915061392361250b565b5061392c61250b565b506139356111e2565b5061393e6111ea565b5061394761250f565b506139b361080861399b60243561398d6001600283600401358060051b80956024018837040191840193604435806004013560051b809160240187378501604052615019565b6139968361501f565b615822565b6139a483615b68565b916139ad6114be565b90615837565b906150ac565b615b7d565b6139c66175e2565b6139ce6161ba565b906139d76161cd565b90565b90565b6139f16139ec6139f6926139da565b61028d565b611195565b90565b613a046102936139dd565b90565b9350613a409250613a3b90613a1a6135b2565b50613a2361250f565b50613a2c611072565b50613a368561501f565b615b68565b615b92565b60643590816004013560051b916024019037613a5a615bfb565b613a72613a6d613a686139f9565b6111c6565b615048565b613a8c613a85613a806139f9565b6111c6565b5f90617712565b613aa7613a9f613a9a6139f9565b6111c6565b600190617712565b915f80a3613ac3613abe613ab96114b0565b6111c6565b615048565b613add613ad6613ad16114b0565b6111c6565b5f90617712565b613af8613af0613aeb6114b0565b6111c6565b600190617712565b915f80a3613b14613b0f613b0a611429565b6111c6565b615048565b613b2e613b27613b22611429565b6111c6565b5f90617712565b613b49613b41613b3c611429565b6111c6565b600190617712565b915f80a3613b65613b60613b5b6114ea565b6111c6565b615048565b613b7f613b78613b736114ea565b6111c6565b5f90617712565b613b9a613b92613b8d6114ea565b6111c6565b600190617712565b915f80a3613bb6613bb1613bac611399565b6111c6565b615048565b613bd0613bc9613bc4611399565b6111c6565b5f90617712565b613beb613be3613bde611399565b6111c6565b600190617712565b915f80a3613c07613c02613bfd611456565b6111c6565b615273565b613c1f613c1a613c15611456565b6111c6565b615048565b613c39613c32613c2d611456565b6111c6565b5f90617712565b90613c55613c4d613c48611456565b6111c6565b600190617712565b925f80a4613c71613c6c613c67611544565b6111c6565b615273565b613c89613c84613c7f611544565b6111c6565b615048565b613ca3613c9c613c97611544565b6111c6565b5f90617712565b90613cbf613cb7613cb2611544565b6111c6565b600190617712565b925f80a4613ccb61772b565b90613cd461508c565b90613cdd6150c1565b90565b613d1791929750613dad9650613da89550613d1c939450613cff6135b2565b50613d0861250b565b50613d1161250b565b50615b3e565b615b53565b613d246111e2565b50613d2d6111ea565b50613d3661250f565b50613da2610808613d8a608435613d7c6001600283600401358060051b8095602401883704019184019360a435806004013560051b809160240187378501604052615019565b613d858361501f565b615822565b613d9383615b68565b91613d9c6114be565b90615837565b906150ac565b615b7d565b613db681615b92565b613dd0613dcb82613dc5615ba7565b90615bba565b615000565b613df1613dec613dde612638565b613de6612648565b90615bd9565b615be6565b613df9615bfb565b5b613e1c613e15613e10613e0b611399565b6111c6565b615048565b8290615d9c565b15613e3557613e1c90613e2d615dbb565b509050613dfa565b50613e5f613e49613e44611517565b6111c6565b613e59613e54611399565b6111c6565b906161b3565b613e88613e72613e6d6113c6565b6111c6565b613e82613e7d611399565b6111c6565b906161b3565b613eb9613e9b613e96611663565b6111c6565b613eb3613eae613ea9612674565b6111c6565b615812565b90615009565b613ec1615035565b5f14613f5657613ef0613ee2613edd613ed86126ad565b6111c6565b615812565b613eea6161ba565b906161e0565b613f19613efb6161cd565b613f13613f0e613f09612674565b6111c6565b615812565b90615bd9565b905b905b613f288282906152a7565b613f1d57613f359161773e565b91613f4e613f49613f44611517565b6111c6565b615048565b919291929190565b613fb1613f82613f646161ba565b613f7c613f77613f72612674565b6111c6565b615812565b90615bd9565b613fab613f9d613f98613f936126ad565b6111c6565b615812565b613fa56161cd565b906161e0565b906126bb565b90613f1b565b926140106142d0979593613ffb61402594613fe661403a98613fd761250b565b50613fe061250b565b50615000565b613ff6613ff1611429565b6111c6565b615065565b61400b6140066114b0565b6111c6565b615065565b61402061401b611399565b6111c6565b615065565b614035614030611517565b6111c6565b615065565b6140556140508261404a5f61121b565b90612b54565b611237565b61407161406c836140666001611247565b90612b54565b611237565b9060026104090352601e610409015261409c614097826140916002611266565b90612b54565b611237565b6140b86140b3836140ad6003611285565b90612b54565b611237565b9060026104490352601e61044901526140e36140de826140d860046112a4565b90612b54565b611237565b6140ff6140fa836140f460056112c3565b90612b54565b611237565b9060026104890352601e610489015261414661414161413061412b8461412560066112e2565b90612b54565b611237565b9261413b6007611301565b90612b54565b611237565b9060026104c90352601e6104c9015261418a614168614163612674565b6111c6565b61418461417f846141796002611266565b906135b6565b6135cc565b90615009565b6141bf61419d614198611663565b6111c6565b6141b96141b4846141ae6003611285565b906135b6565b6135cc565b90615009565b6141f46141d26141cd6116bb565b6111c6565b6141ee6141e9846141e360046112a4565b906135b6565b6135cc565b90615009565b6142296142076142026111b8565b6111c6565b61422361421e8461421860056112c3565b906135b6565b6135cc565b90615009565b61425e61423c6142376116e8565b6111c6565b6142586142538461424d60066112e2565b906135b6565b6135cc565b90615009565b61429361427161426c6126ad565b6111c6565b61428d614288846142826007611301565b906135b6565b6135cc565b90615009565b6142ca6142c56142b46142af846142a95f61121b565b906135b6565b6135cc565b926142bf6001611247565b906135b6565b6135cc565b90617a6e565b91909190565b67ffffffffffffffff81116142eb5760200290565b611080565b6142fc614301916142d6565b6110bd565b90565b90614322614311836142f0565b9261431c84916142d6565b90611100565b565b61432e600c614304565b90565b906007811015614342576020020190565b6111ee565b9061435182610cad565b81101561435f576020020190565b6111ee565b926147fe9291946143d36147659261437a611072565b506143be614386614324565b986143b9614392611185565b996143b46143af6143a1612638565b6143a9612648565b90615bd9565b615be6565b614ff7565b615000565b6143ce6143c96111b8565b6111c6565b615009565b6143db6111e2565b506143e7610808615019565b6143ef6111e6565b506143f86111ea565b5060c061080801906144098261501f565b61442461441f826144195f61121b565b90614331565b611237565b82526060602283019201604052600280610287015160101c9060f01b176102875260016002610285015160101c9060f01b17610285526144766144718261446b6001611247565b90614331565b611237565b61449261448d836144876002611266565b90614331565b611237565b9060026104090352601e61040901526144bd6144b8826144b26003611285565b90614331565b611237565b6144d96144d4836144ce60046112a4565b90614331565b611237565b9060026104490352601e610449015261452061451b61450a614505846144ff60056112c3565b90614331565b611237565b9261451560066112e2565b90614331565b611237565b906002830352601e8201526145d6614536615025565b614572614549614544611429565b6111c6565b61456c8361456661455861508c565b6145606113fd565b9061509f565b906150ac565b90615065565b6145ae6145856145806114b0565b6111c6565b6145a8836145a261459461508c565b61459c6114be565b9061509f565b906150ac565b90615065565b6145d06145c16145bc6114ea565b6111c6565b916145ca61508c565b906150ac565b90615065565b6145de6150c1565b5f14614c42576146616146206146026145fd6145f86114b0565b6111c6565b615048565b61461a614615614610611456565b6111c6565b615048565b90615058565b5b61462a816151cb565b90600261463561525f565b61463d611552565b50019261465861465361464e611456565b6111c6565b615273565b90919293615287565b6146696150c1565b5f14614c01576146ec6146ab61468d6146886146836114b0565b6111c6565b615048565b6146a56146a061469b611544565b6111c6565b615048565b90615058565b5b6146b5816151cb565b9060426146c061525f565b6146c8611552565b5001926146e36146de6146d9611544565b6111c6565b615273565b90919293615287565b6146f46150c1565b5f14614bca5761472c61471561471061470b6114b0565b6111c6565b615048565b614726614721846111c6565b615048565b90615058565b5b614736816151cb565b9161475c614757608261474761525f565b61474f611552565b5001956111c6565b615273565b90919293615287565b6147f9614778614773611399565b6111c6565b6147806150c1565b61479961479361478e615035565b610144565b91610144565b145f14614b3e576147a86150c1565b5f14614af6576147f16147ea6147cc6147c76147c26114ea565b6111c6565b615048565b6147e46147df6147da611544565b6111c6565b615048565b906150d4565b84906150d4565b5b905b615065565b617cd1565b614806615dbb565b5061480f6150c1565b92614818611552565b50614821611552565b506148686002610409035161484f601e61040901519161484a876148445f61121b565b90614347565b61159b565b6148638561485d6001611247565b90614347565b61159b565b614870611552565b50614879611552565b506148c1600261044903516148a8601e6104490151916148a38761489d6002611266565b90614347565b61159b565b6148bc856148b66003611285565b90614347565b61159b565b6148c9611552565b506148d2611552565b5061491a600261030f0351614901601e61030f0151916148fc876148f660046112a4565b90614347565b61159b565b6149158561490f60056112c3565b90614347565b61159b565b614922611552565b5061492b611552565b50614973600261034d035161495a601e61034d0151916149558761494f60066112e2565b90614347565b61159b565b61496e856149686007611301565b90614347565b61159b565b61497b611552565b50614984611552565b506149cc60026102d103516149b3601e6102d10151916149ae876149a86008611320565b90614347565b61159b565b6149c7856149c1600961133f565b90614347565b61159b565b6149d4611552565b506149dd611552565b50614a25600261038b0351614a0c601e61038b015191614a0787614a01600a61135e565b90614347565b61159b565b614a2085614a1a600b6115ac565b90614347565b61159b565b614a58614a40614a3b614a36612674565b6111c6565b615812565b614a5384614a4d5f61121b565b90611671565b61168e565b614a8c614a73614a6e614a696126ad565b6111c6565b615812565b614a8784614a816001611247565b90611671565b61168e565b614ac0614aa7614aa2614a9d6111b8565b6111c6565b615812565b614abb84614ab56002611266565b90611671565b61168e565b614af4614adb614ad6614ad16116e8565b6111c6565b615812565b614aef84614ae96003611285565b90611671565b61168e565b565b614b39614b32614b14614b0f614b0a6114ea565b6111c6565b615048565b614b2c614b27614b22611544565b6111c6565b615048565b906150fa565b84906150fa565b6147f2565b614b466150c1565b5f14614b8c57614b85614b67614b62614b5d6114ea565b6111c6565b615048565b614b7f614b7a614b75611544565b6111c6565b615048565b906150d4565b5b906147f4565b614bc5614ba7614ba2614b9d6114ea565b6111c6565b615048565b614bbf614bba614bb5611544565b6111c6565b615048565b906150fa565b614b86565b614bfc614bde614bd9836111c6565b615048565b614bf6614bf1614bec6114b0565b6111c6565b615048565b90615058565b61472d565b6146ec614c3d614c1f614c1a614c15611544565b6111c6565b615048565b614c37614c32614c2d6114b0565b6111c6565b615048565b90615058565b6146ac565b614661614c7e614c60614c5b614c56611456565b6111c6565b615048565b614c78614c73614c6e6114b0565b6111c6565b615048565b90615058565b614621565b614d7b989a95614d12614d5196614cfd614d809f9b9d97614ce8614d3c98614cd3614d669e99614cbe614d279a614cb861250b565b50615000565b614cce614cc96116e8565b6111c6565b615009565b614ce3614cde611663565b6111c6565b615009565b614cf8614cf3612674565b6111c6565b615009565b614d0d614d086126ad565b6111c6565b615009565b614d22614d1d6111b8565b6111c6565b615009565b614d37614d326116bb565b6111c6565b615009565b614d4c614d47611399565b6111c6565b615065565b614d61614d5c611517565b6111c6565b615065565b614d76614d716114b0565b6111c6565b615065565b6166ce565b90565b90565b614d9a614d95614d9f92614d83565b61028d565b611195565b90565b614dad610287614d86565b90565b9092614e4f9796959492601e94614dc5611552565b50614dce611552565b50614dd7611552565b50614de0611552565b50614de961250f565b50614df2611552565b50614e03614dfe612fa1565b6111c6565b93614e0d85615019565b6002610449035285610449015260026102d10352836102d1015260028560061b010190600282035201526002610287015160101c9060f01b1761028752614ff7565b614e57617ce6565b60026104090351601e6104090151916002610449035192601e61044901519290939291614e92614e8d614e88614da2565b6111c6565b616fbe565b919493929190565b90565b614eb1614eac614eb692614e9a565b61028d565b611195565b90565b614ec4610289614e9d565b90565b9092614f669796959492601e94614edc611552565b50614ee5611552565b50614eee611552565b50614ef7611552565b50614f0061250f565b50614f09611552565b50614f1a614f15612fa1565b6111c6565b93614f2485615019565b60026104c90352856104c90152600261038b03528361038b015260028560061b010190600282035201526002610289015160101c9060f01b1761028952615000565b614f6e617d67565b60026104890351601e61048901519160026104c9035192601e6104c901519290939291614fa9614fa4614f9f614eb9565b6111c6565b616fbe565b919493929190565b90614fe0614fe592614fc1611552565b50614fca611552565b50614fdb614fd6611517565b6111c6565b615065565b617de8565b60026103c9035190601e6103c9015190565b60ff0261028453565b60ff0261015053565b9060208203906005825193035252565b6105ef52565b61060f52565b61502d6111ea565b5061060f5190565b61503d611072565b506101505160ff1c90565b6150506135b2565b505160c01c90565b6150606135b2565b500390565b9061507d91615073826151cb565b9192909192615917565b565b6150876135b2565b500190565b61509461250f565b506102855160f01c90565b6150a761250f565b500190565b906150b56135b2565b5060031b015160c01c90565b6150c9611072565b506102845160ff1c90565b6150dc6135b2565b506150e8818390617f06565b5f146150f357505b90565b90506150f0565b906151036135b2565b5061510f828290617f06565b5f1461511a57505b90565b9050615117565b90565b61513861513361513d92615121565b61028d565b61020d565b90565b90565b61515761515261515c92615140565b61028d565b61020d565b90565b61517361516e6151789261020d565b61028d565b61016c565b90565b90565b60ff1690565b61519861519361519d9261517b565b61028d565b61517e565b90565b1c90565b6151c3906151bd6151b76151c89461517e565b9161020d565b906151a0565b61020d565b90565b6151e6906151d761250b565b506151e061250b565b506180ce565b61525c61525761525261524161523c6152377ff1aaddd7742e56d32fb9f997447d9e6314db84884fabab26bf059af9bc20b609600160c11b61523161522b8a93615124565b91615143565b9061834b565b61515f565b610290565b9361524c6028615184565b906151a4565b61515f565b610290565b91565b6152676111e2565b506105ef5190565b5f90565b60029061527e61526f565b50035160f01c90565b602091926022820394855196601e84015260038301526018820352035252565b906152b0611072565b506152ea6152cc6152c76152c2611517565b6111c6565b615048565b6152e46152df6152da6113c6565b6111c6565b615048565b90618368565b615805575b61532861530a615305615300611517565b6111c6565b615048565b61532261531d615318611544565b6111c6565b615048565b90618368565b6157f8575b6153356150c1565b9061536f61535161534c615347611517565b6111c6565b615048565b61536961536461535f6114ea565b6111c6565b615048565b90618368565b615789575b816153bf6153b96153b461539661539161538c611429565b6111c6565b615048565b6153ae6153a96153a4611456565b6111c6565b615048565b90617f06565b610144565b91610144565b0361575b575b6154416153d86153d3611517565b6111c6565b8361542361541d6154186153fa6153f56153f06114ea565b6111c6565b615048565b61541261540d615408611544565b6111c6565b615048565b90617f06565b610144565b91610144565b145f1461574b5761543b615435611544565b5b6111c6565b906161b3565b8161545b615455615450615035565b610144565b91610144565b14615648575b61549c61547461546f611456565b6111c6565b61547c611429565b61549661549061548a611517565b926111c6565b916111c6565b91618439565b916154b66154b06154ab615035565b610144565b91610144565b145f1461560e57615553615561916154ff6154d76154d2611483565b6111c6565b6154df611429565b6154f96154f36154ed611517565b926111c6565b916111c6565b91618439565b9461551a61551361550e611663565b6111c6565b869061868b565b61553461552d6155286116bb565b6111c6565b879061868b565b61554e6155476155426111b8565b6111c6565b869061868b565b6166ce565b61555b611572565b90618696565b61556d5750505b600190565b6155cc6155e19261559d6155876155826114ea565b6111c6565b615597615592611517565b6111c6565b906161b3565b6155b76155b06155ab611663565b6111c6565b84906186a3565b6155c76155c26116bb565b6111c6565b6186a3565b6155dc6155d76111b8565b6111c6565b6186a3565b61560a6155f46155ef611517565b6111c6565b6156046155ff611429565b6111c6565b906161b3565b5f90565b50615643915061562e6156276156226116e8565b6111c6565b829061868b565b61563e6156396111b8565b6111c6565b61868b565b615568565b8161569361568d61568861566a615665615660611429565b6111c6565b615048565b61568261567d615678611483565b6111c6565b615048565b90617f06565b610144565b91610144565b0361571d575b816156e46156de6156d96156bb6156b66156b1611517565b6111c6565b615048565b6156d36156ce6156c96113c6565b6111c6565b615048565b90617f06565b610144565b91610144565b146156ef575b615461565b6157186157026156fd611517565b6111c6565b61571261570d6113c6565b6111c6565b906161b3565b6156ea565b61574661573061572b611429565b6111c6565b61574061573b611483565b6111c6565b906161b3565b615699565b61543b6157566114ea565b615436565b61578461576e615769611429565b6111c6565b61577e615779611456565b6111c6565b906161b3565b6153c5565b906157ea906157e46157a161579c6111b8565b6111c6565b916157ba6157b56157b06111b8565b6111c6565b615812565b6157c2611517565b916157de6157d86157d16114b0565b92946111c6565b916111c6565b91618375565b90615009565b6157f2616e73565b90615374565b615800617ce6565b61532d565b61580d617d67565b6152ef565b61581a61250b565b505160281c90565b600261064f015160101c9060f01b1761064f52565b61583f61250f565b500390565b90565b61585b61585661586092615844565b61028d565b61016c565b90565b9061586c61526f565b6158746135b2565b61587c61250b565b5061588561250b565b5061589883615892612682565b906186ae565b5f146158e1575050603e906158ab611552565b5060061b0301906158bb82615273565b916158c581615048565b916158dd6158d4835f90617712565b92600190617712565b905b565b92509290506158ee612638565b906159117801e355bbaee85cada65f73f32e88fb3cc629b709109f57564d615847565b906158df565b6018906020810393845195601e8301526003820152035252565b90565b61594861594361594d92615931565b61028d565b61016c565b90565b6159737915fc21041027acbbfcd46780fee71ead23fbcb7f4a81e58767ef615934565b90565b61597e615025565b6159866186bb565b6159af6159a161599c615997612532565b6111c6565b615048565b6159a96113f0565b9061507f565b6159d26159ba6111ea565b6159c38161501f565b6159cb6113f0565b83916186ce565b6159db81615b92565b6159fc6159f76159e9612638565b6159f1612648565b90615bd9565b615be6565b615a04615bfb565b5b615a27615a20615a1b615a16611399565b6111c6565b615048565b8290615d9c565b15615afb57615a34615dbb565b15615a055750615a47615a4c925b61501f565b615b68565b615aa6615aa1615a83615a7e615a70615a6b615a66612674565b6111c6565b615812565b615a78615950565b906186ec565b61871c565b615a8c81618782565b615a94611552565b5080805f03169004618797565b6188ae565b615af1615aec615ae7615ac7615ac2615abd6126ad565b6111c6565b615812565b615ae1615ada615ad5612532565b6111c6565b5f90617712565b906188b4565b618912565b61895d565b615af9616e5d565b565b50615a47615a4c92615a42565b615b1061250b565b5061079e5160281c90565b615b2361250b565b506107d95160281c90565b615b36611552565b506107b95190565b601b61069f015160d81c9060281b1761069f52565b601b6106ba015160d81c9060281b176106ba52565b6002610651015160101c9060f01b1761065152565b6008610677015160401c9060c01b1761067752565b6008610148015160401c9060c01b1761014852565b615baf6135b2565b506106775160c01c90565b615bd691615bd091615bca611072565b50618972565b15610144565b90565b615be161250b565b500390565b601b610152015160d81c9060281b1761015252565b615ca4615c06615025565b615c32615c2d615c28615c1884618997565b9190615c226189f2565b906150d4565b6150fa565b617cd1565b615c8f615c8a615c51615c436186bb565b615c4b6114be565b90615837565b92615c5b84618a05565b615c84615c698286906150ac565b94615c7e869391615c786114be565b90615837565b906150ac565b90617f06565b614ff7565b615c9f615c9a6139f9565b6111c6565b615065565b615ccd615cb7615cb26114b0565b6111c6565b615cc7615cc26139f9565b6111c6565b906161b3565b615cf6615ce0615cdb611429565b6111c6565b615cf0615ceb6139f9565b6111c6565b906161b3565b615d1f615d09615d046114ea565b6111c6565b615d19615d146139f9565b6111c6565b906161b3565b615d48615d32615d2d611399565b6111c6565b615d42615d3d6139f9565b6111c6565b906161b3565b615d71615d5b615d56611456565b6111c6565b615d6b615d666139f9565b6111c6565b906161b3565b615d9a615d84615d7f611544565b6111c6565b615d94615d8f6139f9565b6111c6565b906161b3565b565b615db891615db291615dac611072565b50618368565b15610144565b90565b615dc3611072565b90615dfd615ddf615dda615dd5611399565b6111c6565b615048565b615df7615df2615ded611544565b6111c6565b615048565b90618368565b6161a6575b615e0a6150c1565b615e43615e25615e20615e1b611399565b6111c6565b615048565b615e3d615e38615e336114ea565b6111c6565b615048565b90618368565b616139575b80615e93615e8d615e88615e6a615e65615e60611429565b6111c6565b615048565b615e82615e7d615e78611456565b6111c6565b615048565b90617f06565b610144565b91610144565b0361610b575b615f15615eac615ea7611399565b6111c6565b82615ef7615ef1615eec615ece615ec9615ec46114ea565b6111c6565b615048565b615ee6615ee1615edc611544565b6111c6565b615048565b90615bba565b610144565b91610144565b145f146160fb57615f0f615f09611544565b5b6111c6565b906161b3565b615f1d61250b565b5080615f38615f32615f2d615035565b610144565b91610144565b145f1461609d5761602e9250615f4c61772b565b90615f80615f7a615f7584615f6f615f6a615f65611399565b6111c6565b615048565b90617f06565b610144565b91610144565b0361607e575b50615f8f61250b565b50615f98618a1a565b5f1461603057615fa6616ff1565b929092616018615fe7615fbf615fba611456565b6111c6565b615fc7611429565b615fe1615fdb615fd5611399565b926111c6565b916111c6565b91618439565b915b616003615ffc615ff7612674565b6111c6565b849061868b565b61601361600e6126ad565b6111c6565b61868b565b5b6160296160246111b8565b6111c6565b61868b565b565b6160386168ce565b92909261601861607961605161604c611456565b6111c6565b616059611429565b61607361606d616067611399565b926111c6565b916111c6565b91618a2d565b615fe9565b6160979061609261608d611399565b6111c6565b615065565b5f615f86565b5061602e6160dc6160b46160af611456565b6111c6565b6160bc611429565b6160d66160d06160ca611399565b926111c6565b916111c6565b91618439565b6160f66160ef6160ea6116e8565b6111c6565b829061868b565b616019565b615f0f6161066114ea565b615f0a565b61613461611e616119611429565b6111c6565b61612e616129611456565b6111c6565b906161b3565b615e99565b6161999061619361615061614b6111b8565b6111c6565b9161616961616461615f6111b8565b6111c6565b615812565b616171611399565b9161618d6161876161806114b0565b92946111c6565b916111c6565b91618375565b90615009565b6161a1616e73565b615e48565b6161ae617ce6565b615e02565b90603e915e565b6161c261250b565b5061069f5160281c90565b6161d561250b565b506106ba5160281c90565b6161e861250b565b500190565b6162056161ff61620b92959395610290565b94610290565b92610290565b90565b6162175f611556565b90565b1561622157565b5f6327177a2d60e11b81528061623960048201610568565b0390fd5b919091616248611072565b506162516135b2565b5061625a61250b565b5061626361250b565b5061626c615035565b92835f146166c057905b909261628061250b565b506162bc61629461628f611456565b6111c6565b61629c611429565b6162b66162b06162aa611517565b926111c6565b916111c6565b91618439565b91616426856164206163f66163d86163ae61639061638261635a6163336163146162ec6162e7611483565b6111c6565b6162f4611429565b61630e616308616302611517565b926111c6565b916111c6565b91618439565b9861632d616328616323612674565b6111c6565b615812565b906161e0565b6163548d61634f61634a616345611663565b6111c6565b615812565b6161e0565b90615bd9565b61637c61637561637061636b6116bb565b6111c6565b615812565b89906161e0565b906161e0565b61638a611572565b90618c86565b986163a96163a461639f6111b8565b6111c6565b615812565b6161e0565b6163b6611517565b906163bf6114b0565b6163d26163cc8b946111c6565b916111c6565b91618375565b926163f16163ec6163e76116bb565b6111c6565b615812565b6161e0565b6163fe611517565b90616407611399565b61641a61641489946111c6565b916111c6565b91618375565b90615bd9565b9161648561647761645961643b8587906161e0565b61645361644e6164496116e8565b6111c6565b615812565b90615bd9565b61647161646c6164676126ad565b6111c6565b615812565b90615bd9565b61647f611572565b90618c86565b926165866165806164b561649f61649a611456565b6111c6565b6164af6164aa611517565b6111c6565b90618cac565b61657a6165596164e46164ce6164c9611483565b6111c6565b6164de6164d9611517565b6111c6565b90618cac565b9561655461654c6165186165116165016164fc6114b0565b6111c6565b61650b8d15610144565b90617712565b87906188b4565b61654661653f8c61653961653261652d611399565b6111c6565b9115610144565b90617712565b8b906188b4565b90615bd9565b9182906161e0565b6161e0565b9461657461656d616568611517565b6111c6565b8890617712565b92615bd9565b906188b4565b806161e0565b9161658f61250b565b505f1461667d576165db92916165cf6165d5926165c16165b08b89906186ec565b6165bb878b906186ec565b90615bd9565b96979697965b969799618e3a565b92618e3a565b906161e0565b926165ee856165e8611572565b90618696565b61661161660b61660687616600611572565b90618696565b610144565b91610144565b1415948460161d81600160261b0205946166338661662d61620e565b90618368565b61663c575b5050565b6166529060161d9161664c611572565b90618e6f565b61665d575b80616638565b6166726166779161666c611572565b90618e6f565b61621a565b5f616657565b9282916166b56165cf966165d5936166ad61669c6165db9884906186ec565b6166a78d84906186ec565b90615bd9565b9190916161ed565b9791979690966165c7565b6166c9916126bb565b616276565b6166d661250b565b506166df615035565b906167b561679761677961672e6167046166ff6166fa6111b8565b6111c6565b615812565b61670c611517565b906167156114b0565b6167286167228a946111c6565b916111c6565b91618375565b61677361674961674461673f6116bb565b6111c6565b615812565b616751611517565b9061675a611399565b61676d6167678b946111c6565b916111c6565b91618375565b90615bd9565b61679161678c6167876116e8565b6111c6565b615812565b90615bd9565b6167af6167aa6167a56126ad565b6111c6565b615812565b90615bd9565b926168106167f26167d46167cf6167ca612674565b6111c6565b615812565b6167ec6167e76167e26116bb565b6111c6565b615812565b906161e0565b61680a616805616800611663565b6111c6565b615812565b90615bd9565b925f14616838579061682861682e9261683495618e3a565b92618e3a565b90615bd9565b5b90565b61684861684e9261685495618e3a565b92618e3a565b90615bd9565b616835565b90565b61687061686b61687592616859565b61028d565b61016c565b90565b61688967100000000000000061685c565b90565b90565b6168a361689e6168a89261688c565b61028d565b61020d565b90565b156168b257565b5f630f975a0160e11b8152806168ca60048201610568565b0390fd5b6168d6611072565b506168df61250b565b506169096168eb618e8e565b6169036168fe6168f9612674565b6111c6565b615812565b90615bd9565b61694461691c616917611456565b6111c6565b616924611429565b61693e616938616932611399565b926111c6565b916111c6565b91618439565b90616950828290618ea1565b616e565761695c615035565b90815f14616e185761699d61697f61697a616975611456565b6111c6565b615048565b61699761699261698d611544565b6111c6565b615048565b90615058565b5b916169d86169ba6169b56169b0611544565b6111c6565b615273565b6169d26169cd6169c8611456565b6111c6565b615273565b90618ec0565b946169eb6169e4616878565b8790618ecd565b616ab6616ab0616a1d83616a1789616a11616a0c616a07611456565b6111c6565b615273565b90618ecd565b90618eda565b855f14616dc657616a7190616a6b616a64616a46616a41616a3c611456565b6111c6565b615048565b616a5e616a59616a54611429565b6111c6565b615048565b90615058565b8c90618ecd565b90618eda565b5b96616aaa616a7f89618ee7565b91616aa3616a93616a8e611429565b6111c6565b616a9d8a15610144565b90617712565b8991618ef9565b90615bd9565b806161e0565b90835f14616d8557616b18616afa616adc616ad7616ad2611429565b6111c6565b615048565b616af4616aef616aea611399565b6111c6565b615048565b90615058565b5b97616b12616b076113f0565b918a90899091618f55565b906150d4565b5b600115616d7757616b35616b2e828b90618ecd565b8890618eda565b616b74616b6c616b4483618ee7565b616b6687600160ff1b90616b60616b5a896180ce565b9261688f565b90618faf565b90615bd9565b918490618fe9565b8091616b7e6135b2565b50616b87611552565b5005908a82020581603c1d03600160531b03818192010590616bb182616bab61620e565b90618368565b616be15750616bdc91616bcf616bd592616bc96113f0565b9261507f565b906150d4565b88906150fa565b616b19565b949750509497505050616c09919450616c02616bfc5f61121b565b9161020d565b14156168ab565b5b825f14616d5157616c3290616c2d616c28616c23611429565b6111c6565b615048565b615058565b5b616c4d616c46616c41611517565b6111c6565b8290615065565b616c88616c60616c5b611456565b6111c6565b616c68611429565b616c82616c7c616c76611517565b926111c6565b916111c6565b91618439565b5b616c94818690618ff6565b15616d1d5750825f14616d0657616cb390616cad6113f0565b90615058565b5b90616cbe83617de8565b616c94616cfc616cd4616ccf611456565b6111c6565b616cdc611429565b616cf6616cf0616cea611517565b926111c6565b916111c6565b91618439565b9050919091616c89565b616d1890616d126113f0565b9061507f565b616cb4565b9350509050616d4b616d35616d30611399565b6111c6565b616d45616d40611517565b6111c6565b906161b3565b60019190565b616d7290616d6d616d68616d63611429565b6111c6565b615048565b61507f565b616c33565b949750505092509250616c0a565b616b18616dc1616da3616d9e616d99611399565b6111c6565b615048565b616dbb616db6616db1611429565b6111c6565b615048565b90615058565b616afb565b616e1390616e0d616e06616de8616de3616dde611429565b6111c6565b615048565b616e00616dfb616df6611456565b6111c6565b615048565b90615058565b8c90618ecd565b90618eda565b616a72565b616e51616e33616e2e616e29611544565b6111c6565b615048565b616e4b616e46616e41611456565b6111c6565b615048565b90615058565b61699e565b50905f9190565b6102846105a9036102846105a9035f0361028439565b616e7b611072565b50616ea5616e8f616e8a611429565b6111c6565b616e9f616e9a6114b0565b6111c6565b906161b3565b616ece616eb8616eb36114b0565b6111c6565b616ec8616ec36114ea565b6111c6565b906161b3565b616f10616ee1616edc6114ea565b6111c6565b616f0a616eec615025565b616f04616eff616efa612fce565b6111c6565b619003565b906150ac565b90615065565b616f21616f1b6150c1565b15610144565b90616f2b82614ff7565b616fbc616f3661525f565b616f4e616f49616f44614da2565b6111c6565b616fbe565b90616f9181616f5b611456565b90616f646114b0565b90616f7786616f716114be565b90615837565b91616f8b616f858b956111c6565b916111c6565b9161903e565b90616f9a611544565b91616fa36114b0565b616fb6616fb088956111c6565b916111c6565b9161903e565b565b616fc661250f565b505160f01c90565b15616fd557565b5f637fbbcd6760e01b815280616fed60048201610568565b0390fd5b616ff9611072565b5061700261250b565b5061702c61700e618e8e565b61702661702161701c6126ad565b6111c6565b615812565b90615bd9565b61706761703f61703a611456565b6111c6565b617047611429565b61706161705b617055611399565b926111c6565b916111c6565b91618a2d565b617072818390618ea1565b6175da5761707e615035565b91825f1461759c576170bf6170a161709c617097611456565b6111c6565b615048565b6170b96170b46170af611544565b6111c6565b615048565b90615058565b5b926170fa6170dc6170d76170d2611544565b6111c6565b615273565b6170f46170ef6170ea611456565b6111c6565b615273565b90618ec0565b9461710d617106616878565b8790618ecd565b6171c661713c826171368961713061712b617126611544565b6111c6565b615273565b90618ecd565b90618fe9565b845f1461754a576171909061718a61718361716561716061715b611429565b6111c6565b615048565b61717d617178617173611544565b6111c6565b615048565b90615058565b8b90618ecd565b90618eda565b5b966171c061719e89618ee7565b916171b96171b26171ad611429565b6111c6565b8890617712565b8891618ef9565b90615bd9565b90835f1461750c576172076171e96171e46171df611429565b6111c6565b615048565b6172016171fc6171f7611399565b6111c6565b615048565b90615058565b5b96879661721489610290565b61722e61722861722384610290565b61016c565b9161016c565b13156174e3575b50955b6001156174cd5761725461724d828b90618ecd565b8890618fe9565b6172a761729f61726383618ee7565b6172998761729361728e6172896172798a6180ce565b6172836028615184565b906151a4565b61515f565b610290565b90618e3a565b906161e0565b918490618eda565b80916172b16135b2565b506172ba611552565b5005908a82020581603c1d01600160531b038181920105906172e4826172de61620e565b90618368565b617314575061730f91617302617308926172fc6113f0565b92615058565b906150d4565b88906150fa565b617238565b919350506173539397949850617358959650617344915061733d6173375f61121b565b9161020d565b1415616fce565b5b61734d6113f0565b9061507f565b6150fa565b835f146174a7576173809061737b617376617371611429565b6111c6565b615048565b615058565b5b61739b61739461738f611517565b6111c6565b8290615065565b6173d66173ae6173a9611456565b6111c6565b6173b6611429565b6173d06173ca6173c4611517565b926111c6565b916111c6565b91618a2d565b5b6173e2818490618696565b156174745750835f1461745d57617401906173fb6113f0565b9061507f565b5b916174156174108515610144565b617de8565b6173e261745361742b617426611456565b6111c6565b617433611429565b61744d617447617441611517565b926111c6565b916111c6565b91618a2d565b90509290926173d7565b61746f906174696113f0565b90615058565b617402565b935050506174a161748b617486611399565b6111c6565b61749b617496611517565b6111c6565b906161b3565b60019190565b6174c8906174c36174be6174b9611429565b6111c6565b615048565b61507f565b617381565b9150506173539195929650617358939450617345565b6175059197506174ff6174f46113f0565b918a90899091618f55565b906150d4565b955f617235565b61754561752761752261751d611399565b6111c6565b615048565b61753f61753a617535611429565b6111c6565b615048565b90615058565b617208565b6175979061759161758a61756c617567617562611544565b6111c6565b615048565b61758461757f61757a611429565b6111c6565b615048565b90615058565b8b90618ecd565b90618eda565b617191565b6175d56175b76175b26175ad611544565b6111c6565b615048565b6175cf6175ca6175c5611456565b6111c6565b615048565b90615058565b6170c0565b9190505f9190565b6175fb6175ed615025565b6175f5612682565b906150ac565b61760481615b92565b61761e61761982617613615ba7565b90615bba565b615000565b61763f61763a61762c612638565b617634612648565b90615bd9565b615be6565b617647615bfb565b5b61766a61766361765e617659611399565b6111c6565b615048565b8290615d9c565b1561770c57617677615dbb565b1561764857505b617686615035565b5f146176d0576176ce6176a76176a261769d6116e8565b6111c6565b615812565b6176c96176c26176bd6176b8612674565b6111c6565b615812565b915b615b3e565b615b53565b565b6176ce6176eb6176e66176e1612674565b6111c6565b615812565b6176c96177066177016176fc6116e8565b6111c6565b615812565b916176c4565b5061767e565b9061771b61250b565b5015601b02602303015160281c90565b6177336135b2565b5061028b5160c01c90565b91909161774961250b565b9161775261250b565b61775a615035565b936177636135b2565b5061776c611072565b5b600115617a625750505061778282859061623d565b9290916177978161779161620e565b90618368565b61789157617822906177af6177aa611517565b6111c6565b90885f14617827576177fd61781b916177f76177d96177d46177cf6114ea565b6111c6565b615048565b916177f26177ed6177e8611517565b6111c6565b615048565b61507f565b906150d4565b61781561781061780b611429565b6111c6565b615048565b906150fa565b905b615065565b61776d565b61786d61788b9161786761784961784461783f611429565b6111c6565b615048565b9161786261785d617858611517565b6111c6565b615048565b61507f565b906150d4565b61788561788061787b6114ea565b6111c6565b615048565b906150fa565b9061781d565b509461795d9493955b6178b96178a88686906186ec565b6178b38a86906186ec565b90618c86565b916178f36178d56178d06178cb611517565b6111c6565b615048565b6178ed6178e86178e36114ea565b6111c6565b615048565b90615d9c565b80617a48575b9161793361791561791061790b611517565b6111c6565b615048565b61792d617928617923611429565b6111c6565b615048565b90615d9c565b9081617a2c575b5082908115617a24575b50617960575b5050506179579192619116565b93619116565b90565b6179ae906179a86179a26179e097949596949561799c6179866179816114ea565b6111c6565b617996617991611517565b6111c6565b906161b3565b92610144565b91610144565b14617de8565b6179b9858990617a6e565b9490936179db6179ca8888906186ec565b6179d58c88906186ec565b90618c86565b6190f7565b6179eb575b8061794a565b9091506179579250617a1c617a06617a01611517565b6111c6565b617a16617a116114ea565b6111c6565b906161b3565b90915f6179e5565b90505f617944565b9050617a40617a3a83610144565b91610144565b14155f61793a565b5081617a5c617a5683610144565b91610144565b146178f9565b9461795d94939561789a565b90617a7761250b565b50617a8061250b565b50617a89615035565b90815f14617cb357617c8a617c6c617c4e617c9893955b95617c48617c3a87617c34617c16617ae9617ac1617abc611456565b6111c6565b617ac9611429565b617ae3617add617ad7611517565b926111c6565b916111c6565b91618439565b617c10617bf2617bd3617b2d617b05617b00611483565b6111c6565b617b0d611429565b617b27617b21617b1b611517565b926111c6565b916111c6565b91618439565b96617bcd617b80617b56617b4f617b4a617b456111b8565b6111c6565b615812565b88906161e0565b617b5e611517565b90617b676114b0565b617b7a617b7487946111c6565b916111c6565b91618375565b91617ba3617b9c617b97617b926116bb565b6111c6565b615812565b8b906161e0565b617bab611517565b91617bc7617bc1617bba611399565b92946111c6565b916111c6565b91618375565b90615bd9565b98617bec617be7617be2612674565b6111c6565b615812565b906161e0565b91617c0b617c06617c01611663565b6111c6565b615812565b6161e0565b90615bd9565b91617c2f617c2a617c256116bb565b6111c6565b615812565b6161e0565b906161e0565b617c42611572565b90618c86565b966161e0565b617c66617c61617c5c6116e8565b6111c6565b615812565b90615bd9565b617c84617c7f617c7a6126ad565b6111c6565b615812565b90615bd9565b617c92611572565b90618c86565b905f14617ca557905b9091565b617cae916126bb565b617ca1565b617c8a617c6c617cc9617c9893617c4e966126bb565b959095617aa0565b600861028b015160401c9060c01b1761028b52565b617d0f617cf9617cf4611456565b6111c6565b617d09617d04611544565b6111c6565b9061913d565b617d65617d1a61525f565b617d22611544565b90617d2b6114b0565b90617d44617d3f617d3a614da2565b6111c6565b619149565b91617d5f617d59617d536150c1565b956111c6565b916111c6565b9161903e565b565b617d90617d7a617d75611483565b6111c6565b617d8a617d856113c6565b6111c6565b9061913d565b617de6617d9b61525f565b617da36113c6565b90617dac611399565b90617dc5617dc0617dbb614eb9565b6111c6565b619149565b91617de0617dda617dd4615035565b956111c6565b916111c6565b9161903e565b565b5f14617e7957617e76617e01617dfc611517565b6111c6565b617e2a617e1c617e17617e12611517565b6111c6565b615048565b617e246113f0565b90615058565b617e4c617e47617e40617e3b611517565b6111c6565b5f90617712565b61871c565b90617e70617e6b617e63617e5e611517565b6111c6565b600190617712565b618912565b92615917565b5b565b617f01617e8c617e87611517565b6111c6565b617eb5617ea7617ea2617e9d611517565b6111c6565b615048565b617eaf6113f0565b9061507f565b617ed7617ed2617ecb617ec6611517565b6111c6565b5f90617712565b618912565b90617efb617ef6617eee617ee9611517565b6111c6565b600190617712565b61871c565b92615917565b617e77565b617f0e611072565b501290565b617f27617f22617f2c9261016c565b61028d565b61020d565b90565b90617f3a910261020d565b90565b90565b617f54617f4f617f5992617f3d565b61028d565b61020d565b90565b634e487b7160e01b5f52601260045260245ffd5b617f7c617f829161020d565b9161020d565b908115617f8d570490565b617f5c565b90565b617fa9617fa4617fae92617f92565b61028d565b61020d565b90565b90617fbc910161020d565b90565b90565b617fd6617fd1617fdb92617fbf565b61028d565b61020d565b90565b90565b617ff5617ff0617ffa92617fde565b61028d565b61020d565b90565b90565b61801461800f61801992617ffd565b61028d565b61020d565b90565b90565b61803361802e6180389261801c565b61028d565b61517e565b90565b1b90565b61805e906180586180526180639461517e565b9161020d565b9061803b565b61020d565b90565b90565b61807d61807861808292618066565b61028d565b61020d565b90565b90565b61809c6180976180a192618085565b61028d565b61020d565b90565b906180af910361020d565b90565b6180c66180c16180cb92611263565b61028d565b61517e565b90565b6182ac6180ee6180e96182bc936180e3611552565b50610290565b617f13565b6180f9818290617f2f565b9061826a61825761810b848590617f2f565b618113611552565b506182516182365f19600160801b600160801b858a095f19868b09030992618139611552565b506182306182196182096181f86181e58c6181df6181c96181a66181866181768b80025f198d80090395618170600760681b617f40565b90617f2f565b618180600f611628565b90617f70565b6181a08b61819a6609c00000000000617f95565b90617f70565b90617fb1565b6181c38d6181bd69c9180000000000000000617fc2565b90617f70565b90617fb1565b916181d9621eee11605a1b617fe1565b90617f70565b90617fb1565b6181f2600160fe1b618000565b90617fb1565b9a618203606a61801f565b9061803f565b618213600f611628565b90617f70565b9161822a6624900000000000618069565b90617f70565b90617fb1565b9161824b6a06df920000000000000000618088565b90617f70565b90617fb1565b618264600160ff1b61688f565b90617fb1565b905f1991600160b41b916001604c1b828209915f19910903096182a66182a06182948484906180a4565b92600160fe1b94617fb1565b92618000565b9061834b565b6182b660026180b2565b9061803f565b808002905f1990800903808002905f1990800903808002905f1990800903808002905f1990800903808002905f1990800903808002905f1990800903808002905f1990800903808002905f1990800903808002905f1990800903808002905f1990800903808002905f1990800903808002905f1990800903808002905f1990800903808002905f199080090390565b9091618355611552565b5060018103928391818409820392090890565b618370611072565b501490565b906183c0906183ba6183b27f7082326d62b7ef4d06861f13c21dd192c8044b19a121205b7dc63c2642b5a80595966183ab61250b565b5015610144565b918290617712565b94617712565b90634bc3287b029264cef6ae8685029063cb21e499027f5bc2a24e50a66d39c35a9132c33f2fc50a1b99389d5455e78a7cf7ef8894e4cd81830991020302818102915f1991090390565b5f90565b90565b61842561842061842a9261840e565b61028d565b61020d565b90565b6184365f61121b565b90565b61844161250b565b5061844a61526f565b5061845361250b565b5061845c61250b565b506184656135b2565b5061846e61840a565b5061847761840a565b5061848182615048565b9161848b84615048565b618496848290618368565b61867b576184a2611552565b506184b7836184b16040618411565b90617fb1565b6184c084615273565b946184ca82615273565b6184dc816184d661842d565b90619163565b618668576184eb908790618ec0565b9061850d6185056184fd868490617f06565b968790617712565b988690617712565b956185208361851a61842d565b90619163565b6186585761852d90615048565b91855f146186095761857861856a61856361855c61854e61857d9688615058565b618556616878565b9061507f565b8490618ecd565b9685615058565b618572616878565b9061507f565b618ecd565b5b92935f146185f3579061859461859a9291615048565b90615058565b5b8091600160c01b87850993600160c01b868309600160c01b81600160c01b03870895818110938860018060c01b03910901918960018060c01b0391090103039281840660c01b0104910460c01b0192030201600f1c90565b6185ff61860492615048565b615058565b61859b565b61864e618640618638618631618623618653968890615058565b61862b616878565b9061507f565b8490618ecd565b968590615058565b618648616878565b9061507f565b618ecd565b61857e565b50505050505090910302600f1c90565b5050505050505050618678611572565b90565b5050505050618688611572565b90565b9060281b8151019052565b61869e611072565b501390565b9060281b8151039052565b6186b6611072565b501190565b6186c361250f565b506106515160f01c90565b919060801b9060c01b1790526186ea6186e56113fd565b615b68565b565b906186f561250b565b5060018060d81b0391600160d81b82820960018060d81b03039160018060d81b0391090890565b7faa3ed2381a8b1241d16168fd77ef989ed2b13be12b716aa23f35ed0e395560019061874661250b565b50780fffffffffffffff8000000000000002aaaaaaaaaaaaaaa001780fffffffffffffff8000000000000002aaaaaaaaaaaaaaa0001991090290565b601b61079e015160d81c9060281b1761079e52565b6188ab906187a3611552565b506188a561888961886561884161881d6187f96187ca60036187c58991611285565b617f2f565b6187d46002611266565b186187f360026187ee6187e88b8590617f2f565b91611266565b6180a4565b90617f2f565b618817600261881261880c8a8590617f2f565b91611266565b6180a4565b90617f2f565b61883b6002618836618830898590617f2f565b91611266565b6180a4565b90617f2f565b61885f600261885a618854888590617f2f565b91611266565b6180a4565b90617f2f565b618883600261887e618878878590617f2f565b91611266565b6180a4565b90617f2f565b916188a061889a6002928590617f2f565b91611266565b6180a4565b90617f2f565b90565b6107b952565b9064f8f6376c447f28256938c4923ff15ab260970aa81f81c15e6f5ef3af38dc210569e77db19359926188e561250b565b5002907e1561650620dabb6a84b684e2a7e5a47caa0a0905210083f0e3b551aabf84e98183099102030290565b61891a61250b565b50780fffffffffffffff8000000000000002aaaaaaaaaaaaaaa001198102905f1990780fffffffffffffff8000000000000002aaaaaaaaaaaaaaa0011990090390565b601b6107d9015160d81c9060281b176107d952565b61897a611072565b501390565b61898e61899491939293610290565b92610290565b90565b61899f6135b2565b506189a86135b2565b506189cd6189be826189b8612682565b906150ac565b916189c76114be565b906150ac565b6189d8818390615bba565b5f146189e457905b9091565b6189ed9161897f565b6189e0565b6189fa6135b2565b506101485160c01c90565b6002610285015160101c9060f01b1761028552565b618a22611072565b506101515160ff1c90565b9091618a3761250b565b91618a4061526f565b50618a4961250b565b50618a5261250b565b50618a5b6135b2565b50618a6461840a565b50618a6d61840a565b50618a7784615048565b93618a8183615048565b91618a8d868490618368565b618c7557618a99611552565b50618aae81618aa86040618411565b90617fb1565b618ab781615273565b95618aca87618ac461842d565b90619163565b618c6a5750618ad890615048565b90618b0c618afb618aea868a90617f06565b94618af58615610144565b90617712565b95618b068515610144565b90617712565b96618b1682615273565b618b21888290619163565b618c5a57618b2f9088618ec0565b845f14618c0d57618b7b618b6d618b65618b5e618b50618b80968990615058565b618b58616878565b9061507f565b8490618ecd565b978690615058565b618b75616878565b9061507f565b618ecd565b5b93925f14618bf55790618b96618b9b92615048565b615058565b5b8091600160c01b85820993600160c01b88820994600160c01b81600160c01b03870895818110938860018060c01b03910901918960018060c01b0391090103039281840660c01b0104910460c01b0192030203600f1c90565b618c02618c089291615048565b90615058565b618b9c565b618c50618c42618c3b618c34618c26618c559689615058565b618c2e616878565b9061507f565b8490618ecd565b9786615058565b618c4a616878565b9061507f565b618ecd565b618b81565b50505050505090910302600f1c90565b965050505050505090565b505050505050618c83611572565b90565b618c8e61250b565b50618c9a818390618ff6565b5f14618ca557505b90565b9050618ca2565b90618cbe618cb861250b565b92619170565b939291909394618cd686618cd061842d565b90619163565b618e315750618ce6858590619163565b618e0757618cfd81618cf785615048565b90618368565b618dde579384618d2d7c15fc21041027acbbfcd46780fee71ead23fbcb7f4a81e58767ef801a3295968490617f06565b5f14618da757618d588394618d52618d4b618d6094618d6697615058565b9691615048565b90615058565b918690618ec0565b90618ecd565b905b80600160c01b8385099260018060c01b03908460018060c01b03039060018060c01b03908709089281840660c01b0104910460c01b0191020160281c90565b618dca618dd893618dc5618dbf618dd2948390615058565b96615048565b615058565b918690618ec0565b90618ecd565b90618d68565b505050507c15fc21041027acbbfcd46780fee71ead23fbcb7f4a81e58767ef801a320260281c90565b5050507c15fc21041027acbbfcd46780fee71ead23fbcb7f4a81e58767ef801a3291500260281c90565b94505050505090565b618e4261250b565b505f1991600160281b915f1991600160d81b8183095f1903915f19915f81129003905f8112900309080990565b618e8b91618e8591618e7f611072565b506191d0565b15610144565b90565b618e9661250b565b506101525160281c90565b618ebd91618eb791618eb1611072565b50618696565b15610144565b90565b618ec861526f565b500390565b618ed561840a565b500290565b618ee261840a565b500190565b618eef61250b565b506001608e1b0290565b90917fd49c04af80af1ea5f98f85886b450a4b264fc14874f9f64143836145a37dd8a192618f2561250b565b507f0f1aaddd7742e56d32fb9f997447d9e6314db84884fabab26bf059af9bc20b61828183860909920202030290565b618fa791618fac93618f9c618f97618f91618f8c618f86618f81618fa298618f7b6135b2565b50610290565b617f13565b95610290565b617f13565b92610290565b617f13565b9161834b565b61515f565b610290565b90565b618fe191618fe693618fd4618fcf618fdc94618fc961250b565b50610290565b617f13565b91909161834b565b61515f565b610290565b90565b618ff161840a565b500390565b618ffe611072565b501290565b61900b61250f565b50600160f01b81510380915260f01c90565b61903561902f61903b92959395610290565b94610290565b92610290565b90565b6190a9949361904f91939293615863565b919592959091925f146190ab57906190926190896190786190979461907388615048565b615058565b94619084875f90617712565b6191dd565b94600190617712565b618e3a565b909190915b9091929390919293615287565b565b8391926190e66190dd6190cc6190eb946190c76190f199615048565b61507f565b956190d8865f90617712565b618e3a565b93600190617712565b6191dd565b9161901d565b9161909c565b6191139161910d91619107611072565b50618ff6565b15610144565b90565b9061911f61250b565b5061912b828290618ff6565b5f1461913657505b90565b9050619133565b6002806040930391035e565b61915161250f565b50600160f01b81510180915260f01c90565b61916b611072565b501490565b906191796135b2565b506191826135b2565b5061918b61526f565b5061919461526f565b5061919e82615273565b6191bb6191aa84615048565b936191b56040618411565b90617fb1565b6191cd6191c782615273565b91615048565b92565b6191d8611072565b501490565b90632ec3a85664027d117d7b7f7f6af8233bada11dd406b4458454ed9904d7af796be7aa4885b23e25b6985d499361921361250b565b500291027fdbb82f7041b890fe67970a62a3568cc34df9dcb17cc3a2a6a027850e7e3724f9818309910203029056fea264697066735822122038a10ac1a5b9a66da7a043116be63571b1469ad8998c0628099ef124c8a9996f64736f6c63430008220033","linkReferences":{}},"methodIdentifiers":{"_calculateIntegrals(uint256,uint256[],uint256[])":"ac2d6d9d","_calculateMaxIntegrals(uint256[])":"2697a0d4","_clearInterval()":"587fe69a","_getMismatch(bool,int256,int256,int256,int256,int256,int256,int256,int256,int256,int256,int256)":"c28b759d","_getNewtonStep(bool,int256,int256,int256,int256,int256[8],uint256[8])":"ac11f23e","_initiateInterval(uint256,uint256,int256,uint256[])":"aecb7265","_moveBreakpointForward(uint256,uint256,uint256,uint256,uint256,uint256,uint256,bool)":"eaf17e87","_moveBreakpointTotal(uint256,uint256,uint256,uint256,uint256,uint256,uint256,bool)":"d1752509","_moveOvershoot(bool,bool,int256,uint256[11])":"15f1b191","_moveOvershootByEpsilon(int256,bool)":"efb1d9e3","_movePhase(uint256,uint256,bool,int256,uint256[8])":"7d7bc012","_moveTarget(bool,bool,int256,int256,uint256[7])":"c1d899a7","_movements(int256,int256,int256,uint256,uint256[],uint256[])":"5369943f","_newIntegrals(bool,int256,int256,int256,int256,int256[8],uint256[8])":"be95da21","_searchIncomingTarget(int256,int256,bool,uint256[8])":"a7a01b53","_searchOutgoingTarget(int256,int256,bool,uint256[8])":"58593d0d","_searchOvershoot(int256,int256,int256,uint256,uint256[],uint256[])":"b2907eb1"},"id":20}