{"abi":[{"type":"function","name":"copyPrice","inputs":[{"name":"logPrice","type":"int256","internalType":"X59"},{"name":"sqrtPrice","type":"int256","internalType":"X216"},{"name":"sqrtInversePrice","type":"int256","internalType":"X216"}],"outputs":[{"name":"logResult","type":"int256","internalType":"X59"},{"name":"sqrtResult","type":"int256","internalType":"X216"},{"name":"sqrtInverseResult","type":"int256","internalType":"X216"}],"stateMutability":"nonpayable"},{"type":"function","name":"copyPriceWithHeight","inputs":[{"name":"heightPrice","type":"uint256","internalType":"X15"},{"name":"logPrice","type":"int256","internalType":"X59"},{"name":"sqrtPrice","type":"int256","internalType":"X216"},{"name":"sqrtInversePrice","type":"int256","internalType":"X216"}],"outputs":[{"name":"heightResult","type":"uint256","internalType":"X15"},{"name":"logResult","type":"int256","internalType":"X59"},{"name":"sqrtResult","type":"int256","internalType":"X216"},{"name":"sqrtInverseResult","type":"int256","internalType":"X216"}],"stateMutability":"nonpayable"},{"type":"function","name":"height","inputs":[{"name":"value","type":"uint256","internalType":"X15"}],"outputs":[{"name":"result","type":"uint256","internalType":"X15"}],"stateMutability":"nonpayable"},{"type":"function","name":"log","inputs":[{"name":"value","type":"int256","internalType":"X59"}],"outputs":[{"name":"result","type":"int256","internalType":"X59"}],"stateMutability":"nonpayable"},{"type":"function","name":"segment","inputs":[{"name":"b0","type":"int256","internalType":"X59"},{"name":"b1","type":"int256","internalType":"X59"},{"name":"c0","type":"uint256","internalType":"X15"},{"name":"c1","type":"uint256","internalType":"X15"}],"outputs":[{"name":"b0Result","type":"int256","internalType":"X59"},{"name":"b1Result","type":"int256","internalType":"X59"},{"name":"c0Result","type":"uint256","internalType":"X15"},{"name":"c1Result","type":"uint256","internalType":"X15"}],"stateMutability":"nonpayable"},{"type":"function","name":"sqrt","inputs":[{"name":"value","type":"int256","internalType":"X216"},{"name":"inverse","type":"bool","internalType":"bool"}],"outputs":[{"name":"result","type":"int256","internalType":"X216"}],"stateMutability":"nonpayable"},{"type":"function","name":"storePrice","inputs":[{"name":"heightPrice","type":"uint256","internalType":"X15"},{"name":"logPrice","type":"int256","internalType":"X59"},{"name":"sqrtPrice","type":"int256","internalType":"X216"},{"name":"sqrtInversePrice","type":"int256","internalType":"X216"}],"outputs":[{"name":"heightResult","type":"uint256","internalType":"X15"},{"name":"logResult","type":"int256","internalType":"X59"},{"name":"sqrtResult","type":"int256","internalType":"X216"},{"name":"sqrtInverseResult","type":"int256","internalType":"X216"}],"stateMutability":"nonpayable"},{"type":"function","name":"storePrice","inputs":[{"name":"logPrice","type":"int256","internalType":"X59"},{"name":"sqrtPrice","type":"int256","internalType":"X216"},{"name":"sqrtInversePrice","type":"int256","internalType":"X216"}],"outputs":[{"name":"logResult","type":"int256","internalType":"X59"},{"name":"sqrtResult","type":"int256","internalType":"X216"},{"name":"sqrtInverseResult","type":"int256","internalType":"X216"}],"stateMutability":"nonpayable"},{"type":"function","name":"storePrice","inputs":[{"name":"logPrice","type":"int256","internalType":"X59"}],"outputs":[{"name":"logResult","type":"int256","internalType":"X59"},{"name":"sqrtResult","type":"int256","internalType":"X216"},{"name":"sqrtInverseResult","type":"int256","internalType":"X216"}],"stateMutability":"nonpayable"}],"bytecode":{"object":"0x608060405234601c57600e6020565b61106961002b823961106990f35b6026565b60405190565b5f80fdfe60806040526004361015610013575b6105d6565b61001d5f356100ac565b80630c27dd38146100a75780632d5b6cb9146100a25780632d851c601461009d57806334522288146100985780634ec4b11d146100935780635fb7470f1461008e57806374e18190146100895780639e8d2c63146100845763e54ecaaa0361000e5761059e565b610568565b6104c1565b610400565b6103c7565b61038e565b6102e5565b6101fc565b610145565b60e01c90565b60405190565b5f80fd5b5f80fd5b90565b6100cc816100c0565b036100d357565b5f80fd5b905035906100e4826100c3565b565b906020828203126100ff576100fc915f016100d7565b90565b6100bc565b90565b61011b610116610120926100c0565b610104565b6100c0565b90565b61012c90610107565b9052565b9190610143905f60208501940190610123565b565b346101755761017161016061015b3660046100e6565b6105e2565b6101686100b2565b91829182610130565b0390f35b6100b8565b90565b6101868161017a565b0361018d57565b5f80fd5b9050359061019e8261017d565b565b906020828203126101b9576101b6915f01610191565b90565b6100bc565b6101d26101cd6101d79261017a565b610104565b61017a565b90565b6101e3906101be565b9052565b91906101fa905f602085019401906101da565b565b3461022c576102286102176102123660046101a0565b610617565b61021f6100b2565b918291826101e7565b0390f35b6100b8565b61023a8161017a565b0361024157565b5f80fd5b9050359061025282610231565b565b6080818303126102955761026a825f83016100d7565b9261029261027b8460208501610191565b936102898160408601610245565b93606001610245565b90565b6100bc565b6102a3906101be565b9052565b6102dc6102e3946102d26060949897956102c8608086019a5f870190610123565b60208501906101da565b604083019061029a565b019061029a565b565b3461031d576103196103046102fb366004610254565b92919091610649565b906103109492946100b2565b948594856102a7565b0390f35b6100b8565b90916060828403126103575761035461033d845f8501610191565b9361034b8160208601610245565b93604001610245565b90565b6100bc565b60409061038561038c949695939661037b60608401985f8501906101da565b602083019061029a565b019061029a565b565b346103c2576103be6103aa6103a4366004610322565b916106c4565b6103b59391936100b2565b9384938461035c565b0390f35b6100b8565b346103fb576103f76103e36103dd366004610322565b91610726565b6103ee9391936100b2565b9384938461035c565b0390f35b6100b8565b346104385761043461041f610416366004610254565b929190916107a5565b9061042b9492946100b2565b948594856102a7565b0390f35b6100b8565b60808183031261047e57610453825f8301610191565b9261047b6104648460208501610191565b9361047281604086016100d7565b936060016100d7565b90565b6100bc565b6104b86104bf946104ae6060949897956104a4608086019a5f8701906101da565b60208501906101da565b6040830190610123565b0190610123565b565b346104f9576104f56104e06104d736600461043d565b92919091610845565b906104ec9492946100b2565b94859485610483565b0390f35b6100b8565b151590565b61050c816104fe565b0361051357565b5f80fd5b9050359061052482610503565b565b919060408382031261054e578061054261054b925f8601610245565b93602001610517565b90565b6100bc565b9190610566905f6020850194019061029a565b565b346105995761059561058461057e366004610526565b906108a9565b61058c6100b2565b91829182610553565b0390f35b6100b8565b346105d1576105cd6105b96105b43660046101a0565b6108e0565b6105c49391936100b2565b9384938461035c565b0390f35b6100b8565b5f80fd5b5f90565b5f90565b6002610610916105f06105da565b506105f96105de565b50604051906040820160405260f01b81520161093c565b90565b5f90565b61064290610623610613565b5061062c6105de565b50604051906040820160405260c01b8152610950565b90565b5f90565b909392610696926106586105da565b50610661610613565b5061066a610645565b50610673610645565b5061067c6105de565b506002604051019560408701604052869390919293610960565b61069f8261093c565b916106a981610950565b916106c16106b8835f90610980565b92600190610980565b90565b61070291926106d1610613565b506106da610645565b506106e3610645565b506106ec6105de565b5060405193604085016040528492909192610999565b61070b81610950565b9161072361071a835f90610980565b92600190610980565b90565b9061077b61078192610736610613565b5061073f610645565b50610748610645565b506107516105de565b5061075a6105de565b50604051946040860160405260405193604085016040528492909192610999565b826109b3565b61078a81610950565b916107a2610799835f90610980565b92600190610980565b90565b93926108179291610811916107b86105da565b506107c1610613565b506107ca610645565b506107d3610645565b506107dc6105de565b506107e56105de565b50600280604051604081016040520197604051906040820160405260f01b815201938492909192610999565b836109ba565b6108208261093c565b9161082a81610950565b91610842610839835f90610980565b92600190610980565b90565b90926108a393600293610856610613565b5061085f610613565b506108686105da565b506108716105da565b5061087a6105de565b50604051936080850160405260b01b9060f01b17835260b01b9060f01b176040820152016109f3565b90919293565b906108dd916108b6610645565b506108bf6105de565b50604051906040820160405260281b82601b02600801820152610980565b90565b6108e8610613565b506108f1610645565b506108fa610645565b506109036105de565b50610918604051916040830160405282610a53565b61092181610950565b91610939610930835f90610980565b92600190610980565b90565b6002906109476105da565b50035160f01c90565b610958610613565b505160c01c90565b602091926022820394855196601e84015260038301526018820352035252565b90610989610645565b5015601b02602303015160281c90565b6018906020810393845195601e8301526003820152035252565b90603e915e565b6002806040930391035e565b90565b6109dd6109d86109e2926109c6565b610104565b6100c0565b90565b906109f091016100c0565b90565b906109fc610613565b50610a05610613565b50610a0e6105da565b50610a176105da565b50610a218261093c565b610a3e610a2d84610950565b93610a3860406109c9565b906109e5565b610a50610a4a8261093c565b91610950565b92565b90610a6b91610a6182610b17565b9192909192610999565b565b90565b610a84610a7f610a8992610a6d565b610104565b6100c0565b90565b90565b610aa3610a9e610aa892610a8c565b610104565b6100c0565b90565b610abf610aba610ac4926100c0565b610104565b61017a565b90565b90565b60ff1690565b610ae4610adf610ae992610ac7565b610104565b610aca565b90565b1c90565b610b0f90610b09610b03610b1494610aca565b916100c0565b90610aec565b6100c0565b90565b610b3290610b23610645565b50610b2c610645565b50610d99565b610ba8610ba3610b9e610b8d610b88610b837ff1aaddd7742e56d32fb9f997447d9e6314db84884fabab26bf059af9bc20b609600160c11b610b7d610b778a93610a70565b91610a8f565b90611016565b610aab565b6101be565b93610b986028610ad0565b90610af0565b610aab565b6101be565b91565b610bbf610bba610bc49261017a565b610104565b6100c0565b90565b90610bd291026100c0565b90565b90565b610bec610be7610bf192610bd5565b610104565b6100c0565b90565b90565b610c0b610c06610c1092610bf4565b610104565b6100c0565b90565b634e487b7160e01b5f52601260045260245ffd5b610c33610c39916100c0565b916100c0565b908115610c44570490565b610c13565b90565b610c60610c5b610c6592610c49565b610104565b6100c0565b90565b90565b610c7f610c7a610c8492610c68565b610104565b6100c0565b90565b90565b610c9e610c99610ca392610c87565b610104565b6100c0565b90565b90565b610cbd610cb8610cc292610ca6565b610104565b6100c0565b90565b90565b610cdc610cd7610ce192610cc5565b610104565b610aca565b90565b1b90565b610d0790610d01610cfb610d0c94610aca565b916100c0565b90610ce4565b6100c0565b90565b90565b610d26610d21610d2b92610d0f565b610104565b6100c0565b90565b90565b610d45610d40610d4a92610d2e565b610104565b6100c0565b90565b90565b610d64610d5f610d6992610d4d565b610104565b6100c0565b90565b90610d7791036100c0565b90565b90565b610d91610d8c610d9692610d7a565b610104565b610aca565b90565b610f77610db9610db4610f8793610dae6105de565b506101be565b610bab565b610dc4818290610bc7565b90610f35610f22610dd6848590610bc7565b610dde6105de565b50610f1c610f015f19600160801b600160801b858a095f19868b09030992610e046105de565b50610efb610ee4610ed4610ec3610eb08c610eaa610e94610e71610e51610e418b80025f198d80090395610e3b600760681b610bd8565b90610bc7565b610e4b600f610bf7565b90610c27565b610e6b8b610e656609c00000000000610c4c565b90610c27565b906109e5565b610e8e8d610e8869c9180000000000000000610c6b565b90610c27565b906109e5565b91610ea4621eee11605a1b610c8a565b90610c27565b906109e5565b610ebd600160fe1b610ca9565b906109e5565b9a610ece606a610cc8565b90610ce8565b610ede600f610bf7565b90610c27565b91610ef56624900000000000610d12565b90610c27565b906109e5565b91610f166a06df920000000000000000610d31565b90610c27565b906109e5565b610f2f600160ff1b610d50565b906109e5565b905f1991600160b41b916001604c1b828209915f1991090309610f71610f6b610f5f848490610d6c565b92600160fe1b946109e5565b92610ca9565b90611016565b610f816002610d7d565b90610ce8565b808002905f1990800903808002905f1990800903808002905f1990800903808002905f1990800903808002905f1990800903808002905f1990800903808002905f1990800903808002905f1990800903808002905f1990800903808002905f1990800903808002905f1990800903808002905f1990800903808002905f1990800903808002905f199080090390565b90916110206105de565b506001810392839181840982039209089056fea264697066735822122028df148b9d73df053fffe23d0ff9bbc5a8ebbece2c8c2dd8f7cad574f700500364736f6c63430008220033","linkReferences":{}},"methodIdentifiers":{"copyPrice(int256,int256,int256)":"4ec4b11d","copyPriceWithHeight(uint256,int256,int256,int256)":"5fb7470f","height(uint256)":"0c27dd38","log(int256)":"2d5b6cb9","segment(int256,int256,uint256,uint256)":"74e18190","sqrt(int256,bool)":"9e8d2c63","storePrice(int256)":"e54ecaaa","storePrice(int256,int256,int256)":"34522288","storePrice(uint256,int256,int256,int256)":"2d851c60"},"id":26}