{"abi":[{"type":"function","name":"midBurn","inputs":[{"name":"hookInput","type":"bytes","internalType":"bytes"}],"outputs":[{"name":"","type":"bytes4","internalType":"bytes4"}],"stateMutability":"nonpayable"},{"type":"function","name":"midDonate","inputs":[{"name":"hookInput","type":"bytes","internalType":"bytes"}],"outputs":[{"name":"","type":"bytes4","internalType":"bytes4"}],"stateMutability":"nonpayable"},{"type":"function","name":"midMint","inputs":[{"name":"hookInput","type":"bytes","internalType":"bytes"}],"outputs":[{"name":"","type":"bytes4","internalType":"bytes4"}],"stateMutability":"nonpayable"},{"type":"function","name":"midModifyKernel","inputs":[{"name":"hookInput","type":"bytes","internalType":"bytes"}],"outputs":[{"name":"","type":"bytes4","internalType":"bytes4"}],"stateMutability":"nonpayable"},{"type":"function","name":"midSwap","inputs":[{"name":"hookInput","type":"bytes","internalType":"bytes"}],"outputs":[{"name":"","type":"bytes4","internalType":"bytes4"}],"stateMutability":"nonpayable"},{"type":"function","name":"postBurn","inputs":[{"name":"hookInput","type":"bytes","internalType":"bytes"}],"outputs":[{"name":"","type":"bytes4","internalType":"bytes4"}],"stateMutability":"nonpayable"},{"type":"function","name":"postDonate","inputs":[{"name":"hookInput","type":"bytes","internalType":"bytes"}],"outputs":[{"name":"","type":"bytes4","internalType":"bytes4"}],"stateMutability":"nonpayable"},{"type":"function","name":"postInitialize","inputs":[{"name":"hookInput","type":"bytes","internalType":"bytes"}],"outputs":[{"name":"","type":"bytes4","internalType":"bytes4"}],"stateMutability":"nonpayable"},{"type":"function","name":"postMint","inputs":[{"name":"hookInput","type":"bytes","internalType":"bytes"}],"outputs":[{"name":"","type":"bytes4","internalType":"bytes4"}],"stateMutability":"nonpayable"},{"type":"function","name":"postModifyKernel","inputs":[{"name":"hookInput","type":"bytes","internalType":"bytes"}],"outputs":[{"name":"","type":"bytes4","internalType":"bytes4"}],"stateMutability":"nonpayable"},{"type":"function","name":"postSwap","inputs":[{"name":"hookInput","type":"bytes","internalType":"bytes"}],"outputs":[{"name":"","type":"bytes4","internalType":"bytes4"}],"stateMutability":"nonpayable"},{"type":"function","name":"preBurn","inputs":[{"name":"hookInput","type":"bytes","internalType":"bytes"}],"outputs":[{"name":"","type":"bytes4","internalType":"bytes4"}],"stateMutability":"nonpayable"},{"type":"function","name":"preDonate","inputs":[{"name":"hookInput","type":"bytes","internalType":"bytes"}],"outputs":[{"name":"","type":"bytes4","internalType":"bytes4"}],"stateMutability":"nonpayable"},{"type":"function","name":"preInitialize","inputs":[{"name":"hookInput","type":"bytes","internalType":"bytes"}],"outputs":[{"name":"","type":"bytes4","internalType":"bytes4"}],"stateMutability":"nonpayable"},{"type":"function","name":"preMint","inputs":[{"name":"hookInput","type":"bytes","internalType":"bytes"}],"outputs":[{"name":"","type":"bytes4","internalType":"bytes4"}],"stateMutability":"nonpayable"},{"type":"function","name":"preModifyKernel","inputs":[{"name":"hookInput","type":"bytes","internalType":"bytes"}],"outputs":[{"name":"","type":"bytes4","internalType":"bytes4"}],"stateMutability":"nonpayable"},{"type":"function","name":"preSwap","inputs":[{"name":"hookInput","type":"bytes","internalType":"bytes"}],"outputs":[{"name":"","type":"bytes4","internalType":"bytes4"}],"stateMutability":"nonpayable"},{"type":"error","name":"InvalidHook","inputs":[]}],"bytecode":{"object":"0x608060405234601c57600e6020565b61064261002b823961064290f35b6026565b60405190565b5f80fdfe60806040526004361015610013575b61038a565b61001d5f3561012c565b806313a6d3411461012757806314ea355b146101225780631da0c40d1461011d5780635279ad9d1461011857806359350e8a146101135780635e2b908e1461010e5780635eac6a2d14610109578063716a5da4146101045780637ec4a7fc146100ff578063801b2eba146100fa5780639fc41e54146100f5578063a048233f146100f0578063bf0e78db146100eb578063cb5e7318146100e6578063d243037e146100e1578063f16c1940146100dc5763f3a792070361000e5761036f565b610354565b610339565b61031e565b610303565b6102e8565b6102cd565b6102b2565b610297565b61027c565b610261565b610246565b61022b565b610210565b6101f5565b6101da565b6101bf565b60e01c90565b5f80fd5b5f80fd5b5f80fd5b5f80fd5b5f80fd5b5f80fd5b909182601f830112156101845781359167ffffffffffffffff831161017f57602001926001830284011161017a57565b610146565b610142565b61013e565b906020828203126101ba575f82013567ffffffffffffffff81116101b5576101b1920161014a565b9091565b61013a565b610136565b346101d5576101cf366004610189565b90610397565b610132565b346101f0576101ea366004610189565b906103bc565b610132565b3461020b57610205366004610189565b906103e1565b610132565b3461022657610220366004610189565b90610406565b610132565b346102415761023b366004610189565b9061042b565b610132565b3461025c57610256366004610189565b90610450565b610132565b3461027757610271366004610189565b90610475565b610132565b346102925761028c366004610189565b9061049a565b610132565b346102ad576102a7366004610189565b906104bf565b610132565b346102c8576102c2366004610189565b906104e4565b610132565b346102e3576102dd366004610189565b90610509565b610132565b346102fe576102f8366004610189565b9061052e565b610132565b3461031957610313366004610189565b90610553565b610132565b346103345761032e366004610189565b90610578565b610132565b3461034f57610349366004610189565b9061059d565b610132565b3461036a57610364366004610189565b906105c2565b610132565b346103855761037f366004610189565b906105e7565b610132565b5f80fd5b5f90565b5f0190565b61039f61038e565b505f639c9d882360e01b8152806103b860048201610392565b0390fd5b6103c461038e565b505f639c9d882360e01b8152806103dd60048201610392565b0390fd5b6103e961038e565b505f639c9d882360e01b81528061040260048201610392565b0390fd5b61040e61038e565b505f639c9d882360e01b81528061042760048201610392565b0390fd5b61043361038e565b505f639c9d882360e01b81528061044c60048201610392565b0390fd5b61045861038e565b505f639c9d882360e01b81528061047160048201610392565b0390fd5b61047d61038e565b505f639c9d882360e01b81528061049660048201610392565b0390fd5b6104a261038e565b505f639c9d882360e01b8152806104bb60048201610392565b0390fd5b6104c761038e565b505f639c9d882360e01b8152806104e060048201610392565b0390fd5b6104ec61038e565b505f639c9d882360e01b81528061050560048201610392565b0390fd5b61051161038e565b505f639c9d882360e01b81528061052a60048201610392565b0390fd5b61053661038e565b505f639c9d882360e01b81528061054f60048201610392565b0390fd5b61055b61038e565b505f639c9d882360e01b81528061057460048201610392565b0390fd5b61058061038e565b505f639c9d882360e01b81528061059960048201610392565b0390fd5b6105a561038e565b505f639c9d882360e01b8152806105be60048201610392565b0390fd5b6105ca61038e565b505f639c9d882360e01b8152806105e360048201610392565b0390fd5b6105ef61038e565b505f639c9d882360e01b81528061060860048201610392565b0390fdfea2646970667358221220abefde06dbc2a2eea5434e010a160c71402472b7897232abad6bf13d0358ee3164736f6c63430008220033","linkReferences":{}},"methodIdentifiers":{"midBurn(bytes)":"13a6d341","midDonate(bytes)":"bf0e78db","midMint(bytes)":"14ea355b","midModifyKernel(bytes)":"7ec4a7fc","midSwap(bytes)":"716a5da4","postBurn(bytes)":"cb5e7318","postDonate(bytes)":"5e2b908e","postInitialize(bytes)":"5eac6a2d","postMint(bytes)":"f3a79207","postModifyKernel(bytes)":"5279ad9d","postSwap(bytes)":"d243037e","preBurn(bytes)":"9fc41e54","preDonate(bytes)":"a048233f","preInitialize(bytes)":"f16c1940","preMint(bytes)":"801b2eba","preModifyKernel(bytes)":"1da0c40d","preSwap(bytes)":"59350e8a"},"id":42}