{"abi":[{"type":"function","name":"updateGrowthWrapper","inputs":[{"name":"_growth","type":"int256","internalType":"X111"},{"name":"_protocolGrowthPortion","type":"uint256","internalType":"X47"},{"name":"_poolGrowthPortion","type":"uint256","internalType":"X47"},{"name":"numerator","type":"int256","internalType":"X216"},{"name":"denominator","type":"int256","internalType":"X216"}],"outputs":[{"name":"updatedGrowth","type":"int256","internalType":"X111"}],"stateMutability":"nonpayable"},{"type":"error","name":"GrowthOverflow","inputs":[]}],"bytecode":{"object":"0x608060405234601c57600e6020565b61069561002b823961069590f35b6026565b60405190565b5f80fdfe60806040526004361015610013575b61017f565b61001d5f3561002c565b639472f83d0361000e57610146565b60e01c90565b60405190565b5f80fd5b5f80fd5b90565b61004c81610040565b0361005357565b5f80fd5b9050359061006482610043565b565b90565b61007281610066565b0361007957565b5f80fd5b9050359061008a82610069565b565b61009581610040565b0361009c57565b5f80fd5b905035906100ad8261008c565b565b919060a083820312610100576100c7815f8501610057565b926100d5826020830161007d565b926100fd6100e6846040850161007d565b936100f481606086016100a0565b936080016100a0565b90565b61003c565b90565b61011c61011761012192610040565b610105565b610040565b90565b61012d90610108565b9052565b9190610144905f60208501940190610124565b565b3461017a5761017661016561015c3660046100af565b93929092610187565b61016d610032565b91829182610131565b0390f35b610038565b5f80fd5b5f90565b906101af94926101a26101a79261019c610183565b506101b2565b6101c7565b9190916101f8565b90565b6006610800015160301c9060d01b1761080052565b60066107f4015160301c9060d01b176107f452565b6101f06101eb6101f592610040565b610105565b610066565b90565b9161022061021b6102156102269561020e610183565b5094610108565b92610108565b6101dc565b916102f0565b90565b5f90565b5f0190565b1561023957565b5f636dd3b1dd60e11b8152806102516004820161022d565b0390fd5b90565b60ff1690565b61027261026d61027792610255565b610105565b610258565b90565b1c90565b61029d906102976102916102a294610258565b91610066565b9061027a565b610066565b90565b6102b96102b46102be92610066565b610105565b610040565b90565b90565b6102d86102d36102dd926102c1565b610105565b610040565b90565b6102ed6001607f1b6102c4565b90565b9061038461037f61036f61038f956103136103899561030d610183565b506101dc565b9061031c6103b0565b876103256103c3565b9161032e610229565b500288602f1b0380910290602f1b039661036661034c8985906103d6565b905061036061035a85610066565b91610066565b10610232565b96919091610437565b610379605e61025e565b9061027e565b6102a5565b610108565b906104c8565b906103aa6103a58361039f6102e0565b906104de565b610232565b565b5f90565b6103b86103ac565b506108005160d01c90565b6103cb6103ac565b506107f45160d01c90565b91906103e0610229565b506103e9610229565b505f198184099202918280821091030390565b90565b61041361040e610418926103fc565b610105565b610066565b90565b906104269103610066565b90565b906104349102610066565b90565b61043f610229565b5061044b8183906103d6565b929092918261046261045c5f6103ff565b91610066565b146104c1576104b892856104be96936104b19361047d610229565b5009908582119003940393600161049d5f61049886916103ff565b61041b565b841680809504960493805f03040190610429565b179161053b565b90610429565b90565b5050500490565b6104d0610183565b500190565b5f90565b151590565b6104fa916104f4916104ee6104d5565b50610652565b156104d9565b90565b90565b61051461050f610519926104fd565b610105565b610066565b90565b90565b61053361052e6105389261051c565b610105565b610066565b90565b61064f90610547610229565b5061064961062d6106096105e56105c161059d61056e60036105698991610500565b610429565b610578600261051f565b18610597600261059261058c8b8590610429565b9161051f565b61041b565b90610429565b6105bb60026105b66105b08a8590610429565b9161051f565b61041b565b90610429565b6105df60026105da6105d4898590610429565b9161051f565b61041b565b90610429565b61060360026105fe6105f8888590610429565b9161051f565b61041b565b90610429565b610627600261062261061c878590610429565b9161051f565b61041b565b90610429565b9161064461063e6002928590610429565b9161051f565b61041b565b90610429565b90565b61065a6104d5565b50139056fea26469706673582212207c39fc210d6fe372a9fdfa45cbbaf458cd87e47dba83caee24cba6762cc92a1964736f6c63430008220033","linkReferences":{}},"methodIdentifiers":{"updateGrowthWrapper(int256,uint256,uint256,int256,int256)":"9472f83d"},"id":16}