{"abi":[{"type":"function","name":"transientAccess","inputs":[{"name":"slot","type":"bytes32","internalType":"bytes32"}],"outputs":[{"name":"","type":"bytes32","internalType":"bytes32"}],"stateMutability":"view"},{"type":"function","name":"transientAccess","inputs":[{"name":"slots","type":"bytes32[]","internalType":"bytes32[]"}],"outputs":[{"name":"","type":"bytes32[]","internalType":"bytes32[]"}],"stateMutability":"view"},{"type":"function","name":"transientAccess","inputs":[{"name":"startSlot","type":"bytes32","internalType":"bytes32"},{"name":"nSlots","type":"uint256","internalType":"uint256"}],"outputs":[{"name":"","type":"bytes32[]","internalType":"bytes32[]"}],"stateMutability":"view"}],"bytecode":{"object":"0x6080806040523460155761017e908161001a8239f35b5f80fdfe60806040526004361015610011575f80fd5b5f3560e01c8063834178fe1461012c578063b84a0dd21461009d5763d02bdb621461003a575f80fd5b34610099576040366003190112610099576024356004356040519160408360208152826020820152019060051b8301916001602060408501935b835c815201910190848382101561009057506020600191610074565b60408186030190f35b5f80fd5b34610099576020366003190112610099576004356001600160401b0381116100995736602382011215610099576004810135906001600160401b038211610099578160051b9036602483830101116100995760408051809460208252602082015201918301916020806024604086019401925b83355c8152019101908483821015610090575060208091610110565b34610099576020366003190112610099576004355c5f5260205ff3fea2646970667358221220b6a0f740391a9b5d8c4dca6ea8ab98c3a4081f8616329e7558153bd0ecb56df664736f6c63430008220033","linkReferences":{}},"methodIdentifiers":{"transientAccess(bytes32)":"834178fe","transientAccess(bytes32,uint256)":"d02bdb62","transientAccess(bytes32[])":"b84a0dd2"},"id":2}