{"abi":[{"type":"constructor","inputs":[{"name":"_delegatee","type":"address","internalType":"address"},{"name":"admin","type":"address","internalType":"address"}],"stateMutability":"nonpayable"},{"type":"function","name":"allowance","inputs":[{"name":"owner","type":"address","internalType":"address"},{"name":"spender","type":"address","internalType":"address"},{"name":"tag","type":"uint256","internalType":"Tag"}],"outputs":[{"name":"amount","type":"uint256","internalType":"uint256"}],"stateMutability":"view"},{"type":"function","name":"approve","inputs":[{"name":"spender","type":"address","internalType":"address"},{"name":"tag","type":"uint256","internalType":"Tag"},{"name":"amount","type":"uint256","internalType":"uint256"}],"outputs":[{"name":"success","type":"bool","internalType":"bool"}],"stateMutability":"nonpayable"},{"type":"function","name":"balanceOf","inputs":[{"name":"owner","type":"address","internalType":"address"},{"name":"tag","type":"uint256","internalType":"Tag"}],"outputs":[{"name":"amount","type":"uint256","internalType":"uint256"}],"stateMutability":"view"},{"type":"function","name":"clear","inputs":[{"name":"tag","type":"uint256","internalType":"Tag"},{"name":"amount","type":"uint256","internalType":"uint256"}],"outputs":[],"stateMutability":"nonpayable"},{"type":"function","name":"dispatch","inputs":[{"name":"input","type":"bytes","internalType":"bytes"}],"outputs":[{"name":"output0","type":"int256","internalType":"int256"},{"name":"output1","type":"int256","internalType":"int256"}],"stateMutability":"nonpayable"},{"type":"function","name":"isOperator","inputs":[{"name":"owner","type":"address","internalType":"address"},{"name":"spender","type":"address","internalType":"address"}],"outputs":[{"name":"status","type":"bool","internalType":"bool"}],"stateMutability":"view"},{"type":"function","name":"modifyBalance","inputs":[{"name":"owner","type":"address","internalType":"address"},{"name":"tag0","type":"uint256","internalType":"Tag"},{"name":"tag1","type":"uint256","internalType":"Tag"},{"name":"amount0","type":"int256","internalType":"int256"},{"name":"amount1","type":"int256","internalType":"int256"}],"outputs":[],"stateMutability":"nonpayable"},{"type":"function","name":"modifyBalance","inputs":[{"name":"owner","type":"address","internalType":"address"},{"name":"tag","type":"uint256","internalType":"Tag"},{"name":"amount","type":"int256","internalType":"int256"}],"outputs":[],"stateMutability":"nonpayable"},{"type":"function","name":"onERC1155BatchReceived","inputs":[{"name":"","type":"address","internalType":"address"},{"name":"","type":"address","internalType":"address"},{"name":"","type":"uint256[]","internalType":"uint256[]"},{"name":"","type":"uint256[]","internalType":"uint256[]"},{"name":"","type":"bytes","internalType":"bytes"}],"outputs":[{"name":"","type":"bytes4","internalType":"bytes4"}],"stateMutability":"pure"},{"type":"function","name":"onERC1155Received","inputs":[{"name":"","type":"address","internalType":"address"},{"name":"","type":"address","internalType":"address"},{"name":"","type":"uint256","internalType":"uint256"},{"name":"","type":"uint256","internalType":"uint256"},{"name":"","type":"bytes","internalType":"bytes"}],"outputs":[{"name":"","type":"bytes4","internalType":"bytes4"}],"stateMutability":"pure"},{"type":"function","name":"setOperator","inputs":[{"name":"spender","type":"address","internalType":"address"},{"name":"approved","type":"bool","internalType":"bool"}],"outputs":[{"name":"success","type":"bool","internalType":"bool"}],"stateMutability":"nonpayable"},{"type":"function","name":"settle","inputs":[],"outputs":[{"name":"paid","type":"uint256","internalType":"uint256"}],"stateMutability":"payable"},{"type":"function","name":"storageAccess","inputs":[{"name":"slot","type":"bytes32","internalType":"bytes32"}],"outputs":[{"name":"","type":"bytes32","internalType":"bytes32"}],"stateMutability":"view"},{"type":"function","name":"storageAccess","inputs":[{"name":"startSlot","type":"bytes32","internalType":"bytes32"},{"name":"nSlots","type":"uint256","internalType":"uint256"}],"outputs":[{"name":"","type":"bytes32[]","internalType":"bytes32[]"}],"stateMutability":"view"},{"type":"function","name":"storageAccess","inputs":[{"name":"slots","type":"bytes32[]","internalType":"bytes32[]"}],"outputs":[{"name":"","type":"bytes32[]","internalType":"bytes32[]"}],"stateMutability":"view"},{"type":"function","name":"supportsInterface","inputs":[{"name":"interfaceId","type":"bytes4","internalType":"bytes4"}],"outputs":[{"name":"","type":"bool","internalType":"bool"}],"stateMutability":"pure"},{"type":"function","name":"swap","inputs":[{"name":"poolId","type":"uint256","internalType":"uint256"},{"name":"amountSpecified","type":"int256","internalType":"int256"},{"name":"logPriceLimit","type":"int256","internalType":"X59"},{"name":"zeroForOne","type":"uint256","internalType":"uint256"},{"name":"hookData","type":"bytes","internalType":"bytes"}],"outputs":[{"name":"amount0","type":"int256","internalType":"int256"},{"name":"amount1","type":"int256","internalType":"int256"}],"stateMutability":"nonpayable"},{"type":"function","name":"sync","inputs":[{"name":"token","type":"address","internalType":"address"}],"outputs":[],"stateMutability":"nonpayable"},{"type":"function","name":"sync","inputs":[{"name":"token","type":"address","internalType":"address"},{"name":"tokenId","type":"uint256","internalType":"uint256"}],"outputs":[],"stateMutability":"nonpayable"},{"type":"function","name":"take","inputs":[{"name":"token","type":"address","internalType":"address"},{"name":"tokenId","type":"uint256","internalType":"uint256"},{"name":"to","type":"address","internalType":"address"},{"name":"amount","type":"uint256","internalType":"uint256"}],"outputs":[],"stateMutability":"nonpayable"},{"type":"function","name":"take","inputs":[{"name":"token","type":"address","internalType":"address"},{"name":"to","type":"address","internalType":"address"},{"name":"amount","type":"uint256","internalType":"uint256"}],"outputs":[],"stateMutability":"nonpayable"},{"type":"function","name":"take","inputs":[{"name":"token","type":"address","internalType":"address"},{"name":"tokenId","type":"uint256","internalType":"uint256"},{"name":"to","type":"address","internalType":"address"},{"name":"amount","type":"uint256","internalType":"uint256"},{"name":"transferData","type":"bytes","internalType":"bytes"}],"outputs":[],"stateMutability":"nonpayable"},{"type":"function","name":"transfer","inputs":[{"name":"receiver","type":"address","internalType":"address"},{"name":"tag","type":"uint256","internalType":"Tag"},{"name":"amount","type":"uint256","internalType":"uint256"}],"outputs":[{"name":"success","type":"bool","internalType":"bool"}],"stateMutability":"nonpayable"},{"type":"function","name":"transferFrom","inputs":[{"name":"sender","type":"address","internalType":"address"},{"name":"receiver","type":"address","internalType":"address"},{"name":"tag","type":"uint256","internalType":"Tag"},{"name":"amount","type":"uint256","internalType":"uint256"}],"outputs":[{"name":"success","type":"bool","internalType":"bool"}],"stateMutability":"nonpayable"},{"type":"function","name":"transferTransientBalanceFrom","inputs":[{"name":"sender","type":"address","internalType":"address"},{"name":"receiver","type":"address","internalType":"address"},{"name":"tag","type":"uint256","internalType":"Tag"},{"name":"amount","type":"uint256","internalType":"uint256"}],"outputs":[],"stateMutability":"nonpayable"},{"type":"function","name":"transientAccess","inputs":[{"name":"slot","type":"bytes32","internalType":"bytes32"}],"outputs":[{"name":"","type":"bytes32","internalType":"bytes32"}],"stateMutability":"view"},{"type":"function","name":"transientAccess","inputs":[{"name":"slots","type":"bytes32[]","internalType":"bytes32[]"}],"outputs":[{"name":"","type":"bytes32[]","internalType":"bytes32[]"}],"stateMutability":"view"},{"type":"function","name":"transientAccess","inputs":[{"name":"startSlot","type":"bytes32","internalType":"bytes32"},{"name":"nSlots","type":"uint256","internalType":"uint256"}],"outputs":[{"name":"","type":"bytes32[]","internalType":"bytes32[]"}],"stateMutability":"view"},{"type":"function","name":"unlock","inputs":[{"name":"unlockTarget","type":"address","internalType":"address"},{"name":"data","type":"bytes","internalType":"bytes"}],"outputs":[{"name":"result","type":"bytes","internalType":"bytes"}],"stateMutability":"payable"},{"type":"event","name":"Approval","inputs":[{"name":"owner","type":"address","indexed":true,"internalType":"address"},{"name":"spender","type":"address","indexed":true,"internalType":"address"},{"name":"tag","type":"uint256","indexed":true,"internalType":"Tag"},{"name":"amount","type":"uint256","indexed":false,"internalType":"uint256"}],"anonymous":false},{"type":"event","name":"Donate","inputs":[{"name":"poolId","type":"uint256","indexed":true,"internalType":"uint256"},{"name":"caller","type":"address","indexed":true,"internalType":"address"},{"name":"data","type":"bytes32","indexed":false,"internalType":"bytes32"}],"anonymous":false},{"type":"event","name":"Initialize","inputs":[{"name":"poolId","type":"uint256","indexed":true,"internalType":"uint256"},{"name":"tag0","type":"uint256","indexed":true,"internalType":"Tag"},{"name":"tag1","type":"uint256","indexed":true,"internalType":"Tag"},{"name":"data","type":"bytes","indexed":false,"internalType":"bytes"}],"anonymous":false},{"type":"event","name":"ModifyDoubleBalanceEvent","inputs":[{"name":"caller","type":"address","indexed":true,"internalType":"address"},{"name":"owner","type":"address","indexed":true,"internalType":"address"},{"name":"tag","type":"uint256","indexed":true,"internalType":"Tag"},{"name":"increment","type":"int256","indexed":false,"internalType":"int256"},{"name":"balance","type":"uint256","indexed":false,"internalType":"uint256"}],"anonymous":false},{"type":"event","name":"ModifyKernel","inputs":[{"name":"poolId","type":"uint256","indexed":true,"internalType":"uint256"},{"name":"caller","type":"address","indexed":true,"internalType":"address"},{"name":"data","type":"bytes","indexed":false,"internalType":"bytes"}],"anonymous":false},{"type":"event","name":"ModifyPoolGrowthPortion","inputs":[{"name":"poolId","type":"uint256","indexed":true,"internalType":"uint256"},{"name":"caller","type":"address","indexed":true,"internalType":"address"},{"name":"data","type":"bytes32","indexed":false,"internalType":"bytes32"}],"anonymous":false},{"type":"event","name":"ModifyPoolOwner","inputs":[{"name":"poolId","type":"uint256","indexed":true,"internalType":"uint256"},{"name":"oldOwner","type":"address","indexed":true,"internalType":"address"},{"name":"newOwner","type":"address","indexed":true,"internalType":"address"}],"anonymous":false},{"type":"event","name":"ModifyPosition","inputs":[{"name":"poolId","type":"uint256","indexed":true,"internalType":"uint256"},{"name":"caller","type":"address","indexed":true,"internalType":"address"},{"name":"data","type":"bytes32[6]","indexed":false,"internalType":"bytes32[6]"}],"anonymous":false},{"type":"event","name":"ModifyProtocol","inputs":[{"name":"newOwner","type":"address","indexed":true,"internalType":"address"},{"name":"newProtocol","type":"uint256","indexed":false,"internalType":"uint256"}],"anonymous":false},{"type":"event","name":"ModifySentinel","inputs":[{"name":"oldSentinel","type":"address","indexed":false,"internalType":"contract ISentinel"},{"name":"newSentinel","type":"address","indexed":false,"internalType":"contract ISentinel"}],"anonymous":false},{"type":"event","name":"OperatorSet","inputs":[{"name":"owner","type":"address","indexed":true,"internalType":"address"},{"name":"operator","type":"address","indexed":true,"internalType":"address"},{"name":"approved","type":"bool","indexed":false,"internalType":"bool"}],"anonymous":false},{"type":"event","name":"PoolCollection","inputs":[{"name":"poolId","type":"uint256","indexed":true,"internalType":"uint256"},{"name":"owner","type":"address","indexed":true,"internalType":"address"},{"name":"amount0","type":"uint256","indexed":false,"internalType":"uint256"},{"name":"amount1","type":"uint256","indexed":false,"internalType":"uint256"}],"anonymous":false},{"type":"event","name":"ProtocolCollection","inputs":[{"name":"poolId","type":"uint256","indexed":true,"internalType":"uint256"},{"name":"amount0","type":"uint256","indexed":false,"internalType":"uint256"},{"name":"amount1","type":"uint256","indexed":false,"internalType":"uint256"}],"anonymous":false},{"type":"event","name":"Swap","inputs":[{"name":"poolId","type":"uint256","indexed":true,"internalType":"uint256"},{"name":"caller","type":"address","indexed":true,"internalType":"address"},{"name":"data","type":"bytes32","indexed":false,"internalType":"bytes32"}],"anonymous":false},{"type":"event","name":"Transfer","inputs":[{"name":"caller","type":"address","indexed":false,"internalType":"address"},{"name":"from","type":"address","indexed":true,"internalType":"address"},{"name":"to","type":"address","indexed":true,"internalType":"address"},{"name":"tag","type":"uint256","indexed":true,"internalType":"Tag"},{"name":"amount","type":"uint256","indexed":false,"internalType":"uint256"}],"anonymous":false},{"type":"event","name":"UpdateGrowthPortions","inputs":[{"name":"poolId","type":"uint256","indexed":true,"internalType":"uint256"},{"name":"caller","type":"address","indexed":true,"internalType":"address"},{"name":"data","type":"bytes32","indexed":false,"internalType":"bytes32"}],"anonymous":false},{"type":"error","name":"AccruedGrowthPortionOverflow","inputs":[{"name":"accruedValue","type":"int256","internalType":"X127"}]},{"type":"error","name":"AlreadyUnlocked","inputs":[{"name":"currentCaller","type":"address","internalType":"address"}]},{"type":"error","name":"BalanceOverflow","inputs":[{"name":"balance","type":"uint256","internalType":"uint256"}]},{"type":"error","name":"CannotTransferToAddressZero","inputs":[]},{"type":"error","name":"CurveIndexOutOfRange","inputs":[{"name":"length","type":"uint256","internalType":"Index"}]},{"type":"error","name":"GrowthOverflow","inputs":[]},{"type":"error","name":"HookDataTooLong","inputs":[{"name":"hookDataByteCount","type":"uint256","internalType":"uint256"}]},{"type":"error","name":"InsufficientBalance","inputs":[{"name":"owner","type":"address","internalType":"address"},{"name":"tag","type":"uint256","internalType":"Tag"}]},{"type":"error","name":"InsufficientPermission","inputs":[{"name":"spender","type":"address","internalType":"address"},{"name":"tag","type":"uint256","internalType":"Tag"}]},{"type":"error","name":"InvalidDirection","inputs":[{"name":"current","type":"int256","internalType":"X59"},{"name":"limit","type":"int256","internalType":"X59"}]},{"type":"error","name":"MsgValueIsNonZero","inputs":[{"name":"msgValue","type":"uint256","internalType":"uint256"}]},{"type":"error","name":"NativeTokenCannotBeSynced","inputs":[]},{"type":"error","name":"NoDelegateCall","inputs":[{"name":"context","type":"address","internalType":"address"}]},{"type":"error","name":"NotEqualToTransientBalance","inputs":[{"name":"currentBalance","type":"int256","internalType":"int256"}]},{"type":"error","name":"OutstandingAmount","inputs":[]},{"type":"error","name":"PoolDoesNotExist","inputs":[{"name":"poolId","type":"uint256","internalType":"uint256"}]},{"type":"error","name":"PoolIsLocked","inputs":[{"name":"poolId","type":"uint256","internalType":"uint256"}]},{"type":"error","name":"ProtocolIsLocked","inputs":[]},{"type":"error","name":"SafeAddFailed","inputs":[{"name":"a","type":"int256","internalType":"X127"},{"name":"b","type":"int256","internalType":"X127"}]},{"type":"error","name":"SafeCastOverflow","inputs":[{"name":"value","type":"uint256","internalType":"uint256"}]},{"type":"error","name":"SafeInRangeAmountOverflow","inputs":[{"name":"sqrtOffsetOrSqrtInverseOffset","type":"int256","internalType":"X127"},{"name":"integral","type":"int256","internalType":"X216"},{"name":"liquidity","type":"int256","internalType":"X111"},{"name":"outgoingMax","type":"int256","internalType":"X216"},{"name":"outgoingMaxModularInverse","type":"uint256","internalType":"uint256"}]},{"type":"error","name":"SearchingForIncomingTargetFailed","inputs":[]},{"type":"error","name":"SearchingForOutgoingTargetFailed","inputs":[]},{"type":"error","name":"SearchingForOvershootFailed","inputs":[]},{"type":"error","name":"TagsOutOfOrder","inputs":[{"name":"tag0","type":"uint256","internalType":"Tag"},{"name":"tag1","type":"uint256","internalType":"Tag"}]}],"bytecode":{"object":"0x60c0346100a857601f61552d38819003918201601f19168301916001600160401b038311848410176100ac5780849260409485528339810103126100a857610052602061004b836100c0565b92016100c0565b3060805260a0919091526001600160a01b03167ffb342fa999fea16067b1f01baf96673f31a25f2b1443e6754d93fc40b57e8df15560405161545890816100d5823960805181611003015260a05181610bde0152f35b5f80fd5b634e487b7160e01b5f52604160045260245ffd5b51906001600160a01b03821682036100a85756fe60806040526004361015610011575f80fd5b5f3560e01c8062fdd58e146101e357806301ffc9a7146101de5780630720b584146101d9578063095bcdb6146101d45780630b0d9c09146101cf57806311da60b4146101ca5780631352ea35146101c55780632b7f670f146101c057806332269698146101bb57806341ee903e146101b6578063426a8493146101b157806349dff3ab146101ac578063558a7297146101a7578063598af9e7146101a2578063738c440a1461019d578063745fa65214610198578063834178fe1461019357806389c59eb91461018e578063a584119414610189578063ab7fff1814610184578063b6363cf21461017f578063b84a0dd21461017a578063bc197c8114610175578063bea556c914610170578063d02bdb621461016b578063da95455914610166578063ef4fcafa14610161578063f23a6e611461015c5763fe99049a14610157575f80fd5b610f56565b610f00565b610ea0565b610e5e565b610dc9565b610d25565b610c8d565b610c40565b610c09565b610b97565b610b35565b610ae8565b610a6e565b610a0e565b610924565b6108f5565b610869565b61073d565b6106dd565b610683565b61063b565b610582565b610539565b610426565b610390565b61036d565b6102b4565b61025e565b61022e565b600435906001600160a01b03821682036101fe57565b5f80fd5b604435906001600160a01b03821682036101fe57565b602435906001600160a01b03821682036101fe57565b346101fe5760403660031901126101fe57602061025561024c6101e8565b60243590611316565b54604051908152f35b346101fe5760203660031901126101fe5760043563ffffffff60e01b81168091036101fe576020906301ffc9a760e01b81149081156102a3575b506040519015158152f35b630f632fb360e01b1490505f610298565b346101fe5760803660031901126101fe5760205f60646102d26101e8565b82602435916102df610202565b92606435906102ec611332565b8260145280845261030a6034852061030384611360565b9033611383565b604051946304ade6db60e11b86526004860152602485015260448401525af160203d1460015f511416161561033b57005b3d5f803e3d5ffd5b60609060031901126101fe576004356001600160a01b03811681036101fe57906024359060443590565b346101fe5761038561037e36610343565b913361141f565b602060405160018152f35b346101fe5760603660031901126101fe576103a96101e8565b6103b1610218565b604435916103bd611332565b6001600160a01b0381166103da6103d385611360565b8233611383565b6103ee57505f80809381935af11561033b57005b60445f808093602095966040519763a9059cbb60e01b84526004526024525af1601f3d1160015f5114163d1517161561033b57604052005b5f3660031901126101fe57610439611332565b5f5f5160206152435f395f51905f525c6001600160a01b038116908290819083159081156104fe575b501561049b57505050506104975f61048734915b61030361048284611360565b610fbb565b6040519081529081906020820190565b0390f35b61049793610487926104ae343415610f7b565b156104e8576104dd6104d4826104ce6104e394886014525f5260345f2090565b966114ef565b945b9285610fa9565b93611531565b610476565b506104e36104dd6104f8856114b6565b946104d6565b60a01c15159250905081610523575b5f5160206153e35f395f51905f525c905f610462565b5f5160206152835f395f51905f525c935061050d565b346101fe5760203660031901126101fe57600435545f5260205ff35b9181601f840112156101fe578235916001600160401b0383116101fe57602083818601950101116101fe57565b346101fe5760a03660031901126101fe5761059b6101e8565b602435906105a7610202565b90606435916084356001600160401b0381116101fe575f9485946105d086933690600401610555565b50916105da611332565b856014528084526105f16034852061030384611360565b604051637921219560e11b815230600482015260248101959095526044850152606484015260a06084840152601f1901803590602082019060a485013760c401925af11561033b57005b346101fe5760a03660031901126101fe576084356001600160401b0381116101fe5761066b903690600401610555565b50506040610677610ffd565b82519182526020820152f35b346101fe5760403660031901126101fe576004356106aa6024356106a5611332565b611360565b6106b482336125de565b5c918282016106ca576106c8925033611383565b005b82633733429b60e21b5f5260045260245ffd5b346101fe576106eb36610343565b9091816106f9848333612495565b556040519182526001600160a01b03169033907fb3fd5071835887567a0671151121894ddccc2842f1d10bedad13e0d17cace9a790602090a4602060405160018152f35b346101fe5760a03660031901126101fe576107566101e8565b60643560843560443560243561076a611332565b61077782828082116112bd565b6107e26107a88383889291604051936bc8f78086c3211e71a328e7f56040526034526020525f5260605f2091604052565b80549095906001600160801b0381169060801c9687939187908490805f831261084b5750019889955b5f8312610825575001978891612527565b6107ed818433611383565b6107f8858533611383565b80610812575b5050508161080857005b6106c89333612558565b61081d928733612558565b5f80806107fe565b9050610842888c845f0361083a8184846124be565b8410156112db565b01978891612527565b9050610860888d845f0361083a8184846124be565b019889956107d1565b346101fe5760403660031901126101fe576108826101e8565b60243590811515918281036101fe5761089b823361259f565b90156108ed5760ff60015b1690556040519182526001600160a01b03169033907fceb576d9f15e4e200fdb5096d64d5dfd667e16def20c1eefd14256d8e3faa26790602090a360405160018152602090f35b60ff5f6108a6565b346101fe5760603660031901126101fe5760206102556109136101e8565b61091b610218565b60443591612495565b60403660031901126101fe576109386101e8565b602435906001600160401b0382116101fe576109573683600401610555565b50505f5160206153c35f395f51905f525c6001600160a01b0316806109fc575f8060646004866001600160a01b0387165f5160206153835f395f51905f525d335f5160206153c35f395f51905f525d63d4e27d3b60e01b60805233608452604060a45201803590602082019060c437016080346004355af11561033b576109ec5f5160206152635f395f51905f525c15611301565b6109f46125bc565b3d5f803e3d5ff35b632ab8097760e01b5f5260045260245ffd5b346101fe5760403660031901126101fe57600435602435906040519160408360208152826020820152019060051b8301916001602060408501935b83548152019101908483821015610a6557506020600191610a49565b60408186030190f35b346101fe5760203660031901126101fe576004355c5f5260205ff35b9181601f840112156101fe578235916001600160401b0383116101fe576020808501948460051b0101116101fe57565b60206003198201126101fe57600435906001600160401b0382116101fe57610ae491600401610a8a565b9091565b346101fe57610af636610aba565b6040519160408360208152836020820152019160051b8301916020806040850193925b8335548152019101908483821015610a65575060208091610b19565b346101fe5760203660031901126101fe57610b4e6101e8565b6001600160a01b038116908115610b8857610b77915f5160206152435f395f51905f525d6114b6565b5f5160206153e35f395f51905f525d005b63c0a7e46960e01b5f5260045ffd5b346101fe5760203660031901126101fe576004356001600160401b0381116101fe575f6024604092610bcc3682600401610555565b505060048101359182910160803760807f00000000000000000000000000000000000000000000000000000000000000005af41561033b5760405ff35b346101fe5760403660031901126101fe576020610c35610c276101e8565b610c2f610218565b9061259f565b541515604051908152f35b346101fe57610c4e36610aba565b6040519160408360208152836020820152019160051b8301916020806040850193925b83355c8152019101908483821015610a65575060208091610c71565b346101fe5760a03660031901126101fe57610ca66101e8565b50610caf610218565b506044356001600160401b0381116101fe57610ccf903690600401610a8a565b50506064356001600160401b0381116101fe57610cf0903690600401610a8a565b50506084356001600160401b0381116101fe57610d11903690600401610555565b505060405163bc197c8160e01b8152602090f35b346101fe5760603660031901126101fe576106c8610d416101e8565b60243560443591610d50611332565b82825f8212610d8d5782610d6782610d8795611316565b8054840190610d80826001600160801b03811115611405565b553361262e565b33611383565b610dc492915f0391610d9f8282611316565b868154610dad8686866124be565b610dbb8585888410156112db565b019055336125fa565b610d87565b346101fe5760403660031901126101fe57600435602435906040519160408360208152826020820152019060051b8301916001602060408501935b835c8152019101908483821015610a6557506020600191610e04565b60809060031901126101fe576004356001600160a01b03811681036101fe57906024356001600160a01b03811681036101fe57906044359060643590565b346101fe576106c8610e90610e98610e7536610e20565b9481949295610e85949294611332565b6106a58186856124be565b928391611383565b5f0391611383565b346101fe5760403660031901126101fe57610eb96101e8565b6001600160a01b03811690602435908215610b8857610b77926001600160a01b0319175f5160206152435f395f51905f525d815f5160206152835f395f51905f525d6114ef565b346101fe5760a03660031901126101fe57610f196101e8565b50610f22610218565b506084356001600160401b0381116101fe57610f42903690600401610555565b505060405163f23a6e6160e01b8152602090f35b346101fe57610385610f6736610e20565b92610f768483839594956124be565b61141f565b15610f835750565b63833bded760e01b5f5260045260245ffd5b634e487b7160e01b5f52601160045260245ffd5b91908203918211610fb657565b610f95565b905f82810392125f83128116905f841390151617610fb657565b15610fdd5750565b631569cf5360e01b5f9081526001600160a01b0391909116600452602490fd5b611032307f00000000000000000000000000000000000000000000000000000000000000006001600160a01b03168114610fd5565b61103a611332565b61104261155c565b60d85160a01c610100166112b0575b61107160d8515f5160206153835f395f51905f526020525f5260405f2090565b61107a81611681565b6110826116a3565b61108a6117de565b6112a3575b611097611881565b60d85160a01c61020016611296575b6101485160c01c6106775160c01c14801561128b575b611282575f5b6106775160c01c6102065160c01c14611215575b6110ec6106775160c01c6101c85160c01c141590565b8015611200575b80156111d0575b156111bd57611107611eb2565b6111b7575b6106775160c01c6101485160c01c146111b757610108516110c257505b6111316122f2565b6111396117de565b6111aa575b611146612405565b611157610188515f03607f1d5f0390565b915f61116a6101a8515f03607f1d5f0390565b92611179856106e05133611383565b611187846107005133611383565b5d611190612449565b60d85160a01c610400166111a057565b6111a86126f3565b565b6111b2612374565b61113e565b50611129565b6111c5611cbf565b1561110c5750611129565b506101505160ff1c6111f66111f16101485160c01c6102065160c01c121590565b151590565b90151514156110fa565b506101525160281c61016d5160281c136110f3565b6108065160f01c611275575b15611236575b61122f611a6d565b60016110d6565b61125361124c60d8516101c85160c01c90611a54565b5461024452565b61127061126960d8516102065160c01c90611a54565b5461026452565b611227565b61127d6119f1565b611221565b5f905d5f905f90565b5061010851156110bc565b61129e6126aa565b6110a6565b6112ab6117fd565b61108f565b6112b8612661565b611051565b156112c6575050565b633fa491e760e21b5f5260045260245260445ffd5b156112e4575050565b633db7aa8160e21b5f5260018060a01b031660045260245260445ffd5b1561130857565b62ef38f560e61b5f5260045ffd5b6b3c244899b5fa3e971383ac4b6020526014525f5260405f2090565b5f5160206153c35f395f51905f525c6001600160a01b03161561135157565b63892e4e5760e01b5f5260045ffd5b6001600160ff1b0381116113715790565b630d643c8160e21b5f5260045260245ffd5b90821561140057611393916125de565b805c8281019283125f8212908015821691151617610fb657826113d657505f195f5160206152635f395f51905f525c015f5160206152635f395f51905f525d5b5d565b6113d35760015f5160206152635f395f51905f525c015f5160206152635f395f51905f525d6113d3565b505050565b1561140d5750565b630610d90760e11b5f5260045260245ffd5b91926001600160a01b03821692909183156114a7578161146d86604093611454825f5160206152e35f395f51905f5297611316565b8781546114658588848410156112db565b039055611316565b8054858101919061148c9083906001600160801b038990031015611405565b55815133815260208101949094526001600160a01b031692a4565b63a7cd662f60e01b5f5260045ffd5b5f602481806020946370a0823160e01b8252306004525af160203d14161561033b575f51906111a8826001600160801b03811115611405565b5f6044818060209460405196627eeac760e11b8352306004526024525af160203d14161561033b576040525f51906111a8826001600160801b03811115611405565b5f5160206153e35f395f51905f525d565b1561154a5750565b63805cfd4b60e01b5f5260045260245ffd5b6115703360d85160a01c9060601b1760c452565b61157b60043560d852565b60243560026001607f1b03198112611672575b60016001607f1b038113611664575b607f1b610108526115b060443561012852565b60643560801c60016001607f1b038111611656575b6115da906101085160801c9060801b1760f852565b60743560801c6002811161164e575b610150536111a860246084358060040135918291016108083761160e61080861062f52565b61161d8161ffff811115611542565b61163761ffff82166106555160101c9060f01b1761065352565b611644610744820160a452565b610808016105ef52565b5060026115e9565b5060016001607f1b036115c5565b5060016001607f1b0361159d565b5060026001607f1b031961158e565b60d851815c61169157505f19905d565b6376f8d70760e01b5f5260045260245ffd5b6116ae60d851613928565b8054806106755260018201546106955260028201546106b55261068f5160801c1560d851906117cc575060f01c61ffff81036117c257505f190154610655525b6111a86116fd6106555161273c565b611706816127a1565b6117326117206107f45160d01c6107fa5160d01c906127ad565b6107fa5160301c9060d01b176107f452565b803b610128190160061c600101611755816106515160101c9060f01b1761064f52565b611764816105ef5193846127bf565b6117775f19916108065160f01c906127ce565b0160061b016117868161060f52565b60026117906127da565b6117a6816106535160101c9060f01b1761065152565b5f1901811c0160051b016117b981604052565b60c3190160a452565b61065552506116ee565b631e657b1d60e01b5f5260045260245ffd5b6107f45160d01c158015906117f05790565b506108005160d01c151590565b61180860d8516128a0565b5461182762ffffff8260d01c166105ec5160181c9060e81b176105e952565b6118408160e81c6105ef5160181c9060e81b176105ec52565b6001607f1b600160e71b03607f82901b81166105a95260179190911b166105c952565b1561186c575050565b6316b77c3360e31b5f5260045260245260445ffd5b61199261189061060f516128bd565b6119026118f06107605160c01c6118d0610128516001603f1b906118bb60d85160b41c5f0b603b1b90565b9003016001835f19818903010684010161291a565b905f1990805f19888201600160401b03010601600160401b030190612926565b6101505160401c9060c01b1761014852565b6101485160c01c906106775160c01c61191b8184131590565b926101505160f81c9160018311156119da575b50505061193a82612933565b6101085161194a905f131561293c565b81156119d05761195990612945565b156119a2576119756101d05160281c6107835160281c90612aa6565b61198c6101eb5160281c6107685160281c90612a81565b91612b0a565b61199a612b55565b6111a8612bfe565b6119b96101d05160281c6107685160281c90612a81565b61198c6101eb5160281c6107835160281c90612aa6565b9161195990612945565b6119e992151585151514611863565b5f808061192e565b6111a8611a15611a426001610655510180610655526108065160f01c92839161273c565b61012860016106e0833c611a396117206107f45160d01c6107fa5160d01c906127ad565b6105ef516127bf565b6106515160101c9060f01b1761064f52565b90671447e579411c2c936010526008525f5260305f2090565b611bf46101505160ff1c805f14611c9b57611ab3611a986102295160281c61079e5160281c90612c75565b611aa15f612cca565b6106d55160d81c9060281b176106ba52565b611abb612cdc565b8015611c5a57611b0a6102065160c01c6107605160c01c9003611aeb61020e5160281c6107835160281c90612aa6565b90611b036102295160281c6107685160281c90612a81565b9190612b0a565b611bae611b9c611b9761026451611b3e611b2d60d8516102065160c01c90611a54565b8054908115611c29575b5061026452565b610244519061068f5160801c91611b676101c8881515601b026023030193845160281c90612d9e565b01611b728161024452565b611b8560d8516101c85160c01c90611a54565b55610264519003905160281c90612dd0565b6128d7565b61069f5160801c9060801b1761068f52565b611bd360d8516101c85160c01c67d7cb7a927a838d416010526008525f5260305f2090565b549015611c0f5761067f5160801c0361068f5160801c9060801b1761067f52565b61199261060f516101c85160c01c6102065160c01c91612ded565b61067f5160801c0161068f5160801c9060801b1761067f52565b9050611c516102068815601b02602303015160281c6107685160281c600160d81b0390613ae6565b8091555f611b37565b611b0a6102065160c01c6107605160c01c01611c8361020e5160281c6107685160281c90612a81565b90611b036102295160281c6107835160281c90612aa6565b611ab3611cb561020e5160281c61079e5160281c90612c75565b611aa15f91612cca565b5f9061067f5160801c60f85160801c11611eac57611cef6102065160c01c61067f5160401c9060c01b1761067752565b611d0a61060f516102065160c01c6101c85160c01c91612ded565b61068f5160801c61067f5160801c026101505160ff1c5f14611e7657611d56611d39826106ba5160281c612eff565b91611d5161020e5160281c6107d95160281c90612c75565b612f3e565b905b6101505160ff1c15611e5c57611d7e611cb561020e5160281c61079e5160281c90612c75565b611da3611b9c61068f5160801c6107d95160281c9061079e5160281c80920390613bcf565b61067f5160801c15611e5557906111a891611dbc6117de565b611dc6575b613106565b611ddf6107d95160281c61079e5160281c810384613b5a565b6101505160ff1c15611e2057611e0e611e06611dc1926105a9516105e95160e81c9161304c565b91906105a952565b6105ec5160181c9060e81b176105e952565b611e43611e3b611dc1926105c9516105ec5160e81c9161304c565b91906105c952565b6105ef5160181c9060e81b176105ec52565b505f925050565b611d7e611a986102295160281c61079e5160281c90612c75565b611ea6611e898261069f5160281c612e4b565b91611ea16102295160281c6107d95160281c90612c75565b612ea5565b90611d58565b60019150565b5f61067f5160801c60f85160801c116122ec57611ecd613186565b61028b5160c01c905b61038b5160c01c82146122e55750611eec613232565b9081611ef85790611ed6565b505b6101505160ff1c611f31611f226105225160281c835f146122d8576106ba5160281c90612926565b610502519061051d5261050252565b611f39612ce7565b611f526105225160281c61053851906105535261053852565b611f5a612cf2565b61068f5160801c61067f5160801c02906105225160281c906105075160281c92815f146122bf5761069f5160281c840192806106ba5160281c03945b85611fb0611fa686868996612f7e565b9285871591612ff8565b9580958891600160d81b90819a61038b5160c01c6102065160c01c81145f14612141575050505061209a98505f1461210357509161201f6120028593611ffc611dc197611b9c97612eff565b906138ef565b9561201a61020e5160281c61079e5160281c90612c75565b612926565b905f905f90809380955b61203282612cca565b612048856106d55160d81c9060281b176106ba52565b61206461038b5160c01c61067f5160401c9060c01b1761067752565b61207861060f5161038b5160c01c90613790565b6120806117de565b6120ae575b50505050508161068f5160801c910390613bcf565b80156120a35790565b6120ab61391b565b90565b6120f994611e43946120e2611e0e611e066120d1866120e898611e3b9a03612e4b565b6105a9516105e95160e81c9161304c565b03612eff565b6105c9516105ec5160e81c9161304c565b5f80808080612085565b945061213561211d8593611ffc611dc197611b9c97612e4b565b9561201a6102295160281c61079e5160281c90612c75565b5f915f81938395612029565b61215e6104479d9a95929394999d9b96989b5160f01c1515151590565b90816122ae575b50612183575b5050509161209a98611dc1969492611b9c9694612029565b9350945095509693505b61219783866133d0565b61218d5761209a976121a984876135dc565b969095879587936121c461060f516103c95160c01c90613790565b6121d08a838b87613877565b9a91929093849c849c5f14612247575050506121f9928d926121f192613b5a565b809403612e4b565b9193156122295791612217611dc198969492611b9c989694036128fc565b995b929496829b50819496985061216b565b989791612241611dc198969492611b9c9896946138ef565b98612219565b8f9e969f9490612265939a9b506122729692985061226d9450613b5a565b8095036128ef565b612eff565b91941561228f5791612241611dc198969492611b9c9896946138ef565b9798916122a8611dc198969492611b9c989694036128fc565b99612219565b6102935160c01c141590505f612165565b8261069f5160281c03926106ba5160281c850194611f96565b61069f5160281c90612926565b9050611efa565b50600190565b6122fd60d851613928565b6106555161ffff81106123415750610655515f198201556106775160101c61ffff60f01b17610675525b61067551815561069551600182015560026106b551910155565b61ffff6106775160101c911660f01b1761067552612327565b156123625750565b631718db0760e31b5f5260045260245ffd5b6105a951612385815f81121561235a565b612399816001600160e71b0381131561235a565b6105c9516123aa815f81121561235a565b6123be816001600160e71b0381131561235a565b6105e951906105ec51906123d360d8516128a0565b93607f1c90600160681b600160e91b039060171c16179162ffffff60d01b9060181c169062ffffff60e81b1617179055565b61241060d851613945565b61060f51610651518151835560f01c5f190160021c8201915b82811061243557505050565b600160209101910191825182559190612429565b60d85161060f516207fff86106515160ed1c1601805191601061068f835e33907f7b1b2e572a782739fc5ac300a50ada6a682434d210dee70c511533a0c8782ed66020600f198501a352565b929190604051936b034105b980ba117bd0c29fe06034526028526014525f5260545f2091604052565b909190336001600160a01b038216036124d657505050565b6124e0338261259f565b54156124eb57505050565b826124f7913390612495565b918254908282106125115750600181011561140057039055565b63731555bd60e01b5f523360045260245260445ffd5b9161253c826001600160801b03811115611405565b612550816001600160801b03811115611405565b60801b179055565b60408051948552602085019590955291936001600160a01b039182169391909216917f56a6ca58daf8ecd992baa77cfb74dc2a696e42aa279cf8fbbc55bf3081f18d5191a4565b6be442b523d9447037e4923f5b6020526014525f526034600c2090565b5f5f5160206153835f395f51905f525d5f5f5160206153c35f395f51905f525d565b6bdc0da6920d198e2eedf81ef66020526014525f5260405f2090565b604080516001600160a01b039283168152602081019590955292935f9392909116915f5160206152e35f395f51905f5291a4565b604080516001600160a01b039283168152602081019590955292939116915f915f5160206152e35f395f51905f529190a4565b60845160201c632c9a874560e11b17608052602060845260205f60018060a01b0360d85116608082604460a45101925af15f51632c9a874560e11b143d60201416161561033b57565b60845160201c631c5a976960e21b17608052602060845260205f60018060a01b0360d85116608082604460a45101925af15f51631c5a976960e21b143d60201416161561033b57565b60845160201c63692181bf60e11b17608052602060845260205f60018060a01b0360d85116608082604460a45101925af15f5163692181bf60e11b143d60201416161561033b57565b60d8515f5260205260405f2060405190305f5260ff600b536020527ff779edcbdc615c777a4cb2bee1bf733055aa41ff7247837d0cd548565f65d0346040526055600b2060145260405261d6945f5260016034536017601e206001600160a01b031690565b60016106e0610128923c565b90808210156127ba575090565b905090565b61012991925f190160061b923c565b818110156127ba575090565b5f6127e660d851613945565b9061060f51916106775160c01c905b805492828460c01c1461288857608084901c6001600160401b0316831461287057604084901c6001600160401b0316831461285857600401926001600160401b038116831461284f576020916001918652019301926127f5565b92949391505052565b6001600160401b031990931690935250600301919050565b6001600160801b031990931690935250600201919050565b6001600160c01b031990931690935250600101919050565b6f5e1c6265e3e30cea650443fb20ef1ef96010525f5260305f2090565b6008815160c01c91015160c01c818113155f14610ae45791565b6001606f1b8113156128e65790565b506001606f1b90565b5f8112156120ab57505f90565b805f125f146129085790565b505f90565b806001125f146122ec5790565b818112156127ba575090565b90808212156127ba575090565b60ff0261015053565b60ff0261015153565b6111a89061295281614c7c565b905f198083019083600160c11b5f5160206153a35f395f51905f520984030181600160c11b5f5160206153a35f395f51905f5209089160281c906101c8612b3a565b6111a8906129a181614c7c565b905f198083019083600160c11b5f5160206153a35f395f51905f520984030181600160c11b5f5160206153a35f395f51905f5209089160281c90610293612b3a565b6111a8906129f081614c7c565b905f198083019083600160c11b5f5160206153a35f395f51905f520984030181600160c11b5f5160206153a35f395f51905f5209089160281c9061038b612b3a565b6111a890612a3f81614c7c565b905f198083019083600160c11b5f5160206153a35f395f51905f520984030181600160c11b5f5160206153a35f395f51905f5209089160281c906103c9612b3a565b6001600160d81b039190600160d81b8282096001600160d81b03908103929091090890565b6774600bc82ce9df527f7f6af8233bada11dd406b4458454ed9904d7af796be7aa4885b23e25b6985d49927fdbb82f7041b890fe67970a62a3568cc34df9dcb17cc3a2a6a027850e7e3724f9632ec3a856820264027d117d7b850209920202030290565b906101e6519261022452610209526101ee526101e652565b906103a951926103e7526103cc526103b1526103a952565b601f19810192835194601e8301526003820152601719015252565b6101515160ff1c15612bb5576111a8612b9a61079e5160281c6101505160ff1c5f14612bac57610720515b610108519061068f5160801c61067f5160801c0292613a47565b61016d5160d81c9060281b1761015252565b61074051612b80565b6111a8612bf061079e5160281c6101505160ff1c5f14612bf557610740515b610108515f039061068f5160801c61067f5160801c0292613962565b612b9a565b61072051612bd4565b6101515160ff1c15612c4a57612c386107d95160281c612c326101505160ff1c156102069015601b02602303015160281c90565b90612c75565b6101885160d81c9060281b1761016d52565b612c7061079e5160281c6101c86101505160ff1c15601b02602303015160281c90612c75565b612c38565b64f8f6376c447f28256938c4923ff15ab260970aa81f81c15e6f5ef3af38dc210569e77db19359927e1561650620dabb6a84b684e2a7e5a47caa0a0905210083f0e3b551aabf84e98183850209920202030290565b6106ba5160d81c9060281b1761069f52565b603e6102066101c85e565b603e61038b6103c95e565b603e61038b6104c95e565b603e6102936102d15e565b603e61029361030f5e565b603e61029361034d5e565b603e61029361038b5e565b603e6102936104095e565b603e6102936104495e565b603e61040961030f5e565b603e9061038b5e565b603e906103c95e565b603e61048961030f5e565b603e6104c96103c95e565b603e6103c961034d5e565b603e61030f6103c95e565b603e61034d6103c95e565b603e6103c961038b5e565b612dc6612dbe612db69360271b938493606e1b614c3a565b939093614c68565b939092614c68565b9182915001100190565b612de0612dbe612db68493614c3a565b91829150011001602d1c90565b919060801b9060c01b1790526106535160101c600160f11b1761065152565b94939291909415612e1e575050505050565b60a495506040519463059cafa160e51b865260048601526024850152604484015260648301526084820152fd5b610740515f831293926111a89291908515612e995782612e7f87835f03945b61079e5160281c80966107b951988993614e5a565b9715612e94575f035b96610740519015612e0c565b612e88565b82612e7f878394612e6a565b610720515f831293926111a892908515612ef857805f03915b612ede61079e5160281c9485946107b951968791858c1560011494614e5a565b9715612ef3575f035b96610720519015612e0c565b612ee7565b8091612ebe565b610720515f831293926111a89291908515612f325782612ede87835f039461079e5160281c80966107b951988993614e5a565b82612ede878394612e6a565b610740515f831293926111a892908515612f7757805f03915b612e7f61079e5160281c9485946107b951968791858c1560011494614e5a565b8091612f57565b9192916111a8918415612fee5761072051905b825f82128015612fe357612fb981845f03955b61079e5160281c80976107b951998a93614e5a565b9115612fde575f035b9715612fd45761072051905b15612e0c565b6107405190612fce565b612fc2565b612fb9818495612fa4565b6107405190612f91565b9192916111a8919084156130425761072051915b5f811291821561303b57815f03925b612fb961079e5160281c9586956107b95197889186861560011494614e5a565b819261301b565b610740519161300c565b610800516107f45191945f94909360d083811c6001602f1b0394901c939093029290915f1990600160a21b90829060a11c65ffffffffffff602f1b1686016001605e1b818b0919905f19908b09080981019586936130ad858481121561235a565b6130c1856001600160e71b0381131561235a565b5f85136130d0575b5050505050565b9495509293919290915f1991600160a21b9183916001605e1b82820919915f199109080960171b9102010490825f8080806130c9565b906101505160ff1c5f146131765761313681613129845f03915b610188516138ef565b610188526101a8516138ef565b6101a8526101515160ff1c1561315b57613155915061010851036128fc565b61010852565b506101085101805f125f1461317157505f613155565b613155565b613136825f036131298391613120565b61320261060f516131ab61201a61319c836128bd565b91906101485160c01c9061291a565b6102935160401c9060c01b1761028b526131fd6106515160f01c915f1983016131e0816102875160101c9060f01b1761028552565b60031b81015160c01c926001190160031b015160c01c8212613c22565b612994565b61320a612cfd565b613212612d08565b61321a612d13565b613222612d1e565b61322a612d29565b6111a8612d34565b5f9061038b5160c01c6104495160c01c146133c3575b6102845160ff1c61038b5160c01c61034d5160c01c14613394575b61030f516104095160c091821c911c13901515908103613387575b6132976111f161034d5160c01c6104495160c01c121590565b8103613379576132ad61ffff6104495b16612d4a565b6101505160ff1c151581036133565761028b5161038b516111a8945060c091821c92911c821203613347575b506101515160ff1c1561332c576132ee6145e0565b92909261331e6132fc613e79565b915b6133108360281b610522510161052252565b60281b610507510161050752565b60281b61058e510161058e52565b6133346141ae565b92909261331e6133426143ba565b6132fe565b613350906129e3565b5f6132d9565b506111a8613362613e79565b6133748160281b61053d510161053d52565b61331e565b6132ad61ffff61034d6132a7565b61338f612d3f565b61327e565b6133a76133b69161058e5160281c613c5a565b61056e51906105895261056e52565b6133be613dc5565b613263565b6133cb613c2b565b613248565b906103c95160c01c6104c95160c01c146135cf575b6103c95160c01c6104495160c01c146135c2575b6102845160ff1c906103c95160c01c61034d5160c01c146135a0575b61030f516104095160c091821c911c13911515918203613593575b61034d516104495160c091821c911c1382036135855761345661ffff6104495b16612d53565b6101505160ff1c1515821461353e575b61346e613fa5565b9161347e6101505160ff1c151590565b03613521576134cc5f91613490614089565b946134a38560281b610558510161055852565b6134b58660281b610573510161057352565b6134c78560281b61058e510161058e52565b6148b2565b136134d8575050600190565b613507613515926134e7612d72565b6134f98360281b610558510361055852565b60281b610573510361057352565b60281b61058e510361058e52565b61351d612d7d565b5f90565b50613539915061331e8160281b61053d510161053d52565b600190565b61030f516104895160c091821c911c138203613578575b6103c9516104c95160c091821c911c13820361346657613573612d67565b613466565b613580612d5c565b613555565b61345661ffff61034d613450565b61359b612d3f565b613430565b906133a76135b49161058e5160281c613cd3565b6135bc613dc5565b90613415565b6135ca613c2b565b6133f9565b6135d761480b565b6133e5565b90916101505160ff1c905b6135f18484614945565b919283156136655750505061363690835f1461363b576136246136319161034d5160c01c906103c95160c01c019061291a565b61030f5160c01c90612926565b612a32565b6135e7565b6136586136319161030f5160c01c906103c95160c01c019061291a565b61034d5160c01c90612926565b9092506120ab949591939561368d61367d8685612a81565b613687868b612a81565b9061291a565b916103c95160c01c6136a561034d5160c01c82141590565b9081613768575b61030f5160c01c14159182613759575b5080159182613751575b506136df575b505050906136d991612926565b93612926565b6136ff9061372a949692939592936136f5612d72565b1515901514614ac6565b6137098886614ba3565b949093906137258561368761371e898b612a81565b918d612a81565b121590565b613739575b80949293946136cc565b9091506136d99250613749612d88565b90915f61372f565b90505f6136c6565b1515831515141591505f6136bc565b8215158415151491506136ac565b1561377e5750565b63855b486b60e01b5f5260045260245ffd5b91825160c01c91600884015160c01c926137aa8482612926565b8083131561385f576137bc858361291a565b8381131561384f5750506106515160f01c90846001915b1215613847578483125b1561383657600101818110156137fe578060031b86015160c01c80956137d3565b916111a894506001939591505b60c01b908260031b01526138238161ffff8110613776565b016106535160101c9060f01b1761065152565b916111a8945060019395915061380b565b8285126137dd565b9250929490506111a89350612ded565b91506111a8936138719195939561291a565b91612ded565b9192909282156138e0575b61388c8284614c68565b6138968684614c68565b9290918084119384156138c0575b505050505f146138b6575090925f9150565b9390925060019150565b14925090826138d5575b50505f8080806138a4565b101590505f806138ca565b83613882579390925060019150565b919080830192808412155f83121503613906575050565b639389559160e01b5f5260045260245260445ffd5b6103256103241961028439565b6f6890d047ad8c870137858a70716b2c6b6010525f5260305f2090565b6f3b2d91718dfb37f9969a1b0670a83e706010525f5260305f2090565b906139709291949394613b8b565b91939091600160671b811015613a38576139999060711b61399184608f1c90565b179260711b90565b6139a385608f1c90565b1781805f198509818584080892838210900382811015613a28576139df91849184805f0316928391600183805f03040102920304179204614e26565b029260016001608f1b03161580159190613a1e575b50613a14575b600160d81b821015613a0857565b6001600160d81b039150565b90600101906139fa565b905015155f6139f4565b506001600160d81b039450505050565b506001600160d81b0393505050565b90613a529291613b8b565b909190600160671b811015613ad657613a83613a71613a8a9260711b90565b613a7b85608f1c90565b179360711b90565b91608f1c90565b179082805f19830981838508089081831090039183831015613ad657613ac69284805f0316928391600183805f03040102920304179204614e26565b0290600160d81b821015613a0857565b506001600160d81b039392505050565b5f19815f5160206153635f395f51905f520991815f5160206153635f395f51905f520291828085109403938085039414613b535781905f5160206153635f395f51905f5209613b3b82805f0316809304614e26565b93600183805f03040190848311900302920304170290565b5091500490565b9091613b668383614c68565b9390928415613b835790829109613b3b82805f0316809304614e26565b505091500490565b613ba5613b9d849593613bad93614c68565b959095614c68565b939094614c68565b80939194019283100190565b15613bc057565b636dd3b1dd60e11b5f5260045ffd5b91613c0d916108005160d01c846107f45160d01c910285602f1b0380910290602f1b03613c0883613c008484614c68565b905010613bb9565b613b5a565b605e1c01906111a86001607f1b831315613bb9565b60ff0261028453565b60406104476104075e6111a86105ef51600160f01b6102875101806102875260f01c6102845160ff1c91614f3f565b901515601b0260230368a43903008fac41d97d6102d161038b83015160281c92015160281c5f5160206152a35f395f51905f528163cb21e499028464cef6ae8685020992020203905f5160206154035f395f51905f5281830202915f5160206153435f395f51905f525f1992634bc3287b029102090390565b901515601b0260230368a43903008fac41d97d6102d16103c983015160281c92015160281c5f5160206152a35f395f51905f528163cb21e499028464cef6ae8685020992020203905f5160206154035f395f51905f5281830202915f5160206153435f395f51905f525f1992634bc3287b029102090390565b901515601b0260230368a43903008fac41d97d61038b6103c983015160281c92015160281c5f5160206152a35f395f51905f528163cb21e499028464cef6ae8685020992020203905f5160206154035f395f51905f5281830202915f5160206153435f395f51905f525f1992634bc3287b029102090390565b603e6102d161030f5e603e61034d6102d15e613e4461060f5161ffff60f01b6102855101806102855260f01c60031b015160c01c613e0281614c7c565b905f198083019083600160c11b5f5160206153a35f395f51905f520984030181600160c11b5f5160206153a35f395f51905f5209089160281c9061034d612b3a565b6102845160ff1c1590613e5682613c22565b6111a8826105ef516102875160f01c90613e74835f19840183614fc2565b614f3f565b61030f5160c01c61038b5160c01c90818114613f9f576104075160f01c906104475160f01c908115613f975782820393818112918215601b02602303958561038b61030f89015160281c98015160281c9514613f8957806104095160c01c92855f14613f6e576001603c1b9084030102926001603c1b9083030102925b15613f5f576104495160c01c900380915b600160c01b87820993600160c01b86820991828610916001600160c01b03908890098601906001600160c01b03908a90098301030393600160c01b918203900881840660c01b0104910460c01b0192030201600f1c90565b6104495160c01c038091613f07565b836001603c1b9103010292826001603c1b9103010292613ef6565b5050505090910302600f1c90565b505050505f90565b50505f90565b61030f5160c01c6103c95160c01c90818114613f9f576104075160f01c906104475160f01c908115613f975782820393818112918215601b0260230395856103c961030f89015160281c98015160281c9514613f8957806104095160c01c92855f14613f6e576001603c1b9084030102926001603c1b90830301029215613f5f576104495160c01c90038091600160c01b87820993600160c01b86820991828610916001600160c01b03908890098601906001600160c01b03908a90098301030393600160c01b918203900881840660c01b0104910460c01b0192030201600f1c90565b61030f5160c01c6103c95160c01c90818114613f9f576104875160f01c906104c75160f01c908115613f975782820393818112918215601b0260230395856103c961030f89015160281c98015160281c9514613f8957806104895160c01c92855f1461417d576001603c1b9084030102926001603c1b9083030102925b1561416e576104c95160c01c90038091600160c01b87820993600160c01b86820991828610916001600160c01b03908890098601906001600160c01b03908a90098301030393600160c01b918203900881840660c01b0104910460c01b0192030201600f1c90565b6104c95160c01c038091613f07565b836001603c1b9103010292826001603c1b9103010292614106565b1561419f57565b630f975a0160e11b5f5260045ffd5b6101525160281c6105225160281c9003906141c7613e79565b90828213156143b5576101505160ff1c90811561439f576104095160c01c6104495160c01c9003905b6104475160f01c926104075160f01c809403936142438786603c1b9286028301845f1461438657876104095160c01c61030f5160c01c90030201955b61030f851515601b02602303015160281c9061502b565b84608e1b03800190825f146143675761030f5161038b5160c090811c91901c039661427990614274905b8a8a614e0d565b61290d565b8587820201908261429261428c83614c7c565b86614dcd565b83608e1b039203809205918883020582603c1d039182600160531b03908001059182156142d357508861201a614292936142cc930161290d565b9050614279565b94975095505050506142ed919450600160531b1415614198565b81156143585761030f5160c01c0392905b61430784612a32565b61430f613fa5565b935b82851261432957505050614323612d93565b60019190565b919350908115614350575f19015b61434082614ac6565b614348613fa5565b939190614311565b600101614337565b61030f5160c01c0192906142fe565b61038b5161030f5160c090811c91901c0396614279906142749061426d565b8761030f5160c01c6104095160c01c900302019561422c565b6104495160c01c6104095160c01c9003906141f0565b5f9250565b5f61030f5160c01c9061038b5160c01c8083146144e0576104475160f01c9182156144d957506104495160c01c908381129081601b026023039261038b61030f85015160281c94015160281c956104075160f01c8087146144ca5786038091855f146144af57836001603c1b9103010292826001603c1b91030102925b1561449f576104095160c01c0380915b600160c01b85820990600160c01b88860994828610916001600160c01b03908890098601906001600160c01b03908a90098301030393600160c01b918203900881840660c01b0104910460c01b0192030203600f1c90565b6104095160c01c90038091614447565b6001603c1b9084030102926001603c1b908303010292614437565b505050505090910302600f1c90565b9250505090565b5050505f90565b5f61030f5160c01c906103c95160c01c8083146144e0576104475160f01c9182156144d957506104495160c01c908381129081601b02602303926103c961030f85015160281c94015160281c956104075160f01c8087146144ca5786038091855f146144af57836001603c1b9103010292826001603c1b91030102921561449f576104095160c01c038091600160c01b85820990600160c01b88860994828610916001600160c01b03908890098601906001600160c01b03908a90098301030393600160c01b918203900881840660c01b0104910460c01b0192030203600f1c90565b156145d157565b637fbbcd6760e01b5f5260045ffd5b6101525160281c6105075160281c9003906145f96143ba565b82811315614805576101505160ff1c9283156147ef576104095160c01c6104495160c01c9003925b6104475160f01c936104075160f01c85039586603c1b9582028603815f146147d6578761030f5160c01c6104495160c01c90030201955b6146748583159461030f86601b02602303015160281c9061502b565b87608e1b0390825f146147c05761030f5160c01c61038b5160c01c9003975b8897808a13156147a5575b50965b878a82020390826146c36146bd6146b784614c7c565b60281c90565b8661507e565b83608e1b019201809205918b83020582603c1d019182600160531b039080010591821561470457508961201a6146c3936146fd930361290d565b90506146a1565b9150925060018094979a5061472c9699959850614726925060531b14156145ca565b01612926565b81156147955761030f5160c01c039391905b61474785612a32565b61474f6144e7565b945b8386136147645750505050614323612d93565b9294509091811561478d576001015b9061477d83614ac6565b6147856144e7565b949291614751565b5f1901614773565b61030f5160c01c0193919061473e565b6146c39198506142746147b991898c614e0d565b979061469e565b61038b5160c01c61030f5160c01c900397614693565b876104495160c01c61030f5160c01c9003020195614658565b6104495160c01c6104095160c01c900392614621565b5f925090565b60406104c76104875e6111a86105ef5161483d600160f01b6102895101806102895260f01c6101505160ff1c9261519a565b92939091901561487d576148636148709161038b5160c01c03936103935160281c612aa6565b916103ae5160281c61507e565b919091925b6104c96151fc565b61489c6148a99161038b9493945160c01c01936103935160281c61507e565b916103ae5160281c612aa6565b91909192614875565b6101505160ff1c916148ca8361058e5160281c613cd3565b6105735160281c906148dc8583613d4c565b900361053d5160281c90036105075160281c9003906105225160281c016105585160281c9003935f146149225761491d92916149179161507e565b9261507e565b900390565b61491d926149179161507e565b1561493657565b6327177a2d60e11b5f5260045ffd5b906101505160ff1c90815f14614ac05791905b614960613fa5565b90614969614089565b6149ad826149a7816149996105225160281c8a01886105585160281c019003956105735160281c018096016128ef565b9661058e5160281c01613cd3565b92613d4c565b9003926149cc61053d5160281c858301036105075160281c90036128ef565b946149d56150a7565b614a296149e061516a565b918515926103c98415601b02602303614a138361038b614a08876102d186015160281c612c75565b93015160281c612c75565b900394601b02602303015160281c910390612c75565b9315614a96578181614a5c92614a438a614a659796612a81565b614a4d8987612a81565b900399975b979801019061507e565b9280019061507e565b01935f85135f851314159460161d808560261b05948515614a84575050565b614a8b5750565b6111a890151561492f565b829181614a5c92614aad88614a65979b999b612a81565b614ab78985612a81565b90039997614a52565b90614958565b15614b38576103c9516103d1516111a89160c01c5f1901905f5160206153035f395f51905f52906902aaaaaaaaaaaaaaa000600160871b03600160c41b0319906902aaaaaaaaaaaaaaa001600160871b03600160c41b039060281c0902614b326103ec5160281c615175565b91612b22565b6111a860016103c95160c01c01614b546103d15160281c615175565b6103ec515f5160206153035f395f51905f52906902aaaaaaaaaaaaaaa000600160871b03600160c41b0319906902aaaaaaaaaaaaaaa001600160871b03600160c41b039060281c090291612b22565b906101505160ff1c90815f14614c3157614c2890925b614c0f614bc4613fa5565b614bcc614089565b90614bdf868261058e5160281c01613cd3565b916105735160281c0191614bf38784613d4c565b9003966105225160281c01906105585160281c019003016128ef565b9361053d5160281c9101036105075160281c90036128ef565b9015610ae45791565b614c2890614bb9565b905f19825f5160206152c35f395f51905f5209915f5160206152c35f395f51905f5202918280821091030390565b91905f198184099202918280821091030390565b614d3e90614d3890808002908180025f19600160801b808386095f19848709030990614cf6614cea614ce3600f600760681b8802046027602e1b85040161192360431b860401614cdb8580025f19878009621eee11605a1b9190030490565b0196606a1b90565b600f900490565b91610249602c1b900490565b5f1993600160b41b9362036fc960411b90049190920101600160ff1b01906001604c1b828209915f1991090309600160fe1b8183018101929190910301614ded565b60021b90565b808002905f1990800903808002905f1990800903808002905f1990800903808002905f1990800903808002905f1990800903808002905f1990800903808002905f1990800903808002905f1990800903808002905f1990800903808002905f1990800903808002905f1990800903808002905f1990800903808002905f1990800903808002905f199080090390565b5f198281019283919080600160ff1b850990030191600160ff1b90090890565b5f198281019283919080600160fe1b850990030191600160fe1b90090890565b90915f1981019283915f19908083860990030192090890565b6002816003021880820260020302808202600203028082026002030280820260020302808202600203028091026002030290565b9495939291614e6a915f96613b8b565b90939192906001606f1b811015614f3157614e949060911b614e8c86606f1c90565b179460911b90565b614e9e84606f1c90565b179080805f19870981878508089485831090039080821015614f22578086915f031691600183805f03040102920304170294614eee575b5050600160ff1b831015614ee557565b5f925060019150565b60016001606f1b03161580159190614f18575b50614f0e575b5f80614ed5565b9160010191614f07565b905015155f614f01565b505f9750600196505050505050565b505f96506001955050505050565b6111a89291614f4d9161519a565b929390919015614f8d57614f73614f80916102d15160c01c03936102d95160281c612aa6565b916102f45160281c61507e565b919091925b6104496151fc565b614fac614fb9916102d19493945160c01c01936102d95160281c61507e565b916102f45160281c612aa6565b91909192614f85565b6111a89291614fd09161519a565b92939091901561500357614f73614ff6916102d15160c01c03936102d95160281c612aa6565b919091925b6104096151fc565b614fac615022916102d19493945160c01c01936102d95160281c61507e565b91909192614ffb565b90917fd49c04af80af1ea5f98f85886b450a4b264fc14874f9f64143836145a37dd8a1927f0f1aaddd7742e56d32fb9f997447d9e6314db84884fabab26bf059af9bc20b61828183860909920202030290565b5f1991600160281b918391600160d81b81830919915f19915f81129003905f8112900309080990565b6150b261040961521f565b9091928115613f9757828214615151576103c95160c01c80851461513757835f5160206153235f395f51905f5294958381125f146151275783039303910302905b80600160c01b838509926001600160c01b03908482039082908709089281840660c01b0104910460c01b0191020160281c90565b92809293039303910302906150f3565b50505f5160206153235f395f51905f520260281c92915050565b50505f5160206153235f395f51905f5291500260281c90565b6150b261048961521f565b6902aaaaaaaaaaaaaaa001600160871b03600160c41b0319818102915f199190090390565b905f8082156151d357505060061b0190603f1982015160f01c91603d1981015160c01c9160351982015160281c91601a19015160281c90565b9093909250600160d81b91507801e355bbaee85cada65f73f32e88fb3cc629b709109f57564d90565b9091602119820193845195601e8401526003830152601719820152601f19015252565b9060011982015160f01c825160c01c926040603e82015160f01c91015160c01c9256fe9b9b0454cadcb5884dd3faa6ba975da4d2459aa3f11d31291a25a8358f84946c5d43e4cd1a16168a103e08dc189528d374b6e2bd5c612e94553d728c8003010353dc9bf46bebdca9be947ee80674b58899973aac1948a8396714431da6d4f1665bc2a24e50a66d39c35a9132c33f2fc50a1b99389d5455e78a7cf7ef8894e4cdba4f53ea38636f85f007042540ae8ef33225e9a7ab4f4473a86d4a8fdd1a5b821b3d7edb2e9c0b0e7c525b20aaaef0f5940d2ed71663c7d39266ecafac728859aa3ed2381a8b1241d16168fd77ef989ed2b13be12b716aa23f35ed0e3955600100000015fc21041027acbbfcd46780fee71ead23fbcb7f4a81e58767ef801a327082326d62b7ef4d06861f13c21dd192c8044b19a121205b7dc63c2642b5a805000000000ba4f53ea38636f85f007042540ae8ef33225e9a7ab4f4473a86d4a808afe526398486e38896d620563771687e7d20a3b0d01f72483eeb2e7d93a48ef1aaddd7742e56d32fb9f997447d9e6314db84884fabab26bf059af9bc20b609d71f1cf4f9d9f82ef0f0a7247563f6632677ada0e0f8f0d8734b4d2327da39e9f712c2fa585715e22c7fcc833629ce4482ad96496ecd08f3a14847183c4ef4eddbad67320459464b8d379def907a3e0c7c8687340b82b93b6e54e966e2578267a2646970667358221220558b872950eccfa0990257d7cc1eb864b6ccdf2c1a5f0c9978a84e4257d9272764736f6c63430008220033","linkReferences":{}},"methodIdentifiers":{"allowance(address,address,uint256)":"598af9e7","approve(address,uint256,uint256)":"426a8493","balanceOf(address,uint256)":"00fdd58e","clear(uint256,uint256)":"41ee903e","dispatch(bytes)":"ab7fff18","isOperator(address,address)":"b6363cf2","modifyBalance(address,uint256,int256)":"bea556c9","modifyBalance(address,uint256,uint256,int256,int256)":"49dff3ab","onERC1155BatchReceived(address,address,uint256[],uint256[],bytes)":"bc197c81","onERC1155Received(address,address,uint256,uint256,bytes)":"f23a6e61","setOperator(address,bool)":"558a7297","settle()":"11da60b4","storageAccess(bytes32)":"1352ea35","storageAccess(bytes32,uint256)":"745fa652","storageAccess(bytes32[])":"89c59eb9","supportsInterface(bytes4)":"01ffc9a7","swap(uint256,int256,int256,uint256,bytes)":"32269698","sync(address)":"a5841194","sync(address,uint256)":"ef4fcafa","take(address,address,uint256)":"0b0d9c09","take(address,uint256,address,uint256)":"0720b584","take(address,uint256,address,uint256,bytes)":"2b7f670f","transfer(address,uint256,uint256)":"095bcdb6","transferFrom(address,address,uint256,uint256)":"fe99049a","transferTransientBalanceFrom(address,address,uint256,uint256)":"da954559","transientAccess(bytes32)":"834178fe","transientAccess(bytes32,uint256)":"d02bdb62","transientAccess(bytes32[])":"b84a0dd2","unlock(address,bytes)":"738c440a"},"id":0}