{"abi":[{"type":"function","name":"_burntPositionSlot","inputs":[],"outputs":[{"name":"transientSlot","type":"uint256","internalType":"uint256"}],"stateMutability":"nonpayable"},{"type":"function","name":"_callerSlot","inputs":[],"outputs":[{"name":"transientSlot","type":"uint256","internalType":"uint256"}],"stateMutability":"nonpayable"},{"type":"function","name":"_checkBurntPosition","inputs":[{"name":"poolId","type":"uint256","internalType":"uint256"},{"name":"qMin","type":"int256","internalType":"X59"},{"name":"qMax","type":"int256","internalType":"X59"},{"name":"shares","type":"int256","internalType":"int256"},{"name":"transientSlot","type":"uint256","internalType":"uint256"}],"outputs":[{"name":"content","type":"uint256","internalType":"uint256"}],"stateMutability":"nonpayable"},{"type":"function","name":"_checkBurntPositionBurnMint","inputs":[{"name":"poolId","type":"uint256","internalType":"uint256"},{"name":"qMin","type":"int256","internalType":"X59"},{"name":"qMax","type":"int256","internalType":"X59"},{"name":"shares","type":"int256","internalType":"int256"},{"name":"transientSlot","type":"uint256","internalType":"uint256"}],"outputs":[{"name":"content","type":"uint256","internalType":"uint256"}],"stateMutability":"nonpayable"},{"type":"function","name":"_clearRedeployStaticParamsAndKernel","inputs":[{"name":"poolId","type":"uint256","internalType":"uint256"},{"name":"sourcePointer","type":"uint256","internalType":"uint256"},{"name":"targetPointer","type":"uint256","internalType":"uint256"},{"name":"poolGrowthPortion","type":"uint256","internalType":"X47"},{"name":"maxPoolGrowthPortion","type":"uint256","internalType":"X47"},{"name":"protocolGrowthPortion","type":"uint256","internalType":"X47"},{"name":"pendingKernelLength","type":"uint256","internalType":"Index"}],"outputs":[{"name":"poolIdResult","type":"uint256","internalType":"uint256"},{"name":"sourcePointerResult","type":"uint256","internalType":"uint256"},{"name":"targetPointerResult","type":"uint256","internalType":"uint256"},{"name":"poolGrowthPortionResult","type":"uint256","internalType":"X47"},{"name":"maxPoolGrowthPortionResult","type":"uint256","internalType":"X47"},{"name":"protocolGrowthPortionResult","type":"uint256","internalType":"X47"},{"name":"pendingKernelLengthResult","type":"uint256","internalType":"Index"},{"name":"testValue","type":"bool","internalType":"bool"}],"stateMutability":"nonpayable"},{"type":"function","name":"_getPoolLockSlot","inputs":[{"name":"poolId","type":"uint256","internalType":"uint256"}],"outputs":[{"name":"transientSlot","type":"uint256","internalType":"uint256"}],"stateMutability":"nonpayable"},{"type":"function","name":"_getTransientBalanceSlot","inputs":[{"name":"owner","type":"address","internalType":"address"},{"name":"tag","type":"uint256","internalType":"Tag"}],"outputs":[{"name":"transientSlot","type":"uint256","internalType":"uint256"}],"stateMutability":"nonpayable"},{"type":"function","name":"_isProtocolUnlocked","inputs":[{"name":"unlockTarget","type":"address","internalType":"address"},{"name":"caller","type":"address","internalType":"address"}],"outputs":[],"stateMutability":"nonpayable"},{"type":"function","name":"_lockPoolRevert","inputs":[{"name":"poolId","type":"uint256","internalType":"uint256"}],"outputs":[],"stateMutability":"nonpayable"},{"type":"function","name":"_lockUnlockPool","inputs":[{"name":"poolId","type":"uint256","internalType":"uint256"}],"outputs":[{"name":"content0","type":"uint256","internalType":"uint256"},{"name":"content1","type":"uint256","internalType":"uint256"}],"stateMutability":"nonpayable"},{"type":"function","name":"_lockUnlockProtocol","inputs":[{"name":"unlockTarget","type":"address","internalType":"address"},{"name":"caller","type":"address","internalType":"address"}],"outputs":[{"name":"unlockTargetResult0","type":"address","internalType":"address"},{"name":"callerResult0","type":"address","internalType":"address"},{"name":"unlockTargetResult1","type":"address","internalType":"address"},{"name":"callerResult1","type":"address","internalType":"address"}],"stateMutability":"nonpayable"},{"type":"function","name":"_nonzeroAmountsSlot","inputs":[],"outputs":[{"name":"transientSlot","type":"uint256","internalType":"uint256"}],"stateMutability":"nonpayable"},{"type":"function","name":"_readNonzeroAmounts","inputs":[{"name":"increment","type":"uint256","internalType":"uint256"},{"name":"decrement","type":"uint256","internalType":"uint256"}],"outputs":[{"name":"nonzeroAmounts","type":"uint256","internalType":"uint256"}],"stateMutability":"nonpayable"},{"type":"function","name":"_redeployStaticParamsAndKernel","inputs":[{"name":"poolId","type":"uint256","internalType":"uint256"},{"name":"sourcePointer","type":"uint256","internalType":"uint256"},{"name":"targetPointer","type":"uint256","internalType":"uint256"},{"name":"poolGrowthPortion","type":"uint256","internalType":"X47"},{"name":"maxPoolGrowthPortion","type":"uint256","internalType":"X47"},{"name":"protocolGrowthPortion","type":"uint256","internalType":"X47"},{"name":"pendingKernelLength","type":"uint256","internalType":"Index"}],"outputs":[{"name":"poolIdResult","type":"uint256","internalType":"uint256"},{"name":"sourcePointerResult","type":"uint256","internalType":"uint256"},{"name":"targetPointerResult","type":"uint256","internalType":"uint256"},{"name":"poolGrowthPortionResult","type":"uint256","internalType":"X47"},{"name":"maxPoolGrowthPortionResult","type":"uint256","internalType":"X47"},{"name":"protocolGrowthPortionResult","type":"uint256","internalType":"X47"},{"name":"pendingKernelLengthResult","type":"uint256","internalType":"Index"},{"name":"testValue","type":"bool","internalType":"bool"}],"stateMutability":"nonpayable"},{"type":"function","name":"_redeployStaticParamsAndKernelReverts","inputs":[],"outputs":[],"stateMutability":"nonpayable"},{"type":"function","name":"_redeployStaticParamsAndKernelSlot","inputs":[],"outputs":[{"name":"transientSlot","type":"uint256","internalType":"uint256"}],"stateMutability":"nonpayable"},{"type":"function","name":"_reserveSlot","inputs":[],"outputs":[{"name":"transientSlot","type":"uint256","internalType":"uint256"}],"stateMutability":"nonpayable"},{"type":"function","name":"_tokenIdSlot","inputs":[],"outputs":[{"name":"transientSlot","type":"uint256","internalType":"uint256"}],"stateMutability":"nonpayable"},{"type":"function","name":"_tokenSlot","inputs":[],"outputs":[{"name":"transientSlot","type":"uint256","internalType":"uint256"}],"stateMutability":"nonpayable"},{"type":"function","name":"_transientBalanceSlot","inputs":[],"outputs":[{"name":"transientSlot","type":"uint256","internalType":"uint256"}],"stateMutability":"nonpayable"},{"type":"function","name":"_unlockTargetSlot","inputs":[],"outputs":[{"name":"transientSlot","type":"uint256","internalType":"uint256"}],"stateMutability":"nonpayable"},{"type":"function","name":"_updateGetTransientBalance","inputs":[{"name":"owners","type":"address[]","internalType":"address[]"},{"name":"tags","type":"uint256[]","internalType":"Tag[]"},{"name":"amounts","type":"int256[]","internalType":"int256[]"}],"outputs":[{"name":"","type":"int256[]","internalType":"int256[]"},{"name":"","type":"uint256","internalType":"uint256"}],"stateMutability":"nonpayable"},{"type":"function","name":"_writeReadReserve","inputs":[{"name":"token","type":"address","internalType":"address"},{"name":"tokenId","type":"uint256","internalType":"uint256"},{"name":"reserve","type":"uint256","internalType":"uint256"},{"name":"multiToken","type":"bool","internalType":"bool"}],"outputs":[{"name":"tokenResult","type":"address","internalType":"address"},{"name":"tokenIdResult","type":"uint256","internalType":"uint256"},{"name":"reserveResult","type":"uint256","internalType":"uint256"},{"name":"multiTokenResult","type":"bool","internalType":"bool"}],"stateMutability":"nonpayable"},{"type":"function","name":"dispatch","inputs":[{"name":"input","type":"bytes","internalType":"bytes"}],"outputs":[{"name":"output0","type":"int256","internalType":"int256"},{"name":"output1","type":"int256","internalType":"int256"}],"stateMutability":"nonpayable"},{"type":"function","name":"redeployStaticParamsAndKernel","inputs":[],"outputs":[],"stateMutability":"nonpayable"},{"type":"error","name":"AlreadyUnlocked","inputs":[{"name":"currentCaller","type":"address","internalType":"address"}]},{"type":"error","name":"CannotMintAfterBurning","inputs":[{"name":"poolId","type":"uint256","internalType":"uint256"},{"name":"qMin","type":"int256","internalType":"X59"},{"name":"qMax","type":"int256","internalType":"X59"}]},{"type":"error","name":"CannotRedeployStaticParamsAndKernelExternally","inputs":[]},{"type":"error","name":"DeploymentFailed","inputs":[]},{"type":"error","name":"NativeTokenCannotBeSynced","inputs":[]},{"type":"error","name":"PoolIsLocked","inputs":[{"name":"poolId","type":"uint256","internalType":"uint256"}]},{"type":"error","name":"ProtocolIsLocked","inputs":[]}],"bytecode":{"object":"0x608060405234601c57600e6020565b61275e61002b823961275e90f35b6026565b60405190565b5f80fdfe60806040526004361015610013575b610e0e565b61001d5f356101ac565b80630130623b146101a757806308503b76146101a25780630bfbb0a71461019d57806314640252146101985780631ff10a48146101935780632571ca221461018e5780632d0cb2e5146101895780633024c5e514610184578063346a31701461017f57806335a908621461017a5780633b5102dc1461017557806345d9bd3c1461017057806345e42c7e1461016b5780634808125f146101665780635ffea0e01461016157806360987cc31461015c57806368ce75b01461015757806379d19b65146101525780638e40a2541461014d5780639ae31fca14610148578063ab7fff1814610143578063b5b6bbbc1461013e578063ce460ff214610139578063e1cfef2b146101345763f7446bce0361000e57610dd8565b610d53565b610d1e565b610ce4565b610c8b565b610be1565b610bac565b610b77565b610b44565b610b0e565b610ab6565b610a81565b610a4d565b6109e3565b6107b2565b61077d565b610747565b6106e5565b6106b2565b61065b565b610622565b61053b565b6104e1565b61049b565b6102f7565b60e01c90565b60405190565b5f80fd5b5f80fd5b5f80fd5b60018060a01b031690565b6101d8906101c4565b90565b6101e4816101cf565b036101eb57565b5f80fd5b905035906101fc826101db565b565b90565b61020a816101fe565b0361021157565b5f80fd5b9050359061022282610201565b565b151590565b61023281610224565b0361023957565b5f80fd5b9050359061024a82610229565b565b60808183031261028d57610262825f83016101ef565b9261028a6102738460208501610215565b936102818160408601610215565b9360600161023d565b90565b6101bc565b61029b906101cf565b9052565b6102a8906101fe565b9052565b6102b590610224565b9052565b6102ee6102f5946102e46060949897956102da608086019a5f870190610292565b602085019061029f565b604083019061029f565b01906102ac565b565b3461032f5761032b61031661030d36600461024c565b92919091610e1e565b906103229492946101b2565b948594856102b9565b0390f35b6101b8565b61033d816101fe565b0361034457565b5f80fd5b9050359061035582610334565b565b610360816101fe565b0361036757565b5f80fd5b9050359061037882610357565b565b60e0818303126103e557610390825f8301610215565b9261039e8360208401610215565b926103ac8160408501610215565b926103ba8260608301610348565b926103e26103cb8460808501610348565b936103d98160a08601610348565b9360c00161036b565b90565b6101bc565b90565b6104016103fc610406926101fe565b6103ea565b6101fe565b90565b610412906103ed565b9052565b61041f906103ed565b9052565b959391989796949290986101008701995f880161043f9161029f565b6020870161044c9161029f565b604086016104599161029f565b6060850161046691610409565b6080840161047391610409565b60a0830161048091610409565b60c0820161048d91610416565b60e001610499916102ac565b565b346104dc576104d86104bd6104b136600461037a565b95949094939193610ee9565b946104cf9896989491949392936101b2565b98899889610423565b0390f35b6101b8565b346105225761051e6105036104f736600461037a565b95949094939193610fbc565b946105159896989491949392936101b2565b98899889610423565b0390f35b6101b8565b5f91031261053157565b6101bc565b5f0190565b346105695761054b366004610527565b610553611047565b61055b6101b2565b8061056581610536565b0390f35b6101b8565b90565b61057a8161056e565b0361058157565b5f80fd5b9050359061059282610571565b565b61059d8161056e565b036105a457565b5f80fd5b905035906105b582610594565b565b919060a083820312610608576105cf815f8501610215565b926105dd8260208301610585565b926106056105ee8460408501610585565b936105fc81606086016105a8565b93608001610215565b90565b6101bc565b9190610620905f6020850194019061029f565b565b34610656576106526106416106383660046105b7565b939290926110bc565b6106496101b2565b9182918261060d565b0390f35b6101b8565b3461068f5761068b61067a6106713660046105b7565b93929092611100565b6106826101b2565b9182918261060d565b0390f35b6101b8565b906020828203126106ad576106aa915f01610215565b90565b6101bc565b346106e0576106ca6106c5366004610694565b611124565b6106d26101b2565b806106dc81610536565b0390f35b6101b8565b34610715576106f5366004610527565b610711610700611193565b6107086101b2565b9182918261060d565b0390f35b6101b8565b9190604083820312610742578061073661073f925f8601610215565b93602001610215565b90565b6101bc565b346107785761077461076361075d36600461071a565b906111d2565b61076b6101b2565b9182918261060d565b0390f35b6101b8565b346107ad5761078d366004610527565b6107a96107986112a9565b6107a06101b2565b9182918261060d565b0390f35b6101b8565b346107e2576107c2366004610527565b6107de6107cd611308565b6107d56101b2565b9182918261060d565b0390f35b6101b8565b5f80fd5b5f80fd5b5f80fd5b909182601f8301121561082d5781359167ffffffffffffffff831161082857602001926020830284011161082357565b6107ef565b6107eb565b6107e7565b909182601f8301121561086c5781359167ffffffffffffffff831161086757602001926020830284011161086257565b6107ef565b6107eb565b6107e7565b909182601f830112156108ab5781359167ffffffffffffffff83116108a65760200192602083028401116108a157565b6107ef565b6107eb565b6107e7565b90606082820312610931575f82013567ffffffffffffffff811161092c57816108da9184016107f3565b929093602082013567ffffffffffffffff811161092757836108fd918401610832565b929093604082013567ffffffffffffffff81116109225761091e9201610871565b9091565b6101c0565b6101c0565b6101c0565b6101bc565b5190565b60209181520190565b60200190565b6109529061056e565b9052565b9061096381602093610949565b0190565b60200190565b9061098a61098461097d84610936565b809361093a565b92610943565b905f5b81811061099a5750505090565b9091926109b36109ad6001928651610956565b94610967565b910191909161098d565b929160206109d96109e19360408701908782035f89015261096d565b94019061029f565b565b34610a1b57610a026109f63660046108b0565b94939093929192611489565b90610a17610a0e6101b2565b928392836109bd565b0390f35b6101b8565b9190604083820312610a485780610a3c610a45925f86016101ef565b936020016101ef565b90565b6101bc565b34610a7c57610a66610a60366004610a20565b906115c0565b610a6e6101b2565b80610a7881610536565b0390f35b6101b8565b34610ab157610a91366004610527565b610aad610a9c61161f565b610aa46101b2565b9182918261060d565b0390f35b6101b8565b34610ae657610ac6366004610527565b610ae2610ad161167e565b610ad96101b2565b9182918261060d565b0390f35b6101b8565b916020610b0c929493610b0560408201965f83019061029f565b019061029f565b565b34610b3f57610b26610b21366004610694565b611692565b90610b3b610b326101b2565b92839283610aeb565b0390f35b6101b8565b34610b7257610b54366004610527565b610b5c6116d6565b610b646101b2565b80610b6e81610536565b0390f35b6101b8565b34610ba757610b87366004610527565b610ba3610b92611732565b610b9a6101b2565b9182918261060d565b0390f35b6101b8565b34610bdc57610bd8610bc7610bc2366004610694565b611746565b610bcf6101b2565b9182918261060d565b0390f35b6101b8565b34610c1157610bf1366004610527565b610c0d610bfc6117c7565b610c046101b2565b9182918261060d565b0390f35b6101b8565b909182601f83011215610c505781359167ffffffffffffffff8311610c4b576020019260018302840111610c4657565b6107ef565b6107eb565b6107e7565b90602082820312610c86575f82013567ffffffffffffffff8111610c8157610c7d9201610c16565b9091565b6101c0565b6101bc565b34610ca157610c9b366004610c55565b906117e7565b6101b8565b610cdb610ce294610cd1606094989795610cc7608086019a5f870190610292565b6020850190610292565b6040830190610292565b0190610292565b565b34610d1957610d15610d00610cfa366004610a20565b9061181c565b90610d0c9492946101b2565b94859485610ca6565b0390f35b6101b8565b34610d4e57610d2e366004610527565b610d4a610d3961192b565b610d416101b2565b9182918261060d565b0390f35b6101b8565b34610d8357610d63366004610527565b610d7f610d6e6119ab565b610d766101b2565b9182918261060d565b0390f35b6101b8565b610d91816101fe565b03610d9857565b5f80fd5b90503590610da982610d88565b565b9190604083820312610dd35780610dc7610dd0925f86016101ef565b93602001610d9c565b90565b6101bc565b34610e0957610e05610df4610dee366004610dab565b906119c7565b610dfc6101b2565b9182918261060d565b0390f35b6101b8565b5f80fd5b5f90565b5f90565b5f90565b90610e53610e5d94610e5893610e32610e12565b50610e3b610e16565b50610e44610e16565b50610e4d610e1a565b50611abc565b611b55565b611b68565b610e65611bce565b90919293565b5f90565b5f90565b5f1c90565b60ff1690565b610e8a610e8f91610e73565b610e78565b90565b610e9c9054610e7e565b90565b5f1b90565b90610eb060ff91610e9f565b9181191691161790565b610ec390610224565b90565b90565b90610ede610ed9610ee592610eba565b610ec6565b8254610ea4565b9055565b91610f4896949295939195610efc610e16565b50610f05610e16565b50610f0e610e16565b50610f17610e6b565b50610f20610e6b565b50610f29610e6b565b50610f32610e6f565b50610f3b610e1a565b5095909192939495611dc8565b610f515f610e92565b610f59611f82565b5050505050505060017fa16a3cb3a8861ad97eb93808d8efbb8a4a4b6ec0c8563d6da823a8190f8645eb03916001835c9303916001835c9303916001835c9303916001835c9303916001835c9303916001835c93035c91610fba5f5f610ec9565b565b9161101b96949295939195610fcf610e16565b50610fd8610e16565b50610fe1610e16565b50610fea610e6b565b50610ff3610e6b565b50610ffc610e6b565b50611005610e6f565b5061100e610e1a565b5095909192939495611dc8565b6110245f610e92565b61102c611f82565b9690919293949596919293949596976110455f5f610ec9565b565b61105260015f610ec9565b565b90565b61106b61106661107092611054565b6103ea565b61056e565b90565b634e487b7160e01b5f52601160045260245ffd5b61109661109c9193929361056e565b9261056e565b91828103925f8285128183121692851391121516176110b757565b611073565b926110f8926110fd95946110ce610e16565b506110ef818584906110e95f6110e48991611057565b611087565b926122c7565b929091926122c7565b61234e565b90565b9261111c926111219594611112610e16565b50929091926122c7565b61234e565b90565b61112d9061235b565b611146611138612360565b611141816123c5565b6123c5565b565b90565b61115f61115a61116492611148565b6103ea565b6101fe565b90565b6111907f53dc9bf46bebdca9be947ee80674b58899973aac1948a8396714431da6d4f16661114b565b90565b61119b610e16565b506111a4611167565b90565b6111bb6111b66111c092611054565b6103ea565b6101fe565b90565b60016111cf91016101fe565b90565b906111db610e16565b506111e55f6111a7565b5b806111f96111f3856101fe565b916101fe565b1015611215576112109061120b61240e565b6111c3565b6111e6565b5090506112215f6111a7565b5b8061123561122f846101fe565b916101fe565b10156112515761124c9061124761243c565b6111c3565b611222565b505061125b61246a565b90565b90565b61127561127061127a9261125e565b6103ea565b6101fe565b90565b6112a67fa16a3cb3a8861ad97eb93808d8efbb8a4a4b6ec0c8563d6da823a8190f8645eb611261565b90565b6112b1610e16565b506112ba61127d565b90565b90565b6112d46112cf6112d9926112bd565b6103ea565b6101fe565b90565b6113057f5d43e4cd1a16168a103e08dc189528d374b6e2bd5c612e94553d728c800301036112c0565b90565b611310610e16565b506113196112dc565b90565b606090565b5090565b634e487b7160e01b5f52603260045260245ffd5b9190811015611349576020020190565b611325565b35611358816101db565b90565b919081101561136b576020020190565b611325565b3561137a81610d88565b90565b919081101561138d576020020190565b611325565b3561139c81610594565b90565b601f801991011690565b634e487b7160e01b5f52604160045260245ffd5b906113c79061139f565b810190811067ffffffffffffffff8211176113e157604052565b6113a9565b906113f96113f26101b2565b92836113bd565b565b67ffffffffffffffff81116114135760208091020190565b6113a9565b9061142a611425836113fb565b6113e6565b918252565b369037565b9061145961144183611418565b9260208061144f86936113fb565b920191039061142f565b565b9061146582610936565b811015611476576020809102010190565b611325565b906114859061056e565b9052565b95949291939561149761131c565b506114a0610e16565b506114ac818390611321565b6114b55f6111a7565b5b806114c96114c3846101fe565b916101fe565b1015611525576115209061151b888b6115156115106115076115026114f96114f48d8d908b91611339565b61134e565b958d899161135b565b611370565b928c879161137d565b611392565b916124bb565b6111c3565b6114b6565b5096509091925061153586611434565b9461153f5f6111a7565b5b8061155361154d8a6101fe565b916101fe565b10156115ad576115a8906115a361159161157761157287898691611339565b61134e565b61158b6115868b8b879161135b565b611370565b90612551565b61159e8a9184909261145b565b61147b565b6111c3565b611540565b50955050505050906115bd61246a565b90565b906115ca916125ab565b6115d2612626565b565b90565b6115eb6115e66115f0926115d4565b6103ea565b6101fe565b90565b61161c7f9b9b0454cadcb5884dd3faa6ba975da4d2459aa3f11d31291a25a8358f84946c6115d7565b90565b611627610e16565b506116306115f3565b90565b90565b61164a61164561164f92611633565b6103ea565b6101fe565b90565b61167b7f08afe526398486e38896d620563771687e7d20a3b0d01f72483eeb2e7d93a48e611636565b90565b611686610e16565b5061168f611652565b90565b6116ad9061169e610e16565b506116a7610e16565b5061235b565b6116b5612360565b906116bf826123c5565b6116c7612360565b6116d2815c9361265c565b5c90565b6116de611f82565b50505050505050565b90565b6116fe6116f9611703926116e7565b6103ea565b6101fe565b90565b61172f7ff712c2fa585715e22c7fcc833629ce4482ad96496ecd08f3a14847183c4ef4ed6116ea565b90565b61173a610e16565b50611743611706565b90565b61175890611752610e16565b5061235b565b611760612360565b90565b90565b6bffffffffffffffffffffffff1690565b61178b61178661179092611763565b6103ea565b611766565b90565b6117a86bdc0da6920d198e2eedf81ef6611777565b90565b6117bf6117ba6117c492611766565b6103ea565b6101fe565b90565b6117cf610e16565b506117e06117db611793565b6117ab565b90565b5f90565b50506117f16117e3565b506117fa6117e3565b5060405f602435806044833781305af4156118145760405ff35b3d5f803e3d5ffd5b9061184a91611829610e12565b50611832610e12565b5061183b610e12565b50611844610e12565b506125ab565b7f08afe526398486e38896d620563771687e7d20a3b0d01f72483eeb2e7d93a48e5c907fd71f1cf4f9d9f82ef0f0a7247563f6632677ada0e0f8f0d8734b4d2327da39e95c90611898612671565b7f08afe526398486e38896d620563771687e7d20a3b0d01f72483eeb2e7d93a48e5c907fd71f1cf4f9d9f82ef0f0a7247563f6632677ada0e0f8f0d8734b4d2327da39e95c90565b90565b6118f76118f26118fc926118e0565b6103ea565b6101fe565b90565b6119287fd71f1cf4f9d9f82ef0f0a7247563f6632677ada0e0f8f0d8734b4d2327da39e96118e3565b90565b611933610e16565b5061193c6118ff565b90565b90565b6fffffffffffffffffffffffffffffffff1690565b61196b6119666119709261193f565b6103ea565b611942565b90565b61198c6f1605fc00905adeb7c36aafa65ecdd6bd611957565b90565b6119a361199e6119a892611942565b6103ea565b6101fe565b90565b6119b3610e16565b506119c46119bf611973565b61198f565b90565b906119da916119d4610e16565b506126a7565b90565b6119f16119ec6119f692611054565b6103ea565b6101c4565b90565b611a02906119dd565b90565b15611a0c57565b5f63c0a7e46960e01b815280611a2460048201610536565b0390fd5b611a3c611a37611a41926101c4565b6103ea565b6101c4565b90565b611a4d90611a28565b90565b611a64611a5f611a69926101c4565b6103ea565b6101fe565b90565b90565b60ff1690565b611a89611a84611a8e92611a6c565b6103ea565b611a6f565b90565b1b90565b611ab490611aae611aa8611ab994611a6f565b916101fe565b90611a91565b6101fe565b90565b611b4591611ae582611ade611ad8611ad35f6119f9565b6101cf565b916101cf565b1415611a05565b611afe611af9611af36115f3565b93611a44565b611a50565b611b0d60018060a01b03611a50565b16905f14611b4757611b3d611b2d6bffffffffffffffffffffffff6117ab565b611b3760a0611a75565b90611a95565b5b17906126cc565b565b611b505f6111a7565b611b3e565b611b6690611b61611167565b6126cc565b565b611b7990611b74611706565b6126cc565b565b611b8f611b8a611b94926101fe565b6103ea565b6101c4565b90565b611ba090611a28565b90565b1c90565b611bc690611bc0611bba611bcb94611a6f565b916101fe565b90611ba3565b6101fe565b90565b611bd6610e12565b50611bdf610e16565b611be7610e16565b611bef610e1a565b611bff611bfa6115f3565b61234e565b93611c21611c1c86611c1660018060a01b03611a50565b16611b7b565b611b97565b9485611c3d611c37611c325f6119f9565b6101cf565b916101cf565b03611c46575b50565b909250611c5e9150611c5860a0611a75565b90611ba7565b611c70611c6a5f6111a7565b916101fe565b1180611c8e575b611c87611c82611706565b61234e565b915f611c43565b9150611ca0611c9b611167565b61234e565b91611c77565b90565b611cbd611cb8611cc292611ca6565b6103ea565b6101fe565b90565b90611cd091036101fe565b90565b90565b611cea611ce5611cef92611cd3565b6103ea565b6101fe565b90565b90565b611d09611d04611d0e92611cf2565b6103ea565b6101fe565b90565b90565b611d28611d23611d2d92611d11565b6103ea565b6101fe565b90565b90565b611d47611d42611d4c92611d30565b6103ea565b6101fe565b90565b90565b611d66611d61611d6b92611d4f565b6103ea565b6101fe565b90565b90565b611d85611d80611d8a92611d6e565b6103ea565b6101fe565b90565b63ffffffff60e01b1690565b611da290611d8d565b90565b15611dac57565b5f633011642560e01b815280611dc460048201610536565b0390fd5b611ed7969593611e57611e9794611e37611eb79895611e17611e7796611df7611def61127d565b5f19906126cc565b611e12611e0261127d565b611e0c6001611ca9565b90611cc5565b6126cc565b611e32611e2261127d565b611e2c6002611cd6565b90611cc5565b6126cc565b611e52611e4261127d565b611e4c6003611cf5565b90611cc5565b6126cc565b611e72611e6261127d565b611e6c6004611d14565b90611cc5565b6126cf565b611e92611e8261127d565b611e8c6005611d33565b90611cc5565b6126cf565b611eb2611ea261127d565b611eac6006611d52565b90611cc5565b6126cf565b611ed2611ec261127d565b611ecc6007611d71565b90611cc5565b6126d2565b611f5d611f037fab7fff18ef175da7256f14d9ba7e8ad14a920a026b4588afbc39d7a18a9a4aa6611d99565b611f2c7f14640252f378e6434e33d348888b077b3deeebf45c66ac61939fef26a9421cf6611d99565b90611f35610e1a565b506040519160e01c602852600460245260206004525f525f80604881305af490604052611da5565b565b15611f6657565b5f637275462b60e01b815280611f7e60048201610536565b0390fd5b611f8a610e16565b50611f93610e16565b50611f9c610e16565b50611fa5610e6b565b50611fae610e6b565b50611fb7610e6b565b50611fc0610e6f565b50611fec611fd4611fcf61127d565b61234e565b611fe6611fe05f6111a7565b916101fe565b11611f5f565b61200f61200a611ffa61127d565b6120046001611ca9565b90611cc5565b61234e565b9061203361202e61201e61127d565b6120286002611cd6565b90611cc5565b61234e565b9061205761205261204261127d565b61204c6003611cf5565b90611cc5565b61234e565b9061207b61207661206661127d565b6120706004611d14565b90611cc5565b6126d5565b9061209f61209a61208a61127d565b6120946005611d33565b90611cc5565b6126d5565b906120c36120be6120ae61127d565b6120b86006611d52565b90611cc5565b6126d5565b906120e76120e26120d261127d565b6120dc6007611d71565b90611cc5565b6126e2565b906121026120f361127d565b6120fc5f6111a7565b906126cc565b61212f61212061211061127d565b61211a6001611ca9565b90611cc5565b6121295f6111a7565b906126cc565b61215c61214d61213d61127d565b6121476002611cd6565b90611cc5565b6121565f6111a7565b906126cc565b61218961217a61216a61127d565b6121746003611cf5565b90611cc5565b6121835f6111a7565b906126cc565b6121b66121a761219761127d565b6121a16004611d14565b90611cc5565b6121b05f6111a7565b906126cc565b6121e36121d46121c461127d565b6121ce6005611d33565b90611cc5565b6121dd5f6111a7565b906126cc565b6122106122016121f161127d565b6121fb6006611d52565b90611cc5565b61220a5f6111a7565b906126cc565b61223d61222e61221e61127d565b6122286007611d71565b90611cc5565b6122375f6111a7565b906126cc565b565b61225361224e6122589261056e565b6103ea565b61056e565b90565b6122649061223f565b9052565b604090612291612298949695939661228760608401985f85019061029f565b602083019061225b565b019061225b565b565b92909192156122a857505050565b6122c3905f938493630ef5859f60e31b855260048501612268565b0390fd5b91906122d1610e16565b506f1605fc00905adeb7c36aafa65ecdd6bd6020528160105280600852825f5260405f20936123086123025f611057565b9161056e565b135f1461233a5761231b6123379461234e565b61232d6123275f6111a7565b916101fe565b149290919261229a565b5b565b505050612349905f19906126cc565b612338565b612356610e16565b505c90565b60d852565b612368610e16565b506123716126ef565b7f08afe526398486e38896d620563771687e7d20a3b0d01f72483eeb2e7d93a48e6020525f5260405f2090565b156123a65750565b6123c1905f9182916376f8d70760e01b83526004830161060d565b0390fd5b6123fe906123f66123d58261234e565b6123e76123e15f6111a7565b916101fe565b146123f06126ef565b9061239e565b5f19906126cc565b565b9061240b91016101fe565b90565b61243a6124196112dc565b61243461242461246a565b61242e6001611ca9565b90612400565b906126cc565b565b6124686124476112dc565b61246261245261246a565b61245c6001611ca9565b90611cc5565b906126cc565b565b612472610e16565b5061248361247e6112dc565b61234e565b90565b61249561249b9193929361056e565b9261056e565b808301925f828512158183121692851291121516176124b657565b611073565b919091816124d16124cb5f611057565b9161056e565b1461254c57612520926124e3916126a7565b6124f66124ef826126fe565b9283612486565b918261250a6125045f611057565b9161056e565b145f14612522575061251a61243c565b5b61270b565b565b61253461252e5f611057565b9161056e565b1461253f575b61251b565b61254761240e565b61253a565b505050565b61256c91612567916125616117e3565b506126a7565b6126fe565b90565b9190612582905f60208501940190610292565b565b1561258c5750565b6125a7905f918291632ab8097760e01b83526004830161256f565b0390fd5b906125f4612601926125e76125c66125c16118ff565b61270e565b806125e16125db6125d65f6119f9565b6101cf565b916101cf565b14612584565b6125ef611652565b61271b565b6125fc6118ff565b61271b565b565b1561260a57565b5f63892e4e5760e01b81528061262260048201610536565b0390fd5b61265a6126396126346118ff565b61270e565b61265361264d6126485f6119f9565b6101cf565b916101cf565b1415612603565b565b61266f906126695f6111a7565b906126cc565b565b61268b61267c611652565b6126855f6119f9565b9061271b565b6126a56126966118ff565b61269f5f6119f9565b9061271b565b565b6126af610e16565b506bdc0da6920d198e2eedf81ef66020526014525f5260405f2090565b5d565b5d565b5d565b6126dd610e6b565b505c90565b6126ea610e6f565b505c90565b6126f7610e16565b5060d85190565b6127066117e3565b505c90565b5d565b612716610e12565b505c90565b9060018060a01b0316905d56fea26469706673582212208ca0f67a3d31045ed513e073924bc292af78bceaea2ef8e7c5390dc7991e82ff64736f6c63430008220033","linkReferences":{}},"methodIdentifiers":{"_burntPositionSlot()":"e1cfef2b","_callerSlot()":"ce460ff2","_checkBurntPosition(uint256,int256,int256,int256,uint256)":"2571ca22","_checkBurntPositionBurnMint(uint256,int256,int256,int256,uint256)":"1ff10a48","_clearRedeployStaticParamsAndKernel(uint256,uint256,uint256,uint256,uint256,uint256,uint256)":"08503b76","_getPoolLockSlot(uint256)":"8e40a254","_getTransientBalanceSlot(address,uint256)":"f7446bce","_isProtocolUnlocked(address,address)":"45e42c7e","_lockPoolRevert(uint256)":"2d0cb2e5","_lockUnlockPool(uint256)":"60987cc3","_lockUnlockProtocol(address,address)":"b5b6bbbc","_nonzeroAmountsSlot()":"3b5102dc","_readNonzeroAmounts(uint256,uint256)":"346a3170","_redeployStaticParamsAndKernel(uint256,uint256,uint256,uint256,uint256,uint256,uint256)":"0bfbb0a7","_redeployStaticParamsAndKernelReverts()":"68ce75b0","_redeployStaticParamsAndKernelSlot()":"35a90862","_reserveSlot()":"79d19b65","_tokenIdSlot()":"3024c5e5","_tokenSlot()":"4808125f","_transientBalanceSlot()":"9ae31fca","_unlockTargetSlot()":"5ffea0e0","_updateGetTransientBalance(address[],uint256[],int256[])":"45d9bd3c","_writeReadReserve(address,uint256,uint256,bool)":"0130623b","dispatch(bytes)":"ab7fff18","redeployStaticParamsAndKernel()":"14640252"},"id":32}