{"abi":[{"type":"function","name":"_readCollectInput","inputs":[],"outputs":[],"stateMutability":"nonpayable"},{"type":"function","name":"_readDonateInput","inputs":[],"outputs":[],"stateMutability":"nonpayable"},{"type":"function","name":"_readInitializeInput","inputs":[],"outputs":[{"name":"kernelCompact","type":"uint256","internalType":"KernelCompact"}],"stateMutability":"nonpayable"},{"type":"function","name":"_readModifyKernelInput","inputs":[],"outputs":[{"name":"kernelCompact","type":"uint256","internalType":"KernelCompact"}],"stateMutability":"nonpayable"},{"type":"function","name":"_readModifyPoolGrowthPortionInput","inputs":[],"outputs":[],"stateMutability":"nonpayable"},{"type":"function","name":"_readModifyPositionInput","inputs":[],"outputs":[],"stateMutability":"nonpayable"},{"type":"function","name":"_readSwapInput","inputs":[],"outputs":[],"stateMutability":"nonpayable"},{"type":"function","name":"_readUpdateGrowthPortionsInput","inputs":[],"outputs":[],"stateMutability":"nonpayable"},{"type":"error","name":"CurveLengthIsZero","inputs":[]},{"type":"error","name":"HookDataTooLong","inputs":[{"name":"hookDataByteCount","type":"uint256","internalType":"uint256"}]},{"type":"error","name":"InvalidGrowthPortion","inputs":[{"name":"poolGrowthPortion","type":"uint256","internalType":"X47"}]},{"type":"error","name":"InvalidNumberOfShares","inputs":[{"name":"shares","type":"int256","internalType":"int256"}]},{"type":"error","name":"LogOffsetOutOfRange","inputs":[{"name":"qOffset","type":"int256","internalType":"X59"}]},{"type":"error","name":"LogPriceOutOfRange","inputs":[{"name":"logPrice","type":"int256","internalType":"X59"}]},{"type":"error","name":"PoolExists","inputs":[{"name":"poolId","type":"uint256","internalType":"uint256"}]},{"type":"error","name":"PoolIdCannotBeZero","inputs":[]},{"type":"error","name":"TagsOutOfOrder","inputs":[{"name":"tag0","type":"uint256","internalType":"Tag"},{"name":"tag1","type":"uint256","internalType":"Tag"}]}],"bytecode":{"object":"0x608060405234601c57600e6020565b6118aa61002b82396118aa90f35b6026565b60405190565b5f80fdfe60806040526004361015610013575b6102a4565b61001d5f3561009c565b806338e59837146100975780636853005d14610092578063720221f81461008d57806376e9a038146100885780639c3bdba514610083578063d28b2ce71461007e578063e7675635146100795763ed93ed850361000e57610271565b61023c565b610209565b6101d6565b6101a3565b610170565b61013b565b6100c4565b60e01c90565b60405190565b5f80fd5b5f80fd5b5f9103126100ba57565b6100ac565b5f0190565b346100f2576100d43660046100b0565b6100dc6102a8565b6100e46100a2565b806100ee816100bf565b0390f35b6100a8565b90565b90565b61011161010c610116926100f7565b6100fa565b6100f7565b90565b610122906100fd565b9052565b9190610139905f60208501940190610119565b565b3461016b5761014b3660046100b0565b6101676101566102c1565b61015e6100a2565b91829182610126565b0390f35b6100a8565b3461019e576101803660046100b0565b6101886102e0565b6101906100a2565b8061019a816100bf565b0390f35b6100a8565b346101d1576101b33660046100b0565b6101bb6102f5565b6101c36100a2565b806101cd816100bf565b0390f35b6100a8565b34610204576101e63660046100b0565b6101ee61030a565b6101f66100a2565b80610200816100bf565b0390f35b6100a8565b34610237576102193660046100b0565b61022161031f565b6102296100a2565b80610233816100bf565b0390f35b6100a8565b3461026c5761024c3660046100b0565b61026861025761033a565b61025f6100a2565b91829182610126565b0390f35b6100a8565b3461029f576102813660046100b0565b610289610359565b6102916100a2565b8061029b816100bf565b0390f35b6100a8565b5f80fd5b6102b0610440565b5f6102b96104c1565b81a1565b5f90565b6102c96102bd565b506102d2610539565b905f6102dc6104c1565b81a1565b6102e861062f565b5f6102f16104c1565b81a1565b6102fd61070c565b5f6103066104c1565b81a1565b61031261085a565b5f61031b6104c1565b81a1565b610327610890565b5f6020610332610a36565b60a4010181a1565b6103426102bd565b5061034b610c65565b905f6103556104c1565b81a1565b610361611007565b5f61036a6104c1565b81a1565b5f90565b5f90565b90565b61038d61038861039292610376565b6100fa565b6100f7565b90565b6103a465800000000000610379565b90565b6103b0906100fd565b9052565b91906103c7905f602085019401906103a7565b565b156103d15750565b6103ec905f918291631f84bbb360e01b8352600483016103b4565b0390fd5b90565b61ffff1690565b61040e610409610413926103f0565b6100fa565b6103f3565b90565b6104216108086103fa565b90565b61043861043361043d926103f3565b6100fa565b6100f7565b90565b61044933611242565b61045161036e565b5061045d600435611255565b610465610372565b5061048d6024356104886104818261047b610395565b90611263565b82906103c9565b611282565b61049561036e565b506104a7602060a46108080303611297565b6104bf6104ba6104b5610416565b610424565b61129c565b565b6104c961036e565b5060405190565b5f90565b6104dd906100f7565b9052565b91906104f4905f602085019401906104d4565b565b156104fe5750565b610519905f91829163805cfd4b60e01b8352600483016104e1565b0390fd5b61053161052c610536926100f7565b6100fa565b6103f3565b90565b6105416102bd565b5061054b33611242565b61055361036e565b5061055f600435611255565b6105676104d0565b5061057061036e565b5061057961036e565b506024356004019061062d60a46106286108089461062361061e823560051b6105aa6005820460051b8a01996112a1565b6105b261036e565b506105bb61036e565b506105c461036e565b506105cd61036e565b506105f86044356004018a602084820192803595869383808688019e8f03039b0190370182376112a7565b6106198161061061060a61ffff610424565b916100f7565b111582906104f6565b61051d565b6112ad565b611297565b61129c565b565b61063761036e565b50610643600435611255565b61064b61036e565b5061065d602060a46108080303611297565b61067561067061066b610416565b610424565b61129c565b565b5f90565b90565b600f0b90565b61069861069361069d9261067e565b6100fa565b61067b565b90565b6106a99061067b565b9052565b91906106c0905f602085019401906106a0565b565b156106ca5750565b6106e5905f91829163c270deb360e01b8352600483016106ad565b0390fd5b90565b6107006106fb610705926106e9565b6100fa565b61067b565b90565b5f90565b61071533611242565b61071d61036e565b50610729600435611255565b610731610677565b5061078a6024356107678161075e6107586f7fffffffffffffffffffffffffffffff610684565b9161067b565b131582906106c2565b6107858161077d6107775f6106ec565b9161067b565b1382906106c2565b6112c2565b610792610708565b5061079b61036e565b506107a461036e565b506107ad61036e565b506107b661036e565b5061082c6044356004016108276108089161082261081d6020610808016107f78435916107f2838201988460208060a48d0303990184376112c8565b6112a7565b6108188161080f61080961ffff610424565b916100f7565b111582906104f6565b61051d565b6112ad565b611297565b61129c565b565b90565b61084561084061084a9261082e565b6100fa565b6103f3565b90565b61085760f8610831565b90565b61086261036e565b5061086e600435611255565b61088661088161087c61084d565b610424565b61129c565b565b5f90565b5f90565b61089933611242565b6108a161036e565b506108ad600435611255565b6108b5610888565b506024356f7fffffffffffffffffffffffffffffff5f038112610a1d575b6f7fffffffffffffffffffffffffffffff8113610a01575b6108fa906001607f1b026112ce565b61090261088c565b5061090e6044356112d4565b61091661036e565b5060643560801c6f7fffffffffffffffffffffffffffffff81116109e5575b61093e906112da565b60743560801c600281116109dd575b610150536109596104d0565b5061096261036e565b5061096b61036e565b5061097461036e565b506109db6084356004016109d6610808916109d16109cc82356109a6818701968260208060a48b0303970182376112a7565b6109c7816109be6109b861ffff610424565b916100f7565b111582906104f6565b61051d565b6112ad565b611297565b6112a1565b565b50600261094d565b5061093e6f7fffffffffffffffffffffffffffffff9050610935565b506108fa6f7fffffffffffffffffffffffffffffff90506108eb565b506f7fffffffffffffffffffffffffffffff5f036108d3565b610a3e61036e565b5060a45190565b610a59610a54610a5e926106e9565b6100fa565b6100f7565b90565b15610a6857565b5f63273c8bc360e11b815280610a80600482016100bf565b0390fd5b15610a8c5750565b610aa7905f91829163a3a300c760e01b8352600483016104e1565b0390fd5b90565b610ac2610abd610ac792610aab565b6100fa565b61067b565b90565b634e487b7160e01b5f52601160045260245ffd5b610aed610af39193929361067b565b9261067b565b91828103925f828512818312169285139112151617610b0e57565b610aca565b610b27610b22610b2c9261067b565b6100fa565b61067b565b90565b610b5b610b565f610b51610b4b6802d000000000000000610aae565b916106ec565b610ade565b610b13565b90565b610b6790610b13565b9052565b9190610b7e905f60208501940190610b5e565b565b15610b885750565b610ba3905f91829163a2ff8abd60e01b835260048301610b6b565b0390fd5b610bb96802d000000000000000610aae565b90565b610bc55f6106ec565b90565b5f90565b610bd5906100fd565b9052565b916020610bfa929493610bf360408201965f830190610bcc565b0190610bcc565b565b15610c05575050565b610c1f5f928392633fa491e760e21b845260048401610bd9565b0390fd5b90565b610c3a610c35610c3f92610c23565b6100fa565b6100f7565b90565b15610c4957565b5f630149225b60e31b815280610c61600482016100bf565b0390fd5b610c6d6102bd565b5033610c7890611242565b610c8061036e565b50610c8961036e565b50600435610c96906112ed565b80610ca090611255565b805f610cab90610a45565b90610cb5906100f7565b1415610cc090610a61565b80610cca9061130b565b610cd390611331565b5f610cdd90610a45565b90610ce7906100f7565b1481610cf291610a84565b610cfb9061133e565b80610d04610b2f565b610d0d91611355565b81610d1791610b80565b80610d20610ba7565b610d2991611362565b81610d3391610b80565b80610d3d9061136f565b610d46906113e6565b610d4e610bbc565b90610d58916113ec565b610d619061136f565b610d6a906113f9565b610d72610bc8565b5060243580610d80906113ff565b610d88610bc8565b5060443580610d9690611405565b8082610da19161140b565b91610dab92610bfc565b610db3610372565b5060643580610dc0610395565b610dc991611263565b81610dd3916103c9565b610ddc90611282565b610de46104d0565b50610ded61036e565b50610df661036e565b506084356004019061080891803560051b906005820460051b840193610e1b906112a1565b610e23610708565b50610e2c61036e565b50610e3561036e565b5060a43560040182850190803560051b90816020610e5290610c26565b90610e5c906100f7565b1015610e6790610c42565b82610e71906112c8565b610e7961036e565b50610e8261036e565b50610e8b61036e565b50610e9461036e565b5060c4356004018284016008019281359485938486019860a48a0360209003986020018c3760200190376020018237610ecc906112a7565b8061ffff610ed990610424565b90610ee3906100f7565b111581610eef916104f6565b610ef89061051d565b610f01906112ad565b610f0a90611297565b610f139061129c565b565b90565b610f2c610f27610f3192610f15565b6100fa565b61067b565b90565b610f45678000000000000000610f18565b90565b15610f505750565b610f6b905f91829163085a022d60e31b835260048301610b6b565b0390fd5b90565b610f86610f81610f8b92610f6f565b6100fa565b61067b565b90565b610fa068010000000000000000610f72565b90565b610fb7610fb2610fbc926106e9565b6100fa565b61067e565b90565b610fcb610fd19161067e565b9161067e565b9003906f7fffffffffffffffffffffffffffffff82136f7fffffffffffffffffffffffffffffff1983121761100257565b610aca565b61101033611242565b61101861036e565b506110fb61104161103360043561102e81611255565b61133e565b61103b610f34565b906113ec565b61104961088c565b506110a060243561105981611418565b61109b6110678285906113ec565b9161108461107d84611077610bbc565b90611355565b8290610f48565b61109683611090610f8e565b90611362565b610f48565b61141e565b6110a861088c565b506110f66110c2604435926110bc84611431565b836113ec565b916110df6110d8846110d2610bbc565b90611355565b8290610f48565b6110f1836110eb610f8e565b90611362565b610f48565b611437565b611103610677565b5061119e6064356111398161113061112a6f7fffffffffffffffffffffffffffffff610684565b9161067b565b131582906106c2565b61117a8161117161116b6111665f6111616f7fffffffffffffffffffffffffffffff91610fa3565b610fbf565b610684565b9161067b565b121582906106c2565b6111998161119061118a5f6106ec565b9161067b565b141582906106c2565b6112c2565b6111a6610708565b506111af61036e565b506111b861036e565b506111c161036e565b506111ca61036e565b5061124060843560040161123b6108089161123661123160206108080161120b843591611206838201988460208060a48d0303990184376112c8565b6112a7565b61122c8161122361121d61ffff610424565b916100f7565b111582906104f6565b61051d565b6112ad565b611297565b61129c565b565b601460c4015160a01c9060601b1760c452565b60d852565b5f90565b151590565b61127f916112799161127361125a565b5061144c565b1561125e565b90565b60066107f4015160301c9060d01b176107f452565b60a452565b604052565b6105ef52565b61062f52565b6002610653015160101c9060f01b1761065352565b61010852565b61060f52565b61010852565b61012852565b601060f8015160801c9060801b1760f852565b6112f561036e565b503360601b5f528060145260345f2060bc1b0190565b61131361036e565b506f6890d047ad8c870137858a70716b2c6b6010525f5260305f2090565b61133961036e565b505490565b61134661088c565b5060b41c5f0b6001603b1b0290565b61135d61125a565b501390565b61136a61125a565b501290565b6113b26113ad7fcf8e41e6c4d4aa5e9cc597c10cd32eacd30c44f750a8ffdb1a8863dd8f72f0a59261139f610888565b506113a8610ba7565b6113ec565b6115c0565b7f872db9e8ffa9e7d41f2aaf39897b91e4002e70fceed391471fad73d51503772d600160bf1b820990600160bf1b02030290565b61072052565b6113f461088c565b500390565b61074052565b6106e052565b61070052565b61141361125a565b501190565b61012852565b600860f8015160401c9060c01b1760f852565b61014852565b6008610100015160401c9060c01b1761010052565b61145461125a565b501190565b61146d6114686114729261067b565b6100fa565b6100f7565b90565b9061148091026100f7565b90565b90565b60ff1690565b6114a061149b6114a592611483565b6100fa565b611486565b90565b1b90565b6114cb906114c56114bf6114d094611486565b916100f7565b906114a8565b6100f7565b90565b90565b6114ea6114e56114ef926114d3565b6100fa565b6100f7565b90565b634e487b7160e01b5f52601260045260245ffd5b611512611518916100f7565b916100f7565b908115611523570490565b6114f2565b90565b61153f61153a61154492611528565b6100fa565b6100f7565b90565b9061155291016100f7565b90565b90565b61156c61156761157192611555565b6100fa565b611486565b90565b9061157f91036100f7565b90565b90565b61159961159461159e92611582565b6100fa565b6100f7565b90565b90565b6115b86115b36115bd926115a1565b6100fa565b611486565b90565b6116646115e06115db611674936115d561036e565b50610b13565b611459565b61163b61162a6116176116076115f7858690611475565b611601602561148c565b906114ac565b61161160036114d6565b90611506565b611624600160ff1b61152b565b90611547565b916116356092611558565b906114ac565b61165e61165861164c848490611574565b92600160fe1b94611547565b92611585565b90611857565b61166e60026115a4565b906114ac565b808002905f1990800903808002905f1990800903808002905f1990800903808002905f1990800903808002905f1990800903808002905f1990800903808002905f1990800903808002905f1990800903808002905f1990800903808002905f1990800903808002905f1990800903808002905f1990800903808002905f1990800903808002905f1990800903808002905f1990800903808002905f1990800903808002905f1990800903808002905f1990800903808002905f1990800903808002905f1990800903808002905f1990800903808002905f1990800903808002905f1990800903808002905f1990800903808002905f1990800903808002905f1990800903808002905f1990800903808002905f1990800903808002905f1990800903808002905f1990800903808002905f1990800903808002905f1990800903808002905f1990800903808002905f1990800903808002905f1990800903808002905f1990800903808002905f1990800903808002905f1990800903808002905f1990800903808002905f1990800903808002905f1990800903808002905f1990800903808002905f1990800903808002905f1990800903808002905f1990800903808002905f1990800903808002905f1990800903808002905f199080090390565b909161186161036e565b506001810392839181840982039209089056fea2646970667358221220c0d9f691cb79dbf8903f0255554bfe662c4127626af9c459026bfeedd079de2264736f6c63430008220033","linkReferences":{}},"methodIdentifiers":{"_readCollectInput()":"9c3bdba5","_readDonateInput()":"76e9a038","_readInitializeInput()":"e7675635","_readModifyKernelInput()":"6853005d","_readModifyPoolGrowthPortionInput()":"38e59837","_readModifyPositionInput()":"ed93ed85","_readSwapInput()":"d28b2ce7","_readUpdateGrowthPortionsInput()":"720221f8"},"id":7}