{"abi":[{"type":"function","name":"add","inputs":[{"name":"index0","type":"uint256","internalType":"Index"},{"name":"index1","type":"uint256","internalType":"Index"}],"outputs":[{"name":"result","type":"uint256","internalType":"Index"}],"stateMutability":"nonpayable"},{"type":"function","name":"decrementIndex","inputs":[{"name":"index","type":"uint256","internalType":"Index"}],"outputs":[{"name":"result","type":"uint256","internalType":"Index"}],"stateMutability":"nonpayable"},{"type":"function","name":"equals","inputs":[{"name":"index0","type":"uint256","internalType":"Index"},{"name":"index1","type":"uint256","internalType":"Index"}],"outputs":[{"name":"result","type":"bool","internalType":"bool"}],"stateMutability":"nonpayable"},{"type":"function","name":"getIndex","inputs":[{"name":"index","type":"uint256","internalType":"Index"}],"outputs":[{"name":"result","type":"uint256","internalType":"Index"}],"stateMutability":"nonpayable"},{"type":"function","name":"greaterThan","inputs":[{"name":"index0","type":"uint256","internalType":"Index"},{"name":"index1","type":"uint256","internalType":"Index"}],"outputs":[{"name":"result","type":"bool","internalType":"bool"}],"stateMutability":"nonpayable"},{"type":"function","name":"greaterThanOrEqualTo","inputs":[{"name":"index0","type":"uint256","internalType":"Index"},{"name":"index1","type":"uint256","internalType":"Index"}],"outputs":[{"name":"result","type":"bool","internalType":"bool"}],"stateMutability":"nonpayable"},{"type":"function","name":"incrementIndex","inputs":[{"name":"index","type":"uint256","internalType":"Index"}],"outputs":[{"name":"result","type":"uint256","internalType":"Index"}],"stateMutability":"nonpayable"},{"type":"function","name":"lessThan","inputs":[{"name":"index0","type":"uint256","internalType":"Index"},{"name":"index1","type":"uint256","internalType":"Index"}],"outputs":[{"name":"result","type":"bool","internalType":"bool"}],"stateMutability":"nonpayable"},{"type":"function","name":"lessThanOrEqualTo","inputs":[{"name":"index0","type":"uint256","internalType":"Index"},{"name":"index1","type":"uint256","internalType":"Index"}],"outputs":[{"name":"result","type":"bool","internalType":"bool"}],"stateMutability":"nonpayable"},{"type":"function","name":"maxIndex","inputs":[{"name":"value0","type":"uint256","internalType":"Index"},{"name":"value1","type":"uint256","internalType":"Index"}],"outputs":[{"name":"result","type":"uint256","internalType":"Index"}],"stateMutability":"nonpayable"},{"type":"function","name":"minIndex","inputs":[{"name":"value0","type":"uint256","internalType":"Index"},{"name":"value1","type":"uint256","internalType":"Index"}],"outputs":[{"name":"result","type":"uint256","internalType":"Index"}],"stateMutability":"nonpayable"},{"type":"function","name":"notEqual","inputs":[{"name":"index0","type":"uint256","internalType":"Index"},{"name":"index1","type":"uint256","internalType":"Index"}],"outputs":[{"name":"result","type":"bool","internalType":"bool"}],"stateMutability":"nonpayable"},{"type":"function","name":"sub","inputs":[{"name":"index0","type":"uint256","internalType":"Index"},{"name":"index1","type":"uint256","internalType":"Index"}],"outputs":[{"name":"result","type":"uint256","internalType":"Index"}],"stateMutability":"nonpayable"}],"bytecode":{"object":"0x608060405234601c57600e6020565b61076f61002b823961076f90f35b6026565b60405190565b5f80fdfe60806040526004361015610013575b610494565b61001d5f356100ec565b806311aa36a0146100e75780632215ea7c146100e257806347b5cd81146100dd57806348f24ceb146100d8578063771602f7146100d35780638938ce5c146100ce5780638e7cb6e1146100c9578063b67d77c5146100c4578063ca4e89bf146100bf578063d73492a1146100ba578063dca3bb07146100b5578063ef8e0b63146100b05763fb1dd0e50361000e5761045e565b610429565b6103f3565b6103bd565b610387565b610351565b61031c565b6102e6565b6102b0565b61027a565b610244565b61020e565b610185565b60e01c90565b60405190565b5f80fd5b5f80fd5b90565b61010c81610100565b0361011357565b5f80fd5b9050359061012482610103565b565b9060208282031261013f5761013c915f01610117565b90565b6100fc565b90565b61015b61015661016092610100565b610144565b610100565b90565b61016c90610147565b9052565b9190610183905f60208501940190610163565b565b346101b5576101b16101a061019b366004610126565b6104a0565b6101a86100f2565b91829182610170565b0390f35b6100f8565b91906040838203126101e257806101d66101df925f8601610117565b93602001610117565b90565b6100fc565b151590565b6101f5906101e7565b9052565b919061020c905f602085019401906101ec565b565b3461023f5761023b61022a6102243660046101ba565b906104d2565b6102326100f2565b918291826101f9565b0390f35b6100f8565b346102755761027161026061025a3660046101ba565b906104e8565b6102686100f2565b918291826101f9565b0390f35b6100f8565b346102ab576102a76102966102903660046101ba565b906104fe565b61029e6100f2565b918291826101f9565b0390f35b6100f8565b346102e1576102dd6102cc6102c63660046101ba565b90610514565b6102d46100f2565b91829182610170565b0390f35b6100f8565b34610317576103136103026102fc3660046101ba565b9061052a565b61030a6100f2565b91829182610170565b0390f35b6100f8565b3461034c57610348610337610332366004610126565b610540565b61033f6100f2565b91829182610170565b0390f35b6100f8565b346103825761037e61036d6103673660046101ba565b9061056e565b6103756100f2565b91829182610170565b0390f35b6100f8565b346103b8576103b46103a361039d3660046101ba565b90610584565b6103ab6100f2565b918291826101f9565b0390f35b6100f8565b346103ee576103ea6103d96103d33660046101ba565b9061059a565b6103e16100f2565b918291826101f9565b0390f35b6100f8565b346104245761042061040f6104093660046101ba565b906105b0565b6104176100f2565b91829182610170565b0390f35b6100f8565b346104595761045561044461043f366004610126565b6105c6565b61044c6100f2565b91829182610170565b0390f35b6100f8565b3461048f5761048b61047a6104743660046101ba565b906105f4565b6104826100f2565b918291826101f9565b0390f35b6100f8565b5f80fd5b5f90565b5f90565b6104cb906104ac610498565b506104b561049c565b50604051906020820160405260f01b815261060a565b90565b5f90565b906104e5916104df6104ce565b50610624565b90565b906104fb916104f56104ce565b50610631565b90565b906105119161050b6104ce565b5061063e565b90565b9061052791610521610498565b5061064b565b90565b9061053d91610537610498565b50610658565b90565b61056b9061054c610498565b5061055561049c565b50604051906020820160405260f01b815261067f565b90565b906105819161057b610498565b5061068f565b90565b90610597916105916104ce565b5061069c565b90565b906105ad916105a76104ce565b506106bb565b90565b906105c3916105bd610498565b506106da565b90565b6105f1906105d2610498565b506105db61049c565b50604051906020820160405260f01b8152610700565b90565b90610607916106016104ce565b5061071a565b90565b610612610498565b50600160f01b81510180915260f01c90565b61062c6104ce565b501090565b6106396104ce565b501490565b6106466104ce565b501190565b610653610498565b500190565b90610661610498565b5061066d828290610624565b5f1461067857505b90565b9050610675565b610687610498565b505160f01c90565b610697610498565b500390565b6106b8916106b2916106ac6104ce565b50610631565b156101e7565b90565b6106d7916106d1916106cb6104ce565b50610624565b156101e7565b90565b6106e2610498565b506106ee818390610624565b5f146106f957505b90565b90506106f6565b610708610498565b50600160f01b81510380915260f01c90565b610736916107309161072a6104ce565b5061063e565b156101e7565b9056fea26469706673582212206c5385059a4c5ff649baff0eb652ee2b4cc9c66b1a3ee89a37b60eb0d02bdb6b64736f6c63430008220033","linkReferences":{}},"methodIdentifiers":{"add(uint256,uint256)":"771602f7","decrementIndex(uint256)":"ef8e0b63","equals(uint256,uint256)":"47b5cd81","getIndex(uint256)":"8e7cb6e1","greaterThan(uint256,uint256)":"48f24ceb","greaterThanOrEqualTo(uint256,uint256)":"d73492a1","incrementIndex(uint256)":"11aa36a0","lessThan(uint256,uint256)":"2215ea7c","lessThanOrEqualTo(uint256,uint256)":"fb1dd0e5","maxIndex(uint256,uint256)":"dca3bb07","minIndex(uint256,uint256)":"8938ce5c","notEqual(uint256,uint256)":"ca4e89bf","sub(uint256,uint256)":"b67d77c5"},"id":18}