{"abi":[{"type":"function","name":"_amend","inputs":[{"name":"curve","type":"uint256","internalType":"Curve"},{"name":"curveLength","type":"uint256","internalType":"Index"},{"name":"target","type":"int256","internalType":"X59"},{"name":"curveArray","type":"uint256[]","internalType":"uint256[]"}],"outputs":[{"name":"curveLengthAmended","type":"uint256","internalType":"Index"}],"stateMutability":"nonpayable"},{"type":"function","name":"_boundaries","inputs":[{"name":"curve","type":"uint256","internalType":"Curve"},{"name":"curveArray","type":"uint256[]","internalType":"uint256[]"}],"outputs":[{"name":"qLower","type":"int256","internalType":"X59"},{"name":"qUpper","type":"int256","internalType":"X59"}],"stateMutability":"nonpayable"},{"type":"function","name":"_member","inputs":[{"name":"curve","type":"uint256","internalType":"Curve"},{"name":"curveArray","type":"uint256[]","internalType":"uint256[]"}],"outputs":[{"name":"result","type":"int256[]","internalType":"X59[]"}],"stateMutability":"nonpayable"},{"type":"function","name":"_newCurve","inputs":[{"name":"curve","type":"uint256","internalType":"Curve"},{"name":"qCurrent","type":"int256","internalType":"X59"},{"name":"qOther","type":"int256","internalType":"X59"}],"outputs":[{"name":"_qCurrent","type":"int256","internalType":"X59"},{"name":"_qOther","type":"int256","internalType":"X59"},{"name":"curveLength","type":"uint256","internalType":"Index"}],"stateMutability":"nonpayable"},{"type":"function","name":"_validate","inputs":[{"name":"curve","type":"uint256","internalType":"Curve"},{"name":"curveArray","type":"uint256[]","internalType":"uint256[]"}],"outputs":[{"name":"qLower","type":"int256","internalType":"X59"},{"name":"qUpper","type":"int256","internalType":"X59"},{"name":"qCurrent","type":"int256","internalType":"X59"},{"name":"qSpacing","type":"int256","internalType":"X59"},{"name":"sqrtSpacing","type":"int256","internalType":"X216"},{"name":"sqrtInverseSpacing","type":"int256","internalType":"X216"},{"name":"curveLength","type":"uint256","internalType":"Index"}],"stateMutability":"nonpayable"},{"type":"error","name":"BlankIntervalsShouldBeAvoided","inputs":[{"name":"qLower","type":"int256","internalType":"X59"},{"name":"qUpper","type":"int256","internalType":"X59"}]},{"type":"error","name":"CurveIndexOutOfRange","inputs":[{"name":"length","type":"uint256","internalType":"Index"}]},{"type":"error","name":"InvalidCurveArrangement","inputs":[{"name":"q0","type":"int256","internalType":"X59"},{"name":"q1","type":"int256","internalType":"X59"},{"name":"q2","type":"int256","internalType":"X59"}]},{"type":"error","name":"LogSpacingIsTooSmall","inputs":[{"name":"qSpacing","type":"int256","internalType":"X59"}]}],"bytecode":{"object":"0x608060405234601c57600e6020565b6115b161002b82396115b190f35b6026565b60405190565b5f80fdfe60806040526004361015610013575b61050d565b61001d5f3561006c565b806325e0ca81146100675780633c78b81514610062578063783d9b761461005d578063b1c81e77146100585763ff8431b40361000e576104d4565b610405565b6103a9565b6102dd565b6101fc565b60e01c90565b60405190565b5f80fd5b5f80fd5b5f80fd5b90565b61009081610084565b0361009757565b5f80fd5b905035906100a882610087565b565b5f80fd5b5f80fd5b5f80fd5b909182601f830112156100f05781359167ffffffffffffffff83116100eb5760200192602083028401116100e657565b6100b2565b6100ae565b6100aa565b9190916040818403126101365761010e835f830161009b565b92602082013567ffffffffffffffff81116101315761012d92016100b6565b9091565b610080565b61007c565b5190565b60209181520190565b60200190565b90565b90565b61016861016361016d9261014e565b610151565b61014e565b90565b61017990610154565b9052565b9061018a81602093610170565b0190565b60200190565b906101b16101ab6101a48461013b565b809361013f565b92610148565b905f5b8181106101c15750505090565b9091926101da6101d4600192865161017d565b9461018e565b91019190916101b4565b6101f99160208201915f818403910152610194565b90565b3461022d576102296102186102123660046100f5565b91610586565b610220610072565b918291826101e4565b0390f35b610078565b61023b90610154565b9052565b61024890610154565b9052565b61026061025b61026592610084565b610151565b610084565b90565b6102719061024c565b9052565b949290979695939160e08601985f870161028e91610232565b6020860161029b91610232565b604085016102a891610232565b606084016102b591610232565b608083016102c29161023f565b60a082016102cf9161023f565b60c0016102db91610268565b565b34610315576103116102f96102f33660046100f5565b91610671565b93610308979597939193610072565b97889788610275565b0390f35b610078565b6103238161014e565b0361032a57565b5f80fd5b9050359061033b8261031a565b565b90916060828403126103725761036f610358845f850161009b565b93610366816020860161032e565b9360400161032e565b90565b61007c565b6040906103a06103a7949695939661039660608401985f850190610232565b6020830190610232565b0190610268565b565b346103dd576103d96103c56103bf36600461033d565b9161076b565b6103d0939193610072565b93849384610377565b0390f35b610078565b9160206104039294936103fc60408201965f830190610232565b0190610232565b565b346104375761041e6104183660046100f5565b916107c8565b9061043361042a610072565b928392836103e2565b0390f35b610078565b61044581610084565b0361044c57565b5f80fd5b9050359061045d8261043c565b565b906080828203126104ba57610476815f840161009b565b926104848260208501610450565b92610492836040830161032e565b92606082013567ffffffffffffffff81116104b5576104b192016100b6565b9091565b610080565b61007c565b91906104d2905f60208501940190610268565b565b34610508576105046104f36104ea36600461045f565b939290926107fb565b6104fb610072565b918291826104bf565b0390f35b610078565b5f80fd5b606090565b90565b61052d61052861053292610516565b610151565b610084565b90565b60016105419101610084565b90565b634e487b7160e01b5f52603260045260245ffd5b906105628261013b565b811015610573576020809102010190565b610544565b906105829061014e565b9052565b92915050610592610511565b50602435918260040135928360051b8091602401833781019260021b83526105b95f610519565b5b806105d56105cf6105ca8761013b565b610084565b91610084565b10156106115761060c906106076105f5846105ef8461024c565b90610854565b6106028791849092610558565b610578565b610535565b6105ba565b5050565b5f90565b5f90565b5f90565b90565b61ffff1690565b61063f61063a61064492610621565b610151565b610624565b90565b61065261076061062b565b90565b61066961066461066e92610624565b610151565b610084565b90565b90506106cd9150610680610615565b50610689610615565b50610692610615565b5061069b610615565b506106a4610619565b506106ad610619565b506106b661061d565b50602435806004013560051b906024018237610a04565b90916106d7610bea565b906106f06106eb6106e6610647565b610655565b610bfd565b9061070b6107046106ff610647565b610655565b5f90610c0d565b9061072761071f61071a610647565b610655565b600190610c0d565b90610730610c26565b90565b90565b61074a61074561074f92610733565b610151565b610084565b90565b61075c6001610736565b90565b6107685f610519565b90565b919061079591610779610615565b50610782610615565b5061078b61061d565b5083919091610c39565b6107b96107aa826107a4610752565b90610854565b916107b361075f565b90610854565b916107c2610c26565b91929190565b90506107f791506107d7610615565b506107e0610615565b50602435806004013560051b906024018237610c57565b9091565b94935061082c92506108269061080f61061d565b50606435806004013560051b906024018737610cb2565b83610cc7565b5f610835610c26565b926004840482600486061161084c575b60200290a1565b600101610845565b9061085d610615565b5060031b015160c01c90565b61087861087e91939293610154565b92610154565b90565b90565b61089861089361089d92610881565b610151565b61014e565b90565b6108af65010000000000610884565b90565b91906108c5905f60208501940190610232565b565b156108cf5750565b6108ea905f9182916387a53ed360e01b8352600483016108b2565b0390fd5b156108f7575050565b6109115f928392630c34b95560e21b8452600484016103e2565b0390fd5b90565b61092c61092761093192610915565b610151565b61014e565b90565b61094668010000000000000000610918565b90565b90565b61096061095b61096592610949565b610151565b610084565b90565b610972600261094c565b90565b61098961098461098e92610516565b610151565b61014e565b90565b61099a5f610975565b90565b6040906109c66109cd94969593966109bc60608401985f850190610232565b6020830190610232565b0190610232565b565b6109da61ffff610655565b90565b156109e55750565b610a00905f91829163855b486b60e01b8352600483016104bf565b0390fd5b610a0c610615565b50610a15610615565b50610a2881610a2261075f565b90610854565b610a3a82610a34610752565b90610854565b90610a46818390610e58565b5f14610bda5780825b610acc610ac4610a60838590610e77565b610a7a610a73610a6e610647565b610655565b8290610e84565b610a96610a8f82610a896108a0565b90610e9e565b82906108c7565b610aac610aa4868390610ebd565b8686916108ee565b610abe8491610ab9610934565b610e77565b90610eca565b8383916108ee565b610ad4610968565b935b600115610bc657610ae8868690610854565b93610afb85610af5610991565b90610ed7565b610b8d57610b0a858290610e58565b8015610b7c575b610b31575b50610b2b909394610b25610752565b90610ee4565b93610ad6565b610b3c858390610e58565b8015610b6b575b15610b165790610b67859291925f93849363207d71e160e11b85526004850161099d565b0390fd5b50610b77818690610e58565b610b43565b50610b88828690610e58565b610b11565b50610bbf919550610bc49350959391955b610bba610bb384610bad6109cf565b90610ef1565b84906109dd565b610f10565b610cb2565b565b610bbf919550610bc4935095939195610b9e565b610be5828290610869565b610a4f565b610bf2610615565b506106775160c01c90565b610c05610615565b505160c01c90565b90610c16610619565b5015601b02602303015160281c90565b610c2e61061d565b506106515160f01c90565b919060801b9060c01b179052610c55610c50610968565b610cb2565b565b610c5f610615565b50610c68610615565b50610c8d610c7e82610c7861075f565b90610854565b91610c87610752565b90610854565b610c98818390610e58565b5f14610ca457905b9091565b610cad91610869565b610ca0565b6002610651015160101c9060f01b1761065152565b610cd981610cd361075f565b90610854565b91610cec82610ce6610752565b90610854565b92610d0282610cfc838790610f25565b90610e58565b610e2d57610d1b610d14828690610f4c565b8390610e58565b610e0b57610d27610c26565b90610d30610752565b905b600115610df957610d44908690610eca565b5f14610de957610d55838690610eca565b5b5f14610dd857610d6e90610d68610752565b90610ee4565b610d79818390610f72565b5f14610d9057610d8a848290610854565b94610d32565b91610dd69450610dd19391505b60c01b908260031b0152610dc3610dbc82610db66109cf565b90610f72565b82906109dd565b610dcb610752565b90610ee4565b610cb2565b565b91610dd69450610dd1939150610d9d565b610df4858490610eca565b610d56565b5091610dd69450610dd1939150610d9d565b9050610e25610e2b93610e1f838290610f4c565b92610f25565b91610c39565b565b9050610e47610e4d93610e41838290610f25565b92610f4c565b91610c39565b565b5f90565b151590565b610e7491610e6e91610e68610e4f565b50610ebd565b15610e53565b90565b610e7f610615565b500390565b90610e9c91610e9282611029565b91929091926110bd565b565b610eba91610eb491610eae610e4f565b50610eca565b15610e53565b90565b610ec5610e4f565b501390565b610ed2610e4f565b501290565b610edf610e4f565b501490565b610eec61061d565b500190565b610f0d91610f0791610f01610e4f565b506110d7565b15610e53565b90565b6008610677015160401c9060c01b1761067752565b90610f2e610615565b50610f3a828290610eca565b5f14610f4557505b90565b9050610f42565b610f54610615565b50610f60818390610eca565b5f14610f6b57505b90565b9050610f68565b610f7a610e4f565b501090565b90565b610f96610f91610f9b92610f7f565b610151565b610084565b90565b90565b610fb5610fb0610fba92610f9e565b610151565b610084565b90565b610fd1610fcc610fd692610084565b610151565b61014e565b90565b90565b60ff1690565b610ff6610ff1610ffb92610fd9565b610151565b610fdc565b90565b1c90565b6110219061101b61101561102694610fdc565b91610084565b90610ffe565b610084565b90565b61104490611035610619565b5061103e610619565b506112e1565b6110ba6110b56110b061109f61109a6110957ff1aaddd7742e56d32fb9f997447d9e6314db84884fabab26bf059af9bc20b609600160c11b61108f6110898a93610f82565b91610fa1565b9061155e565b610fbd565b610154565b936110aa6028610fe2565b90611002565b610fbd565b610154565b91565b6018906020810393845195601e8301526003820152035252565b6110df610e4f565b501190565b5f90565b6110fc6110f76111019261014e565b610151565b610084565b90565b9061110f9102610084565b90565b90565b61112961112461112e92611112565b610151565b610084565b90565b90565b61114861114361114d92611131565b610151565b610084565b90565b634e487b7160e01b5f52601260045260245ffd5b61117061117691610084565b91610084565b908115611181570490565b611150565b90565b61119d6111986111a292611186565b610151565b610084565b90565b906111b09101610084565b90565b90565b6111ca6111c56111cf926111b3565b610151565b610084565b90565b90565b6111e96111e46111ee926111d2565b610151565b610084565b90565b90565b61120861120361120d926111f1565b610151565b610084565b90565b90565b61122761122261122c92611210565b610151565b610fdc565b90565b1b90565b6112529061124c61124661125794610fdc565b91610084565b9061122f565b610084565b90565b90565b61127161126c6112769261125a565b610151565b610084565b90565b90565b61129061128b61129592611279565b610151565b610084565b90565b90565b6112af6112aa6112b492611298565b610151565b610084565b90565b906112c29103610084565b90565b6112d96112d46112de92610949565b610151565b610fdc565b90565b6114bf6113016112fc6114cf936112f66110e4565b50610154565b6110e8565b61130c818290611104565b9061147d61146a61131e848590611104565b6113266110e4565b506114646114495f19600160801b600160801b858a095f19868b0903099261134c6110e4565b5061144361142c61141c61140b6113f88c6113f26113dc6113b96113996113898b80025f198d80090395611383600760681b611115565b90611104565b611393600f611134565b90611164565b6113b38b6113ad6609c00000000000611189565b90611164565b906111a5565b6113d68d6113d069c91800000000000000006111b6565b90611164565b906111a5565b916113ec621eee11605a1b6111d5565b90611164565b906111a5565b611405600160fe1b6111f4565b906111a5565b9a611416606a611213565b90611233565b611426600f611134565b90611164565b9161143d662490000000000061125d565b90611164565b906111a5565b9161145e6a06df92000000000000000061127c565b90611164565b906111a5565b611477600160ff1b61129b565b906111a5565b905f1991600160b41b916001604c1b828209915f19910903096114b96114b36114a78484906112b7565b92600160fe1b946111a5565b926111f4565b9061155e565b6114c960026112c5565b90611233565b808002905f1990800903808002905f1990800903808002905f1990800903808002905f1990800903808002905f1990800903808002905f1990800903808002905f1990800903808002905f1990800903808002905f1990800903808002905f1990800903808002905f1990800903808002905f1990800903808002905f1990800903808002905f199080090390565b90916115686110e4565b506001810392839181840982039209089056fea264697066735822122040c8b95612ab63d919cf0fbe4edf59a2b03b17f732781c6432bea2aef9e0d66c64736f6c63430008220033","linkReferences":{}},"methodIdentifiers":{"_amend(uint256,uint256,int256,uint256[])":"ff8431b4","_boundaries(uint256,uint256[])":"b1c81e77","_member(uint256,uint256[])":"25e0ca81","_newCurve(uint256,int256,int256)":"783d9b76","_validate(uint256,uint256[])":"3c78b815"},"id":8}