{"abi":[{"type":"function","name":"allowance","inputs":[{"name":"owner","type":"address","internalType":"address"},{"name":"spender","type":"address","internalType":"address"},{"name":"id","type":"uint256","internalType":"uint256"}],"outputs":[{"name":"","type":"uint256","internalType":"uint256"}],"stateMutability":"view"},{"type":"function","name":"approve","inputs":[{"name":"spender","type":"address","internalType":"address"},{"name":"id","type":"uint256","internalType":"uint256"},{"name":"amount","type":"uint256","internalType":"uint256"}],"outputs":[{"name":"","type":"bool","internalType":"bool"}],"stateMutability":"nonpayable"},{"type":"function","name":"balanceOf","inputs":[{"name":"owner","type":"address","internalType":"address"},{"name":"id","type":"uint256","internalType":"uint256"}],"outputs":[{"name":"","type":"uint256","internalType":"uint256"}],"stateMutability":"view"},{"type":"function","name":"isOperator","inputs":[{"name":"owner","type":"address","internalType":"address"},{"name":"spender","type":"address","internalType":"address"}],"outputs":[{"name":"","type":"bool","internalType":"bool"}],"stateMutability":"view"},{"type":"function","name":"setOperator","inputs":[{"name":"spender","type":"address","internalType":"address"},{"name":"approved","type":"bool","internalType":"bool"}],"outputs":[{"name":"","type":"bool","internalType":"bool"}],"stateMutability":"nonpayable"},{"type":"function","name":"supportsInterface","inputs":[{"name":"interfaceId","type":"bytes4","internalType":"bytes4"}],"outputs":[{"name":"","type":"bool","internalType":"bool"}],"stateMutability":"view"},{"type":"function","name":"transfer","inputs":[{"name":"receiver","type":"address","internalType":"address"},{"name":"id","type":"uint256","internalType":"uint256"},{"name":"amount","type":"uint256","internalType":"uint256"}],"outputs":[{"name":"","type":"bool","internalType":"bool"}],"stateMutability":"nonpayable"},{"type":"function","name":"transferFrom","inputs":[{"name":"sender","type":"address","internalType":"address"},{"name":"receiver","type":"address","internalType":"address"},{"name":"id","type":"uint256","internalType":"uint256"},{"name":"amount","type":"uint256","internalType":"uint256"}],"outputs":[{"name":"","type":"bool","internalType":"bool"}],"stateMutability":"nonpayable"},{"type":"event","name":"Approval","inputs":[{"name":"owner","type":"address","indexed":true,"internalType":"address"},{"name":"spender","type":"address","indexed":true,"internalType":"address"},{"name":"id","type":"uint256","indexed":true,"internalType":"uint256"},{"name":"amount","type":"uint256","indexed":false,"internalType":"uint256"}],"anonymous":false},{"type":"event","name":"OperatorSet","inputs":[{"name":"owner","type":"address","indexed":true,"internalType":"address"},{"name":"spender","type":"address","indexed":true,"internalType":"address"},{"name":"approved","type":"bool","indexed":false,"internalType":"bool"}],"anonymous":false},{"type":"event","name":"Transfer","inputs":[{"name":"caller","type":"address","indexed":false,"internalType":"address"},{"name":"sender","type":"address","indexed":true,"internalType":"address"},{"name":"receiver","type":"address","indexed":true,"internalType":"address"},{"name":"id","type":"uint256","indexed":true,"internalType":"uint256"},{"name":"amount","type":"uint256","indexed":false,"internalType":"uint256"}],"anonymous":false},{"type":"error","name":"ERC6909InsufficientAllowance","inputs":[{"name":"spender","type":"address","internalType":"address"},{"name":"allowance","type":"uint256","internalType":"uint256"},{"name":"needed","type":"uint256","internalType":"uint256"},{"name":"id","type":"uint256","internalType":"uint256"}]},{"type":"error","name":"ERC6909InsufficientBalance","inputs":[{"name":"sender","type":"address","internalType":"address"},{"name":"balance","type":"uint256","internalType":"uint256"},{"name":"needed","type":"uint256","internalType":"uint256"},{"name":"id","type":"uint256","internalType":"uint256"}]},{"type":"error","name":"ERC6909InvalidApprover","inputs":[{"name":"approver","type":"address","internalType":"address"}]},{"type":"error","name":"ERC6909InvalidReceiver","inputs":[{"name":"receiver","type":"address","internalType":"address"}]},{"type":"error","name":"ERC6909InvalidSender","inputs":[{"name":"sender","type":"address","internalType":"address"}]},{"type":"error","name":"ERC6909InvalidSpender","inputs":[{"name":"spender","type":"address","internalType":"address"}]}],"bytecode":{"object":"0x608060405234601c57600e6020565b610e2d61002b8239610e2d90f35b6026565b60405190565b5f80fdfe60806040526004361015610013575b6104bb565b61001d5f3561009b565b8062fdd58e1461009657806301ffc9a714610091578063095bcdb61461008c578063426a849314610087578063558a729714610082578063598af9e71461007d578063b6363cf2146100785763fe99049a0361000e57610482565b610406565b6103a3565b610333565b6102ad565b610277565b610208565b61015e565b60e01c90565b60405190565b5f80fd5b5f80fd5b60018060a01b031690565b6100c3906100af565b90565b6100cf816100ba565b036100d657565b5f80fd5b905035906100e7826100c6565b565b90565b6100f5816100e9565b036100fc57565b5f80fd5b9050359061010d826100ec565b565b9190604083820312610137578061012b610134925f86016100da565b93602001610100565b90565b6100ab565b610145906100e9565b9052565b919061015c905f6020850194019061013c565b565b3461018f5761018b61017a61017436600461010f565b9061056b565b6101826100a1565b91829182610149565b0390f35b6100a7565b63ffffffff60e01b1690565b6101a981610194565b036101b057565b5f80fd5b905035906101c1826101a0565b565b906020828203126101dc576101d9915f016101b4565b90565b6100ab565b151590565b6101ef906101e1565b9052565b9190610206905f602085019401906101e6565b565b346102385761023461022361021e3660046101c3565b610596565b61022b6100a1565b918291826101f3565b0390f35b6100a7565b90916060828403126102725761026f610258845f85016100da565b936102668160208601610100565b93604001610100565b90565b6100ab565b346102a8576102a461029361028d36600461023d565b916105d6565b61029b6100a1565b918291826101f3565b0390f35b6100a7565b346102de576102da6102c96102c336600461023d565b916105fb565b6102d16100a1565b918291826101f3565b0390f35b6100a7565b6102ec816101e1565b036102f357565b5f80fd5b90503590610304826102e3565b565b919060408382031261032e578061032261032b925f86016100da565b936020016102f7565b90565b6100ab565b346103645761036061034f610349366004610306565b90610620565b6103576100a1565b918291826101f3565b0390f35b6100a7565b909160608284031261039e5761039b610384845f85016100da565b9361039281602086016100da565b93604001610100565b90565b6100ab565b346103d4576103d06103bf6103b9366004610369565b91610658565b6103c76100a1565b91829182610149565b0390f35b6100a7565b919060408382031261040157806103f56103fe925f86016100da565b936020016100da565b90565b6100ab565b346104375761043361042261041c3660046103d9565b906106dc565b61042a6100a1565b918291826101f3565b0390f35b6100a7565b60808183031261047d57610452825f83016100da565b9261047a61046384602085016100da565b936104718160408601610100565b93606001610100565b90565b6100ab565b346104b6576104b26104a161049836600461043c565b92919091610704565b6104a96100a1565b918291826101f3565b0390f35b6100a7565b5f80fd5b5f90565b90565b6104da6104d56104df926100af565b6104c3565b6100af565b90565b6104eb906104c6565b90565b6104f7906104e2565b90565b90610504906104ee565b5f5260205260405f2090565b61052461051f610529926100e9565b6104c3565b6100e9565b90565b9061053690610510565b5f5260205260405f2090565b5f1c90565b90565b61055661055b91610542565b610547565b90565b610568905461054a565b90565b61058f9161058561058a9261057e6104bf565b505f6104fa565b61052c565b61055e565b90565b5f90565b61059e610592565b50806105b96105b3630f632fb360e01b610194565b91610194565b149081156105c6575b5090565b6105d0915061077a565b5f6105c2565b90916105f6926105e4610592565b506105ed6107a4565b929091926107fe565b600190565b909161061b92610609610592565b506106126107a4565b929091926108dc565b600190565b61063d9161062c610592565b506106356107a4565b919091610a36565b600190565b9061064c906104ee565b5f5260205260405f2090565b9161067c610681926106776106869561066f6104bf565b506002610642565b6104fa565b61052c565b61055e565b90565b90610693906104ee565b5f5260205260405f2090565b906106a9906104ee565b5f5260205260405f2090565b60ff1690565b6106c76106cc91610542565b6106b5565b90565b6106d990546106bb565b90565b610701916106f76106fc926106ef610592565b506001610689565b61069f565b6106cf565b90565b91610746939192610713610592565b5061071c6107a4565b8161072f610729836100ba565b916100ba565b141580610760575b61074b575b50929091926107fe565b600190565b61075a90829084908692610b82565b5f61073c565b5061077561076f8383906106dc565b156101e1565b610737565b610782610592565b5061079c6107966301ffc9a760e01b610194565b91610194565b1490565b5f90565b6107ac6107a0565b503390565b90565b6107c86107c36107cd926107b1565b6104c3565b6100af565b90565b6107d9906107b4565b90565b6107e5906100ba565b9052565b91906107fc905f602085019401906107dc565b565b9290918361081c6108166108115f6107d0565b6100ba565b916100ba565b14610877578261083c6108366108315f6107d0565b6100ba565b916100ba565b146108505761084e9392909192610c8d565b565b61087361085c5f6107d0565b5f918291630b8bbd6160e41b8352600483016107e9565b0390fd5b61089a6108835f6107d0565b5f9182916301486a4160e71b8352600483016107e9565b0390fd5b5f1b90565b906108af5f199161089e565b9181191691161790565b90565b906108d16108cc6108d892610510565b6108b9565b82546108a3565b9055565b92919092806108fb6108f56108f05f6107d0565b6100ba565b916100ba565b146109ca578361091b6109156109105f6107d0565b6100ba565b916100ba565b146109a3576109498361094461093d61093660028690610642565b88906104fa565b859061052c565b6108bc565b9290919261099e61098c6109866109807fb3fd5071835887567a0671151121894ddccc2842f1d10bedad13e0d17cace9a7946104ee565b946104ee565b94610510565b946109956100a1565b91829182610149565b0390a4565b6109c66109af5f6107d0565b5f918291636f65f46560e01b8352600483016107e9565b0390fd5b6109ed6109d65f6107d0565b5f91829163198ecd5360e31b8352600483016107e9565b0390fd5b906109fd60ff9161089e565b9181191691161790565b610a10906101e1565b90565b90565b90610a2b610a26610a3292610a07565b610a13565b82546109f1565b9055565b91909180610a54610a4e610a495f6107d0565b6100ba565b916100ba565b14610b0f5782610a74610a6e610a695f6107d0565b6100ba565b916100ba565b14610ae857610a9882610a93610a8c60018590610689565b869061069f565b610a16565b919091610ae3610ad1610acb7fceb576d9f15e4e200fdb5096d64d5dfd667e16def20c1eefd14256d8e3faa267936104ee565b936104ee565b93610ada6100a1565b918291826101f3565b0390a3565b610b0b610af45f6107d0565b5f918291636f65f46560e01b8352600483016107e9565b0390fd5b610b32610b1b5f6107d0565b5f91829163198ecd5360e31b8352600483016107e9565b0390fd5b610b6b610b7294610b61606094989795610b57608086019a5f8701906107dc565b602085019061013c565b604083019061013c565b019061013c565b565b90610b7f91036100e9565b90565b9190939293610b9383828491610658565b80610ba7610ba15f196100e9565b916100e9565b10610bb5575b505050509050565b80610bc8610bc2886100e9565b916100e9565b10610c0757610bf89291610bee610be6610bfd9798610bf394610b74565b956002610642565b6104fa565b61052c565b6108bc565b805f808080610bad565b610c2d8387939293610c176100a1565b948594632c51fead60e11b865260048601610b36565b0390fd5b634e487b7160e01b5f52601160045260245ffd5b610c54610c5a919392936100e9565b926100e9565b8201809211610c6557565b610c31565b916020610c8b929493610c8460408201965f8301906107dc565b019061013c565b565b929190610c986107a4565b84610cb3610cad610ca85f6107d0565b6100ba565b916100ba565b03610d6a575b81610cd4610cce610cc95f6107d0565b6100ba565b916100ba565b03610d34575b93909192610d1a610d14610d0e7f1b3d7edb2e9c0b0e7c525b20aaaef0f5940d2ed71663c7d39266ecafac728859946104ee565b946104ee565b94610510565b94610d2f610d266100a1565b92839283610c6a565b0390a4565b610d6584610d5f610d50610d495f87906104fa565b879061052c565b91610d5a8361055e565b610c45565b906108bc565b610cda565b610d87610d82610d7b5f88906104fa565b859061052c565b61055e565b80610d9a610d94876100e9565b916100e9565b10610dcc57610dad610dc7918690610b74565b610dc2610dbb5f89906104fa565b869061052c565b6108bc565b610cb9565b8490610df385889293610ddd6100a1565b9485946302c6d3fb60e61b865260048601610b36565b0390fdfea264697066735822122074440debc7c265c3ed302c8c6131766709420eb64d99a8a1c240b054bafd583464736f6c63430008220033","linkReferences":{}},"methodIdentifiers":{"allowance(address,address,uint256)":"598af9e7","approve(address,uint256,uint256)":"426a8493","balanceOf(address,uint256)":"00fdd58e","isOperator(address,address)":"b6363cf2","setOperator(address,bool)":"558a7297","supportsInterface(bytes4)":"01ffc9a7","transfer(address,uint256,uint256)":"095bcdb6","transferFrom(address,address,uint256,uint256)":"fe99049a"},"id":96}