{"abi":[{"type":"function","name":"add","inputs":[{"name":"value0","type":"int256","internalType":"X216"},{"name":"value1","type":"int256","internalType":"X216"}],"outputs":[{"name":"result","type":"int256","internalType":"X216"}],"stateMutability":"nonpayable"},{"type":"function","name":"cheapMul","inputs":[{"name":"value0","type":"int256","internalType":"X216"},{"name":"value1","type":"int256","internalType":"X216"}],"outputs":[{"name":"result","type":"int256","internalType":"X216"}],"stateMutability":"nonpayable"},{"type":"function","name":"cheapMulDiv","inputs":[{"name":"value","type":"int256","internalType":"X216"},{"name":"numerator","type":"uint256","internalType":"uint256"},{"name":"denominator","type":"uint256","internalType":"uint256"}],"outputs":[{"name":"result","type":"int256","internalType":"X216"}],"stateMutability":"nonpayable"},{"type":"function","name":"divideByExpEpsilonX216","inputs":[{"name":"value","type":"int256","internalType":"X216"}],"outputs":[{"name":"product","type":"int256","internalType":"X216"}],"stateMutability":"nonpayable"},{"type":"function","name":"equals","inputs":[{"name":"value0","type":"int256","internalType":"X216"},{"name":"value1","type":"int256","internalType":"X216"}],"outputs":[{"name":"result","type":"bool","internalType":"bool"}],"stateMutability":"nonpayable"},{"type":"function","name":"greaterThan","inputs":[{"name":"value0","type":"int256","internalType":"X216"},{"name":"value1","type":"int256","internalType":"X216"}],"outputs":[{"name":"result","type":"bool","internalType":"bool"}],"stateMutability":"nonpayable"},{"type":"function","name":"greaterThanOrEqualTo","inputs":[{"name":"value0","type":"int256","internalType":"X216"},{"name":"value1","type":"int256","internalType":"X216"}],"outputs":[{"name":"result","type":"bool","internalType":"bool"}],"stateMutability":"nonpayable"},{"type":"function","name":"lessThan","inputs":[{"name":"value0","type":"int256","internalType":"X216"},{"name":"value1","type":"int256","internalType":"X216"}],"outputs":[{"name":"result","type":"bool","internalType":"bool"}],"stateMutability":"nonpayable"},{"type":"function","name":"lessThanOrEqualTo","inputs":[{"name":"value0","type":"int256","internalType":"X216"},{"name":"value1","type":"int256","internalType":"X216"}],"outputs":[{"name":"result","type":"bool","internalType":"bool"}],"stateMutability":"nonpayable"},{"type":"function","name":"maxX216","inputs":[{"name":"value0","type":"int256","internalType":"X216"},{"name":"value1","type":"int256","internalType":"X216"}],"outputs":[{"name":"result","type":"int256","internalType":"X216"}],"stateMutability":"nonpayable"},{"type":"function","name":"minFractionsX216","inputs":[{"name":"numerator0","type":"int256","internalType":"X216"},{"name":"denominator0","type":"int256","internalType":"X216"},{"name":"numerator1","type":"int256","internalType":"X216"},{"name":"denominator1","type":"int256","internalType":"X216"}],"outputs":[{"name":"numerator","type":"int256","internalType":"X216"},{"name":"denominator","type":"int256","internalType":"X216"},{"name":"which","type":"bool","internalType":"bool"}],"stateMutability":"nonpayable"},{"type":"function","name":"minX216","inputs":[{"name":"value0","type":"int256","internalType":"X216"},{"name":"value1","type":"int256","internalType":"X216"}],"outputs":[{"name":"result","type":"int256","internalType":"X216"}],"stateMutability":"nonpayable"},{"type":"function","name":"mul","inputs":[{"name":"value0","type":"int256","internalType":"X216"},{"name":"value1","type":"int256","internalType":"X216"}],"outputs":[{"name":"result","type":"int256","internalType":"X216"}],"stateMutability":"nonpayable"},{"type":"function","name":"mulDiv","inputs":[{"name":"value","type":"int256","internalType":"X216"},{"name":"numerator","type":"int256","internalType":"X216"},{"name":"denominator","type":"int256","internalType":"X216"}],"outputs":[{"name":"result","type":"int256","internalType":"X216"}],"stateMutability":"nonpayable"},{"type":"function","name":"mulDivByExpInv16","inputs":[{"name":"value0","type":"int256","internalType":"X216"},{"name":"value1","type":"int256","internalType":"X216"}],"outputs":[{"name":"result","type":"int256","internalType":"X216"}],"stateMutability":"nonpayable"},{"type":"function","name":"mulDivByExpInv8","inputs":[{"name":"value0","type":"int256","internalType":"X216"},{"name":"value1","type":"int256","internalType":"X216"}],"outputs":[{"name":"result","type":"int256","internalType":"X216"}],"stateMutability":"nonpayable"},{"type":"function","name":"multiplyByExpEpsilonX216","inputs":[{"name":"value","type":"int256","internalType":"X216"}],"outputs":[{"name":"product","type":"int256","internalType":"X216"}],"stateMutability":"nonpayable"},{"type":"function","name":"notEqual","inputs":[{"name":"value0","type":"int256","internalType":"X216"},{"name":"value1","type":"int256","internalType":"X216"}],"outputs":[{"name":"result","type":"bool","internalType":"bool"}],"stateMutability":"nonpayable"},{"type":"function","name":"sub","inputs":[{"name":"value0","type":"int256","internalType":"X216"},{"name":"value1","type":"int256","internalType":"X216"}],"outputs":[{"name":"result","type":"int256","internalType":"X216"}],"stateMutability":"nonpayable"}],"bytecode":{"object":"0x608060405234601c57600e6020565b6110ea61002b82396110ea90f35b6026565b60405190565b5f80fdfe60806040526004361015610013575b610751565b61001d5f3561014c565b80630b2d74d21461014757806311f12b73146101425780631cbb5fc91461013d578063230ebba11461013857806337c7eea4146101335780634452b7211461012e57806345186d231461012957806370be203d1461012457806378c99b7a1461011f578063a5f3c23b1461011a578063adefc37b14610115578063b4a480ad14610110578063b8a0be341461010b578063babdd83814610106578063bbe93d9114610101578063bfb0f6bf146100fc578063cf0f433d146100f7578063cf828136146100f25763fd70d9c30361000e5761071b565b6106e5565b610675565b6105df565b6105a9565b610573565b61053e565b610508565b6104d2565b61049c565b610467565b610413565b6103dd565b6103a1565b6102f3565b6102bd565b610260565b61022a565b6101f4565b60e01c90565b60405190565b5f80fd5b5f80fd5b90565b61016c81610160565b0361017357565b5f80fd5b9050359061018482610163565b565b91906040838203126101ae57806101a26101ab925f8601610177565b93602001610177565b90565b61015c565b90565b6101ca6101c56101cf92610160565b6101b3565b610160565b90565b6101db906101b6565b9052565b91906101f2905f602085019401906101d2565b565b346102255761022161021061020a366004610186565b90610759565b610218610152565b918291826101df565b0390f35b610158565b3461025b57610257610246610240366004610186565b9061076f565b61024e610152565b918291826101df565b0390f35b610158565b346102915761028d61027c610276366004610186565b90610785565b610284610152565b918291826101df565b0390f35b610158565b151590565b6102a490610296565b9052565b91906102bb905f6020850194019061029b565b565b346102ee576102ea6102d96102d3366004610186565b9061079f565b6102e1610152565b918291826102a8565b0390f35b610158565b346103245761032061030f610309366004610186565b906107b5565b610317610152565b918291826101df565b0390f35b610158565b60808183031261036a5761033f825f8301610177565b926103676103508460208501610177565b9361035e8160408601610177565b93606001610177565b90565b61015c565b60409061039861039f949695939661038e60608401985f8501906101d2565b60208301906101d2565b019061029b565b565b346103d8576103d46103c06103b7366004610329565b929190916107cb565b6103cb939193610152565b9384938461036f565b0390f35b610158565b3461040e5761040a6103f96103f3366004610186565b906107fd565b610401610152565b918291826101df565b0390f35b610158565b346104445761044061042f610429366004610186565b90610813565b610437610152565b918291826102a8565b0390f35b610158565b906020828203126104625761045f915f01610177565b90565b61015c565b346104975761049361048261047d366004610449565b610829565b61048a610152565b918291826101df565b0390f35b610158565b346104cd576104c96104b86104b2366004610186565b9061083e565b6104c0610152565b918291826101df565b0390f35b610158565b34610503576104ff6104ee6104e8366004610186565b90610854565b6104f6610152565b918291826101df565b0390f35b610158565b346105395761053561052461051e366004610186565b9061086a565b61052c610152565b918291826102a8565b0390f35b610158565b3461056e5761056a610559610554366004610449565b610880565b610561610152565b918291826101df565b0390f35b610158565b346105a4576105a061058f610589366004610186565b90610895565b610597610152565b918291826102a8565b0390f35b610158565b346105da576105d66105c56105bf366004610186565b906108ab565b6105cd610152565b918291826101df565b0390f35b610158565b346106105761060c6105fb6105f5366004610186565b906108c1565b610603610152565b918291826102a8565b0390f35b610158565b90565b61062181610615565b0361062857565b5f80fd5b9050359061063982610618565b565b90916060828403126106705761066d610656845f8501610177565b93610664816020860161062c565b9360400161062c565b90565b61015c565b346106a6576106a261069161068b36600461063b565b916108d7565b610699610152565b918291826101df565b0390f35b610158565b90916060828403126106e0576106dd6106c6845f8501610177565b936106d48160208601610177565b93604001610177565b90565b61015c565b34610716576107126107016106fb3660046106ab565b916108f0565b610709610152565b918291826101df565b0390f35b610158565b3461074c57610748610737610731366004610186565b90610909565b61073f610152565b918291826102a8565b0390f35b610158565b5f80fd5b5f90565b9061076c91610766610755565b5061091f565b90565b906107829161077c610755565b50610945565b90565b9061079891610792610755565b506109aa565b90565b5f90565b906107b2916107ac61079b565b50610a08565b90565b906107c8916107c2610755565b50610a27565b90565b916107f69391926107da610755565b506107e3610755565b506107ec61079b565b5092909192610acb565b9192909190565b906108109161080a610755565b50610c13565b90565b906108269161082061079b565b50610c3a565b90565b61083b90610835610755565b50610c59565b90565b906108519161084b610755565b50610cbf565b90565b9061086791610861610755565b50610ccc565b90565b9061087d9161087761079b565b50610cd9565b90565b6108929061088c610755565b50610ce6565b90565b906108a8916108a261079b565b50610d31565b90565b906108be916108b8610755565b50610d50565b90565b906108d4916108ce61079b565b50610d85565b90565b916108ed926108e4610755565b50919091610dae565b90565b91610906926108fd610755565b50919091610de8565b90565b9061091c9161091661079b565b50610e42565b90565b610927610755565b50610933818390610e42565b5f1461093e57505b90565b905061093b565b90632ec3a85664027d117d7b7f7f6af8233bada11dd406b4458454ed9904d7af796be7aa4885b23e25b6985d499361097b610755565b500291027fdbb82f7041b890fe67970a62a3568cc34df9dcb17cc3a2a6a027850e7e3724f98183099102030290565b9064f8f6376c447f28256938c4923ff15ab260970aa81f81c15e6f5ef3af38dc210569e77db19359926109db610755565b5002907e1561650620dabb6a84b684e2a7e5a47caa0a0905210083f0e3b551aabf84e98183099102030290565b610a2491610a1e91610a1861079b565b50610d85565b15610296565b90565b90610a30610755565b5060018060d81b0391600160d81b82820960018060d81b03039160018060d81b0391090890565b90565b610a6e610a69610a7392610a57565b6101b3565b610160565b90565b610a7f5f610a5a565b90565b610a96610a91610a9b92610160565b6101b3565b610615565b90565b610aa790610296565b90565b610ac2610abc610ac8929593956101b6565b946101b6565b92610a9e565b90565b91929092610ad7610755565b50610ae0610755565b50610ae961079b565b50610afc83610af6610a76565b90610d85565b610bee575b610b2c610b15610b10856101b6565b610a82565b610b26610b21856101b6565b610a82565b90610e53565b90610b58610b41610b3c856101b6565b610a82565b610b52610b4d896101b6565b610a82565b90610e53565b9190919283610b6f610b6983610615565b91610615565b11938415610ba4575b505050505f14610b8e5750505f9091905b909192565b909150610b9f925090600191610aaa565b610b89565b610bbc9192939450610bb69092610615565b91610615565b149182610bcf575b50505f808080610b78565b610be5919250610bdf9092610615565b91610615565b10155f80610bc4565b610c0084610bfa610a76565b90610d85565b15610b0157915091509091600191929190565b90610c1c610755565b50610c28828290610e42565b5f14610c3357505b90565b9050610c30565b610c5691610c5091610c4a61079b565b50610e42565b15610296565b90565b7faa3ed2381a8b1241d16168fd77ef989ed2b13be12b716aa23f35ed0e3955600190610c83610755565b50780fffffffffffffff8000000000000002aaaaaaaaaaaaaaa001780fffffffffffffff8000000000000002aaaaaaaaaaaaaaa0001991090290565b610cc7610755565b500190565b610cd4610755565b500390565b610ce161079b565b501390565b610cee610755565b50780fffffffffffffff8000000000000002aaaaaaaaaaaaaaa001198102905f1990780fffffffffffffff8000000000000002aaaaaaaaaaaaaaa0011990090390565b610d4d91610d4791610d4161079b565b50610cd9565b15610296565b90565b610d58610755565b505f1991600160281b915f1991600160d81b8183095f1903915f19915f81129003905f8112900309080990565b610d8d61079b565b501490565b610da6610da1610dab92610615565b6101b3565b610160565b90565b610de091610de593610dd3610dce610ddb94610dc8610755565b506101b6565b610a82565b919091610e79565b610d92565b6101b6565b90565b610e3a91610e3f93610e2f610e2a610e24610e1f610e19610e14610e3598610e0e610755565b506101b6565b610a82565b956101b6565b610a82565b926101b6565b610a82565b91610ece565b610d92565b6101b6565b90565b610e4a61079b565b501290565b5f90565b9190610e5d610e4f565b50610e66610e4f565b505f198184099202918280821091030390565b9091610e83610e4f565b5060018103928391818409820392090890565b610eaa610ea5610eaf92610a57565b6101b3565b610615565b90565b90610ebd9103610615565b90565b90610ecb9102610615565b90565b610ed6610e4f565b50610ee2818390610e53565b9290929182610ef9610ef35f610e96565b91610615565b14610f5857610f4f9285610f559693610f4893610f14610e4f565b50099085821190039403936001610f345f610f2f8691610e96565b610eb2565b841680809504960493805f03040190610ec0565b1791610f9d565b90610ec0565b90565b5050500490565b90565b610f76610f71610f7b92610f5f565b6101b3565b610615565b90565b90565b610f95610f90610f9a92610f7e565b6101b3565b610615565b90565b6110b190610fa9610e4f565b506110ab61108f61106b611047611023610fff610fd06003610fcb8991610f62565b610ec0565b610fda6002610f81565b18610ff96002610ff4610fee8b8590610ec0565b91610f81565b610eb2565b90610ec0565b61101d60026110186110128a8590610ec0565b91610f81565b610eb2565b90610ec0565b611041600261103c611036898590610ec0565b91610f81565b610eb2565b90610ec0565b611065600261106061105a888590610ec0565b91610f81565b610eb2565b90610ec0565b611089600261108461107e878590610ec0565b91610f81565b610eb2565b90610ec0565b916110a66110a06002928590610ec0565b91610f81565b610eb2565b90610ec0565b9056fea2646970667358221220d543629a1e6a622bbc0a0e623c76802ea1a1b3248a6bc56e860d55b31a9f934264736f6c63430008220033","linkReferences":{}},"methodIdentifiers":{"add(int256,int256)":"a5f3c23b","cheapMul(int256,int256)":"37c7eea4","cheapMulDiv(int256,uint256,uint256)":"cf0f433d","divideByExpEpsilonX216(int256)":"b8a0be34","equals(int256,int256)":"bfb0f6bf","greaterThan(int256,int256)":"b4a480ad","greaterThanOrEqualTo(int256,int256)":"70be203d","lessThan(int256,int256)":"fd70d9c3","lessThanOrEqualTo(int256,int256)":"babdd838","maxX216(int256,int256)":"0b2d74d2","minFractionsX216(int256,int256,int256,int256)":"4452b721","minX216(int256,int256)":"45186d23","mul(int256,int256)":"bbe93d91","mulDiv(int256,int256,int256)":"cf828136","mulDivByExpInv16(int256,int256)":"11f12b73","mulDivByExpInv8(int256,int256)":"1cbb5fc9","multiplyByExpEpsilonX216(int256)":"78c99b7a","notEqual(int256,int256)":"230ebba1","sub(int256,int256)":"adefc37b"},"id":37}