{"abi":[{"type":"function","name":"_impose","inputs":[{"name":"kernel","type":"uint256","internalType":"Kernel"},{"name":"resultant","type":"uint256","internalType":"uint256"},{"name":"basePrice","type":"uint256","internalType":"uint256"},{"name":"index","type":"uint256","internalType":"Index"},{"name":"left","type":"bool","internalType":"bool"},{"name":"memberContent0","type":"uint256","internalType":"uint256"},{"name":"memberContent1","type":"uint256","internalType":"uint256"},{"name":"basePriceContent0","type":"uint256","internalType":"uint256"},{"name":"basePriceContent1","type":"uint256","internalType":"uint256"}],"outputs":[{"name":"resultantContent0","type":"uint256","internalType":"uint256"},{"name":"resultantContent1","type":"uint256","internalType":"uint256"}],"stateMutability":"nonpayable"},{"type":"function","name":"_member","inputs":[{"name":"kernel","type":"uint256","internalType":"Kernel"},{"name":"kernelArray","type":"uint256[]","internalType":"uint256[]"}],"outputs":[],"stateMutability":"nonpayable"}],"bytecode":{"object":"0x608060405234601c57600e6020565b6108cd61002b82396108cd90f35b6026565b60405190565b5f80fdfe60806040526004361015610013575b6102b2565b61001d5f3561003c565b806325e0ca81146100375763ea2bd4510361000e57610272565b610110565b60e01c90565b60405190565b5f80fd5b5f80fd5b5f80fd5b90565b61006081610054565b0361006757565b5f80fd5b9050359061007882610057565b565b5f80fd5b5f80fd5b5f80fd5b909182601f830112156100c05781359167ffffffffffffffff83116100bb5760200192602083028401116100b657565b610082565b61007e565b61007a565b919091604081840312610106576100de835f830161006b565b92602082013567ffffffffffffffff8111610101576100fd9201610086565b9091565b610050565b61004c565b5f0190565b3461013f576101296101233660046100c5565b916103c3565b610131610042565b8061013b8161010b565b0390f35b610048565b61014d81610054565b0361015457565b5f80fd5b9050359061016582610144565b565b61017081610054565b0361017757565b5f80fd5b9050359061018882610167565b565b151590565b6101988161018a565b0361019f57565b5f80fd5b905035906101b08261018f565b565b90916101208284031261023d576101cb835f840161006b565b926101d98160208501610158565b926101e78260408301610158565b926101f5836060840161017b565b9261020381608085016101a3565b926102118260a08301610158565b9261023a6102228460c08501610158565b936102308160e08601610158565b9361010001610158565b90565b61004c565b61024b90610054565b9052565b91602061027092949361026960408201965f830190610242565b0190610242565b565b346102ad576102946102853660046101b2565b97969096959195949294610512565b906102a96102a0610042565b9283928361024f565b0390f35b610048565b5f80fd5b5f90565b606090565b606090565b606090565b90565b90565b6102e36102de6102e8926102c9565b6102cc565b610054565b90565b60016102f79101610054565b90565b61030e61030961031392610054565b6102cc565b610054565b90565b634e487b7160e01b5f52603260045260245ffd5b5190565b906103388261032a565b811015610349576020809102010190565b610316565b5190565b9061035c8261034e565b81101561036d576020809102010190565b610316565b5190565b9061038082610372565b811015610391576020809102010190565b610316565b90565b906103a390610396565b9052565b906103b190610396565b9052565b906103bf90610054565b9052565b929150506103cf6102b6565b506103d86102ba565b506103e16102bf565b506103ea6102c4565b506103f36102c4565b50602435906001600283600401358060051b809560240187370401918301906001830160200282019060018401602002820190600185016020028201908585528584528583528582526001860160200282016040526104515f6102cf565b5b8061046561045f89610054565b91610054565b10156104e557806104db876104d6886104c06104d06104e0978f8c8c6104c561049a6104cb94610494876102fa565b906105cb565b92999194906104ba899c996104b58199968295929092610376565b610399565b92610376565b610399565b92610352565b6103a7565b9261032e565b6103b5565b6102eb565b610452565b509550926003949160016020945f600294878781029101a1858581029101a1838381029101a181029101a1565b929394601e919998610558989793976105296102b6565b506105326102b6565b50600289035282880152603e8560061b03840190600282035201529286909192936106bc565b601e600283035192015190565b5f90565b5f90565b5f90565b61057a5f6102cf565b90565b90565b61059461058f6105999261057d565b6102cc565b610396565b90565b6105a9600160d81b610580565b90565b90565b6105c36105be6105c8926105ac565b6102cc565b610396565b90565b906105d4610565565b6105dc610569565b6105e461056d565b506105ed61056d565b50610600836105fa610571565b90610779565b5f14610649575050603e906106136102b6565b5060061b03019061062382610786565b9161062d8161079a565b9161064561063c835f906107aa565b926001906107aa565b905b565b925092905061065661059c565b906106797801e355bbaee85cada65f73f32e88fb3cc629b709109f57564d6105af565b90610647565b61069361068e61069892610396565b6102cc565b610396565b90565b6106b36106ad6106b99295939561067f565b9461067f565b9261067f565b90565b61072794936106cd919392936105cb565b919592959091925f1461072957906107106107076106f6610715946106f18861079a565b61086a565b94610702875f906107aa565b610805565b946001906107aa565b6107d0565b909190915b9091929390919293610877565b565b83919261076461075b61074a6107699461074561076f9961079a565b6107c3565b95610756865f906107aa565b6107d0565b936001906107aa565b610805565b9161069b565b9161071a565b5f90565b610781610775565b501190565b600290610791610565565b50035160f01c90565b6107a2610569565b505160c01c90565b906107b361056d565b5015601b02602303015160281c90565b6107cb610569565b500190565b6107d861056d565b505f1991600160281b915f1991600160d81b8183095f1903915f19915f81129003905f8112900309080990565b90632ec3a85664027d117d7b7f7f6af8233bada11dd406b4458454ed9904d7af796be7aa4885b23e25b6985d499361083b61056d565b500291027fdbb82f7041b890fe67970a62a3568cc34df9dcb17cc3a2a6a027850e7e3724f98183099102030290565b610872610569565b500390565b602091926022820394855196601e8401526003830152601882035203525256fea2646970667358221220ef10f60709dc2b4b2e598df24c7656a040b1d148271854e1e16b19fe07df4fb064736f6c63430008220033","linkReferences":{}},"methodIdentifiers":{"_impose(uint256,uint256,uint256,uint256,bool,uint256,uint256,uint256,uint256)":"ea2bd451","_member(uint256,uint256[])":"25e0ca81"},"id":22}