{"abi":[{"type":"function","name":"add","inputs":[{"name":"value0","type":"uint256","internalType":"X23"},{"name":"value1","type":"uint256","internalType":"X23"}],"outputs":[{"name":"result","type":"uint256","internalType":"X23"}],"stateMutability":"nonpayable"},{"type":"function","name":"sub","inputs":[{"name":"value0","type":"uint256","internalType":"X23"},{"name":"value1","type":"uint256","internalType":"X23"}],"outputs":[{"name":"result","type":"uint256","internalType":"X23"}],"stateMutability":"nonpayable"}],"bytecode":{"object":"0x608060405234601c57600e6020565b6101d461002b82396101d490f35b6026565b60405190565b5f80fdfe60806040526004361015610013575b610150565b61001d5f3561003c565b8063771602f7146100375763b67d77c50361000e5761011a565b6100e4565b60e01c90565b60405190565b5f80fd5b5f80fd5b90565b61005c81610050565b0361006357565b5f80fd5b9050359061007482610053565b565b919060408382031261009e578061009261009b925f8601610067565b93602001610067565b90565b61004c565b90565b6100ba6100b56100bf92610050565b6100a3565b610050565b90565b6100cb906100a6565b9052565b91906100e2905f602085019401906100c2565b565b34610115576101116101006100fa366004610076565b90610158565b610108610042565b918291826100cf565b0390f35b610048565b3461014b57610147610136610130366004610076565b9061016e565b61013e610042565b918291826100cf565b0390f35b610048565b5f80fd5b5f90565b9061016b91610165610154565b50610184565b90565b906101819161017b610154565b50610191565b90565b61018c610154565b500190565b610199610154565b50039056fea26469706673582212204f19fe12c407351d2103c5470222c2ea433e7a22770738e46a58dd5a88a7428364736f6c63430008220033","linkReferences":{}},"methodIdentifiers":{"add(uint256,uint256)":"771602f7","sub(uint256,uint256)":"b67d77c5"},"id":38}