{"abi":[{"type":"function","name":"authorizeInitialization","inputs":[{"name":"sentinelInput","type":"bytes","internalType":"bytes"}],"outputs":[{"name":"selector","type":"bytes4","internalType":"bytes4"}],"stateMutability":"nonpayable"},{"type":"function","name":"authorizeInitializationSelector","inputs":[],"outputs":[{"name":"","type":"bytes4","internalType":"bytes4"}],"stateMutability":"view"},{"type":"function","name":"authorizeModificationOfPoolGrowthPortion","inputs":[{"name":"sentinelInput","type":"bytes","internalType":"bytes"}],"outputs":[{"name":"selector","type":"bytes4","internalType":"bytes4"}],"stateMutability":"nonpayable"},{"type":"function","name":"authorizeModificationOfPoolGrowthPortionSelector","inputs":[],"outputs":[{"name":"","type":"bytes4","internalType":"bytes4"}],"stateMutability":"view"},{"type":"function","name":"getGrowthPortions","inputs":[{"name":"sentinelInput","type":"bytes","internalType":"bytes"}],"outputs":[{"name":"_maxPoolGrowthPortion","type":"uint256","internalType":"X47"},{"name":"_protocolGrowthPortion","type":"uint256","internalType":"X47"}],"stateMutability":"nonpayable"},{"type":"function","name":"maxPoolGrowthPortion","inputs":[],"outputs":[{"name":"","type":"uint256","internalType":"X47"}],"stateMutability":"view"},{"type":"function","name":"protocolGrowthPortion","inputs":[],"outputs":[{"name":"","type":"uint256","internalType":"X47"}],"stateMutability":"view"},{"type":"function","name":"revertMessage","inputs":[],"outputs":[{"name":"","type":"bytes","internalType":"bytes"}],"stateMutability":"view"},{"type":"function","name":"reverting","inputs":[],"outputs":[{"name":"","type":"bool","internalType":"bool"}],"stateMutability":"view"},{"type":"function","name":"setValues","inputs":[{"name":"_maxPoolGrowthPortion","type":"uint256","internalType":"X47"},{"name":"_protocolGrowthPortion","type":"uint256","internalType":"X47"},{"name":"selector0","type":"bytes4","internalType":"bytes4"},{"name":"selector1","type":"bytes4","internalType":"bytes4"},{"name":"_reverting","type":"bool","internalType":"bool"},{"name":"_revertMessage","type":"bytes","internalType":"bytes"}],"outputs":[],"stateMutability":"nonpayable"}],"bytecode":{"object":"0x608060405234601c57600e6020565b610dda61002b8239610dda90f35b6026565b60405190565b5f80fdfe60806040526004361015610013575b6107ef565b61001d5f356100bc565b80630c4257de146100b75780631dfa4738146100b257806325d9185c146100ad5780633d5e8937146100a8578063445bebf9146100a357806353c16ec11461009e578063951c05dc146100995780639d667c9914610094578063b8bc61251461008f5763ef0c20a70361000e576107ba565b610774565b61073f565b610518565b6103f9565b61037c565b610319565b6102d6565b61023e565b6101a7565b60e01c90565b60405190565b5f80fd5b5f80fd5b5f80fd5b5f80fd5b5f80fd5b5f80fd5b909182601f8301121561011a5781359167ffffffffffffffff831161011557602001926001830284011161011057565b6100dc565b6100d8565b6100d4565b90602082820312610150575f82013567ffffffffffffffff811161014b5761014792016100e0565b9091565b6100d0565b6100cc565b90565b90565b61016f61016a61017492610155565b610158565b610155565b90565b6101809061015b565b9052565b9160206101a592949361019e60408201965f830190610177565b0190610177565b565b346101d9576101c06101ba36600461011f565b906108db565b906101d56101cc6100c2565b92839283610184565b0390f35b6100c8565b5f9103126101e857565b6100cc565b1c90565b90565b61020490600861020993026101ed565b6101f1565b90565b9061021791546101f4565b90565b61022660015f9061020c565b90565b919061023c905f60208501940190610177565b565b3461026e5761024e3660046101de565b61026a61025961021a565b6102616100c2565b91829182610229565b0390f35b6100c8565b60ff1690565b61028990600861028e93026101ed565b610273565b90565b9061029c9154610279565b90565b6102ac6002600890610291565b90565b151590565b6102bd906102af565b9052565b91906102d4905f602085019401906102b4565b565b34610306576102e63660046101de565b6103026102f161029f565b6102f96100c2565b918291826102c1565b0390f35b6100c8565b6103165f5f9061020c565b90565b34610349576103293660046101de565b61034561033461030b565b61033c6100c2565b91829182610229565b0390f35b6100c8565b63ffffffff60e01b1690565b6103639061034e565b9052565b919061037a905f6020850194019061035a565b565b346103ad576103a961039861039236600461011f565b9061096b565b6103a06100c2565b91829182610367565b0390f35b6100c8565b60e01b90565b6103c1906103b2565b90565b6103d49060086103d993026101ed565b6103b8565b90565b906103e791546103c4565b90565b6103f660025f906103dc565b90565b34610429576104093660046101de565b6104256104146103ea565b61041c6100c2565b91829182610367565b0390f35b6100c8565b61043781610155565b0361043e57565b5f80fd5b9050359061044f8261042e565b565b61045a8161034e565b0361046157565b5f80fd5b9050359061047282610451565b565b61047d816102af565b0361048457565b5f80fd5b9050359061049582610474565b565b9160c08383031261050e576104ae825f8501610442565b926104bc8360208301610442565b926104ca8160408401610465565b926104d88260608501610465565b926104e68360808301610488565b9260a082013567ffffffffffffffff81116105095761050592016100e0565b9091565b6100d0565b6100cc565b5f0190565b3461054d5761053761052b366004610497565b95949094939193610ce1565b61053f6100c2565b8061054981610513565b0390f35b6100c8565b634e487b7160e01b5f525f60045260245ffd5b634e487b7160e01b5f52602260045260245ffd5b9060016002830492168015610599575b602083101461059457565b610565565b91607f1691610589565b60209181520190565b5f5260205f2090565b905f92918054906105cf6105c883610579565b80946105a3565b916001811690815f1461062657506001146105ea575b505050565b6105f791929394506105ac565b915f925b81841061060e57505001905f80806105e5565b600181602092959395548486015201910192906105fb565b92949550505060ff19168252151560200201905f80806105e5565b9061064b916105b5565b90565b601f801991011690565b634e487b7160e01b5f52604160045260245ffd5b906106769061064e565b810190811067ffffffffffffffff82111761069057604052565b610658565b906106b56106ae926106a56100c2565b93848092610641565b038361066c565b565b905f106106ca576106c790610695565b90565b610552565b6106db60035f906106b7565b90565b5190565b60209181520190565b90825f9392825e0152565b61071561071e6020936107239361070c816106de565b938480936106e2565b958691016106eb565b61064e565b0190565b61073c9160208201915f8184039101526106f6565b90565b3461076f5761074f3660046101de565b61076b61075a6106cf565b6107626100c2565b91829182610727565b0390f35b6100c8565b346107a5576107a161079061078a36600461011f565b90610d4c565b6107986100c2565b91829182610367565b0390f35b6100c8565b6107b760026004906103dc565b90565b346107ea576107ca3660046101de565b6107e66107d56107aa565b6107dd6100c2565b91829182610367565b0390f35b6100c8565b5f80fd5b5f90565b60401c90565b61080961080e916107f7565b610273565b90565b61081b90546107fd565b90565b5f80fd5b9061083561082e6100c2565b928361066c565b565b67ffffffffffffffff81116108555761085160209161064e565b0190565b610658565b90825f939282370152565b9092919261087a61087582610837565b610822565b93818552602085019082840111610896576108949261085a565b565b61081e565b6108a6913691610865565b90565b5f1c90565b6108ba6108bf916108a9565b6101f1565b90565b6108cc90546108ae565b90565b6108d890610695565b90565b6108e36107f3565b506108ec6107f3565b506108f76002610811565b5f146109165761090760036108cf565b6020610912826106de565b9101fd5b5f916109219161089b565b602061092c826106de565b9101a16109385f6108c2565b9061094360016108c2565b90565b5f90565b61095661095b916108a9565b6103b8565b90565b610968905461094a565b90565b610973610946565b5061097e6002610811565b5f1461099d5761098e60036108cf565b6020610999826106de565b9101fd5b5f916109a89161089b565b60206109b3826106de565b9101a16109c0600261095e565b90565b5f1b90565b906109d45f19916109c3565b9181191691161790565b90565b906109f66109f16109fd9261015b565b6109de565b82546109c8565b9055565b90610a1063ffffffff916109c3565b9181191691161790565b610a239061034e565b90565b610a2f906100bc565b90565b90610a47610a42610a4e92610a1a565b610a26565b8254610a01565b9055565b60201b90565b90610a6b67ffffffff0000000091610a52565b9181191691161790565b90610a8a610a85610a9192610a1a565b610a26565b8254610a58565b9055565b60401b90565b90610aaf68ff000000000000000091610a95565b9181191691161790565b610ac2906102af565b90565b90565b90610add610ad8610ae492610ab9565b610ac5565b8254610a9b565b9055565b5090565b601f602091010490565b1b90565b91906008610b15910291610b0f5f1984610af6565b92610af6565b9181191691161790565b90565b9190610b38610b33610b409361015b565b610b1f565b908354610afa565b9055565b5f90565b610b5a91610b54610b44565b91610b22565b565b5f5b828110610b6a57505050565b80610b795f6001938501610b48565b01610b5e565b9190601f8111610b8f575b505050565b818111610b9c575b610b8a565b610bb1610bab610bcf946105ac565b91610aec565b916020610bbd82610aec565b9110610bd7575b809101910390610b5c565b5f8080610b97565b505f610bc4565b90610bee905f19906008026101ed565b191690565b81610bfd91610bde565b906002021790565b91610c109082610ae8565b9067ffffffffffffffff8211610ccf57610c3482610c2e8554610579565b85610b7f565b5f90601f8311600114610c6757918091610c56935f92610c5b575b5050610bf3565b90555b565b90915001355f80610c4f565b601f19831691610c76856105ac565b925f5b818110610cb757509160029391856001969410610c9d575b50505002019055610c59565b610cad910135601f841690610bde565b90555f8080610c91565b91936020600181928787013581550195019201610c79565b610658565b90610cdf9291610c05565b565b92610d0e610d2397969593610d07610d1594610d00610d1c985f6109e1565b60016109e1565b6002610a32565b6002610a75565b6002610ac8565b6003610cd4565b565b60201c90565b610d37610d3c91610d25565b6103b8565b90565b610d499054610d2b565b90565b610d54610946565b50610d5f6002610811565b5f14610d7e57610d6f60036108cf565b6020610d7a826106de565b9101fd5b5f91610d899161089b565b6020610d94826106de565b9101a1610da16002610d3f565b9056fea26469706673582212200b7446d651216c85fce80fd083e52acd35b29ee46e85813879a23472ca66773364736f6c63430008220033","linkReferences":{}},"methodIdentifiers":{"authorizeInitialization(bytes)":"445bebf9","authorizeInitializationSelector()":"53c16ec1","authorizeModificationOfPoolGrowthPortion(bytes)":"b8bc6125","authorizeModificationOfPoolGrowthPortionSelector()":"ef0c20a7","getGrowthPortions(bytes)":"0c4257de","maxPoolGrowthPortion()":"3d5e8937","protocolGrowthPortion()":"1dfa4738","revertMessage()":"9d667c99","reverting()":"25d9185c","setValues(uint256,uint256,bytes4,bytes4,bool,bytes)":"951c05dc"},"id":27}