{"abi":[{"type":"function","name":"_invokeAuthorizeInitialization","inputs":[{"name":"sentinel","type":"address","internalType":"contract ISentinel"},{"name":"content","type":"bytes","internalType":"bytes"}],"outputs":[],"stateMutability":"nonpayable"},{"type":"function","name":"_invokeAuthorizeModificationOfPoolGrowthPortion","inputs":[{"name":"sentinel","type":"address","internalType":"contract ISentinel"},{"name":"content","type":"bytes","internalType":"bytes"}],"outputs":[],"stateMutability":"nonpayable"},{"type":"function","name":"_invokeSentinelGetGrowthPortions","inputs":[{"name":"sentinel","type":"address","internalType":"contract ISentinel"},{"name":"content","type":"bytes","internalType":"bytes"}],"outputs":[{"name":"maxPoolGrowthPortion","type":"uint256","internalType":"X47"},{"name":"protocolGrowthPortion","type":"uint256","internalType":"X47"}],"stateMutability":"nonpayable"},{"type":"error","name":"InvalidSentinelResponse","inputs":[{"name":"response","type":"bytes4","internalType":"bytes4"}]}],"bytecode":{"object":"0x608060405234601c57600e6020565b6106ed61002b82396106ed90f35b6026565b60405190565b5f80fdfe60806040526004361015610013575b610231565b61001d5f3561004c565b80638426e71714610047578063ae76e2fa146100425763c2dd21460361000e576101fa565b610174565b610140565b60e01c90565b60405190565b5f80fd5b5f80fd5b5f80fd5b60018060a01b031690565b61007890610064565b90565b6100849061006f565b90565b6100908161007b565b0361009757565b5f80fd5b905035906100a882610087565b565b5f80fd5b5f80fd5b5f80fd5b909182601f830112156100f05781359167ffffffffffffffff83116100eb5760200192600183028401116100e657565b6100b2565b6100ae565b6100aa565b9190916040818403126101365761010e835f830161009b565b92602082013567ffffffffffffffff81116101315761012d92016100b6565b9091565b610060565b61005c565b5f0190565b3461016f576101596101533660046100f5565b91610239565b610161610052565b8061016b8161013b565b0390f35b610058565b346101a35761018d6101873660046100f5565b91610267565b610195610052565b8061019f8161013b565b0390f35b610058565b90565b90565b6101c26101bd6101c7926101a8565b6101ab565b6101a8565b90565b6101d3906101ae565b9052565b9160206101f89294936101f160408201965f8301906101ca565b01906101ca565b565b3461022c5761021361020d3660046100f5565b91610299565b9061022861021f610052565b928392836101d7565b0390f35b610058565b5f80fd5b5f90565b905061024591506102dd565b61024d610235565b5060243560040180356020019060a437610265610425565b565b905061027391506102dd565b61027b610235565b5060243560040180356020019060a4376102936104cf565b565b5f90565b90506102b791506102a8610295565b506102b1610295565b506102dd565b6102bf610235565b5060243560040180356020019060a4376102d76105b2565b91909190565b7fd0716769b9821201d69d150facfd6f46f5fd95ac252f6eccb21b7560a01e078b55565b90565b61031861031361031d92610301565b6101ab565b610064565b90565b61032990610304565b90565b61034061033b61034592610064565b6101ab565b610064565b90565b6103519061032c565b90565b61035d90610348565b90565b61037161036c5f610320565b610354565b90565b63ffffffff1690565b61039161038c61039692610374565b6101ab565b610374565b90565b6103a56103aa9161004c565b61037d565b90565b90565b6103c46103bf6103c9926103ad565b6101ab565b6101a8565b90565b5f90565b63ffffffff60e01b1690565b6103e5906103d0565b9052565b91906103fc905f602085019401906103dc565b565b156104065750565b610421905f918291633438289f60e01b8352600483016103e9565b0390fd5b61042d610662565b8061044761044161043c610360565b61007b565b9161007b565b03610450575b50565b5f60209161046c61046763b8bc612560e01b610399565b610690565b61047d610478846103b0565b6106a3565b608082604461048a6106a8565b6104926103cc565b5001925af1156104c7576104c15f51806104bb6104b563b8bc612560e01b6103d0565b916103d0565b146103fe565b5f61044d565b3d5f803e3d5ffd5b6104d7610662565b806104f16104eb6104e6610360565b61007b565b9161007b565b036104fa575b50565b5f60209161051661051163445bebf960e01b610399565b610690565b610527610522846103b0565b6106a3565b60808260446105346106a8565b61053c6103cc565b5001925af1156105715761056b5f518061056561055f63445bebf960e01b6103d0565b916103d0565b146103fe565b5f6104f7565b3d5f803e3d5ffd5b65ffffffffffff1690565b61059861059361059d92610579565b6101ab565b6101a8565b90565b6105af65ffffffffffff610584565b90565b6105ba610295565b506105c3610295565b506105cc6105a0565b906105d56105a0565b906105de610662565b806105f86105f26105ed610360565b61007b565b9161007b565b03610601575b50565b5f9193506040925061062161061c6306212bef60e11b610399565b610690565b61063361062e60206103b0565b6106a3565b60808260446106406106a8565b01925af115610656575f5190602051905f6105fe565b3d5f803e3d5ffd5b5f90565b61066a61065e565b507fd0716769b9821201d69d150facfd6f46f5fd95ac252f6eccb21b7560a01e078b5490565b60046080015160201c9060e01b17608052565b608452565b6106b0610235565b5060a4519056fea26469706673582212208b45ebb86b8adfa7851a827e834a6b10efe08ad9b9cda27d53f2b322dc3961cc64736f6c63430008220033","linkReferences":{}},"methodIdentifiers":{"_invokeAuthorizeInitialization(address,bytes)":"ae76e2fa","_invokeAuthorizeModificationOfPoolGrowthPortion(address,bytes)":"8426e717","_invokeSentinelGetGrowthPortions(address,bytes)":"c2dd2146"},"id":27}